{
  "_format": "hh-sol-artifact-1",
  "contractName": "EthereumLightClient",
  "sourceName": "contracts/EthereumLightClient.sol",
  "abi": [
    {
      "anonymous": false,
      "inputs": [
        {
          "indexed": false,
          "internalType": "address",
          "name": "account",
          "type": "address"
        }
      ],
      "name": "Paused",
      "type": "event"
    },
    {
      "anonymous": false,
      "inputs": [
        {
          "indexed": false,
          "internalType": "address",
          "name": "account",
          "type": "address"
        }
      ],
      "name": "Unpaused",
      "type": "event"
    },
    {
      "inputs": [
        {
          "internalType": "bytes32",
          "name": "blockHash",
          "type": "bytes32"
        },
        {
          "internalType": "bytes32",
          "name": "receiptsHash",
          "type": "bytes32"
        }
      ],
      "name": "VerifyReceiptsHash",
      "outputs": [
        {
          "internalType": "bool",
          "name": "",
          "type": "bool"
        }
      ],
      "stateMutability": "view",
      "type": "function"
    },
    {
      "inputs": [
        {
          "internalType": "bytes",
          "name": "_rlpHeader",
          "type": "bytes"
        },
        {
          "internalType": "bytes32[4][64]",
          "name": "cache",
          "type": "bytes32[4][64]"
        },
        {
          "internalType": "bytes32[][64]",
          "name": "proofs",
          "type": "bytes32[][64]"
        }
      ],
      "name": "addBlockHeader",
      "outputs": [
        {
          "internalType": "bool",
          "name": "",
          "type": "bool"
        }
      ],
      "stateMutability": "nonpayable",
      "type": "function"
    },
    {
      "inputs": [
        {
          "internalType": "uint256",
          "name": "",
          "type": "uint256"
        }
      ],
      "name": "blockExisting",
      "outputs": [
        {
          "internalType": "bool",
          "name": "",
          "type": "bool"
        }
      ],
      "stateMutability": "view",
      "type": "function"
    },
    {
      "inputs": [],
      "name": "blockHeightMax",
      "outputs": [
        {
          "internalType": "uint256",
          "name": "",
          "type": "uint256"
        }
      ],
      "stateMutability": "view",
      "type": "function"
    },
    {
      "inputs": [
        {
          "internalType": "uint256",
          "name": "",
          "type": "uint256"
        }
      ],
      "name": "blocks",
      "outputs": [
        {
          "internalType": "uint256",
          "name": "parentHash",
          "type": "uint256"
        },
        {
          "internalType": "uint256",
          "name": "stateRoot",
          "type": "uint256"
        },
        {
          "internalType": "uint256",
          "name": "transactionsRoot",
          "type": "uint256"
        },
        {
          "internalType": "uint256",
          "name": "receiptsRoot",
          "type": "uint256"
        },
        {
          "internalType": "uint256",
          "name": "number",
          "type": "uint256"
        },
        {
          "internalType": "uint256",
          "name": "difficulty",
          "type": "uint256"
        },
        {
          "internalType": "uint256",
          "name": "totalDifficulty",
          "type": "uint256"
        },
        {
          "internalType": "uint256",
          "name": "time",
          "type": "uint256"
        },
        {
          "internalType": "uint256",
          "name": "hash",
          "type": "uint256"
        }
      ],
      "stateMutability": "view",
      "type": "function"
    },
    {
      "inputs": [
        {
          "internalType": "uint256",
          "name": "",
          "type": "uint256"
        },
        {
          "internalType": "uint256",
          "name": "",
          "type": "uint256"
        }
      ],
      "name": "blocksByHeight",
      "outputs": [
        {
          "internalType": "uint256",
          "name": "",
          "type": "uint256"
        }
      ],
      "stateMutability": "view",
      "type": "function"
    },
    {
      "inputs": [
        {
          "internalType": "uint256",
          "name": "",
          "type": "uint256"
        }
      ],
      "name": "blocksByHeightExisting",
      "outputs": [
        {
          "internalType": "bool",
          "name": "",
          "type": "bool"
        }
      ],
      "stateMutability": "view",
      "type": "function"
    },
    {
      "inputs": [
        {
          "internalType": "uint256",
          "name": "",
          "type": "uint256"
        }
      ],
      "name": "canonicalBlocks",
      "outputs": [
        {
          "internalType": "bool",
          "name": "",
          "type": "bool"
        }
      ],
      "stateMutability": "view",
      "type": "function"
    },
    {
      "inputs": [],
      "name": "canonicalHead",
      "outputs": [
        {
          "internalType": "uint256",
          "name": "",
          "type": "uint256"
        }
      ],
      "stateMutability": "view",
      "type": "function"
    },
    {
      "inputs": [],
      "name": "finalityConfirms",
      "outputs": [
        {
          "internalType": "uint256",
          "name": "",
          "type": "uint256"
        }
      ],
      "stateMutability": "view",
      "type": "function"
    },
    {
      "inputs": [],
      "name": "firstBlock",
      "outputs": [
        {
          "internalType": "uint256",
          "name": "",
          "type": "uint256"
        }
      ],
      "stateMutability": "view",
      "type": "function"
    },
    {
      "inputs": [],
      "name": "getBlockHeightMax",
      "outputs": [
        {
          "internalType": "uint256",
          "name": "",
          "type": "uint256"
        }
      ],
      "stateMutability": "view",
      "type": "function"
    },
    {
      "inputs": [
        {
          "internalType": "bytes32",
          "name": "blockHash",
          "type": "bytes32"
        }
      ],
      "name": "getReceiptRoot",
      "outputs": [
        {
          "internalType": "bytes32",
          "name": "",
          "type": "bytes32"
        }
      ],
      "stateMutability": "view",
      "type": "function"
    },
    {
      "inputs": [
        {
          "internalType": "bytes32",
          "name": "blockHash",
          "type": "bytes32"
        }
      ],
      "name": "getStateRoot",
      "outputs": [
        {
          "internalType": "bytes32",
          "name": "",
          "type": "bytes32"
        }
      ],
      "stateMutability": "view",
      "type": "function"
    },
    {
      "inputs": [
        {
          "internalType": "bytes32",
          "name": "blockHash",
          "type": "bytes32"
        }
      ],
      "name": "getTxRoot",
      "outputs": [
        {
          "internalType": "bytes32",
          "name": "",
          "type": "bytes32"
        }
      ],
      "stateMutability": "view",
      "type": "function"
    },
    {
      "inputs": [
        {
          "internalType": "bytes",
          "name": "_rlpHeader",
          "type": "bytes"
        }
      ],
      "name": "initialize",
      "outputs": [],
      "stateMutability": "nonpayable",
      "type": "function"
    },
    {
      "inputs": [
        {
          "internalType": "uint256",
          "name": "blockHash",
          "type": "uint256"
        }
      ],
      "name": "isFinalized",
      "outputs": [
        {
          "internalType": "bool",
          "name": "",
          "type": "bool"
        }
      ],
      "stateMutability": "view",
      "type": "function"
    },
    {
      "inputs": [
        {
          "internalType": "uint256",
          "name": "blockHash",
          "type": "uint256"
        }
      ],
      "name": "isVerified",
      "outputs": [
        {
          "internalType": "bool",
          "name": "",
          "type": "bool"
        }
      ],
      "stateMutability": "view",
      "type": "function"
    },
    {
      "inputs": [
        {
          "internalType": "uint256",
          "name": "",
          "type": "uint256"
        }
      ],
      "name": "longestBranchHead",
      "outputs": [
        {
          "internalType": "uint256",
          "name": "",
          "type": "uint256"
        }
      ],
      "stateMutability": "view",
      "type": "function"
    },
    {
      "inputs": [
        {
          "internalType": "uint256",
          "name": "blockHash",
          "type": "uint256"
        }
      ],
      "name": "numberOfBlockConfirmations",
      "outputs": [
        {
          "internalType": "uint256",
          "name": "",
          "type": "uint256"
        }
      ],
      "stateMutability": "view",
      "type": "function"
    },
    {
      "inputs": [],
      "name": "paused",
      "outputs": [
        {
          "internalType": "bool",
          "name": "",
          "type": "bool"
        }
      ],
      "stateMutability": "view",
      "type": "function"
    },
    {
      "inputs": [
        {
          "internalType": "bytes32",
          "name": "hash",
          "type": "bytes32"
        },
        {
          "internalType": "uint64",
          "name": "nonce",
          "type": "uint64"
        },
        {
          "internalType": "uint64",
          "name": "number",
          "type": "uint64"
        },
        {
          "internalType": "bytes32[4][64]",
          "name": "cache",
          "type": "bytes32[4][64]"
        },
        {
          "internalType": "bytes32[][64]",
          "name": "proofs",
          "type": "bytes32[][64]"
        },
        {
          "internalType": "uint256",
          "name": "difficulty",
          "type": "uint256"
        },
        {
          "internalType": "uint256",
          "name": "mixHash",
          "type": "uint256"
        }
      ],
      "name": "verifyEthash",
      "outputs": [
        {
          "internalType": "bool",
          "name": "",
          "type": "bool"
        }
      ],
      "stateMutability": "pure",
      "type": "function"
    }
  ],
  "bytecode": "0x608060405234801561001057600080fd5b50613bcf806100206000396000f3fe608060405234801561001057600080fd5b50600436106101425760003560e01c806392947cc0116100b8578063d072e8d71161007c578063d072e8d714610265578063d6bacb0e1461026d578063dbad417c14610280578063e0f5466a14610293578063f25b3f99146102a6578063faa0c996146102ce57610142565b806392947cc01461021c578063aa6b789b1461022f578063ad56296514610237578063b99955361461024a578063c4dd6d031461025d57610142565b806337b6d96b1161010a57806337b6d96b146101b35780633c6c6b73146101c657806341e63749146101d9578063439fab91146101ec578063486f164c146102015780635c975abb1461021457610142565b80630c5a1d6014610147578063231b02681461016557806329e141af1461016d5780632cb583781461018d57806333727c4d146101a0575b600080fd5b61014f6102e1565b60405161015c919061381a565b60405180910390f35b61014f6102e7565b61018061017b366004613621565b6102ed565b60405161015c919061380f565b61014f61019b366004613609565b610308565b6101806101ae366004613609565b610320565b6101806101c1366004613609565b610360565b61014f6101d4366004613775565b6103a0565b6101806101e7366004613609565b6103ce565b6101ff6101fa3660046136d0565b6103e3565b005b61018061020f366004613702565b61050d565b610180610894565b61014f61022a366004613609565b61089d565b61014f6108af565b61014f610245366004613609565b6108b5565b610180610258366004613642565b6108ca565b61014f61095d565b61014f610963565b61014f61027b366004613609565b610969565b61018061028e366004613609565b61097e565b61014f6102a1366004613609565b610993565b6102b96102b4366004613609565b6109da565b60405161015c99989796959493929190613b37565b6101806102dc366004613609565b610a28565b606c5490565b60655481565b60008281526068602052604090206003015481145b92915050565b6000818152606860205260409020600101545b919050565b60008181526067602052604081205460ff1680156103025750506066546000908152606860205260408082206004908101549383529120015460c8011090565b60008181526067602052604081205460ff168015610302575050606654600090815260686020526040808220600490810154938352912001546019011090565b606a60205281600052604060002081815481106103b957fe5b90600052602060002001600091509150505481565b60696020526000908152604090205460ff1681565b600054610100900460ff16806103fc57506103fc610a3d565b8061040a575060005460ff16155b61042f5760405162461bcd60e51b8152600401610426906139d1565b60405180910390fd5b600054610100900460ff1615801561045a576000805460ff1961ff0019909116610100171660011790555b600d606e55600061046a83610a4e565b9050610474613249565b61047d84610a59565b90506104876132cf565b6040518061012001604052808360000151815260200183606001518152602001836080015181526020018360a00151815260200183610100015181526020018360e0015181526020018360e00151815260200183610160015181526020018481525090506104f481610cb0565b5050508015610509576000805461ff00191690555b5050565b6000610517610894565b156105345760405162461bcd60e51b8152600401610426906139a7565b600061053f85610a4e565b60008181526069602052604090205490915060ff16156105715760405162461bcd60e51b815260040161042690613869565b610579613249565b61058286610a59565b805160009081526069602052604090205490915060ff166105b55760405162461bcd60e51b815260040161042690613ae7565b80516000908152606860205260409020600401546105d4906001610d98565b816101000151146105f75760405162461bcd60e51b815260040161042690613957565b80516000908152606860205260409020600701546101608201511161062e5760405162461bcd60e51b815260040161042690613a60565b60e081015181516000908152606860205260409020600501546106519190610dc4565b61066d5760405162461bcd60e51b815260040161042690613823565b600061067887610de1565b905060006106a18260001b846101c001518561010001518a8a8860e00151896101a001516108ca565b9050806106c05760405162461bcd60e51b8152600401610426906138b2565b6106c86132cf565b6040518061012001604052808560000151815260200185606001518152602001856080015181526020018560a00151815260200185610100015181526020018560e0015181526020016107428660e00151606860008960000151815260200190815260200160002060060154610d9890919063ffffffff16565b815261016086015160208083019190915260409182018890526000888152606882528281208451815584830151600180830191909155858501516002830155606086015160038301556080860151600483015560a0860151600583015560c0860151600683015560e086015160078301556101008087015160089093019290925560698452848320805460ff199081168317909155918a0180518452606a855285842080548084018255908552858520018c905580518452606b909452939091208054909116909217909155606c549051919250101561082657610100840151606c555b606654845114156108545760668590556000858152606760205260409020805460ff19166001179055610885565b6000858152606860205260408082206006908101546066548452919092209091015410156108855761088585610eb3565b50600198975050505050505050565b60335460ff1690565b606d6020526000908152604090205481565b60665481565b60009081526068602052604090206003015490565b60006175306001600160401b03871604816108e482610f67565b905060006108f183610fb4565b90506000806109048d8d858d888e610fde565b915091506000886000198161091557fe5b04905088896000198161092457fe5b066001018161092f57fe5b040182881480156109405750600189115b801561094b57508181115b9e9d5050505050505050505050505050565b606e5481565b606c5481565b60009081526068602052604090206002015490565b606b6020526000908152604090205460ff1681565b60008181526067602052604081205460ff166109b15750600061031b565b50600081815260686020526040808220600490810154606654845291909220909101540361031b565b60686020528060005260406000206000915090508060000154908060010154908060020154908060030154908060040154908060050154908060060154908060070154908060080154905089565b60676020526000908152604090205460ff1681565b6000610a4830611571565b15905090565b805160209091012090565b610a61613249565b610a6961331b565b610a7a610a7584611577565b61159c565b905060005b610a88826115e6565b15610ca95780610aaa57610aa3610a9e83611607565b611655565b8352610ca1565b8060011415610ac957610abf610a9e83611607565b6020840152610ca1565b8060021415610af657610ae3610ade83611607565b6116b5565b6001600160a01b03166040840152610ca1565b8060031415610b1557610b0b610a9e83611607565b6060840152610ca1565b8060041415610b3457610b2a610a9e83611607565b6080840152610ca1565b8060051415610b5357610b49610a9e83611607565b60a0840152610ca1565b8060061415610b7757610b6d610b6883611607565b6116cf565b60c0840152610ca1565b8060071415610b9657610b8c610a9e83611607565b60e0840152610ca1565b8060081415610bb657610bab610a9e83611607565b610100840152610ca1565b8060091415610bd657610bcb610a9e83611607565b610120840152610ca1565b80600a1415610bf657610beb610a9e83611607565b610140840152610ca1565b80600b1415610c1657610c0b610a9e83611607565b610160840152610ca1565b80600c1415610c3657610c2b610b6883611607565b610180840152610ca1565b80600d1415610c5657610c4b610a9e83611607565b6101a0840152610ca1565b80600e1415610c7657610c6b610a9e83611607565b6101c0840152610ca1565b80600f1415610c9657610c8b610a9e83611607565b6101e0840152610ca1565b610c9f82611607565b505b600101610a7f565b5050919050565b6101008101805160658181556000918252606860209081526040808420865181558287015160018083019190915582880151600283015560608801516003830155608088018051600484015560a0890151600584015560c0890151600684015560e09098015160078301558651600890920182905590855260698352818520805460ff19908116831790915587518652606a84528286208751815480850183559188528588209091015587518652606b845282862080548216831790559651606c559451808552606d8352818520559154606681905583526067905290208054909216179055565b600082820183811015610dbd5760405162461bcd60e51b8152600401610426906138e9565b9392505050565b6000610dd7826127108104606302611753565b9092101592915050565b60408051600e8082526101e0820190925260009160609190816020015b6060815260200190600190039081610dfe579050509050610e1d61331b565b610e29610a7585611577565b905060005b610e37826115e6565b8015610e435750600e81105b15610e965780600d1415610e6657610e5a82611607565b50610e6482611607565b505b610e77610e7283611607565b61177b565b838281518110610e8357fe5b6020908102919091010152600101610e2e565b6060610ea1846117f9565b80516020909101209695505050505050565b805b60008181526067602052604090205460ff16158015610ee2575060008181526069602052604090205460ff165b15610f10576000908152606760209081526040808320805460ff191660011790556068909152902054610eb5565b606654905b808214158015610f33575060008281526069602052604090205460ff165b15610f60576000918252606760209081526040808420805460ff1916905560689091529091205490610f15565b5050606655565b6040805180820190915260208082527febe50dbd916746b56e58869e26485d140f92866d59fbb894405d8c7ef07b10868183015261019219929092016001600160401b0316909102015190565b6000633fffff80628000008302015b610fd160808204600261181c565b6103025760ff1901610fc3565b6040805160288082526060828101909352600092839260806001600160401b038a16049260208201818036833701905050905061101d8160008c611906565b6110298160208b61190e565b61103281611939565b905060006110408282611b63565b6040805160208082526104208201909252919250606091908082016104008036833701905050905060005b81518163ffffffff1610156110b95761108a84600f8316600402611b63565b828263ffffffff168151811061109c57fe5b63ffffffff9092166020928302919091019091015260010161106b565b50606081516001600160401b03811180156110d357600080fd5b506040519080825280602002602001820160405280156110fd578160200160208202803683370190505b5090508860005b604063ffffffff821610156113fd5760008763ffffffff1661114b8784188788518663ffffffff168161113357fe5b068151811061113e57fe5b6020026020010151611b7e565b63ffffffff168161115857fe5b06905061116361333b565b8d8363ffffffff166040811061117557fe5b6020020151905060008260020263ffffffff16905060608d8563ffffffff166040811061119e57fe5b60200201519050600082846040516020016111ba9291906137d4565b6040516020818303038152906040528051906020012090506111dd828883611b8b565b5060005b60048163ffffffff1610156113e1576008810260008663ffffffff84166004811061120857fe5b6020020151905061121c60e082901c611c28565b8b8363ffffffff168151811061122e57fe5b602002602001019063ffffffff16908163ffffffff168152505061125560c082901c611c28565b8b8360010163ffffffff168151811061126a57fe5b602002602001019063ffffffff16908163ffffffff168152505061129160a082901c611c28565b8b8360020163ffffffff16815181106112a657fe5b602002602001019063ffffffff16908163ffffffff16815250506112cd608082901c611c28565b8b8360030163ffffffff16815181106112e257fe5b602002602001019063ffffffff16908163ffffffff1681525050611309606082901c611c28565b8b8360040163ffffffff168151811061131e57fe5b602002602001019063ffffffff16908163ffffffff1681525050611345604082901c611c28565b8b8360050163ffffffff168151811061135a57fe5b63ffffffff90921660209283029190910182015261137a9082901c611c28565b8b8360060163ffffffff168151811061138f57fe5b63ffffffff909216602092830291909101909101526113ad81611c28565b8b8360070163ffffffff16815181106113c257fe5b63ffffffff9092166020928302919091019091015250506001016111e1565b506113ec8989611c6f565b505060019093019250611104915050565b5060005b83518163ffffffff1610156114aa5761147261145d611448868463ffffffff168151811061142b57fe5b6020026020010151878560010163ffffffff168151811061113e57fe5b868460020163ffffffff168151811061113e57fe5b858360030163ffffffff168151811061113e57fe5b84600463ffffffff84160463ffffffff168151811061148d57fe5b63ffffffff90921660209283029190910190910152600401611401565b506000805b60048551816114ba57fe5b048163ffffffff16101561152f57602082901b91506000858263ffffffff16815181106114e357fe5b602090810291909101015163ffffffff601882811c60ff16600884811c61ff00169085901b62ff0000169490921b63ff00000016939093171791909117169290921791506001016114af565b5060405181906115459088908390602001613795565b604051602081830303815290604052805190602001209850985050505050505050965096945050505050565b3b151590565b61157f613359565b506040805180820190915281518152602082810190820152919050565b6115a461331b565b6115ad82611f18565b6115b657600080fd5b60006115c58360200151611f52565b60208085015160408051808201909152868152920190820152915050919050565b60006115f0613359565b505080518051602091820151919092015191011190565b61160f613359565b611618826115e6565b61162157600080fd5b6020820151600061163182611fb5565b80830160209586015260408051808201909152908152938401919091525090919050565b80516000901580159061166a57508151602110155b61167357600080fd5b60006116828360200151611f52565b835160208086015183018051939450918490039291908310156116ac57826020036101000a820491505b50949350505050565b80516000906015146116c657600080fd5b61030282611655565b80516060906116dd57600080fd5b60006116ec8360200151611f52565b83519091508190036060816001600160401b038111801561170c57600080fd5b506040519080825280601f01601f191660200182016040528015611737576020820181803683370190505b50905060008160200190506116ac848760200151018285612049565b6000828211156117755760405162461bcd60e51b815260040161042690613920565b50900390565b60608082600001516001600160401b038111801561179857600080fd5b506040519080825280601f01601f1916602001820160405280156117c3576020820181803683370190505b5090508051600014156117d757905061031b565b60008160200190506117f28460200151828660000151612049565b5092915050565b60608061180583612094565b9050610dbd611816825160c0612194565b826122ed565b6000826002148061182d5750826003145b1561183a57506001610302565b60028306158061184a5750600283105b1561185757506000610302565b61185f613373565b6118688461236a565b805160208201519192509060006118808683896123a8565b9050806001148061189357506001870381145b156118a5576001945050505050610302565b60001983015b80156118f8576118bd8260028a6123a8565b915081600114156118d657600095505050505050610302565b600188038214156118ef57600195505050505050610302565b600019016118ab565b506000979650505050505050565b910160200152565b611919838383612401565b611934836004840163ffffffff602085901c81169061240116565b505050565b606081516028148061194c575081516040145b6119685760405162461bcd60e51b815260040161042690613aa5565b6000600883518161197557fe5b049050611980613391565b60005b82811015611ac457600081600802905060388682600701815181106119a457fe5b602001015160f81c60f81b60f81c60ff16901b60308783600601815181106119c857fe5b602001015160f81c60f81b60f81c60ff16901b60288884600501815181106119ec57fe5b602001015160f81c60f81b60f81c60ff16901b6020898560040181518110611a1057fe5b602001015160f81c60f81b60f81c60ff16901b60188a8660030181518110611a3457fe5b602001015160f81c60f81b60f81c60ff16901b60108b8760020181518110611a5857fe5b602001015160f81c60f81b60f81c60ff16901b60088c8860010181518110611a7c57fe5b602001015160f81c60f81b60f81c60ff16901b8c8881518110611a9b57fe5b016020015160f81c17171717171717838360098110611ab657fe5b602002015250600101611983565b506001818360098110611ad357fe5b6020020152610100810180516001603f1b179052611aef6133b0565b611af88261242b565b60408051818152606081810183529293509060208201818036833701905050905060005b60108163ffffffff161015611b5957611b5181600402848363ffffffff1660108110611b4457fe5b6020020151849190612401565b600101611b1c565b5095945050505050565b81810160040151600090611b7681611c28565b949350505050565b6301000193919091021890565b600081815b8551811015611c1d576000868281518110611ba757fe5b60200260200101519050808311611be8578281604051602001611bcb929190613787565b604051602081830303815290604052805190602001209250611c14565b8083604051602001611bfb929190613787565b6040516020818303038152906040528051906020012092505b50600101611b90565b509092149392505050565b600060188263ffffffff16901b63ff0000001660088363ffffffff16901b62ff00001660088463ffffffff16901c61ff001660188563ffffffff16901c1717179050919050565b602082810180519183015163010001939283021863ffffffff90811690915260408084015190850180518402909118821690526060808401519085018051840290911882169052608080840151908501805184029091188216905260a080840151908501805184029091188216905260c080840151908501805184029091188216905260e08084015190850180518402909118821690526101008084015190850180518402909118821690526101208084015190850180518402909118821690526101408084015190850180518402909118821690526101608084015190850180518402909118821690526101808084015190850180518402909118821690526101a08084015190850180518402909118821690526101c08084015190850180518402909118821690526101e08084015190850180518402909118821690526102008084015190850180518402909118821690526102208084015190850180518402909118821690526102408084015190850180518402909118821690526102608084015190850180518402909118821690526102808084015190850180518402909118821690526102a08084015190850180518402909118821690526102c08084015190850180518402909118821690526102e08084015190850180518402909118821690526103008084015190850180518402909118821690526103208084015190850180518402909118821690526103408084015190850180518402909118821690526103608084015190850180518402909118821690526103808084015190850180518402909118821690526103a08084015190850180518402909118821690526103c08084015190850180518402909118821690526103e0808401519085018051840290911882169052610400928301519290930180519091029091189091169052565b8051600090611f295750600061031b565b6020820151805160001a9060c0821015611f485760009250505061031b565b5060019392505050565b8051600090811a6080811015611f6c57600091505061031b565b60b8811080611f87575060c08110801590611f87575060f881105b15611f9657600191505061031b565b60c0811015611faa5760b51901905061031b565b60f51901905061031b565b80516000908190811a6080811015611fd057600191506117f2565b60b8811015611fe557607e19810191506117f2565b60c08110156120125760b78103600185019450806020036101000a855104600182018101935050506117f2565b60f88110156120275760be19810191506117f2565b60019390930151602084900360f7016101000a900490920160f5190192915050565b8061205357611934565b5b60208110612073578251825260209283019290910190601f1901612054565b915181516020939093036101000a6000190180199091169216919091179052565b60608151600014156120b5575060408051600081526020810190915261031b565b6000805b83518110156120e8578381815181106120ce57fe5b6020026020010151518201915080806001019150506120b9565b6060826001600160401b038111801561210057600080fd5b506040519080825280601f01601f19166020018201604052801561212b576020820181803683370190505b50600092509050602081015b85518310156116ac57606086848151811061214e57fe5b60200260200101519050600060208201905061216c838284516125dd565b87858151811061217857fe5b6020026020010151518301925050508280600101935050612137565b60608060388410156121f15760408051600180825281830190925290602082018180368337019050509050838301601f1a60f81b816000815181106121d557fe5b60200101906001600160f81b031916908160001a905350610dbd565b600060015b8086816121ff57fe5b041561221457600190910190610100026121f6565b816001016001600160401b038111801561222d57600080fd5b506040519080825280601f01601f191660200182016040528015612258576020820181803683370190505b509250603782860101601f1a60f81b8360008151811061227457fe5b60200101906001600160f81b031916908160001a905350600190505b8181116122e3576101008183036101000a87816122a957fe5b04816122b157fe5b06601f1a60f81b8382815181106122c457fe5b60200101906001600160f81b031916908160001a905350600101612290565b5050905092915050565b6060806040519050835180825260208201818101602087015b8183101561231e578051835260209283019201612306565b50855184518101855292509050808201602086015b8183101561234b578051835260209283019201612333565b508651929092011591909101601f01601f191660405250905092915050565b612372613373565b600060001983015b6002810661239257600191909101906002900461237a565b61239a613373565b918252602082015292915050565b60008184816123b357fe5b0693506001845b84156116ac5760028504946001908116908114156123e357918102918483816123df57fe5b0692505b6123ed8283612621565b91508482816123f857fe5b069150506123ba565b6020820183018181538160081c60018201538160101c60028201538160181c600382015350505050565b6124336133b0565b60486008816124406133cf565b600080805b86858161244e57fe5b048310156124f957600091505b60058210156124e3575060005b60058110156124d85785878161247a57fe5b0482600502820110156124d0578882600502828560090201016009811061249d57fe5b602002015184838360050201601981106124b357fe5b60200201511884838360050201601981106124ca57fe5b60200201525b600101612468565b60019091019061245b565b6124ec8461265b565b9350600190920191612445565b6125016133b0565b60005b60108110156125cf57600093505b60058410156125ca57600092505b60058310156125bf5787898161253257fe5b048460050284011080156125465750601081105b156125b457858484600502016019811061255c57fe5b602002015163ffffffff1682826010811061257357fe5b6020020152640100000000866005850286016019811061258f57fe5b60200201518161259b57fe5b048282600101601081106125ab57fe5b60200201526002015b600190920191612520565b600190930192612512565b612504565b509998505050505050505050565b8282825b60208110612600578151835260209283019290910190601f19016125e1565b905182516020929092036101000a6000190180199091169116179052505050565b60008261263057506000610302565b8282028284828161263d57fe5b0414610dbd5760405162461bcd60e51b815260040161042690613a1f565b6126636133cf565b61266b6133ee565b6126736133ee565b61267b6133cf565b61268361340c565b60405180610300016040528060018152602001618082815260200167800000000000808a8152602001678000000080008000815260200161808b81526020016380000001815260200167800000008000808181526020016780000000000080098152602001608a81526020016088815260200163800080098152602001638000000a8152602001638000808b815260200167800000000000008b8152602001678000000000008089815260200167800000000000800381526020016780000000000080028152602001678000000000000080815260200161800a815260200167800000008000000a81526020016780000000800080818152602001678000000000008080815260200163800000018152602001678000000080008008815250905060005b601881101561323e576080878101516060808a01516040808c01516020808e01518e511890911890921890931889526101208b01516101008c015160e08d015160c08e015160a08f0151181818189089018190526101c08b01516101a08c01516101808d01516101608e01516101408f0151181818189289019283526102608b01516102408c01516102208d01516102008e01516101e08f015118181818918901919091526103008a01516102e08b01516102c08c01516102a08d01516102808e0151181818189288018390526001600160401b0360028202166001603f1b91829004179092188652510485600260200201516002026001600160401b03161785600060200201511884600160200201526001603f1b8560036020020151816128cc57fe5b0485600360200201516002026001600160401b03161785600160200201511884600260200201526001603f1b85600460200201518161290757fe5b0485600460200201516002026001600160401b0316178560026005811061292a57fe5b602002015118606085015284516001603f1b9086516060808901519390920460029091026001600160401b031617909118608086810191825286518a5118808b5287516020808d018051909218825289516040808f0180519092189091528a518e8801805190911890528a51948e0180519095189094528901805160a08e0180519091189052805160c08e0180519091189052805160e08e018051909118905280516101008e0180519091189052516101208d018051909118905291880180516101408d018051909118905280516101608d018051909118905280516101808d018051909118905280516101a08d0180519091189052516101c08c018051909118905292870180516101e08c018051909118905280516102008c018051909118905280516102208c018051909118905280516102408c0180519091189052516102608b018051909118905281516102808b018051909118905281516102a08b018051909118905281516102c08b018051909118905281516102e08b018051909118905290516103008a01805190911890529084525163100000009060208901516001600160401b03641000000000909102169190041761010084015260408701516001603d1b9060408901516001600160401b03600890910216919004176101608401526060870151628000009060608901516001600160401b036502000000000090910216919004176102608401526080870151654000000000009060808901516001600160401b036204000090910216919004176102c084015260a08701516001603f1b900487600560200201516002026001600160401b03161783600260198110612b9457fe5b602002015260c0870151621000008104651000000000009091026001600160401b039081169190911760a085015260e0880151664000000000000081046104009091028216176101a08501526101008801516208000081046520000000000090910282161761020085015261012088015160048082029092166001603e1b909104176103008501526101408801516101408901516001600160401b036001603e1b90910216919004176080840152610160870151670400000000000000906101608901516001600160401b036040909102169190041760e084015261018087015162200000906101808901516001600160401b036508000000000090910216919004176101408401526101a08701516602000000000000906101a08901516001600160401b0361800090910216919004176102408401526101c08701516008906101c08901516001600160401b036001603d1b90910216919004176102a08401526101e0870151641000000000906101e08901516001600160401b03631000000090910216919004176020840152610200808801516102008901516001600160401b0366800000000000009091021691900417610120840152610220870151648000000000906102208901516001600160401b036302000000909102169190041761018084015261024087015165080000000000906102408901516001600160401b036220000090910216919004176101e0840152610260870151610100906102608901516001600160401b03600160381b90910216919004176102e0840152610280870151642000000000906102808901516001600160401b036308000000909102169190041760608401526102a087015165100000000000906102a08901516001600160401b0362100000909102169190041760c08401526102c08701516302000000906102c08901516001600160401b0364800000000090910216919004176101c08401526102e0870151600160381b906102e08901516001600160401b036101009091021691900417610220840152610300870151660400000000000090048760186020020151614000026001600160401b031617836014602002015282600a602002015183600560200201511916836000602002015118876000602002015282600b602002015183600660200201511916836001602002015118876001602002015282600c602002015183600760200201511916836002602002015118876002602002015282600d602002015183600860200201511916836003602002015118876003602002015282600e602002015183600960200201511916836004602002015118876004602002015282600f602002015183600a602002015119168360056020020151188760056020020152826010602002015183600b602002015119168360066020020151188760066020020152826011602002015183600c602002015119168360076020020151188760076020020152826012602002015183600d602002015119168360086020020151188760086020020152826013602002015183600e602002015119168360096020020151188760096020020152826014602002015183600f6020020151191683600a60200201511887600a602002015282601560200201518360106020020151191683600b60200201511887600b602002015282601660200201518360116020020151191683600c60200201511887600c602002015282601760200201518360126020020151191683600d60200201511887600d602002015282601860200201518360136020020151191683600e60200201511887600e602002015282600060200201518360146020020151191683600f60200201511887600f602002015282600160200201518360156020020151191683601060200201511887601060200201528260026020020151836016602002015119168360116020020151188760116020020152826003602002015183601760200201511916836012602002015118876012602002015282600460200201518360186020020151191683601360200201511887601360200201528260056020020151836000602002015119168360146020020151188760146020020152826006602002015183600160200201511916836015602002015118876015602002015282600760200201518360026020020151191683601660200201511887601660200201528260086020020151836003602002015119168360176020020151188760176020020152826009602002015183600460200201511916836018602002015118876018602002015281816018811061322c57fe5b602002015187511887526001016127a7565b509495945050505050565b604051806102000160405280600081526020016000815260200160006001600160a01b03168152602001600081526020016000815260200160008152602001606081526020016000815260200160008152602001600081526020016000815260200160008152602001606081526020016000815260200160008152602001600081525090565b6040518061012001604052806000815260200160008152602001600081526020016000815260200160008152602001600081526020016000815260200160008152602001600081525090565b604051806040016040528061332e613359565b8152602001600081525090565b60405180608001604052806004906020820280368337509192915050565b604051806040016040528060008152602001600081525090565b60405180604001604052806002906020820280368337509192915050565b6040518061012001604052806009906020820280368337509192915050565b6040518061020001604052806010906020820280368337509192915050565b6040518061032001604052806019906020820280368337509192915050565b6040518060a001604052806005906020820280368337509192915050565b6040518061030001604052806018906020820280368337509192915050565b6000601f838184011261343c578182fd5b613447610800613b76565b91508183856120008601111561345c57600080fd5b60005b60408110156134cb57868483011261347657600080fd5b608061348181613b76565b9083019080848a84111561349457600080fd5b60005b60048110156134b6578135845260209384019390910190600101613497565b5050855250602090930192915060010161345f565b5050505092915050565b6000601f83818401126134e6578182fd5b6134f1610800613b76565b9150818360005b60408110156134cb5781358601878582011261351357600080fd5b80356001600160401b0381111561352657fe5b6020808202613536828201613b76565b8381528281019085840183870185018e101561355157600080fd5b600096505b85871015613574578035835260019690960195918401918401613556565b508852505094850194939093019250506001016134f8565b600082601f83011261359c578081fd5b81356001600160401b038111156135af57fe5b6135c2601f8201601f1916602001613b76565b91508082528360208285010111156135d957600080fd5b8060208401602084013760009082016020015292915050565b80356001600160401b038116811461031b57600080fd5b60006020828403121561361a578081fd5b5035919050565b60008060408385031215613633578081fd5b50508035926020909101359150565b60008060008060008060006120c0888a03121561365d578283fd5b8735965061366d602089016135f2565b955061367b604089016135f2565b945061368a8960608a0161342b565b93506120608801356001600160401b038111156136a5578384fd5b6136b18a828b016134d5565b93505061208088013591506120a0880135905092959891949750929550565b6000602082840312156136e1578081fd5b81356001600160401b038111156136f6578182fd5b611b768482850161358c565b60008060006120408486031215613717578283fd5b83356001600160401b038082111561372d578485fd5b6137398783880161358c565b9450613748876020880161342b565b935061202086013591508082111561375e578283fd5b5061376b868287016134d5565b9150509250925092565b60008060408385031215613633578182fd5b918252602082015260400190565b60008351815b818110156137b5576020818701810151858301520161379b565b818111156137c35782828501525b509190910191825250602001919050565b6000838252602080830184835b60048110156137fe578151835291830191908301906001016137e1565b5050505060a0820190509392505050565b901515815260200190565b90815260200190565b60208082526026908201527f52656c617920626c6f636b206661696c65643a20696e76616c696420646966666040820152656963756c747960d01b606082015260800190565b60208082526029908201527f52656c617920626c6f636b206661696c65643a20626c6f636b20616c726561646040820152681e481c995b185e595960ba1b606082015260800190565b6020808252601f908201527f52656c617920626c6f636b206661696c65643a20696e76616c696420506f5700604082015260600190565b6020808252601b908201527f536166654d6174683a206164646974696f6e206f766572666c6f770000000000604082015260600190565b6020808252601e908201527f536166654d6174683a207375627472616374696f6e206f766572666c6f770000604082015260600190565b60208082526030908201527f52656c617920626c6f636b206661696c65643a20696e76616c696420626c6f6360408201526f0d640c4d8dec6d690cad2ced0e89ac2f60831b606082015260800190565b60208082526010908201526f14185d5cd8589b194e881c185d5cd95960821b604082015260600190565b6020808252602e908201527f496e697469616c697a61626c653a20636f6e747261637420697320616c72656160408201526d191e481a5b9a5d1a585b1a5e995960921b606082015260800190565b60208082526021908201527f536166654d6174683a206d756c7469706c69636174696f6e206f766572666c6f6040820152607760f81b606082015260800190565b60208082526025908201527f52656c617920626c6f636b206661696c65643a20696e76616c69642074696d6560408201526407374616d760dc1b606082015260800190565b60208082526022908201527f736861353132206f6e6c7920737570706f7274203634206f7220343020627974604082015261657360f01b606082015260800190565b60208082526030908201527f52656c617920626c6f636b206661696c65643a20706172656e7420626c6f636b60408201526f081b9bdd081c995b185e5959081e595d60821b606082015260800190565b988952602089019790975260408801959095526060870193909352608086019190915260a085015260c084015260e08301526101008201526101200190565b6040518181016001600160401b0381118282101715613b9157fe5b60405291905056fea2646970667358221220786d5a570e4358891defb2cf132d4574f781e0fcd4f27ee622f2a62b3ccbf83d64736f6c63430007030033",
  "linkReferences": {},
  "deployedLinkReferences": {}
}