{
  "_format": "hh-sol-artifact-1",
  "contractName": "EthereumLightClient",
  "sourceName": "contracts/EthereumLightClient.sol",
  "abi": [
    {
      "anonymous": false,
      "inputs": [
        {
          "indexed": false,
          "internalType": "address",
          "name": "account",
          "type": "address"
        }
      ],
      "name": "Paused",
      "type": "event"
    },
    {
      "anonymous": false,
      "inputs": [
        {
          "indexed": false,
          "internalType": "address",
          "name": "account",
          "type": "address"
        }
      ],
      "name": "Unpaused",
      "type": "event"
    },
    {
      "inputs": [
        {
          "internalType": "bytes32",
          "name": "blockHash",
          "type": "bytes32"
        },
        {
          "internalType": "bytes32",
          "name": "receiptsHash",
          "type": "bytes32"
        }
      ],
      "name": "VerifyReceiptsHash",
      "outputs": [
        {
          "internalType": "bool",
          "name": "",
          "type": "bool"
        }
      ],
      "stateMutability": "view",
      "type": "function"
    },
    {
      "inputs": [
        {
          "internalType": "bytes",
          "name": "_rlpHeader",
          "type": "bytes"
        },
        {
          "internalType": "bytes32[4][64]",
          "name": "cache",
          "type": "bytes32[4][64]"
        },
        {
          "internalType": "bytes32[][64]",
          "name": "proofs",
          "type": "bytes32[][64]"
        }
      ],
      "name": "addBlockHeader",
      "outputs": [
        {
          "internalType": "bool",
          "name": "",
          "type": "bool"
        }
      ],
      "stateMutability": "nonpayable",
      "type": "function"
    },
    {
      "inputs": [
        {
          "internalType": "uint256",
          "name": "",
          "type": "uint256"
        }
      ],
      "name": "blockExisting",
      "outputs": [
        {
          "internalType": "bool",
          "name": "",
          "type": "bool"
        }
      ],
      "stateMutability": "view",
      "type": "function"
    },
    {
      "inputs": [],
      "name": "blockHeightMax",
      "outputs": [
        {
          "internalType": "uint256",
          "name": "",
          "type": "uint256"
        }
      ],
      "stateMutability": "view",
      "type": "function"
    },
    {
      "inputs": [
        {
          "internalType": "uint256",
          "name": "",
          "type": "uint256"
        }
      ],
      "name": "blocks",
      "outputs": [
        {
          "internalType": "uint256",
          "name": "parentHash",
          "type": "uint256"
        },
        {
          "internalType": "uint256",
          "name": "stateRoot",
          "type": "uint256"
        },
        {
          "internalType": "uint256",
          "name": "transactionsRoot",
          "type": "uint256"
        },
        {
          "internalType": "uint256",
          "name": "receiptsRoot",
          "type": "uint256"
        },
        {
          "internalType": "uint256",
          "name": "number",
          "type": "uint256"
        },
        {
          "internalType": "uint256",
          "name": "difficulty",
          "type": "uint256"
        },
        {
          "internalType": "uint256",
          "name": "totalDifficulty",
          "type": "uint256"
        },
        {
          "internalType": "uint256",
          "name": "time",
          "type": "uint256"
        },
        {
          "internalType": "uint256",
          "name": "hash",
          "type": "uint256"
        }
      ],
      "stateMutability": "view",
      "type": "function"
    },
    {
      "inputs": [
        {
          "internalType": "uint256",
          "name": "",
          "type": "uint256"
        },
        {
          "internalType": "uint256",
          "name": "",
          "type": "uint256"
        }
      ],
      "name": "blocksByHeight",
      "outputs": [
        {
          "internalType": "uint256",
          "name": "",
          "type": "uint256"
        }
      ],
      "stateMutability": "view",
      "type": "function"
    },
    {
      "inputs": [
        {
          "internalType": "uint256",
          "name": "",
          "type": "uint256"
        }
      ],
      "name": "blocksByHeightExisting",
      "outputs": [
        {
          "internalType": "bool",
          "name": "",
          "type": "bool"
        }
      ],
      "stateMutability": "view",
      "type": "function"
    },
    {
      "inputs": [
        {
          "internalType": "uint256",
          "name": "",
          "type": "uint256"
        }
      ],
      "name": "canonicalBlocks",
      "outputs": [
        {
          "internalType": "bool",
          "name": "",
          "type": "bool"
        }
      ],
      "stateMutability": "view",
      "type": "function"
    },
    {
      "inputs": [],
      "name": "canonicalHead",
      "outputs": [
        {
          "internalType": "uint256",
          "name": "",
          "type": "uint256"
        }
      ],
      "stateMutability": "view",
      "type": "function"
    },
    {
      "inputs": [],
      "name": "finalityConfirms",
      "outputs": [
        {
          "internalType": "uint256",
          "name": "",
          "type": "uint256"
        }
      ],
      "stateMutability": "view",
      "type": "function"
    },
    {
      "inputs": [],
      "name": "firstBlock",
      "outputs": [
        {
          "internalType": "uint256",
          "name": "",
          "type": "uint256"
        }
      ],
      "stateMutability": "view",
      "type": "function"
    },
    {
      "inputs": [],
      "name": "getBlockHeightMax",
      "outputs": [
        {
          "internalType": "uint256",
          "name": "",
          "type": "uint256"
        }
      ],
      "stateMutability": "view",
      "type": "function"
    },
    {
      "inputs": [
        {
          "internalType": "bytes32",
          "name": "blockHash",
          "type": "bytes32"
        }
      ],
      "name": "getReceiptRoot",
      "outputs": [
        {
          "internalType": "bytes32",
          "name": "",
          "type": "bytes32"
        }
      ],
      "stateMutability": "view",
      "type": "function"
    },
    {
      "inputs": [
        {
          "internalType": "bytes32",
          "name": "blockHash",
          "type": "bytes32"
        }
      ],
      "name": "getStateRoot",
      "outputs": [
        {
          "internalType": "bytes32",
          "name": "",
          "type": "bytes32"
        }
      ],
      "stateMutability": "view",
      "type": "function"
    },
    {
      "inputs": [
        {
          "internalType": "bytes32",
          "name": "blockHash",
          "type": "bytes32"
        }
      ],
      "name": "getTxRoot",
      "outputs": [
        {
          "internalType": "bytes32",
          "name": "",
          "type": "bytes32"
        }
      ],
      "stateMutability": "view",
      "type": "function"
    },
    {
      "inputs": [
        {
          "internalType": "bytes",
          "name": "_rlpHeader",
          "type": "bytes"
        }
      ],
      "name": "initialize",
      "outputs": [],
      "stateMutability": "nonpayable",
      "type": "function"
    },
    {
      "inputs": [
        {
          "internalType": "uint256",
          "name": "blockHash",
          "type": "uint256"
        }
      ],
      "name": "isFinalized",
      "outputs": [
        {
          "internalType": "bool",
          "name": "",
          "type": "bool"
        }
      ],
      "stateMutability": "view",
      "type": "function"
    },
    {
      "inputs": [
        {
          "internalType": "uint256",
          "name": "blockHash",
          "type": "uint256"
        }
      ],
      "name": "isVerified",
      "outputs": [
        {
          "internalType": "bool",
          "name": "",
          "type": "bool"
        }
      ],
      "stateMutability": "view",
      "type": "function"
    },
    {
      "inputs": [
        {
          "internalType": "uint256",
          "name": "",
          "type": "uint256"
        }
      ],
      "name": "longestBranchHead",
      "outputs": [
        {
          "internalType": "uint256",
          "name": "",
          "type": "uint256"
        }
      ],
      "stateMutability": "view",
      "type": "function"
    },
    {
      "inputs": [
        {
          "internalType": "uint256",
          "name": "blockHash",
          "type": "uint256"
        }
      ],
      "name": "numberOfBlockConfirmations",
      "outputs": [
        {
          "internalType": "uint256",
          "name": "",
          "type": "uint256"
        }
      ],
      "stateMutability": "view",
      "type": "function"
    },
    {
      "inputs": [],
      "name": "oldestBlockStored",
      "outputs": [
        {
          "internalType": "uint256",
          "name": "",
          "type": "uint256"
        }
      ],
      "stateMutability": "view",
      "type": "function"
    },
    {
      "inputs": [],
      "name": "paused",
      "outputs": [
        {
          "internalType": "bool",
          "name": "",
          "type": "bool"
        }
      ],
      "stateMutability": "view",
      "type": "function"
    },
    {
      "inputs": [
        {
          "internalType": "bytes32",
          "name": "hash",
          "type": "bytes32"
        },
        {
          "internalType": "uint64",
          "name": "nonce",
          "type": "uint64"
        },
        {
          "internalType": "uint64",
          "name": "number",
          "type": "uint64"
        },
        {
          "internalType": "bytes32[4][64]",
          "name": "cache",
          "type": "bytes32[4][64]"
        },
        {
          "internalType": "bytes32[][64]",
          "name": "proofs",
          "type": "bytes32[][64]"
        },
        {
          "internalType": "uint256",
          "name": "difficulty",
          "type": "uint256"
        },
        {
          "internalType": "uint256",
          "name": "mixHash",
          "type": "uint256"
        }
      ],
      "name": "verifyEthash",
      "outputs": [
        {
          "internalType": "bool",
          "name": "",
          "type": "bool"
        }
      ],
      "stateMutability": "pure",
      "type": "function"
    }
  ],
  "bytecode": "0x608060405234801561001057600080fd5b50613e2a806100206000396000f3fe608060405234801561001057600080fd5b506004361061014d5760003560e01c80636e819641116100c3578063d072e8d71161007c578063d072e8d714610278578063d6bacb0e14610280578063dbad417c14610293578063e0f5466a146102a6578063f25b3f99146102b9578063faa0c996146102e15761014d565b80636e8196411461022757806392947cc01461022f578063aa6b789b14610242578063ad5629651461024a578063b99955361461025d578063c4dd6d03146102705761014d565b806337b6d96b1161011557806337b6d96b146101be5780633c6c6b73146101d157806341e63749146101e4578063439fab91146101f7578063486f164c1461020c5780635c975abb1461021f5761014d565b80630c5a1d6014610152578063231b02681461017057806329e141af146101785780632cb583781461019857806333727c4d146101ab575b600080fd5b61015a6102f4565b6040516101679190613a48565b60405180910390f35b61015a6102fa565b61018b61018636600461384f565b610300565b6040516101679190613a3d565b61015a6101a6366004613837565b61031b565b61018b6101b9366004613837565b610333565b61018b6101cc366004613837565b610373565b61015a6101df3660046139a3565b6103b3565b61018b6101f2366004613837565b6103e1565b61020a6102053660046138fe565b6103f6565b005b61018b61021a366004613930565b610520565b61018b6108b5565b61015a6108be565b61015a61023d366004613837565b6108c4565b61015a6108d6565b61015a610258366004613837565b6108dc565b61018b61026b366004613870565b6108f1565b61015a610984565b61015a61098a565b61015a61028e366004613837565b610990565b61018b6102a1366004613837565b6109a5565b61015a6102b4366004613837565b6109ba565b6102cc6102c7366004613837565b610a01565b60405161016799989796959493929190613d92565b61018b6102ef366004613837565b610a4f565b606c5490565b60655481565b60008281526068602052604090206003015481145b92915050565b6000818152606860205260409020600101545b919050565b60008181526067602052604081205460ff1680156103155750506066546000908152606860205260408082206004908101549383529120015460c8011090565b60008181526067602052604081205460ff168015610315575050606654600090815260686020526040808220600490810154938352912001546019011090565b606a60205281600052604060002081815481106103cc57fe5b90600052602060002001600091509150505481565b60696020526000908152604090205460ff1681565b600054610100900460ff168061040f575061040f610a64565b8061041d575060005460ff16155b6104425760405162461bcd60e51b815260040161043990613bff565b60405180910390fd5b600054610100900460ff1615801561046d576000805460ff1961ff0019909116610100171660011790555b600d606e55600061047d83610a75565b905061048761343d565b61049084610a80565b905061049a6134c3565b6040518061012001604052808360000151815260200183606001518152602001836080015181526020018360a00151815260200183610100015181526020018360e0015181526020018360e001518152602001836101600151815260200184815250905061050781610cd7565b505050801561051c576000805461ff00191690555b5050565b600061052a6108b5565b156105475760405162461bcd60e51b815260040161043990613bd5565b61055562278d004203610dc5565b600061056085610a75565b60008181526069602052604090205490915060ff16156105925760405162461bcd60e51b815260040161043990613a97565b61059a61343d565b6105a386610a80565b805160009081526069602052604090205490915060ff166105d65760405162461bcd60e51b815260040161043990613d42565b80516000908152606860205260409020600401546105f5906001610e65565b816101000151146106185760405162461bcd60e51b815260040161043990613b85565b80516000908152606860205260409020600701546101608201511161064f5760405162461bcd60e51b815260040161043990613cbb565b60e081015181516000908152606860205260409020600501546106729190610e91565b61068e5760405162461bcd60e51b815260040161043990613a51565b600061069987610eae565b905060006106c28260001b846101c001518561010001518a8a8860e00151896101a001516108f1565b9050806106e15760405162461bcd60e51b815260040161043990613ae0565b6106e96134c3565b6040518061012001604052808560000151815260200185606001518152602001856080015181526020018560a00151815260200185610100015181526020018560e0015181526020016107638660e00151606860008960000151815260200190815260200160002060060154610e6590919063ffffffff16565b815261016086015160208083019190915260409182018890526000888152606882528281208451815584830151600180830191909155858501516002830155606086015160038301556080860151600483015560a0860151600583015560c0860151600683015560e086015160078301556101008087015160089093019290925560698452848320805460ff199081168317909155918a0180518452606a855285842080548084018255908552858520018c905580518452606b909452939091208054909116909217909155606c549051919250101561084757610100840151606c555b606654845114156108755760668590556000858152606760205260409020805460ff191660011790556108a6565b6000858152606860205260408082206006908101546066548452919092209091015410156108a6576108a685610f80565b50600198975050505050505050565b60335460ff1690565b606f5481565b606d6020526000908152604090205481565b60665481565b60009081526068602052604090206003015490565b60006175306001600160401b038716048161090b82611034565b90506000610918836110ca565b905060008061092b8d8d858d888e6110f4565b915091506000886000198161093c57fe5b04905088896000198161094b57fe5b066001018161095657fe5b040182881480156109675750600189115b801561097257508181115b9e9d5050505050505050505050505050565b606e5481565b606c5481565b60009081526068602052604090206002015490565b606b6020526000908152604090205460ff1681565b60008181526067602052604081205460ff166109d85750600061032e565b50600081815260686020526040808220600490810154606654845291909220909101540361032e565b60686020528060005260406000206000915090508060000154908060010154908060020154908060030154908060040154908060050154908060060154908060070154908060080154905089565b60676020526000908152604090205460ff1681565b6000610a6f30611687565b15905090565b805160209091012090565b610a8861343d565b610a9061350f565b610aa1610a9c8461168d565b6116b2565b905060005b610aaf826116fc565b15610cd05780610ad157610aca610ac58361171d565b61176b565b8352610cc8565b8060011415610af057610ae6610ac58361171d565b6020840152610cc8565b8060021415610b1d57610b0a610b058361171d565b6117cb565b6001600160a01b03166040840152610cc8565b8060031415610b3c57610b32610ac58361171d565b6060840152610cc8565b8060041415610b5b57610b51610ac58361171d565b6080840152610cc8565b8060051415610b7a57610b70610ac58361171d565b60a0840152610cc8565b8060061415610b9e57610b94610b8f8361171d565b6117e5565b60c0840152610cc8565b8060071415610bbd57610bb3610ac58361171d565b60e0840152610cc8565b8060081415610bdd57610bd2610ac58361171d565b610100840152610cc8565b8060091415610bfd57610bf2610ac58361171d565b610120840152610cc8565b80600a1415610c1d57610c12610ac58361171d565b610140840152610cc8565b80600b1415610c3d57610c32610ac58361171d565b610160840152610cc8565b80600c1415610c5d57610c52610b8f8361171d565b610180840152610cc8565b80600d1415610c7d57610c72610ac58361171d565b6101a0840152610cc8565b80600e1415610c9d57610c92610ac58361171d565b6101c0840152610cc8565b80600f1415610cbd57610cb2610ac58361171d565b6101e0840152610cc8565b610cc68261171d565b505b600101610aa6565b5050919050565b6101008101805160658181556000918252606860209081526040808420865181558287015160018083019190915582880151600283015560608801516003830155608088018051600484015560a0890151600584015560c0890151600684015560e09098015160078301558651600890920182905590855260698352818520805460ff19908116831790915587518652606a84528286208751815480850183559188528588209091015587518652606b845282862080548216831790558751606c559551808652606d8452828620559254606681905584526067909152909120805490921617905551606f55565b606f5460005b6010811015610e54576000828152606b602052604090205460018301929060ff16610df65750610e4c565b6000818152606a6020526040812080548290610e0e57fe5b906000526020600020015490508460686000838152602001908152602001600020600701541115610e40575050610e54565b610e4982611869565b50505b600101610dcb565b50606f5481111561051c57606f5550565b600082820183811015610e8a5760405162461bcd60e51b815260040161043990613b17565b9392505050565b6000610ea4826127108104606302611947565b9092101592915050565b60408051600e8082526101e0820190925260009160609190816020015b6060815260200190600190039081610ecb579050509050610eea61350f565b610ef6610a9c8561168d565b905060005b610f04826116fc565b8015610f105750600e81105b15610f635780600d1415610f3357610f278261171d565b50610f318261171d565b505b610f44610f3f8361171d565b61196f565b838281518110610f5057fe5b6020908102919091010152600101610efb565b6060610f6e846119ed565b80516020909101209695505050505050565b805b60008181526067602052604090205460ff16158015610faf575060008181526069602052604090205460ff165b15610fdd576000908152606760209081526040808320805460ff191660011790556068909152902054610f82565b606654905b808214158015611000575060008281526069602052604090205460ff165b1561102d576000918252606760209081526040808420805460ff1916905560689091529091205490610fe2565b5050606655565b6040805180820190915260208082527fab221c85c48be4700211f13f57a2567eb9833dd0ec9406c2af6ce7a0df31431d9082015260009061019a6001600160401b03841610801590611091575061019a6001600160401b03841611155b6110ad5760405162461bcd60e51b815260040161043990613c4d565b61019819929092016001600160401b031660200290910151919050565b6000633fffff80628000008302015b6110e7608082046002611a10565b6103155760ff19016110d9565b6040805160288082526060828101909352600092839260806001600160401b038a1604926020820181803683370190505090506111338160008c611afa565b61113f8160208b611b02565b61114881611b2d565b905060006111568282611d57565b6040805160208082526104208201909252919250606091908082016104008036833701905050905060005b81518163ffffffff1610156111cf576111a084600f8316600402611d57565b828263ffffffff16815181106111b257fe5b63ffffffff90921660209283029190910190910152600101611181565b50606081516001600160401b03811180156111e957600080fd5b50604051908082528060200260200182016040528015611213578160200160208202803683370190505b5090508860005b604063ffffffff821610156115135760008763ffffffff166112618784188788518663ffffffff168161124957fe5b068151811061125457fe5b6020026020010151611d72565b63ffffffff168161126e57fe5b06905061127961352f565b8d8363ffffffff166040811061128b57fe5b6020020151905060008260020263ffffffff16905060608d8563ffffffff16604081106112b457fe5b60200201519050600082846040516020016112d0929190613a02565b6040516020818303038152906040528051906020012090506112f3828883611d7f565b5060005b60048163ffffffff1610156114f7576008810260008663ffffffff84166004811061131e57fe5b6020020151905061133260e082901c611e1c565b8b8363ffffffff168151811061134457fe5b602002602001019063ffffffff16908163ffffffff168152505061136b60c082901c611e1c565b8b8360010163ffffffff168151811061138057fe5b602002602001019063ffffffff16908163ffffffff16815250506113a760a082901c611e1c565b8b8360020163ffffffff16815181106113bc57fe5b602002602001019063ffffffff16908163ffffffff16815250506113e3608082901c611e1c565b8b8360030163ffffffff16815181106113f857fe5b602002602001019063ffffffff16908163ffffffff168152505061141f606082901c611e1c565b8b8360040163ffffffff168151811061143457fe5b602002602001019063ffffffff16908163ffffffff168152505061145b604082901c611e1c565b8b8360050163ffffffff168151811061147057fe5b63ffffffff9092166020928302919091018201526114909082901c611e1c565b8b8360060163ffffffff16815181106114a557fe5b63ffffffff909216602092830291909101909101526114c381611e1c565b8b8360070163ffffffff16815181106114d857fe5b63ffffffff9092166020928302919091019091015250506001016112f7565b506115028989611e63565b50506001909301925061121a915050565b5060005b83518163ffffffff1610156115c05761158861157361155e868463ffffffff168151811061154157fe5b6020026020010151878560010163ffffffff168151811061125457fe5b868460020163ffffffff168151811061125457fe5b858360030163ffffffff168151811061125457fe5b84600463ffffffff84160463ffffffff16815181106115a357fe5b63ffffffff90921660209283029190910190910152600401611517565b506000805b60048551816115d057fe5b048163ffffffff16101561164557602082901b91506000858263ffffffff16815181106115f957fe5b602090810291909101015163ffffffff601882811c60ff16600884811c61ff00169085901b62ff0000169490921b63ff00000016939093171791909117169290921791506001016115c5565b50604051819061165b90889083906020016139c3565b604051602081830303815290604052805190602001209850985050505050505050965096945050505050565b3b151590565b61169561354d565b506040805180820190915281518152602082810190820152919050565b6116ba61350f565b6116c38261210c565b6116cc57600080fd5b60006116db8360200151612146565b60208085015160408051808201909152868152920190820152915050919050565b600061170661354d565b505080518051602091820151919092015191011190565b61172561354d565b61172e826116fc565b61173757600080fd5b60208201516000611747826121a9565b80830160209586015260408051808201909152908152938401919091525090919050565b80516000901580159061178057508151602110155b61178957600080fd5b60006117988360200151612146565b835160208086015183018051939450918490039291908310156117c257826020036101000a820491505b50949350505050565b80516000906015146117dc57600080fd5b6103158261176b565b80516060906117f357600080fd5b60006118028360200151612146565b83519091508190036060816001600160401b038111801561182257600080fd5b506040519080825280601f01601f19166020018201604052801561184d576020820181803683370190505b50905060008160200190506117c284876020015101828561223d565b6000818152606a60205260408120905b815481101561190157600082828154811061189057fe5b60009182526020808320909101548252606881526040808320838155600180820185905560028201859055600382018590556004820185905560058201859055600682018590556007820185905560089091018490556069909252909120805460ff19169055919091019050611879565b506000828152606a6020526040812061191991613567565b506000908152606b60209081526040808320805460ff19908116909155606790925290912080549091169055565b6000828211156119695760405162461bcd60e51b815260040161043990613b4e565b50900390565b60608082600001516001600160401b038111801561198c57600080fd5b506040519080825280601f01601f1916602001820160405280156119b7576020820181803683370190505b5090508051600014156119cb57905061032e565b60008160200190506119e6846020015182866000015161223d565b5092915050565b6060806119f983612288565b9050610e8a611a0a825160c0612388565b826124e1565b60008260021480611a215750826003145b15611a2e57506001610315565b600283061580611a3e5750600283105b15611a4b57506000610315565b611a53613588565b611a5c8461255e565b80516020820151919250906000611a7486838961259c565b90508060011480611a8757506001870381145b15611a99576001945050505050610315565b60001983015b8015611aec57611ab18260028a61259c565b91508160011415611aca57600095505050505050610315565b60018803821415611ae357600195505050505050610315565b60001901611a9f565b506000979650505050505050565b910160200152565b611b0d8383836125f5565b611b28836004840163ffffffff602085901c8116906125f516565b505050565b6060815160281480611b40575081516040145b611b5c5760405162461bcd60e51b815260040161043990613d00565b60006008835181611b6957fe5b049050611b746135a6565b60005b82811015611cb85760008160080290506038868260070181518110611b9857fe5b602001015160f81c60f81b60f81c60ff16901b6030878360060181518110611bbc57fe5b602001015160f81c60f81b60f81c60ff16901b6028888460050181518110611be057fe5b602001015160f81c60f81b60f81c60ff16901b6020898560040181518110611c0457fe5b602001015160f81c60f81b60f81c60ff16901b60188a8660030181518110611c2857fe5b602001015160f81c60f81b60f81c60ff16901b60108b8760020181518110611c4c57fe5b602001015160f81c60f81b60f81c60ff16901b60088c8860010181518110611c7057fe5b602001015160f81c60f81b60f81c60ff16901b8c8881518110611c8f57fe5b016020015160f81c17171717171717838360098110611caa57fe5b602002015250600101611b77565b506001818360098110611cc757fe5b6020020152610100810180516001603f1b179052611ce36135c5565b611cec8261261f565b60408051818152606081810183529293509060208201818036833701905050905060005b60108163ffffffff161015611d4d57611d4581600402848363ffffffff1660108110611d3857fe5b60200201518491906125f5565b600101611d10565b5095945050505050565b81810160040151600090611d6a81611e1c565b949350505050565b6301000193919091021890565b600081815b8551811015611e11576000868281518110611d9b57fe5b60200260200101519050808311611ddc578281604051602001611dbf9291906139b5565b604051602081830303815290604052805190602001209250611e08565b8083604051602001611def9291906139b5565b6040516020818303038152906040528051906020012092505b50600101611d84565b509092149392505050565b600060188263ffffffff16901b63ff0000001660088363ffffffff16901b62ff00001660088463ffffffff16901c61ff001660188563ffffffff16901c1717179050919050565b602082810180519183015163010001939283021863ffffffff90811690915260408084015190850180518402909118821690526060808401519085018051840290911882169052608080840151908501805184029091188216905260a080840151908501805184029091188216905260c080840151908501805184029091188216905260e08084015190850180518402909118821690526101008084015190850180518402909118821690526101208084015190850180518402909118821690526101408084015190850180518402909118821690526101608084015190850180518402909118821690526101808084015190850180518402909118821690526101a08084015190850180518402909118821690526101c08084015190850180518402909118821690526101e08084015190850180518402909118821690526102008084015190850180518402909118821690526102208084015190850180518402909118821690526102408084015190850180518402909118821690526102608084015190850180518402909118821690526102808084015190850180518402909118821690526102a08084015190850180518402909118821690526102c08084015190850180518402909118821690526102e08084015190850180518402909118821690526103008084015190850180518402909118821690526103208084015190850180518402909118821690526103408084015190850180518402909118821690526103608084015190850180518402909118821690526103808084015190850180518402909118821690526103a08084015190850180518402909118821690526103c08084015190850180518402909118821690526103e0808401519085018051840290911882169052610400928301519290930180519091029091189091169052565b805160009061211d5750600061032e565b6020820151805160001a9060c082101561213c5760009250505061032e565b5060019392505050565b8051600090811a608081101561216057600091505061032e565b60b881108061217b575060c0811080159061217b575060f881105b1561218a57600191505061032e565b60c081101561219e5760b51901905061032e565b60f51901905061032e565b80516000908190811a60808110156121c457600191506119e6565b60b88110156121d957607e19810191506119e6565b60c08110156122065760b78103600185019450806020036101000a855104600182018101935050506119e6565b60f881101561221b5760be19810191506119e6565b60019390930151602084900360f7016101000a900490920160f5190192915050565b8061224757611b28565b5b60208110612267578251825260209283019290910190601f1901612248565b915181516020939093036101000a6000190180199091169216919091179052565b60608151600014156122a9575060408051600081526020810190915261032e565b6000805b83518110156122dc578381815181106122c257fe5b6020026020010151518201915080806001019150506122ad565b6060826001600160401b03811180156122f457600080fd5b506040519080825280601f01601f19166020018201604052801561231f576020820181803683370190505b50600092509050602081015b85518310156117c257606086848151811061234257fe5b602002602001015190506000602082019050612360838284516127d1565b87858151811061236c57fe5b602002602001015151830192505050828060010193505061232b565b60608060388410156123e55760408051600180825281830190925290602082018180368337019050509050838301601f1a60f81b816000815181106123c957fe5b60200101906001600160f81b031916908160001a905350610e8a565b600060015b8086816123f357fe5b041561240857600190910190610100026123ea565b816001016001600160401b038111801561242157600080fd5b506040519080825280601f01601f19166020018201604052801561244c576020820181803683370190505b509250603782860101601f1a60f81b8360008151811061246857fe5b60200101906001600160f81b031916908160001a905350600190505b8181116124d7576101008183036101000a878161249d57fe5b04816124a557fe5b06601f1a60f81b8382815181106124b857fe5b60200101906001600160f81b031916908160001a905350600101612484565b5050905092915050565b6060806040519050835180825260208201818101602087015b818310156125125780518352602092830192016124fa565b50855184518101855292509050808201602086015b8183101561253f578051835260209283019201612527565b508651929092011591909101601f01601f191660405250905092915050565b612566613588565b600060001983015b6002810661258657600191909101906002900461256e565b61258e613588565b918252602082015292915050565b60008184816125a757fe5b0693506001845b84156117c25760028504946001908116908114156125d757918102918483816125d357fe5b0692505b6125e18283612815565b91508482816125ec57fe5b069150506125ae565b6020820183018181538160081c60018201538160101c60028201538160181c600382015350505050565b6126276135c5565b60486008816126346135e4565b600080805b86858161264257fe5b048310156126ed57600091505b60058210156126d7575060005b60058110156126cc5785878161266e57fe5b0482600502820110156126c4578882600502828560090201016009811061269157fe5b602002015184838360050201601981106126a757fe5b60200201511884838360050201601981106126be57fe5b60200201525b60010161265c565b60019091019061264f565b6126e08461284f565b9350600190920191612639565b6126f56135c5565b60005b60108110156127c357600093505b60058410156127be57600092505b60058310156127b35787898161272657fe5b0484600502840110801561273a5750601081105b156127a857858484600502016019811061275057fe5b602002015163ffffffff1682826010811061276757fe5b6020020152640100000000866005850286016019811061278357fe5b60200201518161278f57fe5b0482826001016010811061279f57fe5b60200201526002015b600190920191612714565b600190930192612706565b6126f8565b509998505050505050505050565b8282825b602081106127f4578151835260209283019290910190601f19016127d5565b905182516020929092036101000a6000190180199091169116179052505050565b60008261282457506000610315565b8282028284828161283157fe5b0414610e8a5760405162461bcd60e51b815260040161043990613c7a565b6128576135e4565b61285f613603565b612867613603565b61286f6135e4565b612877613621565b60405180610300016040528060018152602001618082815260200167800000000000808a8152602001678000000080008000815260200161808b81526020016380000001815260200167800000008000808181526020016780000000000080098152602001608a81526020016088815260200163800080098152602001638000000a8152602001638000808b815260200167800000000000008b8152602001678000000000008089815260200167800000000000800381526020016780000000000080028152602001678000000000000080815260200161800a815260200167800000008000000a81526020016780000000800080818152602001678000000000008080815260200163800000018152602001678000000080008008815250905060005b6018811015613432576080878101516060808a01516040808c01516020808e01518e511890911890921890931889526101208b01516101008c015160e08d015160c08e015160a08f0151181818189089018190526101c08b01516101a08c01516101808d01516101608e01516101408f0151181818189289019283526102608b01516102408c01516102208d01516102008e01516101e08f015118181818918901919091526103008a01516102e08b01516102c08c01516102a08d01516102808e0151181818189288018390526001600160401b0360028202166001603f1b91829004179092188652510485600260200201516002026001600160401b03161785600060200201511884600160200201526001603f1b856003602002015181612ac057fe5b0485600360200201516002026001600160401b03161785600160200201511884600260200201526001603f1b856004602002015181612afb57fe5b0485600460200201516002026001600160401b03161785600260058110612b1e57fe5b602002015118606085015284516001603f1b9086516060808901519390920460029091026001600160401b031617909118608086810191825286518a5118808b5287516020808d018051909218825289516040808f0180519092189091528a518e8801805190911890528a51948e0180519095189094528901805160a08e0180519091189052805160c08e0180519091189052805160e08e018051909118905280516101008e0180519091189052516101208d018051909118905291880180516101408d018051909118905280516101608d018051909118905280516101808d018051909118905280516101a08d0180519091189052516101c08c018051909118905292870180516101e08c018051909118905280516102008c018051909118905280516102208c018051909118905280516102408c0180519091189052516102608b018051909118905281516102808b018051909118905281516102a08b018051909118905281516102c08b018051909118905281516102e08b018051909118905290516103008a01805190911890529084525163100000009060208901516001600160401b03641000000000909102169190041761010084015260408701516001603d1b9060408901516001600160401b03600890910216919004176101608401526060870151628000009060608901516001600160401b036502000000000090910216919004176102608401526080870151654000000000009060808901516001600160401b036204000090910216919004176102c084015260a08701516001603f1b900487600560200201516002026001600160401b03161783600260198110612d8857fe5b602002015260c0870151621000008104651000000000009091026001600160401b039081169190911760a085015260e0880151664000000000000081046104009091028216176101a08501526101008801516208000081046520000000000090910282161761020085015261012088015160048082029092166001603e1b909104176103008501526101408801516101408901516001600160401b036001603e1b90910216919004176080840152610160870151670400000000000000906101608901516001600160401b036040909102169190041760e084015261018087015162200000906101808901516001600160401b036508000000000090910216919004176101408401526101a08701516602000000000000906101a08901516001600160401b0361800090910216919004176102408401526101c08701516008906101c08901516001600160401b036001603d1b90910216919004176102a08401526101e0870151641000000000906101e08901516001600160401b03631000000090910216919004176020840152610200808801516102008901516001600160401b0366800000000000009091021691900417610120840152610220870151648000000000906102208901516001600160401b036302000000909102169190041761018084015261024087015165080000000000906102408901516001600160401b036220000090910216919004176101e0840152610260870151610100906102608901516001600160401b03600160381b90910216919004176102e0840152610280870151642000000000906102808901516001600160401b036308000000909102169190041760608401526102a087015165100000000000906102a08901516001600160401b0362100000909102169190041760c08401526102c08701516302000000906102c08901516001600160401b0364800000000090910216919004176101c08401526102e0870151600160381b906102e08901516001600160401b036101009091021691900417610220840152610300870151660400000000000090048760186020020151614000026001600160401b031617836014602002015282600a602002015183600560200201511916836000602002015118876000602002015282600b602002015183600660200201511916836001602002015118876001602002015282600c602002015183600760200201511916836002602002015118876002602002015282600d602002015183600860200201511916836003602002015118876003602002015282600e602002015183600960200201511916836004602002015118876004602002015282600f602002015183600a602002015119168360056020020151188760056020020152826010602002015183600b602002015119168360066020020151188760066020020152826011602002015183600c602002015119168360076020020151188760076020020152826012602002015183600d602002015119168360086020020151188760086020020152826013602002015183600e602002015119168360096020020151188760096020020152826014602002015183600f6020020151191683600a60200201511887600a602002015282601560200201518360106020020151191683600b60200201511887600b602002015282601660200201518360116020020151191683600c60200201511887600c602002015282601760200201518360126020020151191683600d60200201511887600d602002015282601860200201518360136020020151191683600e60200201511887600e602002015282600060200201518360146020020151191683600f60200201511887600f602002015282600160200201518360156020020151191683601060200201511887601060200201528260026020020151836016602002015119168360116020020151188760116020020152826003602002015183601760200201511916836012602002015118876012602002015282600460200201518360186020020151191683601360200201511887601360200201528260056020020151836000602002015119168360146020020151188760146020020152826006602002015183600160200201511916836015602002015118876015602002015282600760200201518360026020020151191683601660200201511887601660200201528260086020020151836003602002015119168360176020020151188760176020020152826009602002015183600460200201511916836018602002015118876018602002015281816018811061342057fe5b6020020151875118875260010161299b565b509495945050505050565b604051806102000160405280600081526020016000815260200160006001600160a01b03168152602001600081526020016000815260200160008152602001606081526020016000815260200160008152602001600081526020016000815260200160008152602001606081526020016000815260200160008152602001600081525090565b6040518061012001604052806000815260200160008152602001600081526020016000815260200160008152602001600081526020016000815260200160008152602001600081525090565b604051806040016040528061352261354d565b8152602001600081525090565b60405180608001604052806004906020820280368337509192915050565b604051806040016040528060008152602001600081525090565b50805460008255906000526020600020908101906135859190613640565b50565b60405180604001604052806002906020820280368337509192915050565b6040518061012001604052806009906020820280368337509192915050565b6040518061020001604052806010906020820280368337509192915050565b6040518061032001604052806019906020820280368337509192915050565b6040518060a001604052806005906020820280368337509192915050565b6040518061030001604052806018906020820280368337509192915050565b5b808211156136555760008155600101613641565b5090565b6000601f838184011261366a578182fd5b613675610800613dd1565b91508183856120008601111561368a57600080fd5b60005b60408110156136f95786848301126136a457600080fd5b60806136af81613dd1565b9083019080848a8411156136c257600080fd5b60005b60048110156136e45781358452602093840193909101906001016136c5565b5050855250602090930192915060010161368d565b5050505092915050565b6000601f8381840112613714578182fd5b61371f610800613dd1565b9150818360005b60408110156136f95781358601878582011261374157600080fd5b80356001600160401b0381111561375457fe5b6020808202613764828201613dd1565b8381528281019085840183870185018e101561377f57600080fd5b600096505b858710156137a2578035835260019690960195918401918401613784565b50885250509485019493909301925050600101613726565b600082601f8301126137ca578081fd5b81356001600160401b038111156137dd57fe5b6137f0601f8201601f1916602001613dd1565b915080825283602082850101111561380757600080fd5b8060208401602084013760009082016020015292915050565b80356001600160401b038116811461032e57600080fd5b600060208284031215613848578081fd5b5035919050565b60008060408385031215613861578081fd5b50508035926020909101359150565b60008060008060008060006120c0888a03121561388b578283fd5b8735965061389b60208901613820565b95506138a960408901613820565b94506138b88960608a01613659565b93506120608801356001600160401b038111156138d3578384fd5b6138df8a828b01613703565b93505061208088013591506120a0880135905092959891949750929550565b60006020828403121561390f578081fd5b81356001600160401b03811115613924578182fd5b611d6a848285016137ba565b60008060006120408486031215613945578283fd5b83356001600160401b038082111561395b578485fd5b613967878388016137ba565b94506139768760208801613659565b935061202086013591508082111561398c578283fd5b5061399986828701613703565b9150509250925092565b60008060408385031215613861578182fd5b918252602082015260400190565b60008351815b818110156139e357602081870181015185830152016139c9565b818111156139f15782828501525b509190910191825250602001919050565b6000838252602080830184835b6004811015613a2c57815183529183019190830190600101613a0f565b5050505060a0820190509392505050565b901515815260200190565b90815260200190565b60208082526026908201527f52656c617920626c6f636b206661696c65643a20696e76616c696420646966666040820152656963756c747960d01b606082015260800190565b60208082526029908201527f52656c617920626c6f636b206661696c65643a20626c6f636b20616c726561646040820152681e481c995b185e595960ba1b606082015260800190565b6020808252601f908201527f52656c617920626c6f636b206661696c65643a20696e76616c696420506f5700604082015260600190565b6020808252601b908201527f536166654d6174683a206164646974696f6e206f766572666c6f770000000000604082015260600190565b6020808252601e908201527f536166654d6174683a207375627472616374696f6e206f766572666c6f770000604082015260600190565b60208082526030908201527f52656c617920626c6f636b206661696c65643a20696e76616c696420626c6f6360408201526f0d640c4d8dec6d690cad2ced0e89ac2f60831b606082015260800190565b60208082526010908201526f14185d5cd8589b194e881c185d5cd95960821b604082015260600190565b6020808252602e908201527f496e697469616c697a61626c653a20636f6e747261637420697320616c72656160408201526d191e481a5b9a5d1a585b1a5e995960921b606082015260800190565b60208082526013908201527265706f6368206f7574206f662072616e67652160681b604082015260600190565b60208082526021908201527f536166654d6174683a206d756c7469706c69636174696f6e206f766572666c6f6040820152607760f81b606082015260800190565b60208082526025908201527f52656c617920626c6f636b206661696c65643a20696e76616c69642074696d6560408201526407374616d760dc1b606082015260800190565b60208082526022908201527f736861353132206f6e6c7920737570706f7274203634206f7220343020627974604082015261657360f01b606082015260800190565b60208082526030908201527f52656c617920626c6f636b206661696c65643a20706172656e7420626c6f636b60408201526f081b9bdd081c995b185e5959081e595d60821b606082015260800190565b988952602089019790975260408801959095526060870193909352608086019190915260a085015260c084015260e08301526101008201526101200190565b6040518181016001600160401b0381118282101715613dec57fe5b60405291905056fea264697066735822122030ace733d94d80c11905057a766453fec64ad739e8cffcba9ba775cd803cece164736f6c63430007030033",
  "linkReferences": {},
  "deployedLinkReferences": {}
}