{
  "_format": "hh-sol-artifact-1",
  "contractName": "FaucetToken",
  "sourceName": "contracts/FaucetToken.sol",
  "abi": [
    {
      "anonymous": false,
      "inputs": [
        {
          "indexed": true,
          "internalType": "address",
          "name": "owner",
          "type": "address"
        },
        {
          "indexed": true,
          "internalType": "address",
          "name": "spender",
          "type": "address"
        },
        {
          "indexed": false,
          "internalType": "uint256",
          "name": "value",
          "type": "uint256"
        }
      ],
      "name": "Approval",
      "type": "event"
    },
    {
      "anonymous": false,
      "inputs": [
        {
          "indexed": true,
          "internalType": "address",
          "name": "from",
          "type": "address"
        },
        {
          "indexed": true,
          "internalType": "address",
          "name": "to",
          "type": "address"
        },
        {
          "indexed": false,
          "internalType": "uint256",
          "name": "value",
          "type": "uint256"
        }
      ],
      "name": "Transfer",
      "type": "event"
    },
    {
      "inputs": [
        {
          "internalType": "address",
          "name": "owner",
          "type": "address"
        },
        {
          "internalType": "address",
          "name": "spender",
          "type": "address"
        }
      ],
      "name": "allowance",
      "outputs": [
        {
          "internalType": "uint256",
          "name": "",
          "type": "uint256"
        }
      ],
      "stateMutability": "view",
      "type": "function"
    },
    {
      "inputs": [
        {
          "internalType": "address",
          "name": "spender",
          "type": "address"
        },
        {
          "internalType": "uint256",
          "name": "amount",
          "type": "uint256"
        }
      ],
      "name": "approve",
      "outputs": [
        {
          "internalType": "bool",
          "name": "",
          "type": "bool"
        }
      ],
      "stateMutability": "nonpayable",
      "type": "function"
    },
    {
      "inputs": [
        {
          "internalType": "address",
          "name": "account",
          "type": "address"
        }
      ],
      "name": "balanceOf",
      "outputs": [
        {
          "internalType": "uint256",
          "name": "",
          "type": "uint256"
        }
      ],
      "stateMutability": "view",
      "type": "function"
    },
    {
      "inputs": [],
      "name": "decimals",
      "outputs": [
        {
          "internalType": "uint8",
          "name": "",
          "type": "uint8"
        }
      ],
      "stateMutability": "view",
      "type": "function"
    },
    {
      "inputs": [
        {
          "internalType": "address",
          "name": "spender",
          "type": "address"
        },
        {
          "internalType": "uint256",
          "name": "subtractedValue",
          "type": "uint256"
        }
      ],
      "name": "decreaseAllowance",
      "outputs": [
        {
          "internalType": "bool",
          "name": "",
          "type": "bool"
        }
      ],
      "stateMutability": "nonpayable",
      "type": "function"
    },
    {
      "inputs": [
        {
          "internalType": "address",
          "name": "spender",
          "type": "address"
        },
        {
          "internalType": "uint256",
          "name": "addedValue",
          "type": "uint256"
        }
      ],
      "name": "increaseAllowance",
      "outputs": [
        {
          "internalType": "bool",
          "name": "",
          "type": "bool"
        }
      ],
      "stateMutability": "nonpayable",
      "type": "function"
    },
    {
      "inputs": [
        {
          "internalType": "string",
          "name": "name",
          "type": "string"
        },
        {
          "internalType": "string",
          "name": "symbol",
          "type": "string"
        },
        {
          "internalType": "uint8",
          "name": "decimals",
          "type": "uint8"
        }
      ],
      "name": "initialize",
      "outputs": [],
      "stateMutability": "nonpayable",
      "type": "function"
    },
    {
      "inputs": [],
      "name": "mint",
      "outputs": [
        {
          "internalType": "bool",
          "name": "",
          "type": "bool"
        }
      ],
      "stateMutability": "nonpayable",
      "type": "function"
    },
    {
      "inputs": [],
      "name": "name",
      "outputs": [
        {
          "internalType": "string",
          "name": "",
          "type": "string"
        }
      ],
      "stateMutability": "view",
      "type": "function"
    },
    {
      "inputs": [],
      "name": "symbol",
      "outputs": [
        {
          "internalType": "string",
          "name": "",
          "type": "string"
        }
      ],
      "stateMutability": "view",
      "type": "function"
    },
    {
      "inputs": [],
      "name": "totalSupply",
      "outputs": [
        {
          "internalType": "uint256",
          "name": "",
          "type": "uint256"
        }
      ],
      "stateMutability": "view",
      "type": "function"
    },
    {
      "inputs": [
        {
          "internalType": "address",
          "name": "recipient",
          "type": "address"
        },
        {
          "internalType": "uint256",
          "name": "amount",
          "type": "uint256"
        }
      ],
      "name": "transfer",
      "outputs": [
        {
          "internalType": "bool",
          "name": "",
          "type": "bool"
        }
      ],
      "stateMutability": "nonpayable",
      "type": "function"
    },
    {
      "inputs": [
        {
          "internalType": "address",
          "name": "sender",
          "type": "address"
        },
        {
          "internalType": "address",
          "name": "recipient",
          "type": "address"
        },
        {
          "internalType": "uint256",
          "name": "amount",
          "type": "uint256"
        }
      ],
      "name": "transferFrom",
      "outputs": [
        {
          "internalType": "bool",
          "name": "",
          "type": "bool"
        }
      ],
      "stateMutability": "nonpayable",
      "type": "function"
    }
  ],
  "bytecode": "0x608060405234801561001057600080fd5b50610f77806100206000396000f3fe608060405234801561001057600080fd5b50600436106100cf5760003560e01c8063313ce5671161008c57806395d89b411161006657806395d89b4114610192578063a457c2d71461019a578063a9059cbb146101ad578063dd62ed3e146101c0576100cf565b8063313ce56714610157578063395093511461016c57806370a082311461017f576100cf565b806306fdde03146100d4578063095ea7b3146100f25780631249c58b146101125780631624f6c61461011a57806318160ddd1461012f57806323b872dd14610144575b600080fd5b6100dc6101d3565b6040516100e99190610c9a565b60405180910390f35b610105610100366004610bec565b610269565b6040516100e99190610c8f565b610105610286565b61012d610128366004610c15565b6102af565b005b610137610351565b6040516100e99190610eb7565b610105610152366004610bb1565b610357565b61015f6103de565b6040516100e99190610ec0565b61010561017a366004610bec565b6103e7565b61013761018d366004610b65565b610435565b6100dc610454565b6101056101a8366004610bec565b6104b5565b6101056101bb366004610bec565b61051d565b6101376101ce366004610b7f565b610531565b60368054604080516020601f600260001961010060018816150201909516949094049384018190048102820181019092528281526060939092909183018282801561025f5780601f106102345761010080835404028352916020019161025f565b820191906000526020600020905b81548152906001019060200180831161024257829003601f168201915b5050505050905090565b600061027d61027661055c565b8484610560565b50600192915050565b6000806102916103de565b60ff16600a0a90506102a7338261271002610614565b600191505090565b600054610100900460ff16806102c857506102c86106d4565b806102d6575060005460ff16155b6102fb5760405162461bcd60e51b81526004016102f290610da9565b60405180910390fd5b600054610100900460ff16158015610326576000805460ff1961ff0019909116610100171660011790555b61033084846106e5565b6103398261077c565b801561034b576000805461ff00191690555b50505050565b60355490565b6000610364848484610792565b6103d48461037061055c565b6103cf85604051806060016040528060288152602001610ef5602891396001600160a01b038a166000908152603460205260408120906103ae61055c565b6001600160a01b0316815260208101919091526040016000205491906108a7565b610560565b5060019392505050565b60385460ff1690565b600061027d6103f461055c565b846103cf856034600061040561055c565b6001600160a01b03908116825260208083019390935260409182016000908120918c1681529252902054906108d3565b6001600160a01b0381166000908152603360205260409020545b919050565b60378054604080516020601f600260001961010060018816150201909516949094049384018190048102820181019092528281526060939092909183018282801561025f5780601f106102345761010080835404028352916020019161025f565b600061027d6104c261055c565b846103cf85604051806060016040528060258152602001610f1d60259139603460006104ec61055c565b6001600160a01b03908116825260208083019390935260409182016000908120918d168152925290205491906108a7565b600061027d61052a61055c565b8484610792565b6001600160a01b03918216600090815260346020908152604080832093909416825291909152205490565b3390565b6001600160a01b0383166105865760405162461bcd60e51b81526004016102f290610e3c565b6001600160a01b0382166105ac5760405162461bcd60e51b81526004016102f290610d30565b6001600160a01b0380841660008181526034602090815260408083209487168084529490915290819020849055517f8c5be1e5ebec7d5bd14f71427d1e84f3dd0314c0f7b2291e5b200ac8c7c3b92590610607908590610eb7565b60405180910390a3505050565b6001600160a01b03821661063a5760405162461bcd60e51b81526004016102f290610e80565b61064660008383610777565b60355461065390826108d3565b6035556001600160a01b03821660009081526033602052604090205461067990826108d3565b6001600160a01b0383166000818152603360205260408082209390935591519091907fddf252ad1be2c89b69c2b068fc378daa952ba7f163c4a11628f55a4df523b3ef906106c8908590610eb7565b60405180910390a35050565b60006106df306108ff565b15905090565b600054610100900460ff16806106fe57506106fe6106d4565b8061070c575060005460ff16155b6107285760405162461bcd60e51b81526004016102f290610da9565b600054610100900460ff16158015610753576000805460ff1961ff0019909116610100171660011790555b61075b610905565b6107658383610988565b8015610777576000805461ff00191690555b505050565b6038805460ff191660ff92909216919091179055565b6001600160a01b0383166107b85760405162461bcd60e51b81526004016102f290610df7565b6001600160a01b0382166107de5760405162461bcd60e51b81526004016102f290610ced565b6107e9838383610777565b61082681604051806060016040528060268152602001610ecf602691396001600160a01b03861660009081526033602052604090205491906108a7565b6001600160a01b03808516600090815260336020526040808220939093559084168152205461085590826108d3565b6001600160a01b0380841660008181526033602052604090819020939093559151908516907fddf252ad1be2c89b69c2b068fc378daa952ba7f163c4a11628f55a4df523b3ef90610607908590610eb7565b600081848411156108cb5760405162461bcd60e51b81526004016102f29190610c9a565b505050900390565b6000828201838110156108f85760405162461bcd60e51b81526004016102f290610d72565b9392505050565b3b151590565b600054610100900460ff168061091e575061091e6106d4565b8061092c575060005460ff16155b6109485760405162461bcd60e51b81526004016102f290610da9565b600054610100900460ff16158015610973576000805460ff1961ff0019909116610100171660011790555b8015610985576000805461ff00191690555b50565b600054610100900460ff16806109a157506109a16106d4565b806109af575060005460ff16155b6109cb5760405162461bcd60e51b81526004016102f290610da9565b600054610100900460ff161580156109f6576000805460ff1961ff0019909116610100171660011790555b8251610a09906036906020860190610a41565b508151610a1d906037906020850190610a41565b506038805460ff191660121790558015610777576000805461ff0019169055505050565b828054600181600116156101000203166002900490600052602060002090601f016020900481019282601f10610a8257805160ff1916838001178555610aaf565b82800160010185558215610aaf579182015b82811115610aaf578251825591602001919060010190610a94565b50610abb929150610abf565b5090565b5b80821115610abb5760008155600101610ac0565b80356001600160a01b038116811461044f57600080fd5b600082601f830112610afb578081fd5b813567ffffffffffffffff80821115610b1057fe5b604051601f8301601f191681016020018281118282101715610b2e57fe5b604052828152925082848301602001861015610b4957600080fd5b8260208601602083013760006020848301015250505092915050565b600060208284031215610b76578081fd5b6108f882610ad4565b60008060408385031215610b91578081fd5b610b9a83610ad4565b9150610ba860208401610ad4565b90509250929050565b600080600060608486031215610bc5578081fd5b610bce84610ad4565b9250610bdc60208501610ad4565b9150604084013590509250925092565b60008060408385031215610bfe578182fd5b610c0783610ad4565b946020939093013593505050565b600080600060608486031215610c29578283fd5b833567ffffffffffffffff80821115610c40578485fd5b610c4c87838801610aeb565b94506020860135915080821115610c61578384fd5b50610c6e86828701610aeb565b925050604084013560ff81168114610c84578182fd5b809150509250925092565b901515815260200190565b6000602080835283518082850152825b81811015610cc657858101830151858201604001528201610caa565b81811115610cd75783604083870101525b50601f01601f1916929092016040019392505050565b60208082526023908201527f45524332303a207472616e7366657220746f20746865207a65726f206164647260408201526265737360e81b606082015260800190565b60208082526022908201527f45524332303a20617070726f766520746f20746865207a65726f206164647265604082015261737360f01b606082015260800190565b6020808252601b908201527f536166654d6174683a206164646974696f6e206f766572666c6f770000000000604082015260600190565b6020808252602e908201527f496e697469616c697a61626c653a20636f6e747261637420697320616c72656160408201526d191e481a5b9a5d1a585b1a5e995960921b606082015260800190565b60208082526025908201527f45524332303a207472616e736665722066726f6d20746865207a65726f206164604082015264647265737360d81b606082015260800190565b60208082526024908201527f45524332303a20617070726f76652066726f6d20746865207a65726f206164646040820152637265737360e01b606082015260800190565b6020808252601f908201527f45524332303a206d696e7420746f20746865207a65726f206164647265737300604082015260600190565b90815260200190565b60ff9190911681526020019056fe45524332303a207472616e7366657220616d6f756e7420657863656564732062616c616e636545524332303a207472616e7366657220616d6f756e74206578636565647320616c6c6f77616e636545524332303a2064656372656173656420616c6c6f77616e63652062656c6f77207a65726fa264697066735822122083dbf60244951bab72c5507654b135eb3468e889ec69f6905eb5b91d5dbd7de464736f6c63430007030033",
  "linkReferences": {},
  "deployedLinkReferences": {}
}