{
  "_format": "hh-sol-artifact-1",
  "contractName": "TokenLockerOnEthereum",
  "sourceName": "contracts/TokenLockerOnEthereum.sol",
  "abi": [
    {
      "anonymous": false,
      "inputs": [
        {
          "indexed": true,
          "internalType": "address",
          "name": "token",
          "type": "address"
        },
        {
          "indexed": true,
          "internalType": "address",
          "name": "sender",
          "type": "address"
        },
        {
          "indexed": false,
          "internalType": "uint256",
          "name": "amount",
          "type": "uint256"
        },
        {
          "indexed": false,
          "internalType": "address",
          "name": "recipient",
          "type": "address"
        }
      ],
      "name": "Burn",
      "type": "event"
    },
    {
      "anonymous": false,
      "inputs": [
        {
          "indexed": true,
          "internalType": "address",
          "name": "token",
          "type": "address"
        },
        {
          "indexed": true,
          "internalType": "address",
          "name": "sender",
          "type": "address"
        },
        {
          "indexed": false,
          "internalType": "uint256",
          "name": "amount",
          "type": "uint256"
        },
        {
          "indexed": false,
          "internalType": "address",
          "name": "recipient",
          "type": "address"
        }
      ],
      "name": "Locked",
      "type": "event"
    },
    {
      "anonymous": false,
      "inputs": [
        {
          "indexed": true,
          "internalType": "address",
          "name": "previousOwner",
          "type": "address"
        },
        {
          "indexed": true,
          "internalType": "address",
          "name": "newOwner",
          "type": "address"
        }
      ],
      "name": "OwnershipTransferred",
      "type": "event"
    },
    {
      "anonymous": false,
      "inputs": [
        {
          "indexed": true,
          "internalType": "address",
          "name": "tokenReq",
          "type": "address"
        },
        {
          "indexed": true,
          "internalType": "address",
          "name": "tokenAck",
          "type": "address"
        }
      ],
      "name": "TokenMapAck",
      "type": "event"
    },
    {
      "anonymous": false,
      "inputs": [
        {
          "indexed": true,
          "internalType": "address",
          "name": "tokenReq",
          "type": "address"
        },
        {
          "indexed": true,
          "internalType": "uint8",
          "name": "decimals",
          "type": "uint8"
        },
        {
          "indexed": false,
          "internalType": "string",
          "name": "name",
          "type": "string"
        },
        {
          "indexed": false,
          "internalType": "string",
          "name": "symbol",
          "type": "string"
        }
      ],
      "name": "TokenMapReq",
      "type": "event"
    },
    {
      "inputs": [
        {
          "internalType": "address",
          "name": "",
          "type": "address"
        }
      ],
      "name": "RxMapped",
      "outputs": [
        {
          "internalType": "contract BridgedToken",
          "name": "",
          "type": "address"
        }
      ],
      "stateMutability": "view",
      "type": "function"
    },
    {
      "inputs": [
        {
          "internalType": "address",
          "name": "",
          "type": "address"
        }
      ],
      "name": "RxMappedInv",
      "outputs": [
        {
          "internalType": "address",
          "name": "",
          "type": "address"
        }
      ],
      "stateMutability": "view",
      "type": "function"
    },
    {
      "inputs": [
        {
          "internalType": "uint256",
          "name": "",
          "type": "uint256"
        }
      ],
      "name": "RxTokens",
      "outputs": [
        {
          "internalType": "contract BridgedToken",
          "name": "",
          "type": "address"
        }
      ],
      "stateMutability": "view",
      "type": "function"
    },
    {
      "inputs": [
        {
          "internalType": "address",
          "name": "",
          "type": "address"
        }
      ],
      "name": "TxMapped",
      "outputs": [
        {
          "internalType": "address",
          "name": "",
          "type": "address"
        }
      ],
      "stateMutability": "view",
      "type": "function"
    },
    {
      "inputs": [
        {
          "internalType": "address",
          "name": "",
          "type": "address"
        }
      ],
      "name": "TxMappedInv",
      "outputs": [
        {
          "internalType": "contract IERC20Upgradeable",
          "name": "",
          "type": "address"
        }
      ],
      "stateMutability": "view",
      "type": "function"
    },
    {
      "inputs": [
        {
          "internalType": "uint256",
          "name": "",
          "type": "uint256"
        }
      ],
      "name": "TxTokens",
      "outputs": [
        {
          "internalType": "contract IERC20Upgradeable",
          "name": "",
          "type": "address"
        }
      ],
      "stateMutability": "view",
      "type": "function"
    },
    {
      "inputs": [
        {
          "internalType": "address",
          "name": "otherSide",
          "type": "address"
        }
      ],
      "name": "bind",
      "outputs": [],
      "stateMutability": "nonpayable",
      "type": "function"
    },
    {
      "inputs": [
        {
          "internalType": "contract HarmonyLightClient",
          "name": "newClient",
          "type": "address"
        }
      ],
      "name": "changeLightClient",
      "outputs": [],
      "stateMutability": "nonpayable",
      "type": "function"
    },
    {
      "inputs": [],
      "name": "initialize",
      "outputs": [],
      "stateMutability": "nonpayable",
      "type": "function"
    },
    {
      "inputs": [
        {
          "internalType": "contract ERC20Upgradeable",
          "name": "thisSideToken",
          "type": "address"
        }
      ],
      "name": "issueTokenMapReq",
      "outputs": [],
      "stateMutability": "nonpayable",
      "type": "function"
    },
    {
      "inputs": [],
      "name": "lightclient",
      "outputs": [
        {
          "internalType": "contract HarmonyLightClient",
          "name": "",
          "type": "address"
        }
      ],
      "stateMutability": "view",
      "type": "function"
    },
    {
      "inputs": [
        {
          "internalType": "contract IERC20Upgradeable",
          "name": "token",
          "type": "address"
        },
        {
          "internalType": "address",
          "name": "recipient",
          "type": "address"
        },
        {
          "internalType": "uint256",
          "name": "amount",
          "type": "uint256"
        }
      ],
      "name": "lock",
      "outputs": [],
      "stateMutability": "nonpayable",
      "type": "function"
    },
    {
      "inputs": [],
      "name": "otherSideBridge",
      "outputs": [
        {
          "internalType": "address",
          "name": "",
          "type": "address"
        }
      ],
      "stateMutability": "view",
      "type": "function"
    },
    {
      "inputs": [],
      "name": "owner",
      "outputs": [
        {
          "internalType": "address",
          "name": "",
          "type": "address"
        }
      ],
      "stateMutability": "view",
      "type": "function"
    },
    {
      "inputs": [],
      "name": "renounceOwnership",
      "outputs": [],
      "stateMutability": "nonpayable",
      "type": "function"
    },
    {
      "inputs": [
        {
          "internalType": "bytes32",
          "name": "",
          "type": "bytes32"
        }
      ],
      "name": "spentReceipt",
      "outputs": [
        {
          "internalType": "bool",
          "name": "",
          "type": "bool"
        }
      ],
      "stateMutability": "view",
      "type": "function"
    },
    {
      "inputs": [],
      "name": "totalBridgedTokens",
      "outputs": [
        {
          "internalType": "uint256",
          "name": "",
          "type": "uint256"
        },
        {
          "internalType": "uint256",
          "name": "",
          "type": "uint256"
        }
      ],
      "stateMutability": "view",
      "type": "function"
    },
    {
      "inputs": [
        {
          "internalType": "address",
          "name": "newOwner",
          "type": "address"
        }
      ],
      "name": "transferOwnership",
      "outputs": [],
      "stateMutability": "nonpayable",
      "type": "function"
    },
    {
      "inputs": [
        {
          "internalType": "contract BridgedToken",
          "name": "token",
          "type": "address"
        },
        {
          "internalType": "address",
          "name": "recipient",
          "type": "address"
        },
        {
          "internalType": "uint256",
          "name": "amount",
          "type": "uint256"
        }
      ],
      "name": "unlock",
      "outputs": [],
      "stateMutability": "nonpayable",
      "type": "function"
    },
    {
      "inputs": [
        {
          "components": [
            {
              "internalType": "bytes32",
              "name": "hash",
              "type": "bytes32"
            },
            {
              "internalType": "bytes32",
              "name": "parentHash",
              "type": "bytes32"
            },
            {
              "internalType": "address",
              "name": "miner",
              "type": "address"
            },
            {
              "internalType": "bytes32",
              "name": "stateRoot",
              "type": "bytes32"
            },
            {
              "internalType": "bytes32",
              "name": "transactionsRoot",
              "type": "bytes32"
            },
            {
              "internalType": "bytes32",
              "name": "receiptsRoot",
              "type": "bytes32"
            },
            {
              "internalType": "bytes32",
              "name": "outgoingReceiptsRoot",
              "type": "bytes32"
            },
            {
              "internalType": "bytes32",
              "name": "incomingReceiptsRoot",
              "type": "bytes32"
            },
            {
              "internalType": "bytes",
              "name": "logsBloom",
              "type": "bytes"
            },
            {
              "internalType": "uint256",
              "name": "number",
              "type": "uint256"
            },
            {
              "internalType": "uint256",
              "name": "gasLimit",
              "type": "uint256"
            },
            {
              "internalType": "uint256",
              "name": "gasUsed",
              "type": "uint256"
            },
            {
              "internalType": "uint256",
              "name": "timestamp",
              "type": "uint256"
            },
            {
              "internalType": "bytes",
              "name": "extraData",
              "type": "bytes"
            },
            {
              "internalType": "bytes32",
              "name": "mixHash",
              "type": "bytes32"
            },
            {
              "internalType": "uint256",
              "name": "viewID",
              "type": "uint256"
            },
            {
              "internalType": "uint256",
              "name": "epoch",
              "type": "uint256"
            },
            {
              "internalType": "uint256",
              "name": "shardID",
              "type": "uint256"
            },
            {
              "internalType": "bytes",
              "name": "lastCommitSignature",
              "type": "bytes"
            },
            {
              "internalType": "bytes",
              "name": "lastCommitBitmap",
              "type": "bytes"
            },
            {
              "internalType": "bytes",
              "name": "vrf",
              "type": "bytes"
            },
            {
              "internalType": "bytes",
              "name": "vdf",
              "type": "bytes"
            },
            {
              "internalType": "bytes",
              "name": "shardState",
              "type": "bytes"
            },
            {
              "internalType": "bytes",
              "name": "crossLink",
              "type": "bytes"
            },
            {
              "internalType": "bytes",
              "name": "slashes",
              "type": "bytes"
            },
            {
              "internalType": "bytes",
              "name": "mmrRoot",
              "type": "bytes"
            }
          ],
          "internalType": "struct HarmonyParser.BlockHeader",
          "name": "header",
          "type": "tuple"
        },
        {
          "components": [
            {
              "internalType": "bytes32",
              "name": "root",
              "type": "bytes32"
            },
            {
              "internalType": "uint256",
              "name": "width",
              "type": "uint256"
            },
            {
              "internalType": "uint256",
              "name": "index",
              "type": "uint256"
            },
            {
              "internalType": "bytes32[]",
              "name": "peaks",
              "type": "bytes32[]"
            },
            {
              "internalType": "bytes32[]",
              "name": "siblings",
              "type": "bytes32[]"
            }
          ],
          "internalType": "struct MMRVerifier.MMRProof",
          "name": "mmrProof",
          "type": "tuple"
        },
        {
          "components": [
            {
              "internalType": "bytes32",
              "name": "root",
              "type": "bytes32"
            },
            {
              "internalType": "uint256",
              "name": "paths",
              "type": "uint256"
            },
            {
              "internalType": "bytes",
              "name": "proof",
              "type": "bytes"
            }
          ],
          "internalType": "struct HarmonyProver.MerkleProof",
          "name": "receiptdata",
          "type": "tuple"
        }
      ],
      "name": "validateAndExecuteProof",
      "outputs": [],
      "stateMutability": "nonpayable",
      "type": "function"
    }
  ],
  "bytecode": "0x608060405234801561001057600080fd5b506151a7806100206000396000f3fe608060405234801561001057600080fd5b506004361061012c5760003560e01c80638487b9cf116100ad578063cd06c3a111610071578063cd06c3a11461023c578063d650d3f714610252578063e05bdaf714610265578063e71575e814610278578063f2fde38b1461028b5761012c565b80638487b9cf146101db5780638ab3124a146101ee5780638da5cb5b1461020e578063ae24fbb414610216578063bf21980b146102295761012c565b80636aa92327116100f45780636aa9232714610192578063715018a6146101a55780637750c9f0146101ad5780638129fc1c146101c057806381bac14f146101c85761012c565b80631b7f3e231461013157806335c6814d1461014f5780634ae83c8e146101625780634d2be8e51461017757806359508f8f1461017f575b600080fd5b61013961029e565b60405161014691906134d0565b60405180910390f35b61013961015d366004613006565b6102ad565b610175610170366004612fca565b6102d4565b005b6101396104bd565b61017561018d36600461301e565b6104cc565b6101756101a0366004613104565b6105db565b6101756107a5565b6101756101bb36600461305e565b61082e565b610175610a05565b6101756101d6366004612fca565b610aa7565b6101396101e9366004612fca565b610b08565b6102016101fc366004613006565b610b23565b6040516101469190613521565b610139610b38565b610139610224366004613006565b610b47565b610175610237366004612fca565b610b54565b610244610bb5565b604051610146929190613490565b610139610260366004612fca565b610bbf565b610139610273366004612fca565b610bda565b610139610286366004612fca565b610bf5565b610175610299366004612fca565b610c10565b606b546001600160a01b031681565b600181815481106102ba57fe5b6000918252602090912001546001600160a01b0316905081565b6001600160a01b0381811660009081526002602052604090205416156103155760405162461bcd60e51b815260040161030c9061390d565b60405180910390fd5b6000819050806001600160a01b031663313ce5676040518163ffffffff1660e01b815260040160206040518083038186803b15801561035357600080fd5b505afa158015610367573d6000803e3d6000fd5b505050506040513d601f19601f8201168201806040525081019061038b9190613404565b60ff16826001600160a01b03167fc13b93ab57586894396c38a46a06c88056fdbb23c7c595f8d08274f9a8593a42836001600160a01b03166306fdde036040518163ffffffff1660e01b815260040160006040518083038186803b1580156103f257600080fd5b505afa158015610406573d6000803e3d6000fd5b505050506040513d6000823e601f3d908101601f1916820160405261042e9190810190613072565b846001600160a01b03166395d89b416040518163ffffffff1660e01b815260040160006040518083038186803b15801561046757600080fd5b505afa15801561047b573d6000803e3d6000fd5b505050506040513d6000823e601f3d908101601f191682016040526104a39190810190613072565b6040516104b192919061353f565b60405180910390a35050565b6006546001600160a01b031681565b6001600160a01b0382166104f25760405162461bcd60e51b815260040161030c90613944565b6001600160a01b03838116600090815260056020526040902054166105295760405162461bcd60e51b815260040161030c906136c9565b60405163079cc67960e41b81526001600160a01b038416906379cc67909061055790339085906004016134e4565b600060405180830381600087803b15801561057157600080fd5b505af1158015610585573d6000803e3d6000fd5b50505050336001600160a01b0316836001600160a01b03167f3dd1df88dc92e2788892542d81f999d720a44b4c127065d45c128f4f59fdc37383856040516105ce929190613bb6565b60405180910390a3505050565b606b5461020084015183516040516303ce246160e61b81526001600160a01b039093169263f389184092610613929091600401613490565b60206040518083038186803b15801561062b57600080fd5b505afa15801561063f573d6000803e3d6000fd5b505050506040513d601f19601f820116820180604052508101906106639190612fe6565b61067f5760405162461bcd60e51b815260040161030c90613617565b600061068a84610cd1565b60a0850151909150600060606106a08787610ceb565b8651919350915083146106c55760405162461bcd60e51b815260040161030c90613803565b816106e25760405162461bcd60e51b815260040161030c9061387d565b6000848487602001516040516020016106fd9392919061349e565b60408051601f1981840301815291815281516020928301206000818152606c90935291205490915060ff16156107455760405162461bcd60e51b815260040161030c906136f8565b6000818152606c60205260409020805460ff19166001179055606061076a8988610dc9565b9050600061077782610e00565b9050600081116107995760405162461bcd60e51b815260040161030c90613a01565b50505050505050505050565b6107ad6110da565b6001600160a01b03166107be610b38565b6001600160a01b0316146107e45760405162461bcd60e51b815260040161030c906139a6565b6039546040516000916001600160a01b0316907f8be0079c531659141344cd1fd0a4f28419497f9722a3daafe3b4186f6b6457e0908390a3603980546001600160a01b0319169055565b6001600160a01b0382166108545760405162461bcd60e51b815260040161030c90613944565b6001600160a01b038381166000908152600260205260409020541661088b5760405162461bcd60e51b815260040161030c906136c9565b6040516370a0823160e01b81526000906001600160a01b038516906370a08231906108ba9030906004016134d0565b60206040518083038186803b1580156108d257600080fd5b505afa1580156108e6573d6000803e3d6000fd5b505050506040513d601f19601f8201168201806040525081019061090a91906133bd565b90506109216001600160a01b0385163330856110de565b6040516370a0823160e01b81526000906001600160a01b038616906370a08231906109509030906004016134d0565b60206040518083038186803b15801561096857600080fd5b505afa15801561097c573d6000803e3d6000fd5b505050506040513d601f19601f820116820180604052508101906109a091906133bd565b905060006109ae828461113c565b9050336001600160a01b0316866001600160a01b03167f4c6ab40ee4cfa212a441d32ee2897945b4a52461284f9369e23fdf8faa6cdd6983886040516109f5929190613bb6565b60405180910390a3505050505050565b600654600160a81b900460ff1680610a205750610a20611164565b80610a355750600654600160a01b900460ff16155b610a515760405162461bcd60e51b815260040161030c906138bf565b600654600160a81b900460ff16158015610a88576006805460ff60a01b1960ff60a81b19909116600160a81b1716600160a01b1790555b610a90611175565b8015610aa4576006805460ff60a81b191690555b50565b610aaf6110da565b6001600160a01b0316610ac0610b38565b6001600160a01b031614610ae65760405162461bcd60e51b815260040161030c906139a6565b600680546001600160a01b0319166001600160a01b0392909216919091179055565b6005602052600090815260409020546001600160a01b031681565b606c6020526000908152604090205460ff1681565b6039546001600160a01b031690565b600081815481106102ba57fe5b610b5c6110da565b6001600160a01b0316610b6d610b38565b6001600160a01b031614610b935760405162461bcd60e51b815260040161030c906139a6565b606b80546001600160a01b0319166001600160a01b0392909216919091179055565b6000546001549091565b6003602052600090815260409020546001600160a01b031681565b6004602052600090815260409020546001600160a01b031681565b6002602052600090815260409020546001600160a01b031681565b610c186110da565b6001600160a01b0316610c29610b38565b6001600160a01b031614610c4f5760405162461bcd60e51b815260040161030c906139a6565b6001600160a01b038116610c755760405162461bcd60e51b815260040161030c90613683565b6039546040516001600160a01b038084169216907f8be0079c531659141344cd1fd0a4f28419497f9722a3daafe3b4186f6b6457e090600090a3603980546001600160a01b0319166001600160a01b0392909216919091179055565b6000610cdc82611208565b8051906020012090505b919050565b600060606000610cfa85610cd1565b85519091508114610d4457505060408051808201909152601b81527f4865616465722064617461206f72206861736820696e76616c69640000000000602082015260009150610dc2565b610d668460000151856020015186604001518488606001518960800151611654565b925082610dac57505060408051808201909152601c81527f766572696679486561646572202d20696e76616c69642070726f6f6600000000602082015260009150610dc2565b5050604080516020810190915260008152600191505b9250929050565b805160a083015160609114610df05760405162461bcd60e51b815260040161030c906135d3565b610df982611909565b9392505050565b6000610e0a612d51565b610e1383611928565b90506060610e208261194d565b90506000610e4182600081518110610e3457fe5b6020026020010151611a34565b905080600114610e635760405162461bcd60e51b815260040161030c90613855565b6060610e8283600381518110610e7557fe5b602002602001015161194d565b905060005b81518110156110d0576060610ea1838381518110610e7557fe5b90506000610ec282600081518110610eb557fe5b6020026020010151611a94565b6006549091506001600160a01b03808316911614610ee15750506110c8565b6060610ef383600181518110610e7557fe5b9050606081516001600160401b0381118015610f0e57600080fd5b50604051908082528060200260200182016040528015610f38578160200160208202803683370190505b50905060005b8251811015610f7857610f56838281518110610e3457fe5b60001b828281518110610f6557fe5b6020908102919091010152600101610f3e565b506060610f9885600281518110610f8b57fe5b6020026020010151611aae565b90507f4c6ab40ee4cfa212a441d32ee2897945b4a52461284f9369e23fdf8faa6cdd6982600081518110610fc857fe5b60200260200101511415610ff157610fe08282611b32565b5050600190980197506110c8915050565b7f3dd1df88dc92e2788892542d81f999d720a44b4c127065d45c128f4f59fdc3738260008151811061101f57fe5b6020026020010151141561103757610fe08282611bec565b7fc13b93ab57586894396c38a46a06c88056fdbb23c7c595f8d08274f9a8593a428260008151811061106557fe5b6020026020010151141561107d57610fe08282611c53565b7f78591f651c27eef63481b7fd779e44c2426cbe82c7050fe9bc90b6707efbc3d3826000815181106110ab57fe5b602002602001015114156110c257610fe082611e32565b50505050505b600101610e87565b5050505050919050565b3390565b611136846323b872dd60e01b8585856040516024016110ff939291906134fd565b60408051601f198184030181529190526020810180516001600160e01b03166001600160e01b031990931692909217909152611f24565b50505050565b60008282111561115e5760405162461bcd60e51b815260040161030c90613786565b50900390565b600061116f30611fb8565b15905090565b600654600160a81b900460ff16806111905750611190611164565b806111a55750600654600160a01b900460ff16155b6111c15760405162461bcd60e51b815260040161030c906138bf565b600654600160a81b900460ff161580156111f8576006805460ff60a01b1960ff60a81b19909116600160a81b1716600160a01b1790555b611200611fbe565b610a90612056565b60408051600f8082526102008201909252606091829190816020015b606081526020019060019003908161122457905050905061126783602001516040516020016112539190613487565b604051602081830303815290604052612147565b8160008151811061127457fe5b602002602001018190525061128c8360400151612191565b8160018151811061129957fe5b60200260200101819052506112bc83606001516040516020016112539190613487565b816002815181106112c957fe5b60200260200101819052506112ec83608001516040516020016112539190613487565b816003815181106112f957fe5b602002602001018190525061131c8360a001516040516020016112539190613487565b8160048151811061132957fe5b602002602001018190525061134c8360c001516040516020016112539190613487565b8160058151811061135957fe5b602002602001018190525061137c8360e001516040516020016112539190613487565b8160068151811061138957fe5b60200260200101819052506113a2836101000151612147565b816007815181106113af57fe5b60200260200101819052506113c88361012001516121b4565b816008815181106113d557fe5b60200260200101819052506113ee8361014001516121b4565b816009815181106113fb57fe5b60200260200101819052506114148361016001516121b4565b81600a8151811061142157fe5b602002602001018190525061143a8361018001516121b4565b81600b8151811061144757fe5b6020026020010181905250611460836101a00151612147565b81600c8151811061146d57fe5b6020026020010181905250611491836101c001516040516020016112539190613487565b81600d8151811061149e57fe5b60200260200101819052506114b7836101e001516121b4565b81600e815181106114c457fe5b60200260200101819052506114dd8361020001516121b4565b81600f815181106114ea57fe5b60200260200101819052506115038361022001516121b4565b8160108151811061151057fe5b6020026020010181905250611529836102400151612147565b8160118151811061153657fe5b602002602001018190525061154f836102600151612147565b8160128151811061155c57fe5b6020026020010181905250611575836102800151612147565b8160138151811061158257fe5b602002602001018190525061159b836102a00151612147565b816014815181106115a857fe5b60200260200101819052506115c1836102c00151612147565b816015815181106115ce57fe5b60200260200101819052506115e7836102e00151612147565b816016815181106115f457fe5b602002602001018190525061160d836103000151612147565b8160178151811061161a57fe5b6020026020010181905250611633836103200151612147565b8160188151811061164057fe5b6020026020010181905250610df9816121c7565b600080611660876121ea565b9050858110156116825760405162461bcd60e51b815260040161030c90613b87565b836040516020016116939190613451565b6040516020818303038152906040528051906020012088146116c75760405162461bcd60e51b815260040161030c9061364e565b60008060606116d58a612202565b905060005b815181101561173c578960018383815181106116f257fe5b602002602001015103106117345787818151811061170c57fe5b60200260200101519250600182828151811061172457fe5b602002602001015103935061173c565b6001016116da565b508161175a5760405162461bcd60e51b815260040161030c906135a6565b606086516001016001600160401b038111801561177657600080fd5b506040519080825280602002602001820160405280156117a0578160200160208202803683370190505b5090506000806000895160010190505b60ff81161561181a578684826001900392508260ff16815181106117d057fe5b6020026020010181815250508c8714156117e95761181a565b6117f5876001016122c7565b909350915060001983018d1161180e5760018303611813565b600182035b96506117b0565b60005b84518260ff1610156118d457848260ff168151811061183857fe5b602002602001015197508160ff166000141561185557508b6118c9565b846001830360ff168151811061186757fe5b60200260200101516001890314156118a35761189c8b6001840360ff168151811061188e57fe5b60200260200101518261230c565b90506118c9565b6118c6818c6001850360ff16815181106118b957fe5b602002602001015161230c565b90505b60019091019061181d565b8681146118f35760405162461bcd60e51b815260040161030c9061371f565b5060019f9e505050505050505050505050505050565b606061192282600001518360200151846040015161233f565b92915050565b611930612d51565b506040805180820190915281518152602082810190820152919050565b60606119588261241a565b61196157600080fd5b600061196c83612454565b90506060816001600160401b038111801561198657600080fd5b506040519080825280602002602001820160405280156119c057816020015b6119ad612d51565b8152602001906001900390816119a55790505b50905060006119d285602001516124ac565b60208601510190506000805b84811015611a29576119ef83612515565b9150604051806040016040528083815260200184815250848281518110611a1257fe5b6020908102919091010152918101916001016119de565b509195945050505050565b805160009015801590611a4957508151602110155b611a5257600080fd5b6000611a6183602001516124ac565b83516020808601518301805193945091849003929190831015611a8b57826020036101000a820491505b50949350505050565b8051600090601514611aa557600080fd5b61192282611a34565b8051606090611abc57600080fd5b6000611acb83602001516124ac565b83519091508190036060816001600160401b0381118015611aeb57600080fd5b506040519080825280601f01601f191660200182016040528015611b16576020820181803683370190505b5090506000816020019050611a8b8487602001510182856125ae565b600082600181518110611b4157fe5b602002602001015160001c905060008083806020019051810190611b6591906133d5565b6001600160a01b038086166000908152600460205260409020549294509092501680611b9057600080fd5b6040516340c10f1960e01b81526001600160a01b038216906340c10f1990611bbe90859087906004016134e4565b600060405180830381600087803b158015611bd857600080fd5b505af1158015610799573d6000803e3d6000fd5b600082600181518110611bfb57fe5b602002602001015160001c905060008083806020019051810190611c1f91906133d5565b6001600160a01b0380861660009081526003602052604090205492945090925016611c4b8183856125f9565b505050505050565b600082600181518110611c6257fe5b6020908102919091018101516001600160a01b03808216600090815260049093526040909220549092501615611caa5760405162461bcd60e51b815260040161030c90613b59565b600083600281518110611cb957fe5b602002602001015160001c905060608084806020019051810190611cdd91906130a4565b60405191935091506001600160a01b038516906000908290611cfe90612d6b565b8190604051809103906000f5905080158015611d1e573d6000803e3d6000fd5b50604051630b127b6360e11b81529091506001600160a01b03821690631624f6c690611d5290879087908a9060040161356d565b600060405180830381600087803b158015611d6c57600080fd5b505af1158015611d80573d6000803e3d6000fd5b5050506001600160a01b0380831660008181526005602090815260408083208054958d166001600160a01b03199687168117909155808452600490925280832080548616851790556001805480820182559084527fb10e2d527612073b26eecdfd717e6a320cf44b4afac2b0732d9fcbe2b7fa0cf6018054909516841790945592519193507f78591f651c27eef63481b7fd779e44c2426cbe82c7050fe9bc90b6707efbc3d391a35050505050505050565b600081600181518110611e4157fe5b602002602001015160001c9050600082600281518110611e5d57fe5b6020908102919091018101516001600160a01b03848116600090815260029093526040909220549092501615611ea55760405162461bcd60e51b815260040161030c90613a29565b6001600160a01b0391821660008181526002602090815260408083208054969095166001600160a01b0319968716811790955593825260039052918220805484168217905581546001810183559180527f290decd9548b62a8d60345a988386fc84ba6bc95484008f6362f93160ef3e563909101805490921617905550565b6060611f79826040518060400160405280602081526020017f5361666545524332303a206c6f772d6c6576656c2063616c6c206661696c6564815250856001600160a01b03166126189092919063ffffffff16565b805190915015611fb35780806020019051810190611f979190612fe6565b611fb35760405162461bcd60e51b815260040161030c90613b0f565b505050565b3b151590565b600654600160a81b900460ff1680611fd95750611fd9611164565b80611fee5750600654600160a01b900460ff16155b61200a5760405162461bcd60e51b815260040161030c906138bf565b600654600160a81b900460ff16158015610a90576006805460ff60a01b1960ff60a81b19909116600160a81b1716600160a01b1790558015610aa4576006805460ff60a81b1916905550565b600654600160a81b900460ff16806120715750612071611164565b806120865750600654600160a01b900460ff16155b6120a25760405162461bcd60e51b815260040161030c906138bf565b600654600160a81b900460ff161580156120d9576006805460ff60a01b1960ff60a81b19909116600160a81b1716600160a01b1790555b60006120e36110da565b603980546001600160a01b0319166001600160a01b038316908117909155604051919250906000907f8be0079c531659141344cd1fd0a4f28419497f9722a3daafe3b4186f6b6457e0908290a3508015610aa4576006805460ff60a81b1916905550565b60608082516001148015612170575060808360008151811061216557fe5b016020015160f81c11155b1561217c575081611922565b610df961218b8451608061262f565b84612787565b60408051600560a21b8318601482015260348101909152606090610df981612147565b60606119226121c283612804565b612147565b6060806121d383612903565b9050610df96121e4825160c061262f565b82612787565b60006121f582612a03565b600183901b039050919050565b606061220d82612a03565b6001600160401b038111801561222257600080fd5b5060405190808252806020026020018201604052801561224c578160200160208202803683370190505b50905060008060ff5b801561229f57600160001982011b851615612296576001816001901b83010391508184848060010195508151811061228957fe5b6020026020010181815250505b60001901612255565b50825182146122c05760405162461bcd60e51b815260040161030c90613aa1565b5050919050565b60008060016122d584612a28565b0360ff166001901b83039150600183039050808214156123075760405162461bcd60e51b815260040161030c906139db565b915091565b60008282604051602001612321929190613490565b60405160208183030381529060405280519060200120905092915050565b6060612349612d51565b61235283611928565b905061235c612d78565b61236582612a68565b9050600061237283612454565b905060005b818110156123e75761238883612ab2565b600888901c9790945060ff1661239d85612b00565b89146123bb5760405162461bcd60e51b815260040161030c9061374f565b6123c58582612b1b565b9450600183038210156123de576123db85611a34565b98505b50600101612377565b5085156124065760405162461bcd60e51b815260040161030c9061382f565b61240f83611aae565b979650505050505050565b805160009061242b57506000610ce6565b6020820151805160001a9060c082101561244a57600092505050610ce6565b5060019392505050565b805160009061246557506000610ce6565b60008061247584602001516124ac565b602085015185519181019250015b808210156124a35761249482612515565b60019093019290910190612483565b50909392505050565b8051600090811a60808110156124c6576000915050610ce6565b60b88110806124e1575060c081108015906124e1575060f881105b156124f0576001915050610ce6565b60c08110156125045760b519019050610ce6565b60f519019050610ce6565b50919050565b80516000908190811a608081101561253057600191506125a7565b60b881101561254557607e19810191506125a7565b60c08110156125725760b78103600185019450806020036101000a855104600182018101935050506125a7565b60f88110156125875760be19810191506125a7565b60f78103600185019450806020036101000a855104600182018101935050505b5092915050565b806125b857611fb3565b5b602081106125d8578251825260209283019290910190601f19016125b9565b915181516020939093036101000a6000190180199091169216919091179052565b611fb38363a9059cbb60e01b84846040516024016110ff9291906134e4565b60606126278484600085612bd5565b949350505050565b606080603884101561268c5760408051600180825281830190925290602082018180368337019050509050838301601f1a60f81b8160008151811061267057fe5b60200101906001600160f81b031916908160001a905350610df9565b600060015b80868161269a57fe5b04156126af5760019091019061010002612691565b816001016001600160401b03811180156126c857600080fd5b506040519080825280601f01601f1916602001820160405280156126f3576020820181803683370190505b509250603782860101601f1a60f81b8360008151811061270f57fe5b60200101906001600160f81b031916908160001a905350600190505b81811161277e576101008183036101000a878161274457fe5b048161274c57fe5b06601f1a60f81b83828151811061275f57fe5b60200101906001600160f81b031916908160001a90535060010161272b565b50509392505050565b6060806040519050835180825260208201818101602087015b818310156127b85780518352602092830192016127a0565b50855184518101855292509050808201602086015b818310156127e55780518352602092830192016127cd565b508651929092011591909101601f01601f191660405250905092915050565b60408051602080825281830190925260609182919060208201818036833701905050905082602082015260005b60208110156128675781818151811061284657fe5b01602001516001600160f81b0319161561285f57612867565b600101612831565b6060816020036001600160401b038111801561288257600080fd5b506040519080825280601f01601f1916602001820160405280156128ad576020820181803683370190505b50905060005b8151811015611a8b5783516001840193859181106128cd57fe5b602001015160f81c60f81b8282815181106128e457fe5b60200101906001600160f81b031916908160001a9053506001016128b3565b60608151600014156129245750604080516000815260208101909152610ce6565b6000805b83518110156129575783818151811061293d57fe5b602002602001015151820191508080600101915050612928565b6060826001600160401b038111801561296f57600080fd5b506040519080825280601f01601f19166020018201604052801561299a576020820181803683370190505b50600092509050602081015b8551831015611a8b5760608684815181106129bd57fe5b6020026020010151905060006020820190506129db83828451612c8b565b8785815181106129e757fe5b60200260200101515183019250505082806001019350506129a6565b6000815b801561250f576002810660011415612a20576001909101905b60011c612a07565b600081815b80821115612a605760018360ff166001901b0382039150612a4d82612ccf565b925050600019600160ff84161b01612a2d565b039003919050565b612a70612d78565b612a798261241a565b612a8257600080fd5b6000612a9183602001516124ac565b60208085015160408051808201909152868152920190820152915050919050565b612aba612d51565b612ac382612cf7565b612acc57600080fd5b60208201516000612adc82612515565b80830160209586015260408051808201909152908152938401919091525090919050565b8051600090612b0e57600080fd5b5080516020909101512090565b612b23612d51565b612b2c8361241a565b612b485760405162461bcd60e51b815260040161030c90613a60565b8251602084015190810190600090612b5f906124ac565b60208601510190506000805b85811015612b8a57612b7c83612515565b928301929150600101612b6b565b50612b9482612515565b9050828183011115612bb85760405162461bcd60e51b815260040161030c9061397b565b604080518082019091529081526020810191909152949350505050565b606082471015612bf75760405162461bcd60e51b815260040161030c906137bd565b612c0085611fb8565b612c1c5760405162461bcd60e51b815260040161030c90613ad8565b60006060866001600160a01b03168587604051612c3991906134b4565b60006040518083038185875af1925050503d8060008114612c76576040519150601f19603f3d011682016040523d82523d6000602084013e612c7b565b606091505b509150915061240f828286612d18565b8282825b60208110612cae578151835260209283019290910190601f1901612c8f565b905182516020929092036101000a6000190180199091169116179052505050565b600060015b60ff8116838101600190911b11612ced57600101612cd4565b6000190192915050565b6000612d01612d51565b505080518051602091820151919092015191011190565b60608315612d27575081610df9565b825115612d375782518084602001fd5b8160405162461bcd60e51b815260040161030c919061352c565b604051806040016040528060008152602001600081525090565b61151f80613c5383390190565b6040518060400160405280612d8b612d51565b8152602001600081525090565b8035610ce681613c3d565b600082601f830112612db3578081fd5b81356001600160401b03811115612dc657fe5b6020808202612dd6828201613bcd565b83815293508184018583018287018401881015612df257600080fd5b600092505b84831015612e15578035825260019290920191908301908301612df7565b505050505092915050565b600082601f830112612e30578081fd5b8135612e43612e3e82613bf0565b613bcd565b9150808252836020828501011115612e5a57600080fd5b8060208401602084013760009082016020015292915050565b600082601f830112612e83578081fd5b8151612e91612e3e82613bf0565b9150808252836020828501011115612ea857600080fd5b6125a7816020840160208601613c11565b600060a08284031215612eca578081fd5b60405160a081016001600160401b038282108183111715612ee757fe5b816040528293508435835260208501356020840152604085013560408401526060850135915080821115612f1a57600080fd5b612f2686838701612da3565b60608401526080850135915080821115612f3f57600080fd5b50612f4c85828601612da3565b6080830152505092915050565b600060608284031215612f6a578081fd5b604051606081016001600160401b038282108183111715612f8757fe5b8160405282935084358352602085013560208401526040850135915080821115612fb057600080fd5b50612fbd85828601612e20565b6040830152505092915050565b600060208284031215612fdb578081fd5b8135610df981613c3d565b600060208284031215612ff7578081fd5b81518015158114610df9578182fd5b600060208284031215613017578081fd5b5035919050565b600080600060608486031215613032578182fd5b833561303d81613c3d565b9250602084013561304d81613c3d565b929592945050506040919091013590565b600080600060608486031215613032578081fd5b600060208284031215613083578081fd5b81516001600160401b03811115613098578182fd5b61262784828501612e73565b600080604083850312156130b6578182fd5b82516001600160401b03808211156130cc578384fd5b6130d886838701612e73565b935060208501519150808211156130ed578283fd5b506130fa85828601612e73565b9150509250929050565b600080600060608486031215613118578081fd5b83356001600160401b038082111561312e578283fd5b8186019150610340808389031215613144578384fd5b61314d81613bcd565b9050823581526020830135602082015261316960408401612d98565b6040820152606083013560608201526080830135608082015260a083013560a082015260c083013560c082015260e083013560e082015261010080840135838111156131b3578586fd5b6131bf8a828701612e20565b918301919091525061012083810135908201526101408084013590820152610160808401359082015261018080840135908201526101a08084013583811115613206578586fd5b6132128a828701612e20565b91830191909152506101c083810135908201526101e08084013590820152610200808401359082015261022080840135908201526102408084013583811115613259578586fd5b6132658a828701612e20565b828401525050610260808401358381111561327e578586fd5b61328a8a828701612e20565b82840152505061028080840135838111156132a3578586fd5b6132af8a828701612e20565b8284015250506102a080840135838111156132c8578586fd5b6132d48a828701612e20565b8284015250506102c080840135838111156132ed578586fd5b6132f98a828701612e20565b8284015250506102e08084013583811115613312578586fd5b61331e8a828701612e20565b8284015250506103008084013583811115613337578586fd5b6133438a828701612e20565b828401525050610320808401358381111561335c578586fd5b6133688a828701612e20565b828401525050809550506020860135915080821115613385578283fd5b61339187838801612eb9565b935060408601359150808211156133a6578283fd5b506133b386828701612f59565b9150509250925092565b6000602082840312156133ce578081fd5b5051919050565b600080604083850312156133e7578182fd5b8251915060208301516133f981613c3d565b809150509250929050565b600060208284031215613415578081fd5b815160ff81168114610df9578182fd5b6000815180845261343d816020860160208601613c11565b601f01601f19169290920160200192915050565b815160009082906020808601845b8381101561347b5781518552938201939082019060010161345f565b50929695505050505050565b90815260200190565b918252602082015260400190565b9283526020830191909152604082015260600190565b600082516134c6818460208701613c11565b9190910192915050565b6001600160a01b0391909116815260200190565b6001600160a01b03929092168252602082015260400190565b6001600160a01b039384168152919092166020820152604081019190915260600190565b901515815260200190565b600060208252610df96020830184613425565b6000604082526135526040830185613425565b82810360208401526135648185613425565b95945050505050565b6000606082526135806060830186613425565b82810360208401526135928186613425565b91505060ff83166040830152949350505050565b60208082526013908201527215185c99d95d081a5cc81b9bdd08199bdd5b99606a1b604082015260600190565b60208082526024908201527f76657269667952656365697074202d20646966666572656e74207472696520726040820152636f6f747360e01b606082015260800190565b6020808252601c908201527f636865636b706f696e742076616c69646174696f6e206661696c656400000000604082015260600190565b6020808252818101527f496e76616c696420726f6f7420686173682066726f6d20746865207065616b73604082015260600190565b60208082526026908201527f4f776e61626c653a206e6577206f776e657220697320746865207a65726f206160408201526564647265737360d01b606082015260800190565b602080825260159082015274189c9a5919d948191bd95cc81b9bdd08195e1a5cdd605a1b604082015260600190565b6020808252600d908201526c646f75626c65207370656e742160981b604082015260600190565b60208082526016908201527512185cda1959081c19585ac81a5cc81a5b9d985b1a5960521b604082015260600190565b6020808252601a908201527f50726f6f664c69623a20696e76616c696420686173686c696e6b000000000000604082015260600190565b6020808252601e908201527f536166654d6174683a207375627472616374696f6e206f766572666c6f770000604082015260600190565b60208082526026908201527f416464726573733a20696e73756666696369656e742062616c616e636520666f6040820152651c8818d85b1b60d21b606082015260800190565b6020808252601290820152711a5b9d985b1a59081c1c9bdbd9881c9bdbdd60721b604082015260600190565b6020808252600c908201526b0d2dcecc2d8d2c840e0c2e8d60a31b604082015260600190565b6020808252600e908201526d1c995d995c9d081c9958d95a5c1d60921b604082015260600190565b60208082526022908201527f626c6f636b2068656164657220636f756c64206e6f7420626520766572696669604082015261195960f21b606082015260800190565b6020808252602e908201527f496e697469616c697a61626c653a20636f6e747261637420697320616c72656160408201526d191e481a5b9a5d1a585b1a5e995960921b606082015260800190565b60208082526017908201527f746f6b656e20697320616c7265616479206d6170706564000000000000000000604082015260600190565b6020808252601b908201527f726563697069656e742069732061207a65726f20616464726573730000000000604082015260600190565b602080825260119082015270524c50206974656d206f766572666c6f7760781b604082015260600190565b6020808252818101527f4f776e61626c653a2063616c6c6572206973206e6f7420746865206f776e6572604082015260600190565b6020808252600c908201526b139bdd0818481c185c995b9d60a21b604082015260600190565b6020808252600e908201526d1b9bc81d985b1a5908195d995b9d60921b604082015260600190565b6020808252601e908201527f6d697373696e67206d617070696e6720746f2061636b6e6f776c656467650000604082015260600190565b60208082526021908201527f524c504465636f646572206974657261746f72206973206e6f742061206c69736040820152601d60fa1b606082015260800190565b60208082526017908201527f496e76616c6964206269742063616c63756c6174696f6e000000000000000000604082015260600190565b6020808252601d908201527f416464726573733a2063616c6c20746f206e6f6e2d636f6e7472616374000000604082015260600190565b6020808252602a908201527f5361666545524332303a204552433230206f7065726174696f6e20646964206e6040820152691bdd081cdd58d8d9595960b21b606082015260800190565b602080825260149082015273189c9a5919d948185b1c9958591e48195e1a5cdd60621b604082015260600190565b602080825260159082015274496e646578206973206f7574206f662072616e676560581b604082015260600190565b9182526001600160a01b0316602082015260400190565b6040518181016001600160401b0381118282101715613be857fe5b604052919050565b60006001600160401b03821115613c0357fe5b50601f01601f191660200190565b60005b83811015613c2c578181015183820152602001613c14565b838111156111365750506000910152565b6001600160a01b0381168114610aa457600080fdfe608060405234801561001057600080fd5b506114ff806100206000396000f3fe608060405234801561001057600080fd5b50600436106101165760003560e01c806370a08231116100a257806395d89b411161007157806395d89b4114610227578063a457c2d71461022f578063a9059cbb14610242578063dd62ed3e14610255578063f2fde38b1461026857610116565b806370a08231146101e4578063715018a6146101f757806379cc6790146101ff5780638da5cb5b1461021257610116565b806323b872dd116100e957806323b872dd14610183578063313ce5671461019657806339509351146101ab57806340c10f19146101be57806342966c68146101d157610116565b806306fdde031461011b578063095ea7b3146101395780631624f6c61461015957806318160ddd1461016e575b600080fd5b61012361027b565b60405161013091906110e9565b60405180910390f35b61014c61014736600461100f565b610311565b60405161013091906110de565b61016c610167366004611038565b61032e565b005b6101766103d8565b60405161013091906113f9565b61014c610191366004610fd4565b6103de565b61019e610465565b6040516101309190611402565b61014c6101b936600461100f565b61046e565b61016c6101cc36600461100f565b6104bc565b61016c6101df3660046110b2565b610509565b6101766101f2366004610f88565b61051d565b61016c61053c565b61016c61020d36600461100f565b6105c5565b61021a61061a565b60405161013091906110ca565b610123610629565b61014c61023d36600461100f565b61068a565b61014c61025036600461100f565b6106f2565b610176610263366004610fa2565b610706565b61016c610276366004610f88565b610731565b60368054604080516020601f60026000196101006001881615020190951694909404938401819004810282018101909252828152606093909290918301828280156103075780601f106102dc57610100808354040283529160200191610307565b820191906000526020600020905b8154815290600101906020018083116102ea57829003601f168201915b5050505050905090565b600061032561031e6107f2565b84846107f6565b50600192915050565b600054610100900460ff168061034757506103476108aa565b80610355575060005460ff16155b61037a5760405162461bcd60e51b815260040161037190611275565b60405180910390fd5b600054610100900460ff161580156103a5576000805460ff1961ff0019909116610100171660011790555b6103af84846108bb565b6103b7610951565b6103c0826109e3565b80156103d2576000805461ff00191690555b50505050565b60355490565b60006103eb8484846109f9565b61045b846103f76107f2565b61045685604051806060016040528060288152602001611459602891396001600160a01b038a166000908152603460205260408120906104356107f2565b6001600160a01b031681526020810191909152604001600020549190610b0e565b6107f6565b5060019392505050565b60385460ff1690565b600061032561047b6107f2565b84610456856034600061048c6107f2565b6001600160a01b03908116825260208083019390935260409182016000908120918c168152925290205490610b3a565b6104c46107f2565b6001600160a01b03166104d561061a565b6001600160a01b0316146104fb5760405162461bcd60e51b8152600401610371906112c3565b6105058282610b66565b5050565b61051a6105146107f2565b82610c26565b50565b6001600160a01b0381166000908152603360205260409020545b919050565b6105446107f2565b6001600160a01b031661055561061a565b6001600160a01b03161461057b5760405162461bcd60e51b8152600401610371906112c3565b6097546040516000916001600160a01b0316907f8be0079c531659141344cd1fd0a4f28419497f9722a3daafe3b4186f6b6457e0908390a3609780546001600160a01b0319169055565b60006105f782604051806060016040528060248152602001611481602491396105f0866102636107f2565b9190610b0e565b905061060b836106056107f2565b836107f6565b6106158383610c26565b505050565b6097546001600160a01b031690565b60378054604080516020601f60026000196101006001881615020190951694909404938401819004810282018101909252828152606093909290918301828280156103075780601f106102dc57610100808354040283529160200191610307565b60006103256106976107f2565b84610456856040518060600160405280602581526020016114a560259139603460006106c16107f2565b6001600160a01b03908116825260208083019390935260409182016000908120918d16815292529020549190610b0e565b60006103256106ff6107f2565b84846109f9565b6001600160a01b03918216600090815260346020908152604080832093909416825291909152205490565b6107396107f2565b6001600160a01b031661074a61061a565b6001600160a01b0316146107705760405162461bcd60e51b8152600401610371906112c3565b6001600160a01b0381166107965760405162461bcd60e51b81526004016103719061117f565b6097546040516001600160a01b038084169216907f8be0079c531659141344cd1fd0a4f28419497f9722a3daafe3b4186f6b6457e090600090a3609780546001600160a01b0319166001600160a01b0392909216919091179055565b3390565b6001600160a01b03831661081c5760405162461bcd60e51b81526004016103719061137e565b6001600160a01b0382166108425760405162461bcd60e51b8152600401610371906111c5565b6001600160a01b0380841660008181526034602090815260408083209487168084529490915290819020849055517f8c5be1e5ebec7d5bd14f71427d1e84f3dd0314c0f7b2291e5b200ac8c7c3b9259061089d9085906113f9565b60405180910390a3505050565b60006108b530610cfc565b15905090565b600054610100900460ff16806108d457506108d46108aa565b806108e2575060005460ff16155b6108fe5760405162461bcd60e51b815260040161037190611275565b600054610100900460ff16158015610929576000805460ff1961ff0019909116610100171660011790555b610931610d02565b61093b8383610d83565b8015610615576000805461ff0019169055505050565b600054610100900460ff168061096a575061096a6108aa565b80610978575060005460ff16155b6109945760405162461bcd60e51b815260040161037190611275565b600054610100900460ff161580156109bf576000805460ff1961ff0019909116610100171660011790555b6109c7610d02565b6109cf610d02565b801561051a576000805461ff001916905550565b6038805460ff191660ff92909216919091179055565b6001600160a01b038316610a1f5760405162461bcd60e51b815260040161037190611339565b6001600160a01b038216610a455760405162461bcd60e51b81526004016103719061113c565b610a50838383610615565b610a8d81604051806060016040528060268152602001611433602691396001600160a01b0386166000908152603360205260409020549190610b0e565b6001600160a01b038085166000908152603360205260408082209390935590841681522054610abc9082610b3a565b6001600160a01b0380841660008181526033602052604090819020939093559151908516907fddf252ad1be2c89b69c2b068fc378daa952ba7f163c4a11628f55a4df523b3ef9061089d9085906113f9565b60008184841115610b325760405162461bcd60e51b815260040161037191906110e9565b505050900390565b600082820183811015610b5f5760405162461bcd60e51b815260040161037190611207565b9392505050565b6001600160a01b038216610b8c5760405162461bcd60e51b8152600401610371906113c2565b610b9860008383610615565b603554610ba59082610b3a565b6035556001600160a01b038216600090815260336020526040902054610bcb9082610b3a565b6001600160a01b0383166000818152603360205260408082209390935591519091907fddf252ad1be2c89b69c2b068fc378daa952ba7f163c4a11628f55a4df523b3ef90610c1a9085906113f9565b60405180910390a35050565b6001600160a01b038216610c4c5760405162461bcd60e51b8152600401610371906112f8565b610c5882600083610615565b610c9581604051806060016040528060228152602001611411602291396001600160a01b0385166000908152603360205260409020549190610b0e565b6001600160a01b038316600090815260336020526040902055603554610cbb9082610e3c565b6035556040516000906001600160a01b038416907fddf252ad1be2c89b69c2b068fc378daa952ba7f163c4a11628f55a4df523b3ef90610c1a9085906113f9565b3b151590565b600054610100900460ff1680610d1b5750610d1b6108aa565b80610d29575060005460ff16155b610d455760405162461bcd60e51b815260040161037190611275565b600054610100900460ff161580156109cf576000805460ff1961ff001990911661010017166001179055801561051a576000805461ff001916905550565b600054610100900460ff1680610d9c5750610d9c6108aa565b80610daa575060005460ff16155b610dc65760405162461bcd60e51b815260040161037190611275565b600054610100900460ff16158015610df1576000805460ff1961ff0019909116610100171660011790555b8251610e04906036906020860190610e64565b508151610e18906037906020850190610e64565b506038805460ff191660121790558015610615576000805461ff0019169055505050565b600082821115610e5e5760405162461bcd60e51b81526004016103719061123e565b50900390565b828054600181600116156101000203166002900490600052602060002090601f016020900481019282601f10610ea557805160ff1916838001178555610ed2565b82800160010185558215610ed2579182015b82811115610ed2578251825591602001919060010190610eb7565b50610ede929150610ee2565b5090565b5b80821115610ede5760008155600101610ee3565b80356001600160a01b038116811461053757600080fd5b600082601f830112610f1e578081fd5b813567ffffffffffffffff80821115610f3357fe5b604051601f8301601f191681016020018281118282101715610f5157fe5b604052828152925082848301602001861015610f6c57600080fd5b8260208601602083013760006020848301015250505092915050565b600060208284031215610f99578081fd5b610b5f82610ef7565b60008060408385031215610fb4578081fd5b610fbd83610ef7565b9150610fcb60208401610ef7565b90509250929050565b600080600060608486031215610fe8578081fd5b610ff184610ef7565b9250610fff60208501610ef7565b9150604084013590509250925092565b60008060408385031215611021578182fd5b61102a83610ef7565b946020939093013593505050565b60008060006060848603121561104c578283fd5b833567ffffffffffffffff80821115611063578485fd5b61106f87838801610f0e565b94506020860135915080821115611084578384fd5b5061109186828701610f0e565b925050604084013560ff811681146110a7578182fd5b809150509250925092565b6000602082840312156110c3578081fd5b5035919050565b6001600160a01b0391909116815260200190565b901515815260200190565b6000602080835283518082850152825b81811015611115578581018301518582016040015282016110f9565b818111156111265783604083870101525b50601f01601f1916929092016040019392505050565b60208082526023908201527f45524332303a207472616e7366657220746f20746865207a65726f206164647260408201526265737360e81b606082015260800190565b60208082526026908201527f4f776e61626c653a206e6577206f776e657220697320746865207a65726f206160408201526564647265737360d01b606082015260800190565b60208082526022908201527f45524332303a20617070726f766520746f20746865207a65726f206164647265604082015261737360f01b606082015260800190565b6020808252601b908201527f536166654d6174683a206164646974696f6e206f766572666c6f770000000000604082015260600190565b6020808252601e908201527f536166654d6174683a207375627472616374696f6e206f766572666c6f770000604082015260600190565b6020808252602e908201527f496e697469616c697a61626c653a20636f6e747261637420697320616c72656160408201526d191e481a5b9a5d1a585b1a5e995960921b606082015260800190565b6020808252818101527f4f776e61626c653a2063616c6c6572206973206e6f7420746865206f776e6572604082015260600190565b60208082526021908201527f45524332303a206275726e2066726f6d20746865207a65726f206164647265736040820152607360f81b606082015260800190565b60208082526025908201527f45524332303a207472616e736665722066726f6d20746865207a65726f206164604082015264647265737360d81b606082015260800190565b60208082526024908201527f45524332303a20617070726f76652066726f6d20746865207a65726f206164646040820152637265737360e01b606082015260800190565b6020808252601f908201527f45524332303a206d696e7420746f20746865207a65726f206164647265737300604082015260600190565b90815260200190565b60ff9190911681526020019056fe45524332303a206275726e20616d6f756e7420657863656564732062616c616e636545524332303a207472616e7366657220616d6f756e7420657863656564732062616c616e636545524332303a207472616e7366657220616d6f756e74206578636565647320616c6c6f77616e636545524332303a206275726e20616d6f756e74206578636565647320616c6c6f77616e636545524332303a2064656372656173656420616c6c6f77616e63652062656c6f77207a65726fa264697066735822122091c126ec159f1cfbb94c8856a88f9dce03aa33661c8a556183abffcc7434ac1764736f6c63430007030033a264697066735822122020281edc494a25a3c65c1dee848ca69e4ddcdf82edf4c6f1530328b2e4505c1b64736f6c63430007030033",
  "linkReferences": {},
  "deployedLinkReferences": {}
}