{
  "address": "0xa210f356046b9497E73581F0b8B38fa4988F913B",
  "abi": [
    {
      "anonymous": false,
      "inputs": [
        {
          "indexed": false,
          "internalType": "uint8",
          "name": "version",
          "type": "uint8"
        }
      ],
      "name": "Initialized",
      "type": "event"
    },
    {
      "anonymous": false,
      "inputs": [
        {
          "indexed": false,
          "internalType": "address",
          "name": "account",
          "type": "address"
        }
      ],
      "name": "Paused",
      "type": "event"
    },
    {
      "anonymous": false,
      "inputs": [
        {
          "indexed": false,
          "internalType": "address",
          "name": "account",
          "type": "address"
        }
      ],
      "name": "Unpaused",
      "type": "event"
    },
    {
      "inputs": [
        {
          "internalType": "bytes32",
          "name": "blockHash",
          "type": "bytes32"
        },
        {
          "internalType": "bytes32",
          "name": "receiptsHash",
          "type": "bytes32"
        }
      ],
      "name": "VerifyReceiptsHash",
      "outputs": [
        {
          "internalType": "bool",
          "name": "",
          "type": "bool"
        }
      ],
      "stateMutability": "view",
      "type": "function"
    },
    {
      "inputs": [
        {
          "internalType": "bytes",
          "name": "_rlpHeader",
          "type": "bytes"
        },
        {
          "internalType": "bytes32[4][64]",
          "name": "cache",
          "type": "bytes32[4][64]"
        },
        {
          "internalType": "bytes32[][64]",
          "name": "proofs",
          "type": "bytes32[][64]"
        }
      ],
      "name": "addBlockHeader",
      "outputs": [
        {
          "internalType": "bool",
          "name": "",
          "type": "bool"
        }
      ],
      "stateMutability": "nonpayable",
      "type": "function"
    },
    {
      "inputs": [
        {
          "internalType": "uint256",
          "name": "",
          "type": "uint256"
        }
      ],
      "name": "blockExisting",
      "outputs": [
        {
          "internalType": "bool",
          "name": "",
          "type": "bool"
        }
      ],
      "stateMutability": "view",
      "type": "function"
    },
    {
      "inputs": [],
      "name": "blockHeightMax",
      "outputs": [
        {
          "internalType": "uint256",
          "name": "",
          "type": "uint256"
        }
      ],
      "stateMutability": "view",
      "type": "function"
    },
    {
      "inputs": [
        {
          "internalType": "uint256",
          "name": "",
          "type": "uint256"
        }
      ],
      "name": "blocks",
      "outputs": [
        {
          "internalType": "uint256",
          "name": "parentHash",
          "type": "uint256"
        },
        {
          "internalType": "uint256",
          "name": "stateRoot",
          "type": "uint256"
        },
        {
          "internalType": "uint256",
          "name": "transactionsRoot",
          "type": "uint256"
        },
        {
          "internalType": "uint256",
          "name": "receiptsRoot",
          "type": "uint256"
        },
        {
          "internalType": "uint256",
          "name": "number",
          "type": "uint256"
        },
        {
          "internalType": "uint256",
          "name": "difficulty",
          "type": "uint256"
        },
        {
          "internalType": "uint256",
          "name": "totalDifficulty",
          "type": "uint256"
        },
        {
          "internalType": "uint256",
          "name": "time",
          "type": "uint256"
        },
        {
          "internalType": "uint256",
          "name": "hash",
          "type": "uint256"
        }
      ],
      "stateMutability": "view",
      "type": "function"
    },
    {
      "inputs": [
        {
          "internalType": "uint256",
          "name": "",
          "type": "uint256"
        },
        {
          "internalType": "uint256",
          "name": "",
          "type": "uint256"
        }
      ],
      "name": "blocksByHeight",
      "outputs": [
        {
          "internalType": "uint256",
          "name": "",
          "type": "uint256"
        }
      ],
      "stateMutability": "view",
      "type": "function"
    },
    {
      "inputs": [
        {
          "internalType": "uint256",
          "name": "",
          "type": "uint256"
        }
      ],
      "name": "blocksByHeightExisting",
      "outputs": [
        {
          "internalType": "bool",
          "name": "",
          "type": "bool"
        }
      ],
      "stateMutability": "view",
      "type": "function"
    },
    {
      "inputs": [
        {
          "internalType": "uint256",
          "name": "",
          "type": "uint256"
        }
      ],
      "name": "canonicalBlocks",
      "outputs": [
        {
          "internalType": "bool",
          "name": "",
          "type": "bool"
        }
      ],
      "stateMutability": "view",
      "type": "function"
    },
    {
      "inputs": [],
      "name": "canonicalHead",
      "outputs": [
        {
          "internalType": "uint256",
          "name": "",
          "type": "uint256"
        }
      ],
      "stateMutability": "view",
      "type": "function"
    },
    {
      "inputs": [],
      "name": "finalityConfirms",
      "outputs": [
        {
          "internalType": "uint256",
          "name": "",
          "type": "uint256"
        }
      ],
      "stateMutability": "view",
      "type": "function"
    },
    {
      "inputs": [],
      "name": "firstBlock",
      "outputs": [
        {
          "internalType": "uint256",
          "name": "",
          "type": "uint256"
        }
      ],
      "stateMutability": "view",
      "type": "function"
    },
    {
      "inputs": [],
      "name": "getBlockHeightMax",
      "outputs": [
        {
          "internalType": "uint256",
          "name": "",
          "type": "uint256"
        }
      ],
      "stateMutability": "view",
      "type": "function"
    },
    {
      "inputs": [
        {
          "internalType": "bytes32",
          "name": "blockHash",
          "type": "bytes32"
        }
      ],
      "name": "getReceiptRoot",
      "outputs": [
        {
          "internalType": "bytes32",
          "name": "",
          "type": "bytes32"
        }
      ],
      "stateMutability": "view",
      "type": "function"
    },
    {
      "inputs": [
        {
          "internalType": "bytes32",
          "name": "blockHash",
          "type": "bytes32"
        }
      ],
      "name": "getStateRoot",
      "outputs": [
        {
          "internalType": "bytes32",
          "name": "",
          "type": "bytes32"
        }
      ],
      "stateMutability": "view",
      "type": "function"
    },
    {
      "inputs": [
        {
          "internalType": "bytes32",
          "name": "blockHash",
          "type": "bytes32"
        }
      ],
      "name": "getTxRoot",
      "outputs": [
        {
          "internalType": "bytes32",
          "name": "",
          "type": "bytes32"
        }
      ],
      "stateMutability": "view",
      "type": "function"
    },
    {
      "inputs": [
        {
          "internalType": "bytes",
          "name": "_rlpHeader",
          "type": "bytes"
        }
      ],
      "name": "initialize",
      "outputs": [],
      "stateMutability": "nonpayable",
      "type": "function"
    },
    {
      "inputs": [
        {
          "internalType": "uint256",
          "name": "blockHash",
          "type": "uint256"
        }
      ],
      "name": "isFinalized",
      "outputs": [
        {
          "internalType": "bool",
          "name": "",
          "type": "bool"
        }
      ],
      "stateMutability": "view",
      "type": "function"
    },
    {
      "inputs": [
        {
          "internalType": "uint256",
          "name": "blockHash",
          "type": "uint256"
        }
      ],
      "name": "isVerified",
      "outputs": [
        {
          "internalType": "bool",
          "name": "",
          "type": "bool"
        }
      ],
      "stateMutability": "view",
      "type": "function"
    },
    {
      "inputs": [
        {
          "internalType": "uint256",
          "name": "",
          "type": "uint256"
        }
      ],
      "name": "longestBranchHead",
      "outputs": [
        {
          "internalType": "uint256",
          "name": "",
          "type": "uint256"
        }
      ],
      "stateMutability": "view",
      "type": "function"
    },
    {
      "inputs": [
        {
          "internalType": "uint256",
          "name": "blockHash",
          "type": "uint256"
        }
      ],
      "name": "numberOfBlockConfirmations",
      "outputs": [
        {
          "internalType": "uint256",
          "name": "",
          "type": "uint256"
        }
      ],
      "stateMutability": "view",
      "type": "function"
    },
    {
      "inputs": [],
      "name": "oldestBlockStored",
      "outputs": [
        {
          "internalType": "uint256",
          "name": "",
          "type": "uint256"
        }
      ],
      "stateMutability": "view",
      "type": "function"
    },
    {
      "inputs": [],
      "name": "paused",
      "outputs": [
        {
          "internalType": "bool",
          "name": "",
          "type": "bool"
        }
      ],
      "stateMutability": "view",
      "type": "function"
    },
    {
      "inputs": [
        {
          "internalType": "bytes32",
          "name": "hash",
          "type": "bytes32"
        },
        {
          "internalType": "uint64",
          "name": "nonce",
          "type": "uint64"
        },
        {
          "internalType": "uint64",
          "name": "number",
          "type": "uint64"
        },
        {
          "internalType": "bytes32[4][64]",
          "name": "cache",
          "type": "bytes32[4][64]"
        },
        {
          "internalType": "bytes32[][64]",
          "name": "proofs",
          "type": "bytes32[][64]"
        },
        {
          "internalType": "uint256",
          "name": "difficulty",
          "type": "uint256"
        },
        {
          "internalType": "uint256",
          "name": "mixHash",
          "type": "uint256"
        }
      ],
      "name": "verifyEthash",
      "outputs": [
        {
          "internalType": "bool",
          "name": "",
          "type": "bool"
        }
      ],
      "stateMutability": "pure",
      "type": "function"
    }
  ],
  "transactionHash": "0x9f84c8d7a16d4713f6a93b7e4c6e7dd7615e41cd315e56b7c23d58799383219c",
  "args": [],
  "numDeployments": 1,
  "solcInputHash": "56d31fe3045434843aeef6e823a5eaad",
  "bytecode": "0x608060405234801561001057600080fd5b50614661806100206000396000f3fe608060405234801561001057600080fd5b506004361061014d5760003560e01c80636e819641116100c3578063d072e8d71161007c578063d072e8d7146102b8578063d6bacb0e146102c1578063dbad417c146102e4578063e0f5466a14610307578063f25b3f991461031a578063faa0c996146103ba57600080fd5b80636e8196411461024757806392947cc014610250578063aa6b789b14610270578063ad56296514610279578063b99955361461029c578063c4dd6d03146102af57600080fd5b806337b6d96b1161011557806337b6d96b146101cb5780633c6c6b73146101de57806341e63749146101f1578063439fab9114610214578063486f164c146102295780635c975abb1461023c57600080fd5b80630c5a1d6014610152578063231b02681461016957806329e141af146101725780632cb583781461019557806333727c4d146101b8575b600080fd5b606c545b6040519081526020015b60405180910390f35b61015660655481565b610185610180366004613e46565b6103dd565b6040519015158152602001610160565b6101566101a3366004613e68565b60009081526068602052604090206001015490565b6101856101c6366004613e68565b6103f8565b6101856101d9366004613e68565b610446565b6101566101ec366004613e46565b61048d565b6101856101ff366004613e68565b60696020526000908152604090205460ff1681565b610227610222366004613f81565b6104be565b005b610185610237366004614124565b61067b565b60335460ff16610185565b610156606f5481565b61015661025e366004613e68565b606d6020526000908152604090205481565b61015660665481565b610156610287366004613e68565b60009081526068602052604090206003015490565b6101856102aa3660046141b1565b610bb7565b610156606e5481565b610156606c5481565b6101566102cf366004613e68565b60009081526068602052604090206002015490565b6101856102f2366004613e68565b606b6020526000908152604090205460ff1681565b610156610315366004613e68565b610c6b565b610376610328366004613e68565b60686020528060005260406000206000915090508060000154908060010154908060020154908060030154908060040154908060050154908060060154908060070154908060080154905089565b60408051998a5260208a0198909852968801959095526060870193909352608086019190915260a085015260c084015260e083015261010082015261012001610160565b6101856103c8366004613e68565b60676020526000908152604090205460ff1681565b60008281526068602052604090206003015481145b92915050565b60008181526067602052604081205460ff1680156103f25750606654600090815260686020526040808220600490810154858452919092209091015461043f9060c8614257565b1092915050565b60008181526067602052604081205460ff1680156103f25750606654600090815260686020526040808220600490810154858452919092209091015461043f906019614257565b606a60205281600052604060002081815481106104a957600080fd5b90600052602060002001600091509150505481565b60006104ca6001610cba565b905080156104e2576000805461ff0019166101001790555b600d606e558151602083012060006104f984610d42565b604080516101208101825282518152606080840151602080840191825260808087015185870190815260a080890151958701958652610100808a015193880193845260e0808b018051938a019384525160c08a01908152610160909b01519089019081529088018c815260658d815560009d8e52606887528a8e2099518a5596516001808b0191909155935160028a015596516003890155835160048901559051600588015597516006870155965160078601558351600890950185905593885260698152848820805460ff19908116881790915584518952606a825285892084518154808a018355918b52838b209091015584518952606b825285892080548216881790558451606c559251808952606d8252858920559054606681905587526067905291909420805490911690911790555051606f558015610677576000805461ff0019169055604051600181527f7f26b83ff96e1f2b6a682f133852f6798a09c465da95921460cefb38474024989060200160405180910390a15b5050565b600061068960335460ff1690565b156106ce5760405162461bcd60e51b815260206004820152601060248201526f14185d5cd8589b194e881c185d5cd95960821b60448201526064015b60405180910390fd5b6106e36106de62278d004261426f565b611046565b8351602085012060009060008181526069602052604090205490915060ff16156107615760405162461bcd60e51b815260206004820152602960248201527f52656c617920626c6f636b206661696c65643a20626c6f636b20616c726561646044820152681e481c995b185e595960ba1b60648201526084016106c5565b600061076c86610d42565b805160009081526069602052604090205490915060ff166107e85760405162461bcd60e51b815260206004820152603060248201527f52656c617920626c6f636b206661696c65643a20706172656e7420626c6f636b60448201526f081b9bdd081c995b185e5959081e595d60821b60648201526084016106c5565b8051600090815260686020526040902060040154610807906001611102565b816101000151146108735760405162461bcd60e51b815260206004820152603060248201527f52656c617920626c6f636b206661696c65643a20696e76616c696420626c6f6360448201526f0d640c4d8dec6d690cad2ced0e89ac2f60831b60648201526084016106c5565b8051600090815260686020526040902060070154610160820151116108e85760405162461bcd60e51b815260206004820152602560248201527f52656c617920626c6f636b206661696c65643a20696e76616c69642074696d6560448201526407374616d760dc1b60648201526084016106c5565b60e0810151815160009081526068602052604090206005015461090b9190611115565b6109665760405162461bcd60e51b815260206004820152602660248201527f52656c617920626c6f636b206661696c65643a20696e76616c696420646966666044820152656963756c747960d01b60648201526084016106c5565b600061097187611142565b9050600061099a8260001b846101c001518561010001518a8a8860e00151896101a00151610bb7565b9050806109e95760405162461bcd60e51b815260206004820152601f60248201527f52656c617920626c6f636b206661696c65643a20696e76616c696420506f570060448201526064016106c5565b60006040518061012001604052808560000151815260200185606001518152602001856080015181526020018560a00151815260200185610100015181526020018560e001518152602001610a658660e0015160686000896000015181526020019081526020016000206006015461110290919063ffffffff16565b815261016086015160208083019190915260409182018890526000888152606882528281208451815584830151600180830191909155858501516002830155606086015160038301556080860151600483015560a0860151600583015560c0860151600683015560e086015160078301556101008087015160089093019290925560698452848320805460ff199081168317909155918a0180518452606a855285842080548084018255908552858520018c905580518452606b909452939091208054909116909217909155606c5490519192501015610b4957610100840151606c555b60665484511415610b775760668590556000858152606760205260409020805460ff19166001179055610ba8565b600085815260686020526040808220600690810154606654845291909220909101541015610ba857610ba885611246565b50600198975050505050505050565b600080610bcf6175306001600160401b03891661429c565b90506000610bdc826112fa565b90506000610be9836113cd565b9050600080610bfc8d8d858d888e611438565b90925090506000610c0f8960001961429c565b905088610c1e816000196142b0565b610c29906001614257565b610c33919061429c565b610c3d9082614257565b90508288148015610c4e5750600189115b8015610c5957508181115b9e9d5050505050505050505050505050565b60008181526067602052604081205460ff16610c8957506000919050565b600082815260686020526040808220600490810154606654845291909220909101546103f2919061426f565b919050565b60008054610100900460ff1615610d01578160ff166001148015610cdd5750303b155b610cf95760405162461bcd60e51b81526004016106c5906142c4565b506000919050565b60005460ff808416911610610d285760405162461bcd60e51b81526004016106c5906142c4565b506000805460ff191660ff92909216919091179055600190565b610dcb604051806102000160405280600081526020016000815260200160006001600160a01b03168152602001600081526020016000815260200160008152602001606081526020016000815260200160008152602001600081526020016000815260200160008152602001606081526020016000815260200160008152602001600081525090565b6000610e06610e018460408051808201825260008082526020918201528151808301909252825182529182019181019190915290565b611d62565b905060005b610e1482611dce565b1561103f5780610e3657610e2f610e2a83611df2565b611e4f565b835261102d565b8060011415610e5557610e4b610e2a83611df2565b602084015261102d565b8060021415610e8257610e6f610e6a83611df2565b611eca565b6001600160a01b0316604084015261102d565b8060031415610ea157610e97610e2a83611df2565b606084015261102d565b8060041415610ec057610eb6610e2a83611df2565b608084015261102d565b8060051415610edf57610ed5610e2a83611df2565b60a084015261102d565b8060061415610f0357610ef9610ef483611df2565b611ee4565b60c084015261102d565b8060071415610f2257610f18610e2a83611df2565b60e084015261102d565b8060081415610f4257610f37610e2a83611df2565b61010084015261102d565b8060091415610f6257610f57610e2a83611df2565b61012084015261102d565b80600a1415610f8257610f77610e2a83611df2565b61014084015261102d565b80600b1415610fa257610f97610e2a83611df2565b61016084015261102d565b80600c1415610fc257610fb7610ef483611df2565b61018084015261102d565b80600d1415610fe257610fd7610e2a83611df2565b6101a084015261102d565b80600e141561100257610ff7610e2a83611df2565b6101c084015261102d565b80600f141561102257611017610e2a83611df2565b6101e084015261102d565b61102b82611df2565b505b8061103781614312565b915050610e0b565b5050919050565b606f5460005b60108110156110f15760008261106181614312565b6000828152606b602052604090205490945090915060ff1661108357506110df565b6000818152606a60205260408120805482906110a1576110a161432d565b9060005260206000200154905084606860008381526020019081526020016000206007015411156110d35750506110f1565b6110dc82611f80565b50505b806110e981614312565b91505061104c565b50606f5481111561067757606f5550565b600061110e8284614257565b9392505050565b60006111386111266127108461429c565b611131906063614343565b8390612068565b9092101592915050565b60408051600e8082526101e08201909252600091829190816020015b606081526020019060019003908161115e57905050905060006111ab610e018560408051808201825260008082526020918201528151808301909252825182529182019181019190915290565b905060005b6111b982611dce565b80156111c55750600e81105b156112295780600d14156111e8576111dc82611df2565b506111e682611df2565b505b6111f96111f483611df2565b612074565b83828151811061120b5761120b61432d565b6020026020010181905250808061122190614312565b9150506111b0565b6000611234846120f3565b80516020909101209695505050505050565b805b60008181526067602052604090205460ff16158015611275575060008181526069602052604090205460ff165b156112a3576000908152606760209081526040808320805460ff191660011790556068909152902054611248565b606654905b8082141580156112c6575060008281526069602052604090205460ff165b156112f3576000918252606760209081526040808420805460ff19169055606890915290912054906112a8565b5050606655565b6040805180820190915260208082527ff87d605dd4bdafc39b13b45b6abf6b921196b0f3b5d7c51b31820664104a697d9082015260009061019b6001600160401b03841610801590611357575061019b6001600160401b03841611155b6113995760405162461bcd60e51b815260206004820152601360248201527265706f6368206f7574206f662072616e67652160681b60448201526064016106c5565b60006113a761019b85614362565b6113b290600161438a565b6001600160401b031690506020810282015192505050919050565b6000806113dd8362800000614343565b6113eb906340000000614257565b90506113f860808261426f565b90505b611411600261140b60808461429c565b90612117565b6103f257611421608060026143b5565b6114319063ffffffff168261426f565b90506113fb565b600080806114476080886143e1565b6040805160288082526060820190925291925060009190602082018180368337505050602081018b9052905061147f8160208b612223565b61148881612261565b905060006114968282612525565b905060006114a660046080614407565b63ffffffff166001600160401b038111156114c3576114c3613e81565b6040519080825280602002602001820160405280156114ec578160200160208202803683370190505b50905060005b81518163ffffffff1610156115605761152161150f60108361441e565b61151a9060046143b5565b8590612525565b828263ffffffff16815181106115395761153961432d565b63ffffffff909216602092830291909101909101528061155881614441565b9150506114f2565b50600081516001600160401b0381111561157c5761157c613e81565b6040519080825280602002602001820160405280156115a5578160200160208202803683370190505b5090508860005b604063ffffffff82161015611bd1576000876115f58784188788518663ffffffff166115d891906142b0565b815181106115e8576115e861432d565b6020026020010151612540565b6115ff919061441e565b905060008d8363ffffffff166040811061161b5761161b61432d565b60200201519050600061162f8360026143b5565b63ffffffff16905060008d8563ffffffff16604081106116515761165161432d565b602002015190506000828460405160200161166d929190614465565b604051602081830303815290604052805190602001209050611690828883612559565b5060005b60048163ffffffff1610156119165760006116b08260086143b5565b90506000868363ffffffff16600481106116cc576116cc61432d565b602002015190506116e060e082901c61256f565b8b8363ffffffff16815181106116f8576116f861432d565b602002602001019063ffffffff16908163ffffffff168152505061171f60c082901c61256f565b8b61172b8460016144a1565b63ffffffff16815181106117415761174161432d565b602002602001019063ffffffff16908163ffffffff168152505061176860a082901c61256f565b8b6117748460026144a1565b63ffffffff168151811061178a5761178a61432d565b602002602001019063ffffffff16908163ffffffff16815250506117b1608082901c61256f565b8b6117bd8460036144a1565b63ffffffff16815181106117d3576117d361432d565b602002602001019063ffffffff16908163ffffffff16815250506117fa606082901c61256f565b8b6118068460046144a1565b63ffffffff168151811061181c5761181c61432d565b602002602001019063ffffffff16908163ffffffff1681525050611843604082901c61256f565b8b61184f8460056144a1565b63ffffffff16815181106118655761186561432d565b63ffffffff9092166020928302919091018201526118859082901c61256f565b8b6118918460066144a1565b63ffffffff16815181106118a7576118a761432d565b63ffffffff909216602092830291909101909101526118c58161256f565b8b6118d18460076144a1565b63ffffffff16815181106118e7576118e761432d565b602002602001019063ffffffff16908163ffffffff16815250505050808061190e90614441565b915050611694565b5060208981018051918a015163010001939283021863ffffffff9081169091526040808b0151908c0180518402909118821690526060808b0151908c0180518402909118821690526080808b0151908c01805184029091188216905260a0808b0151908c01805184029091188216905260c0808b0151908c01805184029091188216905260e0808b0151908c018051840290911882169052610100808b0151908c018051840290911882169052610120808b0151908c018051840290911882169052610140808b0151908c018051840290911882169052610160808b0151908c018051840290911882169052610180808b0151908c0180518402909118821690526101a0808b0151908c0180518402909118821690526101c0808b0151908c0180518402909118821690526101e0808b0151908c018051840290911882169052610200808b0151908c018051840290911882169052610220808b0151908c018051840290911882169052610240808b0151908c018051840290911882169052610260808b0151908c018051840290911882169052610280808b0151908c0180518402909118821690526102a0808b0151908c0180518402909118821690526102c0808b0151908c0180518402909118821690526102e0808b0151908c018051840290911882169052610300808b0151908c018051840290911882169052610320808b0151908c018051840290911882169052610340808b0151908c018051840290911882169052610360808b0151908c018051840290911882169052610380808b0151908c0180518402909118821690526103a0808b0151908c0180518402909118821690526103c0808b0151908c0180518402909118821690526103e0808b0151908c018051840290911882169052610400808b0151908c0180519093021816905250505050508080611bc990614441565b9150506115ac565b5060005b83518163ffffffff161015611c9257611c49611c3d611c31868463ffffffff1681518110611c0557611c0561432d565b602002602001015187856001611c1b91906144a1565b63ffffffff16815181106115e8576115e861432d565b86611c1b8560026144a1565b85611c1b8460036144a1565b84611c55600484614407565b63ffffffff1681518110611c6b57611c6b61432d565b63ffffffff90921660209283029190910190910152611c8b6004826144a1565b9050611bd5565b506000805b60048551611ca5919061429c565b8163ffffffff161015611d2057602082901b91506000858263ffffffff1681518110611cd357611cd361432d565b6020908102919091010151601881811c60ff16600883811c61ff00169084901b62ff0000169390921b63ff0000001692909217171792909217915080611d1881614441565b915050611c97565b506040518190611d3690889083906020016144c0565b604051602081830303815290604052805190602001209850985050505050505050965096945050505050565b6040805160808101825260009181018281526060820183905281526020810191909152611d8e826125b6565b611d9757600080fd5b6000611da683602001516125ef565b8360200151611db59190614257565b6040805180820190915293845260208401525090919050565b80518051602082015160009291611de491614257565b836020015110915050919050565b6040805180820190915260008082526020820152611e0f82611dce565b611e1857600080fd5b60208201516000611e288261266a565b9050611e348183614257565b60209485015260408051808201909152908152928301525090565b805160009015801590611e6457508151602110155b611e6d57600080fd5b6000611e7c83602001516125ef565b90506000818460000151611e90919061426f565b9050600080838660200151611ea59190614257565b9050805191506020831015611ec157826020036101000a820491505b50949350505050565b8051600090601514611edb57600080fd5b6103f282611e4f565b8051606090611ef257600080fd5b6000611f0183602001516125ef565b90506000818460000151611f15919061426f565b90506000816001600160401b03811115611f3157611f31613e81565b6040519080825280601f01601f191660200182016040528015611f5b576020820181803683370190505b5090506000816020019050611ec1848760200151611f799190614257565b828561270e565b6000818152606a60205260408120905b8154811015612022576000828281548110611fad57611fad61432d565b600091825260208083209091015482526068815260408083208381556001810184905560028101849055600381018490556004810184905560058101849055600681018490556007810184905560080183905560699091529020805460ff19169055508061201a81614312565b915050611f90565b506000828152606a6020526040812061203a91613d73565b506000908152606b60209081526040808320805460ff19908116909155606790925290912080549091169055565b600061110e828461426f565b6060600082600001516001600160401b0381111561209457612094613e81565b6040519080825280601f01601f1916602001820160405280156120be576020820181803683370190505b5090508051600014156120d15792915050565b60008160200190506120ec846020015182866000015161270e565b5092915050565b6060600061210083612789565b905061110e612111825160c06128ba565b82612a70565b600082600214806121285750826003145b15612135575060016103f2565b6121406002846142b0565b158061214c5750600283105b15612159575060006103f2565b600061216484612aed565b8051602082015191925090600061217c868389612b4a565b90508060011480612196575061219360018861426f565b81145b156121a85760019450505050506103f2565b60006121b560018561426f565b90505b8015612215576121ca8260028a612b4a565b915081600114156121e3576000955050505050506103f2565b6121ee60018961426f565b821415612203576001955050505050506103f2565b8061220d81614501565b9150506121b8565b506000979650505050505050565b6122396122318360006144a1565b849083612bbe565b61225c6122478360046144a1565b849063ffffffff602085901c811690612bbe16565b505050565b6060815160281480612274575081516040145b6122cb5760405162461bcd60e51b815260206004820152602260248201527f736861353132206f6e6c7920737570706f7274203634206f7220343020627974604482015261657360f01b60648201526084016106c5565b6000600883516122db919061429c565b90506122e5613d94565b60005b8281101561246d5760006122fd826008614343565b905060388661230d836007614257565b8151811061231d5761231d61432d565b016020015160f81c901b603087612335846006614257565b815181106123455761234561432d565b016020015160f81c901b60288861235d856005614257565b8151811061236d5761236d61432d565b0160209081015160f81c90911b9089612387866004614257565b815181106123975761239761432d565b016020015160f81c901b60188a6123af876003614257565b815181106123bf576123bf61432d565b016020015160f81c901b60108b6123d7886002614257565b815181106123e7576123e761432d565b016020015160f81c901b60088c6123ff896001614257565b8151811061240f5761240f61432d565b602001015160f81c60f81b60f81c60ff16901b8c88815181106124345761243461432d565b016020015160f81c171717171717178383600981106124555761245561432d565b6020020152508061246581614312565b9150506122e8565b5060018183600981106124825761248261432d565b6020020152610100810180516001603f1b17905260006124a182612be8565b604080518181526060810182529192506000919060208201818036833701905050905060005b60108163ffffffff16101561251b576125096124e48260046143b5565b848363ffffffff16601081106124fc576124fc61432d565b6020020151849190612bbe565b8061251381614441565b9150506124c7565b5095945050505050565b818101600401516000906125388161256f565b949350505050565b6000816125518463010001936143b5565b189392505050565b6000826125668584612e89565b14949350505050565b600060188263ffffffff16901b63ff0000001660088363ffffffff16901b62ff00001660088463ffffffff16901c61ff001660188563ffffffff16901c1717179050919050565b80516000906125c757506000919050565b6020820151805160001a9060c08210156125e5575060009392505050565b5060019392505050565b8051600090811a60808110156126085750600092915050565b60b8811080612623575060c08110801590612623575060f881105b156126315750600192915050565b60c081101561265e57612646600160b8614518565b6126539060ff168261426f565b61110e906001614257565b612646600160f8614518565b80516000908190811a608081101561268557600191506120ec565b60b88110156126ab5761269960808261426f565b6126a4906001614257565b91506120ec565b60c08110156126d85760b78103600185019450806020036101000a855104600182018101935050506120ec565b60f88110156126ec5761269960c08261426f565b60019390930151602084900360f7016101000a900490920160f5190192915050565b8061271857505050565b60208110612750578251825261272f602084614257565b925061273c602083614257565b915061274960208261426f565b9050612718565b6000600161275f83602061426f565b61276b9061010061461f565b612775919061426f565b935183518516941916939093179091525050565b60608151600014156127ab5760408051600080825260208201909252906120ec565b6000805b83518110156127f2578381815181106127ca576127ca61432d565b602002602001015151826127de9190614257565b9150806127ea81614312565b9150506127af565b6000826001600160401b0381111561280c5761280c613e81565b6040519080825280601f01601f191660200182016040528015612836576020820181803683370190505b50600092509050602081015b8551831015611ec157600086848151811061285f5761285f61432d565b60200260200101519050600060208201905061287d83828451612efd565b87858151811061288f5761288f61432d565b602002602001015151836128a39190614257565b9250505082806128b290614312565b935050612842565b606080603884101561292457604080516001808252818301909252906020820181803683370190505090506128ef8385614257565b601f1a60f81b816000815181106129085761290861432d565b60200101906001600160f81b031916908160001a90535061110e565b600060015b612933818761429c565b15612959578161294281614312565b9250612952905061010082614343565b9050612929565b612964826001614257565b6001600160401b0381111561297b5761297b613e81565b6040519080825280601f01601f1916602001820160405280156129a5576020820181803683370190505b5092506129b28583614257565b6129bd906037614257565b601f1a60f81b836000815181106129d6576129d661432d565b60200101906001600160f81b031916908160001a905350600190505b818111612a6757610100612a06828461426f565b612a129061010061461f565b612a1c908861429c565b612a2691906142b0565b601f1a60f81b838281518110612a3e57612a3e61432d565b60200101906001600160f81b031916908160001a90535080612a5f81614312565b9150506129f2565b50509392505050565b6060806040519050835180825260208201818101602087015b81831015612aa1578051835260209283019201612a89565b50855184518101855292509050808201602086015b81831015612ace578051835260209283019201612ab6565b508651929092011591909101601f01601f191660405250905092915050565b612af5613db3565b600080612b0360018561426f565b90505b612b116002826142b0565b612b3457612b2060028261429c565b905081612b2c81614312565b925050612b06565b612b3c613db3565b918252602082015292915050565b6000612b5682856142b0565b93506001845b8415611ec1576000612b6f6002876142b0565b9050612b7c60028761429c565b95508060011415612ba057612b918284614343565b9250612b9d85846142b0565b92505b612baa8283612f75565b9150612bb685836142b0565b915050612b5c565b6020820183018181538160081c60018201538160101c60028201538160181c600382015350505050565b612bf0613dd1565b604860086000612c01600983614343565b9050612c0b613df0565b600080805b612c1a878661429c565b831015612d3d57600091505b6005821015612d20575060005b6005811015612d0e57612c46868861429c565b612c51836005614343565b612c5b9083614257565b1015612cfc5788612c6d836005614343565b82612c79866009614343565b612c839190614257565b612c8d9190614257565b60098110612c9d57612c9d61432d565b60200201518483612caf846005614343565b612cb99190614257565b60198110612cc957612cc961432d565b6020020151188483612cdc846005614343565b612ce69190614257565b60198110612cf657612cf661432d565b60200201525b80612d0681614312565b915050612c33565b81612d1881614312565b925050612c26565b612d2984612ff4565b935082612d3581614312565b935050612c10565b612d45613dd1565b60005b6010811015612e7b57600093505b6005841015612e7657600092505b6005831015612e6457612d77888a61429c565b612d82856005614343565b612d8c9085614257565b108015612d995750601081105b15612e52578584612dab856005614343565b612db59190614257565b60198110612dc557612dc561432d565b602002015163ffffffff16828260108110612de257612de261432d565b60200201526401000000008685612dfa866005614343565b612e049190614257565b60198110612e1457612e1461432d565b6020020151612e23919061429c565b82612e2f836001614257565b60108110612e3f57612e3f61432d565b6020020152612e4f600282614257565b90505b82612e5c81614312565b935050612d64565b83612e6e81614312565b945050612d56565b612d48565b509998505050505050505050565b600081815b8451811015612ef5576000858281518110612eab57612eab61432d565b60200260200101519050808311612ed15760008381526020829052604090209250612ee2565b600081815260208490526040902092505b5080612eed81614312565b915050612e8e565b509392505050565b8282825b60208110612f395781518352612f18602084614257565b9250612f25602083614257565b9150612f3260208261426f565b9050612f01565b60006001612f4883602061426f565b612f549061010061461f565b612f5e919061426f565b925184518416931916929092179092525050505050565b600082612f84575060006103f2565b6000612f908385614343565b905082612f9d858361429c565b1461110e5760405162461bcd60e51b815260206004820152602160248201527f536166654d6174683a206d756c7469706c69636174696f6e206f766572666c6f6044820152607760f81b60648201526084016106c5565b612ffc613df0565b613004613e0f565b61300c613e0f565b613014613df0565b600060405180610300016040528060018152602001618082815260200167800000000000808a8152602001678000000080008000815260200161808b81526020016380000001815260200167800000008000808181526020016780000000000080098152602001608a81526020016088815260200163800080098152602001638000000a8152602001638000808b815260200167800000000000008b8152602001678000000000008089815260200167800000000000800381526020016780000000000080028152602001678000000000000080815260200161800a815260200167800000008000000a81526020016780000000800080818152602001678000000000008080815260200163800000018152602001678000000080008008815250905060005b6018811015613d68576080808801516060808a01516040808c01516020808e01518e511890911890921890931889526101208b01516101008c015160e08d015160c08e015160a08f0151181818189089018190526101c08b01516101a08c01516101808d01516101608e01516101408f015118181818928901929092526102608a01516102408b01516102208c01516102008d01516101e08e015118181818908801526103008901516102e08a01516102c08b01516102a08c01516102808d01511818181891870191909152613215906001603f1b9061429c565b6020860151613225906002614343565b60808701516001600160401b0391909116919091171884526040850151613251906001603f1b9061429c565b6040860151613261906002614343565b86516001600160401b039190911691909117186020850152606085015161328d906001603f1b9061429c565b606086015161329d906002614343565b6001600160401b03161785600160200201511884600260200201526001603f1b85600460200201516132cf919061429c565b60808601516132df906002614343565b60408701516001600160401b039190911691909117186060850152845161330b906001603f1b9061429c565b8551613318906002614343565b6060808801516001600160401b03929092169290921718608080870191825286518a5118808b52875160208c81018051909218825289516040808f0180519092189091528a518e8801805190911890528a51948e0180519095189094528901805160a08e0180519091189052805160c08e0180519091189052805160e08e018051909118905280516101008e0180519091189052516101208d018051909118905291880180516101408d018051909118905280516101608d018051909118905280516101808d018051909118905280516101a08d0180519091189052516101c08c018051909118905292870180516101e08c018051909118905280516102008c018051909118905280516102208c018051909118905280516102408c0180519091189052516102608b018051909118905281516102808b018051909118905281516102a08b018051909118905281516102c08b018051909118905281516102e08b018051909118905290516103008a0180519091189052908452516134a29063100000009061429c565b60208801516134b690641000000000614343565b6001600160401b03161761010084015260408701516134da906001603d1b9061429c565b60408801516134ea906008614343565b6001600160401b031617610160840152606087015161350d90628000009061429c565b60608801516135229065020000000000614343565b6001600160401b031617610260840152608087015161354890654000000000009061429c565b608088015161355a9062040000614343565b6001600160401b0316176102c084015260a087015161357e906001603f1b9061429c565b60a088015161358e906002614343565b6001600160401b031617604084015260c08701516135b090621000009061429c565b60c08801516135c59065100000000000614343565b6001600160401b03161760a084015260e08701516135eb9066400000000000009061429c565b60e08801516135fc90610400614343565b6001600160401b0316176101a084015261010087015161362090620800009061429c565b6101008801516136369065200000000000614343565b6001600160401b03161761020084015261012087015161365b906001603e1b9061429c565b61012088015161366c906004614343565b6001600160401b03161761030084015261014087015161368e9060049061429c565b6101408801516136a2906001603e1b614343565b6001600160401b03161760808401526101608701516136ca906704000000000000009061429c565b6101608801516136db906040614343565b6001600160401b03161760e08401526101808701516136fe90622000009061429c565b6101808801516137149065080000000000614343565b6001600160401b0316176101408401526101a087015161373c9066020000000000009061429c565b6101a088015161374e90618000614343565b6001600160401b0316176102408401526101c08701516137709060089061429c565b6101c0880151613784906001603d1b614343565b6001600160401b0316176102a08401526101e08701516137aa906410000000009061429c565b6101e08801516137be906310000000614343565b6001600160401b0316176020840152610200878101516137de919061429c565b6102008801516137f5906680000000000000614343565b6001600160401b03161761012084015261022087015161381b906480000000009061429c565b61022088015161382f906302000000614343565b6001600160401b03161761018084015261024087015161385690650800000000009061429c565b6102408801516138699062200000614343565b6001600160401b0316176101e084015261026087015161388c906101009061429c565b6102608801516138a090600160381b614343565b6001600160401b0316176102e08401526102808701516138c6906420000000009061429c565b6102808801516138da906308000000614343565b6001600160401b03161760608401526102a087015161390090651000000000009061429c565b6102a08801516139139062100000614343565b6001600160401b03161760c08401526102c08701516139379063020000009061429c565b6102c088015161394c90648000000000614343565b6001600160401b0316176101c08401526102e087015161397190600160381b9061429c565b6102e088015161398390610100614343565b6001600160401b0316176102208401526103008701516139ab9066040000000000009061429c565b6103008801516139bd90614000614343565b6001600160401b031617836014602002015282600a602002015183600560200201511916836000602002015118876000602002015282600b602002015183600660200201511916836001602002015118876001602002015282600c602002015183600760200201511916836002602002015118876002602002015282600d602002015183600860200201511916836003602002015118876003602002015282600e602002015183600960200201511916836004602002015118876004602002015282600f602002015183600a602002015119168360056020020151188760056020020152826010602002015183600b602002015119168360066020020151188760066020020152826011602002015183600c602002015119168360076020020151188760076020020152826012602002015183600d602002015119168360086020020151188760086020020152826013602002015183600e602002015119168360096020020151188760096020020152826014602002015183600f6020020151191683600a60200201511887600a602002015282601560200201518360106020020151191683600b60200201511887600b602002015282601660200201518360116020020151191683600c60200201511887600c602002015282601760200201518360126020020151191683600d60200201511887600d602002015282601860200201518360136020020151191683600e60200201511887600e602002015282600060200201518360146020020151191683600f60200201511887600f6020020152826001602002015183601560200201511916836010602002015118876010602002015282600260200201518360166020020151191683601160200201511887601160200201528260036020020151836017602002015119168360126020020151188760126020020152826004602002015183601860200201511916836013602002015118876013602002015282600560200201518360006020020151191683601460200201511887601460200201528260066020020151836001602002015119168360156020020151188760156020020152826007602002015183600260200201511916836016602002015118876016602002015282600860200201518360036020020151191683601760200201511887601760200201528260096020020151836004602002015119168360186020020151188760186020020152818160188110613d4c57613d4c61432d565b6020020151875118875280613d6081614312565b91505061313a565b509495945050505050565b5080546000825590600052602060002090810190613d919190613e2d565b50565b6040518061012001604052806009906020820280368337509192915050565b60405180604001604052806002906020820280368337509192915050565b6040518061020001604052806010906020820280368337509192915050565b6040518061032001604052806019906020820280368337509192915050565b6040518060a001604052806005906020820280368337509192915050565b5b80821115613e425760008155600101613e2e565b5090565b60008060408385031215613e5957600080fd5b50508035926020909101359150565b600060208284031215613e7a57600080fd5b5035919050565b634e487b7160e01b600052604160045260246000fd5b60405161080081016001600160401b0381118282101715613eba57613eba613e81565b60405290565b604051608081016001600160401b0381118282101715613eba57613eba613e81565b604051601f8201601f191681016001600160401b0381118282101715613f0a57613f0a613e81565b604052919050565b600082601f830112613f2357600080fd5b81356001600160401b03811115613f3c57613f3c613e81565b613f4f601f8201601f1916602001613ee2565b818152846020838601011115613f6457600080fd5b816020850160208301376000918101602001919091529392505050565b600060208284031215613f9357600080fd5b81356001600160401b03811115613fa957600080fd5b61253884828501613f12565b6000601f8381840112613fc757600080fd5b613fcf613e97565b80612000850186811115613fe257600080fd5b855b81811015614043578785820112613ffb5760008081fd5b614003613ec0565b80608083018a8111156140165760008081fd5b835b81811015614030578035845260209384019301614018565b5050855250602090930192608001613fe4565b50909695505050505050565b6000601f838184011261406157600080fd5b614069613e97565b8061080085018681111561407c57600080fd5b855b818110156140435780356001600160401b038082111561409e5760008081fd5b818901915089878301126140b25760008081fd5b81356020828211156140c6576140c6613e81565b8160051b92506140d7818401613ee2565b828152928401810192818101908d8511156140f457600093508384fd5b948201945b84861015614112578535825294820194908201906140f9565b8952509096019550505060200161407e565b6000806000612040848603121561413a57600080fd5b83356001600160401b038082111561415157600080fd5b61415d87838801613f12565b945061416c8760208801613fb5565b935061202086013591508082111561418357600080fd5b506141908682870161404f565b9150509250925092565b80356001600160401b0381168114610cb557600080fd5b60008060008060008060006120c0888a0312156141cd57600080fd5b873596506141dd6020890161419a565b95506141eb6040890161419a565b94506141fa8960608a01613fb5565b93506120608801356001600160401b0381111561421657600080fd5b6142228a828b0161404f565b93505061208088013591506120a0880135905092959891949750929550565b634e487b7160e01b600052601160045260246000fd5b6000821982111561426a5761426a614241565b500190565b60008282101561428157614281614241565b500390565b634e487b7160e01b600052601260045260246000fd5b6000826142ab576142ab614286565b500490565b6000826142bf576142bf614286565b500690565b6020808252602e908201527f496e697469616c697a61626c653a20636f6e747261637420697320616c72656160408201526d191e481a5b9a5d1a585b1a5e995960921b606082015260800190565b600060001982141561432657614326614241565b5060010190565b634e487b7160e01b600052603260045260246000fd5b600081600019048311821515161561435d5761435d614241565b500290565b60006001600160401b038381169083168181101561438257614382614241565b039392505050565b60006001600160401b038083168185168083038211156143ac576143ac614241565b01949350505050565b600063ffffffff808316818516818304811182151516156143d8576143d8614241565b02949350505050565b60006001600160401b03808416806143fb576143fb614286565b92169190910492915050565b600063ffffffff808416806143fb576143fb614286565b600063ffffffff8084168061443557614435614286565b92169190910692915050565b600063ffffffff8083168181141561445b5761445b614241565b6001019392505050565b828152600060208083018460005b600481101561449057815183529183019190830190600101614473565b5050505060a0820190509392505050565b600063ffffffff8083168185168083038211156143ac576143ac614241565b6000835160005b818110156144e157602081870181015185830152016144c7565b818111156144f0576000828501525b509190910191825250602001919050565b60008161451057614510614241565b506000190190565b600060ff821660ff84168082101561453257614532614241565b90039392505050565b600181815b8085111561457657816000190482111561455c5761455c614241565b8085161561456957918102915b93841c9390800290614540565b509250929050565b60008261458d575060016103f2565b8161459a575060006103f2565b81600181146145b057600281146145ba576145d6565b60019150506103f2565b60ff8411156145cb576145cb614241565b50506001821b6103f2565b5060208310610133831016604e8410600b84101617156145f9575081810a6103f2565b614603838361453b565b806000190482111561461757614617614241565b029392505050565b600061110e838361457e56fea264697066735822122021e2048f37107b3fb949d8c251a848413e9ce72602bed2d2047815e724c811de64736f6c63430008090033",
  "devdoc": {
    "kind": "dev",
    "methods": {
      "paused()": {
        "details": "Returns true if the contract is paused, and false otherwise."
      }
    },
    "title": "Ethereum light client",
    "version": 1
  },
  "userdoc": {
    "kind": "user",
    "methods": {},
    "version": 1
  },
  "storageLayout": {
    "storage": [
      {
        "astId": 543,
        "contract": "contracts/EthereumLightClient.sol:EthereumLightClient",
        "label": "_initialized",
        "offset": 0,
        "slot": "0",
        "type": "t_uint8"
      },
      {
        "astId": 546,
        "contract": "contracts/EthereumLightClient.sol:EthereumLightClient",
        "label": "_initializing",
        "offset": 1,
        "slot": "0",
        "type": "t_bool"
      },
      {
        "astId": 2075,
        "contract": "contracts/EthereumLightClient.sol:EthereumLightClient",
        "label": "__gap",
        "offset": 0,
        "slot": "1",
        "type": "t_array(t_uint256)50_storage"
      },
      {
        "astId": 699,
        "contract": "contracts/EthereumLightClient.sol:EthereumLightClient",
        "label": "_paused",
        "offset": 0,
        "slot": "51",
        "type": "t_bool"
      },
      {
        "astId": 788,
        "contract": "contracts/EthereumLightClient.sol:EthereumLightClient",
        "label": "__gap",
        "offset": 0,
        "slot": "52",
        "type": "t_array(t_uint256)49_storage"
      },
      {
        "astId": 2835,
        "contract": "contracts/EthereumLightClient.sol:EthereumLightClient",
        "label": "firstBlock",
        "offset": 0,
        "slot": "101",
        "type": "t_uint256"
      },
      {
        "astId": 2837,
        "contract": "contracts/EthereumLightClient.sol:EthereumLightClient",
        "label": "canonicalHead",
        "offset": 0,
        "slot": "102",
        "type": "t_uint256"
      },
      {
        "astId": 2841,
        "contract": "contracts/EthereumLightClient.sol:EthereumLightClient",
        "label": "canonicalBlocks",
        "offset": 0,
        "slot": "103",
        "type": "t_mapping(t_uint256,t_bool)"
      },
      {
        "astId": 2846,
        "contract": "contracts/EthereumLightClient.sol:EthereumLightClient",
        "label": "blocks",
        "offset": 0,
        "slot": "104",
        "type": "t_mapping(t_uint256,t_struct(StoredBlockHeader)2826_storage)"
      },
      {
        "astId": 2850,
        "contract": "contracts/EthereumLightClient.sol:EthereumLightClient",
        "label": "blockExisting",
        "offset": 0,
        "slot": "105",
        "type": "t_mapping(t_uint256,t_bool)"
      },
      {
        "astId": 2855,
        "contract": "contracts/EthereumLightClient.sol:EthereumLightClient",
        "label": "blocksByHeight",
        "offset": 0,
        "slot": "106",
        "type": "t_mapping(t_uint256,t_array(t_uint256)dyn_storage)"
      },
      {
        "astId": 2859,
        "contract": "contracts/EthereumLightClient.sol:EthereumLightClient",
        "label": "blocksByHeightExisting",
        "offset": 0,
        "slot": "107",
        "type": "t_mapping(t_uint256,t_bool)"
      },
      {
        "astId": 2861,
        "contract": "contracts/EthereumLightClient.sol:EthereumLightClient",
        "label": "blockHeightMax",
        "offset": 0,
        "slot": "108",
        "type": "t_uint256"
      },
      {
        "astId": 2865,
        "contract": "contracts/EthereumLightClient.sol:EthereumLightClient",
        "label": "longestBranchHead",
        "offset": 0,
        "slot": "109",
        "type": "t_mapping(t_uint256,t_uint256)"
      },
      {
        "astId": 2870,
        "contract": "contracts/EthereumLightClient.sol:EthereumLightClient",
        "label": "finalityConfirms",
        "offset": 0,
        "slot": "110",
        "type": "t_uint256"
      },
      {
        "astId": 2872,
        "contract": "contracts/EthereumLightClient.sol:EthereumLightClient",
        "label": "oldestBlockStored",
        "offset": 0,
        "slot": "111",
        "type": "t_uint256"
      }
    ],
    "types": {
      "t_array(t_uint256)49_storage": {
        "base": "t_uint256",
        "encoding": "inplace",
        "label": "uint256[49]",
        "numberOfBytes": "1568"
      },
      "t_array(t_uint256)50_storage": {
        "base": "t_uint256",
        "encoding": "inplace",
        "label": "uint256[50]",
        "numberOfBytes": "1600"
      },
      "t_array(t_uint256)dyn_storage": {
        "base": "t_uint256",
        "encoding": "dynamic_array",
        "label": "uint256[]",
        "numberOfBytes": "32"
      },
      "t_bool": {
        "encoding": "inplace",
        "label": "bool",
        "numberOfBytes": "1"
      },
      "t_mapping(t_uint256,t_array(t_uint256)dyn_storage)": {
        "encoding": "mapping",
        "key": "t_uint256",
        "label": "mapping(uint256 => uint256[])",
        "numberOfBytes": "32",
        "value": "t_array(t_uint256)dyn_storage"
      },
      "t_mapping(t_uint256,t_bool)": {
        "encoding": "mapping",
        "key": "t_uint256",
        "label": "mapping(uint256 => bool)",
        "numberOfBytes": "32",
        "value": "t_bool"
      },
      "t_mapping(t_uint256,t_struct(StoredBlockHeader)2826_storage)": {
        "encoding": "mapping",
        "key": "t_uint256",
        "label": "mapping(uint256 => struct EthereumLightClient.StoredBlockHeader)",
        "numberOfBytes": "32",
        "value": "t_struct(StoredBlockHeader)2826_storage"
      },
      "t_mapping(t_uint256,t_uint256)": {
        "encoding": "mapping",
        "key": "t_uint256",
        "label": "mapping(uint256 => uint256)",
        "numberOfBytes": "32",
        "value": "t_uint256"
      },
      "t_struct(StoredBlockHeader)2826_storage": {
        "encoding": "inplace",
        "label": "struct EthereumLightClient.StoredBlockHeader",
        "members": [
          {
            "astId": 2809,
            "contract": "contracts/EthereumLightClient.sol:EthereumLightClient",
            "label": "parentHash",
            "offset": 0,
            "slot": "0",
            "type": "t_uint256"
          },
          {
            "astId": 2811,
            "contract": "contracts/EthereumLightClient.sol:EthereumLightClient",
            "label": "stateRoot",
            "offset": 0,
            "slot": "1",
            "type": "t_uint256"
          },
          {
            "astId": 2813,
            "contract": "contracts/EthereumLightClient.sol:EthereumLightClient",
            "label": "transactionsRoot",
            "offset": 0,
            "slot": "2",
            "type": "t_uint256"
          },
          {
            "astId": 2815,
            "contract": "contracts/EthereumLightClient.sol:EthereumLightClient",
            "label": "receiptsRoot",
            "offset": 0,
            "slot": "3",
            "type": "t_uint256"
          },
          {
            "astId": 2817,
            "contract": "contracts/EthereumLightClient.sol:EthereumLightClient",
            "label": "number",
            "offset": 0,
            "slot": "4",
            "type": "t_uint256"
          },
          {
            "astId": 2819,
            "contract": "contracts/EthereumLightClient.sol:EthereumLightClient",
            "label": "difficulty",
            "offset": 0,
            "slot": "5",
            "type": "t_uint256"
          },
          {
            "astId": 2821,
            "contract": "contracts/EthereumLightClient.sol:EthereumLightClient",
            "label": "totalDifficulty",
            "offset": 0,
            "slot": "6",
            "type": "t_uint256"
          },
          {
            "astId": 2823,
            "contract": "contracts/EthereumLightClient.sol:EthereumLightClient",
            "label": "time",
            "offset": 0,
            "slot": "7",
            "type": "t_uint256"
          },
          {
            "astId": 2825,
            "contract": "contracts/EthereumLightClient.sol:EthereumLightClient",
            "label": "hash",
            "offset": 0,
            "slot": "8",
            "type": "t_uint256"
          }
        ],
        "numberOfBytes": "288"
      },
      "t_uint256": {
        "encoding": "inplace",
        "label": "uint256",
        "numberOfBytes": "32"
      },
      "t_uint8": {
        "encoding": "inplace",
        "label": "uint8",
        "numberOfBytes": "1"
      }
    }
  }
}