{
  "address": "0x65A4191e03E681a35F0B524fbf3ac9323A17F545",
  "abi": [
    {
      "anonymous": false,
      "inputs": [
        {
          "indexed": true,
          "internalType": "address",
          "name": "token",
          "type": "address"
        },
        {
          "indexed": true,
          "internalType": "address",
          "name": "sender",
          "type": "address"
        },
        {
          "indexed": false,
          "internalType": "uint256",
          "name": "amount",
          "type": "uint256"
        },
        {
          "indexed": false,
          "internalType": "address",
          "name": "recipient",
          "type": "address"
        }
      ],
      "name": "Burn",
      "type": "event"
    },
    {
      "anonymous": false,
      "inputs": [
        {
          "indexed": false,
          "internalType": "uint8",
          "name": "version",
          "type": "uint8"
        }
      ],
      "name": "Initialized",
      "type": "event"
    },
    {
      "anonymous": false,
      "inputs": [
        {
          "indexed": true,
          "internalType": "address",
          "name": "token",
          "type": "address"
        },
        {
          "indexed": true,
          "internalType": "address",
          "name": "sender",
          "type": "address"
        },
        {
          "indexed": false,
          "internalType": "uint256",
          "name": "amount",
          "type": "uint256"
        },
        {
          "indexed": false,
          "internalType": "address",
          "name": "recipient",
          "type": "address"
        }
      ],
      "name": "Locked",
      "type": "event"
    },
    {
      "anonymous": false,
      "inputs": [
        {
          "indexed": true,
          "internalType": "address",
          "name": "previousOwner",
          "type": "address"
        },
        {
          "indexed": true,
          "internalType": "address",
          "name": "newOwner",
          "type": "address"
        }
      ],
      "name": "OwnershipTransferred",
      "type": "event"
    },
    {
      "anonymous": false,
      "inputs": [
        {
          "indexed": true,
          "internalType": "address",
          "name": "tokenReq",
          "type": "address"
        },
        {
          "indexed": true,
          "internalType": "address",
          "name": "tokenAck",
          "type": "address"
        }
      ],
      "name": "TokenMapAck",
      "type": "event"
    },
    {
      "anonymous": false,
      "inputs": [
        {
          "indexed": true,
          "internalType": "address",
          "name": "tokenReq",
          "type": "address"
        },
        {
          "indexed": true,
          "internalType": "uint8",
          "name": "decimals",
          "type": "uint8"
        },
        {
          "indexed": false,
          "internalType": "string",
          "name": "name",
          "type": "string"
        },
        {
          "indexed": false,
          "internalType": "string",
          "name": "symbol",
          "type": "string"
        }
      ],
      "name": "TokenMapReq",
      "type": "event"
    },
    {
      "inputs": [
        {
          "internalType": "address",
          "name": "",
          "type": "address"
        }
      ],
      "name": "RxMapped",
      "outputs": [
        {
          "internalType": "contract BridgedToken",
          "name": "",
          "type": "address"
        }
      ],
      "stateMutability": "view",
      "type": "function"
    },
    {
      "inputs": [
        {
          "internalType": "address",
          "name": "",
          "type": "address"
        }
      ],
      "name": "RxMappedInv",
      "outputs": [
        {
          "internalType": "address",
          "name": "",
          "type": "address"
        }
      ],
      "stateMutability": "view",
      "type": "function"
    },
    {
      "inputs": [
        {
          "internalType": "uint256",
          "name": "",
          "type": "uint256"
        }
      ],
      "name": "RxTokens",
      "outputs": [
        {
          "internalType": "contract BridgedToken",
          "name": "",
          "type": "address"
        }
      ],
      "stateMutability": "view",
      "type": "function"
    },
    {
      "inputs": [
        {
          "internalType": "address",
          "name": "",
          "type": "address"
        }
      ],
      "name": "TxMapped",
      "outputs": [
        {
          "internalType": "address",
          "name": "",
          "type": "address"
        }
      ],
      "stateMutability": "view",
      "type": "function"
    },
    {
      "inputs": [
        {
          "internalType": "address",
          "name": "",
          "type": "address"
        }
      ],
      "name": "TxMappedInv",
      "outputs": [
        {
          "internalType": "contract IERC20Upgradeable",
          "name": "",
          "type": "address"
        }
      ],
      "stateMutability": "view",
      "type": "function"
    },
    {
      "inputs": [
        {
          "internalType": "uint256",
          "name": "",
          "type": "uint256"
        }
      ],
      "name": "TxTokens",
      "outputs": [
        {
          "internalType": "contract IERC20Upgradeable",
          "name": "",
          "type": "address"
        }
      ],
      "stateMutability": "view",
      "type": "function"
    },
    {
      "inputs": [
        {
          "internalType": "address",
          "name": "otherSide",
          "type": "address"
        }
      ],
      "name": "bind",
      "outputs": [],
      "stateMutability": "nonpayable",
      "type": "function"
    },
    {
      "inputs": [
        {
          "internalType": "contract EthereumLightClient",
          "name": "newClient",
          "type": "address"
        }
      ],
      "name": "changeLightClient",
      "outputs": [],
      "stateMutability": "nonpayable",
      "type": "function"
    },
    {
      "inputs": [],
      "name": "initialize",
      "outputs": [],
      "stateMutability": "nonpayable",
      "type": "function"
    },
    {
      "inputs": [
        {
          "internalType": "contract ERC20Upgradeable",
          "name": "thisSideToken",
          "type": "address"
        }
      ],
      "name": "issueTokenMapReq",
      "outputs": [],
      "stateMutability": "nonpayable",
      "type": "function"
    },
    {
      "inputs": [],
      "name": "lightclient",
      "outputs": [
        {
          "internalType": "contract EthereumLightClient",
          "name": "",
          "type": "address"
        }
      ],
      "stateMutability": "view",
      "type": "function"
    },
    {
      "inputs": [
        {
          "internalType": "contract IERC20Upgradeable",
          "name": "token",
          "type": "address"
        },
        {
          "internalType": "address",
          "name": "recipient",
          "type": "address"
        },
        {
          "internalType": "uint256",
          "name": "amount",
          "type": "uint256"
        }
      ],
      "name": "lock",
      "outputs": [],
      "stateMutability": "nonpayable",
      "type": "function"
    },
    {
      "inputs": [],
      "name": "otherSideBridge",
      "outputs": [
        {
          "internalType": "address",
          "name": "",
          "type": "address"
        }
      ],
      "stateMutability": "view",
      "type": "function"
    },
    {
      "inputs": [],
      "name": "owner",
      "outputs": [
        {
          "internalType": "address",
          "name": "",
          "type": "address"
        }
      ],
      "stateMutability": "view",
      "type": "function"
    },
    {
      "inputs": [],
      "name": "renounceOwnership",
      "outputs": [],
      "stateMutability": "nonpayable",
      "type": "function"
    },
    {
      "inputs": [
        {
          "internalType": "bytes32",
          "name": "",
          "type": "bytes32"
        }
      ],
      "name": "spentReceipt",
      "outputs": [
        {
          "internalType": "bool",
          "name": "",
          "type": "bool"
        }
      ],
      "stateMutability": "view",
      "type": "function"
    },
    {
      "inputs": [],
      "name": "totalBridgedTokens",
      "outputs": [
        {
          "internalType": "uint256",
          "name": "",
          "type": "uint256"
        },
        {
          "internalType": "uint256",
          "name": "",
          "type": "uint256"
        }
      ],
      "stateMutability": "view",
      "type": "function"
    },
    {
      "inputs": [
        {
          "internalType": "address",
          "name": "newOwner",
          "type": "address"
        }
      ],
      "name": "transferOwnership",
      "outputs": [],
      "stateMutability": "nonpayable",
      "type": "function"
    },
    {
      "inputs": [
        {
          "internalType": "contract BridgedToken",
          "name": "token",
          "type": "address"
        },
        {
          "internalType": "address",
          "name": "recipient",
          "type": "address"
        },
        {
          "internalType": "uint256",
          "name": "amount",
          "type": "uint256"
        }
      ],
      "name": "unlock",
      "outputs": [],
      "stateMutability": "nonpayable",
      "type": "function"
    },
    {
      "inputs": [
        {
          "internalType": "uint256",
          "name": "blockNo",
          "type": "uint256"
        },
        {
          "internalType": "bytes32",
          "name": "rootHash",
          "type": "bytes32"
        },
        {
          "internalType": "bytes",
          "name": "mptkey",
          "type": "bytes"
        },
        {
          "internalType": "bytes",
          "name": "proof",
          "type": "bytes"
        }
      ],
      "name": "validateAndExecuteProof",
      "outputs": [],
      "stateMutability": "nonpayable",
      "type": "function"
    }
  ],
  "transactionHash": "0x26d8ab6c4fbacdd677fe7513c741caed5a8aade205ac5865300fe77411ab4ca7",
  "args": [],
  "numDeployments": 1,
  "solcInputHash": "fc8fd11819344e226bcba417eabab7ef",
  "bytecode": "0x608060405234801561001057600080fd5b50613fa1806100206000396000f3fe608060405234801561001057600080fd5b506004361061012c5760003560e01c80638487b9cf116100ad578063cd06c3a111610071578063cd06c3a11461028b578063d650d3f7146102a6578063e05bdaf7146102cf578063e71575e8146102f8578063f2fde38b1461032157600080fd5b80638487b9cf146101f85780638ab3124a146102215780638da5cb5b14610254578063ae24fbb414610265578063bf21980b1461027857600080fd5b806359508f8f116100f457806359508f8f146101af578063715018a6146101c25780637750c9f0146101ca5780638129fc1c146101dd57806381bac14f146101e557600080fd5b80631b7f3e2314610131578063345df1cc1461016157806335c6814d146101765780634ae83c8e146101895780634d2be8e51461019c575b600080fd5b606b54610144906001600160a01b031681565b6040516001600160a01b0390911681526020015b60405180910390f35b61017461016f366004612717565b610334565b005b61014461018436600461279a565b6105ed565b6101746101973660046127c8565b610617565b600654610144906001600160a01b031681565b6101746101bd3660046127e5565b610827565b610174610988565b6101746101d83660046127e5565b6109be565b610174610bde565b6101746101f33660046127c8565b610c59565b6101446102063660046127c8565b6005602052600090815260409020546001600160a01b031681565b61024461022f36600461279a565b606c6020526000908152604090205460ff1681565b6040519015158152602001610158565b6039546001600160a01b0316610144565b61014461027336600461279a565b610ca5565b6101746102863660046127c8565b610cb5565b60005460015460408051928352602083019190915201610158565b6101446102b43660046127c8565b6003602052600090815260409020546001600160a01b031681565b6101446102dd3660046127c8565b6004602052600090815260409020546001600160a01b031681565b6101446103063660046127c8565b6002602052600090815260409020546001600160a01b031681565b61017461032f3660046127c8565b610d01565b606b54604051633c6c6b7360e01b815260048101889052600060248201819052916001600160a01b031690633c6c6b739060440160206040518083038186803b15801561038057600080fd5b505afa158015610394573d6000803e3d6000fd5b505050506040513d601f19601f820116820180604052508101906103b89190612826565b606b546040516329e141af60e01b815260048101839052602481018990529192506001600160a01b0316906329e141af9060440160206040518083038186803b15801561040457600080fd5b505afa158015610418573d6000803e3d6000fd5b505050506040513d601f19601f8201168201806040525081019061043c919061283f565b6104825760405162461bcd60e51b81526020600482015260126024820152710eee4dedcce40e4cac6cad2e0e840d0c2e6d60731b60448201526064015b60405180910390fd5b60008187878760405160200161049b9493929190612861565b60408051601f1981840301815291815281516020928301206000818152606c90935291205490915060ff16156105035760405162461bcd60e51b815260206004820152600d60248201526c646f75626c65207370656e742160981b6044820152606401610479565b60006105798888888080601f01602080910402602001604051908101604052809392919081815260200183838082843760009201919091525050604080516020601f8c018190048102820181019092528a815292508a9150899081908401838280828437600092019190915250610d9992505050565b6000838152606c60205260408120805460ff1916600117905590915061059e82611212565b9050600081116105e15760405162461bcd60e51b815260206004820152600e60248201526d1b9bc81d985b1a5908195d995b9d60921b6044820152606401610479565b50505050505050505050565b600181815481106105fd57600080fd5b6000918252602090912001546001600160a01b0316905081565b6001600160a01b03818116600090815260026020526040902054161561067f5760405162461bcd60e51b815260206004820152601760248201527f746f6b656e20697320616c7265616479206d61707065640000000000000000006044820152606401610479565b6000819050806001600160a01b031663313ce5676040518163ffffffff1660e01b815260040160206040518083038186803b1580156106bd57600080fd5b505afa1580156106d1573d6000803e3d6000fd5b505050506040513d601f19601f820116820180604052508101906106f59190612882565b60ff16826001600160a01b03167fc13b93ab57586894396c38a46a06c88056fdbb23c7c595f8d08274f9a8593a42836001600160a01b03166306fdde036040518163ffffffff1660e01b815260040160006040518083038186803b15801561075c57600080fd5b505afa158015610770573d6000803e3d6000fd5b505050506040513d6000823e601f3d908101601f19168201604052610798919081019061296f565b846001600160a01b03166395d89b416040518163ffffffff1660e01b815260040160006040518083038186803b1580156107d157600080fd5b505afa1580156107e5573d6000803e3d6000fd5b505050506040513d6000823e601f3d908101601f1916820160405261080d919081019061296f565b60405161081b9291906129d0565b60405180910390a35050565b6001600160a01b03821661087d5760405162461bcd60e51b815260206004820152601b60248201527f726563697069656e742069732061207a65726f206164647265737300000000006044820152606401610479565b6001600160a01b03838116600090815260056020526040902054166108dc5760405162461bcd60e51b8152602060048201526015602482015274189c9a5919d948191bd95cc81b9bdd08195e1a5cdd605a1b6044820152606401610479565b60405163079cc67960e41b8152336004820152602481018290526001600160a01b038416906379cc679090604401600060405180830381600087803b15801561092457600080fd5b505af1158015610938573d6000803e3d6000fd5b5050604080518481526001600160a01b038681166020830152339450871692507f3dd1df88dc92e2788892542d81f999d720a44b4c127065d45c128f4f59fdc373910160405180910390a3505050565b6039546001600160a01b031633146109b25760405162461bcd60e51b8152600401610479906129fe565b6109bc6000611578565b565b6001600160a01b038216610a145760405162461bcd60e51b815260206004820152601b60248201527f726563697069656e742069732061207a65726f206164647265737300000000006044820152606401610479565b6001600160a01b0383811660009081526002602052604090205416610a735760405162461bcd60e51b8152602060048201526015602482015274189c9a5919d948191bd95cc81b9bdd08195e1a5cdd605a1b6044820152606401610479565b6040516370a0823160e01b81523060048201526000906001600160a01b038516906370a082319060240160206040518083038186803b158015610ab557600080fd5b505afa158015610ac9573d6000803e3d6000fd5b505050506040513d601f19601f82011682018060405250810190610aed9190612826565b9050610b046001600160a01b0385163330856115ca565b6040516370a0823160e01b81523060048201526000906001600160a01b038616906370a082319060240160206040518083038186803b158015610b4657600080fd5b505afa158015610b5a573d6000803e3d6000fd5b505050506040513d601f19601f82011682018060405250810190610b7e9190612826565b90506000610b8c828461163b565b604080518281526001600160a01b03888116602083015292935033928916917f4c6ab40ee4cfa212a441d32ee2897945b4a52461284f9369e23fdf8faa6cdd69910160405180910390a3505050505050565b6000610bea6001611650565b90508015610c06576006805460ff60a81b1916600160a81b1790555b610c0e6116ed565b8015610c56576006805460ff60a81b19169055604051600181527f7f26b83ff96e1f2b6a682f133852f6798a09c465da95921460cefb38474024989060200160405180910390a15b50565b6039546001600160a01b03163314610c835760405162461bcd60e51b8152600401610479906129fe565b600680546001600160a01b0319166001600160a01b0392909216919091179055565b600081815481106105fd57600080fd5b6039546001600160a01b03163314610cdf5760405162461bcd60e51b8152600401610479906129fe565b606b80546001600160a01b0319166001600160a01b0392909216919091179055565b6039546001600160a01b03163314610d2b5760405162461bcd60e51b8152600401610479906129fe565b6001600160a01b038116610d905760405162461bcd60e51b815260206004820152602660248201527f4f776e61626c653a206e6577206f776e657220697320746865207a65726f206160448201526564647265737360d01b6064820152608401610479565b610c5681611578565b60606000610dd6610dd18460408051808201825260008082526020918201528151808301909252825182529182019181019190915290565b61171e565b9050610de58460006001611834565b9350600080606080610e0a604051806040016040528060008152602001600081525090565b8551610e59577f56e81f171bcc55a6ff8345e692c0f86e5b48e01b996cadc001622fb5e363b4218a14610e3c57600080fd5b5050604080516000815260208101909152945061120b9350505050565b60005b865181101561120357610e87878281518110610e7a57610e7a612a33565b6020026020010151611a2f565b935080158015610e9d5750835160208501208b14155b15610ea757600080fd5b8015801590610ebe5750610eba84611aaf565b8514155b15610ec857600080fd5b610eea878281518110610edd57610edd612a33565b602002602001015161171e565b925082516002141561109b5760006060610f25610f2086600081518110610f1357610f13612a33565b6020026020010151611b12565b611bb8565b90925090506000610f37898e84611c66565b9050610f43818a612a5f565b98508151811015610fa75760018a51610f5c9190612a77565b841015610f6857600080fd5b60005b6040519080825280601f01601f191660200182016040528015610f95576020820181803683370190505b509a505050505050505050505061120b565b821561100e5760018a51610fbb9190612a77565b841015610fc757600080fd5b8c51891015610fd7576000610f6b565b85600181518110610fea57610fea612a33565b60200260200101519450610ffd85611b12565b9a505050505050505050505061120b565b60018a5161101c9190612a77565b84141561102857600080fd5b61104b8660018151811061103e5761103e612a33565b6020026020010151611cf9565b6110735761106586600181518110610f1357610f13612a33565b805190602001209750611093565b61108986600181518110610e7a57610e7a612a33565b8051906020012097505b5050506111f1565b8251601114156111f157895186146111b45760008a87815181106110c1576110c1612a33565b016020015160f81c90506110d6600188612a5f565b965060108160ff16106110e857600080fd5b61110d848260ff168151811061110057611100612a33565b6020026020010151611d32565b1561114a57600188516111209190612a77565b821461112b57600080fd5b5050604080516000815260208101909152965061120b95505050505050565b611162848260ff168151811061103e5761103e612a33565b61118c5761117e848260ff1681518110610f1357610f13612a33565b8051906020012095506111ae565b6111a4848260ff1681518110610e7a57610e7a612a33565b8051906020012095505b506111f1565b600187516111c29190612a77565b81146111cd57600080fd5b6111e383601081518110610f1357610f13612a33565b97505050505050505061120b565b806111fb81612a8e565b915050610e5c565b505050505050505b9392505050565b6000806112468360408051808201825260008082526020918201528151808301909252825182529182019181019190915290565b905060006112538261171e565b9050600061127a8260008151811061126d5761126d612a33565b6020026020010151611d55565b9050806001146112bd5760405162461bcd60e51b815260206004820152600e60248201526d1c995d995c9d081c9958d95a5c1d60921b6044820152606401610479565b60006112d583600381518110610edd57610edd612a33565b905060005b815181101561156e5760006112fa838381518110610edd57610edd612a33565b905060006113218260008151811061131457611314612a33565b6020026020010151611dce565b6006549091506001600160a01b0380831691161461134057505061155c565b600061135883600181518110610edd57610edd612a33565b90506000815167ffffffffffffffff811115611376576113766128a5565b60405190808252806020026020018201604052801561139f578160200160208202803683370190505b50905060005b82518110156113f5576113c383828151811061126d5761126d612a33565b60001b8282815181106113d8576113d8612a33565b6020908102919091010152806113ed81612a8e565b9150506113a5565b50600061140e85600281518110610f1357610f13612a33565b90507f4c6ab40ee4cfa212a441d32ee2897945b4a52461284f9369e23fdf8faa6cdd698260008151811061144457611444612a33565b602002602001015114156114735761145c8282611de8565b8a61146681612a8e565b9b5050505050505061155c565b7f3dd1df88dc92e2788892542d81f999d720a44b4c127065d45c128f4f59fdc373826000815181106114a7576114a7612a33565b602002602001015114156114bf5761145c8282611eaa565b7fc13b93ab57586894396c38a46a06c88056fdbb23c7c595f8d08274f9a8593a42826000815181106114f3576114f3612a33565b6020026020010151141561150b5761145c8282611f17565b7f78591f651c27eef63481b7fd779e44c2426cbe82c7050fe9bc90b6707efbc3d38260008151811061153f5761153f612a33565b602002602001015114156115565761145c82612129565b50505050505b8061156681612a8e565b9150506112da565b5050505050919050565b603980546001600160a01b038381166001600160a01b0319831681179093556040519116919082907f8be0079c531659141344cd1fd0a4f28419497f9722a3daafe3b4186f6b6457e090600090a35050565b6040516001600160a01b03808516602483015283166044820152606481018290526116359085906323b872dd60e01b906084015b60408051601f198184030181529190526020810180516001600160e01b03166001600160e01b031990931692909217909152612257565b50505050565b60006116478284612a77565b90505b92915050565b600654600090600160a81b900460ff161561169b578160ff1660011480156116775750303b155b6116935760405162461bcd60e51b815260040161047990612aa9565b506000919050565b60065460ff808416600160a01b90920416106116c95760405162461bcd60e51b815260040161047990612aa9565b506006805460ff909216600160a01b0260ff60a01b19909216919091179055600190565b600654600160a81b900460ff166117165760405162461bcd60e51b815260040161047990612af7565b6109bc61232e565b606061172982611cf9565b61173257600080fd5b600061173d83612360565b905060008167ffffffffffffffff81111561175a5761175a6128a5565b60405190808252806020026020018201604052801561179f57816020015b60408051808201909152600080825260208201528152602001906001900390816117785790505b50905060006117b185602001516123e3565b85602001516117c09190612a5f565b90506000805b84811015611829576117d78361245e565b915060405180604001604052808381526020018481525084828151811061180057611800612a33565b60209081029190910101526118158284612a5f565b92508061182181612a8e565b9150506117c6565b509195945050505050565b6060600084511161184457600080fd5b6000845160026118549190612b42565b90508084111561186357600080fd5b61186d8482612a77565b90506118798382612a5f565b67ffffffffffffffff811115611891576118916128a5565b6040519080825280601f01601f1916602001820160405280156118bb576020820181803683370190505b509150826001141561190357601060f81b82600184516118db9190612a77565b815181106118eb576118eb612a33565b60200101906001600160f81b031916908160001a9053505b6000845b6119118387612a5f565b811015611a0c57611923600282612b77565b61198c57600487611935600284612b8b565b8151811061194557611945612a33565b602001015160f81c60f81b60f81c60ff16901c600f1660f81b84838151811061197057611970612a33565b60200101906001600160f81b031916908160001a9053506119ed565b60008761199a600284612b8b565b815181106119aa576119aa612a33565b602001015160f81c60f81b60f81c60ff16901c600f1660f81b8483815181106119d5576119d5612a33565b60200101906001600160f81b031916908160001a9053505b6119f8600183612a5f565b9150611a05600182612a5f565b9050611907565b508251611a198583612a5f565b14611a2657611a26612b9f565b50509392505050565b60606000826000015167ffffffffffffffff811115611a5057611a506128a5565b6040519080825280601f01601f191660200182016040528015611a7a576020820181803683370190505b509050805160001415611a8d5792915050565b6000816020019050611aa88460200151828660000151612502565b5092915050565b6000602082511015611ac75750805160209091012090565b81604051602001611ad89190612bb5565b60408051601f1981840301815282825280516020918201209083015201604051602081830303815290604052805190602001209050919050565b8051606090611b2057600080fd5b6000611b2f83602001516123e3565b90506000818460000151611b439190612a77565b905060008167ffffffffffffffff811115611b6057611b606128a5565b6040519080825280601f01601f191660200182016040528015611b8a576020820181803683370190505b5090506000816020019050611baf848760200151611ba89190612a5f565b8285612502565b50949350505050565b600060606000835111611bca57600080fd5b6000600484600081518110611be157611be1612a33565b60209101015160f81c901c600f169050600081611c045750600092506002611c3e565b8160011415611c195750600092506001611c3e565b8160021415611c2e5750600192506002611c3e565b816003141561012c575060019250825b83611c5b868387611c50576000611c53565b60015b60ff16611834565b935093505050915091565b6000805b8351611c768683612a5f565b108015611c835750825181105b15611cf157828181518110611c9a57611c9a612a33565b01602001516001600160f81b03191684611cb48784612a5f565b81518110611cc457611cc4612a33565b01602001516001600160f81b03191614611cdf57905061120b565b80611ce981612a8e565b915050611c6a565b949350505050565b8051600090611d0a57506000919050565b6020820151805160001a9060c0821015611d28575060009392505050565b5060019392505050565b8051600090600114611d4657506000919050565b50602001515160001a60801490565b805160009015801590611d6a57508151602110155b611d7357600080fd5b6000611d8283602001516123e3565b90506000818460000151611d969190612a77565b9050600080838660200151611dab9190612a5f565b9050805191506020831015611baf57506020919091036101000a90049392505050565b8051600090601514611ddf57600080fd5b61164a82611d55565b600082600181518110611dfd57611dfd612a33565b602002602001015160001c905060008083806020019051810190611e219190612bd1565b6001600160a01b038086166000908152600460205260409020549294509092501680611e4c57600080fd5b6040516340c10f1960e01b81526001600160a01b038381166004830152602482018590528216906340c10f1990604401600060405180830381600087803b158015611e9657600080fd5b505af11580156105e1573d6000803e3d6000fd5b600082600181518110611ebf57611ebf612a33565b602002602001015160001c905060008083806020019051810190611ee39190612bd1565b6001600160a01b0380861660009081526003602052604090205492945090925016611f0f81838561257d565b505050505050565b600082600181518110611f2c57611f2c612a33565b6020908102919091018101516001600160a01b03808216600090815260049093526040909220549092501615611f9b5760405162461bcd60e51b8152602060048201526014602482015273189c9a5919d948185b1c9958591e48195e1a5cdd60621b6044820152606401610479565b600083600281518110611fb057611fb0612a33565b602002602001015160001c905060008084806020019051810190611fd49190612c01565b60405191935091506001600160a01b038516906000908290611ff5906126c1565b8190604051809103906000f5905080158015612015573d6000803e3d6000fd5b50604051630b127b6360e11b81529091506001600160a01b03821690631624f6c69061204990879087908a90600401612c65565b600060405180830381600087803b15801561206357600080fd5b505af1158015612077573d6000803e3d6000fd5b5050506001600160a01b0380831660008181526005602090815260408083208054958d166001600160a01b03199687168117909155808452600490925280832080548616851790556001805480820182559084527fb10e2d527612073b26eecdfd717e6a320cf44b4afac2b0732d9fcbe2b7fa0cf6018054909516841790945592519193507f78591f651c27eef63481b7fd779e44c2426cbe82c7050fe9bc90b6707efbc3d391a35050505050505050565b60008160018151811061213e5761213e612a33565b602002602001015160001c905060008260028151811061216057612160612a33565b6020908102919091018101516001600160a01b038481166000908152600290935260409092205490925016156121d85760405162461bcd60e51b815260206004820152601e60248201527f6d697373696e67206d617070696e6720746f2061636b6e6f776c6564676500006044820152606401610479565b6001600160a01b0391821660008181526002602090815260408083208054969095166001600160a01b0319968716811790955593825260039052918220805484168217905581546001810183559180527f290decd9548b62a8d60345a988386fc84ba6bc95484008f6362f93160ef3e563909101805490921617905550565b60006122ac826040518060400160405280602081526020017f5361666545524332303a206c6f772d6c6576656c2063616c6c206661696c6564815250856001600160a01b03166125ad9092919063ffffffff16565b80519091501561232957808060200190518101906122ca919061283f565b6123295760405162461bcd60e51b815260206004820152602a60248201527f5361666545524332303a204552433230206f7065726174696f6e20646964206e6044820152691bdd081cdd58d8d9595960b21b6064820152608401610479565b505050565b600654600160a81b900460ff166123575760405162461bcd60e51b815260040161047990612af7565b6109bc33611578565b805160009061237157506000919050565b60008061238184602001516123e3565b84602001516123909190612a5f565b90506000846000015185602001516123a89190612a5f565b90505b808210156123da576123bc8261245e565b6123c69083612a5f565b9150826123d281612a8e565b9350506123ab565b50909392505050565b8051600090811a60808110156123fc5750600092915050565b60b8811080612417575060c08110801590612417575060f881105b156124255750600192915050565b60c08110156124525761243a600160b8612c9e565b6124479060ff1682612a77565b61120b906001612a5f565b61243a600160f8612c9e565b80516000908190811a60808110156124795760019150611aa8565b60b881101561249f5761248d608082612a77565b612498906001612a5f565b9150611aa8565b60c08110156124cc5760b78103600185019450806020036101000a85510460018201810193505050611aa8565b60f88110156124e05761248d60c082612a77565b60019390930151602084900360f7016101000a900490920160f5190192915050565b8061250c57505050565b602081106125445782518252612523602084612a5f565b9250612530602083612a5f565b915061253d602082612a77565b905061250c565b60006001612553836020612a77565b61255f90610100612da5565b6125699190612a77565b935183518516941916939093179091525050565b6040516001600160a01b03831660248201526044810182905261232990849063a9059cbb60e01b906064016115fe565b6060611cf18484600085856001600160a01b0385163b61260f5760405162461bcd60e51b815260206004820152601d60248201527f416464726573733a2063616c6c20746f206e6f6e2d636f6e74726163740000006044820152606401610479565b600080866001600160a01b0316858760405161262b9190612bb5565b60006040518083038185875af1925050503d8060008114612668576040519150601f19603f3d011682016040523d82523d6000602084013e61266d565b606091505b509150915061267d828286612688565b979650505050505050565b6060831561269757508161120b565b8251156126a75782518084602001fd5b8160405162461bcd60e51b81526004016104799190612db1565b6111a780612dc583390190565b60008083601f8401126126e057600080fd5b50813567ffffffffffffffff8111156126f857600080fd5b60208301915083602082850101111561271057600080fd5b9250929050565b6000806000806000806080878903121561273057600080fd5b8635955060208701359450604087013567ffffffffffffffff8082111561275657600080fd5b6127628a838b016126ce565b9096509450606089013591508082111561277b57600080fd5b5061278889828a016126ce565b979a9699509497509295939492505050565b6000602082840312156127ac57600080fd5b5035919050565b6001600160a01b0381168114610c5657600080fd5b6000602082840312156127da57600080fd5b813561120b816127b3565b6000806000606084860312156127fa57600080fd5b8335612805816127b3565b92506020840135612815816127b3565b929592945050506040919091013590565b60006020828403121561283857600080fd5b5051919050565b60006020828403121561285157600080fd5b8151801515811461120b57600080fd5b84815283602082015281836040830137600091016040019081529392505050565b60006020828403121561289457600080fd5b815160ff8116811461120b57600080fd5b634e487b7160e01b600052604160045260246000fd5b60005b838110156128d65781810151838201526020016128be565b838111156116355750506000910152565b600082601f8301126128f857600080fd5b815167ffffffffffffffff80821115612913576129136128a5565b604051601f8301601f19908116603f0116810190828211818310171561293b5761293b6128a5565b8160405283815286602085880101111561295457600080fd5b6129658460208301602089016128bb565b9695505050505050565b60006020828403121561298157600080fd5b815167ffffffffffffffff81111561299857600080fd5b611cf1848285016128e7565b600081518084526129bc8160208601602086016128bb565b601f01601f19169290920160200192915050565b6040815260006129e360408301856129a4565b82810360208401526129f581856129a4565b95945050505050565b6020808252818101527f4f776e61626c653a2063616c6c6572206973206e6f7420746865206f776e6572604082015260600190565b634e487b7160e01b600052603260045260246000fd5b634e487b7160e01b600052601160045260246000fd5b60008219821115612a7257612a72612a49565b500190565b600082821015612a8957612a89612a49565b500390565b6000600019821415612aa257612aa2612a49565b5060010190565b6020808252602e908201527f496e697469616c697a61626c653a20636f6e747261637420697320616c72656160408201526d191e481a5b9a5d1a585b1a5e995960921b606082015260800190565b6020808252602b908201527f496e697469616c697a61626c653a20636f6e7472616374206973206e6f74206960408201526a6e697469616c697a696e6760a81b606082015260800190565b6000816000190483118215151615612b5c57612b5c612a49565b500290565b634e487b7160e01b600052601260045260246000fd5b600082612b8657612b86612b61565b500690565b600082612b9a57612b9a612b61565b500490565b634e487b7160e01b600052600160045260246000fd5b60008251612bc78184602087016128bb565b9190910192915050565b60008060408385031215612be457600080fd5b825191506020830151612bf6816127b3565b809150509250929050565b60008060408385031215612c1457600080fd5b825167ffffffffffffffff80821115612c2c57600080fd5b612c38868387016128e7565b93506020850151915080821115612c4e57600080fd5b50612c5b858286016128e7565b9150509250929050565b606081526000612c7860608301866129a4565b8281036020840152612c8a81866129a4565b91505060ff83166040830152949350505050565b600060ff821660ff841680821015612cb857612cb8612a49565b90039392505050565b600181815b80851115612cfc578160001904821115612ce257612ce2612a49565b80851615612cef57918102915b93841c9390800290612cc6565b509250929050565b600082612d135750600161164a565b81612d205750600061164a565b8160018114612d365760028114612d4057612d5c565b600191505061164a565b60ff841115612d5157612d51612a49565b50506001821b61164a565b5060208310610133831016604e8410600b8410161715612d7f575081810a61164a565b612d898383612cc1565b8060001904821115612d9d57612d9d612a49565b029392505050565b60006116478383612d04565b60208152600061164760208301846129a456fe608060405234801561001057600080fd5b50611187806100206000396000f3fe608060405234801561001057600080fd5b50600436106101165760003560e01c806370a08231116100a257806395d89b411161007157806395d89b411461023d578063a457c2d714610245578063a9059cbb14610258578063dd62ed3e1461026b578063f2fde38b1461027e57600080fd5b806370a08231146101de578063715018a61461020757806379cc67901461020f5780638da5cb5b1461022257600080fd5b806323b872dd116100e957806323b872dd14610183578063313ce5671461019657806339509351146101a557806340c10f19146101b857806342966c68146101cb57600080fd5b806306fdde031461011b578063095ea7b3146101395780631624f6c61461015c57806318160ddd14610171575b600080fd5b610123610291565b6040516101309190610da2565b60405180910390f35b61014c610147366004610e0e565b610323565b6040519015158152602001610130565b61016f61016a366004610edb565b61033b565b005b6035545b604051908152602001610130565b61014c610191366004610f59565b6103bd565b60405160128152602001610130565b61014c6101b3366004610e0e565b6103e1565b61016f6101c6366004610e0e565b610403565b61016f6101d9366004610f95565b610444565b6101756101ec366004610fae565b6001600160a01b031660009081526033602052604090205490565b61016f610451565b61016f61021d366004610e0e565b610487565b6097546040516001600160a01b039091168152602001610130565b61012361049c565b61014c610253366004610e0e565b6104ab565b61014c610266366004610e0e565b610526565b610175610279366004610fd0565b610534565b61016f61028c366004610fae565b61055f565b6060603680546102a090611003565b80601f01602080910402602001604051908101604052809291908181526020018280546102cc90611003565b80156103195780601f106102ee57610100808354040283529160200191610319565b820191906000526020600020905b8154815290600101906020018083116102fc57829003601f168201915b5050505050905090565b6000336103318185856105f7565b5060019392505050565b6000610347600161071c565b9050801561035f576000805461ff0019166101001790555b61036984846107a9565b6103716107da565b80156103b7576000805461ff0019169055604051600181527f7f26b83ff96e1f2b6a682f133852f6798a09c465da95921460cefb38474024989060200160405180910390a15b50505050565b6000336103cb858285610801565b6103d6858585610875565b506001949350505050565b6000336103318185856103f48383610534565b6103fe9190611054565b6105f7565b6097546001600160a01b031633146104365760405162461bcd60e51b815260040161042d9061106c565b60405180910390fd5b6104408282610a43565b5050565b61044e3382610b22565b50565b6097546001600160a01b0316331461047b5760405162461bcd60e51b815260040161042d9061106c565b6104856000610c6d565b565b610492823383610801565b6104408282610b22565b6060603780546102a090611003565b600033816104b98286610534565b9050838110156105195760405162461bcd60e51b815260206004820152602560248201527f45524332303a2064656372656173656420616c6c6f77616e63652062656c6f77604482015264207a65726f60d81b606482015260840161042d565b6103d682868684036105f7565b600033610331818585610875565b6001600160a01b03918216600090815260346020908152604080832093909416825291909152205490565b6097546001600160a01b031633146105895760405162461bcd60e51b815260040161042d9061106c565b6001600160a01b0381166105ee5760405162461bcd60e51b815260206004820152602660248201527f4f776e61626c653a206e6577206f776e657220697320746865207a65726f206160448201526564647265737360d01b606482015260840161042d565b61044e81610c6d565b6001600160a01b0383166106595760405162461bcd60e51b8152602060048201526024808201527f45524332303a20617070726f76652066726f6d20746865207a65726f206164646044820152637265737360e01b606482015260840161042d565b6001600160a01b0382166106ba5760405162461bcd60e51b815260206004820152602260248201527f45524332303a20617070726f766520746f20746865207a65726f206164647265604482015261737360f01b606482015260840161042d565b6001600160a01b0383811660008181526034602090815260408083209487168084529482529182902085905590518481527f8c5be1e5ebec7d5bd14f71427d1e84f3dd0314c0f7b2291e5b200ac8c7c3b92591015b60405180910390a3505050565b60008054610100900460ff1615610763578160ff16600114801561073f5750303b155b61075b5760405162461bcd60e51b815260040161042d906110a1565b506000919050565b60005460ff80841691161061078a5760405162461bcd60e51b815260040161042d906110a1565b506000805460ff191660ff92909216919091179055600190565b919050565b600054610100900460ff166107d05760405162461bcd60e51b815260040161042d906110ef565b6104408282610cbf565b600054610100900460ff166104855760405162461bcd60e51b815260040161042d906110ef565b600061080d8484610534565b905060001981146103b757818110156108685760405162461bcd60e51b815260206004820152601d60248201527f45524332303a20696e73756666696369656e7420616c6c6f77616e6365000000604482015260640161042d565b6103b784848484036105f7565b6001600160a01b0383166108d95760405162461bcd60e51b815260206004820152602560248201527f45524332303a207472616e736665722066726f6d20746865207a65726f206164604482015264647265737360d81b606482015260840161042d565b6001600160a01b03821661093b5760405162461bcd60e51b815260206004820152602360248201527f45524332303a207472616e7366657220746f20746865207a65726f206164647260448201526265737360e81b606482015260840161042d565b6001600160a01b038316600090815260336020526040902054818110156109b35760405162461bcd60e51b815260206004820152602660248201527f45524332303a207472616e7366657220616d6f756e7420657863656564732062604482015265616c616e636560d01b606482015260840161042d565b6001600160a01b038085166000908152603360205260408082208585039055918516815290812080548492906109ea908490611054565b92505081905550826001600160a01b0316846001600160a01b03167fddf252ad1be2c89b69c2b068fc378daa952ba7f163c4a11628f55a4df523b3ef84604051610a3691815260200190565b60405180910390a36103b7565b6001600160a01b038216610a995760405162461bcd60e51b815260206004820152601f60248201527f45524332303a206d696e7420746f20746865207a65726f206164647265737300604482015260640161042d565b8060356000828254610aab9190611054565b90915550506001600160a01b03821660009081526033602052604081208054839290610ad8908490611054565b90915550506040518181526001600160a01b038316906000907fddf252ad1be2c89b69c2b068fc378daa952ba7f163c4a11628f55a4df523b3ef9060200160405180910390a35050565b6001600160a01b038216610b825760405162461bcd60e51b815260206004820152602160248201527f45524332303a206275726e2066726f6d20746865207a65726f206164647265736044820152607360f81b606482015260840161042d565b6001600160a01b03821660009081526033602052604090205481811015610bf65760405162461bcd60e51b815260206004820152602260248201527f45524332303a206275726e20616d6f756e7420657863656564732062616c616e604482015261636560f01b606482015260840161042d565b6001600160a01b0383166000908152603360205260408120838303905560358054849290610c2590849061113a565b90915550506040518281526000906001600160a01b038516907fddf252ad1be2c89b69c2b068fc378daa952ba7f163c4a11628f55a4df523b3ef9060200161070f565b505050565b609780546001600160a01b038381166001600160a01b0319831681179093556040519116919082907f8be0079c531659141344cd1fd0a4f28419497f9722a3daafe3b4186f6b6457e090600090a35050565b600054610100900460ff16610ce65760405162461bcd60e51b815260040161042d906110ef565b8151610cf9906036906020850190610d09565b508051610c689060379060208401905b828054610d1590611003565b90600052602060002090601f016020900481019282610d375760008555610d7d565b82601f10610d5057805160ff1916838001178555610d7d565b82800160010185558215610d7d579182015b82811115610d7d578251825591602001919060010190610d62565b50610d89929150610d8d565b5090565b5b80821115610d895760008155600101610d8e565b600060208083528351808285015260005b81811015610dcf57858101830151858201604001528201610db3565b81811115610de1576000604083870101525b50601f01601f1916929092016040019392505050565b80356001600160a01b03811681146107a457600080fd5b60008060408385031215610e2157600080fd5b610e2a83610df7565b946020939093013593505050565b634e487b7160e01b600052604160045260246000fd5b600082601f830112610e5f57600080fd5b813567ffffffffffffffff80821115610e7a57610e7a610e38565b604051601f8301601f19908116603f01168101908282118183101715610ea257610ea2610e38565b81604052838152866020858801011115610ebb57600080fd5b836020870160208301376000602085830101528094505050505092915050565b600080600060608486031215610ef057600080fd5b833567ffffffffffffffff80821115610f0857600080fd5b610f1487838801610e4e565b94506020860135915080821115610f2a57600080fd5b50610f3786828701610e4e565b925050604084013560ff81168114610f4e57600080fd5b809150509250925092565b600080600060608486031215610f6e57600080fd5b610f7784610df7565b9250610f8560208501610df7565b9150604084013590509250925092565b600060208284031215610fa757600080fd5b5035919050565b600060208284031215610fc057600080fd5b610fc982610df7565b9392505050565b60008060408385031215610fe357600080fd5b610fec83610df7565b9150610ffa60208401610df7565b90509250929050565b600181811c9082168061101757607f821691505b6020821081141561103857634e487b7160e01b600052602260045260246000fd5b50919050565b634e487b7160e01b600052601160045260246000fd5b600082198211156110675761106761103e565b500190565b6020808252818101527f4f776e61626c653a2063616c6c6572206973206e6f7420746865206f776e6572604082015260600190565b6020808252602e908201527f496e697469616c697a61626c653a20636f6e747261637420697320616c72656160408201526d191e481a5b9a5d1a585b1a5e995960921b606082015260800190565b6020808252602b908201527f496e697469616c697a61626c653a20636f6e7472616374206973206e6f74206960408201526a6e697469616c697a696e6760a81b606082015260800190565b60008282101561114c5761114c61103e565b50039056fea26469706673582212204876c178a59847c0a2f91832539f910445d9b100e131bcff8637efd66032644964736f6c63430008090033a2646970667358221220f246d1f615d4c0a6c73616db0092b0d0dbf46c0555af139bf8d41b10d0aa5f6c64736f6c63430008090033",
  "devdoc": {
    "kind": "dev",
    "methods": {
      "owner()": {
        "details": "Returns the address of the current owner."
      },
      "renounceOwnership()": {
        "details": "Leaves the contract without owner. It will not be possible to call `onlyOwner` functions anymore. Can only be called by the current owner. NOTE: Renouncing ownership will leave the contract without an owner, thereby removing any functionality that is only available to the owner."
      },
      "transferOwnership(address)": {
        "details": "Transfers ownership of the contract to a new account (`newOwner`). Can only be called by the current owner."
      }
    },
    "version": 1
  },
  "userdoc": {
    "kind": "user",
    "methods": {},
    "version": 1
  },
  "storageLayout": {
    "storage": [
      {
        "astId": 8759,
        "contract": "contracts/TokenLockerOnHarmony.sol:TokenLockerOnHarmony",
        "label": "TxTokens",
        "offset": 0,
        "slot": "0",
        "type": "t_array(t_contract(IERC20Upgradeable)1478)dyn_storage"
      },
      {
        "astId": 8763,
        "contract": "contracts/TokenLockerOnHarmony.sol:TokenLockerOnHarmony",
        "label": "RxTokens",
        "offset": 0,
        "slot": "1",
        "type": "t_array(t_contract(BridgedToken)2788)dyn_storage"
      },
      {
        "astId": 8767,
        "contract": "contracts/TokenLockerOnHarmony.sol:TokenLockerOnHarmony",
        "label": "TxMapped",
        "offset": 0,
        "slot": "2",
        "type": "t_mapping(t_address,t_address)"
      },
      {
        "astId": 8772,
        "contract": "contracts/TokenLockerOnHarmony.sol:TokenLockerOnHarmony",
        "label": "TxMappedInv",
        "offset": 0,
        "slot": "3",
        "type": "t_mapping(t_address,t_contract(IERC20Upgradeable)1478)"
      },
      {
        "astId": 8777,
        "contract": "contracts/TokenLockerOnHarmony.sol:TokenLockerOnHarmony",
        "label": "RxMapped",
        "offset": 0,
        "slot": "4",
        "type": "t_mapping(t_address,t_contract(BridgedToken)2788)"
      },
      {
        "astId": 8781,
        "contract": "contracts/TokenLockerOnHarmony.sol:TokenLockerOnHarmony",
        "label": "RxMappedInv",
        "offset": 0,
        "slot": "5",
        "type": "t_mapping(t_address,t_address)"
      },
      {
        "astId": 7931,
        "contract": "contracts/TokenLockerOnHarmony.sol:TokenLockerOnHarmony",
        "label": "otherSideBridge",
        "offset": 0,
        "slot": "6",
        "type": "t_address"
      },
      {
        "astId": 543,
        "contract": "contracts/TokenLockerOnHarmony.sol:TokenLockerOnHarmony",
        "label": "_initialized",
        "offset": 20,
        "slot": "6",
        "type": "t_uint8"
      },
      {
        "astId": 546,
        "contract": "contracts/TokenLockerOnHarmony.sol:TokenLockerOnHarmony",
        "label": "_initializing",
        "offset": 21,
        "slot": "6",
        "type": "t_bool"
      },
      {
        "astId": 2075,
        "contract": "contracts/TokenLockerOnHarmony.sol:TokenLockerOnHarmony",
        "label": "__gap",
        "offset": 0,
        "slot": "7",
        "type": "t_array(t_uint256)50_storage"
      },
      {
        "astId": 423,
        "contract": "contracts/TokenLockerOnHarmony.sol:TokenLockerOnHarmony",
        "label": "_owner",
        "offset": 0,
        "slot": "57",
        "type": "t_address"
      },
      {
        "astId": 535,
        "contract": "contracts/TokenLockerOnHarmony.sol:TokenLockerOnHarmony",
        "label": "__gap",
        "offset": 0,
        "slot": "58",
        "type": "t_array(t_uint256)49_storage"
      },
      {
        "astId": 8591,
        "contract": "contracts/TokenLockerOnHarmony.sol:TokenLockerOnHarmony",
        "label": "lightclient",
        "offset": 0,
        "slot": "107",
        "type": "t_contract(EthereumLightClient)3296"
      },
      {
        "astId": 8595,
        "contract": "contracts/TokenLockerOnHarmony.sol:TokenLockerOnHarmony",
        "label": "spentReceipt",
        "offset": 0,
        "slot": "108",
        "type": "t_mapping(t_bytes32,t_bool)"
      }
    ],
    "types": {
      "t_address": {
        "encoding": "inplace",
        "label": "address",
        "numberOfBytes": "20"
      },
      "t_array(t_contract(BridgedToken)2788)dyn_storage": {
        "base": "t_contract(BridgedToken)2788",
        "encoding": "dynamic_array",
        "label": "contract BridgedToken[]",
        "numberOfBytes": "32"
      },
      "t_array(t_contract(IERC20Upgradeable)1478)dyn_storage": {
        "base": "t_contract(IERC20Upgradeable)1478",
        "encoding": "dynamic_array",
        "label": "contract IERC20Upgradeable[]",
        "numberOfBytes": "32"
      },
      "t_array(t_uint256)49_storage": {
        "base": "t_uint256",
        "encoding": "inplace",
        "label": "uint256[49]",
        "numberOfBytes": "1568"
      },
      "t_array(t_uint256)50_storage": {
        "base": "t_uint256",
        "encoding": "inplace",
        "label": "uint256[50]",
        "numberOfBytes": "1600"
      },
      "t_bool": {
        "encoding": "inplace",
        "label": "bool",
        "numberOfBytes": "1"
      },
      "t_bytes32": {
        "encoding": "inplace",
        "label": "bytes32",
        "numberOfBytes": "32"
      },
      "t_contract(BridgedToken)2788": {
        "encoding": "inplace",
        "label": "contract BridgedToken",
        "numberOfBytes": "20"
      },
      "t_contract(EthereumLightClient)3296": {
        "encoding": "inplace",
        "label": "contract EthereumLightClient",
        "numberOfBytes": "20"
      },
      "t_contract(IERC20Upgradeable)1478": {
        "encoding": "inplace",
        "label": "contract IERC20Upgradeable",
        "numberOfBytes": "20"
      },
      "t_mapping(t_address,t_address)": {
        "encoding": "mapping",
        "key": "t_address",
        "label": "mapping(address => address)",
        "numberOfBytes": "32",
        "value": "t_address"
      },
      "t_mapping(t_address,t_contract(BridgedToken)2788)": {
        "encoding": "mapping",
        "key": "t_address",
        "label": "mapping(address => contract BridgedToken)",
        "numberOfBytes": "32",
        "value": "t_contract(BridgedToken)2788"
      },
      "t_mapping(t_address,t_contract(IERC20Upgradeable)1478)": {
        "encoding": "mapping",
        "key": "t_address",
        "label": "mapping(address => contract IERC20Upgradeable)",
        "numberOfBytes": "32",
        "value": "t_contract(IERC20Upgradeable)1478"
      },
      "t_mapping(t_bytes32,t_bool)": {
        "encoding": "mapping",
        "key": "t_bytes32",
        "label": "mapping(bytes32 => bool)",
        "numberOfBytes": "32",
        "value": "t_bool"
      },
      "t_uint256": {
        "encoding": "inplace",
        "label": "uint256",
        "numberOfBytes": "32"
      },
      "t_uint8": {
        "encoding": "inplace",
        "label": "uint8",
        "numberOfBytes": "1"
      }
    }
  }
}