{
  "address": "0x3Ceb74A902dc5fc11cF6337F68d04cB834AE6A22",
  "abi": [
    {
      "anonymous": false,
      "inputs": [
        {
          "indexed": true,
          "internalType": "address",
          "name": "token",
          "type": "address"
        },
        {
          "indexed": true,
          "internalType": "address",
          "name": "sender",
          "type": "address"
        },
        {
          "indexed": false,
          "internalType": "uint256",
          "name": "amount",
          "type": "uint256"
        },
        {
          "indexed": false,
          "internalType": "address",
          "name": "recipient",
          "type": "address"
        }
      ],
      "name": "Burn",
      "type": "event"
    },
    {
      "anonymous": false,
      "inputs": [
        {
          "indexed": false,
          "internalType": "uint8",
          "name": "version",
          "type": "uint8"
        }
      ],
      "name": "Initialized",
      "type": "event"
    },
    {
      "anonymous": false,
      "inputs": [
        {
          "indexed": true,
          "internalType": "address",
          "name": "token",
          "type": "address"
        },
        {
          "indexed": true,
          "internalType": "address",
          "name": "sender",
          "type": "address"
        },
        {
          "indexed": false,
          "internalType": "uint256",
          "name": "amount",
          "type": "uint256"
        },
        {
          "indexed": false,
          "internalType": "address",
          "name": "recipient",
          "type": "address"
        }
      ],
      "name": "Locked",
      "type": "event"
    },
    {
      "anonymous": false,
      "inputs": [
        {
          "indexed": true,
          "internalType": "address",
          "name": "previousOwner",
          "type": "address"
        },
        {
          "indexed": true,
          "internalType": "address",
          "name": "newOwner",
          "type": "address"
        }
      ],
      "name": "OwnershipTransferred",
      "type": "event"
    },
    {
      "anonymous": false,
      "inputs": [
        {
          "indexed": true,
          "internalType": "address",
          "name": "tokenReq",
          "type": "address"
        },
        {
          "indexed": true,
          "internalType": "address",
          "name": "tokenAck",
          "type": "address"
        }
      ],
      "name": "TokenMapAck",
      "type": "event"
    },
    {
      "anonymous": false,
      "inputs": [
        {
          "indexed": true,
          "internalType": "address",
          "name": "tokenReq",
          "type": "address"
        },
        {
          "indexed": true,
          "internalType": "uint8",
          "name": "decimals",
          "type": "uint8"
        },
        {
          "indexed": false,
          "internalType": "string",
          "name": "name",
          "type": "string"
        },
        {
          "indexed": false,
          "internalType": "string",
          "name": "symbol",
          "type": "string"
        }
      ],
      "name": "TokenMapReq",
      "type": "event"
    },
    {
      "inputs": [
        {
          "internalType": "address",
          "name": "",
          "type": "address"
        }
      ],
      "name": "RxMapped",
      "outputs": [
        {
          "internalType": "contract BridgedToken",
          "name": "",
          "type": "address"
        }
      ],
      "stateMutability": "view",
      "type": "function"
    },
    {
      "inputs": [
        {
          "internalType": "address",
          "name": "",
          "type": "address"
        }
      ],
      "name": "RxMappedInv",
      "outputs": [
        {
          "internalType": "address",
          "name": "",
          "type": "address"
        }
      ],
      "stateMutability": "view",
      "type": "function"
    },
    {
      "inputs": [
        {
          "internalType": "uint256",
          "name": "",
          "type": "uint256"
        }
      ],
      "name": "RxTokens",
      "outputs": [
        {
          "internalType": "contract BridgedToken",
          "name": "",
          "type": "address"
        }
      ],
      "stateMutability": "view",
      "type": "function"
    },
    {
      "inputs": [
        {
          "internalType": "address",
          "name": "",
          "type": "address"
        }
      ],
      "name": "TxMapped",
      "outputs": [
        {
          "internalType": "address",
          "name": "",
          "type": "address"
        }
      ],
      "stateMutability": "view",
      "type": "function"
    },
    {
      "inputs": [
        {
          "internalType": "address",
          "name": "",
          "type": "address"
        }
      ],
      "name": "TxMappedInv",
      "outputs": [
        {
          "internalType": "contract IERC20Upgradeable",
          "name": "",
          "type": "address"
        }
      ],
      "stateMutability": "view",
      "type": "function"
    },
    {
      "inputs": [
        {
          "internalType": "uint256",
          "name": "",
          "type": "uint256"
        }
      ],
      "name": "TxTokens",
      "outputs": [
        {
          "internalType": "contract IERC20Upgradeable",
          "name": "",
          "type": "address"
        }
      ],
      "stateMutability": "view",
      "type": "function"
    },
    {
      "inputs": [
        {
          "internalType": "address",
          "name": "otherSide",
          "type": "address"
        }
      ],
      "name": "bind",
      "outputs": [],
      "stateMutability": "nonpayable",
      "type": "function"
    },
    {
      "inputs": [
        {
          "internalType": "contract EthereumLightClient",
          "name": "newClient",
          "type": "address"
        }
      ],
      "name": "changeLightClient",
      "outputs": [],
      "stateMutability": "nonpayable",
      "type": "function"
    },
    {
      "inputs": [],
      "name": "initialize",
      "outputs": [],
      "stateMutability": "nonpayable",
      "type": "function"
    },
    {
      "inputs": [
        {
          "internalType": "contract ERC20Upgradeable",
          "name": "thisSideToken",
          "type": "address"
        }
      ],
      "name": "issueTokenMapReq",
      "outputs": [],
      "stateMutability": "nonpayable",
      "type": "function"
    },
    {
      "inputs": [],
      "name": "lightclient",
      "outputs": [
        {
          "internalType": "contract EthereumLightClient",
          "name": "",
          "type": "address"
        }
      ],
      "stateMutability": "view",
      "type": "function"
    },
    {
      "inputs": [
        {
          "internalType": "contract IERC20Upgradeable",
          "name": "token",
          "type": "address"
        },
        {
          "internalType": "address",
          "name": "recipient",
          "type": "address"
        },
        {
          "internalType": "uint256",
          "name": "amount",
          "type": "uint256"
        }
      ],
      "name": "lock",
      "outputs": [],
      "stateMutability": "nonpayable",
      "type": "function"
    },
    {
      "inputs": [],
      "name": "otherSideBridge",
      "outputs": [
        {
          "internalType": "address",
          "name": "",
          "type": "address"
        }
      ],
      "stateMutability": "view",
      "type": "function"
    },
    {
      "inputs": [],
      "name": "owner",
      "outputs": [
        {
          "internalType": "address",
          "name": "",
          "type": "address"
        }
      ],
      "stateMutability": "view",
      "type": "function"
    },
    {
      "inputs": [],
      "name": "renounceOwnership",
      "outputs": [],
      "stateMutability": "nonpayable",
      "type": "function"
    },
    {
      "inputs": [
        {
          "internalType": "bytes32",
          "name": "",
          "type": "bytes32"
        }
      ],
      "name": "spentReceipt",
      "outputs": [
        {
          "internalType": "bool",
          "name": "",
          "type": "bool"
        }
      ],
      "stateMutability": "view",
      "type": "function"
    },
    {
      "inputs": [],
      "name": "totalBridgedTokens",
      "outputs": [
        {
          "internalType": "uint256",
          "name": "",
          "type": "uint256"
        },
        {
          "internalType": "uint256",
          "name": "",
          "type": "uint256"
        }
      ],
      "stateMutability": "view",
      "type": "function"
    },
    {
      "inputs": [
        {
          "internalType": "address",
          "name": "newOwner",
          "type": "address"
        }
      ],
      "name": "transferOwnership",
      "outputs": [],
      "stateMutability": "nonpayable",
      "type": "function"
    },
    {
      "inputs": [
        {
          "internalType": "contract BridgedToken",
          "name": "token",
          "type": "address"
        },
        {
          "internalType": "address",
          "name": "recipient",
          "type": "address"
        },
        {
          "internalType": "uint256",
          "name": "amount",
          "type": "uint256"
        }
      ],
      "name": "unlock",
      "outputs": [],
      "stateMutability": "nonpayable",
      "type": "function"
    },
    {
      "inputs": [
        {
          "internalType": "uint256",
          "name": "blockNo",
          "type": "uint256"
        },
        {
          "internalType": "bytes32",
          "name": "rootHash",
          "type": "bytes32"
        },
        {
          "internalType": "uint256",
          "name": "proofPath",
          "type": "uint256"
        },
        {
          "internalType": "bytes",
          "name": "proof",
          "type": "bytes"
        }
      ],
      "name": "validateAndExecuteProof",
      "outputs": [],
      "stateMutability": "nonpayable",
      "type": "function"
    }
  ],
  "transactionHash": "0xc471dc1b410d0624760c62855d813330ab62dee4a5c86937be10871314075fb1",
  "args": [],
  "numDeployments": 1,
  "solcInputHash": "86432957dcf7303426f9d8474ed8507d",
  "bytecode": "0x608060405234801561001057600080fd5b50613b5e806100206000396000f3fe608060405234801561001057600080fd5b506004361061012c5760003560e01c80638ab3124a116100ad578063cd06c3a111610071578063cd06c3a11461028b578063d650d3f7146102a6578063e05bdaf7146102cf578063e71575e8146102f8578063f2fde38b1461032157600080fd5b80638ab3124a1461020e5780638da5cb5b14610241578063a9d68c1914610252578063ae24fbb414610265578063bf21980b1461027857600080fd5b8063715018a6116100f4578063715018a6146101af5780637750c9f0146101b75780638129fc1c146101ca57806381bac14f146101d25780638487b9cf146101e557600080fd5b80631b7f3e231461013157806335c6814d146101615780634ae83c8e146101745780634d2be8e51461018957806359508f8f1461019c575b600080fd5b606b54610144906001600160a01b031681565b6040516001600160a01b0390911681526020015b60405180910390f35b61014461016f36600461235e565b610334565b61018761018236600461238c565b61035e565b005b600654610144906001600160a01b031681565b6101876101aa3660046123a9565b610573565b6101876106d4565b6101876101c53660046123a9565b61070a565b61018761092a565b6101876101e036600461238c565b6109a5565b6101446101f336600461238c565b6005602052600090815260409020546001600160a01b031681565b61023161021c36600461235e565b606c6020526000908152604090205460ff1681565b6040519015158152602001610158565b6039546001600160a01b0316610144565b6101876102603660046123ea565b6109f1565b61014461027336600461235e565b610d33565b61018761028636600461238c565b610d43565b60005460015460408051928352602083019190915201610158565b6101446102b436600461238c565b6003602052600090815260409020546001600160a01b031681565b6101446102dd36600461238c565b6004602052600090815260409020546001600160a01b031681565b61014461030636600461238c565b6002602052600090815260409020546001600160a01b031681565b61018761032f36600461238c565b610d8f565b6001818154811061034457600080fd5b6000918252602090912001546001600160a01b0316905081565b6001600160a01b0381811660009081526002602052604090205416156103cb5760405162461bcd60e51b815260206004820152601760248201527f746f6b656e20697320616c7265616479206d617070656400000000000000000060448201526064015b60405180910390fd5b6000819050806001600160a01b031663313ce5676040518163ffffffff1660e01b815260040160206040518083038186803b15801561040957600080fd5b505afa15801561041d573d6000803e3d6000fd5b505050506040513d601f19601f820116820180604052508101906104419190612477565b60ff16826001600160a01b03167fc13b93ab57586894396c38a46a06c88056fdbb23c7c595f8d08274f9a8593a42836001600160a01b03166306fdde036040518163ffffffff1660e01b815260040160006040518083038186803b1580156104a857600080fd5b505afa1580156104bc573d6000803e3d6000fd5b505050506040513d6000823e601f3d908101601f191682016040526104e49190810190612564565b846001600160a01b03166395d89b416040518163ffffffff1660e01b815260040160006040518083038186803b15801561051d57600080fd5b505afa158015610531573d6000803e3d6000fd5b505050506040513d6000823e601f3d908101601f191682016040526105599190810190612564565b6040516105679291906125c5565b60405180910390a35050565b6001600160a01b0382166105c95760405162461bcd60e51b815260206004820152601b60248201527f726563697069656e742069732061207a65726f2061646472657373000000000060448201526064016103c2565b6001600160a01b03838116600090815260056020526040902054166106285760405162461bcd60e51b8152602060048201526015602482015274189c9a5919d948191bd95cc81b9bdd08195e1a5cdd605a1b60448201526064016103c2565b60405163079cc67960e41b8152336004820152602481018290526001600160a01b038416906379cc679090604401600060405180830381600087803b15801561067057600080fd5b505af1158015610684573d6000803e3d6000fd5b5050604080518481526001600160a01b038681166020830152339450871692507f3dd1df88dc92e2788892542d81f999d720a44b4c127065d45c128f4f59fdc373910160405180910390a3505050565b6039546001600160a01b031633146106fe5760405162461bcd60e51b81526004016103c2906125f3565b6107086000610e23565b565b6001600160a01b0382166107605760405162461bcd60e51b815260206004820152601b60248201527f726563697069656e742069732061207a65726f2061646472657373000000000060448201526064016103c2565b6001600160a01b03838116600090815260026020526040902054166107bf5760405162461bcd60e51b8152602060048201526015602482015274189c9a5919d948191bd95cc81b9bdd08195e1a5cdd605a1b60448201526064016103c2565b6040516370a0823160e01b81523060048201526000906001600160a01b038516906370a082319060240160206040518083038186803b15801561080157600080fd5b505afa158015610815573d6000803e3d6000fd5b505050506040513d601f19601f820116820180604052508101906108399190612628565b90506108506001600160a01b038516333085610e75565b6040516370a0823160e01b81523060048201526000906001600160a01b038616906370a082319060240160206040518083038186803b15801561089257600080fd5b505afa1580156108a6573d6000803e3d6000fd5b505050506040513d601f19601f820116820180604052508101906108ca9190612628565b905060006108d88284610ee6565b604080518281526001600160a01b03888116602083015292935033928916917f4c6ab40ee4cfa212a441d32ee2897945b4a52461284f9369e23fdf8faa6cdd69910160405180910390a3505050505050565b60006109366001610efb565b90508015610952576006805460ff60a81b1916600160a81b1790555b61095a610f98565b80156109a2576006805460ff60a81b19169055604051600181527f7f26b83ff96e1f2b6a682f133852f6798a09c465da95921460cefb38474024989060200160405180910390a15b50565b6039546001600160a01b031633146109cf5760405162461bcd60e51b81526004016103c2906125f3565b600680546001600160a01b0319166001600160a01b0392909216919091179055565b606b54604051633c6c6b7360e01b815260048101879052600060248201819052916001600160a01b031690633c6c6b739060440160206040518083038186803b158015610a3d57600080fd5b505afa158015610a51573d6000803e3d6000fd5b505050506040513d601f19601f82011682018060405250810190610a759190612628565b606b546040516329e141af60e01b815260048101839052602481018890529192506001600160a01b0316906329e141af9060440160206040518083038186803b158015610ac157600080fd5b505afa158015610ad5573d6000803e3d6000fd5b505050506040513d601f19601f82011682018060405250810190610af99190612641565b610b3a5760405162461bcd60e51b81526020600482015260126024820152710eee4dedcce40e4cac6cad2e0e840d0c2e6d60731b60448201526064016103c2565b606b546040516337b6d96b60e01b8152600481018390526001600160a01b03909116906337b6d96b9060240160206040518083038186803b158015610b7e57600080fd5b505afa158015610b92573d6000803e3d6000fd5b505050506040513d601f19601f82011682018060405250810190610bb69190612641565b610bf75760405162461bcd60e51b8152602060048201526012602482015271109b1bd8dac81b9bdd081d995c9a599a595960721b60448201526064016103c2565b60408051602081018390529081018690526060810185905260009060800160408051601f1981840301815291815281516020928301206000818152606c90935291205490915060ff1615610c7d5760405162461bcd60e51b815260206004820152600d60248201526c646f75626c65207370656e742160981b60448201526064016103c2565b6000610cc0878787878080601f016020809104026020016040519081016040528093929190818152602001838380828437600092019190915250610fc992505050565b6000838152606c60205260408120805460ff19166001179055909150610ce582611122565b905060008111610d285760405162461bcd60e51b815260206004820152600e60248201526d1b9bc81d985b1a5908195d995b9d60921b60448201526064016103c2565b505050505050505050565b6000818154811061034457600080fd5b6039546001600160a01b03163314610d6d5760405162461bcd60e51b81526004016103c2906125f3565b606b80546001600160a01b0319166001600160a01b0392909216919091179055565b6039546001600160a01b03163314610db95760405162461bcd60e51b81526004016103c2906125f3565b6001600160a01b038116610e1e5760405162461bcd60e51b815260206004820152602660248201527f4f776e61626c653a206e6577206f776e657220697320746865207a65726f206160448201526564647265737360d01b60648201526084016103c2565b6109a2815b603980546001600160a01b038381166001600160a01b0319831681179093556040519116919082907f8be0079c531659141344cd1fd0a4f28419497f9722a3daafe3b4186f6b6457e090600090a35050565b6040516001600160a01b0380851660248301528316604482015260648101829052610ee09085906323b872dd60e01b906084015b60408051601f198184030181529190526020810180516001600160e01b03166001600160e01b03199093169290921790915261146c565b50505050565b6000610ef28284612679565b90505b92915050565b600654600090600160a81b900460ff1615610f46578160ff166001148015610f225750303b155b610f3e5760405162461bcd60e51b81526004016103c290612690565b506000919050565b60065460ff808416600160a01b9092041610610f745760405162461bcd60e51b81526004016103c290612690565b506006805460ff909216600160a01b0260ff60a01b19909216919091179055600190565b600654600160a81b900460ff16610fc15760405162461bcd60e51b81526004016103c2906126de565b610708611543565b60606000610ffe8360408051808201825260008082526020918201528151808301909252825182529182019181019190915290565b9050600061100b82611575565b90506000611018836115e1565b905060005b818110156110ce5761102e83611664565b600888901c9790945060ff16611043856116c1565b89146110915760405162461bcd60e51b815260206004820152601a60248201527f50726f6f664c69623a20696e76616c696420686173686c696e6b00000000000060448201526064016103c2565b61109b85826116dc565b94506110a8600184612679565b8210156110bb576110b88561182f565b98505b50806110c681612729565b91505061101d565b50851561110c5760405162461bcd60e51b815260206004820152600c60248201526b0d2dcecc2d8d2c840e0c2e8d60a31b60448201526064016103c2565b611115836118aa565b93505050505b9392505050565b60008061112e83611947565b905060006111558260008151811061114857611148612744565b602002602001015161182f565b9050806001146111985760405162461bcd60e51b815260206004820152600e60248201526d1c995d995c9d081c9958d95a5c1d60921b60448201526064016103c2565b60006111bd836003815181106111b0576111b0612744565b60200260200101516119db565b905060005b81518110156114635760006111e28383815181106111b0576111b0612744565b90506000611209826000815181106111fc576111fc612744565b6020026020010151611af1565b6006549091506001600160a01b03808316911614611228575050611451565b6000611240836001815181106111b0576111b0612744565b90506000815167ffffffffffffffff81111561125e5761125e61249a565b604051908082528060200260200182016040528015611287578160200160208202803683370190505b50905060005b82518110156112dd576112ab83828151811061114857611148612744565b60001b8282815181106112c0576112c0612744565b6020908102919091010152806112d581612729565b91505061128d565b506000611303856002815181106112f6576112f6612744565b60200260200101516118aa565b90507f4c6ab40ee4cfa212a441d32ee2897945b4a52461284f9369e23fdf8faa6cdd698260008151811061133957611339612744565b60200260200101511415611368576113518282611b0b565b8961135b81612729565b9a50505050505050611451565b7f3dd1df88dc92e2788892542d81f999d720a44b4c127065d45c128f4f59fdc3738260008151811061139c5761139c612744565b602002602001015114156113b4576113518282611bd9565b7fc13b93ab57586894396c38a46a06c88056fdbb23c7c595f8d08274f9a8593a42826000815181106113e8576113e8612744565b60200260200101511415611400576113518282611c46565b7f78591f651c27eef63481b7fd779e44c2426cbe82c7050fe9bc90b6707efbc3d38260008151811061143457611434612744565b6020026020010151141561144b5761135182611e58565b50505050505b8061145b81612729565b9150506111c2565b50505050919050565b60006114c1826040518060400160405280602081526020017f5361666545524332303a206c6f772d6c6576656c2063616c6c206661696c6564815250856001600160a01b0316611f869092919063ffffffff16565b80519091501561153e57808060200190518101906114df9190612641565b61153e5760405162461bcd60e51b815260206004820152602a60248201527f5361666545524332303a204552433230206f7065726174696f6e20646964206e6044820152691bdd081cdd58d8d9595960b21b60648201526084016103c2565b505050565b600654600160a81b900460ff1661156c5760405162461bcd60e51b81526004016103c2906126de565b61070833610e23565b60408051608081018252600091810182815260608201839052815260208101919091526115a182611f9d565b6115aa57600080fd5b60006115b98360200151611fd6565b83602001516115c8919061275a565b6040805180820190915293845260208401525090919050565b80516000906115f257506000919050565b6000806116028460200151611fd6565b8460200151611611919061275a565b9050600084600001518560200151611629919061275a565b90505b8082101561165b5761163d82612051565b611647908361275a565b91508261165381612729565b93505061162c565b50909392505050565b6040805180820190915260008082526020820152611681826120fa565b61168a57600080fd5b6020820151600061169a82612051565b90506116a6818361275a565b60209485015260408051808201909152908152928301525090565b80516000906116cf57600080fd5b5080516020909101512090565b60408051808201909152600080825260208201526116f983611f9d565b61174f5760405162461bcd60e51b815260206004820152602160248201527f524c504465636f646572206974657261746f72206973206e6f742061206c69736044820152601d60fa1b60648201526084016103c2565b825160208401516000916117629161275a565b905060006117738560200151611fd6565b8560200151611782919061275a565b90506000805b858110156117b95761179983612051565b91506117a5828461275a565b9250806117b181612729565b915050611788565b506117c382612051565b9050826117d0828461275a565b11156118125760405162461bcd60e51b8152602060048201526011602482015270524c50206974656d206f766572666c6f7760781b60448201526064016103c2565b604080518082019091529081526020810191909152949350505050565b80516000901580159061184457508151602110155b61184d57600080fd5b600061185c8360200151611fd6565b905060008184600001516118709190612679565b9050600080838660200151611885919061275a565b90508051915060208310156118a157826020036101000a820491505b50949350505050565b80516060906118b857600080fd5b60006118c78360200151611fd6565b905060008184600001516118db9190612679565b905060008167ffffffffffffffff8111156118f8576118f861249a565b6040519080825280601f01601f191660200182016040528015611922576020820181803683370190505b50905060008160200190506118a1848760200151611940919061275a565b828561211e565b6060600061197c8360408051808201825260008082526020918201528151808301909252825182529182019181019190915290565b9050607f60f81b8360008151811061199657611996612744565b01602001516001600160f81b031916116119d6576001816020018181516119bd919061275a565b905250805160019082906119d2908390612679565b9052505b61111b815b60606119e682611f9d565b6119ef57600080fd5b60006119fa836115e1565b905060008167ffffffffffffffff811115611a1757611a1761249a565b604051908082528060200260200182016040528015611a5c57816020015b6040805180820190915260008082526020820152815260200190600190039081611a355790505b5090506000611a6e8560200151611fd6565b8560200151611a7d919061275a565b90506000805b84811015611ae657611a9483612051565b9150604051806040016040528083815260200184815250848281518110611abd57611abd612744565b6020908102919091010152611ad2828461275a565b925080611ade81612729565b915050611a83565b509195945050505050565b8051600090601514611b0257600080fd5b610ef58261182f565b600082600181518110611b2057611b20612744565b602002602001015160001c905060008083806020019051810190611b449190612772565b6001600160a01b038086166000908152600460205260409020549294509092501680611b6f57600080fd5b6040516340c10f1960e01b81526001600160a01b038381166004830152602482018590528216906340c10f1990604401600060405180830381600087803b158015611bb957600080fd5b505af1158015611bcd573d6000803e3d6000fd5b50505050505050505050565b600082600181518110611bee57611bee612744565b602002602001015160001c905060008083806020019051810190611c129190612772565b6001600160a01b0380861660009081526003602052604090205492945090925016611c3e8183856121b7565b505050505050565b600082600181518110611c5b57611c5b612744565b6020908102919091018101516001600160a01b03808216600090815260049093526040909220549092501615611cca5760405162461bcd60e51b8152602060048201526014602482015273189c9a5919d948185b1c9958591e48195e1a5cdd60621b60448201526064016103c2565b600083600281518110611cdf57611cdf612744565b602002602001015160001c905060008084806020019051810190611d0391906127a2565b60405191935091506001600160a01b038516906000908290611d2490612351565b8190604051809103906000f5905080158015611d44573d6000803e3d6000fd5b50604051630b127b6360e11b81529091506001600160a01b03821690631624f6c690611d7890879087908a90600401612806565b600060405180830381600087803b158015611d9257600080fd5b505af1158015611da6573d6000803e3d6000fd5b5050506001600160a01b0380831660008181526005602090815260408083208054958d166001600160a01b03199687168117909155808452600490925280832080548616851790556001805480820182559084527fb10e2d527612073b26eecdfd717e6a320cf44b4afac2b0732d9fcbe2b7fa0cf6018054909516841790945592519193507f78591f651c27eef63481b7fd779e44c2426cbe82c7050fe9bc90b6707efbc3d391a35050505050505050565b600081600181518110611e6d57611e6d612744565b602002602001015160001c9050600082600281518110611e8f57611e8f612744565b6020908102919091018101516001600160a01b03848116600090815260029093526040909220549092501615611f075760405162461bcd60e51b815260206004820152601e60248201527f6d697373696e67206d617070696e6720746f2061636b6e6f776c65646765000060448201526064016103c2565b6001600160a01b0391821660008181526002602090815260408083208054969095166001600160a01b0319968716811790955593825260039052918220805484168217905581546001810183559180527f290decd9548b62a8d60345a988386fc84ba6bc95484008f6362f93160ef3e563909101805490921617905550565b6060611f9584846000856121e7565b949350505050565b8051600090611fae57506000919050565b6020820151805160001a9060c0821015611fcc575060009392505050565b5060019392505050565b8051600090811a6080811015611fef5750600092915050565b60b881108061200a575060c0811080159061200a575060f881105b156120185750600192915050565b60c08110156120455761202d600160b861283f565b61203a9060ff1682612679565b61111b90600161275a565b61202d600160f861283f565b80516000908190811a608081101561206c57600191506120f3565b60b881101561209257612080608082612679565b61208b90600161275a565b91506120f3565b60c08110156120bf5760b78103600185019450806020036101000a855104600182018101935050506120f3565b60f88110156120d35761208060c082612679565b60f78103600185019450806020036101000a855104600182018101935050505b5092915050565b805180516020820151600092916121109161275a565b836020015110915050919050565b8061212857505050565b60208110612160578251825261213f60208461275a565b925061214c60208361275a565b9150612159602082612679565b9050612128565b801561153e57602081106121805761217a6001602061283f565b60ff1690505b6000600161218f836020612679565b61219b90610100612946565b6121a59190612679565b84518451821691191617835250505050565b6040516001600160a01b03831660248201526044810182905261153e90849063a9059cbb60e01b90606401610ea9565b6060824710156122485760405162461bcd60e51b815260206004820152602660248201527f416464726573733a20696e73756666696369656e742062616c616e636520666f6044820152651c8818d85b1b60d21b60648201526084016103c2565b6001600160a01b0385163b61229f5760405162461bcd60e51b815260206004820152601d60248201527f416464726573733a2063616c6c20746f206e6f6e2d636f6e747261637400000060448201526064016103c2565b600080866001600160a01b031685876040516122bb9190612952565b60006040518083038185875af1925050503d80600081146122f8576040519150601f19603f3d011682016040523d82523d6000602084013e6122fd565b606091505b509150915061230d828286612318565b979650505050505050565b6060831561232757508161111b565b8251156123375782518084602001fd5b8160405162461bcd60e51b81526004016103c2919061296e565b6111a78061298283390190565b60006020828403121561237057600080fd5b5035919050565b6001600160a01b03811681146109a257600080fd5b60006020828403121561239e57600080fd5b813561111b81612377565b6000806000606084860312156123be57600080fd5b83356123c981612377565b925060208401356123d981612377565b929592945050506040919091013590565b60008060008060006080868803121561240257600080fd5b853594506020860135935060408601359250606086013567ffffffffffffffff8082111561242f57600080fd5b818801915088601f83011261244357600080fd5b81358181111561245257600080fd5b89602082850101111561246457600080fd5b9699959850939650602001949392505050565b60006020828403121561248957600080fd5b815160ff8116811461111b57600080fd5b634e487b7160e01b600052604160045260246000fd5b60005b838110156124cb5781810151838201526020016124b3565b83811115610ee05750506000910152565b600082601f8301126124ed57600080fd5b815167ffffffffffffffff808211156125085761250861249a565b604051601f8301601f19908116603f011681019082821181831017156125305761253061249a565b8160405283815286602085880101111561254957600080fd5b61255a8460208301602089016124b0565b9695505050505050565b60006020828403121561257657600080fd5b815167ffffffffffffffff81111561258d57600080fd5b611f95848285016124dc565b600081518084526125b18160208601602086016124b0565b601f01601f19169290920160200192915050565b6040815260006125d86040830185612599565b82810360208401526125ea8185612599565b95945050505050565b6020808252818101527f4f776e61626c653a2063616c6c6572206973206e6f7420746865206f776e6572604082015260600190565b60006020828403121561263a57600080fd5b5051919050565b60006020828403121561265357600080fd5b8151801515811461111b57600080fd5b634e487b7160e01b600052601160045260246000fd5b60008282101561268b5761268b612663565b500390565b6020808252602e908201527f496e697469616c697a61626c653a20636f6e747261637420697320616c72656160408201526d191e481a5b9a5d1a585b1a5e995960921b606082015260800190565b6020808252602b908201527f496e697469616c697a61626c653a20636f6e7472616374206973206e6f74206960408201526a6e697469616c697a696e6760a81b606082015260800190565b600060001982141561273d5761273d612663565b5060010190565b634e487b7160e01b600052603260045260246000fd5b6000821982111561276d5761276d612663565b500190565b6000806040838503121561278557600080fd5b82519150602083015161279781612377565b809150509250929050565b600080604083850312156127b557600080fd5b825167ffffffffffffffff808211156127cd57600080fd5b6127d9868387016124dc565b935060208501519150808211156127ef57600080fd5b506127fc858286016124dc565b9150509250929050565b6060815260006128196060830186612599565b828103602084015261282b8186612599565b91505060ff83166040830152949350505050565b600060ff821660ff84168082101561285957612859612663565b90039392505050565b600181815b8085111561289d57816000190482111561288357612883612663565b8085161561289057918102915b93841c9390800290612867565b509250929050565b6000826128b457506001610ef5565b816128c157506000610ef5565b81600181146128d757600281146128e1576128fd565b6001915050610ef5565b60ff8411156128f2576128f2612663565b50506001821b610ef5565b5060208310610133831016604e8410600b8410161715612920575081810a610ef5565b61292a8383612862565b806000190482111561293e5761293e612663565b029392505050565b6000610ef283836128a5565b600082516129648184602087016124b0565b9190910192915050565b602081526000610ef2602083018461259956fe608060405234801561001057600080fd5b50611187806100206000396000f3fe608060405234801561001057600080fd5b50600436106101165760003560e01c806370a08231116100a257806395d89b411161007157806395d89b411461023d578063a457c2d714610245578063a9059cbb14610258578063dd62ed3e1461026b578063f2fde38b1461027e57600080fd5b806370a08231146101de578063715018a61461020757806379cc67901461020f5780638da5cb5b1461022257600080fd5b806323b872dd116100e957806323b872dd14610183578063313ce5671461019657806339509351146101a557806340c10f19146101b857806342966c68146101cb57600080fd5b806306fdde031461011b578063095ea7b3146101395780631624f6c61461015c57806318160ddd14610171575b600080fd5b610123610291565b6040516101309190610da2565b60405180910390f35b61014c610147366004610e0e565b610323565b6040519015158152602001610130565b61016f61016a366004610edb565b61033b565b005b6035545b604051908152602001610130565b61014c610191366004610f59565b6103bd565b60405160128152602001610130565b61014c6101b3366004610e0e565b6103e1565b61016f6101c6366004610e0e565b610403565b61016f6101d9366004610f95565b610444565b6101756101ec366004610fae565b6001600160a01b031660009081526033602052604090205490565b61016f610451565b61016f61021d366004610e0e565b610487565b6097546040516001600160a01b039091168152602001610130565b61012361049c565b61014c610253366004610e0e565b6104ab565b61014c610266366004610e0e565b610526565b610175610279366004610fd0565b610534565b61016f61028c366004610fae565b61055f565b6060603680546102a090611003565b80601f01602080910402602001604051908101604052809291908181526020018280546102cc90611003565b80156103195780601f106102ee57610100808354040283529160200191610319565b820191906000526020600020905b8154815290600101906020018083116102fc57829003601f168201915b5050505050905090565b6000336103318185856105f7565b5060019392505050565b6000610347600161071c565b9050801561035f576000805461ff0019166101001790555b61036984846107a9565b6103716107da565b80156103b7576000805461ff0019169055604051600181527f7f26b83ff96e1f2b6a682f133852f6798a09c465da95921460cefb38474024989060200160405180910390a15b50505050565b6000336103cb858285610801565b6103d6858585610875565b506001949350505050565b6000336103318185856103f48383610534565b6103fe9190611054565b6105f7565b6097546001600160a01b031633146104365760405162461bcd60e51b815260040161042d9061106c565b60405180910390fd5b6104408282610a43565b5050565b61044e3382610b22565b50565b6097546001600160a01b0316331461047b5760405162461bcd60e51b815260040161042d9061106c565b6104856000610c6d565b565b610492823383610801565b6104408282610b22565b6060603780546102a090611003565b600033816104b98286610534565b9050838110156105195760405162461bcd60e51b815260206004820152602560248201527f45524332303a2064656372656173656420616c6c6f77616e63652062656c6f77604482015264207a65726f60d81b606482015260840161042d565b6103d682868684036105f7565b600033610331818585610875565b6001600160a01b03918216600090815260346020908152604080832093909416825291909152205490565b6097546001600160a01b031633146105895760405162461bcd60e51b815260040161042d9061106c565b6001600160a01b0381166105ee5760405162461bcd60e51b815260206004820152602660248201527f4f776e61626c653a206e6577206f776e657220697320746865207a65726f206160448201526564647265737360d01b606482015260840161042d565b61044e81610c6d565b6001600160a01b0383166106595760405162461bcd60e51b8152602060048201526024808201527f45524332303a20617070726f76652066726f6d20746865207a65726f206164646044820152637265737360e01b606482015260840161042d565b6001600160a01b0382166106ba5760405162461bcd60e51b815260206004820152602260248201527f45524332303a20617070726f766520746f20746865207a65726f206164647265604482015261737360f01b606482015260840161042d565b6001600160a01b0383811660008181526034602090815260408083209487168084529482529182902085905590518481527f8c5be1e5ebec7d5bd14f71427d1e84f3dd0314c0f7b2291e5b200ac8c7c3b92591015b60405180910390a3505050565b60008054610100900460ff1615610763578160ff16600114801561073f5750303b155b61075b5760405162461bcd60e51b815260040161042d906110a1565b506000919050565b60005460ff80841691161061078a5760405162461bcd60e51b815260040161042d906110a1565b506000805460ff191660ff92909216919091179055600190565b919050565b600054610100900460ff166107d05760405162461bcd60e51b815260040161042d906110ef565b6104408282610cbf565b600054610100900460ff166104855760405162461bcd60e51b815260040161042d906110ef565b600061080d8484610534565b905060001981146103b757818110156108685760405162461bcd60e51b815260206004820152601d60248201527f45524332303a20696e73756666696369656e7420616c6c6f77616e6365000000604482015260640161042d565b6103b784848484036105f7565b6001600160a01b0383166108d95760405162461bcd60e51b815260206004820152602560248201527f45524332303a207472616e736665722066726f6d20746865207a65726f206164604482015264647265737360d81b606482015260840161042d565b6001600160a01b03821661093b5760405162461bcd60e51b815260206004820152602360248201527f45524332303a207472616e7366657220746f20746865207a65726f206164647260448201526265737360e81b606482015260840161042d565b6001600160a01b038316600090815260336020526040902054818110156109b35760405162461bcd60e51b815260206004820152602660248201527f45524332303a207472616e7366657220616d6f756e7420657863656564732062604482015265616c616e636560d01b606482015260840161042d565b6001600160a01b038085166000908152603360205260408082208585039055918516815290812080548492906109ea908490611054565b92505081905550826001600160a01b0316846001600160a01b03167fddf252ad1be2c89b69c2b068fc378daa952ba7f163c4a11628f55a4df523b3ef84604051610a3691815260200190565b60405180910390a36103b7565b6001600160a01b038216610a995760405162461bcd60e51b815260206004820152601f60248201527f45524332303a206d696e7420746f20746865207a65726f206164647265737300604482015260640161042d565b8060356000828254610aab9190611054565b90915550506001600160a01b03821660009081526033602052604081208054839290610ad8908490611054565b90915550506040518181526001600160a01b038316906000907fddf252ad1be2c89b69c2b068fc378daa952ba7f163c4a11628f55a4df523b3ef9060200160405180910390a35050565b6001600160a01b038216610b825760405162461bcd60e51b815260206004820152602160248201527f45524332303a206275726e2066726f6d20746865207a65726f206164647265736044820152607360f81b606482015260840161042d565b6001600160a01b03821660009081526033602052604090205481811015610bf65760405162461bcd60e51b815260206004820152602260248201527f45524332303a206275726e20616d6f756e7420657863656564732062616c616e604482015261636560f01b606482015260840161042d565b6001600160a01b0383166000908152603360205260408120838303905560358054849290610c2590849061113a565b90915550506040518281526000906001600160a01b038516907fddf252ad1be2c89b69c2b068fc378daa952ba7f163c4a11628f55a4df523b3ef9060200161070f565b505050565b609780546001600160a01b038381166001600160a01b0319831681179093556040519116919082907f8be0079c531659141344cd1fd0a4f28419497f9722a3daafe3b4186f6b6457e090600090a35050565b600054610100900460ff16610ce65760405162461bcd60e51b815260040161042d906110ef565b8151610cf9906036906020850190610d09565b508051610c689060379060208401905b828054610d1590611003565b90600052602060002090601f016020900481019282610d375760008555610d7d565b82601f10610d5057805160ff1916838001178555610d7d565b82800160010185558215610d7d579182015b82811115610d7d578251825591602001919060010190610d62565b50610d89929150610d8d565b5090565b5b80821115610d895760008155600101610d8e565b600060208083528351808285015260005b81811015610dcf57858101830151858201604001528201610db3565b81811115610de1576000604083870101525b50601f01601f1916929092016040019392505050565b80356001600160a01b03811681146107a457600080fd5b60008060408385031215610e2157600080fd5b610e2a83610df7565b946020939093013593505050565b634e487b7160e01b600052604160045260246000fd5b600082601f830112610e5f57600080fd5b813567ffffffffffffffff80821115610e7a57610e7a610e38565b604051601f8301601f19908116603f01168101908282118183101715610ea257610ea2610e38565b81604052838152866020858801011115610ebb57600080fd5b836020870160208301376000602085830101528094505050505092915050565b600080600060608486031215610ef057600080fd5b833567ffffffffffffffff80821115610f0857600080fd5b610f1487838801610e4e565b94506020860135915080821115610f2a57600080fd5b50610f3786828701610e4e565b925050604084013560ff81168114610f4e57600080fd5b809150509250925092565b600080600060608486031215610f6e57600080fd5b610f7784610df7565b9250610f8560208501610df7565b9150604084013590509250925092565b600060208284031215610fa757600080fd5b5035919050565b600060208284031215610fc057600080fd5b610fc982610df7565b9392505050565b60008060408385031215610fe357600080fd5b610fec83610df7565b9150610ffa60208401610df7565b90509250929050565b600181811c9082168061101757607f821691505b6020821081141561103857634e487b7160e01b600052602260045260246000fd5b50919050565b634e487b7160e01b600052601160045260246000fd5b600082198211156110675761106761103e565b500190565b6020808252818101527f4f776e61626c653a2063616c6c6572206973206e6f7420746865206f776e6572604082015260600190565b6020808252602e908201527f496e697469616c697a61626c653a20636f6e747261637420697320616c72656160408201526d191e481a5b9a5d1a585b1a5e995960921b606082015260800190565b6020808252602b908201527f496e697469616c697a61626c653a20636f6e7472616374206973206e6f74206960408201526a6e697469616c697a696e6760a81b606082015260800190565b60008282101561114c5761114c61103e565b50039056fea2646970667358221220a61c5b3bf7a7628847ce1673f6c1eb638e31256a6c6b7b7baac5b4557adbc57f64736f6c63430008090033a264697066735822122048803215df339ff74c419806e0c0992a54a89c0234b6474a19064820d4742a0464736f6c63430008090033",
  "devdoc": {
    "kind": "dev",
    "methods": {
      "owner()": {
        "details": "Returns the address of the current owner."
      },
      "renounceOwnership()": {
        "details": "Leaves the contract without owner. It will not be possible to call `onlyOwner` functions anymore. Can only be called by the current owner. NOTE: Renouncing ownership will leave the contract without an owner, thereby removing any functionality that is only available to the owner."
      },
      "transferOwnership(address)": {
        "details": "Transfers ownership of the contract to a new account (`newOwner`). Can only be called by the current owner."
      }
    },
    "version": 1
  },
  "userdoc": {
    "kind": "user",
    "methods": {},
    "version": 1
  },
  "storageLayout": {
    "storage": [
      {
        "astId": 9223,
        "contract": "contracts/TokenLockerOnHarmony.sol:TokenLockerOnHarmony",
        "label": "TxTokens",
        "offset": 0,
        "slot": "0",
        "type": "t_array(t_contract(IERC20Upgradeable)1478)dyn_storage"
      },
      {
        "astId": 9227,
        "contract": "contracts/TokenLockerOnHarmony.sol:TokenLockerOnHarmony",
        "label": "RxTokens",
        "offset": 0,
        "slot": "1",
        "type": "t_array(t_contract(BridgedToken)2788)dyn_storage"
      },
      {
        "astId": 9231,
        "contract": "contracts/TokenLockerOnHarmony.sol:TokenLockerOnHarmony",
        "label": "TxMapped",
        "offset": 0,
        "slot": "2",
        "type": "t_mapping(t_address,t_address)"
      },
      {
        "astId": 9236,
        "contract": "contracts/TokenLockerOnHarmony.sol:TokenLockerOnHarmony",
        "label": "TxMappedInv",
        "offset": 0,
        "slot": "3",
        "type": "t_mapping(t_address,t_contract(IERC20Upgradeable)1478)"
      },
      {
        "astId": 9241,
        "contract": "contracts/TokenLockerOnHarmony.sol:TokenLockerOnHarmony",
        "label": "RxMapped",
        "offset": 0,
        "slot": "4",
        "type": "t_mapping(t_address,t_contract(BridgedToken)2788)"
      },
      {
        "astId": 9245,
        "contract": "contracts/TokenLockerOnHarmony.sol:TokenLockerOnHarmony",
        "label": "RxMappedInv",
        "offset": 0,
        "slot": "5",
        "type": "t_mapping(t_address,t_address)"
      },
      {
        "astId": 8351,
        "contract": "contracts/TokenLockerOnHarmony.sol:TokenLockerOnHarmony",
        "label": "otherSideBridge",
        "offset": 0,
        "slot": "6",
        "type": "t_address"
      },
      {
        "astId": 543,
        "contract": "contracts/TokenLockerOnHarmony.sol:TokenLockerOnHarmony",
        "label": "_initialized",
        "offset": 20,
        "slot": "6",
        "type": "t_uint8"
      },
      {
        "astId": 546,
        "contract": "contracts/TokenLockerOnHarmony.sol:TokenLockerOnHarmony",
        "label": "_initializing",
        "offset": 21,
        "slot": "6",
        "type": "t_bool"
      },
      {
        "astId": 2075,
        "contract": "contracts/TokenLockerOnHarmony.sol:TokenLockerOnHarmony",
        "label": "__gap",
        "offset": 0,
        "slot": "7",
        "type": "t_array(t_uint256)50_storage"
      },
      {
        "astId": 423,
        "contract": "contracts/TokenLockerOnHarmony.sol:TokenLockerOnHarmony",
        "label": "_owner",
        "offset": 0,
        "slot": "57",
        "type": "t_address"
      },
      {
        "astId": 535,
        "contract": "contracts/TokenLockerOnHarmony.sol:TokenLockerOnHarmony",
        "label": "__gap",
        "offset": 0,
        "slot": "58",
        "type": "t_array(t_uint256)49_storage"
      },
      {
        "astId": 9044,
        "contract": "contracts/TokenLockerOnHarmony.sol:TokenLockerOnHarmony",
        "label": "lightclient",
        "offset": 0,
        "slot": "107",
        "type": "t_contract(EthereumLightClient)3614"
      },
      {
        "astId": 9048,
        "contract": "contracts/TokenLockerOnHarmony.sol:TokenLockerOnHarmony",
        "label": "spentReceipt",
        "offset": 0,
        "slot": "108",
        "type": "t_mapping(t_bytes32,t_bool)"
      }
    ],
    "types": {
      "t_address": {
        "encoding": "inplace",
        "label": "address",
        "numberOfBytes": "20"
      },
      "t_array(t_contract(BridgedToken)2788)dyn_storage": {
        "base": "t_contract(BridgedToken)2788",
        "encoding": "dynamic_array",
        "label": "contract BridgedToken[]",
        "numberOfBytes": "32"
      },
      "t_array(t_contract(IERC20Upgradeable)1478)dyn_storage": {
        "base": "t_contract(IERC20Upgradeable)1478",
        "encoding": "dynamic_array",
        "label": "contract IERC20Upgradeable[]",
        "numberOfBytes": "32"
      },
      "t_array(t_uint256)49_storage": {
        "base": "t_uint256",
        "encoding": "inplace",
        "label": "uint256[49]",
        "numberOfBytes": "1568"
      },
      "t_array(t_uint256)50_storage": {
        "base": "t_uint256",
        "encoding": "inplace",
        "label": "uint256[50]",
        "numberOfBytes": "1600"
      },
      "t_bool": {
        "encoding": "inplace",
        "label": "bool",
        "numberOfBytes": "1"
      },
      "t_bytes32": {
        "encoding": "inplace",
        "label": "bytes32",
        "numberOfBytes": "32"
      },
      "t_contract(BridgedToken)2788": {
        "encoding": "inplace",
        "label": "contract BridgedToken",
        "numberOfBytes": "20"
      },
      "t_contract(EthereumLightClient)3614": {
        "encoding": "inplace",
        "label": "contract EthereumLightClient",
        "numberOfBytes": "20"
      },
      "t_contract(IERC20Upgradeable)1478": {
        "encoding": "inplace",
        "label": "contract IERC20Upgradeable",
        "numberOfBytes": "20"
      },
      "t_mapping(t_address,t_address)": {
        "encoding": "mapping",
        "key": "t_address",
        "label": "mapping(address => address)",
        "numberOfBytes": "32",
        "value": "t_address"
      },
      "t_mapping(t_address,t_contract(BridgedToken)2788)": {
        "encoding": "mapping",
        "key": "t_address",
        "label": "mapping(address => contract BridgedToken)",
        "numberOfBytes": "32",
        "value": "t_contract(BridgedToken)2788"
      },
      "t_mapping(t_address,t_contract(IERC20Upgradeable)1478)": {
        "encoding": "mapping",
        "key": "t_address",
        "label": "mapping(address => contract IERC20Upgradeable)",
        "numberOfBytes": "32",
        "value": "t_contract(IERC20Upgradeable)1478"
      },
      "t_mapping(t_bytes32,t_bool)": {
        "encoding": "mapping",
        "key": "t_bytes32",
        "label": "mapping(bytes32 => bool)",
        "numberOfBytes": "32",
        "value": "t_bool"
      },
      "t_uint256": {
        "encoding": "inplace",
        "label": "uint256",
        "numberOfBytes": "32"
      },
      "t_uint8": {
        "encoding": "inplace",
        "label": "uint8",
        "numberOfBytes": "1"
      }
    }
  }
}