{
  "address": "0x0b84F276Ee85dD856Fb920dE270acF388688aeeA",
  "abi": [
    {
      "anonymous": false,
      "inputs": [
        {
          "indexed": false,
          "internalType": "bytes32",
          "name": "stateRoot",
          "type": "bytes32"
        },
        {
          "indexed": false,
          "internalType": "bytes32",
          "name": "transactionsRoot",
          "type": "bytes32"
        },
        {
          "indexed": false,
          "internalType": "bytes32",
          "name": "receiptsRoot",
          "type": "bytes32"
        },
        {
          "indexed": false,
          "internalType": "uint256",
          "name": "number",
          "type": "uint256"
        },
        {
          "indexed": false,
          "internalType": "uint256",
          "name": "epoch",
          "type": "uint256"
        },
        {
          "indexed": false,
          "internalType": "uint256",
          "name": "shard",
          "type": "uint256"
        },
        {
          "indexed": false,
          "internalType": "uint256",
          "name": "time",
          "type": "uint256"
        },
        {
          "indexed": false,
          "internalType": "bytes32",
          "name": "mmrRoot",
          "type": "bytes32"
        },
        {
          "indexed": false,
          "internalType": "bytes32",
          "name": "hash",
          "type": "bytes32"
        }
      ],
      "name": "CheckPoint",
      "type": "event"
    },
    {
      "anonymous": false,
      "inputs": [
        {
          "indexed": false,
          "internalType": "uint8",
          "name": "version",
          "type": "uint8"
        }
      ],
      "name": "Initialized",
      "type": "event"
    },
    {
      "anonymous": false,
      "inputs": [
        {
          "indexed": false,
          "internalType": "address",
          "name": "account",
          "type": "address"
        }
      ],
      "name": "Paused",
      "type": "event"
    },
    {
      "anonymous": false,
      "inputs": [
        {
          "indexed": false,
          "internalType": "address",
          "name": "relayer",
          "type": "address"
        }
      ],
      "name": "RelayerAdded",
      "type": "event"
    },
    {
      "anonymous": false,
      "inputs": [
        {
          "indexed": false,
          "internalType": "address",
          "name": "relayer",
          "type": "address"
        }
      ],
      "name": "RelayerRemoved",
      "type": "event"
    },
    {
      "anonymous": false,
      "inputs": [
        {
          "indexed": false,
          "internalType": "uint256",
          "name": "newThreshold",
          "type": "uint256"
        }
      ],
      "name": "RelayerThresholdChanged",
      "type": "event"
    },
    {
      "anonymous": false,
      "inputs": [
        {
          "indexed": true,
          "internalType": "bytes32",
          "name": "role",
          "type": "bytes32"
        },
        {
          "indexed": true,
          "internalType": "bytes32",
          "name": "previousAdminRole",
          "type": "bytes32"
        },
        {
          "indexed": true,
          "internalType": "bytes32",
          "name": "newAdminRole",
          "type": "bytes32"
        }
      ],
      "name": "RoleAdminChanged",
      "type": "event"
    },
    {
      "anonymous": false,
      "inputs": [
        {
          "indexed": true,
          "internalType": "bytes32",
          "name": "role",
          "type": "bytes32"
        },
        {
          "indexed": true,
          "internalType": "address",
          "name": "account",
          "type": "address"
        },
        {
          "indexed": true,
          "internalType": "address",
          "name": "sender",
          "type": "address"
        }
      ],
      "name": "RoleGranted",
      "type": "event"
    },
    {
      "anonymous": false,
      "inputs": [
        {
          "indexed": true,
          "internalType": "bytes32",
          "name": "role",
          "type": "bytes32"
        },
        {
          "indexed": true,
          "internalType": "address",
          "name": "account",
          "type": "address"
        },
        {
          "indexed": true,
          "internalType": "address",
          "name": "sender",
          "type": "address"
        }
      ],
      "name": "RoleRevoked",
      "type": "event"
    },
    {
      "anonymous": false,
      "inputs": [
        {
          "indexed": false,
          "internalType": "address",
          "name": "account",
          "type": "address"
        }
      ],
      "name": "Unpaused",
      "type": "event"
    },
    {
      "inputs": [],
      "name": "DEFAULT_ADMIN_ROLE",
      "outputs": [
        {
          "internalType": "bytes32",
          "name": "",
          "type": "bytes32"
        }
      ],
      "stateMutability": "view",
      "type": "function"
    },
    {
      "inputs": [],
      "name": "RELAYER_ROLE",
      "outputs": [
        {
          "internalType": "bytes32",
          "name": "",
          "type": "bytes32"
        }
      ],
      "stateMutability": "view",
      "type": "function"
    },
    {
      "inputs": [
        {
          "internalType": "address",
          "name": "relayerAddress",
          "type": "address"
        }
      ],
      "name": "adminAddRelayer",
      "outputs": [],
      "stateMutability": "nonpayable",
      "type": "function"
    },
    {
      "inputs": [
        {
          "internalType": "uint256",
          "name": "newThreshold",
          "type": "uint256"
        }
      ],
      "name": "adminChangeRelayerThreshold",
      "outputs": [],
      "stateMutability": "nonpayable",
      "type": "function"
    },
    {
      "inputs": [],
      "name": "adminPauseLightClient",
      "outputs": [],
      "stateMutability": "nonpayable",
      "type": "function"
    },
    {
      "inputs": [
        {
          "internalType": "address",
          "name": "relayerAddress",
          "type": "address"
        }
      ],
      "name": "adminRemoveRelayer",
      "outputs": [],
      "stateMutability": "nonpayable",
      "type": "function"
    },
    {
      "inputs": [],
      "name": "adminUnpauseLightClient",
      "outputs": [],
      "stateMutability": "nonpayable",
      "type": "function"
    },
    {
      "inputs": [
        {
          "internalType": "uint256",
          "name": "blockNumber",
          "type": "uint256"
        },
        {
          "internalType": "uint256",
          "name": "epoch",
          "type": "uint256"
        }
      ],
      "name": "getLatestCheckPoint",
      "outputs": [
        {
          "components": [
            {
              "internalType": "bytes32",
              "name": "parentHash",
              "type": "bytes32"
            },
            {
              "internalType": "bytes32",
              "name": "stateRoot",
              "type": "bytes32"
            },
            {
              "internalType": "bytes32",
              "name": "transactionsRoot",
              "type": "bytes32"
            },
            {
              "internalType": "bytes32",
              "name": "receiptsRoot",
              "type": "bytes32"
            },
            {
              "internalType": "uint256",
              "name": "number",
              "type": "uint256"
            },
            {
              "internalType": "uint256",
              "name": "epoch",
              "type": "uint256"
            },
            {
              "internalType": "uint256",
              "name": "shard",
              "type": "uint256"
            },
            {
              "internalType": "uint256",
              "name": "time",
              "type": "uint256"
            },
            {
              "internalType": "bytes32",
              "name": "mmrRoot",
              "type": "bytes32"
            },
            {
              "internalType": "bytes32",
              "name": "hash",
              "type": "bytes32"
            }
          ],
          "internalType": "struct HarmonyLightClient.BlockHeader",
          "name": "checkPointBlock",
          "type": "tuple"
        }
      ],
      "stateMutability": "view",
      "type": "function"
    },
    {
      "inputs": [
        {
          "internalType": "bytes32",
          "name": "role",
          "type": "bytes32"
        }
      ],
      "name": "getRoleAdmin",
      "outputs": [
        {
          "internalType": "bytes32",
          "name": "",
          "type": "bytes32"
        }
      ],
      "stateMutability": "view",
      "type": "function"
    },
    {
      "inputs": [
        {
          "internalType": "bytes32",
          "name": "role",
          "type": "bytes32"
        },
        {
          "internalType": "address",
          "name": "account",
          "type": "address"
        }
      ],
      "name": "grantRole",
      "outputs": [],
      "stateMutability": "nonpayable",
      "type": "function"
    },
    {
      "inputs": [
        {
          "internalType": "bytes32",
          "name": "role",
          "type": "bytes32"
        },
        {
          "internalType": "address",
          "name": "account",
          "type": "address"
        }
      ],
      "name": "hasRole",
      "outputs": [
        {
          "internalType": "bool",
          "name": "",
          "type": "bool"
        }
      ],
      "stateMutability": "view",
      "type": "function"
    },
    {
      "inputs": [
        {
          "internalType": "bytes",
          "name": "firstRlpHeader",
          "type": "bytes"
        },
        {
          "internalType": "address[]",
          "name": "initialRelayers",
          "type": "address[]"
        },
        {
          "internalType": "uint8",
          "name": "initialRelayerThreshold",
          "type": "uint8"
        }
      ],
      "name": "initialize",
      "outputs": [],
      "stateMutability": "nonpayable",
      "type": "function"
    },
    {
      "inputs": [
        {
          "internalType": "uint256",
          "name": "epoch",
          "type": "uint256"
        },
        {
          "internalType": "bytes32",
          "name": "mmrRoot",
          "type": "bytes32"
        }
      ],
      "name": "isValidCheckPoint",
      "outputs": [
        {
          "internalType": "bool",
          "name": "status",
          "type": "bool"
        }
      ],
      "stateMutability": "view",
      "type": "function"
    },
    {
      "inputs": [],
      "name": "oldestEpochStored",
      "outputs": [
        {
          "internalType": "uint256",
          "name": "",
          "type": "uint256"
        }
      ],
      "stateMutability": "view",
      "type": "function"
    },
    {
      "inputs": [],
      "name": "paused",
      "outputs": [
        {
          "internalType": "bool",
          "name": "",
          "type": "bool"
        }
      ],
      "stateMutability": "view",
      "type": "function"
    },
    {
      "inputs": [
        {
          "internalType": "address",
          "name": "newAdmin",
          "type": "address"
        }
      ],
      "name": "renounceAdmin",
      "outputs": [],
      "stateMutability": "nonpayable",
      "type": "function"
    },
    {
      "inputs": [
        {
          "internalType": "bytes32",
          "name": "role",
          "type": "bytes32"
        },
        {
          "internalType": "address",
          "name": "account",
          "type": "address"
        }
      ],
      "name": "renounceRole",
      "outputs": [],
      "stateMutability": "nonpayable",
      "type": "function"
    },
    {
      "inputs": [
        {
          "internalType": "bytes32",
          "name": "role",
          "type": "bytes32"
        },
        {
          "internalType": "address",
          "name": "account",
          "type": "address"
        }
      ],
      "name": "revokeRole",
      "outputs": [],
      "stateMutability": "nonpayable",
      "type": "function"
    },
    {
      "inputs": [
        {
          "internalType": "bytes",
          "name": "rlpHeader",
          "type": "bytes"
        }
      ],
      "name": "submitCheckpoint",
      "outputs": [],
      "stateMutability": "nonpayable",
      "type": "function"
    },
    {
      "inputs": [
        {
          "internalType": "bytes4",
          "name": "interfaceId",
          "type": "bytes4"
        }
      ],
      "name": "supportsInterface",
      "outputs": [
        {
          "internalType": "bool",
          "name": "",
          "type": "bool"
        }
      ],
      "stateMutability": "view",
      "type": "function"
    }
  ],
  "transactionHash": "0x88ddcd0e2927bd919b2f49314a037ab19c9bb711479991c8f4264c0878ca5ef7",
  "args": [],
  "numDeployments": 1,
  "solcInputHash": "86432957dcf7303426f9d8474ed8507d",
  "bytecode": "0x608060405234801561001057600080fd5b506123b8806100206000396000f3fe608060405234801561001057600080fd5b506004361061012c5760003560e01c806391d14854116100ad578063b0b731ed11610071578063b0b731ed146102e0578063cdb0f73a146102e9578063d03684d0146102fc578063d547741f14610304578063f38918401461031757600080fd5b806391d1485414610211578063926d7d7f146102245780639d82dd6314610239578063a05ee81b1461024c578063a217fddf146102d857600080fd5b806336568abe116100f457806336568abe146101ba5780634628fdcd146101cd5780634e056005146101e05780635c975abb146101f35780635e1fab0f146101fe57600080fd5b806301ffc9a71461013157806306220d7514610159578063242e39701461016e578063248a9ca3146101765780632f2ff15d146101a7575b600080fd5b61014461013f366004611da1565b610345565b60405190151581526020015b60405180910390f35b61016c610167366004611eaa565b61037c565b005b61016c61056b565b610199610184366004611f8b565b60009081526097602052604090206001015490565b604051908152602001610150565b61016c6101b5366004611fa4565b6105a5565b61016c6101c8366004611fa4565b6105cf565b61016c6101db366004611fd0565b61064d565b61016c6101ee366004611f8b565b6108d6565b60335460ff16610144565b61016c61020c36600461200d565b610951565b61014461021f366004611fa4565b6109e1565b61019960008051602061236383398151915281565b61016c61024736600461200d565b610a0c565b61025f61025a366004612028565b610ae8565b6040516101509190600061014082019050825182526020830151602083015260408301516040830152606083015160608301526080830151608083015260a083015160a083015260c083015160c083015260e083015160e083015261010080840151818401525061012080840151818401525092915050565b610199600081565b61019960e15481565b61016c6102f736600461200d565b610c86565b61016c610d63565b61016c610312366004611fa4565b610d92565b610144610325366004612028565b600091825260df6020908152604080842092845291905290205460ff1690565b60006001600160e01b03198216637965db0b60e01b148061037657506301ffc9a760e01b6001600160e01b03198316145b92915050565b60006103886001610db7565b905080156103a0576000805461ff0019166101001790555b60006103ab85610e44565b60208181015160c955606082015160ca55608082015160cb5560a082015160cc5561012082015160cd5561020082015160ce5561022082015160cf5561018082015160d055610320820151015190915060d1908155815160d29081556102008301805160e1819055600090815260dd6020908152604080832061012088018051825460018082018555938752858720015551845260de835281842060c954815560ca548183015560cb54600282015560cc54600382015560cd54600482015560ce54600582015560cf54600682015560d05460078201558754600882015595546009909601959095559251825260df815282822094548252939093528220805460ff19908116909217905560e0805490911660ff86161790556104ce90336112f7565b60005b845181101561051d5761050b6000805160206123638339815191528683815181106104fe576104fe61204a565b60200260200101516105a5565b8061051581612076565b9150506104d1565b50508015610565576000805461ff0019169055604051600181527f7f26b83ff96e1f2b6a682f133852f6798a09c465da95921460cefb38474024989060200160405180910390a15b50505050565b6105766000336109e1565b61059b5760405162461bcd60e51b815260040161059290612091565b60405180910390fd5b6105a3611301565b565b6000828152609760205260409020600101546105c081611399565b6105ca83836113a3565b505050565b6001600160a01b038116331461063f5760405162461bcd60e51b815260206004820152602f60248201527f416363657373436f6e74726f6c3a2063616e206f6e6c792072656e6f756e636560448201526e103937b632b9903337b91039b2b63360891b6064820152608401610592565b6106498282611429565b5050565b610665600080516020612363833981519152336109e1565b6106b15760405162461bcd60e51b815260206004820181905260248201527f73656e64657220646f65736e277420686176652072656c6179657220726f6c656044820152606401610592565b60335460ff16156106f75760405162461bcd60e51b815260206004820152601060248201526f14185d5cd8589b194e881c185d5cd95960821b6044820152606401610592565b61070c61070762278d00426120c8565b611490565b600061071782610e44565b9050610721611d1f565b602082810151825260608084015183830152608080850151604085015260a08086015192850192909252610120850151908401526102008401519083015261022083015160c083015261018083015160e083015261032083015101516101008201908152825161012080840191825261020085018051600090815260dd602090815260408083209489018051865460018181018955978652848620015551835260de825280832088518155828901805182880155828a018051600284015560608b018051600385015560808c018051600486015560a08d018051600587015560c08e018051600688015560e08f01805160078901558e5160088901558d516009909801979097559951895260df88528689208d518a5290975296859020805460ff191690991790985590519051965194519351955191519851975192517ed0e403b7c92f922cadd67ebdffb53f40b9d84bca356c7a3f641a589e64fab4996108c99992989794909291988952602089019790975260408801959095526060870193909352608086019190915260a085015260c084015260e08301526101008201526101200190565b60405180910390a1505050565b6108e16000336109e1565b6108fd5760405162461bcd60e51b815260040161059290612091565b61090681611561565b60e0805460ff191660ff929092169190911790556040518181527fa20d6b84cd798a24038be305eff8a45ca82ef54a2aa2082005d8e14c0a4746c8906020015b60405180910390a150565b61095c6000336109e1565b6109785760405162461bcd60e51b815260040161059290612091565b336001600160a01b03821614156109c85760405162461bcd60e51b815260206004820152601460248201527331b0b73737ba103932b737bab731b29039b2b63360611b6044820152606401610592565b6109d36000826105a5565b6109de6000336105cf565b50565b60009182526097602090815260408084206001600160a01b0393909316845291905290205460ff1690565b610a176000336109e1565b610a335760405162461bcd60e51b815260040161059290612091565b610a4b600080516020612363833981519152826109e1565b610a975760405162461bcd60e51b815260206004820152601f60248201527f6164647220646f65736e277420686176652072656c6179657220726f6c6521006044820152606401610592565b610aaf60008051602061236383398151915282610d92565b6040516001600160a01b03821681527f10e1f7ce9fd7d1b90a66d13a2ab3cb8dd7f29f3f8d520b143b063ccfbab6906b90602001610946565b610af0611d1f565b600082815260dd6020526040902054610b4b5760405162461bcd60e51b815260206004820152601860248201527f6e6f20636865636b706f696e747320666f722065706f636800000000000000006044820152606401610592565b600082815260dd6020908152604080832080548251818502810185019093528083529192909190830182828015610ba157602002820191906000526020600020905b815481526020019060010190808311610b8d575b505050505090506000805b8251811015610bfd576000838281518110610bc957610bc961204a565b602002602001015190508681118015610be157508281105b15610bea578092505b5080610bf581612076565b915050610bac565b50600090815260de6020908152604091829020825161014081018452815481526001820154928101929092526002810154928201929092526003820154606082015260048201546080820152600582015460a0820152600682015460c0820152600782015460e08201526008820154610100820152600990910154610120820152949350505050565b610c916000336109e1565b610cad5760405162461bcd60e51b815260040161059290612091565b610cc5600080516020612363833981519152826109e1565b15610d125760405162461bcd60e51b815260206004820152601e60248201527f6164647220616c7265616479206861732072656c6179657220726f6c652100006044820152606401610592565b610d2a600080516020612363833981519152826105a5565b6040516001600160a01b03821681527f03580ee9f53a62b7cb409a2cb56f9be87747dd15017afc5cef6eef321e4fb2c590602001610946565b610d6e6000336109e1565b610d8a5760405162461bcd60e51b815260040161059290612091565b6105a36115b8565b600082815260976020526040902060010154610dad81611399565b6105ca8383611429565b60008054610100900460ff1615610dfe578160ff166001148015610dda5750303b155b610df65760405162461bcd60e51b8152600401610592906120df565b506000919050565b60005460ff808416911610610e255760405162461bcd60e51b8152600401610592906120df565b506000805460ff191660ff92909216919091179055600190565b919050565b610f2b604051806103400160405280600080191681526020016000801916815260200160006001600160a01b0316815260200160008019168152602001600080191681526020016000801916815260200160008019168152602001600080191681526020016060815260200160008152602001600081526020016000815260200160008152602001606081526020016000801916815260200160008152602001600081526020016000815260200160608152602001606081526020016060815260200160608152602001606081526020016060815260200160608152602001606081525090565b6000610f66610f618460408051808201825260008082526020918201528151808301909252825182529182019181019190915290565b611632565b9050610f718161169e565b50610f7b8161169e565b50610f88610f618261169e565b905060005b610f96826116fb565b156112e55780610fbb57610fb1610fac8361169e565b61171f565b60208401526112d3565b8060011415610fe857610fd5610fd08361169e565b61179a565b6001600160a01b031660408401526112d3565b806002141561100757610ffd610fac8361169e565b60608401526112d3565b80600314156110265761101c610fac8361169e565b60808401526112d3565b80600414156110455761103b610fac8361169e565b60a08401526112d3565b80600514156110645761105a610fac8361169e565b60c08401526112d3565b806006141561108357611079610fac8361169e565b60e08401526112d3565b80600714156110a85761109d6110988361169e565b6117b4565b6101008401526112d3565b80600814156110c8576110bd610fac8361169e565b6101208401526112d3565b80600914156110e8576110dd610fac8361169e565b6101408401526112d3565b80600a1415611108576110fd610fac8361169e565b6101608401526112d3565b80600b14156111285761111d610fac8361169e565b6101808401526112d3565b80600c14156111485761113d6110988361169e565b6101a08401526112d3565b80600d14156111685761115d610fac8361169e565b6101c08401526112d3565b80600e14156111885761117d610fac8361169e565b6101e08401526112d3565b80600f14156111a85761119d610fac8361169e565b6102008401526112d3565b80601014156111c8576111bd610fac8361169e565b6102208401526112d3565b80601114156111e8576111dd6110988361169e565b6102408401526112d3565b8060121415611208576111fd6110988361169e565b6102608401526112d3565b80601314156112285761121d6110988361169e565b6102808401526112d3565b80601414156112485761123d6110988361169e565b6102a08401526112d3565b80601514156112685761125d6110988361169e565b6102c08401526112d3565b80601614156112885761127d6110988361169e565b6102e08401526112d3565b80601714156112a85761129d6110988361169e565b6103008401526112d3565b80601814156112c8576112bd6110988361169e565b6103208401526112d3565b6112d18261169e565b505b806112dd81612076565b915050610f8d565b50508151602090920191909120815290565b61064982826113a3565b60335460ff16156113475760405162461bcd60e51b815260206004820152601060248201526f14185d5cd8589b194e881c185d5cd95960821b6044820152606401610592565b6033805460ff191660011790557f62e78cea01bee320cd4e420270b5ea74000d11b0c9f74754ebdbfc544b05a25861137c3390565b6040516001600160a01b03909116815260200160405180910390a1565b6109de8133611851565b6113ad82826109e1565b6106495760008281526097602090815260408083206001600160a01b03851684529091529020805460ff191660011790556113e53390565b6001600160a01b0316816001600160a01b0316837f2f8788117e7eff1d82e926ec794901d17c78024a50270940304540a733656f0d60405160405180910390a45050565b61143382826109e1565b156106495760008281526097602090815260408083206001600160a01b0385168085529252808320805460ff1916905551339285917ff6391f5c32d9c69d2a47ea670b442974b53935d1edc7fd64eb21e047a839171b9190a45050565b60e154600081815260dd60205260409020546114aa575050565b60005b6002811015611550576000826114c281612076565b600081815260dd602052604090208054919550919250806114e557505050611550565b8560de6000846114f66001866120c8565b815481106115065761150661204a565b9060005260206000200154815260200190815260200160002060070154111561153157505050611550565b61153a836118b5565b505050808061154890612076565b9150506114ad565b5060e1548111156106495760e15550565b600061010082106115b45760405162461bcd60e51b815260206004820152601c60248201527f76616c756520646f6573206e6f742066697420696e20382062697473000000006044820152606401610592565b5090565b60335460ff166116015760405162461bcd60e51b815260206004820152601460248201527314185d5cd8589b194e881b9bdd081c185d5cd95960621b6044820152606401610592565b6033805460ff191690557f5db9ee0a495bf2e6ff9c91a7834c1ba4fdd244a5e8aa4e537bd38aeae4b073aa3361137c565b604080516080810182526000918101828152606082018390528152602081019190915261165e82611986565b61166757600080fd5b600061167683602001516119bf565b8360200151611685919061212d565b6040805180820190915293845260208401525090919050565b60408051808201909152600080825260208201526116bb826116fb565b6116c457600080fd5b602082015160006116d482611a41565b90506116e0818361212d565b60209485015260408051808201909152908152928301525090565b805180516020820151600092916117119161212d565b836020015110915050919050565b80516000901580159061173457508151602110155b61173d57600080fd5b600061174c83602001516119bf565b9050600081846000015161176091906120c8565b9050600080838660200151611775919061212d565b905080519150602083101561179157826020036101000a820491505b50949350505050565b80516000906015146117ab57600080fd5b6103768261171f565b80516060906117c257600080fd5b60006117d183602001516119bf565b905060008184600001516117e591906120c8565b905060008167ffffffffffffffff81111561180257611802611dcb565b6040519080825280601f01601f19166020018201604052801561182c576020820181803683370190505b509050600081602001905061179184876020015161184a919061212d565b8285611aea565b61185b82826109e1565b61064957611873816001600160a01b03166014611b83565b61187e836020611b83565b60405160200161188f929190612171565b60408051601f198184030181529082905262461bcd60e51b8252610592916004016121e6565b600081815260dd60205260408120905b815481101561196e5760008282815481106118e2576118e261204a565b6000918252602080832090910154825260de815260408083206008810180548583556001830186905560028301869055600383018690556004830186905560058301869055600683018690556007830186905590859055600990910184905587845260df83528184209084529091529020805460ff19169055508061196681612076565b9150506118c5565b50600082815260dd6020526040812061064991611d73565b805160009061199757506000919050565b6020820151805160001a9060c08210156119b5575060009392505050565b5060019392505050565b8051600090811a60808110156119d85750600092915050565b60b88110806119f3575060c081108015906119f3575060f881105b15611a015750600192915050565b60c0811015611a3557611a16600160b8612219565b611a239060ff16826120c8565b611a2e90600161212d565b9392505050565b611a16600160f8612219565b80516000908190811a6080811015611a5c5760019150611ae3565b60b8811015611a8257611a706080826120c8565b611a7b90600161212d565b9150611ae3565b60c0811015611aaf5760b78103600185019450806020036101000a85510460018201810193505050611ae3565b60f8811015611ac357611a7060c0826120c8565b60f78103600185019450806020036101000a855104600182018101935050505b5092915050565b80611af457505050565b60208110611b2c5782518252611b0b60208461212d565b9250611b1860208361212d565b9150611b256020826120c8565b9050611af4565b80156105ca5760208110611b4c57611b4660016020612219565b60ff1690505b60006001611b5b8360206120c8565b611b6790610100612320565b611b7191906120c8565b84518451821691191617835250505050565b60606000611b9283600261232c565b611b9d90600261212d565b67ffffffffffffffff811115611bb557611bb5611dcb565b6040519080825280601f01601f191660200182016040528015611bdf576020820181803683370190505b509050600360fc1b81600081518110611bfa57611bfa61204a565b60200101906001600160f81b031916908160001a905350600f60fb1b81600181518110611c2957611c2961204a565b60200101906001600160f81b031916908160001a9053506000611c4d84600261232c565b611c5890600161212d565b90505b6001811115611cd0576f181899199a1a9b1b9c1cb0b131b232b360811b85600f1660108110611c8c57611c8c61204a565b1a60f81b828281518110611ca257611ca261204a565b60200101906001600160f81b031916908160001a90535060049490941c93611cc98161234b565b9050611c5b565b508315611a2e5760405162461bcd60e51b815260206004820181905260248201527f537472696e67733a20686578206c656e67746820696e73756666696369656e746044820152606401610592565b6040805161014081018252600080825260208201819052918101829052606081018290526080810182905260a0810182905260c0810182905260e08101829052610100810182905261012081019190915290565b50805460008255906000526020600020908101906109de91905b808211156115b45760008155600101611d8d565b600060208284031215611db357600080fd5b81356001600160e01b031981168114611a2e57600080fd5b634e487b7160e01b600052604160045260246000fd5b604051601f8201601f1916810167ffffffffffffffff81118282101715611e0a57611e0a611dcb565b604052919050565b600082601f830112611e2357600080fd5b813567ffffffffffffffff811115611e3d57611e3d611dcb565b611e50601f8201601f1916602001611de1565b818152846020838601011115611e6557600080fd5b816020850160208301376000918101602001919091529392505050565b80356001600160a01b0381168114610e3f57600080fd5b803560ff81168114610e3f57600080fd5b600080600060608486031215611ebf57600080fd5b833567ffffffffffffffff80821115611ed757600080fd5b611ee387838801611e12565b9450602091508186013581811115611efa57600080fd5b8601601f81018813611f0b57600080fd5b803582811115611f1d57611f1d611dcb565b8060051b9250611f2e848401611de1565b818152928201840192848101908a851115611f4857600080fd5b928501925b84841015611f6d57611f5e84611e82565b82529285019290850190611f4d565b809750505050505050611f8260408501611e99565b90509250925092565b600060208284031215611f9d57600080fd5b5035919050565b60008060408385031215611fb757600080fd5b82359150611fc760208401611e82565b90509250929050565b600060208284031215611fe257600080fd5b813567ffffffffffffffff811115611ff957600080fd5b61200584828501611e12565b949350505050565b60006020828403121561201f57600080fd5b611a2e82611e82565b6000806040838503121561203b57600080fd5b50508035926020909101359150565b634e487b7160e01b600052603260045260246000fd5b634e487b7160e01b600052601160045260246000fd5b600060001982141561208a5761208a612060565b5060010190565b6020808252601e908201527f73656e64657220646f65736e277420686176652061646d696e20726f6c650000604082015260600190565b6000828210156120da576120da612060565b500390565b6020808252602e908201527f496e697469616c697a61626c653a20636f6e747261637420697320616c72656160408201526d191e481a5b9a5d1a585b1a5e995960921b606082015260800190565b6000821982111561214057612140612060565b500190565b60005b83811015612160578181015183820152602001612148565b838111156105655750506000910152565b7f416363657373436f6e74726f6c3a206163636f756e74200000000000000000008152600083516121a9816017850160208801612145565b7001034b99036b4b9b9b4b733903937b6329607d1b60179184019182015283516121da816028840160208801612145565b01602801949350505050565b6020815260008251806020840152612205816040850160208701612145565b601f01601f19169190910160400192915050565b600060ff821660ff84168082101561223357612233612060565b90039392505050565b600181815b8085111561227757816000190482111561225d5761225d612060565b8085161561226a57918102915b93841c9390800290612241565b509250929050565b60008261228e57506001610376565b8161229b57506000610376565b81600181146122b157600281146122bb576122d7565b6001915050610376565b60ff8411156122cc576122cc612060565b50506001821b610376565b5060208310610133831016604e8410600b84101617156122fa575081810a610376565b612304838361223c565b806000190482111561231857612318612060565b029392505050565b6000611a2e838361227f565b600081600019048311821515161561234657612346612060565b500290565b60008161235a5761235a612060565b50600019019056fee2b7fb3b832174769106daebcfd6d1970523240dda11281102db9363b83b0dc4a2646970667358221220b8849597694078f675fa039402a589afa6d7aad9db6f6c35030a60c35ec7f7f764736f6c63430008090033",
  "devdoc": {
    "kind": "dev",
    "methods": {
      "getRoleAdmin(bytes32)": {
        "details": "Returns the admin role that controls `role`. See {grantRole} and {revokeRole}. To change a role's admin, use {_setRoleAdmin}."
      },
      "grantRole(bytes32,address)": {
        "details": "Grants `role` to `account`. If `account` had not been already granted `role`, emits a {RoleGranted} event. Requirements: - the caller must have ``role``'s admin role."
      },
      "hasRole(bytes32,address)": {
        "details": "Returns `true` if `account` has been granted `role`."
      },
      "paused()": {
        "details": "Returns true if the contract is paused, and false otherwise."
      },
      "renounceRole(bytes32,address)": {
        "details": "Revokes `role` from the calling account. Roles are often managed via {grantRole} and {revokeRole}: this function's purpose is to provide a mechanism for accounts to lose their privileges if they are compromised (such as when a trusted device is misplaced). If the calling account had been revoked `role`, emits a {RoleRevoked} event. Requirements: - the caller must be `account`."
      },
      "revokeRole(bytes32,address)": {
        "details": "Revokes `role` from `account`. If `account` had been granted `role`, emits a {RoleRevoked} event. Requirements: - the caller must have ``role``'s admin role."
      },
      "supportsInterface(bytes4)": {
        "details": "See {IERC165-supportsInterface}."
      }
    },
    "version": 1
  },
  "userdoc": {
    "kind": "user",
    "methods": {},
    "version": 1
  },
  "storageLayout": {
    "storage": [
      {
        "astId": 543,
        "contract": "contracts/HarmonyLightClient.sol:HarmonyLightClient",
        "label": "_initialized",
        "offset": 0,
        "slot": "0",
        "type": "t_uint8"
      },
      {
        "astId": 546,
        "contract": "contracts/HarmonyLightClient.sol:HarmonyLightClient",
        "label": "_initializing",
        "offset": 1,
        "slot": "0",
        "type": "t_bool"
      },
      {
        "astId": 2075,
        "contract": "contracts/HarmonyLightClient.sol:HarmonyLightClient",
        "label": "__gap",
        "offset": 0,
        "slot": "1",
        "type": "t_array(t_uint256)50_storage"
      },
      {
        "astId": 699,
        "contract": "contracts/HarmonyLightClient.sol:HarmonyLightClient",
        "label": "_paused",
        "offset": 0,
        "slot": "51",
        "type": "t_bool"
      },
      {
        "astId": 788,
        "contract": "contracts/HarmonyLightClient.sol:HarmonyLightClient",
        "label": "__gap",
        "offset": 0,
        "slot": "52",
        "type": "t_array(t_uint256)49_storage"
      },
      {
        "astId": 2415,
        "contract": "contracts/HarmonyLightClient.sol:HarmonyLightClient",
        "label": "__gap",
        "offset": 0,
        "slot": "101",
        "type": "t_array(t_uint256)50_storage"
      },
      {
        "astId": 39,
        "contract": "contracts/HarmonyLightClient.sol:HarmonyLightClient",
        "label": "_roles",
        "offset": 0,
        "slot": "151",
        "type": "t_mapping(t_bytes32,t_struct(RoleData)34_storage)"
      },
      {
        "astId": 338,
        "contract": "contracts/HarmonyLightClient.sol:HarmonyLightClient",
        "label": "__gap",
        "offset": 0,
        "slot": "152",
        "type": "t_array(t_uint256)49_storage"
      },
      {
        "astId": 5181,
        "contract": "contracts/HarmonyLightClient.sol:HarmonyLightClient",
        "label": "firstBlock",
        "offset": 0,
        "slot": "201",
        "type": "t_struct(BlockHeader)5158_storage"
      },
      {
        "astId": 5184,
        "contract": "contracts/HarmonyLightClient.sol:HarmonyLightClient",
        "label": "lastCheckPointBlock",
        "offset": 0,
        "slot": "211",
        "type": "t_struct(BlockHeader)5158_storage"
      },
      {
        "astId": 5189,
        "contract": "contracts/HarmonyLightClient.sol:HarmonyLightClient",
        "label": "epochCheckPointBlockNumbers",
        "offset": 0,
        "slot": "221",
        "type": "t_mapping(t_uint256,t_array(t_uint256)dyn_storage)"
      },
      {
        "astId": 5194,
        "contract": "contracts/HarmonyLightClient.sol:HarmonyLightClient",
        "label": "checkPointBlocks",
        "offset": 0,
        "slot": "222",
        "type": "t_mapping(t_uint256,t_struct(BlockHeader)5158_storage)"
      },
      {
        "astId": 5200,
        "contract": "contracts/HarmonyLightClient.sol:HarmonyLightClient",
        "label": "epochMmrRoots",
        "offset": 0,
        "slot": "223",
        "type": "t_mapping(t_uint256,t_mapping(t_bytes32,t_bool))"
      },
      {
        "astId": 5202,
        "contract": "contracts/HarmonyLightClient.sol:HarmonyLightClient",
        "label": "relayerThreshold",
        "offset": 0,
        "slot": "224",
        "type": "t_uint8"
      },
      {
        "astId": 5221,
        "contract": "contracts/HarmonyLightClient.sol:HarmonyLightClient",
        "label": "oldestEpochStored",
        "offset": 0,
        "slot": "225",
        "type": "t_uint256"
      }
    ],
    "types": {
      "t_address": {
        "encoding": "inplace",
        "label": "address",
        "numberOfBytes": "20"
      },
      "t_array(t_uint256)49_storage": {
        "base": "t_uint256",
        "encoding": "inplace",
        "label": "uint256[49]",
        "numberOfBytes": "1568"
      },
      "t_array(t_uint256)50_storage": {
        "base": "t_uint256",
        "encoding": "inplace",
        "label": "uint256[50]",
        "numberOfBytes": "1600"
      },
      "t_array(t_uint256)dyn_storage": {
        "base": "t_uint256",
        "encoding": "dynamic_array",
        "label": "uint256[]",
        "numberOfBytes": "32"
      },
      "t_bool": {
        "encoding": "inplace",
        "label": "bool",
        "numberOfBytes": "1"
      },
      "t_bytes32": {
        "encoding": "inplace",
        "label": "bytes32",
        "numberOfBytes": "32"
      },
      "t_mapping(t_address,t_bool)": {
        "encoding": "mapping",
        "key": "t_address",
        "label": "mapping(address => bool)",
        "numberOfBytes": "32",
        "value": "t_bool"
      },
      "t_mapping(t_bytes32,t_bool)": {
        "encoding": "mapping",
        "key": "t_bytes32",
        "label": "mapping(bytes32 => bool)",
        "numberOfBytes": "32",
        "value": "t_bool"
      },
      "t_mapping(t_bytes32,t_struct(RoleData)34_storage)": {
        "encoding": "mapping",
        "key": "t_bytes32",
        "label": "mapping(bytes32 => struct AccessControlUpgradeable.RoleData)",
        "numberOfBytes": "32",
        "value": "t_struct(RoleData)34_storage"
      },
      "t_mapping(t_uint256,t_array(t_uint256)dyn_storage)": {
        "encoding": "mapping",
        "key": "t_uint256",
        "label": "mapping(uint256 => uint256[])",
        "numberOfBytes": "32",
        "value": "t_array(t_uint256)dyn_storage"
      },
      "t_mapping(t_uint256,t_mapping(t_bytes32,t_bool))": {
        "encoding": "mapping",
        "key": "t_uint256",
        "label": "mapping(uint256 => mapping(bytes32 => bool))",
        "numberOfBytes": "32",
        "value": "t_mapping(t_bytes32,t_bool)"
      },
      "t_mapping(t_uint256,t_struct(BlockHeader)5158_storage)": {
        "encoding": "mapping",
        "key": "t_uint256",
        "label": "mapping(uint256 => struct HarmonyLightClient.BlockHeader)",
        "numberOfBytes": "32",
        "value": "t_struct(BlockHeader)5158_storage"
      },
      "t_struct(BlockHeader)5158_storage": {
        "encoding": "inplace",
        "label": "struct HarmonyLightClient.BlockHeader",
        "members": [
          {
            "astId": 5139,
            "contract": "contracts/HarmonyLightClient.sol:HarmonyLightClient",
            "label": "parentHash",
            "offset": 0,
            "slot": "0",
            "type": "t_bytes32"
          },
          {
            "astId": 5141,
            "contract": "contracts/HarmonyLightClient.sol:HarmonyLightClient",
            "label": "stateRoot",
            "offset": 0,
            "slot": "1",
            "type": "t_bytes32"
          },
          {
            "astId": 5143,
            "contract": "contracts/HarmonyLightClient.sol:HarmonyLightClient",
            "label": "transactionsRoot",
            "offset": 0,
            "slot": "2",
            "type": "t_bytes32"
          },
          {
            "astId": 5145,
            "contract": "contracts/HarmonyLightClient.sol:HarmonyLightClient",
            "label": "receiptsRoot",
            "offset": 0,
            "slot": "3",
            "type": "t_bytes32"
          },
          {
            "astId": 5147,
            "contract": "contracts/HarmonyLightClient.sol:HarmonyLightClient",
            "label": "number",
            "offset": 0,
            "slot": "4",
            "type": "t_uint256"
          },
          {
            "astId": 5149,
            "contract": "contracts/HarmonyLightClient.sol:HarmonyLightClient",
            "label": "epoch",
            "offset": 0,
            "slot": "5",
            "type": "t_uint256"
          },
          {
            "astId": 5151,
            "contract": "contracts/HarmonyLightClient.sol:HarmonyLightClient",
            "label": "shard",
            "offset": 0,
            "slot": "6",
            "type": "t_uint256"
          },
          {
            "astId": 5153,
            "contract": "contracts/HarmonyLightClient.sol:HarmonyLightClient",
            "label": "time",
            "offset": 0,
            "slot": "7",
            "type": "t_uint256"
          },
          {
            "astId": 5155,
            "contract": "contracts/HarmonyLightClient.sol:HarmonyLightClient",
            "label": "mmrRoot",
            "offset": 0,
            "slot": "8",
            "type": "t_bytes32"
          },
          {
            "astId": 5157,
            "contract": "contracts/HarmonyLightClient.sol:HarmonyLightClient",
            "label": "hash",
            "offset": 0,
            "slot": "9",
            "type": "t_bytes32"
          }
        ],
        "numberOfBytes": "320"
      },
      "t_struct(RoleData)34_storage": {
        "encoding": "inplace",
        "label": "struct AccessControlUpgradeable.RoleData",
        "members": [
          {
            "astId": 31,
            "contract": "contracts/HarmonyLightClient.sol:HarmonyLightClient",
            "label": "members",
            "offset": 0,
            "slot": "0",
            "type": "t_mapping(t_address,t_bool)"
          },
          {
            "astId": 33,
            "contract": "contracts/HarmonyLightClient.sol:HarmonyLightClient",
            "label": "adminRole",
            "offset": 0,
            "slot": "1",
            "type": "t_bytes32"
          }
        ],
        "numberOfBytes": "64"
      },
      "t_uint256": {
        "encoding": "inplace",
        "label": "uint256",
        "numberOfBytes": "32"
      },
      "t_uint8": {
        "encoding": "inplace",
        "label": "uint8",
        "numberOfBytes": "1"
      }
    }
  }
}