{
  "address": "0x9fE46736679d2D9a65F0992F2272dE9f3c7fa6e0",
  "abi": [
    {
      "anonymous": false,
      "inputs": [
        {
          "indexed": true,
          "internalType": "address",
          "name": "token",
          "type": "address"
        },
        {
          "indexed": true,
          "internalType": "address",
          "name": "sender",
          "type": "address"
        },
        {
          "indexed": false,
          "internalType": "uint256",
          "name": "amount",
          "type": "uint256"
        },
        {
          "indexed": false,
          "internalType": "address",
          "name": "recipient",
          "type": "address"
        }
      ],
      "name": "Burn",
      "type": "event"
    },
    {
      "anonymous": false,
      "inputs": [
        {
          "indexed": false,
          "internalType": "uint8",
          "name": "version",
          "type": "uint8"
        }
      ],
      "name": "Initialized",
      "type": "event"
    },
    {
      "anonymous": false,
      "inputs": [
        {
          "indexed": true,
          "internalType": "address",
          "name": "token",
          "type": "address"
        },
        {
          "indexed": true,
          "internalType": "address",
          "name": "sender",
          "type": "address"
        },
        {
          "indexed": false,
          "internalType": "uint256",
          "name": "amount",
          "type": "uint256"
        },
        {
          "indexed": false,
          "internalType": "address",
          "name": "recipient",
          "type": "address"
        }
      ],
      "name": "Locked",
      "type": "event"
    },
    {
      "anonymous": false,
      "inputs": [
        {
          "indexed": true,
          "internalType": "address",
          "name": "previousOwner",
          "type": "address"
        },
        {
          "indexed": true,
          "internalType": "address",
          "name": "newOwner",
          "type": "address"
        }
      ],
      "name": "OwnershipTransferred",
      "type": "event"
    },
    {
      "anonymous": false,
      "inputs": [
        {
          "indexed": true,
          "internalType": "address",
          "name": "tokenReq",
          "type": "address"
        },
        {
          "indexed": true,
          "internalType": "address",
          "name": "tokenAck",
          "type": "address"
        }
      ],
      "name": "TokenMapAck",
      "type": "event"
    },
    {
      "anonymous": false,
      "inputs": [
        {
          "indexed": true,
          "internalType": "address",
          "name": "tokenReq",
          "type": "address"
        },
        {
          "indexed": true,
          "internalType": "uint8",
          "name": "decimals",
          "type": "uint8"
        },
        {
          "indexed": false,
          "internalType": "string",
          "name": "name",
          "type": "string"
        },
        {
          "indexed": false,
          "internalType": "string",
          "name": "symbol",
          "type": "string"
        }
      ],
      "name": "TokenMapReq",
      "type": "event"
    },
    {
      "inputs": [
        {
          "internalType": "address",
          "name": "",
          "type": "address"
        }
      ],
      "name": "RxMapped",
      "outputs": [
        {
          "internalType": "contract BridgedToken",
          "name": "",
          "type": "address"
        }
      ],
      "stateMutability": "view",
      "type": "function"
    },
    {
      "inputs": [
        {
          "internalType": "address",
          "name": "",
          "type": "address"
        }
      ],
      "name": "RxMappedInv",
      "outputs": [
        {
          "internalType": "address",
          "name": "",
          "type": "address"
        }
      ],
      "stateMutability": "view",
      "type": "function"
    },
    {
      "inputs": [
        {
          "internalType": "uint256",
          "name": "",
          "type": "uint256"
        }
      ],
      "name": "RxTokens",
      "outputs": [
        {
          "internalType": "contract BridgedToken",
          "name": "",
          "type": "address"
        }
      ],
      "stateMutability": "view",
      "type": "function"
    },
    {
      "inputs": [
        {
          "internalType": "address",
          "name": "",
          "type": "address"
        }
      ],
      "name": "TxMapped",
      "outputs": [
        {
          "internalType": "address",
          "name": "",
          "type": "address"
        }
      ],
      "stateMutability": "view",
      "type": "function"
    },
    {
      "inputs": [
        {
          "internalType": "address",
          "name": "",
          "type": "address"
        }
      ],
      "name": "TxMappedInv",
      "outputs": [
        {
          "internalType": "contract IERC20Upgradeable",
          "name": "",
          "type": "address"
        }
      ],
      "stateMutability": "view",
      "type": "function"
    },
    {
      "inputs": [
        {
          "internalType": "uint256",
          "name": "",
          "type": "uint256"
        }
      ],
      "name": "TxTokens",
      "outputs": [
        {
          "internalType": "contract IERC20Upgradeable",
          "name": "",
          "type": "address"
        }
      ],
      "stateMutability": "view",
      "type": "function"
    },
    {
      "inputs": [
        {
          "internalType": "address",
          "name": "otherSide",
          "type": "address"
        }
      ],
      "name": "bind",
      "outputs": [],
      "stateMutability": "nonpayable",
      "type": "function"
    },
    {
      "inputs": [
        {
          "internalType": "contract HarmonyLightClient",
          "name": "newClient",
          "type": "address"
        }
      ],
      "name": "changeLightClient",
      "outputs": [],
      "stateMutability": "nonpayable",
      "type": "function"
    },
    {
      "inputs": [],
      "name": "initialize",
      "outputs": [],
      "stateMutability": "nonpayable",
      "type": "function"
    },
    {
      "inputs": [
        {
          "internalType": "contract ERC20Upgradeable",
          "name": "thisSideToken",
          "type": "address"
        }
      ],
      "name": "issueTokenMapReq",
      "outputs": [],
      "stateMutability": "nonpayable",
      "type": "function"
    },
    {
      "inputs": [],
      "name": "lightclient",
      "outputs": [
        {
          "internalType": "contract HarmonyLightClient",
          "name": "",
          "type": "address"
        }
      ],
      "stateMutability": "view",
      "type": "function"
    },
    {
      "inputs": [
        {
          "internalType": "contract IERC20Upgradeable",
          "name": "token",
          "type": "address"
        },
        {
          "internalType": "address",
          "name": "recipient",
          "type": "address"
        },
        {
          "internalType": "uint256",
          "name": "amount",
          "type": "uint256"
        }
      ],
      "name": "lock",
      "outputs": [],
      "stateMutability": "nonpayable",
      "type": "function"
    },
    {
      "inputs": [],
      "name": "otherSideBridge",
      "outputs": [
        {
          "internalType": "address",
          "name": "",
          "type": "address"
        }
      ],
      "stateMutability": "view",
      "type": "function"
    },
    {
      "inputs": [],
      "name": "owner",
      "outputs": [
        {
          "internalType": "address",
          "name": "",
          "type": "address"
        }
      ],
      "stateMutability": "view",
      "type": "function"
    },
    {
      "inputs": [],
      "name": "renounceOwnership",
      "outputs": [],
      "stateMutability": "nonpayable",
      "type": "function"
    },
    {
      "inputs": [
        {
          "internalType": "bytes32",
          "name": "",
          "type": "bytes32"
        }
      ],
      "name": "spentReceipt",
      "outputs": [
        {
          "internalType": "bool",
          "name": "",
          "type": "bool"
        }
      ],
      "stateMutability": "view",
      "type": "function"
    },
    {
      "inputs": [],
      "name": "totalBridgedTokens",
      "outputs": [
        {
          "internalType": "uint256",
          "name": "",
          "type": "uint256"
        },
        {
          "internalType": "uint256",
          "name": "",
          "type": "uint256"
        }
      ],
      "stateMutability": "view",
      "type": "function"
    },
    {
      "inputs": [
        {
          "internalType": "address",
          "name": "newOwner",
          "type": "address"
        }
      ],
      "name": "transferOwnership",
      "outputs": [],
      "stateMutability": "nonpayable",
      "type": "function"
    },
    {
      "inputs": [
        {
          "internalType": "contract BridgedToken",
          "name": "token",
          "type": "address"
        },
        {
          "internalType": "address",
          "name": "recipient",
          "type": "address"
        },
        {
          "internalType": "uint256",
          "name": "amount",
          "type": "uint256"
        }
      ],
      "name": "unlock",
      "outputs": [],
      "stateMutability": "nonpayable",
      "type": "function"
    },
    {
      "inputs": [
        {
          "components": [
            {
              "internalType": "bytes32",
              "name": "hash",
              "type": "bytes32"
            },
            {
              "internalType": "bytes32",
              "name": "parentHash",
              "type": "bytes32"
            },
            {
              "internalType": "address",
              "name": "miner",
              "type": "address"
            },
            {
              "internalType": "bytes32",
              "name": "stateRoot",
              "type": "bytes32"
            },
            {
              "internalType": "bytes32",
              "name": "transactionsRoot",
              "type": "bytes32"
            },
            {
              "internalType": "bytes32",
              "name": "receiptsRoot",
              "type": "bytes32"
            },
            {
              "internalType": "bytes32",
              "name": "outgoingReceiptsRoot",
              "type": "bytes32"
            },
            {
              "internalType": "bytes32",
              "name": "incomingReceiptsRoot",
              "type": "bytes32"
            },
            {
              "internalType": "bytes",
              "name": "logsBloom",
              "type": "bytes"
            },
            {
              "internalType": "uint256",
              "name": "number",
              "type": "uint256"
            },
            {
              "internalType": "uint256",
              "name": "gasLimit",
              "type": "uint256"
            },
            {
              "internalType": "uint256",
              "name": "gasUsed",
              "type": "uint256"
            },
            {
              "internalType": "uint256",
              "name": "timestamp",
              "type": "uint256"
            },
            {
              "internalType": "bytes",
              "name": "extraData",
              "type": "bytes"
            },
            {
              "internalType": "bytes32",
              "name": "mixHash",
              "type": "bytes32"
            },
            {
              "internalType": "uint256",
              "name": "viewID",
              "type": "uint256"
            },
            {
              "internalType": "uint256",
              "name": "epoch",
              "type": "uint256"
            },
            {
              "internalType": "uint256",
              "name": "shardID",
              "type": "uint256"
            },
            {
              "internalType": "bytes",
              "name": "lastCommitSignature",
              "type": "bytes"
            },
            {
              "internalType": "bytes",
              "name": "lastCommitBitmap",
              "type": "bytes"
            },
            {
              "internalType": "bytes",
              "name": "vrf",
              "type": "bytes"
            },
            {
              "internalType": "bytes",
              "name": "vdf",
              "type": "bytes"
            },
            {
              "internalType": "bytes",
              "name": "shardState",
              "type": "bytes"
            },
            {
              "internalType": "bytes",
              "name": "crossLink",
              "type": "bytes"
            },
            {
              "internalType": "bytes",
              "name": "slashes",
              "type": "bytes"
            },
            {
              "internalType": "bytes",
              "name": "mmrRoot",
              "type": "bytes"
            }
          ],
          "internalType": "struct HarmonyParser.BlockHeader",
          "name": "header",
          "type": "tuple"
        },
        {
          "components": [
            {
              "internalType": "bytes32",
              "name": "root",
              "type": "bytes32"
            },
            {
              "internalType": "uint256",
              "name": "width",
              "type": "uint256"
            },
            {
              "internalType": "uint256",
              "name": "index",
              "type": "uint256"
            },
            {
              "internalType": "bytes32[]",
              "name": "peaks",
              "type": "bytes32[]"
            },
            {
              "internalType": "bytes32[]",
              "name": "siblings",
              "type": "bytes32[]"
            }
          ],
          "internalType": "struct MMRVerifier.MMRProof",
          "name": "mmrProof",
          "type": "tuple"
        },
        {
          "components": [
            {
              "internalType": "bytes32",
              "name": "root",
              "type": "bytes32"
            },
            {
              "internalType": "uint256",
              "name": "paths",
              "type": "uint256"
            },
            {
              "internalType": "bytes",
              "name": "proof",
              "type": "bytes"
            }
          ],
          "internalType": "struct HarmonyProver.MerkleProof",
          "name": "receiptdata",
          "type": "tuple"
        }
      ],
      "name": "validateAndExecuteProof",
      "outputs": [],
      "stateMutability": "nonpayable",
      "type": "function"
    }
  ],
  "transactionHash": "0x28c3a59edd914e6c16d3b4f4f10d090dcd2b81f4094efc410d1764ce2990ac65",
  "args": [],
  "numDeployments": 1,
  "solcInputHash": "56d31fe3045434843aeef6e823a5eaad",
  "bytecode": "0x608060405234801561001057600080fd5b50615303806100206000396000f3fe608060405234801561001057600080fd5b506004361061012c5760003560e01c80638487b9cf116100ad578063cd06c3a111610071578063cd06c3a11461028b578063d650d3f7146102a6578063e05bdaf7146102cf578063e71575e8146102f8578063f2fde38b1461032157600080fd5b80638487b9cf146101f85780638ab3124a146102215780638da5cb5b14610254578063ae24fbb414610265578063bf21980b1461027857600080fd5b80636aa92327116100f45780636aa92327146101af578063715018a6146101c25780637750c9f0146101ca5780638129fc1c146101dd57806381bac14f146101e557600080fd5b80631b7f3e231461013157806335c6814d146101615780634ae83c8e146101745780634d2be8e51461018957806359508f8f1461019c575b600080fd5b606b54610144906001600160a01b031681565b6040516001600160a01b0390911681526020015b60405180910390f35b61014461016f366004613592565b610334565b6101876101823660046135c0565b61035e565b005b600654610144906001600160a01b031681565b6101876101aa3660046135e8565b610573565b6101876101bd3660046138a8565b6106d4565b610187610973565b6101876101d83660046135e8565b6109a9565b610187610bc9565b6101876101f33660046135c0565b610c44565b6101446102063660046135c0565b6005602052600090815260409020546001600160a01b031681565b61024461022f366004613592565b606c6020526000908152604090205460ff1681565b6040519015158152602001610158565b6039546001600160a01b0316610144565b610144610273366004613592565b610c90565b6101876102863660046135c0565b610ca0565b60005460015460408051928352602083019190915201610158565b6101446102b43660046135c0565b6003602052600090815260409020546001600160a01b031681565b6101446102dd3660046135c0565b6004602052600090815260409020546001600160a01b031681565b6101446103063660046135c0565b6002602052600090815260409020546001600160a01b031681565b61018761032f3660046135c0565b610cec565b6001818154811061034457600080fd5b6000918252602090912001546001600160a01b0316905081565b6001600160a01b0381811660009081526002602052604090205416156103cb5760405162461bcd60e51b815260206004820152601760248201527f746f6b656e20697320616c7265616479206d617070656400000000000000000060448201526064015b60405180910390fd5b6000819050806001600160a01b031663313ce5676040518163ffffffff1660e01b815260040160206040518083038186803b15801561040957600080fd5b505afa15801561041d573d6000803e3d6000fd5b505050506040513d601f19601f820116820180604052508101906104419190613b6b565b60ff16826001600160a01b03167fc13b93ab57586894396c38a46a06c88056fdbb23c7c595f8d08274f9a8593a42836001600160a01b03166306fdde036040518163ffffffff1660e01b815260040160006040518083038186803b1580156104a857600080fd5b505afa1580156104bc573d6000803e3d6000fd5b505050506040513d6000823e601f3d908101601f191682016040526104e49190810190613bff565b846001600160a01b03166395d89b416040518163ffffffff1660e01b815260040160006040518083038186803b15801561051d57600080fd5b505afa158015610531573d6000803e3d6000fd5b505050506040513d6000823e601f3d908101601f191682016040526105599190810190613bff565b604051610567929190613c5f565b60405180910390a35050565b6001600160a01b0382166105c95760405162461bcd60e51b815260206004820152601b60248201527f726563697069656e742069732061207a65726f2061646472657373000000000060448201526064016103c2565b6001600160a01b03838116600090815260056020526040902054166106285760405162461bcd60e51b8152602060048201526015602482015274189c9a5919d948191bd95cc81b9bdd08195e1a5cdd605a1b60448201526064016103c2565b60405163079cc67960e41b8152336004820152602481018290526001600160a01b038416906379cc679090604401600060405180830381600087803b15801561067057600080fd5b505af1158015610684573d6000803e3d6000fd5b5050604080518481526001600160a01b038681166020830152339450871692507f3dd1df88dc92e2788892542d81f999d720a44b4c127065d45c128f4f59fdc373910160405180910390a3505050565b606b5461020084015183516040516303ce246160e61b8152600481019290925260248201526001600160a01b039091169063f38918409060440160206040518083038186803b15801561072657600080fd5b505afa15801561073a573d6000803e3d6000fd5b505050506040513d601f19601f8201168201806040525081019061075e9190613c8d565b6107aa5760405162461bcd60e51b815260206004820152601c60248201527f636865636b706f696e742076616c69646174696f6e206661696c65640000000060448201526064016103c2565b60006107b584610d84565b60a08501519091506000806107ca8787610d9d565b8651919350915083146108145760405162461bcd60e51b81526020600482015260126024820152711a5b9d985b1a59081c1c9bdbd9881c9bdbdd60721b60448201526064016103c2565b8161086c5760405162461bcd60e51b815260206004820152602260248201527f626c6f636b2068656164657220636f756c64206e6f7420626520766572696669604482015261195960f21b60648201526084016103c2565b602080860151604080519283018790528201859052606082015260009060800160408051601f1981840301815291815281516020928301206000818152606c90935291205490915060ff16156108f45760405162461bcd60e51b815260206004820152600d60248201526c646f75626c65207370656e742160981b60448201526064016103c2565b6000818152606c60205260408120805460ff191660011790556109178988610e7b565b9050600061092482610ef0565b9050600081116109675760405162461bcd60e51b815260206004820152600e60248201526d1b9bc81d985b1a5908195d995b9d60921b60448201526064016103c2565b50505050505050505050565b6039546001600160a01b0316331461099d5760405162461bcd60e51b81526004016103c290613caf565b6109a76000611239565b565b6001600160a01b0382166109ff5760405162461bcd60e51b815260206004820152601b60248201527f726563697069656e742069732061207a65726f2061646472657373000000000060448201526064016103c2565b6001600160a01b0383811660009081526002602052604090205416610a5e5760405162461bcd60e51b8152602060048201526015602482015274189c9a5919d948191bd95cc81b9bdd08195e1a5cdd605a1b60448201526064016103c2565b6040516370a0823160e01b81523060048201526000906001600160a01b038516906370a082319060240160206040518083038186803b158015610aa057600080fd5b505afa158015610ab4573d6000803e3d6000fd5b505050506040513d601f19601f82011682018060405250810190610ad89190613ce4565b9050610aef6001600160a01b03851633308561128b565b6040516370a0823160e01b81523060048201526000906001600160a01b038616906370a082319060240160206040518083038186803b158015610b3157600080fd5b505afa158015610b45573d6000803e3d6000fd5b505050506040513d601f19601f82011682018060405250810190610b699190613ce4565b90506000610b7782846112fc565b604080518281526001600160a01b03888116602083015292935033928916917f4c6ab40ee4cfa212a441d32ee2897945b4a52461284f9369e23fdf8faa6cdd69910160405180910390a3505050505050565b6000610bd56001611308565b90508015610bf1576006805460ff60a81b1916600160a81b1790555b610bf96113aa565b8015610c41576006805460ff60a81b19169055604051600181527f7f26b83ff96e1f2b6a682f133852f6798a09c465da95921460cefb38474024989060200160405180910390a15b50565b6039546001600160a01b03163314610c6e5760405162461bcd60e51b81526004016103c290613caf565b600680546001600160a01b0319166001600160a01b0392909216919091179055565b6000818154811061034457600080fd5b6039546001600160a01b03163314610cca5760405162461bcd60e51b81526004016103c290613caf565b606b80546001600160a01b0319166001600160a01b0392909216919091179055565b6039546001600160a01b03163314610d165760405162461bcd60e51b81526004016103c290613caf565b6001600160a01b038116610d7b5760405162461bcd60e51b815260206004820152602660248201527f4f776e61626c653a206e6577206f776e657220697320746865207a65726f206160448201526564647265737360d01b60648201526084016103c2565b610c4181611239565b6000610d8f826113db565b805190602001209050919050565b600060606000610dac85610d84565b85519091508114610df657505060408051808201909152601b81527f4865616465722064617461206f72206861736820696e76616c69640000000000602082015260009150610e74565b610e1884600001518560200151866040015184886060015189608001516118d3565b925082610e5e57505060408051808201909152601c81527f766572696679486561646572202d20696e76616c69642070726f6f6600000000602082015260009150610e74565b5050604080516020810190915260008152600191505b9250929050565b805160a083015160609114610ede5760405162461bcd60e51b8152602060048201526024808201527f76657269667952656365697074202d20646966666572656e74207472696520726044820152636f6f747360e01b60648201526084016103c2565b610ee782611d1f565b90505b92915050565b600080610efc83611d38565b90506000610f2382600081518110610f1657610f16613cfd565b6020026020010151611dd0565b905080600114610f665760405162461bcd60e51b815260206004820152600e60248201526d1c995d995c9d081c9958d95a5c1d60921b60448201526064016103c2565b6000610f8b83600381518110610f7e57610f7e613cfd565b6020026020010151611e4b565b905060005b8151811015611230576000610fb0838381518110610f7e57610f7e613cfd565b90506000610fd782600081518110610fca57610fca613cfd565b6020026020010151611f60565b6006549091506001600160a01b03808316911614610ff657505061121e565b600061100e83600181518110610f7e57610f7e613cfd565b9050600081516001600160401b0381111561102b5761102b613629565b604051908082528060200260200182016040528015611054578160200160208202803683370190505b50905060005b82518110156110aa57611078838281518110610f1657610f16613cfd565b60001b82828151811061108d5761108d613cfd565b6020908102919091010152806110a281613d29565b91505061105a565b5060006110d0856002815181106110c3576110c3613cfd565b6020026020010151611f7a565b90507f4c6ab40ee4cfa212a441d32ee2897945b4a52461284f9369e23fdf8faa6cdd698260008151811061110657611106613cfd565b602002602001015114156111355761111e8282612016565b8961112881613d29565b9a5050505050505061121e565b7f3dd1df88dc92e2788892542d81f999d720a44b4c127065d45c128f4f59fdc3738260008151811061116957611169613cfd565b602002602001015114156111815761111e82826120d8565b7fc13b93ab57586894396c38a46a06c88056fdbb23c7c595f8d08274f9a8593a42826000815181106111b5576111b5613cfd565b602002602001015114156111cd5761111e8282612145565b7f78591f651c27eef63481b7fd779e44c2426cbe82c7050fe9bc90b6707efbc3d38260008151811061120157611201613cfd565b602002602001015114156112185761111e82612357565b50505050505b8061122881613d29565b915050610f90565b50505050919050565b603980546001600160a01b038381166001600160a01b0319831681179093556040519116919082907f8be0079c531659141344cd1fd0a4f28419497f9722a3daafe3b4186f6b6457e090600090a35050565b6040516001600160a01b03808516602483015283166044820152606481018290526112f69085906323b872dd60e01b906084015b60408051601f198184030181529190526020810180516001600160e01b03166001600160e01b031990931692909217909152612485565b50505050565b6000610ee78284613d44565b600654600090600160a81b900460ff1615611353578160ff16600114801561132f5750303b155b61134b5760405162461bcd60e51b81526004016103c290613d5b565b506000919050565b60065460ff808416600160a01b90920416106113815760405162461bcd60e51b81526004016103c290613d5b565b506006805460ff909216600160a01b0260ff60a01b19909216919091179055600190565b919050565b600654600160a81b900460ff166113d35760405162461bcd60e51b81526004016103c290613da9565b6109a761255c565b60408051600f808252610200820190925260609160009190816020015b60608152602001906001900390816113f857905050905061143d836020015160405160200161142991815260200190565b60405160208183030381529060405261258e565b8160008151811061145057611450613cfd565b602002602001018190525061146883604001516125de565b8160018151811061147b5761147b613cfd565b60200260200101819052506114a0836060015160405160200161142991815260200190565b816002815181106114b3576114b3613cfd565b60200260200101819052506114d8836080015160405160200161142991815260200190565b816003815181106114eb576114eb613cfd565b60200260200101819052506115108360a0015160405160200161142991815260200190565b8160048151811061152357611523613cfd565b60200260200101819052506115488360c0015160405160200161142991815260200190565b8160058151811061155b5761155b613cfd565b60200260200101819052506115808360e0015160405160200161142991815260200190565b8160068151811061159357611593613cfd565b60200260200101819052506115ac83610100015161258e565b816007815181106115bf576115bf613cfd565b60200260200101819052506115d8836101200151612601565b816008815181106115eb576115eb613cfd565b6020026020010181905250611604836101400151612601565b8160098151811061161757611617613cfd565b6020026020010181905250611630836101600151612601565b81600a8151811061164357611643613cfd565b602002602001018190525061165c836101800151612601565b81600b8151811061166f5761166f613cfd565b6020026020010181905250611688836101a0015161258e565b81600c8151811061169b5761169b613cfd565b60200260200101819052506116c1836101c0015160405160200161142991815260200190565b81600d815181106116d4576116d4613cfd565b60200260200101819052506116ed836101e00151612601565b81600e8151811061170057611700613cfd565b6020026020010181905250611719836102000151612601565b81600f8151811061172c5761172c613cfd565b6020026020010181905250611745836102200151612601565b8160108151811061175857611758613cfd565b602002602001018190525061177183610240015161258e565b8160118151811061178457611784613cfd565b602002602001018190525061179d83610260015161258e565b816012815181106117b0576117b0613cfd565b60200260200101819052506117c983610280015161258e565b816013815181106117dc576117dc613cfd565b60200260200101819052506117f5836102a0015161258e565b8160148151811061180857611808613cfd565b6020026020010181905250611821836102c0015161258e565b8160158151811061183457611834613cfd565b602002602001018190525061184d836102e0015161258e565b8160168151811061186057611860613cfd565b602002602001018190525061187983610300015161258e565b8160178151811061188c5761188c613cfd565b60200260200101819052506118a583610320015161258e565b816018815181106118b8576118b8613cfd565b60200260200101819052506118cc81612614565b9392505050565b6000806118df87612638565b9050858110156119295760405162461bcd60e51b8152602060048201526015602482015274496e646578206973206f7574206f662072616e676560581b60448201526064016103c2565b8360405160200161193a9190613df4565b60405160208183030381529060405280519060200120881461199e5760405162461bcd60e51b815260206004820181905260248201527f496e76616c696420726f6f7420686173682066726f6d20746865207065616b7360448201526064016103c2565b60008060006119ac8a612651565b905060005b8151811015611a41578960018383815181106119cf576119cf613cfd565b60200260200101516119e19190613d44565b10611a2f578781815181106119f8576119f8613cfd565b602002602001015192506001828281518110611a1657611a16613cfd565b6020026020010151611a289190613d44565b9350611a41565b80611a3981613d29565b9150506119b1565b5081611a855760405162461bcd60e51b815260206004820152601360248201527215185c99d95d081a5cc81b9bdd08199bdd5b99606a1b60448201526064016103c2565b600086516001611a959190613e2a565b6001600160401b03811115611aac57611aac613629565b604051908082528060200260200182016040528015611ad5578160200160208202803683370190505b509050600080600089516001611aeb9190613e42565b90505b60ff811615611b7c578684611b0283613e67565b92508260ff1681518110611b1857611b18613cfd565b6020026020010181815250508c871415611b3157611b7c565b611b44611b3f886001613e2a565b612770565b9093509150611b54600184613d44565b8d11611b6a57611b65600184613d44565b611b75565b611b75600183613d44565b9650611aee565b60005b84518260ff161015611cc157848260ff1681518110611ba057611ba0613cfd565b602002602001015197508160ff1660001415611bbd57508b611caf565b84611bc9600184613e84565b60ff1681518110611bdc57611bdc613cfd565b6020026020010151600189611bf19190613d44565b1415611c5557611c4e8b611c06600185613e84565b60ff1681518110611c1957611c19613cfd565b602002602001015182604080516020808201949094528082019290925280518083038201815260609092019052805191012090565b9050611caf565b611cac818c611c65600186613e84565b60ff1681518110611c7857611c78613cfd565b6020026020010151604080516020808201949094528082019290925280518083038201815260609092019052805191012090565b90505b81611cb981613ea7565b925050611b7f565b868114611d095760405162461bcd60e51b815260206004820152601660248201527512185cda1959081c19585ac81a5cc81a5b9d985b1a5960521b60448201526064016103c2565b5060019f9e505050505050505050505050505050565b6060610eea8260000151836020015184604001516127ed565b60606000611d6d8360408051808201825260008082526020918201528151808301909252825182529182019181019190915290565b9050607f60f81b83600081518110611d8757611d87613cfd565b01602001516001600160f81b03191611611dc757600181602001818151611dae9190613e2a565b90525080516001908290611dc3908390613d44565b9052505b6118cc81611e4b565b805160009015801590611de557508151602110155b611dee57600080fd5b6000611dfd8360200151612944565b90506000818460000151611e119190613d44565b9050600080838660200151611e269190613e2a565b9050805191506020831015611e4257826020036101000a820491505b50949350505050565b6060611e56826129c5565b611e5f57600080fd5b6000611e6a836129fe565b90506000816001600160401b03811115611e8657611e86613629565b604051908082528060200260200182016040528015611ecb57816020015b6040805180820190915260008082526020820152815260200190600190039081611ea45790505b5090506000611edd8560200151612944565b8560200151611eec9190613e2a565b90506000805b84811015611f5557611f0383612a81565b9150604051806040016040528083815260200184815250848281518110611f2c57611f2c613cfd565b6020908102919091010152611f418284613e2a565b925080611f4d81613d29565b915050611ef2565b509195945050505050565b8051600090601514611f7157600080fd5b610eea82611dd0565b8051606090611f8857600080fd5b6000611f978360200151612944565b90506000818460000151611fab9190613d44565b90506000816001600160401b03811115611fc757611fc7613629565b6040519080825280601f01601f191660200182016040528015611ff1576020820181803683370190505b5090506000816020019050611e4284876020015161200f9190613e2a565b8285612b2a565b60008260018151811061202b5761202b613cfd565b602002602001015160001c90506000808380602001905181019061204f9190613ec7565b6001600160a01b03808616600090815260046020526040902054929450909250168061207a57600080fd5b6040516340c10f1960e01b81526001600160a01b038381166004830152602482018590528216906340c10f1990604401600060405180830381600087803b1580156120c457600080fd5b505af1158015610967573d6000803e3d6000fd5b6000826001815181106120ed576120ed613cfd565b602002602001015160001c9050600080838060200190518101906121119190613ec7565b6001600160a01b038086166000908152600360205260409020549294509092501661213d818385612ba5565b505050505050565b60008260018151811061215a5761215a613cfd565b6020908102919091018101516001600160a01b038082166000908152600490935260409092205490925016156121c95760405162461bcd60e51b8152602060048201526014602482015273189c9a5919d948185b1c9958591e48195e1a5cdd60621b60448201526064016103c2565b6000836002815181106121de576121de613cfd565b602002602001015160001c9050600080848060200190518101906122029190613ef7565b60405191935091506001600160a01b03851690600090829061222390613585565b8190604051809103906000f5905080158015612243573d6000803e3d6000fd5b50604051630b127b6360e11b81529091506001600160a01b03821690631624f6c69061227790879087908a90600401613f5a565b600060405180830381600087803b15801561229157600080fd5b505af11580156122a5573d6000803e3d6000fd5b5050506001600160a01b0380831660008181526005602090815260408083208054958d166001600160a01b03199687168117909155808452600490925280832080548616851790556001805480820182559084527fb10e2d527612073b26eecdfd717e6a320cf44b4afac2b0732d9fcbe2b7fa0cf6018054909516841790945592519193507f78591f651c27eef63481b7fd779e44c2426cbe82c7050fe9bc90b6707efbc3d391a35050505050505050565b60008160018151811061236c5761236c613cfd565b602002602001015160001c905060008260028151811061238e5761238e613cfd565b6020908102919091018101516001600160a01b038481166000908152600290935260409092205490925016156124065760405162461bcd60e51b815260206004820152601e60248201527f6d697373696e67206d617070696e6720746f2061636b6e6f776c65646765000060448201526064016103c2565b6001600160a01b0391821660008181526002602090815260408083208054969095166001600160a01b0319968716811790955593825260039052918220805484168217905581546001810183559180527f290decd9548b62a8d60345a988386fc84ba6bc95484008f6362f93160ef3e563909101805490921617905550565b60006124da826040518060400160405280602081526020017f5361666545524332303a206c6f772d6c6576656c2063616c6c206661696c6564815250856001600160a01b0316612bd59092919063ffffffff16565b80519091501561255757808060200190518101906124f89190613c8d565b6125575760405162461bcd60e51b815260206004820152602a60248201527f5361666545524332303a204552433230206f7065726174696f6e20646964206e6044820152691bdd081cdd58d8d9595960b21b60648201526084016103c2565b505050565b600654600160a81b900460ff166125855760405162461bcd60e51b81526004016103c290613da9565b6109a733611239565b606080825160011480156125bd57506080836000815181106125b2576125b2613cfd565b016020015160f81c11155b156125c9575081610eea565b610ee76125d884516080612bec565b84612da2565b60408051600560a21b83186014820152603481019091526060906118cc8161258e565b6060610eea61260f83612e1f565b61258e565b6060600061262183612f53565b90506118cc612632825160c0612bec565b82612da2565b600061264382613084565b610eea90600184901b613d44565b606061265c82613084565b6001600160401b0381111561267357612673613629565b60405190808252806020026020018201604052801561269c578160200160208202803683370190505b50905060008060ff5b8015612718576126b6600182613d44565b6001901b8516156127065760016126cf81831b84613e2a565b6126d99190613d44565b91508184846126e781613d29565b9550815181106126f9576126f9613cfd565b6020026020010181815250505b8061271081613f93565b9150506126a5565b50825182146127695760405162461bcd60e51b815260206004820152601760248201527f496e76616c6964206269742063616c63756c6174696f6e00000000000000000060448201526064016103c2565b5050919050565b600080600161277e846130b7565b6127889190613e84565b60ff166001901b8361279a9190613d44565b91506127a7600184613d44565b9050808214156127e85760405162461bcd60e51b815260206004820152600c60248201526b139bdd0818481c185c995b9d60a21b60448201526064016103c2565b915091565b606060006128228360408051808201825260008082526020918201528151808301909252825182529182019181019190915290565b9050600061282f82613118565b9050600061283c836129fe565b905060005b818110156128f25761285283613184565b600888901c9790945060ff16612867856131e1565b89146128b55760405162461bcd60e51b815260206004820152601a60248201527f50726f6f664c69623a20696e76616c696420686173686c696e6b00000000000060448201526064016103c2565b6128bf85826131fc565b94506128cc600184613d44565b8210156128df576128dc85611dd0565b98505b50806128ea81613d29565b915050612841565b5085156129305760405162461bcd60e51b815260206004820152600c60248201526b0d2dcecc2d8d2c840e0c2e8d60a31b60448201526064016103c2565b61293983611f7a565b979650505050505050565b8051600090811a608081101561295d5750600092915050565b60b8811080612978575060c08110801590612978575060f881105b156129865750600192915050565b60c08110156129b35761299b600160b8613e84565b6129a89060ff1682613d44565b6118cc906001613e2a565b61299b600160f8613e84565b50919050565b80516000906129d657506000919050565b6020820151805160001a9060c08210156129f4575060009392505050565b5060019392505050565b8051600090612a0f57506000919050565b600080612a1f8460200151612944565b8460200151612a2e9190613e2a565b9050600084600001518560200151612a469190613e2a565b90505b80821015612a7857612a5a82612a81565b612a649083613e2a565b915082612a7081613d29565b935050612a49565b50909392505050565b80516000908190811a6080811015612a9c5760019150612b23565b60b8811015612ac257612ab0608082613d44565b612abb906001613e2a565b9150612b23565b60c0811015612aef5760b78103600185019450806020036101000a85510460018201810193505050612b23565b60f8811015612b0357612ab060c082613d44565b60f78103600185019450806020036101000a855104600182018101935050505b5092915050565b80612b3457505050565b60208110612b6c5782518252612b4b602084613e2a565b9250612b58602083613e2a565b9150612b65602082613d44565b9050612b34565b60006001612b7b836020613d44565b612b879061010061408e565b612b919190613d44565b935183518516941916939093179091525050565b6040516001600160a01b03831660248201526044810182905261255790849063a9059cbb60e01b906064016112bf565b6060612be4848460008561334f565b949350505050565b6060806038841015612c565760408051600180825281830190925290602082018180368337019050509050612c218385613e2a565b601f1a60f81b81600081518110612c3a57612c3a613cfd565b60200101906001600160f81b031916908160001a905350610ee7565b600060015b612c6581876140b0565b15612c8b5781612c7481613d29565b9250612c849050610100826140c4565b9050612c5b565b612c96826001613e2a565b6001600160401b03811115612cad57612cad613629565b6040519080825280601f01601f191660200182016040528015612cd7576020820181803683370190505b509250612ce48583613e2a565b612cef906037613e2a565b601f1a60f81b83600081518110612d0857612d08613cfd565b60200101906001600160f81b031916908160001a905350600190505b818111612d9957610100612d388284613d44565b612d449061010061408e565b612d4e90886140b0565b612d5891906140e3565b601f1a60f81b838281518110612d7057612d70613cfd565b60200101906001600160f81b031916908160001a90535080612d9181613d29565b915050612d24565b50509392505050565b6060806040519050835180825260208201818101602087015b81831015612dd3578051835260209283019201612dbb565b50855184518101855292509050808201602086015b81831015612e00578051835260209283019201612de8565b508651929092011591909101601f01601f191660405250905092915050565b6040805160208082528183019092526060916000919060208201818036833701905050905082602082015260005b6020811015612e9357818181518110612e6857612e68613cfd565b01602001516001600160f81b03191615612e8157612e93565b80612e8b81613d29565b915050612e4d565b6000612ea0826020613d44565b6001600160401b03811115612eb757612eb7613629565b6040519080825280601f01601f191660200182016040528015612ee1576020820181803683370190505b50905060005b8151811015611e42578383612efb81613d29565b945081518110612f0d57612f0d613cfd565b602001015160f81c60f81b828281518110612f2a57612f2a613cfd565b60200101906001600160f81b031916908160001a90535080612f4b81613d29565b915050612ee7565b6060815160001415612f75576040805160008082526020820190925290612b23565b6000805b8351811015612fbc57838181518110612f9457612f94613cfd565b60200260200101515182612fa89190613e2a565b915080612fb481613d29565b915050612f79565b6000826001600160401b03811115612fd657612fd6613629565b6040519080825280601f01601f191660200182016040528015613000576020820181803683370190505b50600092509050602081015b8551831015611e4257600086848151811061302957613029613cfd565b60200260200101519050600060208201905061304783828451613475565b87858151811061305957613059613cfd565b6020026020010151518361306d9190613e2a565b92505050828061307c90613d29565b93505061300c565b6000815b80156129bf576130996002826140e3565b600114156130af57816130ab81613d29565b9250505b60011c613088565b600081815b80821115613104576130d5600160ff851681901b613d44565b6130df9083613d44565b91506130ea826134ed565b92506130fd600160ff851681901b613d44565b90506130bc565b61310e8282613d44565b612be49084613e84565b6040805160808101825260009181018281526060820183905281526020810191909152613144826129c5565b61314d57600080fd5b600061315c8360200151612944565b836020015161316b9190613e2a565b6040805180820190915293845260208401525090919050565b60408051808201909152600080825260208201526131a182613528565b6131aa57600080fd5b602082015160006131ba82612a81565b90506131c68183613e2a565b60209485015260408051808201909152908152928301525090565b80516000906131ef57600080fd5b5080516020909101512090565b6040805180820190915260008082526020820152613219836129c5565b61326f5760405162461bcd60e51b815260206004820152602160248201527f524c504465636f646572206974657261746f72206973206e6f742061206c69736044820152601d60fa1b60648201526084016103c2565b8251602084015160009161328291613e2a565b905060006132938560200151612944565b85602001516132a29190613e2a565b90506000805b858110156132d9576132b983612a81565b91506132c58284613e2a565b9250806132d181613d29565b9150506132a8565b506132e382612a81565b9050826132f08284613e2a565b11156133325760405162461bcd60e51b8152602060048201526011602482015270524c50206974656d206f766572666c6f7760781b60448201526064016103c2565b604080518082019091529081526020810191909152949350505050565b6060824710156133b05760405162461bcd60e51b815260206004820152602660248201527f416464726573733a20696e73756666696369656e742062616c616e636520666f6044820152651c8818d85b1b60d21b60648201526084016103c2565b6001600160a01b0385163b6134075760405162461bcd60e51b815260206004820152601d60248201527f416464726573733a2063616c6c20746f206e6f6e2d636f6e747261637400000060448201526064016103c2565b600080866001600160a01b0316858760405161342391906140f7565b60006040518083038185875af1925050503d8060008114613460576040519150601f19603f3d011682016040523d82523d6000602084013e613465565b606091505b509150915061293982828661354c565b8282825b602081106134b15781518352613490602084613e2a565b925061349d602083613e2a565b91506134aa602082613d44565b9050613479565b600060016134c0836020613d44565b6134cc9061010061408e565b6134d69190613d44565b925184518416931916929092179092525050505050565b600060015b6134ff60ff821684613e2a565b600160ff83161b1161351d578061351581613ea7565b9150506134f2565b6118cc600182613e84565b8051805160208201516000929161353e91613e2a565b836020015110915050919050565b6060831561355b5750816118cc565b82511561356b5782518084602001fd5b8160405162461bcd60e51b81526004016103c29190614113565b6111a78061412783390190565b6000602082840312156135a457600080fd5b5035919050565b6001600160a01b0381168114610c4157600080fd5b6000602082840312156135d257600080fd5b8135610ee7816135ab565b80356113a5816135ab565b6000806000606084860312156135fd57600080fd5b8335613608816135ab565b92506020840135613618816135ab565b929592945050506040919091013590565b634e487b7160e01b600052604160045260246000fd5b60405161034081016001600160401b038111828210171561366257613662613629565b60405290565b604051601f8201601f191681016001600160401b038111828210171561369057613690613629565b604052919050565b60006001600160401b038211156136b1576136b1613629565b50601f01601f191660200190565b600082601f8301126136d057600080fd5b81356136e36136de82613698565b613668565b8181528460208386010111156136f857600080fd5b816020850160208301376000918101602001919091529392505050565b600082601f83011261372657600080fd5b813560206001600160401b0382111561374157613741613629565b8160051b613750828201613668565b928352848101820192828101908785111561376a57600080fd5b83870192505b8483101561293957823582529183019190830190613770565b600060a0828403121561379b57600080fd5b60405160a081016001600160401b0382821081831117156137be576137be613629565b8160405282935084358352602085013560208401526040850135604084015260608501359150808211156137f157600080fd5b6137fd86838701613715565b6060840152608085013591508082111561381657600080fd5b5061382385828601613715565b6080830152505092915050565b60006060828403121561384257600080fd5b604051606081016001600160401b03828210818311171561386557613865613629565b816040528293508435835260208501356020840152604085013591508082111561388e57600080fd5b5061389b858286016136bf565b6040830152505092915050565b6000806000606084860312156138bd57600080fd5b83356001600160401b03808211156138d457600080fd5b9085019061034082880312156138e957600080fd5b6138f161363f565b823581526020830135602082015261390b604084016135dd565b6040820152606083013560608201526080830135608082015260a083013560a082015260c083013560c082015260e083013560e0820152610100808401358381111561395657600080fd5b6139628a8287016136bf565b918301919091525061012083810135908201526101408084013590820152610160808401359082015261018080840135908201526101a080840135838111156139aa57600080fd5b6139b68a8287016136bf565b91830191909152506101c083810135908201526101e080840135908201526102008084013590820152610220808401359082015261024080840135838111156139fe57600080fd5b613a0a8a8287016136bf565b8284015250506102608084013583811115613a2457600080fd5b613a308a8287016136bf565b8284015250506102808084013583811115613a4a57600080fd5b613a568a8287016136bf565b8284015250506102a08084013583811115613a7057600080fd5b613a7c8a8287016136bf565b8284015250506102c08084013583811115613a9657600080fd5b613aa28a8287016136bf565b8284015250506102e08084013583811115613abc57600080fd5b613ac88a8287016136bf565b8284015250506103008084013583811115613ae257600080fd5b613aee8a8287016136bf565b8284015250506103208084013583811115613b0857600080fd5b613b148a8287016136bf565b828401525050809550506020860135915080821115613b3257600080fd5b613b3e87838801613789565b93506040860135915080821115613b5457600080fd5b50613b6186828701613830565b9150509250925092565b600060208284031215613b7d57600080fd5b815160ff81168114610ee757600080fd5b60005b83811015613ba9578181015183820152602001613b91565b838111156112f65750506000910152565b600082601f830112613bcb57600080fd5b8151613bd96136de82613698565b818152846020838601011115613bee57600080fd5b612be4826020830160208701613b8e565b600060208284031215613c1157600080fd5b81516001600160401b03811115613c2757600080fd5b612be484828501613bba565b60008151808452613c4b816020860160208601613b8e565b601f01601f19169290920160200192915050565b604081526000613c726040830185613c33565b8281036020840152613c848185613c33565b95945050505050565b600060208284031215613c9f57600080fd5b81518015158114610ee757600080fd5b6020808252818101527f4f776e61626c653a2063616c6c6572206973206e6f7420746865206f776e6572604082015260600190565b600060208284031215613cf657600080fd5b5051919050565b634e487b7160e01b600052603260045260246000fd5b634e487b7160e01b600052601160045260246000fd5b6000600019821415613d3d57613d3d613d13565b5060010190565b600082821015613d5657613d56613d13565b500390565b6020808252602e908201527f496e697469616c697a61626c653a20636f6e747261637420697320616c72656160408201526d191e481a5b9a5d1a585b1a5e995960921b606082015260800190565b6020808252602b908201527f496e697469616c697a61626c653a20636f6e7472616374206973206e6f74206960408201526a6e697469616c697a696e6760a81b606082015260800190565b815160009082906020808601845b83811015613e1e57815185529382019390820190600101613e02565b50929695505050505050565b60008219821115613e3d57613e3d613d13565b500190565b600060ff821660ff84168060ff03821115613e5f57613e5f613d13565b019392505050565b600060ff821680613e7a57613e7a613d13565b6000190192915050565b600060ff821660ff841680821015613e9e57613e9e613d13565b90039392505050565b600060ff821660ff811415613ebe57613ebe613d13565b60010192915050565b60008060408385031215613eda57600080fd5b825191506020830151613eec816135ab565b809150509250929050565b60008060408385031215613f0a57600080fd5b82516001600160401b0380821115613f2157600080fd5b613f2d86838701613bba565b93506020850151915080821115613f4357600080fd5b50613f5085828601613bba565b9150509250929050565b606081526000613f6d6060830186613c33565b8281036020840152613f7f8186613c33565b91505060ff83166040830152949350505050565b600081613fa257613fa2613d13565b506000190190565b600181815b80851115613fe5578160001904821115613fcb57613fcb613d13565b80851615613fd857918102915b93841c9390800290613faf565b509250929050565b600082613ffc57506001610eea565b8161400957506000610eea565b816001811461401f576002811461402957614045565b6001915050610eea565b60ff84111561403a5761403a613d13565b50506001821b610eea565b5060208310610133831016604e8410600b8410161715614068575081810a610eea565b6140728383613faa565b806000190482111561408657614086613d13565b029392505050565b6000610ee78383613fed565b634e487b7160e01b600052601260045260246000fd5b6000826140bf576140bf61409a565b500490565b60008160001904831182151516156140de576140de613d13565b500290565b6000826140f2576140f261409a565b500690565b60008251614109818460208701613b8e565b9190910192915050565b602081526000610ee76020830184613c3356fe608060405234801561001057600080fd5b50611187806100206000396000f3fe608060405234801561001057600080fd5b50600436106101165760003560e01c806370a08231116100a257806395d89b411161007157806395d89b411461023d578063a457c2d714610245578063a9059cbb14610258578063dd62ed3e1461026b578063f2fde38b1461027e57600080fd5b806370a08231146101de578063715018a61461020757806379cc67901461020f5780638da5cb5b1461022257600080fd5b806323b872dd116100e957806323b872dd14610183578063313ce5671461019657806339509351146101a557806340c10f19146101b857806342966c68146101cb57600080fd5b806306fdde031461011b578063095ea7b3146101395780631624f6c61461015c57806318160ddd14610171575b600080fd5b610123610291565b6040516101309190610da2565b60405180910390f35b61014c610147366004610e0e565b610323565b6040519015158152602001610130565b61016f61016a366004610edb565b61033b565b005b6035545b604051908152602001610130565b61014c610191366004610f59565b6103bd565b60405160128152602001610130565b61014c6101b3366004610e0e565b6103e1565b61016f6101c6366004610e0e565b610403565b61016f6101d9366004610f95565b610444565b6101756101ec366004610fae565b6001600160a01b031660009081526033602052604090205490565b61016f610451565b61016f61021d366004610e0e565b610487565b6097546040516001600160a01b039091168152602001610130565b61012361049c565b61014c610253366004610e0e565b6104ab565b61014c610266366004610e0e565b610526565b610175610279366004610fd0565b610534565b61016f61028c366004610fae565b61055f565b6060603680546102a090611003565b80601f01602080910402602001604051908101604052809291908181526020018280546102cc90611003565b80156103195780601f106102ee57610100808354040283529160200191610319565b820191906000526020600020905b8154815290600101906020018083116102fc57829003601f168201915b5050505050905090565b6000336103318185856105f7565b5060019392505050565b6000610347600161071c565b9050801561035f576000805461ff0019166101001790555b61036984846107a9565b6103716107da565b80156103b7576000805461ff0019169055604051600181527f7f26b83ff96e1f2b6a682f133852f6798a09c465da95921460cefb38474024989060200160405180910390a15b50505050565b6000336103cb858285610801565b6103d6858585610875565b506001949350505050565b6000336103318185856103f48383610534565b6103fe9190611054565b6105f7565b6097546001600160a01b031633146104365760405162461bcd60e51b815260040161042d9061106c565b60405180910390fd5b6104408282610a43565b5050565b61044e3382610b22565b50565b6097546001600160a01b0316331461047b5760405162461bcd60e51b815260040161042d9061106c565b6104856000610c6d565b565b610492823383610801565b6104408282610b22565b6060603780546102a090611003565b600033816104b98286610534565b9050838110156105195760405162461bcd60e51b815260206004820152602560248201527f45524332303a2064656372656173656420616c6c6f77616e63652062656c6f77604482015264207a65726f60d81b606482015260840161042d565b6103d682868684036105f7565b600033610331818585610875565b6001600160a01b03918216600090815260346020908152604080832093909416825291909152205490565b6097546001600160a01b031633146105895760405162461bcd60e51b815260040161042d9061106c565b6001600160a01b0381166105ee5760405162461bcd60e51b815260206004820152602660248201527f4f776e61626c653a206e6577206f776e657220697320746865207a65726f206160448201526564647265737360d01b606482015260840161042d565b61044e81610c6d565b6001600160a01b0383166106595760405162461bcd60e51b8152602060048201526024808201527f45524332303a20617070726f76652066726f6d20746865207a65726f206164646044820152637265737360e01b606482015260840161042d565b6001600160a01b0382166106ba5760405162461bcd60e51b815260206004820152602260248201527f45524332303a20617070726f766520746f20746865207a65726f206164647265604482015261737360f01b606482015260840161042d565b6001600160a01b0383811660008181526034602090815260408083209487168084529482529182902085905590518481527f8c5be1e5ebec7d5bd14f71427d1e84f3dd0314c0f7b2291e5b200ac8c7c3b92591015b60405180910390a3505050565b60008054610100900460ff1615610763578160ff16600114801561073f5750303b155b61075b5760405162461bcd60e51b815260040161042d906110a1565b506000919050565b60005460ff80841691161061078a5760405162461bcd60e51b815260040161042d906110a1565b506000805460ff191660ff92909216919091179055600190565b919050565b600054610100900460ff166107d05760405162461bcd60e51b815260040161042d906110ef565b6104408282610cbf565b600054610100900460ff166104855760405162461bcd60e51b815260040161042d906110ef565b600061080d8484610534565b905060001981146103b757818110156108685760405162461bcd60e51b815260206004820152601d60248201527f45524332303a20696e73756666696369656e7420616c6c6f77616e6365000000604482015260640161042d565b6103b784848484036105f7565b6001600160a01b0383166108d95760405162461bcd60e51b815260206004820152602560248201527f45524332303a207472616e736665722066726f6d20746865207a65726f206164604482015264647265737360d81b606482015260840161042d565b6001600160a01b03821661093b5760405162461bcd60e51b815260206004820152602360248201527f45524332303a207472616e7366657220746f20746865207a65726f206164647260448201526265737360e81b606482015260840161042d565b6001600160a01b038316600090815260336020526040902054818110156109b35760405162461bcd60e51b815260206004820152602660248201527f45524332303a207472616e7366657220616d6f756e7420657863656564732062604482015265616c616e636560d01b606482015260840161042d565b6001600160a01b038085166000908152603360205260408082208585039055918516815290812080548492906109ea908490611054565b92505081905550826001600160a01b0316846001600160a01b03167fddf252ad1be2c89b69c2b068fc378daa952ba7f163c4a11628f55a4df523b3ef84604051610a3691815260200190565b60405180910390a36103b7565b6001600160a01b038216610a995760405162461bcd60e51b815260206004820152601f60248201527f45524332303a206d696e7420746f20746865207a65726f206164647265737300604482015260640161042d565b8060356000828254610aab9190611054565b90915550506001600160a01b03821660009081526033602052604081208054839290610ad8908490611054565b90915550506040518181526001600160a01b038316906000907fddf252ad1be2c89b69c2b068fc378daa952ba7f163c4a11628f55a4df523b3ef9060200160405180910390a35050565b6001600160a01b038216610b825760405162461bcd60e51b815260206004820152602160248201527f45524332303a206275726e2066726f6d20746865207a65726f206164647265736044820152607360f81b606482015260840161042d565b6001600160a01b03821660009081526033602052604090205481811015610bf65760405162461bcd60e51b815260206004820152602260248201527f45524332303a206275726e20616d6f756e7420657863656564732062616c616e604482015261636560f01b606482015260840161042d565b6001600160a01b0383166000908152603360205260408120838303905560358054849290610c2590849061113a565b90915550506040518281526000906001600160a01b038516907fddf252ad1be2c89b69c2b068fc378daa952ba7f163c4a11628f55a4df523b3ef9060200161070f565b505050565b609780546001600160a01b038381166001600160a01b0319831681179093556040519116919082907f8be0079c531659141344cd1fd0a4f28419497f9722a3daafe3b4186f6b6457e090600090a35050565b600054610100900460ff16610ce65760405162461bcd60e51b815260040161042d906110ef565b8151610cf9906036906020850190610d09565b508051610c689060379060208401905b828054610d1590611003565b90600052602060002090601f016020900481019282610d375760008555610d7d565b82601f10610d5057805160ff1916838001178555610d7d565b82800160010185558215610d7d579182015b82811115610d7d578251825591602001919060010190610d62565b50610d89929150610d8d565b5090565b5b80821115610d895760008155600101610d8e565b600060208083528351808285015260005b81811015610dcf57858101830151858201604001528201610db3565b81811115610de1576000604083870101525b50601f01601f1916929092016040019392505050565b80356001600160a01b03811681146107a457600080fd5b60008060408385031215610e2157600080fd5b610e2a83610df7565b946020939093013593505050565b634e487b7160e01b600052604160045260246000fd5b600082601f830112610e5f57600080fd5b813567ffffffffffffffff80821115610e7a57610e7a610e38565b604051601f8301601f19908116603f01168101908282118183101715610ea257610ea2610e38565b81604052838152866020858801011115610ebb57600080fd5b836020870160208301376000602085830101528094505050505092915050565b600080600060608486031215610ef057600080fd5b833567ffffffffffffffff80821115610f0857600080fd5b610f1487838801610e4e565b94506020860135915080821115610f2a57600080fd5b50610f3786828701610e4e565b925050604084013560ff81168114610f4e57600080fd5b809150509250925092565b600080600060608486031215610f6e57600080fd5b610f7784610df7565b9250610f8560208501610df7565b9150604084013590509250925092565b600060208284031215610fa757600080fd5b5035919050565b600060208284031215610fc057600080fd5b610fc982610df7565b9392505050565b60008060408385031215610fe357600080fd5b610fec83610df7565b9150610ffa60208401610df7565b90509250929050565b600181811c9082168061101757607f821691505b6020821081141561103857634e487b7160e01b600052602260045260246000fd5b50919050565b634e487b7160e01b600052601160045260246000fd5b600082198211156110675761106761103e565b500190565b6020808252818101527f4f776e61626c653a2063616c6c6572206973206e6f7420746865206f776e6572604082015260600190565b6020808252602e908201527f496e697469616c697a61626c653a20636f6e747261637420697320616c72656160408201526d191e481a5b9a5d1a585b1a5e995960921b606082015260800190565b6020808252602b908201527f496e697469616c697a61626c653a20636f6e7472616374206973206e6f74206960408201526a6e697469616c697a696e6760a81b606082015260800190565b60008282101561114c5761114c61103e565b50039056fea2646970667358221220a61c5b3bf7a7628847ce1673f6c1eb638e31256a6c6b7b7baac5b4557adbc57f64736f6c63430008090033a2646970667358221220433c8ce4a5ac468f81c26818520ace4f6f0e7500d366dfd6ecb6cfe0ad81877564736f6c63430008090033",
  "devdoc": {
    "kind": "dev",
    "methods": {
      "owner()": {
        "details": "Returns the address of the current owner."
      },
      "renounceOwnership()": {
        "details": "Leaves the contract without owner. It will not be possible to call `onlyOwner` functions anymore. Can only be called by the current owner. NOTE: Renouncing ownership will leave the contract without an owner, thereby removing any functionality that is only available to the owner."
      },
      "transferOwnership(address)": {
        "details": "Transfers ownership of the contract to a new account (`newOwner`). Can only be called by the current owner."
      }
    },
    "version": 1
  },
  "userdoc": {
    "kind": "user",
    "methods": {},
    "version": 1
  },
  "storageLayout": {
    "storage": [
      {
        "astId": 9147,
        "contract": "contracts/TokenLockerOnEthereum.sol:TokenLockerOnEthereum",
        "label": "TxTokens",
        "offset": 0,
        "slot": "0",
        "type": "t_array(t_contract(IERC20Upgradeable)1478)dyn_storage"
      },
      {
        "astId": 9151,
        "contract": "contracts/TokenLockerOnEthereum.sol:TokenLockerOnEthereum",
        "label": "RxTokens",
        "offset": 0,
        "slot": "1",
        "type": "t_array(t_contract(BridgedToken)2788)dyn_storage"
      },
      {
        "astId": 9155,
        "contract": "contracts/TokenLockerOnEthereum.sol:TokenLockerOnEthereum",
        "label": "TxMapped",
        "offset": 0,
        "slot": "2",
        "type": "t_mapping(t_address,t_address)"
      },
      {
        "astId": 9160,
        "contract": "contracts/TokenLockerOnEthereum.sol:TokenLockerOnEthereum",
        "label": "TxMappedInv",
        "offset": 0,
        "slot": "3",
        "type": "t_mapping(t_address,t_contract(IERC20Upgradeable)1478)"
      },
      {
        "astId": 9165,
        "contract": "contracts/TokenLockerOnEthereum.sol:TokenLockerOnEthereum",
        "label": "RxMapped",
        "offset": 0,
        "slot": "4",
        "type": "t_mapping(t_address,t_contract(BridgedToken)2788)"
      },
      {
        "astId": 9169,
        "contract": "contracts/TokenLockerOnEthereum.sol:TokenLockerOnEthereum",
        "label": "RxMappedInv",
        "offset": 0,
        "slot": "5",
        "type": "t_mapping(t_address,t_address)"
      },
      {
        "astId": 8275,
        "contract": "contracts/TokenLockerOnEthereum.sol:TokenLockerOnEthereum",
        "label": "otherSideBridge",
        "offset": 0,
        "slot": "6",
        "type": "t_address"
      },
      {
        "astId": 543,
        "contract": "contracts/TokenLockerOnEthereum.sol:TokenLockerOnEthereum",
        "label": "_initialized",
        "offset": 20,
        "slot": "6",
        "type": "t_uint8"
      },
      {
        "astId": 546,
        "contract": "contracts/TokenLockerOnEthereum.sol:TokenLockerOnEthereum",
        "label": "_initializing",
        "offset": 21,
        "slot": "6",
        "type": "t_bool"
      },
      {
        "astId": 2075,
        "contract": "contracts/TokenLockerOnEthereum.sol:TokenLockerOnEthereum",
        "label": "__gap",
        "offset": 0,
        "slot": "7",
        "type": "t_array(t_uint256)50_storage"
      },
      {
        "astId": 423,
        "contract": "contracts/TokenLockerOnEthereum.sol:TokenLockerOnEthereum",
        "label": "_owner",
        "offset": 0,
        "slot": "57",
        "type": "t_address"
      },
      {
        "astId": 535,
        "contract": "contracts/TokenLockerOnEthereum.sol:TokenLockerOnEthereum",
        "label": "__gap",
        "offset": 0,
        "slot": "58",
        "type": "t_array(t_uint256)49_storage"
      },
      {
        "astId": 8794,
        "contract": "contracts/TokenLockerOnEthereum.sol:TokenLockerOnEthereum",
        "label": "lightclient",
        "offset": 0,
        "slot": "107",
        "type": "t_contract(HarmonyLightClient)5823"
      },
      {
        "astId": 8798,
        "contract": "contracts/TokenLockerOnEthereum.sol:TokenLockerOnEthereum",
        "label": "spentReceipt",
        "offset": 0,
        "slot": "108",
        "type": "t_mapping(t_bytes32,t_bool)"
      }
    ],
    "types": {
      "t_address": {
        "encoding": "inplace",
        "label": "address",
        "numberOfBytes": "20"
      },
      "t_array(t_contract(BridgedToken)2788)dyn_storage": {
        "base": "t_contract(BridgedToken)2788",
        "encoding": "dynamic_array",
        "label": "contract BridgedToken[]",
        "numberOfBytes": "32"
      },
      "t_array(t_contract(IERC20Upgradeable)1478)dyn_storage": {
        "base": "t_contract(IERC20Upgradeable)1478",
        "encoding": "dynamic_array",
        "label": "contract IERC20Upgradeable[]",
        "numberOfBytes": "32"
      },
      "t_array(t_uint256)49_storage": {
        "base": "t_uint256",
        "encoding": "inplace",
        "label": "uint256[49]",
        "numberOfBytes": "1568"
      },
      "t_array(t_uint256)50_storage": {
        "base": "t_uint256",
        "encoding": "inplace",
        "label": "uint256[50]",
        "numberOfBytes": "1600"
      },
      "t_bool": {
        "encoding": "inplace",
        "label": "bool",
        "numberOfBytes": "1"
      },
      "t_bytes32": {
        "encoding": "inplace",
        "label": "bytes32",
        "numberOfBytes": "32"
      },
      "t_contract(BridgedToken)2788": {
        "encoding": "inplace",
        "label": "contract BridgedToken",
        "numberOfBytes": "20"
      },
      "t_contract(HarmonyLightClient)5823": {
        "encoding": "inplace",
        "label": "contract HarmonyLightClient",
        "numberOfBytes": "20"
      },
      "t_contract(IERC20Upgradeable)1478": {
        "encoding": "inplace",
        "label": "contract IERC20Upgradeable",
        "numberOfBytes": "20"
      },
      "t_mapping(t_address,t_address)": {
        "encoding": "mapping",
        "key": "t_address",
        "label": "mapping(address => address)",
        "numberOfBytes": "32",
        "value": "t_address"
      },
      "t_mapping(t_address,t_contract(BridgedToken)2788)": {
        "encoding": "mapping",
        "key": "t_address",
        "label": "mapping(address => contract BridgedToken)",
        "numberOfBytes": "32",
        "value": "t_contract(BridgedToken)2788"
      },
      "t_mapping(t_address,t_contract(IERC20Upgradeable)1478)": {
        "encoding": "mapping",
        "key": "t_address",
        "label": "mapping(address => contract IERC20Upgradeable)",
        "numberOfBytes": "32",
        "value": "t_contract(IERC20Upgradeable)1478"
      },
      "t_mapping(t_bytes32,t_bool)": {
        "encoding": "mapping",
        "key": "t_bytes32",
        "label": "mapping(bytes32 => bool)",
        "numberOfBytes": "32",
        "value": "t_bool"
      },
      "t_uint256": {
        "encoding": "inplace",
        "label": "uint256",
        "numberOfBytes": "32"
      },
      "t_uint8": {
        "encoding": "inplace",
        "label": "uint8",
        "numberOfBytes": "1"
      }
    }
  }
}