{
  "_format": "hh-sol-artifact-1",
  "contractName": "MPTTest",
  "sourceName": "contracts/mocks/MPTTest.sol",
  "abi": [
    {
      "inputs": [
        {
          "internalType": "bytes32",
          "name": "hashRoot",
          "type": "bytes32"
        },
        {
          "internalType": "uint256",
          "name": "paths",
          "type": "uint256"
        },
        {
          "internalType": "bytes",
          "name": "proofs",
          "type": "bytes"
        }
      ],
      "name": "validateProof",
      "outputs": [
        {
          "internalType": "bytes",
          "name": "",
          "type": "bytes"
        }
      ],
      "stateMutability": "pure",
      "type": "function"
    }
  ],
  "bytecode": "0x608060405234801561001057600080fd5b506107ec806100206000396000f3fe608060405234801561001057600080fd5b506004361061002b5760003560e01c806353c0d7d014610030575b600080fd5b6100ac6004803603606081101561004657600080fd5b81359160208101359181019060608101604082013564010000000081111561006d57600080fd5b82018360208201111561007f57600080fd5b803590602001918460018302840111640100000000831117156100a157600080fd5b509092509050610121565b6040805160208082528351818301528351919283929083019185019080838360005b838110156100e65781810151838201526020016100ce565b50505050905090810190601f1680156101135780820380516001836020036101000a031916815260200191505b509250505060405180910390f35b6060610164858585858080601f01602080910402602001604051908101604052809392919081815260200183838082843760009201919091525061016d92505050565b95945050505050565b606061017761075b565b610180836102a1565b905061018a610775565b610193826102c7565b905060006101a083610311565b905060005b8181101561024a576101b683610369565b600888901c9790945060ff166101cb856103b7565b891461021e576040805162461bcd60e51b815260206004820152601a60248201527f50726f6f664c69623a20696e76616c696420686173686c696e6b000000000000604482015290519081900360640190fd5b61022885826103d2565b9450600183038210156102415761023e856104d4565b98505b506001016101a5565b50851561028d576040805162461bcd60e51b815260206004820152600c60248201526b0d2dcecc2d8d2c840e0c2e8d60a31b604482015290519081900360640190fd5b61029683610534565b979650505050505050565b6102a961075b565b5060408051808201909152815181526020828101908201525b919050565b6102cf610775565b6102d8826105b9565b6102e157600080fd5b60006102f083602001516105f3565b60208085015160408051808201909152868152920190820152915050919050565b8051600090610322575060006102c2565b60008061033284602001516105f3565b602085015185519181019250015b808210156103605761035182610656565b60019093019290910190610340565b50909392505050565b61037161075b565b61037a826106ef565b61038357600080fd5b6020820151600061039382610656565b80830160209586015260408051808201909152908152938401919091525090919050565b80516000906103c557600080fd5b5080516020909101512090565b6103da61075b565b6103e3836105b9565b61041e5760405162461bcd60e51b81526004018080602001828103825260218152602001806107966021913960400191505060405180910390fd5b8251602084015190810190600090610435906105f3565b60208601510190506000805b858110156104605761045283610656565b928301929150600101610441565b5061046a82610656565b90508281830111156104b7576040805162461bcd60e51b8152602060048201526011602482015270524c50206974656d206f766572666c6f7760781b604482015290519081900360640190fd5b604080518082019091529081526020810191909152949350505050565b8051600090158015906104e957508151602110155b6104f257600080fd5b600061050183602001516105f3565b8351602080860151830180519394509184900392919083101561052b57826020036101000a820491505b50949350505050565b805160609061054257600080fd5b600061055183602001516105f3565b835190915081900360608167ffffffffffffffff8111801561057257600080fd5b506040519080825280601f01601f19166020018201604052801561059d576020820181803683370190505b509050600081602001905061052b848760200151018285610710565b80516000906105ca575060006102c2565b6020820151805160001a9060c08210156105e9576000925050506102c2565b5060019392505050565b8051600090811a608081101561060d5760009150506102c2565b60b8811080610628575060c08110801590610628575060f881105b156106375760019150506102c2565b60c081101561064b5760b5190190506102c2565b60f5190190506102c2565b80516000908190811a608081101561067157600191506106e8565b60b881101561068657607e19810191506106e8565b60c08110156106b35760b78103600185019450806020036101000a855104600182018101935050506106e8565b60f88110156106c85760be19810191506106e8565b60f78103600185019450806020036101000a855104600182018101935050505b5092915050565b60006106f961075b565b505080518051602091820151919092015191011190565b8061071a57610756565b5b6020811061073a578251825260209283019290910190601f190161071b565b8251825160208390036101000a60001901801990921691161782525b505050565b604051806040016040528060008152602001600081525090565b604051806040016040528061078861075b565b815260200160008152509056fe524c504465636f646572206974657261746f72206973206e6f742061206c697374a2646970667358221220506f97718f2433d6bc286d7737936cd7654666ea89672e2b7e1a1ae88ee894ce64736f6c63430007030033",
  "linkReferences": {},
  "deployedLinkReferences": {}
}