{
  "contractName": "ProvethVerifier",
  "abi": [
    {
      "constant": true,
      "inputs": [
        {
          "internalType": "bytes32",
          "name": "rootHash",
          "type": "bytes32"
        },
        {
          "internalType": "bytes",
          "name": "mptkey",
          "type": "bytes"
        },
        {
          "internalType": "bytes",
          "name": "proof",
          "type": "bytes"
        }
      ],
      "name": "MPTProof",
      "outputs": [
        {
          "internalType": "bytes",
          "name": "",
          "type": "bytes"
        }
      ],
      "payable": false,
      "stateMutability": "pure",
      "type": "function"
    }
  ],
  "bytecode": "0x608060405234801561001057600080fd5b50610cda806100206000396000f3fe608060405234801561001057600080fd5b506004361061002b5760003560e01c806364f4c4db14610030575b600080fd5b6101646004803603606081101561004657600080fd5b8135919081019060408101602082013564010000000081111561006857600080fd5b82018360208201111561007a57600080fd5b8035906020019184600183028401116401000000008311171561009c57600080fd5b91908080601f01602080910402602001604051908101604052809392919081815260200183838082843760009201919091525092959493602081019350359150506401000000008111156100ef57600080fd5b82018360208201111561010157600080fd5b8035906020019184600183028401116401000000008311171561012357600080fd5b91908080601f0160208091040260200160405190810160405280939291908181526020018383808284376000920191909152509295506101d9945050505050565b6040805160208082528351818301528351919283929083019185019080838360005b8381101561019e578181015183820152602001610186565b50505050905090810190601f1680156101cb5780820380516001836020036101000a031916815260200191505b509250505060405180910390f35b6060806101ed6101e884610205565b61022b565b90506101fa8585836102f8565b9150505b9392505050565b61020d610c8b565b5060408051808201909152815181526020828101908201525b919050565b606061023682610677565b61023f57600080fd5b600061024a836106b1565b90508060405190808252806020026020018201604052801561028657816020015b610273610c8b565b81526020019060019003908161026b5790505b5091506000610298846020015161070d565b60208501510190506000805b838110156102ef576102b583610776565b91506040518060400160405280838152602001848152508582815181106102d857fe5b6020908102919091010152918101916001016102a4565b50505050919050565b60606103078360006001610806565b9250600080606080610317610c8b565b8651610365577f56e81f171bcc55a6ff8345e692c0f86e5b48e01b996cadc001622fb5e363b421891461034957600080fd5b505060408051600081526020810190915293506101fe92505050565b60005b875181101561066a5761038d88828151811061038057fe5b602002602001015161096b565b9350801580156103a35750835160208501208a14155b156103ad57600080fd5b80158015906103c457506103c0846109d3565b8514155b156103ce57600080fd5b6103ea8882815181106103dd57fe5b602002602001015161022b565b925082516002141561054d576000606061041f61041a8660008151811061040d57fe5b6020026020010151610a87565b610b00565b90925090506000610431898d84610ba8565b9050808901985081518110156104755760018b510384101561045257600080fd5b60408051600080825260208201909252905b5099505050505050505050506101fe565b82156104db5760018b510384101561048c57600080fd5b8b518910156104ab576040805160008082526020820190925290610464565b856001815181106104b857fe5b602002602001015194506104cb85610a87565b99505050505050505050506101fe565b60018b51038414156104ec57600080fd5b610509866001815181106104fc57fe5b6020026020010151610677565b61052b5761051d8660018151811061040d57fe5b805190602001209750610545565b61053b8660018151811061038057fe5b8051906020012097505b505050610662565b825160111415610662578851861461063557600089878151811061056d57fe5b01602001516001979097019660f81c90506010811061058b57600080fd5b6105aa848260ff168151811061059d57fe5b6020026020010151610c1d565b156105dd57600189510382146105bf57600080fd5b505060408051600081526020810190915295506101fe945050505050565b6105ef848260ff16815181106104fc57fe5b61061357610605848260ff168151811061040d57fe5b80519060200120955061062f565b610625848260ff168151811061038057fe5b8051906020012095505b50610662565b6001885103811461064557600080fd5b6106558360108151811061040d57fe5b96505050505050506101fe565b600101610368565b5050505050509392505050565b805160009061068857506000610226565b6020820151805160001a9060c08210156106a757600092505050610226565b5060019392505050565b80516000906106c257506000610226565b600080905060006106d6846020015161070d565b602085015185519181019250015b80821015610704576106f582610776565b600190930192909101906106e4565b50909392505050565b8051600090811a6080811015610727576000915050610226565b60b8811080610742575060c08110801590610742575060f881105b15610751576001915050610226565b60c08110156107655760b519019050610226565b60f519019050610226565b50919050565b8051600090811a6080811015610790576001915050610226565b60b88110156107a457607e19019050610226565b60c08110156107d15760b78103600184019350806020036101000a84510460018201810193505050610770565b60f88110156107e55760be19019050610226565b60019290920151602083900360f7016101000a900490910160f51901919050565b6060600084511161081657600080fd5b83516002028084111561082857600080fd5b83810390508281016040519080825280601f01601f19166020018201604052801561085a576020820181803883390190505b509150826001141561089357601060f81b8260018451038151811061087b57fe5b60200101906001600160f81b031916908160001a9053505b6000845b82860181101561095557600281066108fb5760048760028304815181106108ba57fe5b602001015160f81c60f81b60f81c60ff16901c600f1660f81b8483815181106108df57fe5b60200101906001600160f81b031916908160001a905350610949565b600087600283048151811061090c57fe5b602001015160f81c60f81b60f81c60ff16901c600f1660f81b84838151811061093157fe5b60200101906001600160f81b031916908160001a9053505b60019182019101610897565b5082518482011461096257fe5b50509392505050565b60608082600001516040519080825280601f01601f19166020018201604052801561099d576020820181803883390190505b5090508051600014156109b1579050610226565b60008160200190506109cc8460200151828660000151610c40565b5092915050565b60006020825110156109ec575080516020820120610226565b816040516020018082805190602001908083835b60208310610a1f5780518252601f199092019160209182019101610a00565b6001836020036101000a0380198251168184511680821785525050505050509050019150506040516020818303038152906040528051906020012060405160200180828152602001915050604051602081830303815290604052805190602001209050610226565b8051606090610a9557600080fd5b6000610aa4836020015161070d565b83516040805191839003808352601f19601f8201168301602001909152919250606090828015610adb576020820181803883390190505b5090506000816020019050610af7848760200151018285610c40565b50949350505050565b600060606000835111610b1257600080fd5b6000600484600081518110610b2357fe5b60209101015160f81c901c600f169050600081610b465750600092506002610b80565b8160011415610b5b5750600092506001610b80565b8160021415610b705750600192506002610b80565b816003141561002b575060019250825b83610b9d868387610b92576000610b95565b60015b60ff16610806565b935093505050915091565b6000805b8351858201108015610bbe5750825181105b15610c1557828181518110610bcf57fe5b602001015160f81c60f81b6001600160f81b0319168486830181518110610bf257fe5b01602001516001600160f81b03191614610c0d5790506101fe565b600101610bac565b949350505050565b8051600090600114610c3157506000610226565b50602001515160001a60801490565b80610c4a57610c86565b5b60208110610c6a578251825260209283019290910190601f1901610c4b565b8251825160208390036101000a60001901801990921691161782525b505050565b60405180604001604052806000815260200160008152509056fea265627a7a7231582056da03512197c6498c6b0843c0f44567ba711308c393c0dbed3ebdba9521aae264736f6c63430005110032",
  "source": "pragma solidity ^0.5.0;\n\nimport \"./RLPReader.sol\";\n\ncontract ProvethVerifier {\n    using RLPReader for RLPReader.RLPItem;\n    using RLPReader for bytes;\n\n    function isEmpty(RLPReader.RLPItem memory item) internal pure returns (bool) {\n        if (item.len != 1) {\n            return false;\n        }\n        uint8 b;\n        uint memPtr = item.memPtr;\n        assembly {\n            b := byte(0, mload(memPtr))\n        }\n        return b == 0x80 /* empty byte string */ || b == 0xc0 /* empty list */;\n    }\n\n    function isEmptyBytesequence(RLPReader.RLPItem memory item) internal pure returns (bool) {\n        if (item.len != 1) {\n            return false;\n        }\n        uint8 b;\n        uint memPtr = item.memPtr;\n        assembly {\n            b := byte(0, mload(memPtr))\n        }\n        return b == 0x80 /* empty byte string */;\n    }\n\n    function decodeNibbles(bytes memory compact, uint skipNibbles, uint append16) internal pure returns (bytes memory nibbles) {\n        require(compact.length > 0);\n\n        uint length = compact.length * 2;\n        require(skipNibbles <= length);\n        length -= skipNibbles;\n\n        nibbles = new bytes(length+append16);\n        if(append16 == 1)\n            nibbles[nibbles.length-1] = bytes1(uint8(0x10));\n        uint nibblesLength = 0;\n\n        for (uint i = skipNibbles; i < skipNibbles + length; i += 1) {\n            if (i % 2 == 0) {\n                nibbles[nibblesLength] = bytes1((uint8(compact[i/2]) >> 4) & 0xF);\n            } else {\n                nibbles[nibblesLength] = bytes1((uint8(compact[i/2]) >> 0) & 0xF);\n            }\n            nibblesLength += 1;\n        }\n\n        assert(nibblesLength + append16 == nibbles.length);\n    }\n\n    function merklePatriciaCompactDecode(bytes memory compact) internal pure returns (bool isLeaf, bytes memory nibbles) {\n        require(compact.length > 0);\n        uint first_nibble = uint8(compact[0]) >> 4 & 0xF;\n        uint skipNibbles;\n        if (first_nibble == 0) {\n            skipNibbles = 2;\n            isLeaf = false;\n        } else if (first_nibble == 1) {\n            skipNibbles = 1;\n            isLeaf = false;\n        } else if (first_nibble == 2) {\n            skipNibbles = 2;\n            isLeaf = true;\n        } else if (first_nibble == 3) {\n            skipNibbles = 1;\n            isLeaf = true;\n        } else {\n            // Not supposed to happen!\n            revert();\n        }\n        return (isLeaf, decodeNibbles(compact, skipNibbles, isLeaf?1:0));\n    }\n\n    function sharedPrefixLength(uint xsOffset, bytes memory xs, bytes memory ys) internal pure returns (uint) {\n        uint i;\n        for (i = 0; i + xsOffset < xs.length && i < ys.length; i++) {\n            if (xs[i + xsOffset] != ys[i]) {\n                return i;\n            }\n        }\n        return i;\n    }\n\n    /// @dev Computes the hash of the Merkle-Patricia-Trie hash of the input.\n    ///      Merkle-Patricia-Tries use a weird \"hash function\" that outputs\n    ///      *variable-length* hashes: If the input is shorter than 32 bytes,\n    ///      the MPT hash is the input. Otherwise, the MPT hash is the\n    ///      Keccak-256 hash of the input.\n    ///      The easiest way to compare variable-length byte sequences is\n    ///      to compare their Keccak-256 hashes.\n    /// @param input The byte sequence to be hashed.\n    /// @return Keccak-256(MPT-hash(input))\n    function mptHashHash(bytes memory input) internal pure returns (bytes32) {\n        if (input.length < 32) {\n            return keccak256(input);\n        } else {\n            return keccak256(abi.encodePacked(keccak256(abi.encodePacked(input))));\n        }\n    }\n\n    function MPTProof(bytes32 rootHash, bytes memory mptkey, bytes memory proof) pure public returns(bytes memory){\n        RLPReader.RLPItem[] memory stacks = proof.toRlpItem().toList();\n        return validateMPTProof(rootHash, mptkey, stacks);\n    }\n\n    /// @dev Validates a Merkle-Patricia-Trie proof.\n    ///      If the proof proves the inclusion of some key-value pair in the\n    ///      trie, the value is returned. Otherwise, i.e. if the proof proves\n    ///      the exclusion of a key from the trie, an empty byte array is\n    ///      returned.\n    /// @param rootHash is the Keccak-256 hash of the root node of the MPT.\n    /// @param mptKey is the key (consisting of nibbles) of the node whose\n    ///        inclusion/exclusion we are proving.\n    /// @param stack is the stack of MPT nodes (starting with the root) that\n    ///        need to be traversed during verification.\n    /// @return value whose inclusion is proved or an empty byte array for\n    ///         a proof of exclusion\n    function validateMPTProof(\n        bytes32 rootHash,\n        bytes memory mptKey,\n        RLPReader.RLPItem[] memory stack\n    ) internal pure returns (bytes memory value) {\n        mptKey = decodeNibbles(mptKey, 0, 1);\n        uint mptKeyOffset = 0;\n\n        bytes32 nodeHashHash;\n        bytes memory rlpNode;\n        RLPReader.RLPItem[] memory node;\n\n        RLPReader.RLPItem memory rlpValue;\n\n        if (stack.length == 0) {\n            // Root hash of empty Merkle-Patricia-Trie\n            require(rootHash == 0x56e81f171bcc55a6ff8345e692c0f86e5b48e01b996cadc001622fb5e363b421);\n            return new bytes(0);\n        }\n\n        // Traverse stack of nodes starting at root.\n        for (uint i = 0; i < stack.length; i++) {\n\n            // We use the fact that an rlp encoded list consists of some\n            // encoding of its length plus the concatenation of its\n            // *rlp-encoded* items.\n            rlpNode = stack[i].toRlpBytes();\n            // The root node is hashed with Keccak-256 ...\n            if (i == 0 && rootHash != keccak256(rlpNode)) {\n                revert();\n            }\n            // ... whereas all other nodes are hashed with the MPT\n            // hash function.\n            if (i != 0 && nodeHashHash != mptHashHash(rlpNode)) {\n                revert();\n            }\n            // We verified that stack[i] has the correct hash, so we\n            // may safely decode it.\n            node = stack[i].toList();\n\n            if (node.length == 2) {\n                // Extension or Leaf node\n\n                bool isLeaf;\n                bytes memory nodeKey;\n                (isLeaf, nodeKey) = merklePatriciaCompactDecode(node[0].toBytes());\n\n                uint prefixLength = sharedPrefixLength(mptKeyOffset, mptKey, nodeKey);\n                mptKeyOffset += prefixLength;\n\n                if (prefixLength < nodeKey.length) {\n                    // Proof claims divergent extension or leaf. (Only\n                    // relevant for proofs of exclusion.)\n                    // An Extension/Leaf node is divergent iff it \"skips\" over\n                    // the point at which a Branch node should have been had the\n                    // excluded key been included in the trie.\n                    // Example: Imagine a proof of exclusion for path [1, 4],\n                    // where the current node is a Leaf node with\n                    // path [1, 3, 3, 7]. For [1, 4] to be included, there\n                    // should have been a Branch node at [1] with a child\n                    // at 3 and a child at 4.\n\n                    // Sanity check\n                    if (i < stack.length - 1) {\n                        // divergent node must come last in proof\n                        revert();\n                    }\n\n                    return new bytes(0);\n                }\n\n                if (isLeaf) {\n                    // Sanity check\n                    if (i < stack.length - 1) {\n                        // leaf node must come last in proof\n                        revert();\n                    }\n\n                    if (mptKeyOffset < mptKey.length) {\n                        return new bytes(0);\n                    }\n\n                    rlpValue = node[1];\n                    return rlpValue.toBytes();\n                } else { // extension\n                    // Sanity check\n                    if (i == stack.length - 1) {\n                        // shouldn't be at last level\n                        revert();\n                    }\n\n                    if (!node[1].isList()) {\n                        // rlp(child) was at least 32 bytes. node[1] contains\n                        // Keccak256(rlp(child)).\n                        nodeHashHash = keccak256(node[1].toBytes());\n                    } else {\n                        // rlp(child) was at less than 32 bytes. node[1] contains\n                        // rlp(child).\n                        nodeHashHash = keccak256(node[1].toRlpBytes());\n                    }\n                }\n            } else if (node.length == 17) {\n                // Branch node\n\n                if (mptKeyOffset != mptKey.length) {\n                    // we haven't consumed the entire path, so we need to look at a child\n                    uint8 nibble = uint8(mptKey[mptKeyOffset]);\n                    mptKeyOffset += 1;\n                    if (nibble >= 16) {\n                        // each element of the path has to be a nibble\n                        revert();\n                    }\n\n                    if (isEmptyBytesequence(node[nibble])) {\n                        // Sanity\n                        if (i != stack.length - 1) {\n                            // leaf node should be at last level\n                            revert();\n                        }\n\n                        return new bytes(0);\n                    } else if (!node[nibble].isList()) {\n                        nodeHashHash = keccak256(node[nibble].toBytes());\n                    } else {\n                        nodeHashHash = keccak256(node[nibble].toRlpBytes());\n                    }\n                } else {\n                    // we have consumed the entire mptKey, so we need to look at what's contained in this node.\n\n                    // Sanity\n                    if (i != stack.length - 1) {\n                        // should be at last level\n                        revert();\n                    }\n\n                    return node[16].toBytes();\n                }\n            }\n        }\n    }\n}\n",
  "sourcePath": "/media/harsha/home/workspace/horizon/lib/src/contracts/verifier/MPTSolidity/ProvethVerifier.sol",
  "compiler": {
    "name": "solc",
    "version": "0.5.17+commit.d19bba13.Emscripten.clang"
  },
  "schemaVersion": "3.3.3",
  "updatedAt": "2021-01-15T20:51:14.088Z",
  "devdoc": {
    "methods": {}
  },
  "userdoc": {
    "methods": {}
  }
}