{
  "contractName": "Client",
  "abi": [
    {
      "inputs": [
        {
          "internalType": "bytes",
          "name": "_rlpHeader",
          "type": "bytes"
        }
      ],
      "payable": false,
      "stateMutability": "nonpayable",
      "type": "constructor"
    },
    {
      "constant": true,
      "inputs": [
        {
          "internalType": "uint256",
          "name": "",
          "type": "uint256"
        }
      ],
      "name": "blockExisting",
      "outputs": [
        {
          "internalType": "bool",
          "name": "",
          "type": "bool"
        }
      ],
      "payable": false,
      "stateMutability": "view",
      "type": "function"
    },
    {
      "constant": true,
      "inputs": [],
      "name": "blockHeightMax",
      "outputs": [
        {
          "internalType": "uint256",
          "name": "",
          "type": "uint256"
        }
      ],
      "payable": false,
      "stateMutability": "view",
      "type": "function"
    },
    {
      "constant": true,
      "inputs": [
        {
          "internalType": "uint256",
          "name": "",
          "type": "uint256"
        }
      ],
      "name": "blocks",
      "outputs": [
        {
          "internalType": "uint256",
          "name": "parentHash",
          "type": "uint256"
        },
        {
          "internalType": "uint256",
          "name": "stateRoot",
          "type": "uint256"
        },
        {
          "internalType": "uint256",
          "name": "transactionsRoot",
          "type": "uint256"
        },
        {
          "internalType": "uint256",
          "name": "receiptsRoot",
          "type": "uint256"
        },
        {
          "internalType": "uint256",
          "name": "number",
          "type": "uint256"
        },
        {
          "internalType": "uint256",
          "name": "difficulty",
          "type": "uint256"
        },
        {
          "internalType": "uint256",
          "name": "time",
          "type": "uint256"
        },
        {
          "internalType": "uint256",
          "name": "hash",
          "type": "uint256"
        }
      ],
      "payable": false,
      "stateMutability": "view",
      "type": "function"
    },
    {
      "constant": true,
      "inputs": [],
      "name": "finalityConfirms",
      "outputs": [
        {
          "internalType": "uint256",
          "name": "",
          "type": "uint256"
        }
      ],
      "payable": false,
      "stateMutability": "view",
      "type": "function"
    },
    {
      "constant": true,
      "inputs": [
        {
          "internalType": "uint256",
          "name": "",
          "type": "uint256"
        }
      ],
      "name": "finalizedBlocks",
      "outputs": [
        {
          "internalType": "bool",
          "name": "",
          "type": "bool"
        }
      ],
      "payable": false,
      "stateMutability": "view",
      "type": "function"
    },
    {
      "constant": true,
      "inputs": [],
      "name": "firstBlock",
      "outputs": [
        {
          "internalType": "uint256",
          "name": "",
          "type": "uint256"
        }
      ],
      "payable": false,
      "stateMutability": "view",
      "type": "function"
    },
    {
      "constant": true,
      "inputs": [
        {
          "internalType": "uint256",
          "name": "",
          "type": "uint256"
        }
      ],
      "name": "longestBranchHead",
      "outputs": [
        {
          "internalType": "uint256",
          "name": "",
          "type": "uint256"
        }
      ],
      "payable": false,
      "stateMutability": "view",
      "type": "function"
    },
    {
      "constant": true,
      "inputs": [
        {
          "internalType": "uint256",
          "name": "",
          "type": "uint256"
        }
      ],
      "name": "verifiedBlocks",
      "outputs": [
        {
          "internalType": "bool",
          "name": "",
          "type": "bool"
        }
      ],
      "payable": false,
      "stateMutability": "view",
      "type": "function"
    },
    {
      "constant": false,
      "inputs": [
        {
          "internalType": "bytes",
          "name": "_rlpHeader",
          "type": "bytes"
        }
      ],
      "name": "addBlockHeader",
      "outputs": [
        {
          "internalType": "bool",
          "name": "",
          "type": "bool"
        }
      ],
      "payable": true,
      "stateMutability": "payable",
      "type": "function"
    },
    {
      "constant": false,
      "inputs": [],
      "name": "getBlockHeightMax",
      "outputs": [
        {
          "internalType": "uint256",
          "name": "",
          "type": "uint256"
        }
      ],
      "payable": false,
      "stateMutability": "nonpayable",
      "type": "function"
    },
    {
      "constant": false,
      "inputs": [
        {
          "internalType": "bytes32",
          "name": "blockHash",
          "type": "bytes32"
        }
      ],
      "name": "getStateRoot",
      "outputs": [
        {
          "internalType": "bytes32",
          "name": "",
          "type": "bytes32"
        }
      ],
      "payable": false,
      "stateMutability": "nonpayable",
      "type": "function"
    },
    {
      "constant": false,
      "inputs": [
        {
          "internalType": "bytes32",
          "name": "blockHash",
          "type": "bytes32"
        }
      ],
      "name": "getTxRoot",
      "outputs": [
        {
          "internalType": "bytes32",
          "name": "",
          "type": "bytes32"
        }
      ],
      "payable": false,
      "stateMutability": "nonpayable",
      "type": "function"
    },
    {
      "constant": false,
      "inputs": [
        {
          "internalType": "bytes32",
          "name": "blockHash",
          "type": "bytes32"
        }
      ],
      "name": "getReceiptRoot",
      "outputs": [
        {
          "internalType": "bytes32",
          "name": "",
          "type": "bytes32"
        }
      ],
      "payable": false,
      "stateMutability": "nonpayable",
      "type": "function"
    },
    {
      "constant": true,
      "inputs": [
        {
          "internalType": "bytes32",
          "name": "blockHash",
          "type": "bytes32"
        },
        {
          "internalType": "bytes32",
          "name": "receiptsHash",
          "type": "bytes32"
        }
      ],
      "name": "VerifyReceiptsHash",
      "outputs": [
        {
          "internalType": "bool",
          "name": "",
          "type": "bool"
        }
      ],
      "payable": false,
      "stateMutability": "view",
      "type": "function"
    }
  ],
  "bytecode": "0x60806040523480156200001157600080fd5b506040516200207238038062002072833981810160405260208110156200003757600080fd5b81019080805160405193929190846401000000008211156200005857600080fd5b9083019060208201858111156200006e57600080fd5b82516401000000008111828201881017156200008957600080fd5b82525081516020918201929091019080838360005b83811015620000b85781810151838201526020016200009e565b50505050905090810190601f168015620000e65780820380516001836020036101000a031916815260200191505b50604052505050600d60098190555060006200010d82620001b060201b6200084b1760201c565b905062000119620009fe565b6200012f83620001bd60201b620008561760201c565b90506200013b62000a7d565b6040518061010001604052808360000151815260200183606001518152602001836080015181526020018360a00151815260200183610100015181526020018360e0015181526020018361016001518152602001848152509050620001a6816200054260201b60201c565b5050505062000afe565b805160208201205b919050565b620001c7620009fe565b620001d162000ac2565b620001fc620001eb846200063960201b62000bca1760201c565b6200066060201b62000bef1760201c565b905060005b6200021782620006c060201b62000c391760201c565b156200053b578062000256576200024e6200023d83620006e360201b62000c5a1760201c565b6200074a60201b62000ca81760201c565b835262000532565b806001141562000285576200027a6200023d83620006e360201b62000c5a1760201c565b602084015262000532565b8060021415620002ce57620002ba620002a983620006e360201b62000c5a1760201c565b620007b560201b62000d081760201c565b6001600160a01b0316604084015262000532565b8060031415620002fd57620002f26200023d83620006e360201b62000c5a1760201c565b606084015262000532565b80600414156200032c57620003216200023d83620006e360201b62000c5a1760201c565b608084015262000532565b80600514156200035b57620003506200023d83620006e360201b62000c5a1760201c565b60a084015262000532565b80600614156200039b57620003906200037f83620006e360201b62000c5a1760201c565b620007e160201b62000d281760201c565b60c084015262000532565b8060071415620003ca57620003bf6200023d83620006e360201b62000c5a1760201c565b60e084015262000532565b8060081415620003fa57620003ee6200023d83620006e360201b62000c5a1760201c565b61010084015262000532565b80600914156200042a576200041e6200023d83620006e360201b62000c5a1760201c565b61012084015262000532565b80600a14156200045a576200044e6200023d83620006e360201b62000c5a1760201c565b61014084015262000532565b80600b14156200048a576200047e6200023d83620006e360201b62000c5a1760201c565b61016084015262000532565b80600c1415620004ba57620004ae6200037f83620006e360201b62000c5a1760201c565b61018084015262000532565b80600d1415620004ea57620004de6200023d83620006e360201b62000c5a1760201c565b6101a084015262000532565b80600e14156200051a576200050e6200023d83620006e360201b62000c5a1760201c565b6101c084015262000532565b6200053082620006e360201b62000c5a1760201c565b505b60010162000201565b5050919050565b60e081018051600081815590815260016020818152604080842086518155828701518185015581870151600280830191909155606088015160038084019190915560808901805160048086019190915560a08b015160058087019190915560c0909b01516006808701919091558a5160079687018190558a52938752858920805460ff199081168a179091558a518a529287528589208054841689179055895189528652848820805483168817905580518852988552838720885181548089018355918952868920909101558851875290845282862080549091169094179093559451909155915180825260089092529190912055565b6200064362000ae4565b506040805180820190915281518152602082810190820152919050565b6200066a62000ac2565b6200067e826001600160e01b036200086416565b6200068857600080fd5b60006200069f8360200151620008a260201b60201c565b60208085015160408051808201909152868152920190820152915050919050565b6000620006cc62000ae4565b505080518051602091820151919092015191011190565b620006ed62000ae4565b62000701826001600160e01b03620006c016565b6200070b57600080fd5b6020820151600062000726826001600160e01b036200090e16565b80830160209586015260408051808201909152908152938401919091525090919050565b8051600090158015906200076057508151602110155b6200076a57600080fd5b6000620007818360200151620008a260201b60201c565b83516020808601518301805193945091849003929190831015620007ac57826020036101000a820491505b50949350505050565b8051600090601514620007c757600080fd5b620007db826001600160e01b036200074a16565b92915050565b8051606090620007f057600080fd5b6000620008078360200151620008a260201b60201c565b83516040805191839003808352601f19601f82011683016020019091529192506060908280156200083f576020820181803883390190505b50602086810151919250820190620007ac90850182856001600160e01b03620009af16565b80516000906200087757506000620001b8565b6020820151805160001a9060c08210156200089857600092505050620001b8565b5060019392505050565b8051600090811a6080811015620008be576000915050620001b8565b60b8811080620008db575060c08110801590620008db575060f881105b15620008ec576001915050620001b8565b60c0811015620009025760b519019050620001b8565b60f519019050620001b8565b80516000908190811a60808110156200092b5760019150620009a8565b60b88110156200094257607e1981019150620009a8565b60c0811015620009715760b78103600185019450806020036101000a85510460018201810193505050620009a8565b60f8811015620009885760be1981019150620009a8565b60f78103600185019450806020036101000a855104600182018101935050505b5092915050565b80620009bb57620009f9565b5b60208110620009dd578251825260209283019290910190601f1901620009bc565b8251825160208390036101000a60001901801990921691161782525b505050565b604051806101e00160405280600081526020016000815260200160006001600160a01b031681526020016000815260200160008152602001600081526020016060815260200160008152602001600081526020016000815260200160008152602001600081526020016060815260200160008152602001600081525090565b60405180610100016040528060008152602001600081526020016000815260200160008152602001600081526020016000815260200160008152602001600081525090565b604051806040016040528062000ad762000ae4565b8152602001600081525090565b604051806040016040528060008152602001600081525090565b6115648062000b0e6000396000f3fe6080604052600436106100dd5760003560e01c8063a8b00a341161007f578063c4dd6d0311610059578063c4dd6d0314610304578063d072e8d714610319578063d6bacb0e1461032e578063f25b3f9914610358576100dd565b8063a8b00a3414610286578063ad562965146102b0578063b1d3e159146102da576100dd565b80632cb58378116100bb5780632cb583781461016257806341e637491461018c578063633cc31e146101b657806392947cc01461025c576100dd565b80630c5a1d60146100e2578063231b02681461010957806329e141af1461011e575b600080fd5b3480156100ee57600080fd5b506100f76103c3565b60408051918252519081900360200190f35b34801561011557600080fd5b506100f76103c9565b34801561012a57600080fd5b5061014e6004803603604081101561014157600080fd5b50803590602001356103cf565b604080519115158252519081900360200190f35b34801561016e57600080fd5b506100f76004803603602081101561018557600080fd5b50356103e6565b34801561019857600080fd5b5061014e600480360360208110156101af57600080fd5b50356103ff565b61014e600480360360208110156101cc57600080fd5b8101906020810181356401000000008111156101e757600080fd5b8201836020820111156101f957600080fd5b8035906020019184600183028401116401000000008311171561021b57600080fd5b91908080601f016020809104026020016040519081016040528093929190818152602001838380828437600092019190915250929550610414945050505050565b34801561026857600080fd5b506100f76004803603602081101561027f57600080fd5b5035610791565b34801561029257600080fd5b5061014e600480360360208110156102a957600080fd5b50356107a3565b3480156102bc57600080fd5b506100f7600480360360208110156102d357600080fd5b50356107b8565b3480156102e657600080fd5b5061014e600480360360208110156102fd57600080fd5b50356107cd565b34801561031057600080fd5b506100f76107e2565b34801561032557600080fd5b506100f76107e8565b34801561033a57600080fd5b506100f76004803603602081101561035157600080fd5b50356107ee565b34801561036457600080fd5b506103826004803603602081101561037b57600080fd5b5035610803565b604080519889526020890197909752878701959095526060870193909352608086019190915260a085015260c084015260e083015251908190036101000190f35b60075490565b60005481565b600091825260016020526040909120600301541490565b600081815260016020819052604090912001545b919050565b60026020526000908152604090205460ff1681565b6000806104208361084b565b60008181526002602052604090205490915060ff16156104715760405162461bcd60e51b81526004018080602001828103825260298152602001806114826029913960400191505060405180910390fd5b61047961135d565b61048284610856565b805160009081526002602052604090205490915060ff166104d45760405162461bcd60e51b81526004018080602001828103825260308152602001806115006030913960400191505060405180910390fd5b80516000908152600160208190526040909120600401546104fa9163ffffffff610a8d16565b8161010001511461053c5760405162461bcd60e51b81526004018080602001828103825260308152602001806114ab6030913960400191505060405180910390fd5b8051600090815260016020526040902060060154610160820151116105925760405162461bcd60e51b81526004018080602001828103825260258152602001806114db6025913960400191505060405180910390fd5b60e081015181516000908152600160205260409020600501546105b59190610aee565b6105f05760405162461bcd60e51b815260040180806020018281038252602681526020018061145c6026913960400191505060405180910390fd5b60006105fb85610b0b565b9050600061061f8361010001518460e00151856101c00151866101a0015186610bbf565b905080610673576040805162461bcd60e51b815260206004820152601f60248201527f52656c617920626c6f636b206661696c65643a20696e76616c696420506f5700604482015290519081900360640190fd5b61067b6113dc565b506040805161010080820183528551825260608087015160208085019182526080808a015186880190815260a0808c0151958801958652958b01805192880192835260e0808d01519789019788526101608d015160c08a019081529089018e815260008f815260018088528c82208c51815598518982015594516002808a01919091559851600389015594516004880155975160058088019190915590516006808801919091559751600796870155958452888320805460ff1990811684179091558151845295845288832080548084018255908452848420018d9055805183529590925295909520805490921690941790559154915190911015610784576101008401516007555b5060019695505050505050565b60086020526000908152604090205481565b60046020526000908152604090205460ff1681565b60009081526001602052604090206003015490565b60036020526000908152604090205460ff1681565b60095481565b60075481565b60009081526001602052604090206002015490565b60016020528060005260406000206000915090508060000154908060010154908060020154908060030154908060040154908060050154908060060154908060070154905088565b805160209091012090565b61085e61135d565b610866611421565b61087761087284610bca565b610bef565b905060005b61088582610c39565b15610a8657806108a7576108a061089b83610c5a565b610ca8565b8352610a7e565b80600114156108c6576108bc61089b83610c5a565b6020840152610a7e565b80600214156108f3576108e06108db83610c5a565b610d08565b6001600160a01b03166040840152610a7e565b80600314156109125761090861089b83610c5a565b6060840152610a7e565b80600414156109315761092761089b83610c5a565b6080840152610a7e565b80600514156109505761094661089b83610c5a565b60a0840152610a7e565b80600614156109745761096a61096583610c5a565b610d28565b60c0840152610a7e565b80600714156109935761098961089b83610c5a565b60e0840152610a7e565b80600814156109b3576109a861089b83610c5a565b610100840152610a7e565b80600914156109d3576109c861089b83610c5a565b610120840152610a7e565b80600a14156109f3576109e861089b83610c5a565b610140840152610a7e565b80600b1415610a1357610a0861089b83610c5a565b610160840152610a7e565b80600c1415610a3357610a2861096583610c5a565b610180840152610a7e565b80600d1415610a5357610a4861089b83610c5a565b6101a0840152610a7e565b80600e1415610a7357610a6861089b83610c5a565b6101c0840152610a7e565b610a7c82610c5a565b505b60010161087c565b5050919050565b600082820183811015610ae7576040805162461bcd60e51b815260206004820152601b60248201527f536166654d6174683a206164646974696f6e206f766572666c6f770000000000604482015290519081900360640190fd5b9392505050565b6000610b01826127108104606302610d98565b9092101592915050565b60408051600d8082526101c0820190925260009160609190816020015b6060815260200190600190039081610b28579050509050610b47611421565b610b5361087285610bca565b905060005b610b6182610c39565b8015610b6d5750600d81105b15610ba257610b83610b7e83610c5a565b610dda565b838281518110610b8f57fe5b6020908102919091010152600101610b58565b6060610bad84610e42565b80516020909101209695505050505050565b600195945050505050565b610bd2611441565b506040805180820190915281518152602082810190820152919050565b610bf7611421565b610c0082610e65565b610c0957600080fd5b6000610c188360200151610e9f565b60208085015160408051808201909152868152920190820152915050919050565b6000610c43611441565b505080518051602091820151919092015191011190565b610c62611441565b610c6b82610c39565b610c7457600080fd5b60208201516000610c8482610f02565b80830160209586015260408051808201909152908152938401919091525090919050565b805160009015801590610cbd57508151602110155b610cc657600080fd5b6000610cd58360200151610e9f565b83516020808601518301805193945091849003929190831015610cff57826020036101000a820491505b50949350505050565b8051600090601514610d1957600080fd5b610d2282610ca8565b92915050565b8051606090610d3657600080fd5b6000610d458360200151610e9f565b83516040805191839003808352601f19601f8201168301602001909152919250606090828015610d7c576020820181803883390190505b5090506000816020019050610cff848760200151018285610f96565b6000610ae783836040518060400160405280601e81526020017f536166654d6174683a207375627472616374696f6e206f766572666c6f770000815250610fe1565b60608082600001516040519080825280601f01601f191660200182016040528015610e0c576020820181803883390190505b509050805160001415610e205790506103fa565b6000816020019050610e3b8460200151828660000151610f96565b5092915050565b606080610e4e83611078565b9050610ae7610e5f825160c0611162565b8261129c565b8051600090610e76575060006103fa565b6020820151805160001a9060c0821015610e95576000925050506103fa565b5060019392505050565b8051600090811a6080811015610eb95760009150506103fa565b60b8811080610ed4575060c08110801590610ed4575060f881105b15610ee35760019150506103fa565b60c0811015610ef75760b5190190506103fa565b60f5190190506103fa565b80516000908190811a6080811015610f1d5760019150610e3b565b60b8811015610f3257607e1981019150610e3b565b60c0811015610f5f5760b78103600185019450806020036101000a85510460018201810193505050610e3b565b60f8811015610f745760be1981019150610e3b565b60019390930151602084900360f7016101000a900490920160f5190192915050565b80610fa057610fdc565b5b60208110610fc0578251825260209283019290910190601f1901610fa1565b8251825160208390036101000a60001901801990921691161782525b505050565b600081848411156110705760405162461bcd60e51b81526004018080602001828103825283818151815260200191508051906020019080838360005b8381101561103557818101518382015260200161101d565b50505050905090810190601f1680156110625780820380516001836020036101000a031916815260200191505b509250505060405180910390fd5b505050900390565b606081516000141561109957506040805160008152602081019091526103fa565b6000805b83518110156110cc578381815181106110b257fe5b60200260200101515182019150808060010191505061109d565b6060826040519080825280601f01601f1916602001820160405280156110f9576020820181803883390190505b50600092509050602081015b8551831015610cff57606086848151811061111c57fe5b60200260200101519050600060208201905061113a83828451611319565b87858151811061114657fe5b6020026020010151518301925050508280600101935050611105565b60608060388410156111bc576040805160018082528183019092529060208201818038833901905050905082840160f81b816000815181106111a057fe5b60200101906001600160f81b031916908160001a905350610ae7565b600060015b8086816111ca57fe5b04156111df57600190910190610100026111c1565b816001016040519080825280601f01601f19166020018201604052801561120d576020820181803883390190505b50925084820160370160f81b8360008151811061122657fe5b60200101906001600160f81b031916908160001a905350600190505b818111611292576101008183036101000a878161125b57fe5b048161126357fe5b0660f81b83828151811061127357fe5b60200101906001600160f81b031916908160001a905350600101611242565b5050905092915050565b6060806040519050835180825260208201818101602087015b818310156112cd5780518352602092830192016112b5565b50855184518101855292509050808201602086015b818310156112fa5780518352602092830192016112e2565b508651929092011591909101601f01601f191660405250905092915050565b8282825b6020811061133c578151835260209283019290910190601f190161131d565b905182516020929092036101000a6000190180199091169116179052505050565b604051806101e00160405280600081526020016000815260200160006001600160a01b031681526020016000815260200160008152602001600081526020016060815260200160008152602001600081526020016000815260200160008152602001600081526020016060815260200160008152602001600081525090565b60405180610100016040528060008152602001600081526020016000815260200160008152602001600081526020016000815260200160008152602001600081525090565b6040518060400160405280611434611441565b8152602001600081525090565b60405180604001604052806000815260200160008152509056fe52656c617920626c6f636b206661696c65643a20696e76616c696420646966666963756c747952656c617920626c6f636b206661696c65643a20626c6f636b20616c72656164792072656c6179656452656c617920626c6f636b206661696c65643a20696e76616c696420626c6f636b20626c6f636b4865696768744d617852656c617920626c6f636b206661696c65643a20696e76616c69642074696d657374616d7052656c617920626c6f636b206661696c65643a20706172656e7420626c6f636b206e6f742072656c6179656420796574a265627a7a723158202c8dfecbed5ce227b15f01e2eba7740ee1f1df1ff41d086484d24f9859624cc164736f6c63430005110032",
  "source": "pragma solidity ^0.5.0;\n\nimport {SafeMath} from 'openzeppelin-solidity/contracts/math/SafeMath.sol';\n// import {BytesLib} from '@summa-tx/bitcoin-spv-sol/contracts/BytesLib.sol';\n// import {BTCUtils} from '@summa-tx/bitcoin-spv-sol/contracts/BTCUtils.sol';\n// import {ValidateSPV} from '@summa-tx/bitcoin-spv-sol/contracts/ValidateSPV.sol';\nimport './ClientStorage.sol';\n\nimport \"./EthCommon.sol\";\nimport \"./EthUtils.sol\";\nimport \"./NextyPreCompiled.sol\";\nimport \"./IClient.sol\";\n\n/// @title Ethereum light client\ncontract Client is ClientStorage, IClient {\n    using SafeMath for uint256;\n    // using BytesLib for bytes;\n    // using BTCUtils for bytes;\n\n\n    struct HeaderInfo {\n       uint256 total_difficulty;\n       bytes32  parent_hash;\n       uint64  number;\n    }\n\n    // // NEAR rainbow\n    // /// Whether client validates the PoW when accepting the header. Should only be set to `false`\n    // /// for debugging, testing, diagnostic purposes when used with Ganache.\n    // bool validate_ethash;\n    // /// The epoch from which the DAG merkle roots start.\n    // uint64 dags_start_epoch;\n    // /// DAG merkle roots for the next several years.\n    // bytes32[] dags_merkle_roots;\n    // /// Hash of the header that has the highest cumulative difficulty. The current head of the\n    // /// canonical chain.\n    // bytes32 best_header_hash;\n    // /// We store the hashes of the blocks for the past `hashes_gc_threshold` headers.\n    // /// Events that happen past this threshold cannot be verified by the client.\n    // /// It is desirable that this number is larger than 7 days worth of headers, which is roughly\n    // /// 40k Ethereum blocks. So this number should be 40k in production.\n    // uint64 hashes_gc_threshold;\n    // /// We store full information about the headers for the past `finalized_gc_threshold` blocks.\n    // /// This is required to be able to adjust the canonical chain when the fork switch happens.\n    // /// The commonly used number is 500 blocks, so this number should be 500 in production.\n    // uint64 finalized_gc_threshold;\n    // /// Number of confirmations that applications can use to consider the transaction safe.\n    // /// For most use cases 25 should be enough, for super safe cases it should be 500.\n    // uint64 num_confirmations;\n    // /// Hashes of the canonical chain mapped to their numbers. Stores up to `hashes_gc_threshold`\n    // /// entries.\n    // /// header number -> header hash\n    // mapping(uint64 => bytes32) public canonical_header_hashes;\n    // /// All known header hashes. Stores up to `finalized_gc_threshold`.\n    // /// header number -> hashes of all headers with this number.\n    // mapping(uint64 => bytes32[]) public all_header_hashes;\n    // /// Known headers. Stores up to `finalized_gc_threshold`.\n    // mapping(uint => EthCommon.BlockHeader) public headers;\n    // /// Minimal information about the headers, like cumulative difficulty. Stores up to\n    // /// `finalized_gc_threshold`.\n    // mapping(uint => HeaderInfo) public infos;\n\n\n    // constructor(\n    //     // bool _validate_ethash,\n    //     // uint64 _dags_start_epoch,\n    //     // bytes32[] memory _dags_merkle_roots,\n    //     // bytes32[] memory _first_header,\n    //     // uint64 _hashes_gc_threshold,\n    //     // uint64 _finalized_gc_threshold,\n    //     // uint64 _num_confirmations\n    // ) public {\n    //     // validate_ethash = _validate_ethash;\n    //     // dags_start_epoch = _dags_start_epoch;\n    //     // dags_merkle_roots = _dags_merkle_roots;\n    //     // first_header = _first_header;\n    //     // hashes_gc_threshold = _hashes_gc_threshold;\n    //     // finalized_gc_threshold = _finalized_gc_threshold;\n    //     // num_confirmations = _num_confirmations;\n    // }\n\n    uint constant private DEFAULT_FINALITY_CONFIRMS = 13;\n\n    uint public finalityConfirms;\n\n    constructor(bytes memory _rlpHeader) public {\n        finalityConfirms = DEFAULT_FINALITY_CONFIRMS;\n\n        uint blockHash = EthCommon.calcBlockHeaderHash(_rlpHeader);\n        // Parse rlp-encoded block header into structure\n        EthCommon.BlockHeader memory header = EthCommon.parseBlockHeader(_rlpHeader);\n        // Save block header info\n        StoredBlockHeader memory storedBlock = StoredBlockHeader({\n            parentHash : header.parentHash,\n            stateRoot : header.stateRoot,\n            transactionsRoot : header.transactionsRoot,\n            receiptsRoot : header.receiptsRoot,\n            number : header.number,\n            difficulty : header.difficulty,\n            time : header.timestamp,\n            hash : blockHash\n            });\n        _setFirstBlock(storedBlock);\n    }\n\n\n    function addBlockHeader(bytes memory _rlpHeader) public payable returns (bool) {\n        // Calculate block header hash\n        uint blockHash = EthCommon.calcBlockHeaderHash(_rlpHeader);\n\n        // Check block existing\n        require(!blockExisting[blockHash], \"Relay block failed: block already relayed\");\n\n        // Parse rlp-encoded block header into structure\n        EthCommon.BlockHeader memory header = EthCommon.parseBlockHeader(_rlpHeader);\n\n        // Check the existence of parent block\n        require(blockExisting[header.parentHash], \"Relay block failed: parent block not relayed yet\");\n\n        // Check block height\n        require(header.number == blocks[header.parentHash].number.add(1), \"Relay block failed: invalid block blockHeightMax\");\n\n        // Check timestamp\n        require(header.timestamp > blocks[header.parentHash].time, \"Relay block failed: invalid timestamp\");\n\n        // Check difficulty\n        require(_checkDiffValidity(header.difficulty, blocks[header.parentHash].difficulty), \"Relay block failed: invalid difficulty\");\n\n        // Verify block PoW\n        uint sealHash = EthCommon.calcBlockSealHash(_rlpHeader);\n        bool rVerified = NextyPreCompiled.verifyEthash(header.number, header.difficulty, header.nonce, header.mixHash, sealHash);\n        require(rVerified, \"Relay block failed: invalid PoW\");\n\n        // Save block header info\n        StoredBlockHeader memory storedBlock = StoredBlockHeader({\n            parentHash : header.parentHash,\n            stateRoot : header.stateRoot,\n            transactionsRoot : header.transactionsRoot,\n            receiptsRoot : header.receiptsRoot,\n            number : header.number,\n            difficulty : header.difficulty,\n            time : header.timestamp,\n            hash : blockHash\n            });\n\n        blocks[blockHash] = storedBlock;\n        blockExisting[blockHash] = true;\n        // verifiedBlocks[blockHash] = true;\n\n        blocksByHeight[header.number].push(blockHash);\n        blocksByHeightExisting[header.number] = true;\n\n        if (header.number > blockHeightMax) {\n            blockHeightMax = header.number;\n        }\n\n        return true;\n    }\n\n    function getBlockHeightMax() public returns (uint256) {\n        return blockHeightMax;\n    }\n\n    function getStateRoot(bytes32 blockHash) public returns (bytes32) {\n        return bytes32(blocks[uint(blockHash)].stateRoot);\n    }\n\n    function getTxRoot(bytes32 blockHash) public returns (bytes32) {\n        return bytes32(blocks[uint(blockHash)].transactionsRoot);\n    }\n\n    function getReceiptRoot(bytes32 blockHash) public returns (bytes32) {\n        return bytes32(blocks[uint(blockHash)].receiptsRoot);\n    }\n\n    function VerifyReceiptsHash(bytes32 blockHash, bytes32 receiptsHash) external view returns (bool) {\n        return bytes32(blocks[uint(blockHash)].receiptsRoot) == receiptsHash;\n    }\n\n    // Check the difficulty of block is valid or not\n    // (the block difficulty adjustment is described here: https://github.com/ethereum/EIPs/issues/100)\n    // Note that this is only 'minimal check' because we do not have 'block uncles' information to calculate exactly.\n    // 'Minimal check' is enough to prevent someone from spamming relaying blocks with quite small difficulties\n    function _checkDiffValidity(uint diff, uint parentDiff) private pure returns (bool){\n        return diff >= parentDiff.sub((parentDiff / 10000) * 99);\n    }\n\n    function _setFirstBlock(StoredBlockHeader memory toSetBlock) private {\n\n        firstBlock = toSetBlock.hash;\n\n        blocks[toSetBlock.hash] = toSetBlock;\n        blockExisting[toSetBlock.hash] = true;\n\n        verifiedBlocks[toSetBlock.hash] = true;\n        finalizedBlocks[toSetBlock.hash] = true;\n\n        blocksByHeight[toSetBlock.number].push(toSetBlock.hash);\n        blocksByHeightExisting[toSetBlock.number] = true;\n\n        blockHeightMax = toSetBlock.number;\n\n        longestBranchHead[toSetBlock.hash] = toSetBlock.hash;\n    }\n\n\n    // Set the first block\n    function _defineFirstBlock() internal returns (StoredBlockHeader memory)  {\n        // Hard code the first block is #6419330\n        StoredBlockHeader memory ret = StoredBlockHeader({\n            parentHash : 0x65d283e7a4ea14e86404c9ad855d59b4a49a9ae4602dd80857c130a8a57de12d,\n            stateRoot : 0x87c377f10bfda590c8e3bfa6a6cafeb9736a251439766196ac508cfcbc795a32,\n            transactionsRoot : 0xf4cdf600a8b159e94c49f974ea2da5f05516098fab03dd231469e63982a2ab6e,\n            receiptsRoot : 0xd8e77b10e522f5f2c1165c74baa0054fca5e90960cdf26b99892106f06f100f7,\n            number : 6419330,\n            difficulty : 2125760053,\n            time : 1568874993,\n            hash : 0xa73ab1a315660100b28ad2121ce7f9df8cd76d250048e5d0ff2f0f458573a1b8\n            });\n\n       return ret;\n    }\n\n}",
  "sourcePath": "/media/harsha/home/workspace/horizon/elc/ethClient/contracts/Client.sol",
  "compiler": {
    "name": "solc",
    "version": "0.5.17+commit.d19bba13.Emscripten.clang"
  },
  "schemaVersion": "3.2.0-tezos.1",
  "updatedAt": "2020-12-06T15:36:46.818Z",
  "devdoc": {
    "methods": {},
    "title": "Ethereum light client"
  },
  "userdoc": {
    "methods": {}
  }
}