{
  "contractName": "ClientStorage",
  "abi": [
    {
      "inputs": [],
      "payable": false,
      "stateMutability": "nonpayable",
      "type": "constructor"
    },
    {
      "constant": true,
      "inputs": [
        {
          "internalType": "uint256",
          "name": "",
          "type": "uint256"
        }
      ],
      "name": "blockExisting",
      "outputs": [
        {
          "internalType": "bool",
          "name": "",
          "type": "bool"
        }
      ],
      "payable": false,
      "stateMutability": "view",
      "type": "function"
    },
    {
      "constant": true,
      "inputs": [],
      "name": "blockHeightMax",
      "outputs": [
        {
          "internalType": "uint256",
          "name": "",
          "type": "uint256"
        }
      ],
      "payable": false,
      "stateMutability": "view",
      "type": "function"
    },
    {
      "constant": true,
      "inputs": [
        {
          "internalType": "uint256",
          "name": "",
          "type": "uint256"
        }
      ],
      "name": "blocks",
      "outputs": [
        {
          "internalType": "uint256",
          "name": "parentHash",
          "type": "uint256"
        },
        {
          "internalType": "uint256",
          "name": "stateRoot",
          "type": "uint256"
        },
        {
          "internalType": "uint256",
          "name": "transactionsRoot",
          "type": "uint256"
        },
        {
          "internalType": "uint256",
          "name": "receiptsRoot",
          "type": "uint256"
        },
        {
          "internalType": "uint256",
          "name": "number",
          "type": "uint256"
        },
        {
          "internalType": "uint256",
          "name": "difficulty",
          "type": "uint256"
        },
        {
          "internalType": "uint256",
          "name": "time",
          "type": "uint256"
        },
        {
          "internalType": "uint256",
          "name": "hash",
          "type": "uint256"
        }
      ],
      "payable": false,
      "stateMutability": "view",
      "type": "function"
    },
    {
      "constant": true,
      "inputs": [
        {
          "internalType": "uint256",
          "name": "",
          "type": "uint256"
        }
      ],
      "name": "finalizedBlocks",
      "outputs": [
        {
          "internalType": "bool",
          "name": "",
          "type": "bool"
        }
      ],
      "payable": false,
      "stateMutability": "view",
      "type": "function"
    },
    {
      "constant": true,
      "inputs": [],
      "name": "firstBlock",
      "outputs": [
        {
          "internalType": "uint256",
          "name": "",
          "type": "uint256"
        }
      ],
      "payable": false,
      "stateMutability": "view",
      "type": "function"
    },
    {
      "constant": true,
      "inputs": [
        {
          "internalType": "uint256",
          "name": "",
          "type": "uint256"
        }
      ],
      "name": "longestBranchHead",
      "outputs": [
        {
          "internalType": "uint256",
          "name": "",
          "type": "uint256"
        }
      ],
      "payable": false,
      "stateMutability": "view",
      "type": "function"
    },
    {
      "constant": true,
      "inputs": [
        {
          "internalType": "uint256",
          "name": "",
          "type": "uint256"
        }
      ],
      "name": "verifiedBlocks",
      "outputs": [
        {
          "internalType": "bool",
          "name": "",
          "type": "bool"
        }
      ],
      "payable": false,
      "stateMutability": "view",
      "type": "function"
    }
  ],
  "bytecode": "0x608060405234801561001057600080fd5b50610264806100206000396000f3fe608060405234801561001057600080fd5b506004361061007d5760003560e01c8063a8b00a341161005b578063a8b00a34146100ea578063b1d3e15914610107578063d072e8d714610124578063f25b3f991461012c5761007d565b8063231b02681461008257806341e637491461009c57806392947cc0146100cd575b600080fd5b61008a61018a565b60408051918252519081900360200190f35b6100b9600480360360208110156100b257600080fd5b5035610190565b604080519115158252519081900360200190f35b61008a600480360360208110156100e357600080fd5b50356101a5565b6100b96004803603602081101561010057600080fd5b50356101b7565b6100b96004803603602081101561011d57600080fd5b50356101cc565b61008a6101e1565b6101496004803603602081101561014257600080fd5b50356101e7565b604080519889526020890197909752878701959095526060870193909352608086019190915260a085015260c084015260e083015251908190036101000190f35b60005481565b60026020526000908152604090205460ff1681565b60086020526000908152604090205481565b60046020526000908152604090205460ff1681565b60036020526000908152604090205460ff1681565b60075481565b6001602052806000526040600020600091509050806000015490806001015490806002015490806003015490806004015490806005015490806006015490806007015490508856fea265627a7a723158207aa7143099ffa6061e51cc88fa92147f5a2634ac6f79fc9061786a49a166f72564736f6c63430005110032",
  "source": "pragma solidity ^0.5.0;\n\n/**\n * The ClientStorage contract contains underlying data for EthNtyRelay contract\n */\n contract ClientStorage {\n \tstruct StoredBlockHeader {\n \t\tuint parentHash;\n \t\tuint stateRoot;\n \t\tuint transactionsRoot;\n \t\tuint receiptsRoot;\n \t\tuint number;\n \t\tuint difficulty;\n \t\tuint time;\n \t\tuint hash;\n \t}\n\n \t// The first block header hash\n \tuint public firstBlock;\n\n    // Blocks data, in the form: blockHeaderHash => BlockHeader\n    mapping (uint => StoredBlockHeader) public blocks;\n    // Block existing map, in the form: blockHeaderHash => bool\n    mapping (uint => bool) public blockExisting;\n    // Blocks in 'Verified' state\n    mapping (uint => bool) public verifiedBlocks;\n    // Blocks in 'Finalized' state\n    mapping (uint => bool) public finalizedBlocks;\n\n    // Valid relayed blocks for a block height, in the form: blockNumber => blockHeaderHash[]\n    mapping (uint => uint[]) blocksByHeight;\n    // Block height existing map, in the form: blockNumber => bool\n    mapping (uint => bool) blocksByHeightExisting;\n\n    // Max block height stored\n    uint public blockHeightMax;\n\n \t// Block header hash that points to longest chain head\n \t// (please note that 'longest' chain is based on total difficulty)\n \t// uint public longestChainHead;\n\n\t // Longest branch head of each checkpoint, in the form: (checkpoint block hash) => (head block hash)\n\t // (note that 'longest branch' means the branch which has biggest cumulative difficulty from checkpoint)\n\t mapping(uint => uint) public longestBranchHead;\n\n \tconstructor() public {\n\n \t}\n }\n\n",
  "sourcePath": "/media/harsha/home/workspace/horizon/elc/ethClient/contracts/ClientStorage.sol",
  "compiler": {
    "name": "solc",
    "version": "0.5.17+commit.d19bba13.Emscripten.clang"
  },
  "schemaVersion": "3.2.0-tezos.1",
  "updatedAt": "2020-12-06T15:36:46.826Z",
  "devdoc": {
    "methods": {}
  },
  "userdoc": {
    "methods": {},
    "notice": "The ClientStorage contract contains underlying data for EthNtyRelay contract"
  }
}