{
  "_format": "hh-sol-artifact-1",
  "contractName": "EthereumLightClient",
  "sourceName": "contracts/EthereumLightClient.sol",
  "abi": [
    {
      "anonymous": false,
      "inputs": [
        {
          "indexed": false,
          "internalType": "address",
          "name": "account",
          "type": "address"
        }
      ],
      "name": "Paused",
      "type": "event"
    },
    {
      "anonymous": false,
      "inputs": [
        {
          "indexed": false,
          "internalType": "address",
          "name": "account",
          "type": "address"
        }
      ],
      "name": "Unpaused",
      "type": "event"
    },
    {
      "inputs": [
        {
          "internalType": "bytes32",
          "name": "blockHash",
          "type": "bytes32"
        },
        {
          "internalType": "bytes32",
          "name": "receiptsHash",
          "type": "bytes32"
        }
      ],
      "name": "VerifyReceiptsHash",
      "outputs": [
        {
          "internalType": "bool",
          "name": "",
          "type": "bool"
        }
      ],
      "stateMutability": "view",
      "type": "function"
    },
    {
      "inputs": [
        {
          "internalType": "bytes",
          "name": "_rlpHeader",
          "type": "bytes"
        },
        {
          "internalType": "bytes32[4][64]",
          "name": "cache",
          "type": "bytes32[4][64]"
        },
        {
          "internalType": "bytes32[][64]",
          "name": "proofs",
          "type": "bytes32[][64]"
        }
      ],
      "name": "addBlockHeader",
      "outputs": [
        {
          "internalType": "bool",
          "name": "",
          "type": "bool"
        }
      ],
      "stateMutability": "nonpayable",
      "type": "function"
    },
    {
      "inputs": [
        {
          "internalType": "uint256",
          "name": "",
          "type": "uint256"
        }
      ],
      "name": "blockExisting",
      "outputs": [
        {
          "internalType": "bool",
          "name": "",
          "type": "bool"
        }
      ],
      "stateMutability": "view",
      "type": "function"
    },
    {
      "inputs": [],
      "name": "blockHeightMax",
      "outputs": [
        {
          "internalType": "uint256",
          "name": "",
          "type": "uint256"
        }
      ],
      "stateMutability": "view",
      "type": "function"
    },
    {
      "inputs": [
        {
          "internalType": "uint256",
          "name": "",
          "type": "uint256"
        }
      ],
      "name": "blocks",
      "outputs": [
        {
          "internalType": "uint256",
          "name": "parentHash",
          "type": "uint256"
        },
        {
          "internalType": "uint256",
          "name": "stateRoot",
          "type": "uint256"
        },
        {
          "internalType": "uint256",
          "name": "transactionsRoot",
          "type": "uint256"
        },
        {
          "internalType": "uint256",
          "name": "receiptsRoot",
          "type": "uint256"
        },
        {
          "internalType": "uint256",
          "name": "number",
          "type": "uint256"
        },
        {
          "internalType": "uint256",
          "name": "difficulty",
          "type": "uint256"
        },
        {
          "internalType": "uint256",
          "name": "time",
          "type": "uint256"
        },
        {
          "internalType": "uint256",
          "name": "hash",
          "type": "uint256"
        }
      ],
      "stateMutability": "view",
      "type": "function"
    },
    {
      "inputs": [
        {
          "internalType": "uint256",
          "name": "",
          "type": "uint256"
        },
        {
          "internalType": "uint256",
          "name": "",
          "type": "uint256"
        }
      ],
      "name": "blocksByHeight",
      "outputs": [
        {
          "internalType": "uint256",
          "name": "",
          "type": "uint256"
        }
      ],
      "stateMutability": "view",
      "type": "function"
    },
    {
      "inputs": [
        {
          "internalType": "uint256",
          "name": "",
          "type": "uint256"
        }
      ],
      "name": "blocksByHeightExisting",
      "outputs": [
        {
          "internalType": "bool",
          "name": "",
          "type": "bool"
        }
      ],
      "stateMutability": "view",
      "type": "function"
    },
    {
      "inputs": [],
      "name": "finalityConfirms",
      "outputs": [
        {
          "internalType": "uint256",
          "name": "",
          "type": "uint256"
        }
      ],
      "stateMutability": "view",
      "type": "function"
    },
    {
      "inputs": [
        {
          "internalType": "uint256",
          "name": "",
          "type": "uint256"
        }
      ],
      "name": "finalizedBlocks",
      "outputs": [
        {
          "internalType": "bool",
          "name": "",
          "type": "bool"
        }
      ],
      "stateMutability": "view",
      "type": "function"
    },
    {
      "inputs": [],
      "name": "firstBlock",
      "outputs": [
        {
          "internalType": "uint256",
          "name": "",
          "type": "uint256"
        }
      ],
      "stateMutability": "view",
      "type": "function"
    },
    {
      "inputs": [],
      "name": "getBlockHeightMax",
      "outputs": [
        {
          "internalType": "uint256",
          "name": "",
          "type": "uint256"
        }
      ],
      "stateMutability": "view",
      "type": "function"
    },
    {
      "inputs": [
        {
          "internalType": "bytes32",
          "name": "blockHash",
          "type": "bytes32"
        }
      ],
      "name": "getReceiptRoot",
      "outputs": [
        {
          "internalType": "bytes32",
          "name": "",
          "type": "bytes32"
        }
      ],
      "stateMutability": "view",
      "type": "function"
    },
    {
      "inputs": [
        {
          "internalType": "bytes32",
          "name": "blockHash",
          "type": "bytes32"
        }
      ],
      "name": "getStateRoot",
      "outputs": [
        {
          "internalType": "bytes32",
          "name": "",
          "type": "bytes32"
        }
      ],
      "stateMutability": "view",
      "type": "function"
    },
    {
      "inputs": [
        {
          "internalType": "bytes32",
          "name": "blockHash",
          "type": "bytes32"
        }
      ],
      "name": "getTxRoot",
      "outputs": [
        {
          "internalType": "bytes32",
          "name": "",
          "type": "bytes32"
        }
      ],
      "stateMutability": "view",
      "type": "function"
    },
    {
      "inputs": [
        {
          "internalType": "bytes",
          "name": "_rlpHeader",
          "type": "bytes"
        }
      ],
      "name": "initialize",
      "outputs": [],
      "stateMutability": "nonpayable",
      "type": "function"
    },
    {
      "inputs": [
        {
          "internalType": "uint256",
          "name": "",
          "type": "uint256"
        }
      ],
      "name": "longestBranchHead",
      "outputs": [
        {
          "internalType": "uint256",
          "name": "",
          "type": "uint256"
        }
      ],
      "stateMutability": "view",
      "type": "function"
    },
    {
      "inputs": [],
      "name": "paused",
      "outputs": [
        {
          "internalType": "bool",
          "name": "",
          "type": "bool"
        }
      ],
      "stateMutability": "view",
      "type": "function"
    },
    {
      "inputs": [
        {
          "internalType": "uint256",
          "name": "",
          "type": "uint256"
        }
      ],
      "name": "verifiedBlocks",
      "outputs": [
        {
          "internalType": "bool",
          "name": "",
          "type": "bool"
        }
      ],
      "stateMutability": "view",
      "type": "function"
    },
    {
      "inputs": [
        {
          "internalType": "bytes32",
          "name": "hash",
          "type": "bytes32"
        },
        {
          "internalType": "uint64",
          "name": "nonce",
          "type": "uint64"
        },
        {
          "internalType": "uint64",
          "name": "number",
          "type": "uint64"
        },
        {
          "internalType": "bytes32[4][64]",
          "name": "cache",
          "type": "bytes32[4][64]"
        },
        {
          "internalType": "bytes32[][64]",
          "name": "proofs",
          "type": "bytes32[][64]"
        },
        {
          "internalType": "uint256",
          "name": "difficulty",
          "type": "uint256"
        },
        {
          "internalType": "uint256",
          "name": "mixHash",
          "type": "uint256"
        }
      ],
      "name": "verifyEthash",
      "outputs": [
        {
          "internalType": "bool",
          "name": "",
          "type": "bool"
        }
      ],
      "stateMutability": "pure",
      "type": "function"
    }
  ],
  "bytecode": "0x608060405234801561001057600080fd5b50613971806100206000396000f3fe608060405234801561001057600080fd5b50600436106101215760003560e01c806392947cc0116100ad578063c4dd6d0311610071578063c4dd6d0314610234578063d072e8d71461023c578063d6bacb0e14610244578063dbad417c14610257578063f25b3f991461026a57610121565b806392947cc0146101d5578063a8b00a34146101e8578063ad562965146101fb578063b1d3e1591461020e578063b99955361461022157610121565b80633c6c6b73116100f45780633c6c6b731461017f57806341e6374914610192578063439fab91146101a5578063486f164c146101ba5780635c975abb146101cd57610121565b80630c5a1d6014610126578063231b02681461014457806329e141af1461014c5780632cb583781461016c575b600080fd5b61012e610291565b60405161013b9190613598565b60405180910390f35b61012e610297565b61015f61015a36600461339f565b61029d565b60405161013b919061358d565b61012e61017a366004613387565b6102b8565b61012e61018d3660046134f3565b6102d0565b61015f6101a0366004613387565b6102fe565b6101b86101b336600461344e565b610313565b005b61015f6101c8366004613480565b610433565b61015f610704565b61012e6101e3366004613387565b61070d565b61015f6101f6366004613387565b61071f565b61012e610209366004613387565b610734565b61015f61021c366004613387565b610749565b61015f61022f3660046133c0565b61075e565b61012e6107f1565b61012e6107f7565b61012e610252366004613387565b6107fd565b61015f610265366004613387565b610812565b61027d610278366004613387565b610827565b60405161013b9897969594939291906138e2565b606c5490565b60655481565b60008281526066602052604090206003015481145b92915050565b6000818152606660205260409020600101545b919050565b606a60205281600052604060002081815481106102e957fe5b90600052602060002001600091509150505481565b60676020526000908152604090205460ff1681565b600054610100900460ff168061032c575061032c61086a565b8061033a575060005460ff16155b61035f5760405162461bcd60e51b81526004016103569061374f565b60405180910390fd5b600054610100900460ff1615801561038a576000805460ff1961ff0019909116610100171660011790555b600d606e55600061039a8361087b565b90506103a4612fd5565b6103ad84610886565b90506103b7613054565b6040518061010001604052808360000151815260200183606001518152602001836080015181526020018360a00151815260200183610100015181526020018360e001518152602001836101600151815260200184815250905061041a81610abd565b505050801561042f576000805461ff00191690555b5050565b600061043d610704565b1561045a5760405162461bcd60e51b815260040161035690613725565b60006104658561087b565b60008181526067602052604090205490915060ff16156104975760405162461bcd60e51b8152600401610356906135e7565b61049f612fd5565b6104a886610886565b805160009081526067602052604090205490915060ff166104db5760405162461bcd60e51b815260040161035690613892565b80516000908152606660205260409020600401546104fa906001610bad565b8161010001511461051d5760405162461bcd60e51b8152600401610356906136d5565b8051600090815260666020526040902060060154610160820151116105545760405162461bcd60e51b81526004016103569061380b565b60e081015181516000908152606660205260409020600501546105779190610bd9565b6105935760405162461bcd60e51b8152600401610356906135a1565b600061059e87610bf6565b905060006105c78260001b846101c001518561010001518a8a8860e00151896101a0015161075e565b9050806105e65760405162461bcd60e51b815260040161035690613630565b6105ee613054565b506040805161010080820183528551825260608087015160208085019182526080808a015186880190815260a0808c0151958801958652958b01805192880192835260e0808d01519789019788526101608d015160c08a019081529089018e815260008f8152606687528b81208b51815597516001808a01919091559451600289015597516003880155935160048701559651600586015595516006850155905160079093019290925560678152858320805460ff19908116841790915584518452606a825286842080548085018255908552828520018b905584518452606b90915294909120805490941617909255606c549151909110156106f557610100840151606c555b50600198975050505050505050565b60335460ff1690565b606d6020526000908152604090205481565b60696020526000908152604090205460ff1681565b60009081526066602052604090206003015490565b60686020526000908152604090205460ff1681565b60006175306001600160401b038716048161077882610caa565b9050600061078583610d40565b90506000806107988d8d858d888e610d6a565b91509150600088600019816107a957fe5b0490508889600019816107b857fe5b06600101816107c357fe5b040182881480156107d45750600189115b80156107df57508181115b9e9d5050505050505050505050505050565b606e5481565b606c5481565b60009081526066602052604090206002015490565b606b6020526000908152604090205460ff1681565b6066602052600090815260409020805460018201546002830154600384015460048501546005860154600687015460079097015495969495939492939192909188565b6000610875306112fd565b15905090565b805160209091012090565b61088e612fd5565b610896613099565b6108a76108a284611303565b611328565b905060005b6108b582611372565b15610ab657806108d7576108d06108cb83611393565b6113e1565b8352610aae565b80600114156108f6576108ec6108cb83611393565b6020840152610aae565b80600214156109235761091061090b83611393565b611441565b6001600160a01b03166040840152610aae565b8060031415610942576109386108cb83611393565b6060840152610aae565b8060041415610961576109576108cb83611393565b6080840152610aae565b8060051415610980576109766108cb83611393565b60a0840152610aae565b80600614156109a45761099a61099583611393565b61145b565b60c0840152610aae565b80600714156109c3576109b96108cb83611393565b60e0840152610aae565b80600814156109e3576109d86108cb83611393565b610100840152610aae565b8060091415610a03576109f86108cb83611393565b610120840152610aae565b80600a1415610a2357610a186108cb83611393565b610140840152610aae565b80600b1415610a4357610a386108cb83611393565b610160840152610aae565b80600c1415610a6357610a5861099583611393565b610180840152610aae565b80600d1415610a8357610a786108cb83611393565b6101a0840152610aae565b80600e1415610aa357610a986108cb83611393565b6101c0840152610aae565b610aac82611393565b505b6001016108ac565b5050919050565b60e08101805160658190556000908152606660209081526040808320855181558286015160018083019190915582870151600283015560608701516003830155608087018051600484015560a0880151600584015560c09097015160068301558551600790920182905590845260678352818420805460ff199081168317909155855185526068845282852080548216831790558551855260698452828520805482168317905586518552606a84528285208651815480850183559187528587209091015586518552606b8452828520805490911690911790559351606c559151808252606d9092529190912055565b600082820183811015610bd25760405162461bcd60e51b815260040161035690613667565b9392505050565b6000610bec8261271081046063026114df565b9092101592915050565b60408051600d8082526101c0820190925260009160609190816020015b6060815260200190600190039081610c13579050509050610c32613099565b610c3e6108a285611303565b905060005b610c4c82611372565b8015610c585750600d81105b15610c8d57610c6e610c6983611393565b611507565b838281518110610c7a57fe5b6020908102919091010152600101610c43565b6060610c9884611585565b80516020909101209695505050505050565b6040805180820190915260208082527f58e6b093463d546aa98c4730e22904d16193f3dd9df36c468c27a58cb9b5a86e908201526000906101836001600160401b03841610801590610d0757506101836001600160401b03841611155b610d235760405162461bcd60e51b81526004016103569061379d565b61018119929092016001600160401b031660200290910151919050565b6000633fffff80628000008302015b610d5d6080820460026115a8565b6102b25760ff1901610d4f565b6040805160288082526060828101909352600092839260806001600160401b038a160492602082018180368337019050509050610da98160008c611692565b610db58160208b61169a565b610dbe816116c5565b90506000610dcc82826118ef565b6040805160208082526104208201909252919250606091908082016104008036833701905050905060005b81518163ffffffff161015610e4557610e1684600f83166004026118ef565b828263ffffffff1681518110610e2857fe5b63ffffffff90921660209283029190910190910152600101610df7565b50606081516001600160401b0381118015610e5f57600080fd5b50604051908082528060200260200182016040528015610e89578160200160208202803683370190505b5090508860005b604063ffffffff821610156111895760008763ffffffff16610ed78784188788518663ffffffff1681610ebf57fe5b0681518110610eca57fe5b602002602001015161190a565b63ffffffff1681610ee457fe5b069050610eef6130b9565b8d8363ffffffff1660408110610f0157fe5b6020020151905060008260020263ffffffff16905060608d8563ffffffff1660408110610f2a57fe5b6020020151905060008284604051602001610f46929190613552565b604051602081830303815290604052805190602001209050610f69828883611917565b5060005b60048163ffffffff16101561116d576008810260008663ffffffff841660048110610f9457fe5b60200201519050610fa860e082901c6119b4565b8b8363ffffffff1681518110610fba57fe5b602002602001019063ffffffff16908163ffffffff1681525050610fe160c082901c6119b4565b8b8360010163ffffffff1681518110610ff657fe5b602002602001019063ffffffff16908163ffffffff168152505061101d60a082901c6119b4565b8b8360020163ffffffff168151811061103257fe5b602002602001019063ffffffff16908163ffffffff1681525050611059608082901c6119b4565b8b8360030163ffffffff168151811061106e57fe5b602002602001019063ffffffff16908163ffffffff1681525050611095606082901c6119b4565b8b8360040163ffffffff16815181106110aa57fe5b602002602001019063ffffffff16908163ffffffff16815250506110d1604082901c6119b4565b8b8360050163ffffffff16815181106110e657fe5b63ffffffff9092166020928302919091018201526111069082901c6119b4565b8b8360060163ffffffff168151811061111b57fe5b63ffffffff90921660209283029190910190910152611139816119b4565b8b8360070163ffffffff168151811061114e57fe5b63ffffffff909216602092830291909101909101525050600101610f6d565b5061117889896119fb565b505060019093019250610e90915050565b5060005b83518163ffffffff161015611236576111fe6111e96111d4868463ffffffff16815181106111b757fe5b6020026020010151878560010163ffffffff1681518110610eca57fe5b868460020163ffffffff1681518110610eca57fe5b858360030163ffffffff1681518110610eca57fe5b84600463ffffffff84160463ffffffff168151811061121957fe5b63ffffffff9092166020928302919091019091015260040161118d565b506000805b600485518161124657fe5b048163ffffffff1610156112bb57602082901b91506000858263ffffffff168151811061126f57fe5b602090810291909101015163ffffffff601882811c60ff16600884811c61ff00169085901b62ff0000169490921b63ff000000169390931717919091171692909217915060010161123b565b5060405181906112d19088908390602001613513565b604051602081830303815290604052805190602001209850985050505050505050965096945050505050565b3b151590565b61130b6130d7565b506040805180820190915281518152602082810190820152919050565b611330613099565b61133982611ca4565b61134257600080fd5b60006113518360200151611cde565b60208085015160408051808201909152868152920190820152915050919050565b600061137c6130d7565b505080518051602091820151919092015191011190565b61139b6130d7565b6113a482611372565b6113ad57600080fd5b602082015160006113bd82611d41565b80830160209586015260408051808201909152908152938401919091525090919050565b8051600090158015906113f657508151602110155b6113ff57600080fd5b600061140e8360200151611cde565b8351602080860151830180519394509184900392919083101561143857826020036101000a820491505b50949350505050565b805160009060151461145257600080fd5b6102b2826113e1565b805160609061146957600080fd5b60006114788360200151611cde565b83519091508190036060816001600160401b038111801561149857600080fd5b506040519080825280601f01601f1916602001820160405280156114c3576020820181803683370190505b5090506000816020019050611438848760200151018285611dd5565b6000828211156115015760405162461bcd60e51b81526004016103569061369e565b50900390565b60608082600001516001600160401b038111801561152457600080fd5b506040519080825280601f01601f19166020018201604052801561154f576020820181803683370190505b5090508051600014156115635790506102cb565b600081602001905061157e8460200151828660000151611dd5565b5092915050565b60608061159183611e20565b9050610bd26115a2825160c0611f20565b82612079565b600082600214806115b95750826003145b156115c6575060016102b2565b6002830615806115d65750600283105b156115e3575060006102b2565b6115eb6130f1565b6115f4846120f6565b8051602082015191925090600061160c868389612134565b9050806001148061161f57506001870381145b156116315760019450505050506102b2565b60001983015b8015611684576116498260028a612134565b91508160011415611662576000955050505050506102b2565b6001880382141561167b576001955050505050506102b2565b60001901611637565b506000979650505050505050565b910160200152565b6116a583838361218d565b6116c0836004840163ffffffff602085901c81169061218d16565b505050565b60608151602814806116d8575081516040145b6116f45760405162461bcd60e51b815260040161035690613850565b6000600883518161170157fe5b04905061170c61310f565b60005b82811015611850576000816008029050603886826007018151811061173057fe5b602001015160f81c60f81b60f81c60ff16901b603087836006018151811061175457fe5b602001015160f81c60f81b60f81c60ff16901b602888846005018151811061177857fe5b602001015160f81c60f81b60f81c60ff16901b602089856004018151811061179c57fe5b602001015160f81c60f81b60f81c60ff16901b60188a86600301815181106117c057fe5b602001015160f81c60f81b60f81c60ff16901b60108b87600201815181106117e457fe5b602001015160f81c60f81b60f81c60ff16901b60088c886001018151811061180857fe5b602001015160f81c60f81b60f81c60ff16901b8c888151811061182757fe5b016020015160f81c1717171717171783836009811061184257fe5b60200201525060010161170f565b50600181836009811061185f57fe5b6020020152610100810180516001603f1b17905261187b61312e565b611884826121b7565b60408051818152606081810183529293509060208201818036833701905050905060005b60108163ffffffff1610156118e5576118dd81600402848363ffffffff16601081106118d057fe5b602002015184919061218d565b6001016118a8565b5095945050505050565b81810160040151600090611902816119b4565b949350505050565b6301000193919091021890565b600081815b85518110156119a957600086828151811061193357fe5b60200260200101519050808311611974578281604051602001611957929190613505565b6040516020818303038152906040528051906020012092506119a0565b8083604051602001611987929190613505565b6040516020818303038152906040528051906020012092505b5060010161191c565b509092149392505050565b600060188263ffffffff16901b63ff0000001660088363ffffffff16901b62ff00001660088463ffffffff16901c61ff001660188563ffffffff16901c1717179050919050565b602082810180519183015163010001939283021863ffffffff90811690915260408084015190850180518402909118821690526060808401519085018051840290911882169052608080840151908501805184029091188216905260a080840151908501805184029091188216905260c080840151908501805184029091188216905260e08084015190850180518402909118821690526101008084015190850180518402909118821690526101208084015190850180518402909118821690526101408084015190850180518402909118821690526101608084015190850180518402909118821690526101808084015190850180518402909118821690526101a08084015190850180518402909118821690526101c08084015190850180518402909118821690526101e08084015190850180518402909118821690526102008084015190850180518402909118821690526102208084015190850180518402909118821690526102408084015190850180518402909118821690526102608084015190850180518402909118821690526102808084015190850180518402909118821690526102a08084015190850180518402909118821690526102c08084015190850180518402909118821690526102e08084015190850180518402909118821690526103008084015190850180518402909118821690526103208084015190850180518402909118821690526103408084015190850180518402909118821690526103608084015190850180518402909118821690526103808084015190850180518402909118821690526103a08084015190850180518402909118821690526103c08084015190850180518402909118821690526103e0808401519085018051840290911882169052610400928301519290930180519091029091189091169052565b8051600090611cb5575060006102cb565b6020820151805160001a9060c0821015611cd4576000925050506102cb565b5060019392505050565b8051600090811a6080811015611cf85760009150506102cb565b60b8811080611d13575060c08110801590611d13575060f881105b15611d225760019150506102cb565b60c0811015611d365760b5190190506102cb565b60f5190190506102cb565b80516000908190811a6080811015611d5c576001915061157e565b60b8811015611d7157607e198101915061157e565b60c0811015611d9e5760b78103600185019450806020036101000a8551046001820181019350505061157e565b60f8811015611db35760be198101915061157e565b60019390930151602084900360f7016101000a900490920160f5190192915050565b80611ddf576116c0565b5b60208110611dff578251825260209283019290910190601f1901611de0565b915181516020939093036101000a6000190180199091169216919091179052565b6060815160001415611e4157506040805160008152602081019091526102cb565b6000805b8351811015611e7457838181518110611e5a57fe5b602002602001015151820191508080600101915050611e45565b6060826001600160401b0381118015611e8c57600080fd5b506040519080825280601f01601f191660200182016040528015611eb7576020820181803683370190505b50600092509050602081015b8551831015611438576060868481518110611eda57fe5b602002602001015190506000602082019050611ef883828451612369565b878581518110611f0457fe5b6020026020010151518301925050508280600101935050611ec3565b6060806038841015611f7d5760408051600180825281830190925290602082018180368337019050509050838301601f1a60f81b81600081518110611f6157fe5b60200101906001600160f81b031916908160001a905350610bd2565b600060015b808681611f8b57fe5b0415611fa05760019091019061010002611f82565b816001016001600160401b0381118015611fb957600080fd5b506040519080825280601f01601f191660200182016040528015611fe4576020820181803683370190505b509250603782860101601f1a60f81b8360008151811061200057fe5b60200101906001600160f81b031916908160001a905350600190505b81811161206f576101008183036101000a878161203557fe5b048161203d57fe5b06601f1a60f81b83828151811061205057fe5b60200101906001600160f81b031916908160001a90535060010161201c565b5050905092915050565b6060806040519050835180825260208201818101602087015b818310156120aa578051835260209283019201612092565b50855184518101855292509050808201602086015b818310156120d75780518352602092830192016120bf565b508651929092011591909101601f01601f191660405250905092915050565b6120fe6130f1565b600060001983015b6002810661211e576001919091019060029004612106565b6121266130f1565b918252602082015292915050565b600081848161213f57fe5b0693506001845b841561143857600285049460019081169081141561216f579181029184838161216b57fe5b0692505b61217982836123ad565b915084828161218457fe5b06915050612146565b6020820183018181538160081c60018201538160101c60028201538160181c600382015350505050565b6121bf61312e565b60486008816121cc61314d565b600080805b8685816121da57fe5b0483101561228557600091505b600582101561226f575060005b60058110156122645785878161220657fe5b04826005028201101561225c578882600502828560090201016009811061222957fe5b6020020151848383600502016019811061223f57fe5b602002015118848383600502016019811061225657fe5b60200201525b6001016121f4565b6001909101906121e7565b612278846123e7565b93506001909201916121d1565b61228d61312e565b60005b601081101561235b57600093505b600584101561235657600092505b600583101561234b578789816122be57fe5b048460050284011080156122d25750601081105b156123405785848460050201601981106122e857fe5b602002015163ffffffff168282601081106122ff57fe5b6020020152640100000000866005850286016019811061231b57fe5b60200201518161232757fe5b0482826001016010811061233757fe5b60200201526002015b6001909201916122ac565b60019093019261229e565b612290565b509998505050505050505050565b8282825b6020811061238c578151835260209283019290910190601f190161236d565b905182516020929092036101000a6000190180199091169116179052505050565b6000826123bc575060006102b2565b828202828482816123c957fe5b0414610bd25760405162461bcd60e51b8152600401610356906137ca565b6123ef61314d565b6123f761316c565b6123ff61316c565b61240761314d565b61240f61318a565b60405180610300016040528060018152602001618082815260200167800000000000808a8152602001678000000080008000815260200161808b81526020016380000001815260200167800000008000808181526020016780000000000080098152602001608a81526020016088815260200163800080098152602001638000000a8152602001638000808b815260200167800000000000008b8152602001678000000000008089815260200167800000000000800381526020016780000000000080028152602001678000000000000080815260200161800a815260200167800000008000000a81526020016780000000800080818152602001678000000000008080815260200163800000018152602001678000000080008008815250905060005b6018811015612fca576080878101516060808a01516040808c01516020808e01518e511890911890921890931889526101208b01516101008c015160e08d015160c08e015160a08f0151181818189089018190526101c08b01516101a08c01516101808d01516101608e01516101408f0151181818189289019283526102608b01516102408c01516102208d01516102008e01516101e08f015118181818918901919091526103008a01516102e08b01516102c08c01516102a08d01516102808e0151181818189288018390526001600160401b0360028202166001603f1b91829004179092188652510485600260200201516002026001600160401b03161785600060200201511884600160200201526001603f1b85600360200201518161265857fe5b0485600360200201516002026001600160401b03161785600160200201511884600260200201526001603f1b85600460200201518161269357fe5b0485600460200201516002026001600160401b031617856002600581106126b657fe5b602002015118606085015284516001603f1b9086516060808901519390920460029091026001600160401b031617909118608086810191825286518a5118808b5287516020808d018051909218825289516040808f0180519092189091528a518e8801805190911890528a51948e0180519095189094528901805160a08e0180519091189052805160c08e0180519091189052805160e08e018051909118905280516101008e0180519091189052516101208d018051909118905291880180516101408d018051909118905280516101608d018051909118905280516101808d018051909118905280516101a08d0180519091189052516101c08c018051909118905292870180516101e08c018051909118905280516102008c018051909118905280516102208c018051909118905280516102408c0180519091189052516102608b018051909118905281516102808b018051909118905281516102a08b018051909118905281516102c08b018051909118905281516102e08b018051909118905290516103008a01805190911890529084525163100000009060208901516001600160401b03641000000000909102169190041761010084015260408701516001603d1b9060408901516001600160401b03600890910216919004176101608401526060870151628000009060608901516001600160401b036502000000000090910216919004176102608401526080870151654000000000009060808901516001600160401b036204000090910216919004176102c084015260a08701516001603f1b900487600560200201516002026001600160401b0316178360026019811061292057fe5b602002015260c0870151621000008104651000000000009091026001600160401b039081169190911760a085015260e0880151664000000000000081046104009091028216176101a08501526101008801516208000081046520000000000090910282161761020085015261012088015160048082029092166001603e1b909104176103008501526101408801516101408901516001600160401b036001603e1b90910216919004176080840152610160870151670400000000000000906101608901516001600160401b036040909102169190041760e084015261018087015162200000906101808901516001600160401b036508000000000090910216919004176101408401526101a08701516602000000000000906101a08901516001600160401b0361800090910216919004176102408401526101c08701516008906101c08901516001600160401b036001603d1b90910216919004176102a08401526101e0870151641000000000906101e08901516001600160401b03631000000090910216919004176020840152610200808801516102008901516001600160401b0366800000000000009091021691900417610120840152610220870151648000000000906102208901516001600160401b036302000000909102169190041761018084015261024087015165080000000000906102408901516001600160401b036220000090910216919004176101e0840152610260870151610100906102608901516001600160401b03600160381b90910216919004176102e0840152610280870151642000000000906102808901516001600160401b036308000000909102169190041760608401526102a087015165100000000000906102a08901516001600160401b0362100000909102169190041760c08401526102c08701516302000000906102c08901516001600160401b0364800000000090910216919004176101c08401526102e0870151600160381b906102e08901516001600160401b036101009091021691900417610220840152610300870151660400000000000090048760186020020151614000026001600160401b031617836014602002015282600a602002015183600560200201511916836000602002015118876000602002015282600b602002015183600660200201511916836001602002015118876001602002015282600c602002015183600760200201511916836002602002015118876002602002015282600d602002015183600860200201511916836003602002015118876003602002015282600e602002015183600960200201511916836004602002015118876004602002015282600f602002015183600a602002015119168360056020020151188760056020020152826010602002015183600b602002015119168360066020020151188760066020020152826011602002015183600c602002015119168360076020020151188760076020020152826012602002015183600d602002015119168360086020020151188760086020020152826013602002015183600e602002015119168360096020020151188760096020020152826014602002015183600f6020020151191683600a60200201511887600a602002015282601560200201518360106020020151191683600b60200201511887600b602002015282601660200201518360116020020151191683600c60200201511887600c602002015282601760200201518360126020020151191683600d60200201511887600d602002015282601860200201518360136020020151191683600e60200201511887600e602002015282600060200201518360146020020151191683600f60200201511887600f6020020152826001602002015183601560200201511916836010602002015118876010602002015282600260200201518360166020020151191683601160200201511887601160200201528260036020020151836017602002015119168360126020020151188760126020020152826004602002015183601860200201511916836013602002015118876013602002015282600560200201518360006020020151191683601460200201511887601460200201528260066020020151836001602002015119168360156020020151188760156020020152826007602002015183600260200201511916836016602002015118876016602002015282600860200201518360036020020151191683601760200201511887601760200201528260096020020151836004602002015119168360186020020151188760186020020152818160188110612fb857fe5b60200201518751188752600101612533565b509495945050505050565b604051806101e00160405280600081526020016000815260200160006001600160a01b031681526020016000815260200160008152602001600081526020016060815260200160008152602001600081526020016000815260200160008152602001600081526020016060815260200160008152602001600081525090565b60405180610100016040528060008152602001600081526020016000815260200160008152602001600081526020016000815260200160008152602001600081525090565b60405180604001604052806130ac6130d7565b8152602001600081525090565b60405180608001604052806004906020820280368337509192915050565b604051806040016040528060008152602001600081525090565b60405180604001604052806002906020820280368337509192915050565b6040518061012001604052806009906020820280368337509192915050565b6040518061020001604052806010906020820280368337509192915050565b6040518061032001604052806019906020820280368337509192915050565b6040518060a001604052806005906020820280368337509192915050565b6040518061030001604052806018906020820280368337509192915050565b6000601f83818401126131ba578182fd5b6131c5610800613918565b9150818385612000860111156131da57600080fd5b60005b60408110156132495786848301126131f457600080fd5b60806131ff81613918565b9083019080848a84111561321257600080fd5b60005b6004811015613234578135845260209384019390910190600101613215565b505085525060209093019291506001016131dd565b5050505092915050565b6000601f8381840112613264578182fd5b61326f610800613918565b9150818360005b60408110156132495781358601878582011261329157600080fd5b80356001600160401b038111156132a457fe5b60208082026132b4828201613918565b8381528281019085840183870185018e10156132cf57600080fd5b600096505b858710156132f25780358352600196909601959184019184016132d4565b50885250509485019493909301925050600101613276565b600082601f83011261331a578081fd5b81356001600160401b0381111561332d57fe5b613340601f8201601f1916602001613918565b915080825283602082850101111561335757600080fd5b8060208401602084013760009082016020015292915050565b80356001600160401b03811681146102cb57600080fd5b600060208284031215613398578081fd5b5035919050565b600080604083850312156133b1578081fd5b50508035926020909101359150565b60008060008060008060006120c0888a0312156133db578283fd5b873596506133eb60208901613370565b95506133f960408901613370565b94506134088960608a016131a9565b93506120608801356001600160401b03811115613423578384fd5b61342f8a828b01613253565b93505061208088013591506120a0880135905092959891949750929550565b60006020828403121561345f578081fd5b81356001600160401b03811115613474578182fd5b6119028482850161330a565b60008060006120408486031215613495578283fd5b83356001600160401b03808211156134ab578485fd5b6134b78783880161330a565b94506134c687602088016131a9565b93506120208601359150808211156134dc578283fd5b506134e986828701613253565b9150509250925092565b600080604083850312156133b1578182fd5b918252602082015260400190565b60008351815b818110156135335760208187018101518583015201613519565b818111156135415782828501525b509190910191825250602001919050565b6000838252602080830184835b600481101561357c5781518352918301919083019060010161355f565b5050505060a0820190509392505050565b901515815260200190565b90815260200190565b60208082526026908201527f52656c617920626c6f636b206661696c65643a20696e76616c696420646966666040820152656963756c747960d01b606082015260800190565b60208082526029908201527f52656c617920626c6f636b206661696c65643a20626c6f636b20616c726561646040820152681e481c995b185e595960ba1b606082015260800190565b6020808252601f908201527f52656c617920626c6f636b206661696c65643a20696e76616c696420506f5700604082015260600190565b6020808252601b908201527f536166654d6174683a206164646974696f6e206f766572666c6f770000000000604082015260600190565b6020808252601e908201527f536166654d6174683a207375627472616374696f6e206f766572666c6f770000604082015260600190565b60208082526030908201527f52656c617920626c6f636b206661696c65643a20696e76616c696420626c6f6360408201526f0d640c4d8dec6d690cad2ced0e89ac2f60831b606082015260800190565b60208082526010908201526f14185d5cd8589b194e881c185d5cd95960821b604082015260600190565b6020808252602e908201527f496e697469616c697a61626c653a20636f6e747261637420697320616c72656160408201526d191e481a5b9a5d1a585b1a5e995960921b606082015260800190565b60208082526013908201527265706f6368206f7574206f662072616e67652160681b604082015260600190565b60208082526021908201527f536166654d6174683a206d756c7469706c69636174696f6e206f766572666c6f6040820152607760f81b606082015260800190565b60208082526025908201527f52656c617920626c6f636b206661696c65643a20696e76616c69642074696d6560408201526407374616d760dc1b606082015260800190565b60208082526022908201527f736861353132206f6e6c7920737570706f7274203634206f7220343020627974604082015261657360f01b606082015260800190565b60208082526030908201527f52656c617920626c6f636b206661696c65643a20706172656e7420626c6f636b60408201526f081b9bdd081c995b185e5959081e595d60821b606082015260800190565b978852602088019690965260408701949094526060860192909252608085015260a084015260c083015260e08201526101000190565b6040518181016001600160401b038111828210171561393357fe5b60405291905056fea2646970667358221220ee57351563db421ed53109327c4fef4821c3cfd189a6fcc81cc9c9560a3227cf64736f6c63430007030033",
  "linkReferences": {},
  "deployedLinkReferences": {}
}