{
  "_format": "hh-sol-artifact-1",
  "contractName": "EthereumLightClient",
  "sourceName": "contracts/EthereumLightClient.sol",
  "abi": [
    {
      "anonymous": false,
      "inputs": [
        {
          "indexed": false,
          "internalType": "address",
          "name": "account",
          "type": "address"
        }
      ],
      "name": "Paused",
      "type": "event"
    },
    {
      "anonymous": false,
      "inputs": [
        {
          "indexed": false,
          "internalType": "address",
          "name": "account",
          "type": "address"
        }
      ],
      "name": "Unpaused",
      "type": "event"
    },
    {
      "inputs": [
        {
          "internalType": "bytes32",
          "name": "blockHash",
          "type": "bytes32"
        },
        {
          "internalType": "bytes32",
          "name": "receiptsHash",
          "type": "bytes32"
        }
      ],
      "name": "VerifyReceiptsHash",
      "outputs": [
        {
          "internalType": "bool",
          "name": "",
          "type": "bool"
        }
      ],
      "stateMutability": "view",
      "type": "function"
    },
    {
      "inputs": [
        {
          "internalType": "bytes",
          "name": "_rlpHeader",
          "type": "bytes"
        },
        {
          "internalType": "bytes32[4][64]",
          "name": "cache",
          "type": "bytes32[4][64]"
        },
        {
          "internalType": "bytes32[][64]",
          "name": "proofs",
          "type": "bytes32[][64]"
        }
      ],
      "name": "addBlockHeader",
      "outputs": [
        {
          "internalType": "bool",
          "name": "",
          "type": "bool"
        }
      ],
      "stateMutability": "nonpayable",
      "type": "function"
    },
    {
      "inputs": [
        {
          "internalType": "uint256",
          "name": "",
          "type": "uint256"
        }
      ],
      "name": "blockExisting",
      "outputs": [
        {
          "internalType": "bool",
          "name": "",
          "type": "bool"
        }
      ],
      "stateMutability": "view",
      "type": "function"
    },
    {
      "inputs": [],
      "name": "blockHeightMax",
      "outputs": [
        {
          "internalType": "uint256",
          "name": "",
          "type": "uint256"
        }
      ],
      "stateMutability": "view",
      "type": "function"
    },
    {
      "inputs": [
        {
          "internalType": "uint256",
          "name": "",
          "type": "uint256"
        }
      ],
      "name": "blocks",
      "outputs": [
        {
          "internalType": "uint256",
          "name": "parentHash",
          "type": "uint256"
        },
        {
          "internalType": "uint256",
          "name": "stateRoot",
          "type": "uint256"
        },
        {
          "internalType": "uint256",
          "name": "transactionsRoot",
          "type": "uint256"
        },
        {
          "internalType": "uint256",
          "name": "receiptsRoot",
          "type": "uint256"
        },
        {
          "internalType": "uint256",
          "name": "number",
          "type": "uint256"
        },
        {
          "internalType": "uint256",
          "name": "difficulty",
          "type": "uint256"
        },
        {
          "internalType": "uint256",
          "name": "time",
          "type": "uint256"
        },
        {
          "internalType": "uint256",
          "name": "hash",
          "type": "uint256"
        }
      ],
      "stateMutability": "view",
      "type": "function"
    },
    {
      "inputs": [
        {
          "internalType": "uint256",
          "name": "",
          "type": "uint256"
        },
        {
          "internalType": "uint256",
          "name": "",
          "type": "uint256"
        }
      ],
      "name": "blocksByHeight",
      "outputs": [
        {
          "internalType": "uint256",
          "name": "",
          "type": "uint256"
        }
      ],
      "stateMutability": "view",
      "type": "function"
    },
    {
      "inputs": [
        {
          "internalType": "uint256",
          "name": "",
          "type": "uint256"
        }
      ],
      "name": "blocksByHeightExisting",
      "outputs": [
        {
          "internalType": "bool",
          "name": "",
          "type": "bool"
        }
      ],
      "stateMutability": "view",
      "type": "function"
    },
    {
      "inputs": [],
      "name": "finalityConfirms",
      "outputs": [
        {
          "internalType": "uint256",
          "name": "",
          "type": "uint256"
        }
      ],
      "stateMutability": "view",
      "type": "function"
    },
    {
      "inputs": [
        {
          "internalType": "uint256",
          "name": "",
          "type": "uint256"
        }
      ],
      "name": "finalizedBlocks",
      "outputs": [
        {
          "internalType": "bool",
          "name": "",
          "type": "bool"
        }
      ],
      "stateMutability": "view",
      "type": "function"
    },
    {
      "inputs": [],
      "name": "firstBlock",
      "outputs": [
        {
          "internalType": "uint256",
          "name": "",
          "type": "uint256"
        }
      ],
      "stateMutability": "view",
      "type": "function"
    },
    {
      "inputs": [],
      "name": "getBlockHeightMax",
      "outputs": [
        {
          "internalType": "uint256",
          "name": "",
          "type": "uint256"
        }
      ],
      "stateMutability": "view",
      "type": "function"
    },
    {
      "inputs": [
        {
          "internalType": "bytes32",
          "name": "blockHash",
          "type": "bytes32"
        }
      ],
      "name": "getReceiptRoot",
      "outputs": [
        {
          "internalType": "bytes32",
          "name": "",
          "type": "bytes32"
        }
      ],
      "stateMutability": "view",
      "type": "function"
    },
    {
      "inputs": [
        {
          "internalType": "bytes32",
          "name": "blockHash",
          "type": "bytes32"
        }
      ],
      "name": "getStateRoot",
      "outputs": [
        {
          "internalType": "bytes32",
          "name": "",
          "type": "bytes32"
        }
      ],
      "stateMutability": "view",
      "type": "function"
    },
    {
      "inputs": [
        {
          "internalType": "bytes32",
          "name": "blockHash",
          "type": "bytes32"
        }
      ],
      "name": "getTxRoot",
      "outputs": [
        {
          "internalType": "bytes32",
          "name": "",
          "type": "bytes32"
        }
      ],
      "stateMutability": "view",
      "type": "function"
    },
    {
      "inputs": [
        {
          "internalType": "bytes",
          "name": "_rlpHeader",
          "type": "bytes"
        }
      ],
      "name": "initialize",
      "outputs": [],
      "stateMutability": "nonpayable",
      "type": "function"
    },
    {
      "inputs": [
        {
          "internalType": "uint256",
          "name": "",
          "type": "uint256"
        }
      ],
      "name": "longestBranchHead",
      "outputs": [
        {
          "internalType": "uint256",
          "name": "",
          "type": "uint256"
        }
      ],
      "stateMutability": "view",
      "type": "function"
    },
    {
      "inputs": [],
      "name": "paused",
      "outputs": [
        {
          "internalType": "bool",
          "name": "",
          "type": "bool"
        }
      ],
      "stateMutability": "view",
      "type": "function"
    },
    {
      "inputs": [
        {
          "internalType": "uint256",
          "name": "",
          "type": "uint256"
        }
      ],
      "name": "verifiedBlocks",
      "outputs": [
        {
          "internalType": "bool",
          "name": "",
          "type": "bool"
        }
      ],
      "stateMutability": "view",
      "type": "function"
    },
    {
      "inputs": [
        {
          "internalType": "bytes32",
          "name": "hash",
          "type": "bytes32"
        },
        {
          "internalType": "uint64",
          "name": "nonce",
          "type": "uint64"
        },
        {
          "internalType": "uint64",
          "name": "number",
          "type": "uint64"
        },
        {
          "internalType": "bytes32[4][64]",
          "name": "cache",
          "type": "bytes32[4][64]"
        },
        {
          "internalType": "bytes32[][64]",
          "name": "proofs",
          "type": "bytes32[][64]"
        },
        {
          "internalType": "uint256",
          "name": "difficulty",
          "type": "uint256"
        },
        {
          "internalType": "uint256",
          "name": "mixHash",
          "type": "uint256"
        }
      ],
      "name": "verifyEthash",
      "outputs": [
        {
          "internalType": "bool",
          "name": "",
          "type": "bool"
        }
      ],
      "stateMutability": "pure",
      "type": "function"
    }
  ],
  "bytecode": "0x608060405234801561001057600080fd5b506139b6806100206000396000f3fe608060405234801561001057600080fd5b50600436106101215760003560e01c806392947cc0116100ad578063c4dd6d0311610071578063c4dd6d0314610234578063d072e8d71461023c578063d6bacb0e14610244578063dbad417c14610257578063f25b3f991461026a57610121565b806392947cc0146101d5578063a8b00a34146101e8578063ad562965146101fb578063b1d3e1591461020e578063b99955361461022157610121565b80633c6c6b73116100f45780633c6c6b731461017f57806341e6374914610192578063439fab91146101a5578063486f164c146101ba5780635c975abb146101cd57610121565b80630c5a1d6014610126578063231b02681461014457806329e141af1461014c5780632cb583781461016c575b600080fd5b61012e610291565b60405161013b91906135dd565b60405180910390f35b61012e610297565b61015f61015a3660046133e4565b61029d565b60405161013b91906135d2565b61012e61017a3660046133cc565b6102b8565b61012e61018d366004613538565b6102d0565b61015f6101a03660046133cc565b6102fe565b6101b86101b3366004613493565b610313565b005b61015f6101c83660046134c5565b610433565b61015f610704565b61012e6101e33660046133cc565b61070d565b61015f6101f63660046133cc565b61071f565b61012e6102093660046133cc565b610734565b61015f61021c3660046133cc565b610749565b61015f61022f366004613405565b61075e565b61012e6107f1565b61012e6107f7565b61012e6102523660046133cc565b6107fd565b61015f6102653660046133cc565b610812565b61027d6102783660046133cc565b610827565b60405161013b989796959493929190613927565b606c5490565b60655481565b60008281526066602052604090206003015481145b92915050565b6000818152606660205260409020600101545b919050565b606a60205281600052604060002081815481106102e957fe5b90600052602060002001600091509150505481565b60676020526000908152604090205460ff1681565b600054610100900460ff168061032c575061032c61086a565b8061033a575060005460ff16155b61035f5760405162461bcd60e51b815260040161035690613794565b60405180910390fd5b600054610100900460ff1615801561038a576000805460ff1961ff0019909116610100171660011790555b600d606e55600061039a8361087b565b90506103a4613013565b6103ad84610886565b90506103b7613099565b6040518061010001604052808360000151815260200183606001518152602001836080015181526020018360a00151815260200183610100015181526020018360e001518152602001836101600151815260200184815250905061041a81610add565b505050801561042f576000805461ff00191690555b5050565b600061043d610704565b1561045a5760405162461bcd60e51b81526004016103569061376a565b60006104658561087b565b60008181526067602052604090205490915060ff16156104975760405162461bcd60e51b81526004016103569061362c565b61049f613013565b6104a886610886565b805160009081526067602052604090205490915060ff166104db5760405162461bcd60e51b8152600401610356906138d7565b80516000908152606660205260409020600401546104fa906001610bcd565b8161010001511461051d5760405162461bcd60e51b81526004016103569061371a565b8051600090815260666020526040902060060154610160820151116105545760405162461bcd60e51b815260040161035690613850565b60e081015181516000908152606660205260409020600501546105779190610bf9565b6105935760405162461bcd60e51b8152600401610356906135e6565b600061059e87610c16565b905060006105c78260001b846101c001518561010001518a8a8860e00151896101a0015161075e565b9050806105e65760405162461bcd60e51b815260040161035690613675565b6105ee613099565b506040805161010080820183528551825260608087015160208085019182526080808a015186880190815260a0808c0151958801958652958b01805192880192835260e0808d01519789019788526101608d015160c08a019081529089018e815260008f8152606687528b81208b51815597516001808a01919091559451600289015597516003880155935160048701559651600586015595516006850155905160079093019290925560678152858320805460ff19908116841790915584518452606a825286842080548085018255908552828520018b905584518452606b90915294909120805490941617909255606c549151909110156106f557610100840151606c555b50600198975050505050505050565b60335460ff1690565b606d6020526000908152604090205481565b60696020526000908152604090205460ff1681565b60009081526066602052604090206003015490565b60686020526000908152604090205460ff1681565b60006175306001600160401b038716048161077882610ce8565b9050600061078583610d7e565b90506000806107988d8d858d888e610da8565b91509150600088600019816107a957fe5b0490508889600019816107b857fe5b06600101816107c357fe5b040182881480156107d45750600189115b80156107df57508181115b9e9d5050505050505050505050505050565b606e5481565b606c5481565b60009081526066602052604090206002015490565b606b6020526000908152604090205460ff1681565b6066602052600090815260409020805460018201546002830154600384015460048501546005860154600687015460079097015495969495939492939192909188565b60006108753061133b565b15905090565b805160209091012090565b61088e613013565b6108966130de565b6108a76108a284611341565b611366565b905060005b6108b5826113b0565b15610ad657806108d7576108d06108cb836113d1565b61141f565b8352610ace565b80600114156108f6576108ec6108cb836113d1565b6020840152610ace565b80600214156109235761091061090b836113d1565b61147f565b6001600160a01b03166040840152610ace565b8060031415610942576109386108cb836113d1565b6060840152610ace565b8060041415610961576109576108cb836113d1565b6080840152610ace565b8060051415610980576109766108cb836113d1565b60a0840152610ace565b80600614156109a45761099a610995836113d1565b611499565b60c0840152610ace565b80600714156109c3576109b96108cb836113d1565b60e0840152610ace565b80600814156109e3576109d86108cb836113d1565b610100840152610ace565b8060091415610a03576109f86108cb836113d1565b610120840152610ace565b80600a1415610a2357610a186108cb836113d1565b610140840152610ace565b80600b1415610a4357610a386108cb836113d1565b610160840152610ace565b80600c1415610a6357610a58610995836113d1565b610180840152610ace565b80600d1415610a8357610a786108cb836113d1565b6101a0840152610ace565b80600e1415610aa357610a986108cb836113d1565b6101c0840152610ace565b80600f1415610ac357610ab86108cb836113d1565b6101e0840152610ace565b610acc826113d1565b505b6001016108ac565b5050919050565b60e08101805160658190556000908152606660209081526040808320855181558286015160018083019190915582870151600283015560608701516003830155608087018051600484015560a0880151600584015560c09097015160068301558551600790920182905590845260678352818420805460ff199081168317909155855185526068845282852080548216831790558551855260698452828520805482168317905586518552606a84528285208651815480850183559187528587209091015586518552606b8452828520805490911690911790559351606c559151808252606d9092529190912055565b600082820183811015610bf25760405162461bcd60e51b8152600401610356906136ac565b9392505050565b6000610c0c82612710810460630261151d565b9092101592915050565b60408051600e8082526101e0820190925260009160609190816020015b6060815260200190600190039081610c33579050509050610c526130de565b610c5e6108a285611341565b905060005b610c6c826113b0565b8015610c785750600e81105b15610ccb5780600d1415610c9b57610c8f826113d1565b50610c99826113d1565b505b610cac610ca7836113d1565b611545565b838281518110610cb857fe5b6020908102919091010152600101610c63565b6060610cd6846115c3565b80516020909101209695505050505050565b6040805180820190915260208082527febe50dbd916746b56e58869e26485d140f92866d59fbb894405d8c7ef07b1086908201526000906101946001600160401b03841610801590610d4557506101946001600160401b03841611155b610d615760405162461bcd60e51b8152600401610356906137e2565b61019219929092016001600160401b031660200290910151919050565b6000633fffff80628000008302015b610d9b6080820460026115e6565b6102b25760ff1901610d8d565b6040805160288082526060828101909352600092839260806001600160401b038a160492602082018180368337019050509050610de78160008c6116d0565b610df38160208b6116d8565b610dfc81611703565b90506000610e0a828261192d565b6040805160208082526104208201909252919250606091908082016104008036833701905050905060005b81518163ffffffff161015610e8357610e5484600f831660040261192d565b828263ffffffff1681518110610e6657fe5b63ffffffff90921660209283029190910190910152600101610e35565b50606081516001600160401b0381118015610e9d57600080fd5b50604051908082528060200260200182016040528015610ec7578160200160208202803683370190505b5090508860005b604063ffffffff821610156111c75760008763ffffffff16610f158784188788518663ffffffff1681610efd57fe5b0681518110610f0857fe5b6020026020010151611948565b63ffffffff1681610f2257fe5b069050610f2d6130fe565b8d8363ffffffff1660408110610f3f57fe5b6020020151905060008260020263ffffffff16905060608d8563ffffffff1660408110610f6857fe5b6020020151905060008284604051602001610f84929190613597565b604051602081830303815290604052805190602001209050610fa7828883611955565b5060005b60048163ffffffff1610156111ab576008810260008663ffffffff841660048110610fd257fe5b60200201519050610fe660e082901c6119f2565b8b8363ffffffff1681518110610ff857fe5b602002602001019063ffffffff16908163ffffffff168152505061101f60c082901c6119f2565b8b8360010163ffffffff168151811061103457fe5b602002602001019063ffffffff16908163ffffffff168152505061105b60a082901c6119f2565b8b8360020163ffffffff168151811061107057fe5b602002602001019063ffffffff16908163ffffffff1681525050611097608082901c6119f2565b8b8360030163ffffffff16815181106110ac57fe5b602002602001019063ffffffff16908163ffffffff16815250506110d3606082901c6119f2565b8b8360040163ffffffff16815181106110e857fe5b602002602001019063ffffffff16908163ffffffff168152505061110f604082901c6119f2565b8b8360050163ffffffff168151811061112457fe5b63ffffffff9092166020928302919091018201526111449082901c6119f2565b8b8360060163ffffffff168151811061115957fe5b63ffffffff90921660209283029190910190910152611177816119f2565b8b8360070163ffffffff168151811061118c57fe5b63ffffffff909216602092830291909101909101525050600101610fab565b506111b68989611a39565b505060019093019250610ece915050565b5060005b83518163ffffffff1610156112745761123c611227611212868463ffffffff16815181106111f557fe5b6020026020010151878560010163ffffffff1681518110610f0857fe5b868460020163ffffffff1681518110610f0857fe5b858360030163ffffffff1681518110610f0857fe5b84600463ffffffff84160463ffffffff168151811061125757fe5b63ffffffff909216602092830291909101909101526004016111cb565b506000805b600485518161128457fe5b048163ffffffff1610156112f957602082901b91506000858263ffffffff16815181106112ad57fe5b602090810291909101015163ffffffff601882811c60ff16600884811c61ff00169085901b62ff0000169490921b63ff0000001693909317179190911716929092179150600101611279565b50604051819061130f9088908390602001613558565b604051602081830303815290604052805190602001209850985050505050505050965096945050505050565b3b151590565b61134961311c565b506040805180820190915281518152602082810190820152919050565b61136e6130de565b61137782611ce2565b61138057600080fd5b600061138f8360200151611d1c565b60208085015160408051808201909152868152920190820152915050919050565b60006113ba61311c565b505080518051602091820151919092015191011190565b6113d961311c565b6113e2826113b0565b6113eb57600080fd5b602082015160006113fb82611d7f565b80830160209586015260408051808201909152908152938401919091525090919050565b80516000901580159061143457508151602110155b61143d57600080fd5b600061144c8360200151611d1c565b8351602080860151830180519394509184900392919083101561147657826020036101000a820491505b50949350505050565b805160009060151461149057600080fd5b6102b28261141f565b80516060906114a757600080fd5b60006114b68360200151611d1c565b83519091508190036060816001600160401b03811180156114d657600080fd5b506040519080825280601f01601f191660200182016040528015611501576020820181803683370190505b5090506000816020019050611476848760200151018285611e13565b60008282111561153f5760405162461bcd60e51b8152600401610356906136e3565b50900390565b60608082600001516001600160401b038111801561156257600080fd5b506040519080825280601f01601f19166020018201604052801561158d576020820181803683370190505b5090508051600014156115a15790506102cb565b60008160200190506115bc8460200151828660000151611e13565b5092915050565b6060806115cf83611e5e565b9050610bf26115e0825160c0611f5e565b826120b7565b600082600214806115f75750826003145b15611604575060016102b2565b6002830615806116145750600283105b15611621575060006102b2565b611629613136565b61163284612134565b8051602082015191925090600061164a868389612172565b9050806001148061165d57506001870381145b1561166f5760019450505050506102b2565b60001983015b80156116c2576116878260028a612172565b915081600114156116a0576000955050505050506102b2565b600188038214156116b9576001955050505050506102b2565b60001901611675565b506000979650505050505050565b910160200152565b6116e38383836121cb565b6116fe836004840163ffffffff602085901c8116906121cb16565b505050565b6060815160281480611716575081516040145b6117325760405162461bcd60e51b815260040161035690613895565b6000600883518161173f57fe5b04905061174a613154565b60005b8281101561188e576000816008029050603886826007018151811061176e57fe5b602001015160f81c60f81b60f81c60ff16901b603087836006018151811061179257fe5b602001015160f81c60f81b60f81c60ff16901b60288884600501815181106117b657fe5b602001015160f81c60f81b60f81c60ff16901b60208985600401815181106117da57fe5b602001015160f81c60f81b60f81c60ff16901b60188a86600301815181106117fe57fe5b602001015160f81c60f81b60f81c60ff16901b60108b876002018151811061182257fe5b602001015160f81c60f81b60f81c60ff16901b60088c886001018151811061184657fe5b602001015160f81c60f81b60f81c60ff16901b8c888151811061186557fe5b016020015160f81c1717171717171783836009811061188057fe5b60200201525060010161174d565b50600181836009811061189d57fe5b6020020152610100810180516001603f1b1790526118b9613173565b6118c2826121f5565b60408051818152606081810183529293509060208201818036833701905050905060005b60108163ffffffff1610156119235761191b81600402848363ffffffff166010811061190e57fe5b60200201518491906121cb565b6001016118e6565b5095945050505050565b81810160040151600090611940816119f2565b949350505050565b6301000193919091021890565b600081815b85518110156119e757600086828151811061197157fe5b602002602001015190508083116119b257828160405160200161199592919061354a565b6040516020818303038152906040528051906020012092506119de565b80836040516020016119c592919061354a565b6040516020818303038152906040528051906020012092505b5060010161195a565b509092149392505050565b600060188263ffffffff16901b63ff0000001660088363ffffffff16901b62ff00001660088463ffffffff16901c61ff001660188563ffffffff16901c1717179050919050565b602082810180519183015163010001939283021863ffffffff90811690915260408084015190850180518402909118821690526060808401519085018051840290911882169052608080840151908501805184029091188216905260a080840151908501805184029091188216905260c080840151908501805184029091188216905260e08084015190850180518402909118821690526101008084015190850180518402909118821690526101208084015190850180518402909118821690526101408084015190850180518402909118821690526101608084015190850180518402909118821690526101808084015190850180518402909118821690526101a08084015190850180518402909118821690526101c08084015190850180518402909118821690526101e08084015190850180518402909118821690526102008084015190850180518402909118821690526102208084015190850180518402909118821690526102408084015190850180518402909118821690526102608084015190850180518402909118821690526102808084015190850180518402909118821690526102a08084015190850180518402909118821690526102c08084015190850180518402909118821690526102e08084015190850180518402909118821690526103008084015190850180518402909118821690526103208084015190850180518402909118821690526103408084015190850180518402909118821690526103608084015190850180518402909118821690526103808084015190850180518402909118821690526103a08084015190850180518402909118821690526103c08084015190850180518402909118821690526103e0808401519085018051840290911882169052610400928301519290930180519091029091189091169052565b8051600090611cf3575060006102cb565b6020820151805160001a9060c0821015611d12576000925050506102cb565b5060019392505050565b8051600090811a6080811015611d365760009150506102cb565b60b8811080611d51575060c08110801590611d51575060f881105b15611d605760019150506102cb565b60c0811015611d745760b5190190506102cb565b60f5190190506102cb565b80516000908190811a6080811015611d9a57600191506115bc565b60b8811015611daf57607e19810191506115bc565b60c0811015611ddc5760b78103600185019450806020036101000a855104600182018101935050506115bc565b60f8811015611df15760be19810191506115bc565b60019390930151602084900360f7016101000a900490920160f5190192915050565b80611e1d576116fe565b5b60208110611e3d578251825260209283019290910190601f1901611e1e565b915181516020939093036101000a6000190180199091169216919091179052565b6060815160001415611e7f57506040805160008152602081019091526102cb565b6000805b8351811015611eb257838181518110611e9857fe5b602002602001015151820191508080600101915050611e83565b6060826001600160401b0381118015611eca57600080fd5b506040519080825280601f01601f191660200182016040528015611ef5576020820181803683370190505b50600092509050602081015b8551831015611476576060868481518110611f1857fe5b602002602001015190506000602082019050611f36838284516123a7565b878581518110611f4257fe5b6020026020010151518301925050508280600101935050611f01565b6060806038841015611fbb5760408051600180825281830190925290602082018180368337019050509050838301601f1a60f81b81600081518110611f9f57fe5b60200101906001600160f81b031916908160001a905350610bf2565b600060015b808681611fc957fe5b0415611fde5760019091019061010002611fc0565b816001016001600160401b0381118015611ff757600080fd5b506040519080825280601f01601f191660200182016040528015612022576020820181803683370190505b509250603782860101601f1a60f81b8360008151811061203e57fe5b60200101906001600160f81b031916908160001a905350600190505b8181116120ad576101008183036101000a878161207357fe5b048161207b57fe5b06601f1a60f81b83828151811061208e57fe5b60200101906001600160f81b031916908160001a90535060010161205a565b5050905092915050565b6060806040519050835180825260208201818101602087015b818310156120e85780518352602092830192016120d0565b50855184518101855292509050808201602086015b818310156121155780518352602092830192016120fd565b508651929092011591909101601f01601f191660405250905092915050565b61213c613136565b600060001983015b6002810661215c576001919091019060029004612144565b612164613136565b918252602082015292915050565b600081848161217d57fe5b0693506001845b84156114765760028504946001908116908114156121ad57918102918483816121a957fe5b0692505b6121b782836123eb565b91508482816121c257fe5b06915050612184565b6020820183018181538160081c60018201538160101c60028201538160181c600382015350505050565b6121fd613173565b604860088161220a613192565b600080805b86858161221857fe5b048310156122c357600091505b60058210156122ad575060005b60058110156122a25785878161224457fe5b04826005028201101561229a578882600502828560090201016009811061226757fe5b6020020151848383600502016019811061227d57fe5b602002015118848383600502016019811061229457fe5b60200201525b600101612232565b600190910190612225565b6122b684612425565b935060019092019161220f565b6122cb613173565b60005b601081101561239957600093505b600584101561239457600092505b6005831015612389578789816122fc57fe5b048460050284011080156123105750601081105b1561237e57858484600502016019811061232657fe5b602002015163ffffffff1682826010811061233d57fe5b6020020152640100000000866005850286016019811061235957fe5b60200201518161236557fe5b0482826001016010811061237557fe5b60200201526002015b6001909201916122ea565b6001909301926122dc565b6122ce565b509998505050505050505050565b8282825b602081106123ca578151835260209283019290910190601f19016123ab565b905182516020929092036101000a6000190180199091169116179052505050565b6000826123fa575060006102b2565b8282028284828161240757fe5b0414610bf25760405162461bcd60e51b81526004016103569061380f565b61242d613192565b6124356131b1565b61243d6131b1565b612445613192565b61244d6131cf565b60405180610300016040528060018152602001618082815260200167800000000000808a8152602001678000000080008000815260200161808b81526020016380000001815260200167800000008000808181526020016780000000000080098152602001608a81526020016088815260200163800080098152602001638000000a8152602001638000808b815260200167800000000000008b8152602001678000000000008089815260200167800000000000800381526020016780000000000080028152602001678000000000000080815260200161800a815260200167800000008000000a81526020016780000000800080818152602001678000000000008080815260200163800000018152602001678000000080008008815250905060005b6018811015613008576080878101516060808a01516040808c01516020808e01518e511890911890921890931889526101208b01516101008c015160e08d015160c08e015160a08f0151181818189089018190526101c08b01516101a08c01516101808d01516101608e01516101408f0151181818189289019283526102608b01516102408c01516102208d01516102008e01516101e08f015118181818918901919091526103008a01516102e08b01516102c08c01516102a08d01516102808e0151181818189288018390526001600160401b0360028202166001603f1b91829004179092188652510485600260200201516002026001600160401b03161785600060200201511884600160200201526001603f1b85600360200201518161269657fe5b0485600360200201516002026001600160401b03161785600160200201511884600260200201526001603f1b8560046020020151816126d157fe5b0485600460200201516002026001600160401b031617856002600581106126f457fe5b602002015118606085015284516001603f1b9086516060808901519390920460029091026001600160401b031617909118608086810191825286518a5118808b5287516020808d018051909218825289516040808f0180519092189091528a518e8801805190911890528a51948e0180519095189094528901805160a08e0180519091189052805160c08e0180519091189052805160e08e018051909118905280516101008e0180519091189052516101208d018051909118905291880180516101408d018051909118905280516101608d018051909118905280516101808d018051909118905280516101a08d0180519091189052516101c08c018051909118905292870180516101e08c018051909118905280516102008c018051909118905280516102208c018051909118905280516102408c0180519091189052516102608b018051909118905281516102808b018051909118905281516102a08b018051909118905281516102c08b018051909118905281516102e08b018051909118905290516103008a01805190911890529084525163100000009060208901516001600160401b03641000000000909102169190041761010084015260408701516001603d1b9060408901516001600160401b03600890910216919004176101608401526060870151628000009060608901516001600160401b036502000000000090910216919004176102608401526080870151654000000000009060808901516001600160401b036204000090910216919004176102c084015260a08701516001603f1b900487600560200201516002026001600160401b0316178360026019811061295e57fe5b602002015260c0870151621000008104651000000000009091026001600160401b039081169190911760a085015260e0880151664000000000000081046104009091028216176101a08501526101008801516208000081046520000000000090910282161761020085015261012088015160048082029092166001603e1b909104176103008501526101408801516101408901516001600160401b036001603e1b90910216919004176080840152610160870151670400000000000000906101608901516001600160401b036040909102169190041760e084015261018087015162200000906101808901516001600160401b036508000000000090910216919004176101408401526101a08701516602000000000000906101a08901516001600160401b0361800090910216919004176102408401526101c08701516008906101c08901516001600160401b036001603d1b90910216919004176102a08401526101e0870151641000000000906101e08901516001600160401b03631000000090910216919004176020840152610200808801516102008901516001600160401b0366800000000000009091021691900417610120840152610220870151648000000000906102208901516001600160401b036302000000909102169190041761018084015261024087015165080000000000906102408901516001600160401b036220000090910216919004176101e0840152610260870151610100906102608901516001600160401b03600160381b90910216919004176102e0840152610280870151642000000000906102808901516001600160401b036308000000909102169190041760608401526102a087015165100000000000906102a08901516001600160401b0362100000909102169190041760c08401526102c08701516302000000906102c08901516001600160401b0364800000000090910216919004176101c08401526102e0870151600160381b906102e08901516001600160401b036101009091021691900417610220840152610300870151660400000000000090048760186020020151614000026001600160401b031617836014602002015282600a602002015183600560200201511916836000602002015118876000602002015282600b602002015183600660200201511916836001602002015118876001602002015282600c602002015183600760200201511916836002602002015118876002602002015282600d602002015183600860200201511916836003602002015118876003602002015282600e602002015183600960200201511916836004602002015118876004602002015282600f602002015183600a602002015119168360056020020151188760056020020152826010602002015183600b602002015119168360066020020151188760066020020152826011602002015183600c602002015119168360076020020151188760076020020152826012602002015183600d602002015119168360086020020151188760086020020152826013602002015183600e602002015119168360096020020151188760096020020152826014602002015183600f6020020151191683600a60200201511887600a602002015282601560200201518360106020020151191683600b60200201511887600b602002015282601660200201518360116020020151191683600c60200201511887600c602002015282601760200201518360126020020151191683600d60200201511887600d602002015282601860200201518360136020020151191683600e60200201511887600e602002015282600060200201518360146020020151191683600f60200201511887600f6020020152826001602002015183601560200201511916836010602002015118876010602002015282600260200201518360166020020151191683601160200201511887601160200201528260036020020151836017602002015119168360126020020151188760126020020152826004602002015183601860200201511916836013602002015118876013602002015282600560200201518360006020020151191683601460200201511887601460200201528260066020020151836001602002015119168360156020020151188760156020020152826007602002015183600260200201511916836016602002015118876016602002015282600860200201518360036020020151191683601760200201511887601760200201528260096020020151836004602002015119168360186020020151188760186020020152818160188110612ff657fe5b60200201518751188752600101612571565b509495945050505050565b604051806102000160405280600081526020016000815260200160006001600160a01b03168152602001600081526020016000815260200160008152602001606081526020016000815260200160008152602001600081526020016000815260200160008152602001606081526020016000815260200160008152602001600081525090565b60405180610100016040528060008152602001600081526020016000815260200160008152602001600081526020016000815260200160008152602001600081525090565b60405180604001604052806130f161311c565b8152602001600081525090565b60405180608001604052806004906020820280368337509192915050565b604051806040016040528060008152602001600081525090565b60405180604001604052806002906020820280368337509192915050565b6040518061012001604052806009906020820280368337509192915050565b6040518061020001604052806010906020820280368337509192915050565b6040518061032001604052806019906020820280368337509192915050565b6040518060a001604052806005906020820280368337509192915050565b6040518061030001604052806018906020820280368337509192915050565b6000601f83818401126131ff578182fd5b61320a61080061395d565b91508183856120008601111561321f57600080fd5b60005b604081101561328e57868483011261323957600080fd5b60806132448161395d565b9083019080848a84111561325757600080fd5b60005b600481101561327957813584526020938401939091019060010161325a565b50508552506020909301929150600101613222565b5050505092915050565b6000601f83818401126132a9578182fd5b6132b461080061395d565b9150818360005b604081101561328e578135860187858201126132d657600080fd5b80356001600160401b038111156132e957fe5b60208082026132f982820161395d565b8381528281019085840183870185018e101561331457600080fd5b600096505b85871015613337578035835260019690960195918401918401613319565b508852505094850194939093019250506001016132bb565b600082601f83011261335f578081fd5b81356001600160401b0381111561337257fe5b613385601f8201601f191660200161395d565b915080825283602082850101111561339c57600080fd5b8060208401602084013760009082016020015292915050565b80356001600160401b03811681146102cb57600080fd5b6000602082840312156133dd578081fd5b5035919050565b600080604083850312156133f6578081fd5b50508035926020909101359150565b60008060008060008060006120c0888a031215613420578283fd5b87359650613430602089016133b5565b955061343e604089016133b5565b945061344d8960608a016131ee565b93506120608801356001600160401b03811115613468578384fd5b6134748a828b01613298565b93505061208088013591506120a0880135905092959891949750929550565b6000602082840312156134a4578081fd5b81356001600160401b038111156134b9578182fd5b6119408482850161334f565b600080600061204084860312156134da578283fd5b83356001600160401b03808211156134f0578485fd5b6134fc8783880161334f565b945061350b87602088016131ee565b9350612020860135915080821115613521578283fd5b5061352e86828701613298565b9150509250925092565b600080604083850312156133f6578182fd5b918252602082015260400190565b60008351815b81811015613578576020818701810151858301520161355e565b818111156135865782828501525b509190910191825250602001919050565b6000838252602080830184835b60048110156135c1578151835291830191908301906001016135a4565b5050505060a0820190509392505050565b901515815260200190565b90815260200190565b60208082526026908201527f52656c617920626c6f636b206661696c65643a20696e76616c696420646966666040820152656963756c747960d01b606082015260800190565b60208082526029908201527f52656c617920626c6f636b206661696c65643a20626c6f636b20616c726561646040820152681e481c995b185e595960ba1b606082015260800190565b6020808252601f908201527f52656c617920626c6f636b206661696c65643a20696e76616c696420506f5700604082015260600190565b6020808252601b908201527f536166654d6174683a206164646974696f6e206f766572666c6f770000000000604082015260600190565b6020808252601e908201527f536166654d6174683a207375627472616374696f6e206f766572666c6f770000604082015260600190565b60208082526030908201527f52656c617920626c6f636b206661696c65643a20696e76616c696420626c6f6360408201526f0d640c4d8dec6d690cad2ced0e89ac2f60831b606082015260800190565b60208082526010908201526f14185d5cd8589b194e881c185d5cd95960821b604082015260600190565b6020808252602e908201527f496e697469616c697a61626c653a20636f6e747261637420697320616c72656160408201526d191e481a5b9a5d1a585b1a5e995960921b606082015260800190565b60208082526013908201527265706f6368206f7574206f662072616e67652160681b604082015260600190565b60208082526021908201527f536166654d6174683a206d756c7469706c69636174696f6e206f766572666c6f6040820152607760f81b606082015260800190565b60208082526025908201527f52656c617920626c6f636b206661696c65643a20696e76616c69642074696d6560408201526407374616d760dc1b606082015260800190565b60208082526022908201527f736861353132206f6e6c7920737570706f7274203634206f7220343020627974604082015261657360f01b606082015260800190565b60208082526030908201527f52656c617920626c6f636b206661696c65643a20706172656e7420626c6f636b60408201526f081b9bdd081c995b185e5959081e595d60821b606082015260800190565b978852602088019690965260408701949094526060860192909252608085015260a084015260c083015260e08201526101000190565b6040518181016001600160401b038111828210171561397857fe5b60405291905056fea264697066735822122009012e2b90b59e98444397902c506ab4150185f0eede2a2ba645e05ce869759164736f6c63430007030033",
  "linkReferences": {},
  "deployedLinkReferences": {}
}