{
  "_format": "hh-sol-artifact-1",
  "contractName": "TokenLockerOnHarmony",
  "sourceName": "contracts/TokenLockerOnHarmony.sol",
  "abi": [
    {
      "anonymous": false,
      "inputs": [
        {
          "indexed": true,
          "internalType": "address",
          "name": "token",
          "type": "address"
        },
        {
          "indexed": true,
          "internalType": "address",
          "name": "sender",
          "type": "address"
        },
        {
          "indexed": false,
          "internalType": "uint256",
          "name": "amount",
          "type": "uint256"
        },
        {
          "indexed": false,
          "internalType": "address",
          "name": "recipient",
          "type": "address"
        }
      ],
      "name": "Burn",
      "type": "event"
    },
    {
      "anonymous": false,
      "inputs": [
        {
          "indexed": true,
          "internalType": "address",
          "name": "token",
          "type": "address"
        },
        {
          "indexed": true,
          "internalType": "address",
          "name": "sender",
          "type": "address"
        },
        {
          "indexed": false,
          "internalType": "uint256",
          "name": "amount",
          "type": "uint256"
        },
        {
          "indexed": false,
          "internalType": "address",
          "name": "recipient",
          "type": "address"
        }
      ],
      "name": "Locked",
      "type": "event"
    },
    {
      "anonymous": false,
      "inputs": [
        {
          "indexed": true,
          "internalType": "address",
          "name": "previousOwner",
          "type": "address"
        },
        {
          "indexed": true,
          "internalType": "address",
          "name": "newOwner",
          "type": "address"
        }
      ],
      "name": "OwnershipTransferred",
      "type": "event"
    },
    {
      "anonymous": false,
      "inputs": [
        {
          "indexed": true,
          "internalType": "address",
          "name": "tokenReq",
          "type": "address"
        },
        {
          "indexed": true,
          "internalType": "address",
          "name": "tokenAck",
          "type": "address"
        }
      ],
      "name": "TokenMapAck",
      "type": "event"
    },
    {
      "anonymous": false,
      "inputs": [
        {
          "indexed": true,
          "internalType": "address",
          "name": "tokenReq",
          "type": "address"
        },
        {
          "indexed": true,
          "internalType": "uint8",
          "name": "decimals",
          "type": "uint8"
        },
        {
          "indexed": false,
          "internalType": "string",
          "name": "name",
          "type": "string"
        },
        {
          "indexed": false,
          "internalType": "string",
          "name": "symbol",
          "type": "string"
        }
      ],
      "name": "TokenMapReq",
      "type": "event"
    },
    {
      "inputs": [
        {
          "internalType": "address",
          "name": "",
          "type": "address"
        }
      ],
      "name": "RxMapped",
      "outputs": [
        {
          "internalType": "contract BridgedToken",
          "name": "",
          "type": "address"
        }
      ],
      "stateMutability": "view",
      "type": "function"
    },
    {
      "inputs": [
        {
          "internalType": "address",
          "name": "",
          "type": "address"
        }
      ],
      "name": "RxMappedInv",
      "outputs": [
        {
          "internalType": "address",
          "name": "",
          "type": "address"
        }
      ],
      "stateMutability": "view",
      "type": "function"
    },
    {
      "inputs": [
        {
          "internalType": "uint256",
          "name": "",
          "type": "uint256"
        }
      ],
      "name": "RxTokens",
      "outputs": [
        {
          "internalType": "contract BridgedToken",
          "name": "",
          "type": "address"
        }
      ],
      "stateMutability": "view",
      "type": "function"
    },
    {
      "inputs": [
        {
          "internalType": "address",
          "name": "",
          "type": "address"
        }
      ],
      "name": "TxMapped",
      "outputs": [
        {
          "internalType": "address",
          "name": "",
          "type": "address"
        }
      ],
      "stateMutability": "view",
      "type": "function"
    },
    {
      "inputs": [
        {
          "internalType": "address",
          "name": "",
          "type": "address"
        }
      ],
      "name": "TxMappedInv",
      "outputs": [
        {
          "internalType": "contract IERC20Upgradeable",
          "name": "",
          "type": "address"
        }
      ],
      "stateMutability": "view",
      "type": "function"
    },
    {
      "inputs": [
        {
          "internalType": "uint256",
          "name": "",
          "type": "uint256"
        }
      ],
      "name": "TxTokens",
      "outputs": [
        {
          "internalType": "contract IERC20Upgradeable",
          "name": "",
          "type": "address"
        }
      ],
      "stateMutability": "view",
      "type": "function"
    },
    {
      "inputs": [
        {
          "internalType": "address",
          "name": "otherSide",
          "type": "address"
        }
      ],
      "name": "bind",
      "outputs": [],
      "stateMutability": "nonpayable",
      "type": "function"
    },
    {
      "inputs": [
        {
          "internalType": "contract EthereumLightClient",
          "name": "newClient",
          "type": "address"
        }
      ],
      "name": "changeLightClient",
      "outputs": [],
      "stateMutability": "nonpayable",
      "type": "function"
    },
    {
      "inputs": [],
      "name": "initialize",
      "outputs": [],
      "stateMutability": "nonpayable",
      "type": "function"
    },
    {
      "inputs": [
        {
          "internalType": "contract ERC20Upgradeable",
          "name": "thisSideToken",
          "type": "address"
        }
      ],
      "name": "issueTokenMapReq",
      "outputs": [
        {
          "internalType": "address",
          "name": "",
          "type": "address"
        }
      ],
      "stateMutability": "nonpayable",
      "type": "function"
    },
    {
      "inputs": [],
      "name": "lightclient",
      "outputs": [
        {
          "internalType": "contract EthereumLightClient",
          "name": "",
          "type": "address"
        }
      ],
      "stateMutability": "view",
      "type": "function"
    },
    {
      "inputs": [
        {
          "internalType": "contract IERC20Upgradeable",
          "name": "token",
          "type": "address"
        },
        {
          "internalType": "address",
          "name": "recipient",
          "type": "address"
        },
        {
          "internalType": "uint256",
          "name": "amount",
          "type": "uint256"
        }
      ],
      "name": "lock",
      "outputs": [],
      "stateMutability": "nonpayable",
      "type": "function"
    },
    {
      "inputs": [
        {
          "internalType": "bytes32[]",
          "name": "topics",
          "type": "bytes32[]"
        }
      ],
      "name": "onTokenMapAckEvent",
      "outputs": [],
      "stateMutability": "nonpayable",
      "type": "function"
    },
    {
      "inputs": [
        {
          "internalType": "bytes32[]",
          "name": "topics",
          "type": "bytes32[]"
        },
        {
          "internalType": "bytes",
          "name": "data",
          "type": "bytes"
        }
      ],
      "name": "onTokenMapReqEvent",
      "outputs": [],
      "stateMutability": "nonpayable",
      "type": "function"
    },
    {
      "inputs": [],
      "name": "otherSideBridge",
      "outputs": [
        {
          "internalType": "address",
          "name": "",
          "type": "address"
        }
      ],
      "stateMutability": "view",
      "type": "function"
    },
    {
      "inputs": [],
      "name": "owner",
      "outputs": [
        {
          "internalType": "address",
          "name": "",
          "type": "address"
        }
      ],
      "stateMutability": "view",
      "type": "function"
    },
    {
      "inputs": [],
      "name": "renounceOwnership",
      "outputs": [],
      "stateMutability": "nonpayable",
      "type": "function"
    },
    {
      "inputs": [
        {
          "internalType": "bytes32",
          "name": "",
          "type": "bytes32"
        }
      ],
      "name": "spentReceipt",
      "outputs": [
        {
          "internalType": "bool",
          "name": "",
          "type": "bool"
        }
      ],
      "stateMutability": "view",
      "type": "function"
    },
    {
      "inputs": [],
      "name": "totalBridgedTokens",
      "outputs": [
        {
          "internalType": "uint256",
          "name": "",
          "type": "uint256"
        },
        {
          "internalType": "uint256",
          "name": "",
          "type": "uint256"
        }
      ],
      "stateMutability": "view",
      "type": "function"
    },
    {
      "inputs": [
        {
          "internalType": "address",
          "name": "newOwner",
          "type": "address"
        }
      ],
      "name": "transferOwnership",
      "outputs": [],
      "stateMutability": "nonpayable",
      "type": "function"
    },
    {
      "inputs": [
        {
          "internalType": "contract BridgedToken",
          "name": "token",
          "type": "address"
        },
        {
          "internalType": "address",
          "name": "recipient",
          "type": "address"
        },
        {
          "internalType": "uint256",
          "name": "amount",
          "type": "uint256"
        }
      ],
      "name": "unlock",
      "outputs": [],
      "stateMutability": "nonpayable",
      "type": "function"
    },
    {
      "inputs": [
        {
          "internalType": "uint256",
          "name": "blockNo",
          "type": "uint256"
        },
        {
          "internalType": "bytes32",
          "name": "rootHash",
          "type": "bytes32"
        },
        {
          "internalType": "bytes",
          "name": "mptkey",
          "type": "bytes"
        },
        {
          "internalType": "bytes",
          "name": "proof",
          "type": "bytes"
        }
      ],
      "name": "validateAndExecuteProof",
      "outputs": [],
      "stateMutability": "nonpayable",
      "type": "function"
    }
  ],
  "bytecode": "0x608060405234801561001057600080fd5b50614260806100206000396000f3fe608060405234801561001057600080fd5b50600436106101425760003560e01c80638ab3124a116100b8578063d650d3f71161007c578063d650d3f714610268578063d72584c41461027b578063e05bdaf71461028e578063e71575e8146102a1578063f2fde38b146102b4578063f9d3d86e146102c757610142565b80638ab3124a146102045780638da5cb5b14610224578063ae24fbb41461022c578063bf21980b1461023f578063cd06c3a11461025257610142565b806359508f8f1161010a57806359508f8f146101a8578063715018a6146101bb5780637750c9f0146101c35780638129fc1c146101d657806381bac14f146101de5780638487b9cf146101f157610142565b80631b7f3e2314610147578063345df1cc1461016557806335c6814d1461017a5780634ae83c8e1461018d5780634d2be8e5146101a0575b600080fd5b61014f6102da565b60405161015c9190612865565b60405180910390f35b610178610173366004612753565b6102e9565b005b61014f61018836600461260e565b61053e565b61014f61019b366004612506565b610565565b61014f610749565b6101786101b6366004612626565b610758565b610178610867565b6101786101d1366004612666565b6108f0565b610178610ac7565b6101786101ec366004612506565b610b69565b61014f6101ff366004612506565b610bca565b61021761021236600461260e565b610be5565b60405161015c91906128b6565b61014f610bfa565b61014f61023a36600461260e565b610c09565b61017861024d366004612506565b610c16565b61025a610c77565b60405161015c9291906128c1565b61014f610276366004612506565b610c81565b610178610289366004612522565b610c9c565b61014f61029c366004612506565b610d8e565b61014f6102af366004612506565b610da9565b6101786102c2366004612506565b610dc4565b6101786102d5366004612554565b610e85565b606b546001600160a01b031681565b606b54604051633c6c6b7360e01b81526000916001600160a01b031690633c6c6b739061031c908a9085906004016128c1565b60206040518083038186803b15801561033457600080fd5b505afa158015610348573d6000803e3d6000fd5b505050506040513d601f19601f8201168201806040525081019061036c919061270c565b606b546040516329e141af60e01b81529192506001600160a01b0316906329e141af9061039f9084908a906004016128c1565b60206040518083038186803b1580156103b757600080fd5b505afa1580156103cb573d6000803e3d6000fd5b505050506040513d601f19601f820116820180604052508101906103ef91906125ee565b6104145760405162461bcd60e51b815260040161040b90612c43565b60405180910390fd5b60008187878760405160200161042d9493929190612828565b60408051601f1981840301815291815281516020928301206000818152606c90935291205490915060ff16156104755760405162461bcd60e51b815260040161040b906129be565b60606104eb8888888080601f01602080910402602001604051908101604052809392919081815260200183838082843760009201919091525050604080516020601f8c018190048102820181019092528a815292508a915089908190840183828082843760009201919091525061106492505050565b6000838152606c60205260408120805460ff191660011790559091506105108261140d565b9050600081116105325760405162461bcd60e51b815260040161040b90612b35565b50505050505050505050565b6001818154811061054b57fe5b6000918252602090912001546001600160a01b0316905081565b6001600160a01b038181166000908152600260205260408120549091161561059f5760405162461bcd60e51b815260040161040b90612a92565b6000829050806001600160a01b031663313ce5676040518163ffffffff1660e01b815260040160206040518083038186803b1580156105dd57600080fd5b505afa1580156105f1573d6000803e3d6000fd5b505050506040513d601f19601f8201168201806040525081019061061591906127d2565b60ff16836001600160a01b03167fc13b93ab57586894396c38a46a06c88056fdbb23c7c595f8d08274f9a8593a42836001600160a01b03166306fdde036040518163ffffffff1660e01b815260040160006040518083038186803b15801561067c57600080fd5b505afa158015610690573d6000803e3d6000fd5b505050506040513d6000823e601f3d908101601f191682016040526106b8919081019061267a565b846001600160a01b03166395d89b416040518163ffffffff1660e01b815260040160006040518083038186803b1580156106f157600080fd5b505afa158015610705573d6000803e3d6000fd5b505050506040513d6000823e601f3d908101601f1916820160405261072d919081019061267a565b60405161073b9291906128e2565b60405180910390a350919050565b6006546001600160a01b031681565b6001600160a01b03821661077e5760405162461bcd60e51b815260040161040b90612ac9565b6001600160a01b03838116600090815260056020526040902054166107b55760405162461bcd60e51b815260040161040b9061298f565b60405163079cc67960e41b81526001600160a01b038416906379cc6790906107e39033908590600401612879565b600060405180830381600087803b1580156107fd57600080fd5b505af1158015610811573d6000803e3d6000fd5b50505050336001600160a01b0316836001600160a01b03167f3dd1df88dc92e2788892542d81f999d720a44b4c127065d45c128f4f59fdc373838560405161085a929190612c6f565b60405180910390a3505050565b61086f6116cd565b6001600160a01b0316610880610bfa565b6001600160a01b0316146108a65760405162461bcd60e51b815260040161040b90612b00565b6039546040516000916001600160a01b0316907f8be0079c531659141344cd1fd0a4f28419497f9722a3daafe3b4186f6b6457e0908390a3603980546001600160a01b0319169055565b6001600160a01b0382166109165760405162461bcd60e51b815260040161040b90612ac9565b6001600160a01b038381166000908152600260205260409020541661094d5760405162461bcd60e51b815260040161040b9061298f565b6040516370a0823160e01b81526000906001600160a01b038516906370a082319061097c903090600401612865565b60206040518083038186803b15801561099457600080fd5b505afa1580156109a8573d6000803e3d6000fd5b505050506040513d601f19601f820116820180604052508101906109cc919061270c565b90506109e36001600160a01b0385163330856116d1565b6040516370a0823160e01b81526000906001600160a01b038616906370a0823190610a12903090600401612865565b60206040518083038186803b158015610a2a57600080fd5b505afa158015610a3e573d6000803e3d6000fd5b505050506040513d601f19601f82011682018060405250810190610a62919061270c565b90506000610a70828461172f565b9050336001600160a01b0316866001600160a01b03167f4c6ab40ee4cfa212a441d32ee2897945b4a52461284f9369e23fdf8faa6cdd698388604051610ab7929190612c6f565b60405180910390a3505050505050565b600654600160a81b900460ff1680610ae25750610ae2611757565b80610af75750600654600160a01b900460ff16155b610b135760405162461bcd60e51b815260040161040b90612a44565b600654600160a81b900460ff16158015610b4a576006805460ff60a01b1960ff60a81b19909116600160a81b1716600160a01b1790555b610b52611768565b8015610b66576006805460ff60a81b191690555b50565b610b716116cd565b6001600160a01b0316610b82610bfa565b6001600160a01b031614610ba85760405162461bcd60e51b815260040161040b90612b00565b600680546001600160a01b0319166001600160a01b0392909216919091179055565b6005602052600090815260409020546001600160a01b031681565b606c6020526000908152604090205460ff1681565b6039546001600160a01b031690565b6000818154811061054b57fe5b610c1e6116cd565b6001600160a01b0316610c2f610bfa565b6001600160a01b031614610c555760405162461bcd60e51b815260040161040b90612b00565b606b80546001600160a01b0319166001600160a01b0392909216919091179055565b6000546001549091565b6003602052600090815260409020546001600160a01b031681565b600081600181518110610cab57fe5b602002602001015160001c9050600082600281518110610cc757fe5b6020908102919091018101516001600160a01b03848116600090815260029093526040909220549092501615610d0f5760405162461bcd60e51b815260040161040b90612b5d565b6001600160a01b0391821660008181526002602090815260408083208054969095166001600160a01b0319968716811790955593825260039052918220805484168217905581546001810183559180527f290decd9548b62a8d60345a988386fc84ba6bc95484008f6362f93160ef3e563909101805490921617905550565b6004602052600090815260409020546001600160a01b031681565b6002602052600090815260409020546001600160a01b031681565b610dcc6116cd565b6001600160a01b0316610ddd610bfa565b6001600160a01b031614610e035760405162461bcd60e51b815260040161040b90612b00565b6001600160a01b038116610e295760405162461bcd60e51b815260040161040b90612949565b6039546040516001600160a01b038084169216907f8be0079c531659141344cd1fd0a4f28419497f9722a3daafe3b4186f6b6457e090600090a3603980546001600160a01b0319166001600160a01b0392909216919091179055565b600082600181518110610e9457fe5b6020908102919091018101516001600160a01b03808216600090815260049093526040909220549092501615610edc5760405162461bcd60e51b815260040161040b90612c15565b600083600281518110610eeb57fe5b602002602001015160001c905060608084806020019051810190610f0f91906126ac565b60405191935091506001600160a01b038516906000908290610f30906123d1565b8190604051809103906000f5905080158015610f50573d6000803e3d6000fd5b50604051630b127b6360e11b81529091506001600160a01b03821690631624f6c690610f8490879087908a90600401612910565b600060405180830381600087803b158015610f9e57600080fd5b505af1158015610fb2573d6000803e3d6000fd5b5050506001600160a01b0380831660008181526005602090815260408083208054958d166001600160a01b03199687168117909155808452600490925280832080548616851790556001805480820182559084527fb10e2d527612073b26eecdfd717e6a320cf44b4afac2b0732d9fcbe2b7fa0cf6018054909516841790945592519193507f78591f651c27eef63481b7fd779e44c2426cbe82c7050fe9bc90b6707efbc3d391a35050505050505050565b606080611078611073846117fb565b611821565b90506110878460006001611908565b93506000806060806110976123de565b85516110e6577f56e81f171bcc55a6ff8345e692c0f86e5b48e01b996cadc001622fb5e363b4218a146110c957600080fd5b505060408051600081526020810190915294506114069350505050565b60005b86518110156113fe5761110e87828151811061110157fe5b6020026020010151611a81565b9350801580156111245750835160208501208b14155b1561112e57600080fd5b8015801590611145575061114184611aff565b8514155b1561114f57600080fd5b61116b87828151811061115e57fe5b6020026020010151611821565b92508251600214156112df57600060606111a061119b8660008151811061118e57fe5b6020026020010151611b6c565b611bf9565b909250905060006111b2898e84611ca1565b9050808901985081518110156112145760018a51038410156111d357600080fd5b6000805b506040519080825280601f01601f191660200182016040528015611202576020820181803683370190505b509a5050505050505050505050611406565b821561126d5760018a510384101561122b57600080fd5b8c5189101561123c576000806111d7565b8560018151811061124957fe5b6020026020010151945061125c85611b6c565b9a5050505050505050505050611406565b60018a510384141561127e57600080fd5b61129b8660018151811061128e57fe5b6020026020010151611d16565b6112bd576112af8660018151811061118e57fe5b8051906020012097506112d7565b6112cd8660018151811061110157fe5b8051906020012097505b5050506113f6565b8251601114156113f657895186146113c85760008a87815181106112ff57fe5b01602001516001979097019660f81c90506010811061131d57600080fd5b61133c848260ff168151811061132f57fe5b6020026020010151611d50565b15611370576001885103821461135157600080fd5b5050604080516000815260208101909152965061140695505050505050565b611382848260ff168151811061128e57fe5b6113a657611398848260ff168151811061118e57fe5b8051906020012095506113c2565b6113b8848260ff168151811061110157fe5b8051906020012095505b506113f6565b600187510381146113d857600080fd5b6113e88360108151811061118e57fe5b975050505050505050611406565b6001016110e9565b505050505050505b9392505050565b60006114176123de565b611420836117fb565b9050606061142d82611821565b9050600061144e8260008151811061144157fe5b6020026020010151611d73565b9050806001146114705760405162461bcd60e51b815260040161040b90612a1c565b60606114828360038151811061115e57fe5b905060005b81518110156116c35760606114a183838151811061115e57fe5b905060006114c2826000815181106114b557fe5b6020026020010151611dd1565b6006549091506001600160a01b038083169116146114e15750506116bb565b60606114f38360018151811061115e57fe5b9050606081516001600160401b038111801561150e57600080fd5b50604051908082528060200260200182016040528015611538578160200160208202803683370190505b50905060005b82518110156115785761155683828151811061144157fe5b60001b82828151811061156557fe5b602090810291909101015260010161153e565b50606061158b8560028151811061118e57fe5b90507f4c6ab40ee4cfa212a441d32ee2897945b4a52461284f9369e23fdf8faa6cdd69826000815181106115bb57fe5b602002602001015114156115e4576115d38282611df1565b5050600190980197506116bb915050565b7f3dd1df88dc92e2788892542d81f999d720a44b4c127065d45c128f4f59fdc3738260008151811061161257fe5b6020026020010151141561162a576115d38282611eab565b7fc13b93ab57586894396c38a46a06c88056fdbb23c7c595f8d08274f9a8593a428260008151811061165857fe5b60200260200101511415611670576115d38282610e85565b7f78591f651c27eef63481b7fd779e44c2426cbe82c7050fe9bc90b6707efbc3d38260008151811061169e57fe5b602002602001015114156116b5576115d382610c9c565b50505050505b600101611487565b5050505050919050565b3390565b611729846323b872dd60e01b8585856040516024016116f293929190612892565b60408051601f198184030181529190526020810180516001600160e01b03166001600160e01b031990931692909217909152611f12565b50505050565b6000828211156117515760405162461bcd60e51b815260040161040b906129e5565b50900390565b600061176230611fa6565b15905090565b600654600160a81b900460ff16806117835750611783611757565b806117985750600654600160a01b900460ff16155b6117b45760405162461bcd60e51b815260040161040b90612a44565b600654600160a81b900460ff161580156117eb576006805460ff60a01b1960ff60a81b19909116600160a81b1716600160a01b1790555b6117f3611fac565b610b52612044565b6118036123de565b5060408051808201909152815181526020828101908201525b919050565b606061182c82611d16565b61183557600080fd5b600061184083612135565b90506060816001600160401b038111801561185a57600080fd5b5060405190808252806020026020018201604052801561189457816020015b6118816123de565b8152602001906001900390816118795790505b50905060006118a6856020015161218d565b60208601510190506000805b848110156118fd576118c3836121f0565b91506040518060400160405280838152602001848152508482815181106118e657fe5b6020908102919091010152918101916001016118b2565b509195945050505050565b6060600084511161191857600080fd5b83516002028084111561192a57600080fd5b8390038281016001600160401b038111801561194557600080fd5b506040519080825280601f01601f191660200182016040528015611970576020820181803683370190505b50915082600114156119a957601060f81b8260018451038151811061199157fe5b60200101906001600160f81b031916908160001a9053505b6000845b828601811015611a6b5760028106611a115760048760028304815181106119d057fe5b602001015160f81c60f81b60f81c60ff16901c600f1660f81b8483815181106119f557fe5b60200101906001600160f81b031916908160001a905350611a5f565b6000876002830481518110611a2257fe5b602001015160f81c60f81b60f81c60ff16901c600f1660f81b848381518110611a4757fe5b60200101906001600160f81b031916908160001a9053505b600191820191016119ad565b50825184820114611a7857fe5b50509392505050565b60608082600001516001600160401b0381118015611a9e57600080fd5b506040519080825280601f01601f191660200182016040528015611ac9576020820181803683370190505b509050805160001415611add57905061181c565b6000816020019050611af88460200151828660000151612284565b5092915050565b6000602082511015611b1857508051602082012061181c565b81604051602001611b299190612849565b60405160208183030381529060405280519060200120604051602001611b4f919061281f565b60405160208183030381529060405280519060200120905061181c565b8051606090611b7a57600080fd5b6000611b89836020015161218d565b83519091508190036060816001600160401b0381118015611ba957600080fd5b506040519080825280601f01601f191660200182016040528015611bd4576020820181803683370190505b5090506000816020019050611bf0848760200151018285612284565b50949350505050565b600060606000835111611c0b57600080fd5b6000600484600081518110611c1c57fe5b60209101015160f81c901c600f169050600081611c3f5750600092506002611c79565b8160011415611c545750600092506001611c79565b8160021415611c695750600192506002611c79565b8160031415610142575060019250825b83611c96868387611c8b576000611c8e565b60015b60ff16611908565b935093505050915091565b6000805b8351858201108015611cb75750825181105b15611d0e57828181518110611cc857fe5b602001015160f81c60f81b6001600160f81b0319168486830181518110611ceb57fe5b01602001516001600160f81b03191614611d06579050611406565b600101611ca5565b949350505050565b8051600090611d275750600061181c565b6020820151805160001a9060c0821015611d465760009250505061181c565b5060019392505050565b8051600090600114611d645750600061181c565b50602001515160001a60801490565b805160009015801590611d8857508151602110155b611d9157600080fd5b6000611da0836020015161218d565b83516020808601518301805193945091849003929190831015611bf057506020919091036101000a90049392505050565b8051600090601514611de257600080fd5b611deb82611d73565b92915050565b600082600181518110611e0057fe5b602002602001015160001c905060008083806020019051810190611e249190612724565b6001600160a01b038086166000908152600460205260409020549294509092501680611e4f57600080fd5b6040516340c10f1960e01b81526001600160a01b038216906340c10f1990611e7d9085908790600401612879565b600060405180830381600087803b158015611e9757600080fd5b505af1158015610532573d6000803e3d6000fd5b600082600181518110611eba57fe5b602002602001015160001c905060008083806020019051810190611ede9190612724565b6001600160a01b0380861660009081526003602052604090205492945090925016611f0a8183856122cf565b505050505050565b6060611f67826040518060400160405280602081526020017f5361666545524332303a206c6f772d6c6576656c2063616c6c206661696c6564815250856001600160a01b03166122ee9092919063ffffffff16565b805190915015611fa15780806020019051810190611f8591906125ee565b611fa15760405162461bcd60e51b815260040161040b90612bcb565b505050565b3b151590565b600654600160a81b900460ff1680611fc75750611fc7611757565b80611fdc5750600654600160a01b900460ff16155b611ff85760405162461bcd60e51b815260040161040b90612a44565b600654600160a81b900460ff16158015610b52576006805460ff60a01b1960ff60a81b19909116600160a81b1716600160a01b1790558015610b66576006805460ff60a81b1916905550565b600654600160a81b900460ff168061205f575061205f611757565b806120745750600654600160a01b900460ff16155b6120905760405162461bcd60e51b815260040161040b90612a44565b600654600160a81b900460ff161580156120c7576006805460ff60a01b1960ff60a81b19909116600160a81b1716600160a01b1790555b60006120d16116cd565b603980546001600160a01b0319166001600160a01b038316908117909155604051919250906000907f8be0079c531659141344cd1fd0a4f28419497f9722a3daafe3b4186f6b6457e0908290a3508015610b66576006805460ff60a81b1916905550565b80516000906121465750600061181c565b600080612156846020015161218d565b602085015185519181019250015b8082101561218457612175826121f0565b60019093019290910190612164565b50909392505050565b8051600090811a60808110156121a757600091505061181c565b60b88110806121c2575060c081108015906121c2575060f881105b156121d157600191505061181c565b60c08110156121e55760b51901905061181c565b60f51901905061181c565b80516000908190811a608081101561220b5760019150611af8565b60b881101561222057607e1981019150611af8565b60c081101561224d5760b78103600185019450806020036101000a85510460018201810193505050611af8565b60f88110156122625760be1981019150611af8565b60019390930151602084900360f7016101000a900490920160f5190192915050565b8061228e57611fa1565b5b602081106122ae578251825260209283019290910190601f190161228f565b915181516020939093036101000a6000190180199091169216919091179052565b611fa18363a9059cbb60e01b84846040516024016116f2929190612879565b6060611d0e84846000858561230285611fa6565b61231e5760405162461bcd60e51b815260040161040b90612b94565b60006060866001600160a01b0316858760405161233b9190612849565b60006040518083038185875af1925050503d8060008114612378576040519150601f19603f3d011682016040523d82523d6000602084013e61237d565b606091505b509150915061238d828286612398565b979650505050505050565b606083156123a7575081611406565b8251156123b75782518084602001fd5b8160405162461bcd60e51b815260040161040b91906128cf565b61151f80612d0c83390190565b604051806040016040528060008152602001600081525090565b600082601f830112612408578081fd5b81356001600160401b0381111561241b57fe5b602080820261242b828201612c86565b8381529350818401858301828701840188101561244757600080fd5b600092505b8483101561246a57803582526001929092019190830190830161244c565b505050505092915050565b60008083601f840112612486578182fd5b5081356001600160401b0381111561249c578182fd5b6020830191508360208285010111156124b457600080fd5b9250929050565b600082601f8301126124cb578081fd5b81516124de6124d982612ca9565b612c86565b91508082528360208285010111156124f557600080fd5b611af8816020840160208601612cca565b600060208284031215612517578081fd5b813561140681612cf6565b600060208284031215612533578081fd5b81356001600160401b03811115612548578182fd5b611d0e848285016123f8565b60008060408385031215612566578081fd5b82356001600160401b038082111561257c578283fd5b612588868387016123f8565b9350602085013591508082111561259d578283fd5b508301601f810185136125ae578182fd5b80356125bc6124d982612ca9565b8181528660208385010111156125d0578384fd5b81602084016020830137908101602001929092525090939092509050565b6000602082840312156125ff578081fd5b81518015158114611406578182fd5b60006020828403121561261f578081fd5b5035919050565b60008060006060848603121561263a578081fd5b833561264581612cf6565b9250602084013561265581612cf6565b929592945050506040919091013590565b60008060006060848603121561263a578283fd5b60006020828403121561268b578081fd5b81516001600160401b038111156126a0578182fd5b611d0e848285016124bb565b600080604083850312156126be578182fd5b82516001600160401b03808211156126d4578384fd5b6126e0868387016124bb565b935060208501519150808211156126f5578283fd5b50612702858286016124bb565b9150509250929050565b60006020828403121561271d578081fd5b5051919050565b60008060408385031215612736578182fd5b82519150602083015161274881612cf6565b809150509250929050565b6000806000806000806080878903121561276b578384fd5b863595506020870135945060408701356001600160401b038082111561278f578586fd5b61279b8a838b01612475565b909650945060608901359150808211156127b3578384fd5b506127c089828a01612475565b979a9699509497509295939492505050565b6000602082840312156127e3578081fd5b815160ff81168114611406578182fd5b6000815180845261280b816020860160208601612cca565b601f01601f19169290920160200192915050565b90815260200190565b60008582528460208301528284604084013791016040019081529392505050565b6000825161285b818460208701612cca565b9190910192915050565b6001600160a01b0391909116815260200190565b6001600160a01b03929092168252602082015260400190565b6001600160a01b039384168152919092166020820152604081019190915260600190565b901515815260200190565b918252602082015260400190565b60006020825261140660208301846127f3565b6000604082526128f560408301856127f3565b828103602084015261290781856127f3565b95945050505050565b60006060825261292360608301866127f3565b828103602084015261293581866127f3565b91505060ff83166040830152949350505050565b60208082526026908201527f4f776e61626c653a206e6577206f776e657220697320746865207a65726f206160408201526564647265737360d01b606082015260800190565b602080825260159082015274189c9a5919d948191bd95cc81b9bdd08195e1a5cdd605a1b604082015260600190565b6020808252600d908201526c646f75626c65207370656e742160981b604082015260600190565b6020808252601e908201527f536166654d6174683a207375627472616374696f6e206f766572666c6f770000604082015260600190565b6020808252600e908201526d1c995d995c9d081c9958d95a5c1d60921b604082015260600190565b6020808252602e908201527f496e697469616c697a61626c653a20636f6e747261637420697320616c72656160408201526d191e481a5b9a5d1a585b1a5e995960921b606082015260800190565b60208082526017908201527f746f6b656e20697320616c7265616479206d6170706564000000000000000000604082015260600190565b6020808252601b908201527f726563697069656e742069732061207a65726f20616464726573730000000000604082015260600190565b6020808252818101527f4f776e61626c653a2063616c6c6572206973206e6f7420746865206f776e6572604082015260600190565b6020808252600e908201526d1b9bc81d985b1a5908195d995b9d60921b604082015260600190565b6020808252601e908201527f6d697373696e67206d617070696e6720746f2061636b6e6f776c656467650000604082015260600190565b6020808252601d908201527f416464726573733a2063616c6c20746f206e6f6e2d636f6e7472616374000000604082015260600190565b6020808252602a908201527f5361666545524332303a204552433230206f7065726174696f6e20646964206e6040820152691bdd081cdd58d8d9595960b21b606082015260800190565b602080825260149082015273189c9a5919d948185b1c9958591e48195e1a5cdd60621b604082015260600190565b6020808252601290820152710eee4dedcce40e4cac6cad2e0e840d0c2e6d60731b604082015260600190565b9182526001600160a01b0316602082015260400190565b6040518181016001600160401b0381118282101715612ca157fe5b604052919050565b60006001600160401b03821115612cbc57fe5b50601f01601f191660200190565b60005b83811015612ce5578181015183820152602001612ccd565b838111156117295750506000910152565b6001600160a01b0381168114610b6657600080fdfe608060405234801561001057600080fd5b506114ff806100206000396000f3fe608060405234801561001057600080fd5b50600436106101165760003560e01c806370a08231116100a257806395d89b411161007157806395d89b4114610227578063a457c2d71461022f578063a9059cbb14610242578063dd62ed3e14610255578063f2fde38b1461026857610116565b806370a08231146101e4578063715018a6146101f757806379cc6790146101ff5780638da5cb5b1461021257610116565b806323b872dd116100e957806323b872dd14610183578063313ce5671461019657806339509351146101ab57806340c10f19146101be57806342966c68146101d157610116565b806306fdde031461011b578063095ea7b3146101395780631624f6c61461015957806318160ddd1461016e575b600080fd5b61012361027b565b60405161013091906110e9565b60405180910390f35b61014c61014736600461100f565b610311565b60405161013091906110de565b61016c610167366004611038565b61032e565b005b6101766103d8565b60405161013091906113f9565b61014c610191366004610fd4565b6103de565b61019e610465565b6040516101309190611402565b61014c6101b936600461100f565b61046e565b61016c6101cc36600461100f565b6104bc565b61016c6101df3660046110b2565b610509565b6101766101f2366004610f88565b61051d565b61016c61053c565b61016c61020d36600461100f565b6105c5565b61021a61061a565b60405161013091906110ca565b610123610629565b61014c61023d36600461100f565b61068a565b61014c61025036600461100f565b6106f2565b610176610263366004610fa2565b610706565b61016c610276366004610f88565b610731565b60368054604080516020601f60026000196101006001881615020190951694909404938401819004810282018101909252828152606093909290918301828280156103075780601f106102dc57610100808354040283529160200191610307565b820191906000526020600020905b8154815290600101906020018083116102ea57829003601f168201915b5050505050905090565b600061032561031e6107f2565b84846107f6565b50600192915050565b600054610100900460ff168061034757506103476108aa565b80610355575060005460ff16155b61037a5760405162461bcd60e51b815260040161037190611275565b60405180910390fd5b600054610100900460ff161580156103a5576000805460ff1961ff0019909116610100171660011790555b6103af84846108bb565b6103b7610951565b6103c0826109e3565b80156103d2576000805461ff00191690555b50505050565b60355490565b60006103eb8484846109f9565b61045b846103f76107f2565b61045685604051806060016040528060288152602001611459602891396001600160a01b038a166000908152603460205260408120906104356107f2565b6001600160a01b031681526020810191909152604001600020549190610b0e565b6107f6565b5060019392505050565b60385460ff1690565b600061032561047b6107f2565b84610456856034600061048c6107f2565b6001600160a01b03908116825260208083019390935260409182016000908120918c168152925290205490610b3a565b6104c46107f2565b6001600160a01b03166104d561061a565b6001600160a01b0316146104fb5760405162461bcd60e51b8152600401610371906112c3565b6105058282610b66565b5050565b61051a6105146107f2565b82610c26565b50565b6001600160a01b0381166000908152603360205260409020545b919050565b6105446107f2565b6001600160a01b031661055561061a565b6001600160a01b03161461057b5760405162461bcd60e51b8152600401610371906112c3565b6097546040516000916001600160a01b0316907f8be0079c531659141344cd1fd0a4f28419497f9722a3daafe3b4186f6b6457e0908390a3609780546001600160a01b0319169055565b60006105f782604051806060016040528060248152602001611481602491396105f0866102636107f2565b9190610b0e565b905061060b836106056107f2565b836107f6565b6106158383610c26565b505050565b6097546001600160a01b031690565b60378054604080516020601f60026000196101006001881615020190951694909404938401819004810282018101909252828152606093909290918301828280156103075780601f106102dc57610100808354040283529160200191610307565b60006103256106976107f2565b84610456856040518060600160405280602581526020016114a560259139603460006106c16107f2565b6001600160a01b03908116825260208083019390935260409182016000908120918d16815292529020549190610b0e565b60006103256106ff6107f2565b84846109f9565b6001600160a01b03918216600090815260346020908152604080832093909416825291909152205490565b6107396107f2565b6001600160a01b031661074a61061a565b6001600160a01b0316146107705760405162461bcd60e51b8152600401610371906112c3565b6001600160a01b0381166107965760405162461bcd60e51b81526004016103719061117f565b6097546040516001600160a01b038084169216907f8be0079c531659141344cd1fd0a4f28419497f9722a3daafe3b4186f6b6457e090600090a3609780546001600160a01b0319166001600160a01b0392909216919091179055565b3390565b6001600160a01b03831661081c5760405162461bcd60e51b81526004016103719061137e565b6001600160a01b0382166108425760405162461bcd60e51b8152600401610371906111c5565b6001600160a01b0380841660008181526034602090815260408083209487168084529490915290819020849055517f8c5be1e5ebec7d5bd14f71427d1e84f3dd0314c0f7b2291e5b200ac8c7c3b9259061089d9085906113f9565b60405180910390a3505050565b60006108b530610cfc565b15905090565b600054610100900460ff16806108d457506108d46108aa565b806108e2575060005460ff16155b6108fe5760405162461bcd60e51b815260040161037190611275565b600054610100900460ff16158015610929576000805460ff1961ff0019909116610100171660011790555b610931610d02565b61093b8383610d83565b8015610615576000805461ff0019169055505050565b600054610100900460ff168061096a575061096a6108aa565b80610978575060005460ff16155b6109945760405162461bcd60e51b815260040161037190611275565b600054610100900460ff161580156109bf576000805460ff1961ff0019909116610100171660011790555b6109c7610d02565b6109cf610d02565b801561051a576000805461ff001916905550565b6038805460ff191660ff92909216919091179055565b6001600160a01b038316610a1f5760405162461bcd60e51b815260040161037190611339565b6001600160a01b038216610a455760405162461bcd60e51b81526004016103719061113c565b610a50838383610615565b610a8d81604051806060016040528060268152602001611433602691396001600160a01b0386166000908152603360205260409020549190610b0e565b6001600160a01b038085166000908152603360205260408082209390935590841681522054610abc9082610b3a565b6001600160a01b0380841660008181526033602052604090819020939093559151908516907fddf252ad1be2c89b69c2b068fc378daa952ba7f163c4a11628f55a4df523b3ef9061089d9085906113f9565b60008184841115610b325760405162461bcd60e51b815260040161037191906110e9565b505050900390565b600082820183811015610b5f5760405162461bcd60e51b815260040161037190611207565b9392505050565b6001600160a01b038216610b8c5760405162461bcd60e51b8152600401610371906113c2565b610b9860008383610615565b603554610ba59082610b3a565b6035556001600160a01b038216600090815260336020526040902054610bcb9082610b3a565b6001600160a01b0383166000818152603360205260408082209390935591519091907fddf252ad1be2c89b69c2b068fc378daa952ba7f163c4a11628f55a4df523b3ef90610c1a9085906113f9565b60405180910390a35050565b6001600160a01b038216610c4c5760405162461bcd60e51b8152600401610371906112f8565b610c5882600083610615565b610c9581604051806060016040528060228152602001611411602291396001600160a01b0385166000908152603360205260409020549190610b0e565b6001600160a01b038316600090815260336020526040902055603554610cbb9082610e3c565b6035556040516000906001600160a01b038416907fddf252ad1be2c89b69c2b068fc378daa952ba7f163c4a11628f55a4df523b3ef90610c1a9085906113f9565b3b151590565b600054610100900460ff1680610d1b5750610d1b6108aa565b80610d29575060005460ff16155b610d455760405162461bcd60e51b815260040161037190611275565b600054610100900460ff161580156109cf576000805460ff1961ff001990911661010017166001179055801561051a576000805461ff001916905550565b600054610100900460ff1680610d9c5750610d9c6108aa565b80610daa575060005460ff16155b610dc65760405162461bcd60e51b815260040161037190611275565b600054610100900460ff16158015610df1576000805460ff1961ff0019909116610100171660011790555b8251610e04906036906020860190610e64565b508151610e18906037906020850190610e64565b506038805460ff191660121790558015610615576000805461ff0019169055505050565b600082821115610e5e5760405162461bcd60e51b81526004016103719061123e565b50900390565b828054600181600116156101000203166002900490600052602060002090601f016020900481019282601f10610ea557805160ff1916838001178555610ed2565b82800160010185558215610ed2579182015b82811115610ed2578251825591602001919060010190610eb7565b50610ede929150610ee2565b5090565b5b80821115610ede5760008155600101610ee3565b80356001600160a01b038116811461053757600080fd5b600082601f830112610f1e578081fd5b813567ffffffffffffffff80821115610f3357fe5b604051601f8301601f191681016020018281118282101715610f5157fe5b604052828152925082848301602001861015610f6c57600080fd5b8260208601602083013760006020848301015250505092915050565b600060208284031215610f99578081fd5b610b5f82610ef7565b60008060408385031215610fb4578081fd5b610fbd83610ef7565b9150610fcb60208401610ef7565b90509250929050565b600080600060608486031215610fe8578081fd5b610ff184610ef7565b9250610fff60208501610ef7565b9150604084013590509250925092565b60008060408385031215611021578182fd5b61102a83610ef7565b946020939093013593505050565b60008060006060848603121561104c578283fd5b833567ffffffffffffffff80821115611063578485fd5b61106f87838801610f0e565b94506020860135915080821115611084578384fd5b5061109186828701610f0e565b925050604084013560ff811681146110a7578182fd5b809150509250925092565b6000602082840312156110c3578081fd5b5035919050565b6001600160a01b0391909116815260200190565b901515815260200190565b6000602080835283518082850152825b81811015611115578581018301518582016040015282016110f9565b818111156111265783604083870101525b50601f01601f1916929092016040019392505050565b60208082526023908201527f45524332303a207472616e7366657220746f20746865207a65726f206164647260408201526265737360e81b606082015260800190565b60208082526026908201527f4f776e61626c653a206e6577206f776e657220697320746865207a65726f206160408201526564647265737360d01b606082015260800190565b60208082526022908201527f45524332303a20617070726f766520746f20746865207a65726f206164647265604082015261737360f01b606082015260800190565b6020808252601b908201527f536166654d6174683a206164646974696f6e206f766572666c6f770000000000604082015260600190565b6020808252601e908201527f536166654d6174683a207375627472616374696f6e206f766572666c6f770000604082015260600190565b6020808252602e908201527f496e697469616c697a61626c653a20636f6e747261637420697320616c72656160408201526d191e481a5b9a5d1a585b1a5e995960921b606082015260800190565b6020808252818101527f4f776e61626c653a2063616c6c6572206973206e6f7420746865206f776e6572604082015260600190565b60208082526021908201527f45524332303a206275726e2066726f6d20746865207a65726f206164647265736040820152607360f81b606082015260800190565b60208082526025908201527f45524332303a207472616e736665722066726f6d20746865207a65726f206164604082015264647265737360d81b606082015260800190565b60208082526024908201527f45524332303a20617070726f76652066726f6d20746865207a65726f206164646040820152637265737360e01b606082015260800190565b6020808252601f908201527f45524332303a206d696e7420746f20746865207a65726f206164647265737300604082015260600190565b90815260200190565b60ff9190911681526020019056fe45524332303a206275726e20616d6f756e7420657863656564732062616c616e636545524332303a207472616e7366657220616d6f756e7420657863656564732062616c616e636545524332303a207472616e7366657220616d6f756e74206578636565647320616c6c6f77616e636545524332303a206275726e20616d6f756e74206578636565647320616c6c6f77616e636545524332303a2064656372656173656420616c6c6f77616e63652062656c6f77207a65726fa264697066735822122043885978cb8710a9523670c7600ac1f0f0c9a406283ccbe34acaff46d981c07c64736f6c63430007030033a26469706673582212208bd64dd9542c1e0c362ccc8d258158d9f43cd97b15138a4f4e88b0f3bc4ff4b564736f6c63430007030033",
  "linkReferences": {},
  "deployedLinkReferences": {}
}