{
  "_format": "hh-sol-artifact-1",
  "contractName": "TokenLockerOnHarmony",
  "sourceName": "contracts/TokenLockerOnHarmony.sol",
  "abi": [
    {
      "anonymous": false,
      "inputs": [
        {
          "indexed": true,
          "internalType": "address",
          "name": "token",
          "type": "address"
        },
        {
          "indexed": true,
          "internalType": "address",
          "name": "sender",
          "type": "address"
        },
        {
          "indexed": false,
          "internalType": "uint256",
          "name": "amount",
          "type": "uint256"
        },
        {
          "indexed": false,
          "internalType": "address",
          "name": "recipient",
          "type": "address"
        }
      ],
      "name": "Burn",
      "type": "event"
    },
    {
      "anonymous": false,
      "inputs": [
        {
          "indexed": true,
          "internalType": "address",
          "name": "token",
          "type": "address"
        },
        {
          "indexed": true,
          "internalType": "address",
          "name": "sender",
          "type": "address"
        },
        {
          "indexed": false,
          "internalType": "uint256",
          "name": "amount",
          "type": "uint256"
        },
        {
          "indexed": false,
          "internalType": "address",
          "name": "recipient",
          "type": "address"
        }
      ],
      "name": "Locked",
      "type": "event"
    },
    {
      "anonymous": false,
      "inputs": [
        {
          "indexed": true,
          "internalType": "address",
          "name": "previousOwner",
          "type": "address"
        },
        {
          "indexed": true,
          "internalType": "address",
          "name": "newOwner",
          "type": "address"
        }
      ],
      "name": "OwnershipTransferred",
      "type": "event"
    },
    {
      "anonymous": false,
      "inputs": [
        {
          "indexed": true,
          "internalType": "address",
          "name": "tokenReq",
          "type": "address"
        },
        {
          "indexed": true,
          "internalType": "address",
          "name": "tokenAck",
          "type": "address"
        }
      ],
      "name": "TokenMapAck",
      "type": "event"
    },
    {
      "anonymous": false,
      "inputs": [
        {
          "indexed": true,
          "internalType": "address",
          "name": "tokenReq",
          "type": "address"
        },
        {
          "indexed": true,
          "internalType": "uint8",
          "name": "decimals",
          "type": "uint8"
        },
        {
          "indexed": false,
          "internalType": "string",
          "name": "name",
          "type": "string"
        },
        {
          "indexed": false,
          "internalType": "string",
          "name": "symbol",
          "type": "string"
        }
      ],
      "name": "TokenMapReq",
      "type": "event"
    },
    {
      "inputs": [
        {
          "internalType": "address",
          "name": "",
          "type": "address"
        }
      ],
      "name": "RxMapped",
      "outputs": [
        {
          "internalType": "contract BridgedToken",
          "name": "",
          "type": "address"
        }
      ],
      "stateMutability": "view",
      "type": "function"
    },
    {
      "inputs": [
        {
          "internalType": "address",
          "name": "",
          "type": "address"
        }
      ],
      "name": "RxMappedInv",
      "outputs": [
        {
          "internalType": "address",
          "name": "",
          "type": "address"
        }
      ],
      "stateMutability": "view",
      "type": "function"
    },
    {
      "inputs": [
        {
          "internalType": "uint256",
          "name": "",
          "type": "uint256"
        }
      ],
      "name": "RxTokens",
      "outputs": [
        {
          "internalType": "contract BridgedToken",
          "name": "",
          "type": "address"
        }
      ],
      "stateMutability": "view",
      "type": "function"
    },
    {
      "inputs": [
        {
          "internalType": "address",
          "name": "",
          "type": "address"
        }
      ],
      "name": "TxMapped",
      "outputs": [
        {
          "internalType": "address",
          "name": "",
          "type": "address"
        }
      ],
      "stateMutability": "view",
      "type": "function"
    },
    {
      "inputs": [
        {
          "internalType": "address",
          "name": "",
          "type": "address"
        }
      ],
      "name": "TxMappedInv",
      "outputs": [
        {
          "internalType": "contract IERC20Upgradeable",
          "name": "",
          "type": "address"
        }
      ],
      "stateMutability": "view",
      "type": "function"
    },
    {
      "inputs": [
        {
          "internalType": "uint256",
          "name": "",
          "type": "uint256"
        }
      ],
      "name": "TxTokens",
      "outputs": [
        {
          "internalType": "contract IERC20Upgradeable",
          "name": "",
          "type": "address"
        }
      ],
      "stateMutability": "view",
      "type": "function"
    },
    {
      "inputs": [
        {
          "internalType": "address",
          "name": "otherSide",
          "type": "address"
        }
      ],
      "name": "bind",
      "outputs": [],
      "stateMutability": "nonpayable",
      "type": "function"
    },
    {
      "inputs": [
        {
          "internalType": "contract EthereumLightClient",
          "name": "newClient",
          "type": "address"
        }
      ],
      "name": "changeLightClient",
      "outputs": [],
      "stateMutability": "nonpayable",
      "type": "function"
    },
    {
      "inputs": [],
      "name": "initialize",
      "outputs": [],
      "stateMutability": "nonpayable",
      "type": "function"
    },
    {
      "inputs": [
        {
          "internalType": "contract ERC20Upgradeable",
          "name": "thisSideToken",
          "type": "address"
        }
      ],
      "name": "issueTokenMapReq",
      "outputs": [],
      "stateMutability": "nonpayable",
      "type": "function"
    },
    {
      "inputs": [],
      "name": "lightclient",
      "outputs": [
        {
          "internalType": "contract EthereumLightClient",
          "name": "",
          "type": "address"
        }
      ],
      "stateMutability": "view",
      "type": "function"
    },
    {
      "inputs": [
        {
          "internalType": "contract IERC20Upgradeable",
          "name": "token",
          "type": "address"
        },
        {
          "internalType": "address",
          "name": "recipient",
          "type": "address"
        },
        {
          "internalType": "uint256",
          "name": "amount",
          "type": "uint256"
        }
      ],
      "name": "lock",
      "outputs": [],
      "stateMutability": "nonpayable",
      "type": "function"
    },
    {
      "inputs": [],
      "name": "otherSideBridge",
      "outputs": [
        {
          "internalType": "address",
          "name": "",
          "type": "address"
        }
      ],
      "stateMutability": "view",
      "type": "function"
    },
    {
      "inputs": [],
      "name": "owner",
      "outputs": [
        {
          "internalType": "address",
          "name": "",
          "type": "address"
        }
      ],
      "stateMutability": "view",
      "type": "function"
    },
    {
      "inputs": [],
      "name": "renounceOwnership",
      "outputs": [],
      "stateMutability": "nonpayable",
      "type": "function"
    },
    {
      "inputs": [
        {
          "internalType": "bytes32",
          "name": "",
          "type": "bytes32"
        }
      ],
      "name": "spentReceipt",
      "outputs": [
        {
          "internalType": "bool",
          "name": "",
          "type": "bool"
        }
      ],
      "stateMutability": "view",
      "type": "function"
    },
    {
      "inputs": [],
      "name": "totalBridgedTokens",
      "outputs": [
        {
          "internalType": "uint256",
          "name": "",
          "type": "uint256"
        },
        {
          "internalType": "uint256",
          "name": "",
          "type": "uint256"
        }
      ],
      "stateMutability": "view",
      "type": "function"
    },
    {
      "inputs": [
        {
          "internalType": "address",
          "name": "newOwner",
          "type": "address"
        }
      ],
      "name": "transferOwnership",
      "outputs": [],
      "stateMutability": "nonpayable",
      "type": "function"
    },
    {
      "inputs": [
        {
          "internalType": "contract BridgedToken",
          "name": "token",
          "type": "address"
        },
        {
          "internalType": "address",
          "name": "recipient",
          "type": "address"
        },
        {
          "internalType": "uint256",
          "name": "amount",
          "type": "uint256"
        }
      ],
      "name": "unlock",
      "outputs": [],
      "stateMutability": "nonpayable",
      "type": "function"
    },
    {
      "inputs": [
        {
          "internalType": "uint256",
          "name": "blockNo",
          "type": "uint256"
        },
        {
          "internalType": "bytes32",
          "name": "rootHash",
          "type": "bytes32"
        },
        {
          "internalType": "uint256",
          "name": "proofPath",
          "type": "uint256"
        },
        {
          "internalType": "bytes",
          "name": "proof",
          "type": "bytes"
        }
      ],
      "name": "validateAndExecuteProof",
      "outputs": [],
      "stateMutability": "nonpayable",
      "type": "function"
    }
  ],
  "bytecode": "0x608060405234801561001057600080fd5b50613e40806100206000396000f3fe608060405234801561001057600080fd5b506004361061012c5760003560e01c80638ab3124a116100ad578063cd06c3a111610071578063cd06c3a11461023c578063d650d3f714610252578063e05bdaf714610265578063e71575e814610278578063f2fde38b1461028b5761012c565b80638ab3124a146101db5780638da5cb5b146101fb578063a9d68c1914610203578063ae24fbb414610216578063bf21980b146102295761012c565b8063715018a6116100f4578063715018a6146101925780637750c9f01461019a5780638129fc1c146101ad57806381bac14f146101b55780638487b9cf146101c85761012c565b80631b7f3e231461013157806335c6814d1461014f5780634ae83c8e146101625780634d2be8e51461017757806359508f8f1461017f575b600080fd5b61013961029e565b604051610146919061221a565b60405180910390f35b61013961015d366004611fcc565b6102ad565b610175610170366004611f90565b6102d4565b005b6101396104bd565b61017561018d366004611fe4565b6104cc565b6101756105db565b6101756101a8366004612024565b610664565b61017561083b565b6101756101c3366004611f90565b6108dd565b6101396101d6366004611f90565b61093e565b6101ee6101e9366004611fcc565b610959565b604051610146919061226b565b61013961096e565b610175610211366004612113565b61097d565b610139610224366004611fcc565b610b93565b610175610237366004611f90565b610ba0565b610244610c01565b604051610146929190612276565b610139610260366004611f90565b610c0b565b610139610273366004611f90565b610c26565b610139610286366004611f90565b610c41565b610175610299366004611f90565b610c5c565b606b546001600160a01b031681565b600181815481106102ba57fe5b6000918252602090912001546001600160a01b0316905081565b6001600160a01b0381811660009081526002602052604090205416156103155760405162461bcd60e51b815260040161030c906124ea565b60405180910390fd5b6000819050806001600160a01b031663313ce5676040518163ffffffff1660e01b815260040160206040518083038186803b15801561035357600080fd5b505afa158015610367573d6000803e3d6000fd5b505050506040513d601f19601f8201168201806040525081019061038b919061219b565b60ff16826001600160a01b03167fc13b93ab57586894396c38a46a06c88056fdbb23c7c595f8d08274f9a8593a42836001600160a01b03166306fdde036040518163ffffffff1660e01b815260040160006040518083038186803b1580156103f257600080fd5b505afa158015610406573d6000803e3d6000fd5b505050506040513d6000823e601f3d908101601f1916820160405261042e9190810190612038565b846001600160a01b03166395d89b416040518163ffffffff1660e01b815260040160006040518083038186803b15801561046757600080fd5b505afa15801561047b573d6000803e3d6000fd5b505050506040513d6000823e601f3d908101601f191682016040526104a39190810190612038565b6040516104b1929190612297565b60405180910390a35050565b6006546001600160a01b031681565b6001600160a01b0382166104f25760405162461bcd60e51b815260040161030c90612521565b6001600160a01b03838116600090815260056020526040902054166105295760405162461bcd60e51b815260040161030c90612344565b60405163079cc67960e41b81526001600160a01b038416906379cc679090610557903390859060040161222e565b600060405180830381600087803b15801561057157600080fd5b505af1158015610585573d6000803e3d6000fd5b50505050336001600160a01b0316836001600160a01b03167f3dd1df88dc92e2788892542d81f999d720a44b4c127065d45c128f4f59fdc37383856040516105ce929190612733565b60405180910390a3505050565b6105e3610d1d565b6001600160a01b03166105f461096e565b6001600160a01b03161461061a5760405162461bcd60e51b815260040161030c90612583565b6039546040516000916001600160a01b0316907f8be0079c531659141344cd1fd0a4f28419497f9722a3daafe3b4186f6b6457e0908390a3603980546001600160a01b0319169055565b6001600160a01b03821661068a5760405162461bcd60e51b815260040161030c90612521565b6001600160a01b03838116600090815260026020526040902054166106c15760405162461bcd60e51b815260040161030c90612344565b6040516370a0823160e01b81526000906001600160a01b038516906370a08231906106f090309060040161221a565b60206040518083038186803b15801561070857600080fd5b505afa15801561071c573d6000803e3d6000fd5b505050506040513d601f19601f8201168201806040525081019061074091906120cc565b90506107576001600160a01b038516333085610d21565b6040516370a0823160e01b81526000906001600160a01b038616906370a082319061078690309060040161221a565b60206040518083038186803b15801561079e57600080fd5b505afa1580156107b2573d6000803e3d6000fd5b505050506040513d601f19601f820116820180604052508101906107d691906120cc565b905060006107e48284610d7f565b9050336001600160a01b0316866001600160a01b03167f4c6ab40ee4cfa212a441d32ee2897945b4a52461284f9369e23fdf8faa6cdd69838860405161082b929190612733565b60405180910390a3505050505050565b600654600160a81b900460ff16806108565750610856610da7565b8061086b5750600654600160a01b900460ff16155b6108875760405162461bcd60e51b815260040161030c9061249c565b600654600160a81b900460ff161580156108be576006805460ff60a01b1960ff60a81b19909116600160a81b1716600160a01b1790555b6108c6610db8565b80156108da576006805460ff60a81b191690555b50565b6108e5610d1d565b6001600160a01b03166108f661096e565b6001600160a01b03161461091c5760405162461bcd60e51b815260040161030c90612583565b600680546001600160a01b0319166001600160a01b0392909216919091179055565b6005602052600090815260409020546001600160a01b031681565b606c6020526000908152604090205460ff1681565b6039546001600160a01b031690565b606b54604051633c6c6b7360e01b81526000916001600160a01b031690633c6c6b73906109b09089908590600401612276565b60206040518083038186803b1580156109c857600080fd5b505afa1580156109dc573d6000803e3d6000fd5b505050506040513d601f19601f82011682018060405250810190610a0091906120cc565b606b546040516329e141af60e01b81529192506001600160a01b0316906329e141af90610a339084908990600401612276565b60206040518083038186803b158015610a4b57600080fd5b505afa158015610a5f573d6000803e3d6000fd5b505050506040513d601f19601f82011682018060405250810190610a839190611fac565b610a9f5760405162461bcd60e51b815260040161030c90612707565b6000818686604051602001610ab6939291906121e8565b60408051601f1981840301815291815281516020928301206000818152606c90935291205490915060ff1615610afe5760405162461bcd60e51b815260040161030c90612373565b6060610b41878787878080601f016020809104026020016040519081016040528093929190818152602001838380828437600092019190915250610e4b92505050565b6000838152606c60205260408120805460ff19166001179055909150610b6682610f28565b905060008111610b885760405162461bcd60e51b815260040161030c906125b8565b505050505050505050565b600081815481106102ba57fe5b610ba8610d1d565b6001600160a01b0316610bb961096e565b6001600160a01b031614610bdf5760405162461bcd60e51b815260040161030c90612583565b606b80546001600160a01b0319166001600160a01b0392909216919091179055565b6000546001549091565b6003602052600090815260409020546001600160a01b031681565b6004602052600090815260409020546001600160a01b031681565b6002602052600090815260409020546001600160a01b031681565b610c64610d1d565b6001600160a01b0316610c7561096e565b6001600160a01b031614610c9b5760405162461bcd60e51b815260040161030c90612583565b6001600160a01b038116610cc15760405162461bcd60e51b815260040161030c906122fe565b6039546040516001600160a01b038084169216907f8be0079c531659141344cd1fd0a4f28419497f9722a3daafe3b4186f6b6457e090600090a3603980546001600160a01b0319166001600160a01b0392909216919091179055565b3390565b610d79846323b872dd60e01b858585604051602401610d4293929190612247565b60408051601f198184030181529190526020810180516001600160e01b03166001600160e01b031990931692909217909152611203565b50505050565b600082821115610da15760405162461bcd60e51b815260040161030c906123d1565b50900390565b6000610db230611297565b15905090565b600654600160a81b900460ff1680610dd35750610dd3610da7565b80610de85750600654600160a01b900460ff16155b610e045760405162461bcd60e51b815260040161030c9061249c565b600654600160a81b900460ff16158015610e3b576006805460ff60a01b1960ff60a81b19909116600160a81b1716600160a01b1790555b610e436112a1565b6108c6611339565b6060610e55611ed1565b610e5e8361142a565b9050610e68611eeb565b610e718261144f565b90506000610e7e83611499565b905060005b81811015610ef357610e94836114f1565b600888901c9790945060ff16610ea98561153f565b8914610ec75760405162461bcd60e51b815260040161030c9061239a565b610ed1858261155a565b945060018303821015610eea57610ee785611614565b98505b50600101610e83565b508515610f125760405162461bcd60e51b815260040161030c9061244e565b610f1b83611674565b93505050505b9392505050565b6000610f32611ed1565b610f3b8361142a565b90506060610f48826116f9565b90506000610f6982600081518110610f5c57fe5b6020026020010151611614565b905080600114610f8b5760405162461bcd60e51b815260040161030c90612474565b6060610faa83600381518110610f9d57fe5b60200260200101516116f9565b905060005b81518110156111f9576060610fc9838381518110610f9d57fe5b90506000610fea82600081518110610fdd57fe5b60200260200101516117e1565b6006549091506001600160a01b038083169116146110095750506111f1565b606061101b83600181518110610f9d57fe5b90506060815167ffffffffffffffff8111801561103757600080fd5b50604051908082528060200260200182016040528015611061578160200160208202803683370190505b50905060005b82518110156110a15761107f838281518110610f5c57fe5b60001b82828151811061108e57fe5b6020908102919091010152600101611067565b5060606110c1856002815181106110b457fe5b6020026020010151611674565b90507f4c6ab40ee4cfa212a441d32ee2897945b4a52461284f9369e23fdf8faa6cdd69826000815181106110f157fe5b6020026020010151141561111a576111098282611801565b5050600190980197506111f1915050565b7f3dd1df88dc92e2788892542d81f999d720a44b4c127065d45c128f4f59fdc3738260008151811061114857fe5b602002602001015114156111605761110982826118c7565b7fc13b93ab57586894396c38a46a06c88056fdbb23c7c595f8d08274f9a8593a428260008151811061118e57fe5b602002602001015114156111a657611109828261192e565b7f78591f651c27eef63481b7fd779e44c2426cbe82c7050fe9bc90b6707efbc3d3826000815181106111d457fe5b602002602001015114156111eb5761110982611b0d565b50505050505b600101610faf565b5050505050919050565b6060611258826040518060400160405280602081526020017f5361666545524332303a206c6f772d6c6576656c2063616c6c206661696c6564815250856001600160a01b0316611bff9092919063ffffffff16565b80519091501561129257808060200190518101906112769190611fac565b6112925760405162461bcd60e51b815260040161030c9061268f565b505050565b803b15155b919050565b600654600160a81b900460ff16806112bc57506112bc610da7565b806112d15750600654600160a01b900460ff16155b6112ed5760405162461bcd60e51b815260040161030c9061249c565b600654600160a81b900460ff161580156108c6576006805460ff60a01b1960ff60a81b19909116600160a81b1716600160a01b17905580156108da576006805460ff60a81b1916905550565b600654600160a81b900460ff16806113545750611354610da7565b806113695750600654600160a01b900460ff16155b6113855760405162461bcd60e51b815260040161030c9061249c565b600654600160a81b900460ff161580156113bc576006805460ff60a01b1960ff60a81b19909116600160a81b1716600160a01b1790555b60006113c6610d1d565b603980546001600160a01b0319166001600160a01b038316908117909155604051919250906000907f8be0079c531659141344cd1fd0a4f28419497f9722a3daafe3b4186f6b6457e0908290a35080156108da576006805460ff60a81b1916905550565b611432611ed1565b506040805180820190915281518152602082810190820152919050565b611457611eeb565b61146082611c16565b61146957600080fd5b60006114788360200151611c50565b60208085015160408051808201909152868152920190820152915050919050565b80516000906114aa5750600061129c565b6000806114ba8460200151611c50565b602085015185519181019250015b808210156114e8576114d982611cb3565b600190930192909101906114c8565b50909392505050565b6114f9611ed1565b61150282611d4c565b61150b57600080fd5b6020820151600061151b82611cb3565b80830160209586015260408051808201909152908152938401919091525090919050565b805160009061154d57600080fd5b5080516020909101512090565b611562611ed1565b61156b83611c16565b6115875760405162461bcd60e51b815260040161030c90612617565b825160208401519081019060009061159e90611c50565b60208601510190506000805b858110156115c9576115bb83611cb3565b9283019291506001016115aa565b506115d382611cb3565b90508281830111156115f75760405162461bcd60e51b815260040161030c90612558565b604080518082019091529081526020810191909152949350505050565b80516000901580159061162957508151602110155b61163257600080fd5b60006116418360200151611c50565b8351602080860151830180519394509184900392919083101561166b57826020036101000a820491505b50949350505050565b805160609061168257600080fd5b60006116918360200151611c50565b835190915081900360608167ffffffffffffffff811180156116b257600080fd5b506040519080825280601f01601f1916602001820160405280156116dd576020820181803683370190505b509050600081602001905061166b848760200151018285611d6d565b606061170482611c16565b61170d57600080fd5b600061171883611499565b905060608167ffffffffffffffff8111801561173357600080fd5b5060405190808252806020026020018201604052801561176d57816020015b61175a611ed1565b8152602001906001900390816117525790505b509050600061177f8560200151611c50565b60208601510190506000805b848110156117d65761179c83611cb3565b91506040518060400160405280838152602001848152508482815181106117bf57fe5b60209081029190910101529181019160010161178b565b509195945050505050565b80516000906015146117f257600080fd5b6117fb82611614565b92915050565b60008260018151811061181057fe5b602002602001015160001c90506000808380602001905181019061183491906120e4565b6001600160a01b03808616600090815260046020526040902054929450909250168061185f57600080fd5b6040516340c10f1960e01b81526001600160a01b038216906340c10f199061188d908590879060040161222e565b600060405180830381600087803b1580156118a757600080fd5b505af11580156118bb573d6000803e3d6000fd5b50505050505050505050565b6000826001815181106118d657fe5b602002602001015160001c9050600080838060200190518101906118fa91906120e4565b6001600160a01b0380861660009081526003602052604090205492945090925016611926818385611db8565b505050505050565b60008260018151811061193d57fe5b6020908102919091018101516001600160a01b038082166000908152600490935260409092205490925016156119855760405162461bcd60e51b815260040161030c906126d9565b60008360028151811061199457fe5b602002602001015160001c9050606080848060200190518101906119b8919061206b565b60405191935091506001600160a01b0385169060009082906119d990611f0b565b8190604051809103906000f59050801580156119f9573d6000803e3d6000fd5b50604051630b127b6360e11b81529091506001600160a01b03821690631624f6c690611a2d90879087908a906004016122c5565b600060405180830381600087803b158015611a4757600080fd5b505af1158015611a5b573d6000803e3d6000fd5b5050506001600160a01b0380831660008181526005602090815260408083208054958d166001600160a01b03199687168117909155808452600490925280832080548616851790556001805480820182559084527fb10e2d527612073b26eecdfd717e6a320cf44b4afac2b0732d9fcbe2b7fa0cf6018054909516841790945592519193507f78591f651c27eef63481b7fd779e44c2426cbe82c7050fe9bc90b6707efbc3d391a35050505050505050565b600081600181518110611b1c57fe5b602002602001015160001c9050600082600281518110611b3857fe5b6020908102919091018101516001600160a01b03848116600090815260029093526040909220549092501615611b805760405162461bcd60e51b815260040161030c906125e0565b6001600160a01b0391821660008181526002602090815260408083208054969095166001600160a01b0319968716811790955593825260039052918220805484168217905581546001810183559180527f290decd9548b62a8d60345a988386fc84ba6bc95484008f6362f93160ef3e563909101805490921617905550565b6060611c0e8484600085611dd7565b949350505050565b8051600090611c275750600061129c565b6020820151805160001a9060c0821015611c465760009250505061129c565b5060019392505050565b8051600090811a6080811015611c6a57600091505061129c565b60b8811080611c85575060c08110801590611c85575060f881105b15611c9457600191505061129c565b60c0811015611ca85760b51901905061129c565b60f51901905061129c565b80516000908190811a6080811015611cce5760019150611d45565b60b8811015611ce357607e1981019150611d45565b60c0811015611d105760b78103600185019450806020036101000a85510460018201810193505050611d45565b60f8811015611d255760be1981019150611d45565b60f78103600185019450806020036101000a855104600182018101935050505b5092915050565b6000611d56611ed1565b505080518051602091820151919092015191011190565b80611d7757611292565b5b60208110611d97578251825260209283019290910190601f1901611d78565b915181516020939093036101000a6000190180199091169216919091179052565b6112928363a9059cbb60e01b8484604051602401610d4292919061222e565b606082471015611df95760405162461bcd60e51b815260040161030c90612408565b611e0285611297565b611e1e5760405162461bcd60e51b815260040161030c90612658565b60006060866001600160a01b03168587604051611e3b91906121fe565b60006040518083038185875af1925050503d8060008114611e78576040519150601f19603f3d011682016040523d82523d6000602084013e611e7d565b606091505b5091509150611e8d828286611e98565b979650505050505050565b60608315611ea7575081610f21565b825115611eb75782518084602001fd5b8160405162461bcd60e51b815260040161030c9190612284565b604051806040016040528060008152602001600081525090565b6040518060400160405280611efe611ed1565b8152602001600081525090565b61167f8061278c83390190565b600082601f830112611f28578081fd5b815167ffffffffffffffff80821115611f3d57fe5b604051601f8301601f191681016020018281118282101715611f5b57fe5b604052828152925082848301602001861015611f7657600080fd5b611f8783602083016020880161274a565b50505092915050565b600060208284031215611fa1578081fd5b8135610f2181612776565b600060208284031215611fbd578081fd5b81518015158114610f21578182fd5b600060208284031215611fdd578081fd5b5035919050565b600080600060608486031215611ff8578182fd5b833561200381612776565b9250602084013561201381612776565b929592945050506040919091013590565b600080600060608486031215611ff8578283fd5b600060208284031215612049578081fd5b815167ffffffffffffffff81111561205f578182fd5b611c0e84828501611f18565b6000806040838503121561207d578182fd5b825167ffffffffffffffff80821115612094578384fd5b6120a086838701611f18565b935060208501519150808211156120b5578283fd5b506120c285828601611f18565b9150509250929050565b6000602082840312156120dd578081fd5b5051919050565b600080604083850312156120f6578182fd5b82519150602083015161210881612776565b809150509250929050565b60008060008060006080868803121561212a578081fd5b853594506020860135935060408601359250606086013567ffffffffffffffff80821115612156578283fd5b818801915088601f830112612169578283fd5b813581811115612177578384fd5b896020828501011115612188578384fd5b9699959850939650602001949392505050565b6000602082840312156121ac578081fd5b815160ff81168114610f21578182fd5b600081518084526121d481602086016020860161274a565b601f01601f19169290920160200192915050565b9283526020830191909152604082015260600190565b6000825161221081846020870161274a565b9190910192915050565b6001600160a01b0391909116815260200190565b6001600160a01b03929092168252602082015260400190565b6001600160a01b039384168152919092166020820152604081019190915260600190565b901515815260200190565b918252602082015260400190565b600060208252610f2160208301846121bc565b6000604082526122aa60408301856121bc565b82810360208401526122bc81856121bc565b95945050505050565b6000606082526122d860608301866121bc565b82810360208401526122ea81866121bc565b91505060ff83166040830152949350505050565b60208082526026908201527f4f776e61626c653a206e6577206f776e657220697320746865207a65726f206160408201526564647265737360d01b606082015260800190565b602080825260159082015274189c9a5919d948191bd95cc81b9bdd08195e1a5cdd605a1b604082015260600190565b6020808252600d908201526c646f75626c65207370656e742160981b604082015260600190565b6020808252601a908201527f50726f6f664c69623a20696e76616c696420686173686c696e6b000000000000604082015260600190565b6020808252601e908201527f536166654d6174683a207375627472616374696f6e206f766572666c6f770000604082015260600190565b60208082526026908201527f416464726573733a20696e73756666696369656e742062616c616e636520666f6040820152651c8818d85b1b60d21b606082015260800190565b6020808252600c908201526b0d2dcecc2d8d2c840e0c2e8d60a31b604082015260600190565b6020808252600e908201526d1c995d995c9d081c9958d95a5c1d60921b604082015260600190565b6020808252602e908201527f496e697469616c697a61626c653a20636f6e747261637420697320616c72656160408201526d191e481a5b9a5d1a585b1a5e995960921b606082015260800190565b60208082526017908201527f746f6b656e20697320616c7265616479206d6170706564000000000000000000604082015260600190565b6020808252601b908201527f726563697069656e742069732061207a65726f20616464726573730000000000604082015260600190565b602080825260119082015270524c50206974656d206f766572666c6f7760781b604082015260600190565b6020808252818101527f4f776e61626c653a2063616c6c6572206973206e6f7420746865206f776e6572604082015260600190565b6020808252600e908201526d1b9bc81d985b1a5908195d995b9d60921b604082015260600190565b6020808252601e908201527f6d697373696e67206d617070696e6720746f2061636b6e6f776c656467650000604082015260600190565b60208082526021908201527f524c504465636f646572206974657261746f72206973206e6f742061206c69736040820152601d60fa1b606082015260800190565b6020808252601d908201527f416464726573733a2063616c6c20746f206e6f6e2d636f6e7472616374000000604082015260600190565b6020808252602a908201527f5361666545524332303a204552433230206f7065726174696f6e20646964206e6040820152691bdd081cdd58d8d9595960b21b606082015260800190565b602080825260149082015273189c9a5919d948185b1c9958591e48195e1a5cdd60621b604082015260600190565b6020808252601290820152710eee4dedcce40e4cac6cad2e0e840d0c2e6d60731b604082015260600190565b9182526001600160a01b0316602082015260400190565b60005b8381101561276557818101518382015260200161274d565b83811115610d795750506000910152565b6001600160a01b03811681146108da57600080fdfe608060405234801561001057600080fd5b5061165f806100206000396000f3fe608060405234801561001057600080fd5b50600436106101165760003560e01c806370a08231116100a257806395d89b411161007157806395d89b4114610227578063a457c2d71461022f578063a9059cbb14610242578063dd62ed3e14610255578063f2fde38b1461026857610116565b806370a08231146101e4578063715018a6146101f757806379cc6790146101ff5780638da5cb5b1461021257610116565b806323b872dd116100e957806323b872dd14610183578063313ce5671461019657806339509351146101ab57806340c10f19146101be57806342966c68146101d157610116565b806306fdde031461011b578063095ea7b3146101395780631624f6c61461015957806318160ddd1461016e575b600080fd5b61012361027b565b6040516101309190611249565b60405180910390f35b61014c61014736600461116f565b610311565b604051610130919061123e565b61016c610167366004611198565b61032e565b005b6101766103e0565b6040516101309190611559565b61014c610191366004611134565b6103e6565b61019e61046d565b6040516101309190611562565b61014c6101b936600461116f565b610476565b61016c6101cc36600461116f565b6104c4565b61016c6101df366004611212565b610511565b6101766101f23660046110e8565b610525565b61016c610544565b61016c61020d36600461116f565b6105cd565b61021a610622565b604051610130919061122a565b610123610631565b61014c61023d36600461116f565b610692565b61014c61025036600461116f565b6106fa565b610176610263366004611102565b61070e565b61016c6102763660046110e8565b610739565b60368054604080516020601f60026000196101006001881615020190951694909404938401819004810282018101909252828152606093909290918301828280156103075780601f106102dc57610100808354040283529160200191610307565b820191906000526020600020905b8154815290600101906020018083116102ea57829003601f168201915b5050505050905090565b600061032561031e6107fa565b84846107fe565b50600192915050565b600054610100900460ff168061034757506103476108b2565b80610355575060005460ff16155b61037a5760405162461bcd60e51b8152600401610371906113d5565b60405180910390fd5b600054610100900460ff161580156103a5576000805460ff1961ff0019909116610100171660011790555b6103af84846108c3565b6103b7610959565b6103bf6109eb565b6103c882610a69565b80156103da576000805461ff00191690555b50505050565b60355490565b60006103f3848484610a7f565b610463846103ff6107fa565b61045e856040518060600160405280602881526020016115b9602891396001600160a01b038a1660009081526034602052604081209061043d6107fa565b6001600160a01b031681526020810191909152604001600020549190610b94565b6107fe565b5060019392505050565b60385460ff1690565b60006103256104836107fa565b8461045e85603460006104946107fa565b6001600160a01b03908116825260208083019390935260409182016000908120918c168152925290205490610bc0565b6104cc6107fa565b6001600160a01b03166104dd610622565b6001600160a01b0316146105035760405162461bcd60e51b815260040161037190611423565b61050d8282610bec565b5050565b61052261051c6107fa565b82610cac565b50565b6001600160a01b0381166000908152603360205260409020545b919050565b61054c6107fa565b6001600160a01b031661055d610622565b6001600160a01b0316146105835760405162461bcd60e51b815260040161037190611423565b6097546040516000916001600160a01b0316907f8be0079c531659141344cd1fd0a4f28419497f9722a3daafe3b4186f6b6457e0908390a3609780546001600160a01b0319169055565b60006105ff826040518060600160405280602481526020016115e1602491396105f8866102636107fa565b9190610b94565b90506106138361060d6107fa565b836107fe565b61061d8383610cac565b505050565b6097546001600160a01b031690565b60378054604080516020601f60026000196101006001881615020190951694909404938401819004810282018101909252828152606093909290918301828280156103075780601f106102dc57610100808354040283529160200191610307565b600061032561069f6107fa565b8461045e8560405180606001604052806025815260200161160560259139603460006106c96107fa565b6001600160a01b03908116825260208083019390935260409182016000908120918d16815292529020549190610b94565b60006103256107076107fa565b8484610a7f565b6001600160a01b03918216600090815260346020908152604080832093909416825291909152205490565b6107416107fa565b6001600160a01b0316610752610622565b6001600160a01b0316146107785760405162461bcd60e51b815260040161037190611423565b6001600160a01b03811661079e5760405162461bcd60e51b8152600401610371906112df565b6097546040516001600160a01b038084169216907f8be0079c531659141344cd1fd0a4f28419497f9722a3daafe3b4186f6b6457e090600090a3609780546001600160a01b0319166001600160a01b0392909216919091179055565b3390565b6001600160a01b0383166108245760405162461bcd60e51b8152600401610371906114de565b6001600160a01b03821661084a5760405162461bcd60e51b815260040161037190611325565b6001600160a01b0380841660008181526034602090815260408083209487168084529490915290819020849055517f8c5be1e5ebec7d5bd14f71427d1e84f3dd0314c0f7b2291e5b200ac8c7c3b925906108a5908590611559565b60405180910390a3505050565b60006108bd30610d82565b15905090565b600054610100900460ff16806108dc57506108dc6108b2565b806108ea575060005460ff16155b6109065760405162461bcd60e51b8152600401610371906113d5565b600054610100900460ff16158015610931576000805460ff1961ff0019909116610100171660011790555b610939610d88565b6109438383610e09565b801561061d576000805461ff0019169055505050565b600054610100900460ff168061097257506109726108b2565b80610980575060005460ff16155b61099c5760405162461bcd60e51b8152600401610371906113d5565b600054610100900460ff161580156109c7576000805460ff1961ff0019909116610100171660011790555b6109cf610d88565b6109d7610d88565b8015610522576000805461ff001916905550565b600054610100900460ff1680610a045750610a046108b2565b80610a12575060005460ff16155b610a2e5760405162461bcd60e51b8152600401610371906113d5565b600054610100900460ff16158015610a59576000805460ff1961ff0019909116610100171660011790555b610a61610d88565b6109d7610ec2565b6038805460ff191660ff92909216919091179055565b6001600160a01b038316610aa55760405162461bcd60e51b815260040161037190611499565b6001600160a01b038216610acb5760405162461bcd60e51b81526004016103719061129c565b610ad683838361061d565b610b1381604051806060016040528060268152602001611593602691396001600160a01b0386166000908152603360205260409020549190610b94565b6001600160a01b038085166000908152603360205260408082209390935590841681522054610b429082610bc0565b6001600160a01b0380841660008181526033602052604090819020939093559151908516907fddf252ad1be2c89b69c2b068fc378daa952ba7f163c4a11628f55a4df523b3ef906108a5908590611559565b60008184841115610bb85760405162461bcd60e51b81526004016103719190611249565b505050900390565b600082820183811015610be55760405162461bcd60e51b815260040161037190611367565b9392505050565b6001600160a01b038216610c125760405162461bcd60e51b815260040161037190611522565b610c1e6000838361061d565b603554610c2b9082610bc0565b6035556001600160a01b038216600090815260336020526040902054610c519082610bc0565b6001600160a01b0383166000818152603360205260408082209390935591519091907fddf252ad1be2c89b69c2b068fc378daa952ba7f163c4a11628f55a4df523b3ef90610ca0908590611559565b60405180910390a35050565b6001600160a01b038216610cd25760405162461bcd60e51b815260040161037190611458565b610cde8260008361061d565b610d1b81604051806060016040528060228152602001611571602291396001600160a01b0385166000908152603360205260409020549190610b94565b6001600160a01b038316600090815260336020526040902055603554610d419082610f9c565b6035556040516000906001600160a01b038416907fddf252ad1be2c89b69c2b068fc378daa952ba7f163c4a11628f55a4df523b3ef90610ca0908590611559565b3b151590565b600054610100900460ff1680610da15750610da16108b2565b80610daf575060005460ff16155b610dcb5760405162461bcd60e51b8152600401610371906113d5565b600054610100900460ff161580156109d7576000805460ff1961ff0019909116610100171660011790558015610522576000805461ff001916905550565b600054610100900460ff1680610e225750610e226108b2565b80610e30575060005460ff16155b610e4c5760405162461bcd60e51b8152600401610371906113d5565b600054610100900460ff16158015610e77576000805460ff1961ff0019909116610100171660011790555b8251610e8a906036906020860190610fc4565b508151610e9e906037906020850190610fc4565b506038805460ff19166012179055801561061d576000805461ff0019169055505050565b600054610100900460ff1680610edb5750610edb6108b2565b80610ee9575060005460ff16155b610f055760405162461bcd60e51b8152600401610371906113d5565b600054610100900460ff16158015610f30576000805460ff1961ff0019909116610100171660011790555b6000610f3a6107fa565b609780546001600160a01b0319166001600160a01b038316908117909155604051919250906000907f8be0079c531659141344cd1fd0a4f28419497f9722a3daafe3b4186f6b6457e0908290a3508015610522576000805461ff001916905550565b600082821115610fbe5760405162461bcd60e51b81526004016103719061139e565b50900390565b828054600181600116156101000203166002900490600052602060002090601f016020900481019282601f1061100557805160ff1916838001178555611032565b82800160010185558215611032579182015b82811115611032578251825591602001919060010190611017565b5061103e929150611042565b5090565b5b8082111561103e5760008155600101611043565b80356001600160a01b038116811461053f57600080fd5b600082601f83011261107e578081fd5b813567ffffffffffffffff8082111561109357fe5b604051601f8301601f1916810160200182811182821017156110b157fe5b6040528281529250828483016020018610156110cc57600080fd5b8260208601602083013760006020848301015250505092915050565b6000602082840312156110f9578081fd5b610be582611057565b60008060408385031215611114578081fd5b61111d83611057565b915061112b60208401611057565b90509250929050565b600080600060608486031215611148578081fd5b61115184611057565b925061115f60208501611057565b9150604084013590509250925092565b60008060408385031215611181578182fd5b61118a83611057565b946020939093013593505050565b6000806000606084860312156111ac578283fd5b833567ffffffffffffffff808211156111c3578485fd5b6111cf8783880161106e565b945060208601359150808211156111e4578384fd5b506111f18682870161106e565b925050604084013560ff81168114611207578182fd5b809150509250925092565b600060208284031215611223578081fd5b5035919050565b6001600160a01b0391909116815260200190565b901515815260200190565b6000602080835283518082850152825b8181101561127557858101830151858201604001528201611259565b818111156112865783604083870101525b50601f01601f1916929092016040019392505050565b60208082526023908201527f45524332303a207472616e7366657220746f20746865207a65726f206164647260408201526265737360e81b606082015260800190565b60208082526026908201527f4f776e61626c653a206e6577206f776e657220697320746865207a65726f206160408201526564647265737360d01b606082015260800190565b60208082526022908201527f45524332303a20617070726f766520746f20746865207a65726f206164647265604082015261737360f01b606082015260800190565b6020808252601b908201527f536166654d6174683a206164646974696f6e206f766572666c6f770000000000604082015260600190565b6020808252601e908201527f536166654d6174683a207375627472616374696f6e206f766572666c6f770000604082015260600190565b6020808252602e908201527f496e697469616c697a61626c653a20636f6e747261637420697320616c72656160408201526d191e481a5b9a5d1a585b1a5e995960921b606082015260800190565b6020808252818101527f4f776e61626c653a2063616c6c6572206973206e6f7420746865206f776e6572604082015260600190565b60208082526021908201527f45524332303a206275726e2066726f6d20746865207a65726f206164647265736040820152607360f81b606082015260800190565b60208082526025908201527f45524332303a207472616e736665722066726f6d20746865207a65726f206164604082015264647265737360d81b606082015260800190565b60208082526024908201527f45524332303a20617070726f76652066726f6d20746865207a65726f206164646040820152637265737360e01b606082015260800190565b6020808252601f908201527f45524332303a206d696e7420746f20746865207a65726f206164647265737300604082015260600190565b90815260200190565b60ff9190911681526020019056fe45524332303a206275726e20616d6f756e7420657863656564732062616c616e636545524332303a207472616e7366657220616d6f756e7420657863656564732062616c616e636545524332303a207472616e7366657220616d6f756e74206578636565647320616c6c6f77616e636545524332303a206275726e20616d6f756e74206578636565647320616c6c6f77616e636545524332303a2064656372656173656420616c6c6f77616e63652062656c6f77207a65726fa264697066735822122013ee6a301818a19d19e7b1b214885616dc3980cc7e88e8e7d4f03908f76f659e64736f6c63430007030033a2646970667358221220ef8fa75c63822c0fcb9b2f49465bbd7bc7cccd6b50cbd3789d548306f22c834964736f6c63430007030033",
  "linkReferences": {},
  "deployedLinkReferences": {}
}