{
  "_format": "hh-sol-artifact-1",
  "contractName": "TokenLockerOnEthereum",
  "sourceName": "contracts/TokenLockerOnEthereum.sol",
  "abi": [
    {
      "anonymous": false,
      "inputs": [
        {
          "indexed": true,
          "internalType": "address",
          "name": "token",
          "type": "address"
        },
        {
          "indexed": true,
          "internalType": "address",
          "name": "sender",
          "type": "address"
        },
        {
          "indexed": false,
          "internalType": "uint256",
          "name": "amount",
          "type": "uint256"
        },
        {
          "indexed": false,
          "internalType": "address",
          "name": "recipient",
          "type": "address"
        }
      ],
      "name": "Burn",
      "type": "event"
    },
    {
      "anonymous": false,
      "inputs": [
        {
          "indexed": true,
          "internalType": "address",
          "name": "token",
          "type": "address"
        },
        {
          "indexed": true,
          "internalType": "address",
          "name": "sender",
          "type": "address"
        },
        {
          "indexed": false,
          "internalType": "uint256",
          "name": "amount",
          "type": "uint256"
        },
        {
          "indexed": false,
          "internalType": "address",
          "name": "recipient",
          "type": "address"
        }
      ],
      "name": "Locked",
      "type": "event"
    },
    {
      "anonymous": false,
      "inputs": [
        {
          "indexed": true,
          "internalType": "address",
          "name": "previousOwner",
          "type": "address"
        },
        {
          "indexed": true,
          "internalType": "address",
          "name": "newOwner",
          "type": "address"
        }
      ],
      "name": "OwnershipTransferred",
      "type": "event"
    },
    {
      "anonymous": false,
      "inputs": [
        {
          "indexed": true,
          "internalType": "address",
          "name": "tokenReq",
          "type": "address"
        },
        {
          "indexed": true,
          "internalType": "address",
          "name": "tokenAck",
          "type": "address"
        }
      ],
      "name": "TokenMapAck",
      "type": "event"
    },
    {
      "anonymous": false,
      "inputs": [
        {
          "indexed": true,
          "internalType": "address",
          "name": "tokenReq",
          "type": "address"
        },
        {
          "indexed": true,
          "internalType": "uint8",
          "name": "decimals",
          "type": "uint8"
        },
        {
          "indexed": false,
          "internalType": "string",
          "name": "name",
          "type": "string"
        },
        {
          "indexed": false,
          "internalType": "string",
          "name": "symbol",
          "type": "string"
        }
      ],
      "name": "TokenMapReq",
      "type": "event"
    },
    {
      "inputs": [
        {
          "internalType": "address",
          "name": "",
          "type": "address"
        }
      ],
      "name": "RxMapped",
      "outputs": [
        {
          "internalType": "contract BridgedToken",
          "name": "",
          "type": "address"
        }
      ],
      "stateMutability": "view",
      "type": "function"
    },
    {
      "inputs": [
        {
          "internalType": "address",
          "name": "",
          "type": "address"
        }
      ],
      "name": "RxMappedInv",
      "outputs": [
        {
          "internalType": "address",
          "name": "",
          "type": "address"
        }
      ],
      "stateMutability": "view",
      "type": "function"
    },
    {
      "inputs": [
        {
          "internalType": "uint256",
          "name": "",
          "type": "uint256"
        }
      ],
      "name": "RxTokens",
      "outputs": [
        {
          "internalType": "contract BridgedToken",
          "name": "",
          "type": "address"
        }
      ],
      "stateMutability": "view",
      "type": "function"
    },
    {
      "inputs": [
        {
          "internalType": "address",
          "name": "",
          "type": "address"
        }
      ],
      "name": "TxMapped",
      "outputs": [
        {
          "internalType": "address",
          "name": "",
          "type": "address"
        }
      ],
      "stateMutability": "view",
      "type": "function"
    },
    {
      "inputs": [
        {
          "internalType": "address",
          "name": "",
          "type": "address"
        }
      ],
      "name": "TxMappedInv",
      "outputs": [
        {
          "internalType": "contract IERC20Upgradeable",
          "name": "",
          "type": "address"
        }
      ],
      "stateMutability": "view",
      "type": "function"
    },
    {
      "inputs": [
        {
          "internalType": "uint256",
          "name": "",
          "type": "uint256"
        }
      ],
      "name": "TxTokens",
      "outputs": [
        {
          "internalType": "contract IERC20Upgradeable",
          "name": "",
          "type": "address"
        }
      ],
      "stateMutability": "view",
      "type": "function"
    },
    {
      "inputs": [
        {
          "internalType": "address",
          "name": "otherSide",
          "type": "address"
        }
      ],
      "name": "bind",
      "outputs": [],
      "stateMutability": "nonpayable",
      "type": "function"
    },
    {
      "inputs": [
        {
          "internalType": "contract HarmonyLightClient",
          "name": "newClient",
          "type": "address"
        }
      ],
      "name": "changeLightClient",
      "outputs": [],
      "stateMutability": "nonpayable",
      "type": "function"
    },
    {
      "inputs": [],
      "name": "initialize",
      "outputs": [],
      "stateMutability": "nonpayable",
      "type": "function"
    },
    {
      "inputs": [
        {
          "internalType": "contract ERC20Upgradeable",
          "name": "thisSideToken",
          "type": "address"
        }
      ],
      "name": "issueTokenMapReq",
      "outputs": [
        {
          "internalType": "address",
          "name": "",
          "type": "address"
        }
      ],
      "stateMutability": "nonpayable",
      "type": "function"
    },
    {
      "inputs": [],
      "name": "lightclient",
      "outputs": [
        {
          "internalType": "contract HarmonyLightClient",
          "name": "",
          "type": "address"
        }
      ],
      "stateMutability": "view",
      "type": "function"
    },
    {
      "inputs": [
        {
          "internalType": "contract IERC20Upgradeable",
          "name": "token",
          "type": "address"
        },
        {
          "internalType": "address",
          "name": "recipient",
          "type": "address"
        },
        {
          "internalType": "uint256",
          "name": "amount",
          "type": "uint256"
        }
      ],
      "name": "lock",
      "outputs": [],
      "stateMutability": "nonpayable",
      "type": "function"
    },
    {
      "inputs": [
        {
          "internalType": "bytes32[]",
          "name": "topics",
          "type": "bytes32[]"
        }
      ],
      "name": "onTokenMapAckEvent",
      "outputs": [],
      "stateMutability": "nonpayable",
      "type": "function"
    },
    {
      "inputs": [
        {
          "internalType": "bytes32[]",
          "name": "topics",
          "type": "bytes32[]"
        },
        {
          "internalType": "bytes",
          "name": "data",
          "type": "bytes"
        }
      ],
      "name": "onTokenMapReqEvent",
      "outputs": [],
      "stateMutability": "nonpayable",
      "type": "function"
    },
    {
      "inputs": [],
      "name": "otherSideBridge",
      "outputs": [
        {
          "internalType": "address",
          "name": "",
          "type": "address"
        }
      ],
      "stateMutability": "view",
      "type": "function"
    },
    {
      "inputs": [],
      "name": "owner",
      "outputs": [
        {
          "internalType": "address",
          "name": "",
          "type": "address"
        }
      ],
      "stateMutability": "view",
      "type": "function"
    },
    {
      "inputs": [],
      "name": "renounceOwnership",
      "outputs": [],
      "stateMutability": "nonpayable",
      "type": "function"
    },
    {
      "inputs": [
        {
          "internalType": "bytes32",
          "name": "",
          "type": "bytes32"
        }
      ],
      "name": "spentReceipt",
      "outputs": [
        {
          "internalType": "bool",
          "name": "",
          "type": "bool"
        }
      ],
      "stateMutability": "view",
      "type": "function"
    },
    {
      "inputs": [],
      "name": "totalBridgedTokens",
      "outputs": [
        {
          "internalType": "uint256",
          "name": "",
          "type": "uint256"
        },
        {
          "internalType": "uint256",
          "name": "",
          "type": "uint256"
        }
      ],
      "stateMutability": "view",
      "type": "function"
    },
    {
      "inputs": [
        {
          "internalType": "address",
          "name": "newOwner",
          "type": "address"
        }
      ],
      "name": "transferOwnership",
      "outputs": [],
      "stateMutability": "nonpayable",
      "type": "function"
    },
    {
      "inputs": [
        {
          "internalType": "contract BridgedToken",
          "name": "token",
          "type": "address"
        },
        {
          "internalType": "address",
          "name": "recipient",
          "type": "address"
        },
        {
          "internalType": "uint256",
          "name": "amount",
          "type": "uint256"
        }
      ],
      "name": "unlock",
      "outputs": [],
      "stateMutability": "nonpayable",
      "type": "function"
    },
    {
      "inputs": [
        {
          "components": [
            {
              "internalType": "bytes32",
              "name": "hash",
              "type": "bytes32"
            },
            {
              "internalType": "bytes32",
              "name": "parentHash",
              "type": "bytes32"
            },
            {
              "internalType": "address",
              "name": "miner",
              "type": "address"
            },
            {
              "internalType": "bytes32",
              "name": "stateRoot",
              "type": "bytes32"
            },
            {
              "internalType": "bytes32",
              "name": "transactionsRoot",
              "type": "bytes32"
            },
            {
              "internalType": "bytes32",
              "name": "receiptsRoot",
              "type": "bytes32"
            },
            {
              "internalType": "bytes32",
              "name": "outgoingReceiptsRoot",
              "type": "bytes32"
            },
            {
              "internalType": "bytes32",
              "name": "incomingReceiptsRoot",
              "type": "bytes32"
            },
            {
              "internalType": "bytes",
              "name": "logsBloom",
              "type": "bytes"
            },
            {
              "internalType": "uint256",
              "name": "number",
              "type": "uint256"
            },
            {
              "internalType": "uint256",
              "name": "gasLimit",
              "type": "uint256"
            },
            {
              "internalType": "uint256",
              "name": "gasUsed",
              "type": "uint256"
            },
            {
              "internalType": "uint256",
              "name": "timestamp",
              "type": "uint256"
            },
            {
              "internalType": "bytes",
              "name": "extraData",
              "type": "bytes"
            },
            {
              "internalType": "bytes32",
              "name": "mixHash",
              "type": "bytes32"
            },
            {
              "internalType": "uint256",
              "name": "viewID",
              "type": "uint256"
            },
            {
              "internalType": "uint256",
              "name": "epoch",
              "type": "uint256"
            },
            {
              "internalType": "uint256",
              "name": "shardID",
              "type": "uint256"
            },
            {
              "internalType": "bytes",
              "name": "lastCommitSignature",
              "type": "bytes"
            },
            {
              "internalType": "bytes",
              "name": "lastCommitBitmap",
              "type": "bytes"
            },
            {
              "internalType": "bytes",
              "name": "vrf",
              "type": "bytes"
            },
            {
              "internalType": "bytes",
              "name": "vdf",
              "type": "bytes"
            },
            {
              "internalType": "bytes",
              "name": "shardState",
              "type": "bytes"
            },
            {
              "internalType": "bytes",
              "name": "crossLink",
              "type": "bytes"
            },
            {
              "internalType": "bytes",
              "name": "slashes",
              "type": "bytes"
            },
            {
              "internalType": "bytes",
              "name": "mmrRoot",
              "type": "bytes"
            }
          ],
          "internalType": "struct HarmonyParser.BlockHeader",
          "name": "header",
          "type": "tuple"
        },
        {
          "components": [
            {
              "internalType": "bytes32",
              "name": "root",
              "type": "bytes32"
            },
            {
              "internalType": "uint256",
              "name": "width",
              "type": "uint256"
            },
            {
              "internalType": "uint256",
              "name": "index",
              "type": "uint256"
            },
            {
              "internalType": "bytes32[]",
              "name": "peaks",
              "type": "bytes32[]"
            },
            {
              "internalType": "bytes32[]",
              "name": "siblings",
              "type": "bytes32[]"
            }
          ],
          "internalType": "struct MMRVerifier.MMRProof",
          "name": "mmrProof",
          "type": "tuple"
        },
        {
          "components": [
            {
              "internalType": "bytes32",
              "name": "expectedRoot",
              "type": "bytes32"
            },
            {
              "internalType": "bytes",
              "name": "key",
              "type": "bytes"
            },
            {
              "internalType": "bytes[]",
              "name": "proof",
              "type": "bytes[]"
            },
            {
              "internalType": "uint256",
              "name": "keyIndex",
              "type": "uint256"
            },
            {
              "internalType": "uint256",
              "name": "proofIndex",
              "type": "uint256"
            },
            {
              "internalType": "bytes",
              "name": "expectedValue",
              "type": "bytes"
            }
          ],
          "internalType": "struct MPT.MerkleProof",
          "name": "receiptdata",
          "type": "tuple"
        }
      ],
      "name": "validateAndExecuteProof",
      "outputs": [],
      "stateMutability": "nonpayable",
      "type": "function"
    }
  ],
  "bytecode": "0x608060405234801561001057600080fd5b50615973806100206000396000f3fe608060405234801561001057600080fd5b50600436106101425760003560e01c80638ab3124a116100b8578063d650d3f71161007c578063d650d3f714610268578063d72584c41461027b578063e05bdaf71461028e578063e71575e8146102a1578063f2fde38b146102b4578063f9d3d86e146102c757610142565b80638ab3124a146102045780638da5cb5b14610224578063ae24fbb41461022c578063bf21980b1461023f578063cd06c3a11461025257610142565b806359508f8f1161010a57806359508f8f146101a8578063715018a6146101bb5780637750c9f0146101c35780638129fc1c146101d657806381bac14f146101de5780638487b9cf146101f157610142565b80631b7f3e23146101475780632f1486d21461016557806335c6814d1461017a5780634ae83c8e1461018d5780634d2be8e5146101a0575b600080fd5b61014f6102da565b60405161015c9190613c89565b60405180910390f35b6101786101733660046138a6565b6102e9565b005b61014f6101883660046137c6565b6104bb565b61014f61019b3660046136f8565b6104e2565b61014f6106c6565b6101786101b63660046137de565b6106d5565b6101786107e4565b6101786101d13660046137de565b61086d565b610178610a44565b6101786101ec3660046136f8565b610ae6565b61014f6101ff3660046136f8565b610b47565b6102176102123660046137c6565b610b62565b60405161015c9190613cda565b61014f610b77565b61014f61023a3660046137c6565b610b86565b61017861024d3660046136f8565b610b93565b61025a610bf4565b60405161015c929190613c32565b61014f6102763660046136f8565b610bfe565b610178610289366004613714565b610c19565b61014f61029c3660046136f8565b610d0b565b61014f6102af3660046136f8565b610d26565b6101786102c23660046136f8565b610d41565b6101786102d5366004613746565b610e02565b606b546001600160a01b031681565b606b5461020084015183516040516303ce246160e61b81526001600160a01b039093169263f389184092610321929091600401613c32565b60206040518083038186803b15801561033957600080fd5b505afa15801561034d573d6000803e3d6000fd5b505050506040513d601f19601f8201168201806040525081019061037191906137a6565b6103965760405162461bcd60e51b815260040161038d90613dd2565b60405180910390fd5b60006103a184610fe1565b60a0850151909150600060606103b78787610ffb565b91509150816103d85760405162461bcd60e51b815260040161038d90613faf565b6000848487602001516040516020016103f393929190613c40565b60408051601f1981840301815291815281516020928301206000818152606c90935291205490915060ff161561043b5760405162461bcd60e51b815260040161038d90613eb3565b61044588876110d9565b9093509150826104675760405162461bcd60e51b815260040161038d906141cc565b6000818152606c60205260408120805460ff1916600117905560a087015161048e90611179565b9050600081116104b05760405162461bcd60e51b815260040161038d90614108565b505050505050505050565b600181815481106104c857fe5b6000918252602090912001546001600160a01b0316905081565b6001600160a01b038181166000908152600260205260408120549091161561051c5760405162461bcd60e51b815260040161038d9061403f565b6000829050806001600160a01b031663313ce5676040518163ffffffff1660e01b815260040160206040518083038186803b15801561055a57600080fd5b505afa15801561056e573d6000803e3d6000fd5b505050506040513d601f19601f820116820180604052508101906105929190613ba6565b60ff16836001600160a01b03167fc13b93ab57586894396c38a46a06c88056fdbb23c7c595f8d08274f9a8593a42836001600160a01b03166306fdde036040518163ffffffff1660e01b815260040160006040518083038186803b1580156105f957600080fd5b505afa15801561060d573d6000803e3d6000fd5b505050506040513d6000823e601f3d908101601f19168201604052610635919081019061381e565b846001600160a01b03166395d89b416040518163ffffffff1660e01b815260040160006040518083038186803b15801561066e57600080fd5b505afa158015610682573d6000803e3d6000fd5b505050506040513d6000823e601f3d908101601f191682016040526106aa919081019061381e565b6040516106b8929190613cf8565b60405180910390a350919050565b6006546001600160a01b031681565b6001600160a01b0382166106fb5760405162461bcd60e51b815260040161038d90614076565b6001600160a01b03838116600090815260056020526040902054166107325760405162461bcd60e51b815260040161038d90613e84565b60405163079cc67960e41b81526001600160a01b038416906379cc6790906107609033908590600401613c9d565b600060405180830381600087803b15801561077a57600080fd5b505af115801561078e573d6000803e3d6000fd5b50505050336001600160a01b0316836001600160a01b03167f3dd1df88dc92e2788892542d81f999d720a44b4c127065d45c128f4f59fdc37383856040516107d7929190614341565b60405180910390a3505050565b6107ec611453565b6001600160a01b03166107fd610b77565b6001600160a01b0316146108235760405162461bcd60e51b815260040161038d906140ad565b6039546040516000916001600160a01b0316907f8be0079c531659141344cd1fd0a4f28419497f9722a3daafe3b4186f6b6457e0908390a3603980546001600160a01b0319169055565b6001600160a01b0382166108935760405162461bcd60e51b815260040161038d90614076565b6001600160a01b03838116600090815260026020526040902054166108ca5760405162461bcd60e51b815260040161038d90613e84565b6040516370a0823160e01b81526000906001600160a01b038516906370a08231906108f9903090600401613c89565b60206040518083038186803b15801561091157600080fd5b505afa158015610925573d6000803e3d6000fd5b505050506040513d601f19601f820116820180604052508101906109499190613b5f565b90506109606001600160a01b038516333085611457565b6040516370a0823160e01b81526000906001600160a01b038616906370a082319061098f903090600401613c89565b60206040518083038186803b1580156109a757600080fd5b505afa1580156109bb573d6000803e3d6000fd5b505050506040513d601f19601f820116820180604052508101906109df9190613b5f565b905060006109ed82846114b5565b9050336001600160a01b0316866001600160a01b03167f4c6ab40ee4cfa212a441d32ee2897945b4a52461284f9369e23fdf8faa6cdd698388604051610a34929190614341565b60405180910390a3505050505050565b600654600160a81b900460ff1680610a5f5750610a5f6114e2565b80610a745750600654600160a01b900460ff16155b610a905760405162461bcd60e51b815260040161038d90613ff1565b600654600160a81b900460ff16158015610ac7576006805460ff60a01b1960ff60a81b19909116600160a81b1716600160a01b1790555b610acf6114f3565b8015610ae3576006805460ff60a81b191690555b50565b610aee611453565b6001600160a01b0316610aff610b77565b6001600160a01b031614610b255760405162461bcd60e51b815260040161038d906140ad565b600680546001600160a01b0319166001600160a01b0392909216919091179055565b6005602052600090815260409020546001600160a01b031681565b606c6020526000908152604090205460ff1681565b6039546001600160a01b031690565b600081815481106104c857fe5b610b9b611453565b6001600160a01b0316610bac610b77565b6001600160a01b031614610bd25760405162461bcd60e51b815260040161038d906140ad565b606b80546001600160a01b0319166001600160a01b0392909216919091179055565b6000546001549091565b6003602052600090815260409020546001600160a01b031681565b600081600181518110610c2857fe5b602002602001015160001c9050600082600281518110610c4457fe5b6020908102919091018101516001600160a01b03848116600090815260029093526040909220549092501615610c8c5760405162461bcd60e51b815260040161038d9061415e565b6001600160a01b0391821660008181526002602090815260408083208054969095166001600160a01b0319968716811790955593825260039052918220805484168217905581546001810183559180527f290decd9548b62a8d60345a988386fc84ba6bc95484008f6362f93160ef3e563909101805490921617905550565b6004602052600090815260409020546001600160a01b031681565b6002602052600090815260409020546001600160a01b031681565b610d49611453565b6001600160a01b0316610d5a610b77565b6001600160a01b031614610d805760405162461bcd60e51b815260040161038d906140ad565b6001600160a01b038116610da65760405162461bcd60e51b815260040161038d90613e3e565b6039546040516001600160a01b038084169216907f8be0079c531659141344cd1fd0a4f28419497f9722a3daafe3b4186f6b6457e090600090a3603980546001600160a01b0319166001600160a01b0392909216919091179055565b600082600181518110610e1157fe5b6020908102919091018101516001600160a01b03808216600090815260049093526040909220549092501615610e595760405162461bcd60e51b815260040161038d906142b6565b600083600281518110610e6857fe5b602002602001015160001c905060608084806020019051810190610e8c9190613850565b60405191935091506001600160a01b038516906000908290610ead906133fa565b8190604051809103906000f5905080158015610ecd573d6000803e3d6000fd5b50604051630b127b6360e11b81529091506001600160a01b03821690631624f6c690610f0190879087908a90600401613d26565b600060405180830381600087803b158015610f1b57600080fd5b505af1158015610f2f573d6000803e3d6000fd5b5050506001600160a01b0380831660008181526005602090815260408083208054958d166001600160a01b03199687168117909155808452600490925280832080548616851790556001805480820182559084527fb10e2d527612073b26eecdfd717e6a320cf44b4afac2b0732d9fcbe2b7fa0cf6018054909516841790945592519193507f78591f651c27eef63481b7fd779e44c2426cbe82c7050fe9bc90b6707efbc3d391a35050505050505050565b6000610fec82611586565b8051906020012090505b919050565b60006060600061100a85610fe1565b8551909150811461105457505060408051808201909152601b81527f4865616465722064617461206f72206861736820696e76616c696400000000006020820152600091506110d2565b61107684600001518560200151866040015184886060015189608001516119d9565b9250826110bc57505060408051808201909152601c81527f766572696679486561646572202d20696e76616c69642070726f6f66000000006020820152600091506110d2565b5050604080516020810190915260008152600191505b9250929050565b6000606082600001518460a001511461111057600060405180606001604052806024815260200161591a60249139915091506110d2565b61111983611c8e565b91508161115e57505060408051808201909152601d81527f76657269667952656365697074202d20696e76616c69642070726f6f6600000060208201526000906110d2565b50506040805160208101909152600081526001909250929050565b6000611183613407565b61118c83611dd1565b9050606061119982611df6565b905060006111ba826000815181106111ad57fe5b6020026020010151611edd565b9050806001146111dc5760405162461bcd60e51b815260040161038d90613f87565b60606111fb836003815181106111ee57fe5b6020026020010151611df6565b905060005b815181101561144957606061121a8383815181106111ee57fe5b9050600061123b8260008151811061122e57fe5b6020026020010151611f3d565b6006549091506001600160a01b0380831691161461125a575050611441565b606061126c836001815181106111ee57fe5b9050606081516001600160401b038111801561128757600080fd5b506040519080825280602002602001820160405280156112b1578160200160208202803683370190505b50905060005b82518110156112f1576112cf8382815181106111ad57fe5b60001b8282815181106112de57fe5b60209081029190910101526001016112b7565b5060606113118560028151811061130457fe5b6020026020010151611f57565b90507f4c6ab40ee4cfa212a441d32ee2897945b4a52461284f9369e23fdf8faa6cdd698260008151811061134157fe5b6020026020010151141561136a576113598282611fdb565b505060019098019750611441915050565b7f3dd1df88dc92e2788892542d81f999d720a44b4c127065d45c128f4f59fdc3738260008151811061139857fe5b602002602001015114156113b05761135982826120a1565b7fc13b93ab57586894396c38a46a06c88056fdbb23c7c595f8d08274f9a8593a42826000815181106113de57fe5b602002602001015114156113f6576113598282610e02565b7f78591f651c27eef63481b7fd779e44c2426cbe82c7050fe9bc90b6707efbc3d38260008151811061142457fe5b6020026020010151141561143b5761135982610c19565b50505050505b600101611200565b5050505050919050565b3390565b6114af846323b872dd60e01b85858560405160240161147893929190613cb6565b60408051601f198184030181529190526020810180516001600160e01b03166001600160e01b031990931692909217909152612108565b50505050565b6000828211156114d75760405162461bcd60e51b815260040161038d90613f0a565b508082035b92915050565b60006114ed3061219c565b15905090565b600654600160a81b900460ff168061150e575061150e6114e2565b806115235750600654600160a01b900460ff16155b61153f5760405162461bcd60e51b815260040161038d90613ff1565b600654600160a81b900460ff16158015611576576006805460ff60a01b1960ff60a81b19909116600160a81b1716600160a01b1790555b61157e6121a2565b610acf61223a565b60408051600f8082526102008201909252606091829190816020015b60608152602001906001900390816115a25790505090506115e583602001516040516020016115d19190613c29565b60405160208183030381529060405261232b565b816000815181106115f257fe5b602002602001018190525061160a8360400151612375565b8160018151811061161757fe5b602002602001018190525061163a83606001516040516020016115d19190613c29565b8160028151811061164757fe5b602002602001018190525061166a83608001516040516020016115d19190613c29565b8160038151811061167757fe5b602002602001018190525061169a8360a001516040516020016115d19190613c29565b816004815181106116a757fe5b60200260200101819052506116ca8360c001516040516020016115d19190613c29565b816005815181106116d757fe5b60200260200101819052506116fa8360e001516040516020016115d19190613c29565b8160068151811061170757fe5b602002602001018190525061172083610100015161232b565b8160078151811061172d57fe5b6020026020010181905250611746836101200151612398565b8160088151811061175357fe5b602002602001018190525061176c836101400151612398565b8160098151811061177957fe5b6020026020010181905250611792836101600151612398565b81600a8151811061179f57fe5b60200260200101819052506117b8836101800151612398565b81600b815181106117c557fe5b60200260200101819052506117de836101a0015161232b565b81600c815181106117eb57fe5b602002602001018190525061180f836101c001516040516020016115d19190613c29565b81600d8151811061181c57fe5b6020026020010181905250611835836101e00151612398565b81600e8151811061184257fe5b602002602001018190525061185b836102000151612398565b81600f8151811061186857fe5b6020026020010181905250611881836102200151612398565b8160108151811061188e57fe5b60200260200101819052506118a783610240015161232b565b816011815181106118b457fe5b60200260200101819052506118cd83610260015161232b565b816012815181106118da57fe5b60200260200101819052506118f383610280015161232b565b8160138151811061190057fe5b6020026020010181905250611919836102a0015161232b565b8160148151811061192657fe5b602002602001018190525061193f836102c0015161232b565b8160158151811061194c57fe5b6020026020010181905250611965836102e0015161232b565b8160168151811061197257fe5b602002602001018190525061198b83610300015161232b565b8160178151811061199857fe5b60200260200101819052506119b183610320015161232b565b816018815181106119be57fe5b60200260200101819052506119d2816123ab565b9392505050565b6000806119e5876123ce565b905085811015611a075760405162461bcd60e51b815260040161038d90614312565b83604051602001611a189190613bf3565b604051602081830303815290604052805190602001208814611a4c5760405162461bcd60e51b815260040161038d90613e09565b6000806060611a5a8a6123e6565b905060005b8151811015611ac157896001838381518110611a7757fe5b60200260200101510310611ab957878181518110611a9157fe5b602002602001015192506001828281518110611aa957fe5b6020026020010151039350611ac1565b600101611a5f565b5081611adf5760405162461bcd60e51b815260040161038d90613d5f565b606086516001016001600160401b0381118015611afb57600080fd5b50604051908082528060200260200182016040528015611b25578160200160208202803683370190505b5090506000806000895160010190505b60ff811615611b9f578684826001900392508260ff1681518110611b5557fe5b6020026020010181815250508c871415611b6e57611b9f565b611b7a876001016124ab565b909350915060001983018d11611b935760018303611b98565b600182035b9650611b35565b60005b84518260ff161015611c5957848260ff1681518110611bbd57fe5b602002602001015197508160ff1660001415611bda57508b611c4e565b846001830360ff1681518110611bec57fe5b6020026020010151600189031415611c2857611c218b6001840360ff1681518110611c1357fe5b6020026020010151826124f0565b9050611c4e565b611c4b818c6001850360ff1681518110611c3e57fe5b60200260200101516124f0565b90505b600190910190611ba2565b868114611c785760405162461bcd60e51b815260040161038d90613eda565b5060019f9e505050505050505050505050505050565b600060608260400151836080015181518110611ca657fe5b60200260200101519050611cb8613421565b611cc9611cc483611dd1565b612523565b9050836060015160001415611d035783518251602084012014611cfe5760405162461bcd60e51b815260040161038d90613d8c565b611d6f565b602082511015611d49576000611d20611d1b8361256d565b611edd565b85519091508114611d435760405162461bcd60e51b815260040161038d906142e4565b50611d6f565b83518251602084012014611d6f5760405162461bcd60e51b815260040161038d90614130565b6000611d7e82600001516125bb565b90508060111415611d9c57611d9285612613565b9350505050610ff6565b8060021415611daf57611d92828661272f565b60a085015151611dc55760019350505050610ff6565b60009350505050610ff6565b611dd9613407565b506040805180820190915281518152602082810190820152919050565b6060611e01826129bb565b611e0a57600080fd5b6000611e15836125bb565b90506060816001600160401b0381118015611e2f57600080fd5b50604051908082528060200260200182016040528015611e6957816020015b611e56613407565b815260200190600190039081611e4e5790505b5090506000611e7b85602001516129f5565b60208601510190506000805b84811015611ed257611e9883612a58565b9150604051806040016040528083815260200184815250848281518110611ebb57fe5b602090810291909101015291810191600101611e87565b509195945050505050565b805160009015801590611ef257508151602110155b611efb57600080fd5b6000611f0a83602001516129f5565b83516020808601518301805193945091849003929190831015611f3457826020036101000a820491505b50949350505050565b8051600090601514611f4e57600080fd5b6114dc82611edd565b8051606090611f6557600080fd5b6000611f7483602001516129f5565b83519091508190036060816001600160401b0381118015611f9457600080fd5b506040519080825280601f01601f191660200182016040528015611fbf576020820181803683370190505b5090506000816020019050611f34848760200151018285612af1565b600082600181518110611fea57fe5b602002602001015160001c90506000808380602001905181019061200e9190613b77565b6001600160a01b03808616600090815260046020526040902054929450909250168061203957600080fd5b6040516340c10f1960e01b81526001600160a01b038216906340c10f19906120679085908790600401613c9d565b600060405180830381600087803b15801561208157600080fd5b505af1158015612095573d6000803e3d6000fd5b50505050505050505050565b6000826001815181106120b057fe5b602002602001015160001c9050600080838060200190518101906120d49190613b77565b6001600160a01b0380861660009081526003602052604090205492945090925016612100818385612b3c565b505050505050565b606061215d826040518060400160405280602081526020017f5361666545524332303a206c6f772d6c6576656c2063616c6c206661696c6564815250856001600160a01b0316612b5b9092919063ffffffff16565b805190915015612197578080602001905181019061217b91906137a6565b6121975760405162461bcd60e51b815260040161038d9061426c565b505050565b3b151590565b600654600160a81b900460ff16806121bd57506121bd6114e2565b806121d25750600654600160a01b900460ff16155b6121ee5760405162461bcd60e51b815260040161038d90613ff1565b600654600160a81b900460ff16158015610acf576006805460ff60a01b1960ff60a81b19909116600160a81b1716600160a01b1790558015610ae3576006805460ff60a81b1916905550565b600654600160a81b900460ff168061225557506122556114e2565b8061226a5750600654600160a01b900460ff16155b6122865760405162461bcd60e51b815260040161038d90613ff1565b600654600160a81b900460ff161580156122bd576006805460ff60a01b1960ff60a81b19909116600160a81b1716600160a01b1790555b60006122c7611453565b603980546001600160a01b0319166001600160a01b038316908117909155604051919250906000907f8be0079c531659141344cd1fd0a4f28419497f9722a3daafe3b4186f6b6457e0908290a3508015610ae3576006805460ff60a81b1916905550565b60608082516001148015612354575060808360008151811061234957fe5b016020015160f81c11155b156123605750816114dc565b6119d261236f84516080612b72565b84612cca565b60408051600560a21b83186014820152603481019091526060906119d28161232b565b60606114dc6123a683612d47565b61232b565b6060806123b783612e46565b90506119d26123c8825160c0612b72565b82612cca565b60006123d982612f46565b600183901b039050919050565b60606123f182612f46565b6001600160401b038111801561240657600080fd5b50604051908082528060200260200182016040528015612430578160200160208202803683370190505b50905060008060ff5b801561248357600160001982011b85161561247a576001816001901b83010391508184848060010195508151811061246d57fe5b6020026020010181815250505b60001901612439565b50825182146124a45760405162461bcd60e51b815260040161038d90614195565b5050919050565b60008060016124b984612f6b565b0360ff166001901b83039150600183039050808214156124eb5760405162461bcd60e51b815260040161038d906140e2565b915091565b60008282604051602001612505929190613c32565b60405160208183030381529060405280519060200120905092915050565b61252b613421565b612534826129bb565b61253d57600080fd5b600061254c83602001516129f5565b60208085015160408051808201909152868152920190820152915050919050565b612575613407565b61257e82612fab565b61258757600080fd5b6020820151600061259782612a58565b80830160209586015260408051808201909152908152938401919091525090919050565b80516000906125cc57506000610ff6565b6000806125dc84602001516129f5565b602085015185519181019250015b8082101561260a576125fb82612a58565b600190930192909101906125ea565b50909392505050565b60006060826040015183608001518151811061262b57fe5b6020026020010151905082602001515183606001511061269457606061266761265b61265684611dd1565b611df6565b60108151811061130457fe5b90508360a00151805190602001208180519060200120141561268e57600192505050610ff6565b5061270b565b600083602001518460600151815181106126aa57fe5b016020015160f81c905060606126d06126c561265685611dd1565b838151811061130457fe5b90508051600014612708576126e481612fcc565b855260608501805160019081019091526080860180519091019052611d9285611c8e565b50505b60a08301515161271f576001915050610ff6565b6000915050610ff6565b50919050565b6000606061274461273f8561256d565b611f57565b9050606061275461273f8661256d565b602083015190915060fc1c600281141561280f57825160001901606061277e856021846000612fd3565b9050606061279a88602001518960600151602001856000612fd3565b905084805190602001208860a00151805190602001201415612807578080519060200120828051906020012014156127db57600196505050505050506114dc565b805160208201206127eb8361308d565b80519060200120141561280757600196505050505050506114dc565b505050612999565b80600314156128c257606061282984602086516001612fd3565b905060606128508760200151886060015160200189606001518a6020015151036000612fd3565b905083805190602001208760a001518051906020012014156128bb57808051906020012082805190602001201415612890576001955050505050506114dc565b805160208201206128a083613173565b8051906020012014156128bb576001955050505050506114dc565b5050612999565b806129665782516000190160606128dd856021846000612fd3565b905060606128f988602001518960600151602001856000612fd3565b905080805190602001208280519060200120148061292b5750805160208201206129228361308d565b80519060200120145b156128075761293985612fcc565b885260608801805184019052608088018051600101905261295988611c8e565b96505050505050506114dc565b806001141561298157825160606128dd856020846001612fd3565b60405162461bcd60e51b815260040161038d90614245565b60a0850151516129af57600193505050506114dc565b600093505050506114dc565b80516000906129cc57506000610ff6565b6020820151805160001a9060c08210156129eb57600092505050610ff6565b5060019392505050565b8051600090811a6080811015612a0f576000915050610ff6565b60b8811080612a2a575060c08110801590612a2a575060f881105b15612a39576001915050610ff6565b60c0811015612a4d5760b519019050610ff6565b60f519019050610ff6565b80516000908190811a6080811015612a735760019150612aea565b60b8811015612a8857607e1981019150612aea565b60c0811015612ab55760b78103600185019450806020036101000a85510460018201810193505050612aea565b60f8811015612aca5760be1981019150612aea565b60f78103600185019450806020036101000a855104600182018101935050505b5092915050565b80612afb57612197565b5b60208110612b1b578251825260209283019290910190601f1901612afc565b915181516020939093036101000a6000190180199091169216919091179052565b6121978363a9059cbb60e01b8484604051602401611478929190613c9d565b6060612b6a8484600085613280565b949350505050565b6060806038841015612bcf5760408051600180825281830190925290602082018180368337019050509050838301601f1a60f81b81600081518110612bb357fe5b60200101906001600160f81b031916908160001a9053506119d2565b600060015b808681612bdd57fe5b0415612bf25760019091019061010002612bd4565b816001016001600160401b0381118015612c0b57600080fd5b506040519080825280601f01601f191660200182016040528015612c36576020820181803683370190505b509250603782860101601f1a60f81b83600081518110612c5257fe5b60200101906001600160f81b031916908160001a905350600190505b818111612cc1576101008183036101000a8781612c8757fe5b0481612c8f57fe5b06601f1a60f81b838281518110612ca257fe5b60200101906001600160f81b031916908160001a905350600101612c6e565b50509392505050565b6060806040519050835180825260208201818101602087015b81831015612cfb578051835260209283019201612ce3565b50855184518101855292509050808201602086015b81831015612d28578051835260209283019201612d10565b508651929092011591909101601f01601f191660405250905092915050565b60408051602080825281830190925260609182919060208201818036833701905050905082602082015260005b6020811015612daa57818181518110612d8957fe5b01602001516001600160f81b03191615612da257612daa565b600101612d74565b6060816020036001600160401b0381118015612dc557600080fd5b506040519080825280601f01601f191660200182016040528015612df0576020820181803683370190505b50905060005b8151811015611f34578351600184019385918110612e1057fe5b602001015160f81c60f81b828281518110612e2757fe5b60200101906001600160f81b031916908160001a905350600101612df6565b6060815160001415612e675750604080516000815260208101909152610ff6565b6000805b8351811015612e9a57838181518110612e8057fe5b602002602001015151820191508080600101915050612e6b565b6060826001600160401b0381118015612eb257600080fd5b506040519080825280601f01601f191660200182016040528015612edd576020820181803683370190505b50600092509050602081015b8551831015611f34576060868481518110612f0057fe5b602002602001015190506000602082019050612f1e83828451613341565b878581518110612f2a57fe5b6020026020010151518301925050508280600101935050612ee9565b6000815b8015612729576002810660011415612f63576001909101905b60011c612f4a565b600081815b80821115612fa35760018360ff166001901b0382039150612f9082613385565b925050600019600160ff84161b01612f70565b039003919050565b6000612fb5613407565b505080518051602091820151919092015191011190565b6020015190565b60606020808404906008601f8616029060008085886001600160401b0381118015612ffd57600080fd5b506040519080825280601f01601f191660200182016040528015613028576020820181803683370190505b5090508a8a019150871561305257818401516001600160fc1b031681850152602090930192600192505b825b86811015613072578285015182860152602090940193600101613054565b5083820151851c851b84820152505050505050949350505050565b805160609060020281816001600160401b03811180156130ac57600080fd5b506040519080825280601f01601f1916602001820160405280156130d7576020820181803683370190505b50905060005b845181101561316b5760008061310c8784815181106130f857fe5b01602001516001600160f81b0319166133ad565b915091508184846002028151811061312057fe5b60200101906001600160f81b031916908160001a9053508084846002026001018151811061314a57fe5b60200101906001600160f81b031916908160001a90535050506001016130dd565b509392505050565b60606000600183516002020390506060816001600160401b038111801561319957600080fd5b506040519080825280601f01601f1916602001820160405280156131c4576020820181803683370190505b509050836000815181106131d457fe5b602001015160f81c60f81b816000815181106131ec57fe5b60200101906001600160f81b031916908160001a90535060015b845181101561316b576000806132218784815181106130f857fe5b915091508184600185600202038151811061323857fe5b60200101906001600160f81b031916908160001a9053508084846002028151811061325f57fe5b60200101906001600160f81b031916908160001a9053505050600101613206565b6060824710156132a25760405162461bcd60e51b815260040161038d90613f41565b6132ab8561219c565b6132c75760405162461bcd60e51b815260040161038d9061420e565b60006060866001600160a01b031685876040516132e49190613c6d565b60006040518083038185875af1925050503d8060008114613321576040519150601f19603f3d011682016040523d82523d6000602084013e613326565b606091505b50915091506133368282866133c1565b979650505050505050565b8282825b60208110613364578151835260209283019290910190601f1901613345565b905182516020929092036101000a6000190180199091169116179052505050565b600060015b60ff8116838101600190911b116133a35760010161338a565b6000190192915050565b600481901c916001600160fc1b0390911690565b606083156133d05750816119d2565b8251156133e05782518084602001fd5b8160405162461bcd60e51b815260040161038d9190613ce5565b61151f806143fb83390190565b604051806040016040528060008152602001600081525090565b6040518060400160405280613434613407565b8152602001600081525090565b8035610ff6816143e5565b600082601f83011261345c578081fd5b813561346f61346a8261437b565b614358565b81815291506020808301908481018184028601820187101561349057600080fd5b60005b848110156134af57813584529282019290820190600101613493565b505050505092915050565b600082601f8301126134ca578081fd5b81356134d861346a8261437b565b818152915060208083019084810160005b848110156134af57613500888484358a0101613512565b845292820192908201906001016134e9565b600082601f830112613522578081fd5b813561353061346a82614398565b915080825283602082850101111561354757600080fd5b8060208401602084013760009082016020015292915050565b600082601f830112613570578081fd5b815161357e61346a82614398565b915080825283602082850101111561359557600080fd5b612aea8160208401602086016143b9565b600060a082840312156135b7578081fd5b60405160a081016001600160401b0382821081831117156135d457fe5b81604052829350843583526020850135602084015260408501356040840152606085013591508082111561360757600080fd5b6136138683870161344c565b6060840152608085013591508082111561362c57600080fd5b506136398582860161344c565b6080830152505092915050565b600060c08284031215613657578081fd5b61366160c0614358565b90508135815260208201356001600160401b038082111561368157600080fd5b61368d85838601613512565b602084015260408401359150808211156136a657600080fd5b6136b2858386016134ba565b6040840152606084013560608401526080840135608084015260a08401359150808211156136df57600080fd5b506136ec84828501613512565b60a08301525092915050565b600060208284031215613709578081fd5b81356119d2816143e5565b600060208284031215613725578081fd5b81356001600160401b0381111561373a578182fd5b612b6a8482850161344c565b60008060408385031215613758578081fd5b82356001600160401b038082111561376e578283fd5b61377a8683870161344c565b9350602085013591508082111561378f578283fd5b5061379c85828601613512565b9150509250929050565b6000602082840312156137b7578081fd5b815180151581146119d2578182fd5b6000602082840312156137d7578081fd5b5035919050565b6000806000606084860312156137f2578081fd5b83356137fd816143e5565b9250602084013561380d816143e5565b929592945050506040919091013590565b60006020828403121561382f578081fd5b81516001600160401b03811115613844578182fd5b612b6a84828501613560565b60008060408385031215613862578182fd5b82516001600160401b0380821115613878578384fd5b61388486838701613560565b93506020850151915080821115613899578283fd5b5061379c85828601613560565b6000806000606084860312156138ba578081fd5b83356001600160401b03808211156138d0578283fd5b81860191506103408083890312156138e6578384fd5b6138ef81614358565b9050823581526020830135602082015261390b60408401613441565b6040820152606083013560608201526080830135608082015260a083013560a082015260c083013560c082015260e083013560e08201526101008084013583811115613955578586fd5b6139618a828701613512565b918301919091525061012083810135908201526101408084013590820152610160808401359082015261018080840135908201526101a080840135838111156139a8578586fd5b6139b48a828701613512565b91830191909152506101c083810135908201526101e080840135908201526102008084013590820152610220808401359082015261024080840135838111156139fb578586fd5b613a078a828701613512565b8284015250506102608084013583811115613a20578586fd5b613a2c8a828701613512565b8284015250506102808084013583811115613a45578586fd5b613a518a828701613512565b8284015250506102a08084013583811115613a6a578586fd5b613a768a828701613512565b8284015250506102c08084013583811115613a8f578586fd5b613a9b8a828701613512565b8284015250506102e08084013583811115613ab4578586fd5b613ac08a828701613512565b8284015250506103008084013583811115613ad9578586fd5b613ae58a828701613512565b8284015250506103208084013583811115613afe578586fd5b613b0a8a828701613512565b828401525050809550506020860135915080821115613b27578283fd5b613b33878388016135a6565b93506040860135915080821115613b48578283fd5b50613b5586828701613646565b9150509250925092565b600060208284031215613b70578081fd5b5051919050565b60008060408385031215613b89578182fd5b825191506020830151613b9b816143e5565b809150509250929050565b600060208284031215613bb7578081fd5b815160ff811681146119d2578182fd5b60008151808452613bdf8160208601602086016143b9565b601f01601f19169290920160200192915050565b815160009082906020808601845b83811015613c1d57815185529382019390820190600101613c01565b50929695505050505050565b90815260200190565b918252602082015260400190565b60008482528360208301528251613c5e8160408501602087016143b9565b91909101604001949350505050565b60008251613c7f8184602087016143b9565b9190910192915050565b6001600160a01b0391909116815260200190565b6001600160a01b03929092168252602082015260400190565b6001600160a01b039384168152919092166020820152604081019190915260600190565b901515815260200190565b6000602082526119d26020830184613bc7565b600060408252613d0b6040830185613bc7565b8281036020840152613d1d8185613bc7565b95945050505050565b600060608252613d396060830186613bc7565b8281036020840152613d4b8186613bc7565b91505060ff83166040830152949350505050565b60208082526013908201527215185c99d95d081a5cc81b9bdd08199bdd5b99606a1b604082015260600190565b60208082526026908201527f7665726966795472696550726f6f6620726f6f74206e6f6465206861736820696040820152651b9d985b1a5960d21b606082015260800190565b6020808252601c908201527f636865636b706f696e742076616c69646174696f6e206661696c656400000000604082015260600190565b6020808252818101527f496e76616c696420726f6f7420686173682066726f6d20746865207065616b73604082015260600190565b60208082526026908201527f4f776e61626c653a206e6577206f776e657220697320746865207a65726f206160408201526564647265737360d01b606082015260800190565b602080825260159082015274189c9a5919d948191bd95cc81b9bdd08195e1a5cdd605a1b604082015260600190565b6020808252600d908201526c646f75626c65207370656e742160981b604082015260600190565b60208082526016908201527512185cda1959081c19585ac81a5cc81a5b9d985b1a5960521b604082015260600190565b6020808252601e908201527f536166654d6174683a207375627472616374696f6e206f766572666c6f770000604082015260600190565b60208082526026908201527f416464726573733a20696e73756666696369656e742062616c616e636520666f6040820152651c8818d85b1b60d21b606082015260800190565b6020808252600e908201526d1c995d995c9d081c9958d95a5c1d60921b604082015260600190565b60208082526022908201527f626c6f636b2068656164657220636f756c64206e6f7420626520766572696669604082015261195960f21b606082015260800190565b6020808252602e908201527f496e697469616c697a61626c653a20636f6e747261637420697320616c72656160408201526d191e481a5b9a5d1a585b1a5e995960921b606082015260800190565b60208082526017908201527f746f6b656e20697320616c7265616479206d6170706564000000000000000000604082015260600190565b6020808252601b908201527f726563697069656e742069732061207a65726f20616464726573730000000000604082015260600190565b6020808252818101527f4f776e61626c653a2063616c6c6572206973206e6f7420746865206f776e6572604082015260600190565b6020808252600c908201526b139bdd0818481c185c995b9d60a21b604082015260600190565b6020808252600e908201526d1b9bc81d985b1a5908195d995b9d60921b604082015260600190565b6020808252601490820152737665726966795472696550726f6f6620656c736560601b604082015260600190565b6020808252601e908201527f6d697373696e67206d617070696e6720746f2061636b6e6f776c656467650000604082015260600190565b60208082526017908201527f496e76616c6964206269742063616c63756c6174696f6e000000000000000000604082015260600190565b60208082526022908201527f72656365697074206461746120636f756c64206e6f7420626520766572696669604082015261195960f21b606082015260800190565b6020808252601d908201527f416464726573733a2063616c6c20746f206e6f6e2d636f6e7472616374000000604082015260600190565b6020808252600d908201526c24b73b30b634b210383937b7b360991b604082015260600190565b6020808252602a908201527f5361666545524332303a204552433230206f7065726174696f6e20646964206e6040820152691bdd081cdd58d8d9595960b21b606082015260800190565b602080825260149082015273189c9a5919d948185b1c9958591e48195e1a5cdd60621b604082015260600190565b6020808252601490820152733b32b934b33caa3934b2a83937b7b3101e10199960611b604082015260600190565b602080825260159082015274496e646578206973206f7574206f662072616e676560581b604082015260600190565b9182526001600160a01b0316602082015260400190565b6040518181016001600160401b038111828210171561437357fe5b604052919050565b60006001600160401b0382111561438e57fe5b5060209081020190565b60006001600160401b038211156143ab57fe5b50601f01601f191660200190565b60005b838110156143d45781810151838201526020016143bc565b838111156114af5750506000910152565b6001600160a01b0381168114610ae357600080fdfe608060405234801561001057600080fd5b506114ff806100206000396000f3fe608060405234801561001057600080fd5b50600436106101165760003560e01c806370a08231116100a257806395d89b411161007157806395d89b4114610227578063a457c2d71461022f578063a9059cbb14610242578063dd62ed3e14610255578063f2fde38b1461026857610116565b806370a08231146101e4578063715018a6146101f757806379cc6790146101ff5780638da5cb5b1461021257610116565b806323b872dd116100e957806323b872dd14610183578063313ce5671461019657806339509351146101ab57806340c10f19146101be57806342966c68146101d157610116565b806306fdde031461011b578063095ea7b3146101395780631624f6c61461015957806318160ddd1461016e575b600080fd5b61012361027b565b60405161013091906110e9565b60405180910390f35b61014c61014736600461100f565b610311565b60405161013091906110de565b61016c610167366004611038565b61032e565b005b6101766103d8565b60405161013091906113f9565b61014c610191366004610fd4565b6103de565b61019e610465565b6040516101309190611402565b61014c6101b936600461100f565b61046e565b61016c6101cc36600461100f565b6104bc565b61016c6101df3660046110b2565b610509565b6101766101f2366004610f88565b61051d565b61016c61053c565b61016c61020d36600461100f565b6105c5565b61021a61061a565b60405161013091906110ca565b610123610629565b61014c61023d36600461100f565b61068a565b61014c61025036600461100f565b6106f2565b610176610263366004610fa2565b610706565b61016c610276366004610f88565b610731565b60368054604080516020601f60026000196101006001881615020190951694909404938401819004810282018101909252828152606093909290918301828280156103075780601f106102dc57610100808354040283529160200191610307565b820191906000526020600020905b8154815290600101906020018083116102ea57829003601f168201915b5050505050905090565b600061032561031e6107f2565b84846107f6565b50600192915050565b600054610100900460ff168061034757506103476108aa565b80610355575060005460ff16155b61037a5760405162461bcd60e51b815260040161037190611275565b60405180910390fd5b600054610100900460ff161580156103a5576000805460ff1961ff0019909116610100171660011790555b6103af84846108bb565b6103b7610951565b6103c0826109e3565b80156103d2576000805461ff00191690555b50505050565b60355490565b60006103eb8484846109f9565b61045b846103f76107f2565b61045685604051806060016040528060288152602001611459602891396001600160a01b038a166000908152603460205260408120906104356107f2565b6001600160a01b031681526020810191909152604001600020549190610b0e565b6107f6565b5060019392505050565b60385460ff1690565b600061032561047b6107f2565b84610456856034600061048c6107f2565b6001600160a01b03908116825260208083019390935260409182016000908120918c168152925290205490610b3a565b6104c46107f2565b6001600160a01b03166104d561061a565b6001600160a01b0316146104fb5760405162461bcd60e51b8152600401610371906112c3565b6105058282610b66565b5050565b61051a6105146107f2565b82610c26565b50565b6001600160a01b0381166000908152603360205260409020545b919050565b6105446107f2565b6001600160a01b031661055561061a565b6001600160a01b03161461057b5760405162461bcd60e51b8152600401610371906112c3565b6097546040516000916001600160a01b0316907f8be0079c531659141344cd1fd0a4f28419497f9722a3daafe3b4186f6b6457e0908390a3609780546001600160a01b0319169055565b60006105f782604051806060016040528060248152602001611481602491396105f0866102636107f2565b9190610b0e565b905061060b836106056107f2565b836107f6565b6106158383610c26565b505050565b6097546001600160a01b031690565b60378054604080516020601f60026000196101006001881615020190951694909404938401819004810282018101909252828152606093909290918301828280156103075780601f106102dc57610100808354040283529160200191610307565b60006103256106976107f2565b84610456856040518060600160405280602581526020016114a560259139603460006106c16107f2565b6001600160a01b03908116825260208083019390935260409182016000908120918d16815292529020549190610b0e565b60006103256106ff6107f2565b84846109f9565b6001600160a01b03918216600090815260346020908152604080832093909416825291909152205490565b6107396107f2565b6001600160a01b031661074a61061a565b6001600160a01b0316146107705760405162461bcd60e51b8152600401610371906112c3565b6001600160a01b0381166107965760405162461bcd60e51b81526004016103719061117f565b6097546040516001600160a01b038084169216907f8be0079c531659141344cd1fd0a4f28419497f9722a3daafe3b4186f6b6457e090600090a3609780546001600160a01b0319166001600160a01b0392909216919091179055565b3390565b6001600160a01b03831661081c5760405162461bcd60e51b81526004016103719061137e565b6001600160a01b0382166108425760405162461bcd60e51b8152600401610371906111c5565b6001600160a01b0380841660008181526034602090815260408083209487168084529490915290819020849055517f8c5be1e5ebec7d5bd14f71427d1e84f3dd0314c0f7b2291e5b200ac8c7c3b9259061089d9085906113f9565b60405180910390a3505050565b60006108b530610cfc565b15905090565b600054610100900460ff16806108d457506108d46108aa565b806108e2575060005460ff16155b6108fe5760405162461bcd60e51b815260040161037190611275565b600054610100900460ff16158015610929576000805460ff1961ff0019909116610100171660011790555b610931610d02565b61093b8383610d83565b8015610615576000805461ff0019169055505050565b600054610100900460ff168061096a575061096a6108aa565b80610978575060005460ff16155b6109945760405162461bcd60e51b815260040161037190611275565b600054610100900460ff161580156109bf576000805460ff1961ff0019909116610100171660011790555b6109c7610d02565b6109cf610d02565b801561051a576000805461ff001916905550565b6038805460ff191660ff92909216919091179055565b6001600160a01b038316610a1f5760405162461bcd60e51b815260040161037190611339565b6001600160a01b038216610a455760405162461bcd60e51b81526004016103719061113c565b610a50838383610615565b610a8d81604051806060016040528060268152602001611433602691396001600160a01b0386166000908152603360205260409020549190610b0e565b6001600160a01b038085166000908152603360205260408082209390935590841681522054610abc9082610b3a565b6001600160a01b0380841660008181526033602052604090819020939093559151908516907fddf252ad1be2c89b69c2b068fc378daa952ba7f163c4a11628f55a4df523b3ef9061089d9085906113f9565b60008184841115610b325760405162461bcd60e51b815260040161037191906110e9565b505050900390565b600082820183811015610b5f5760405162461bcd60e51b815260040161037190611207565b9392505050565b6001600160a01b038216610b8c5760405162461bcd60e51b8152600401610371906113c2565b610b9860008383610615565b603554610ba59082610b3a565b6035556001600160a01b038216600090815260336020526040902054610bcb9082610b3a565b6001600160a01b0383166000818152603360205260408082209390935591519091907fddf252ad1be2c89b69c2b068fc378daa952ba7f163c4a11628f55a4df523b3ef90610c1a9085906113f9565b60405180910390a35050565b6001600160a01b038216610c4c5760405162461bcd60e51b8152600401610371906112f8565b610c5882600083610615565b610c9581604051806060016040528060228152602001611411602291396001600160a01b0385166000908152603360205260409020549190610b0e565b6001600160a01b038316600090815260336020526040902055603554610cbb9082610e3c565b6035556040516000906001600160a01b038416907fddf252ad1be2c89b69c2b068fc378daa952ba7f163c4a11628f55a4df523b3ef90610c1a9085906113f9565b3b151590565b600054610100900460ff1680610d1b5750610d1b6108aa565b80610d29575060005460ff16155b610d455760405162461bcd60e51b815260040161037190611275565b600054610100900460ff161580156109cf576000805460ff1961ff001990911661010017166001179055801561051a576000805461ff001916905550565b600054610100900460ff1680610d9c5750610d9c6108aa565b80610daa575060005460ff16155b610dc65760405162461bcd60e51b815260040161037190611275565b600054610100900460ff16158015610df1576000805460ff1961ff0019909116610100171660011790555b8251610e04906036906020860190610e64565b508151610e18906037906020850190610e64565b506038805460ff191660121790558015610615576000805461ff0019169055505050565b600082821115610e5e5760405162461bcd60e51b81526004016103719061123e565b50900390565b828054600181600116156101000203166002900490600052602060002090601f016020900481019282601f10610ea557805160ff1916838001178555610ed2565b82800160010185558215610ed2579182015b82811115610ed2578251825591602001919060010190610eb7565b50610ede929150610ee2565b5090565b5b80821115610ede5760008155600101610ee3565b80356001600160a01b038116811461053757600080fd5b600082601f830112610f1e578081fd5b813567ffffffffffffffff80821115610f3357fe5b604051601f8301601f191681016020018281118282101715610f5157fe5b604052828152925082848301602001861015610f6c57600080fd5b8260208601602083013760006020848301015250505092915050565b600060208284031215610f99578081fd5b610b5f82610ef7565b60008060408385031215610fb4578081fd5b610fbd83610ef7565b9150610fcb60208401610ef7565b90509250929050565b600080600060608486031215610fe8578081fd5b610ff184610ef7565b9250610fff60208501610ef7565b9150604084013590509250925092565b60008060408385031215611021578182fd5b61102a83610ef7565b946020939093013593505050565b60008060006060848603121561104c578283fd5b833567ffffffffffffffff80821115611063578485fd5b61106f87838801610f0e565b94506020860135915080821115611084578384fd5b5061109186828701610f0e565b925050604084013560ff811681146110a7578182fd5b809150509250925092565b6000602082840312156110c3578081fd5b5035919050565b6001600160a01b0391909116815260200190565b901515815260200190565b6000602080835283518082850152825b81811015611115578581018301518582016040015282016110f9565b818111156111265783604083870101525b50601f01601f1916929092016040019392505050565b60208082526023908201527f45524332303a207472616e7366657220746f20746865207a65726f206164647260408201526265737360e81b606082015260800190565b60208082526026908201527f4f776e61626c653a206e6577206f776e657220697320746865207a65726f206160408201526564647265737360d01b606082015260800190565b60208082526022908201527f45524332303a20617070726f766520746f20746865207a65726f206164647265604082015261737360f01b606082015260800190565b6020808252601b908201527f536166654d6174683a206164646974696f6e206f766572666c6f770000000000604082015260600190565b6020808252601e908201527f536166654d6174683a207375627472616374696f6e206f766572666c6f770000604082015260600190565b6020808252602e908201527f496e697469616c697a61626c653a20636f6e747261637420697320616c72656160408201526d191e481a5b9a5d1a585b1a5e995960921b606082015260800190565b6020808252818101527f4f776e61626c653a2063616c6c6572206973206e6f7420746865206f776e6572604082015260600190565b60208082526021908201527f45524332303a206275726e2066726f6d20746865207a65726f206164647265736040820152607360f81b606082015260800190565b60208082526025908201527f45524332303a207472616e736665722066726f6d20746865207a65726f206164604082015264647265737360d81b606082015260800190565b60208082526024908201527f45524332303a20617070726f76652066726f6d20746865207a65726f206164646040820152637265737360e01b606082015260800190565b6020808252601f908201527f45524332303a206d696e7420746f20746865207a65726f206164647265737300604082015260600190565b90815260200190565b60ff9190911681526020019056fe45524332303a206275726e20616d6f756e7420657863656564732062616c616e636545524332303a207472616e7366657220616d6f756e7420657863656564732062616c616e636545524332303a207472616e7366657220616d6f756e74206578636565647320616c6c6f77616e636545524332303a206275726e20616d6f756e74206578636565647320616c6c6f77616e636545524332303a2064656372656173656420616c6c6f77616e63652062656c6f77207a65726fa264697066735822122043885978cb8710a9523670c7600ac1f0f0c9a406283ccbe34acaff46d981c07c64736f6c6343000703003376657269667952656365697074202d20646966666572656e74207472696520726f6f7473a26469706673582212206d857d51fd8d523dfbdaccd33f23da278a7530517a3288d7d1620772c463318b64736f6c63430007030033",
  "linkReferences": {},
  "deployedLinkReferences": {}
}