{
  "contractName": "Ethash",
  "abi": [
    {
      "inputs": [],
      "stateMutability": "nonpayable",
      "type": "constructor"
    },
    {
      "inputs": [
        {
          "internalType": "bytes32",
          "name": "hash",
          "type": "bytes32"
        },
        {
          "internalType": "uint64",
          "name": "nonce",
          "type": "uint64"
        },
        {
          "internalType": "uint64",
          "name": "number",
          "type": "uint64"
        },
        {
          "internalType": "bytes32[4][64]",
          "name": "cache",
          "type": "bytes32[4][64]"
        },
        {
          "internalType": "bytes32[][64]",
          "name": "proofs",
          "type": "bytes32[][64]"
        },
        {
          "internalType": "uint256",
          "name": "difficulty",
          "type": "uint256"
        },
        {
          "internalType": "uint256",
          "name": "mixHash",
          "type": "uint256"
        }
      ],
      "name": "verifyEthash",
      "outputs": [
        {
          "internalType": "bool",
          "name": "",
          "type": "bool"
        }
      ],
      "stateMutability": "pure",
      "type": "function"
    }
  ],
  "bytecode": "0x608060405234801561001057600080fd5b50611098806100206000396000f3fe608060405234801561001057600080fd5b506004361061002b5760003560e01c8063b999553614610030575b600080fd5b61004361003e366004610d88565b610059565b6040516100509190610fa3565b60405180910390f35b600061753067ffffffffffffffff87160481610074826100ed565b905060006100818361018f565b90506000806100948d8d858d888e610240565b91509150600088600019816100a557fe5b0490508889600019816100b457fe5b06600101816100bf57fe5b040182881480156100d05750600189115b80156100db57508181115b9e9d5050505050505050505050505050565b6040805180820190915260208082527f58e6b093463d546aa98c4730e22904d16193f3dd9df36c468c27a58cb9b5a86e9082015260009061018367ffffffffffffffff84161080159061014c575061018367ffffffffffffffff841611155b6101715760405162461bcd60e51b815260040161016890610fe1565b60405180910390fd5b610181199290920167ffffffffffffffff1660200290910151919050565b6000633fffff80628000008302015b6040516319eef96560e21b815273__Prime_________________________________906367bbe594906101db906080850490600290600401610f38565b60206040518083038186803b1580156101f357600080fd5b505af4158015610207573d6000803e3d6000fd5b505050506040513d601f19601f8201168201806040525081019061022b9190610d61565b6102385760ff190161019e565b90505b919050565b60408051602880825260608281019093526000928392608067ffffffffffffffff8a1604926020820181803683370190505090506102808160008c610857565b61028c8160208b61085f565b6040516351cc9c2760e11b815273__Keccak512_____________________________9063a399384e906102c3908490600401610fae565b60006040518083038186803b1580156102db57600080fd5b505af41580156102ef573d6000803e3d6000fd5b505050506040513d6000823e601f3d908101601f191682016040526103179190810190610eae565b90506000610325828261088a565b6040805160208082526104208201909252919250606091908082016104008036833701905050905060005b81518163ffffffff16101561039e5761036f84600f831660040261088a565b828263ffffffff168151811061038157fe5b63ffffffff90921660209283029190910190910152600101610350565b506060815167ffffffffffffffff811180156103b957600080fd5b506040519080825280602002602001820160405280156103e3578160200160208202803683370190505b5090508860005b604063ffffffff821610156106e35760008763ffffffff166104318784188788518663ffffffff168161041957fe5b068151811061042457fe5b60200260200101516108a5565b63ffffffff168161043e57fe5b069050610449610c69565b8d8363ffffffff166040811061045b57fe5b6020020151905060008260020263ffffffff16905060608d8563ffffffff166040811061048457fe5b60200201519050600082846040516020016104a0929190610f68565b6040516020818303038152906040528051906020012090506104c38288836108b2565b5060005b60048163ffffffff1610156106c7576008810260008663ffffffff8416600481106104ee57fe5b6020020151905061050260e082901c61094f565b8b8363ffffffff168151811061051457fe5b602002602001019063ffffffff16908163ffffffff168152505061053b60c082901c61094f565b8b8360010163ffffffff168151811061055057fe5b602002602001019063ffffffff16908163ffffffff168152505061057760a082901c61094f565b8b8360020163ffffffff168151811061058c57fe5b602002602001019063ffffffff16908163ffffffff16815250506105b3608082901c61094f565b8b8360030163ffffffff16815181106105c857fe5b602002602001019063ffffffff16908163ffffffff16815250506105ef606082901c61094f565b8b8360040163ffffffff168151811061060457fe5b602002602001019063ffffffff16908163ffffffff168152505061062b604082901c61094f565b8b8360050163ffffffff168151811061064057fe5b63ffffffff9092166020928302919091018201526106609082901c61094f565b8b8360060163ffffffff168151811061067557fe5b63ffffffff909216602092830291909101909101526106938161094f565b8b8360070163ffffffff16815181106106a857fe5b63ffffffff9092166020928302919091019091015250506001016104c7565b506106d28989610996565b5050600190930192506103ea915050565b5060005b83518163ffffffff1610156107905761075861074361072e868463ffffffff168151811061071157fe5b6020026020010151878560010163ffffffff168151811061042457fe5b868460020163ffffffff168151811061042457fe5b858360030163ffffffff168151811061042457fe5b84600463ffffffff84160463ffffffff168151811061077357fe5b63ffffffff909216602092830291909101909101526004016106e7565b506000805b60048551816107a057fe5b048163ffffffff16101561081557602082901b91506000858263ffffffff16815181106107c957fe5b602090810291909101015163ffffffff601882811c60ff16600884811c61ff00169085901b62ff0000169490921b63ff0000001693909317179190911716929092179150600101610795565b50604051819061082b9088908390602001610f46565b604051602081830303815290604052805190602001209850985050505050505050965096945050505050565b910160200152565b61086a838383610c3f565b610885836004840163ffffffff602085901c811690610c3f16565b505050565b8181016004015160009061089d8161094f565b949350505050565b6301000193919091021890565b600081815b85518110156109445760008682815181106108ce57fe5b6020026020010151905080831161090f5782816040516020016108f2929190610f38565b60405160208183030381529060405280519060200120925061093b565b8083604051602001610922929190610f38565b6040516020818303038152906040528051906020012092505b506001016108b7565b509092149392505050565b600060188263ffffffff16901b63ff0000001660088363ffffffff16901b62ff00001660088463ffffffff16901c61ff001660188563ffffffff16901c1717179050919050565b602082810180519183015163010001939283021863ffffffff90811690915260408084015190850180518402909118821690526060808401519085018051840290911882169052608080840151908501805184029091188216905260a080840151908501805184029091188216905260c080840151908501805184029091188216905260e08084015190850180518402909118821690526101008084015190850180518402909118821690526101208084015190850180518402909118821690526101408084015190850180518402909118821690526101608084015190850180518402909118821690526101808084015190850180518402909118821690526101a08084015190850180518402909118821690526101c08084015190850180518402909118821690526101e08084015190850180518402909118821690526102008084015190850180518402909118821690526102208084015190850180518402909118821690526102408084015190850180518402909118821690526102608084015190850180518402909118821690526102808084015190850180518402909118821690526102a08084015190850180518402909118821690526102c08084015190850180518402909118821690526102e08084015190850180518402909118821690526103008084015190850180518402909118821690526103208084015190850180518402909118821690526103408084015190850180518402909118821690526103608084015190850180518402909118821690526103808084015190850180518402909118821690526103a08084015190850180518402909118821690526103c08084015190850180518402909118821690526103e0808401519085018051840290911882169052610400928301519290930180519091029091189091169052565b6020820183018181538160081c60018201538160101c60028201538160181c600382015350505050565b60405180608001604052806004906020820280368337509192915050565b6000601f8381840112610c98578182fd5b610ca361080061100e565b9150818360005b6040811015610d3f57813586018785820112610cc557600080fd5b803567ffffffffffffffff811115610cd957fe5b6020808202610ce982820161100e565b8381528281019085840183870185018e1015610d0457600080fd5b600096505b85871015610d27578035835260019690960195918401918401610d09565b50885250509485019493909301925050600101610caa565b5050505092915050565b803567ffffffffffffffff8116811461023b57600080fd5b600060208284031215610d72578081fd5b81518015158114610d81578182fd5b9392505050565b60008060008060008060006120c0888a031215610da3578283fd5b87359650610db360208901610d49565b9550610dc160408901610d49565b945088607f890112610dd1578283fd5b610ddc61080061100e565b8060608a018b6120608c011115610df1578586fd5b855b6040811015610e60578c601f830112610e0a578687fd5b610e14608061100e565b80838f608086011115610e2557898afd5b895b6004811015610e46578135845260209384019390910190600101610e27565b505085525060209093019260809190910190600101610df3565b50909550505067ffffffffffffffff6120608901351115610e7f578283fd5b610e90896120608a01358a01610c87565b925061208088013591506120a0880135905092959891949750929550565b600060208284031215610ebf578081fd5b815167ffffffffffffffff80821115610ed6578283fd5b818401915084601f830112610ee9578283fd5b815181811115610ef557fe5b610f08601f8201601f191660200161100e565b9150808252856020828501011115610f1e578384fd5b610f2f816020840160208601611032565b50949350505050565b918252602082015260400190565b60008351610f58818460208801611032565b9190910191825250602001919050565b6000838252602080830184835b6004811015610f9257815183529183019190830190600101610f75565b5050505060a0820190509392505050565b901515815260200190565b6000602082528251806020840152610fcd816040850160208701611032565b601f01601f19169190910160400192915050565b60208082526013908201527265706f6368206f7574206f662072616e67652160681b604082015260600190565b60405181810167ffffffffffffffff8111828210171561102a57fe5b604052919050565b60005b8381101561104d578181015183820152602001611035565b8381111561105c576000848401525b5050505056fea2646970667358221220305421f62a1bd5428d2a4388927bf6c72ff3f9890a765ec5fb85e81767df8ad764736f6c63430007030033",
  "immutableReferences": {},
  "source": "// SPDX-License-Identifier: UNLICENSED\npragma solidity ^0.7;\npragma experimental ABIEncoderV2;\n\nimport \"./binary.sol\";\nimport \"./keccak512.sol\";\nimport \"./Prime.sol\";\nimport \"openzeppelin-solidity/contracts/cryptography/MerkleProof.sol\";\n\nimport \"./MerkelRoot.sol\"; // npm run merkelInit\n\ncontract Ethash is MerkelRoots {\n    using LittleEndian for bytes;\n    using Keccak512 for bytes;\n    using Prime for uint256;\n\n    uint32 constant hashWords = 16;\n    uint32 constant hashBytes = 64;\n    uint32 constant datasetParents = 256;\n    uint32 constant mixBytes = 128; // Width of mix\n    uint32 constant loopAccesses = 64; // Number of accesses in hashimoto loop\n    uint256 constant MAX256 =\n        0xffffffffffffffffffffffffffffffffffffffffffffffffffffffffffffffff;\n\n    uint256 constant DATASET_BYTES_INIT = 1073741824;\n    uint256 constant DATASET_BYTES_GROWTH = 8388608; // 2 ^ 23\n    uint256 constant EPOCH_LENGTH = 30000;\n\n    constructor() public {}\n\n    function getFullSize(uint256 epoc) private pure returns (uint256) {\n        uint256 sz = DATASET_BYTES_INIT + (DATASET_BYTES_GROWTH) * epoc;\n        sz -= mixBytes;\n        while (!(sz / mixBytes).probablyPrime(2)) {\n            sz -= 2 * mixBytes;\n        }\n        return sz;\n    }\n\n    // fnv is an algorithm inspired by the FNV hash, which in some cases is used as\n    // a non-associative substitute for XOR. Note that we multiply the prime with\n    // the full 32-bit input, in contrast with the FNV-1 spec which multiplies the\n    // prime with one byte (octet) in turn.\n    function fnv(uint32 a, uint32 b) internal pure returns (uint32) {\n        return (a * 0x01000193) ^ b;\n    }\n\n    // fnvHash mixes in data into mix using the ethash fnv method.\n    function fnvHash32(uint32[] memory mix, uint32[] memory data)\n        internal\n        pure\n    {\n        assembly {\n            let mixOffset := add(mix, 0x20)\n            let mixValue := mload(mixOffset)\n            let dataOffset := add(data, 0x20)\n            let dataValue := mload(dataOffset)\n\n            // fnv = return ((v1*0x01000193) ^ v2) & 0xFFFFFFFF;\n            let fnvValue := and(\n                xor(mul(mixValue, 0x01000193), dataValue),\n                0xFFFFFFFF\n            )\n            mstore(mixOffset, fnvValue)\n\n            // ---- 1\n            dataOffset := add(dataOffset, 0x20)\n            dataValue := mload(dataOffset)\n            mixOffset := add(mixOffset, 0x20)\n            mixValue := mload(mixOffset)\n            fnvValue := and(\n                xor(mul(mixValue, 0x01000193), dataValue),\n                0xFFFFFFFF\n            )\n            mstore(mixOffset, fnvValue)\n\n            // ---- 2\n            dataOffset := add(dataOffset, 0x20)\n            dataValue := mload(dataOffset)\n            mixOffset := add(mixOffset, 0x20)\n            mixValue := mload(mixOffset)\n            fnvValue := and(\n                xor(mul(mixValue, 0x01000193), dataValue),\n                0xFFFFFFFF\n            )\n            mstore(mixOffset, fnvValue)\n\n            // ---- 3\n            dataOffset := add(dataOffset, 0x20)\n            dataValue := mload(dataOffset)\n            mixOffset := add(mixOffset, 0x20)\n            mixValue := mload(mixOffset)\n            fnvValue := and(\n                xor(mul(mixValue, 0x01000193), dataValue),\n                0xFFFFFFFF\n            )\n            mstore(mixOffset, fnvValue)\n\n            // ---- 4\n            dataOffset := add(dataOffset, 0x20)\n            dataValue := mload(dataOffset)\n            mixOffset := add(mixOffset, 0x20)\n            mixValue := mload(mixOffset)\n            fnvValue := and(\n                xor(mul(mixValue, 0x01000193), dataValue),\n                0xFFFFFFFF\n            )\n            mstore(mixOffset, fnvValue)\n\n            // ---- 5\n            dataOffset := add(dataOffset, 0x20)\n            dataValue := mload(dataOffset)\n            mixOffset := add(mixOffset, 0x20)\n            mixValue := mload(mixOffset)\n            fnvValue := and(\n                xor(mul(mixValue, 0x01000193), dataValue),\n                0xFFFFFFFF\n            )\n            mstore(mixOffset, fnvValue)\n\n            // ---- 6\n            dataOffset := add(dataOffset, 0x20)\n            dataValue := mload(dataOffset)\n            mixOffset := add(mixOffset, 0x20)\n            mixValue := mload(mixOffset)\n            fnvValue := and(\n                xor(mul(mixValue, 0x01000193), dataValue),\n                0xFFFFFFFF\n            )\n            mstore(mixOffset, fnvValue)\n\n            // ---- 7\n            dataOffset := add(dataOffset, 0x20)\n            dataValue := mload(dataOffset)\n            mixOffset := add(mixOffset, 0x20)\n            mixValue := mload(mixOffset)\n            fnvValue := and(\n                xor(mul(mixValue, 0x01000193), dataValue),\n                0xFFFFFFFF\n            )\n            mstore(mixOffset, fnvValue)\n\n            // ---- 1\n            dataOffset := add(dataOffset, 0x20)\n            dataValue := mload(dataOffset)\n            mixOffset := add(mixOffset, 0x20)\n            mixValue := mload(mixOffset)\n            fnvValue := and(\n                xor(mul(mixValue, 0x01000193), dataValue),\n                0xFFFFFFFF\n            )\n            mstore(mixOffset, fnvValue)\n\n            // ---- 1\n            dataOffset := add(dataOffset, 0x20)\n            dataValue := mload(dataOffset)\n            mixOffset := add(mixOffset, 0x20)\n            mixValue := mload(mixOffset)\n            fnvValue := and(\n                xor(mul(mixValue, 0x01000193), dataValue),\n                0xFFFFFFFF\n            )\n            mstore(mixOffset, fnvValue)\n\n            // ---- 1\n            dataOffset := add(dataOffset, 0x20)\n            dataValue := mload(dataOffset)\n            mixOffset := add(mixOffset, 0x20)\n            mixValue := mload(mixOffset)\n            fnvValue := and(\n                xor(mul(mixValue, 0x01000193), dataValue),\n                0xFFFFFFFF\n            )\n            mstore(mixOffset, fnvValue)\n\n            // ---- 1\n            dataOffset := add(dataOffset, 0x20)\n            dataValue := mload(dataOffset)\n            mixOffset := add(mixOffset, 0x20)\n            mixValue := mload(mixOffset)\n            fnvValue := and(\n                xor(mul(mixValue, 0x01000193), dataValue),\n                0xFFFFFFFF\n            )\n            mstore(mixOffset, fnvValue)\n\n            // ---- 1\n            dataOffset := add(dataOffset, 0x20)\n            dataValue := mload(dataOffset)\n            mixOffset := add(mixOffset, 0x20)\n            mixValue := mload(mixOffset)\n            fnvValue := and(\n                xor(mul(mixValue, 0x01000193), dataValue),\n                0xFFFFFFFF\n            )\n            mstore(mixOffset, fnvValue)\n\n            // ---- 1\n            dataOffset := add(dataOffset, 0x20)\n            dataValue := mload(dataOffset)\n            mixOffset := add(mixOffset, 0x20)\n            mixValue := mload(mixOffset)\n            fnvValue := and(\n                xor(mul(mixValue, 0x01000193), dataValue),\n                0xFFFFFFFF\n            )\n            mstore(mixOffset, fnvValue)\n\n            // ---- 1\n            dataOffset := add(dataOffset, 0x20)\n            dataValue := mload(dataOffset)\n            mixOffset := add(mixOffset, 0x20)\n            mixValue := mload(mixOffset)\n            fnvValue := and(\n                xor(mul(mixValue, 0x01000193), dataValue),\n                0xFFFFFFFF\n            )\n            mstore(mixOffset, fnvValue)\n\n            // ---- 1\n            dataOffset := add(dataOffset, 0x20)\n            dataValue := mload(dataOffset)\n            mixOffset := add(mixOffset, 0x20)\n            mixValue := mload(mixOffset)\n            fnvValue := and(\n                xor(mul(mixValue, 0x01000193), dataValue),\n                0xFFFFFFFF\n            )\n            mstore(mixOffset, fnvValue)\n\n            // ---- 1\n            dataOffset := add(dataOffset, 0x20)\n            dataValue := mload(dataOffset)\n            mixOffset := add(mixOffset, 0x20)\n            mixValue := mload(mixOffset)\n            fnvValue := and(\n                xor(mul(mixValue, 0x01000193), dataValue),\n                0xFFFFFFFF\n            )\n            mstore(mixOffset, fnvValue)\n\n            // ---- 2\n            dataOffset := add(dataOffset, 0x20)\n            dataValue := mload(dataOffset)\n            mixOffset := add(mixOffset, 0x20)\n            mixValue := mload(mixOffset)\n            fnvValue := and(\n                xor(mul(mixValue, 0x01000193), dataValue),\n                0xFFFFFFFF\n            )\n            mstore(mixOffset, fnvValue)\n\n            // ---- 3\n            dataOffset := add(dataOffset, 0x20)\n            dataValue := mload(dataOffset)\n            mixOffset := add(mixOffset, 0x20)\n            mixValue := mload(mixOffset)\n            fnvValue := and(\n                xor(mul(mixValue, 0x01000193), dataValue),\n                0xFFFFFFFF\n            )\n            mstore(mixOffset, fnvValue)\n\n            // ---- 4\n            dataOffset := add(dataOffset, 0x20)\n            dataValue := mload(dataOffset)\n            mixOffset := add(mixOffset, 0x20)\n            mixValue := mload(mixOffset)\n            fnvValue := and(\n                xor(mul(mixValue, 0x01000193), dataValue),\n                0xFFFFFFFF\n            )\n            mstore(mixOffset, fnvValue)\n\n            // ---- 5\n            dataOffset := add(dataOffset, 0x20)\n            dataValue := mload(dataOffset)\n            mixOffset := add(mixOffset, 0x20)\n            mixValue := mload(mixOffset)\n            fnvValue := and(\n                xor(mul(mixValue, 0x01000193), dataValue),\n                0xFFFFFFFF\n            )\n            mstore(mixOffset, fnvValue)\n\n            // ---- 6\n            dataOffset := add(dataOffset, 0x20)\n            dataValue := mload(dataOffset)\n            mixOffset := add(mixOffset, 0x20)\n            mixValue := mload(mixOffset)\n            fnvValue := and(\n                xor(mul(mixValue, 0x01000193), dataValue),\n                0xFFFFFFFF\n            )\n            mstore(mixOffset, fnvValue)\n\n            // ---- 7\n            dataOffset := add(dataOffset, 0x20)\n            dataValue := mload(dataOffset)\n            mixOffset := add(mixOffset, 0x20)\n            mixValue := mload(mixOffset)\n            fnvValue := and(\n                xor(mul(mixValue, 0x01000193), dataValue),\n                0xFFFFFFFF\n            )\n            mstore(mixOffset, fnvValue)\n\n            // ---- 1\n            dataOffset := add(dataOffset, 0x20)\n            dataValue := mload(dataOffset)\n            mixOffset := add(mixOffset, 0x20)\n            mixValue := mload(mixOffset)\n            fnvValue := and(\n                xor(mul(mixValue, 0x01000193), dataValue),\n                0xFFFFFFFF\n            )\n            mstore(mixOffset, fnvValue)\n\n            // ---- 1\n            dataOffset := add(dataOffset, 0x20)\n            dataValue := mload(dataOffset)\n            mixOffset := add(mixOffset, 0x20)\n            mixValue := mload(mixOffset)\n            fnvValue := and(\n                xor(mul(mixValue, 0x01000193), dataValue),\n                0xFFFFFFFF\n            )\n            mstore(mixOffset, fnvValue)\n\n            // ---- 1\n            dataOffset := add(dataOffset, 0x20)\n            dataValue := mload(dataOffset)\n            mixOffset := add(mixOffset, 0x20)\n            mixValue := mload(mixOffset)\n            fnvValue := and(\n                xor(mul(mixValue, 0x01000193), dataValue),\n                0xFFFFFFFF\n            )\n            mstore(mixOffset, fnvValue)\n\n            // ---- 1\n            dataOffset := add(dataOffset, 0x20)\n            dataValue := mload(dataOffset)\n            mixOffset := add(mixOffset, 0x20)\n            mixValue := mload(mixOffset)\n            fnvValue := and(\n                xor(mul(mixValue, 0x01000193), dataValue),\n                0xFFFFFFFF\n            )\n            mstore(mixOffset, fnvValue)\n\n            // ---- 1\n            dataOffset := add(dataOffset, 0x20)\n            dataValue := mload(dataOffset)\n            mixOffset := add(mixOffset, 0x20)\n            mixValue := mload(mixOffset)\n            fnvValue := and(\n                xor(mul(mixValue, 0x01000193), dataValue),\n                0xFFFFFFFF\n            )\n            mstore(mixOffset, fnvValue)\n\n            // ---- 1\n            dataOffset := add(dataOffset, 0x20)\n            dataValue := mload(dataOffset)\n            mixOffset := add(mixOffset, 0x20)\n            mixValue := mload(mixOffset)\n            fnvValue := and(\n                xor(mul(mixValue, 0x01000193), dataValue),\n                0xFFFFFFFF\n            )\n            mstore(mixOffset, fnvValue)\n\n            // ---- 1\n            dataOffset := add(dataOffset, 0x20)\n            dataValue := mload(dataOffset)\n            mixOffset := add(mixOffset, 0x20)\n            mixValue := mload(mixOffset)\n            fnvValue := and(\n                xor(mul(mixValue, 0x01000193), dataValue),\n                0xFFFFFFFF\n            )\n            mstore(mixOffset, fnvValue)\n\n            // ---- 1\n            dataOffset := add(dataOffset, 0x20)\n            dataValue := mload(dataOffset)\n            mixOffset := add(mixOffset, 0x20)\n            mixValue := mload(mixOffset)\n            fnvValue := and(\n                xor(mul(mixValue, 0x01000193), dataValue),\n                0xFFFFFFFF\n            )\n            mstore(mixOffset, fnvValue)\n            // ---- 1\n            dataOffset := add(dataOffset, 0x20)\n            dataValue := mload(dataOffset)\n            mixOffset := add(mixOffset, 0x20)\n            mixValue := mload(mixOffset)\n            fnvValue := and(\n                xor(mul(mixValue, 0x01000193), dataValue),\n                0xFFFFFFFF\n            )\n            mstore(mixOffset, fnvValue)\n        }\n    }\n\n    // hashimoto aggregates data from the full dataset in order to produce our final\n    // value for a particular header hash and nonce.\n    function hashimoto(\n        bytes32 hash,\n        uint64 nonce,\n        uint64 size,\n        bytes32[4][loopAccesses] memory cache,\n        bytes32 rootHash,\n        bytes32[][loopAccesses] memory proofs\n    ) private pure returns (bytes32, bytes32) {\n        // Calculate the number of theoretical rows (we use one buffer nonetheless)\n        uint32 rows = uint32(size / mixBytes);\n\n        // Combine header+nonce into a 64 byte seed\n        bytes memory seed = new bytes(40);\n        seed.copyBytes32(0, hash);\n        seed.PutUint64(32, nonce);\n\n        seed = seed.sha3_512();\n        uint32 seedHead = seed.Uint32(0);\n\n        // Start the mix with replicated seed\n        uint32[] memory mix = new uint32[](mixBytes / 4);\n        for (uint32 i = 0; i < mix.length; i++) {\n            mix[i] = seed.Uint32((i % 16) * 4);\n        }\n        // Mix in random dataset nodes\n        uint32[] memory temp = new uint32[](mix.length);\n\n        bytes32 root = rootHash;\n        for (uint32 i = 0; i < loopAccesses; i++) {\n            uint32 parent = fnv(i ^ seedHead, mix[i % mix.length]) % rows;\n            //bytes32[4] memory dag = cache[2*parent];\n            bytes32[4] memory dag = cache[i];\n            uint256 dagIndex = 2 * parent;\n            bytes32[] memory proof = proofs[i];\n            bytes32 leafHash = keccak256(abi.encodePacked(dagIndex, dag));\n            MerkleProof.verify(proof, root, leafHash);\n            for (uint32 j = 0; j < dag.length; j++) {\n                uint32 k = j * 8;\n                uint256 data = uint256(dag[j]);\n                temp[k] = LittleEndian.reverse(uint32(data >> (7 * 32)));\n                temp[k + 1] = LittleEndian.reverse(uint32(data >> (6 * 32)));\n                temp[k + 2] = LittleEndian.reverse(uint32(data >> (5 * 32)));\n                temp[k + 3] = LittleEndian.reverse(uint32(data >> (4 * 32)));\n                temp[k + 4] = LittleEndian.reverse(uint32(data >> (3 * 32)));\n                temp[k + 5] = LittleEndian.reverse(uint32(data >> (2 * 32)));\n                temp[k + 6] = LittleEndian.reverse(uint32(data >> (1 * 32)));\n                temp[k + 7] = LittleEndian.reverse(uint32(data >> (0 * 32)));\n            }\n            fnvHash32(mix, temp);\n        }\n\n        // Compress mix\n        for (uint32 i = 0; i < mix.length; i += 4) {\n            mix[i / 4] = fnv(\n                fnv(fnv(mix[i], mix[i + 1]), mix[i + 2]),\n                mix[i + 3]\n            );\n        }\n        //mix = mix[:len(mix)/4];\n        uint256 digest = 0;\n        for (uint32 i = 0; i < mix.length / 4; i++) {\n            //binary.LittleEndian.PutUint32(digest[i*4:], val)\n            digest <<= 32;\n            uint32 val = mix[i];\n            digest |= uint256(\n                ((val & 0xff) << 24) |\n                    (((val >> 8) & 0xff) << 16) |\n                    (((val >> 16) & 0xff) << 8) |\n                    (val >> 24)\n            );\n        }\n        return (bytes32(digest), keccak256(abi.encodePacked(seed, digest)));\n    }\n\n    function verifyEthash(\n        bytes32 hash,\n        uint64 nonce,\n        uint64 number,\n        bytes32[4][loopAccesses] memory cache,\n        bytes32[][loopAccesses] memory proofs,\n        uint256 difficulty,\n        uint256 mixHash\n    ) public pure returns (bool) {\n        uint256 epoch = number / EPOCH_LENGTH;\n        bytes32 rootHash = getRootHash(uint64(epoch));\n        uint256 size = getFullSize(epoch);\n        (bytes32 mix, bytes32 _diff) =\n            hashimoto(hash, nonce, uint64(size), cache, rootHash, proofs);\n        uint256 target = MAX256 / difficulty; // target = (2**256)/difficult;\n        target += ((MAX256 % difficulty) + 1) / difficulty;\n        return\n            mix == bytes32(mixHash) &&\n            difficulty > 1 &&\n            target > uint256(_diff);\n    }\n}\n",
  "sourcePath": "/Users/gupadhyaya/go/src/github.com/harmony-one/horizon/contracts/ethash/ethash.sol",
  "compiler": {
    "name": "solc",
    "version": "0.7.3+commit.9bfce1f6.Emscripten.clang"
  },
  "schemaVersion": "3.4.1",
  "updatedAt": "2021-07-21T20:39:02.243Z",
  "devdoc": {
    "kind": "dev",
    "methods": {},
    "version": 1
  },
  "userdoc": {
    "kind": "user",
    "methods": {},
    "version": 1
  }
}