{
  "contractName": "EthereumLightClient",
  "abi": [
    {
      "inputs": [
        {
          "internalType": "bytes",
          "name": "_rlpHeader",
          "type": "bytes"
        }
      ],
      "stateMutability": "nonpayable",
      "type": "constructor"
    },
    {
      "inputs": [
        {
          "internalType": "uint256",
          "name": "",
          "type": "uint256"
        }
      ],
      "name": "blockExisting",
      "outputs": [
        {
          "internalType": "bool",
          "name": "",
          "type": "bool"
        }
      ],
      "stateMutability": "view",
      "type": "function"
    },
    {
      "inputs": [],
      "name": "blockHeightMax",
      "outputs": [
        {
          "internalType": "uint256",
          "name": "",
          "type": "uint256"
        }
      ],
      "stateMutability": "view",
      "type": "function"
    },
    {
      "inputs": [
        {
          "internalType": "uint256",
          "name": "",
          "type": "uint256"
        }
      ],
      "name": "blocks",
      "outputs": [
        {
          "internalType": "uint256",
          "name": "parentHash",
          "type": "uint256"
        },
        {
          "internalType": "uint256",
          "name": "stateRoot",
          "type": "uint256"
        },
        {
          "internalType": "uint256",
          "name": "transactionsRoot",
          "type": "uint256"
        },
        {
          "internalType": "uint256",
          "name": "receiptsRoot",
          "type": "uint256"
        },
        {
          "internalType": "uint256",
          "name": "number",
          "type": "uint256"
        },
        {
          "internalType": "uint256",
          "name": "difficulty",
          "type": "uint256"
        },
        {
          "internalType": "uint256",
          "name": "time",
          "type": "uint256"
        },
        {
          "internalType": "uint256",
          "name": "hash",
          "type": "uint256"
        }
      ],
      "stateMutability": "view",
      "type": "function"
    },
    {
      "inputs": [
        {
          "internalType": "uint256",
          "name": "",
          "type": "uint256"
        },
        {
          "internalType": "uint256",
          "name": "",
          "type": "uint256"
        }
      ],
      "name": "blocksByHeight",
      "outputs": [
        {
          "internalType": "uint256",
          "name": "",
          "type": "uint256"
        }
      ],
      "stateMutability": "view",
      "type": "function"
    },
    {
      "inputs": [
        {
          "internalType": "uint256",
          "name": "",
          "type": "uint256"
        }
      ],
      "name": "blocksByHeightExisting",
      "outputs": [
        {
          "internalType": "bool",
          "name": "",
          "type": "bool"
        }
      ],
      "stateMutability": "view",
      "type": "function"
    },
    {
      "inputs": [],
      "name": "finalityConfirms",
      "outputs": [
        {
          "internalType": "uint256",
          "name": "",
          "type": "uint256"
        }
      ],
      "stateMutability": "view",
      "type": "function"
    },
    {
      "inputs": [
        {
          "internalType": "uint256",
          "name": "",
          "type": "uint256"
        }
      ],
      "name": "finalizedBlocks",
      "outputs": [
        {
          "internalType": "bool",
          "name": "",
          "type": "bool"
        }
      ],
      "stateMutability": "view",
      "type": "function"
    },
    {
      "inputs": [],
      "name": "firstBlock",
      "outputs": [
        {
          "internalType": "uint256",
          "name": "",
          "type": "uint256"
        }
      ],
      "stateMutability": "view",
      "type": "function"
    },
    {
      "inputs": [
        {
          "internalType": "uint256",
          "name": "",
          "type": "uint256"
        }
      ],
      "name": "longestBranchHead",
      "outputs": [
        {
          "internalType": "uint256",
          "name": "",
          "type": "uint256"
        }
      ],
      "stateMutability": "view",
      "type": "function"
    },
    {
      "inputs": [
        {
          "internalType": "uint256",
          "name": "",
          "type": "uint256"
        }
      ],
      "name": "verifiedBlocks",
      "outputs": [
        {
          "internalType": "bool",
          "name": "",
          "type": "bool"
        }
      ],
      "stateMutability": "view",
      "type": "function"
    },
    {
      "inputs": [
        {
          "internalType": "bytes32",
          "name": "hash",
          "type": "bytes32"
        },
        {
          "internalType": "uint64",
          "name": "nonce",
          "type": "uint64"
        },
        {
          "internalType": "uint64",
          "name": "number",
          "type": "uint64"
        },
        {
          "internalType": "bytes32[4][64]",
          "name": "cache",
          "type": "bytes32[4][64]"
        },
        {
          "internalType": "bytes32[][64]",
          "name": "proofs",
          "type": "bytes32[][64]"
        },
        {
          "internalType": "uint256",
          "name": "difficulty",
          "type": "uint256"
        },
        {
          "internalType": "uint256",
          "name": "mixHash",
          "type": "uint256"
        }
      ],
      "name": "verifyEthash",
      "outputs": [
        {
          "internalType": "bool",
          "name": "",
          "type": "bool"
        }
      ],
      "stateMutability": "pure",
      "type": "function"
    },
    {
      "inputs": [
        {
          "internalType": "bytes",
          "name": "_rlpHeader",
          "type": "bytes"
        },
        {
          "internalType": "bytes32[4][64]",
          "name": "cache",
          "type": "bytes32[4][64]"
        },
        {
          "internalType": "bytes32[][64]",
          "name": "proofs",
          "type": "bytes32[][64]"
        }
      ],
      "name": "addBlockHeader",
      "outputs": [
        {
          "internalType": "bool",
          "name": "",
          "type": "bool"
        }
      ],
      "stateMutability": "nonpayable",
      "type": "function"
    },
    {
      "inputs": [],
      "name": "getBlockHeightMax",
      "outputs": [
        {
          "internalType": "uint256",
          "name": "",
          "type": "uint256"
        }
      ],
      "stateMutability": "view",
      "type": "function"
    },
    {
      "inputs": [
        {
          "internalType": "bytes32",
          "name": "blockHash",
          "type": "bytes32"
        }
      ],
      "name": "getStateRoot",
      "outputs": [
        {
          "internalType": "bytes32",
          "name": "",
          "type": "bytes32"
        }
      ],
      "stateMutability": "view",
      "type": "function"
    },
    {
      "inputs": [
        {
          "internalType": "bytes32",
          "name": "blockHash",
          "type": "bytes32"
        }
      ],
      "name": "getTxRoot",
      "outputs": [
        {
          "internalType": "bytes32",
          "name": "",
          "type": "bytes32"
        }
      ],
      "stateMutability": "view",
      "type": "function"
    },
    {
      "inputs": [
        {
          "internalType": "bytes32",
          "name": "blockHash",
          "type": "bytes32"
        }
      ],
      "name": "getReceiptRoot",
      "outputs": [
        {
          "internalType": "bytes32",
          "name": "",
          "type": "bytes32"
        }
      ],
      "stateMutability": "view",
      "type": "function"
    },
    {
      "inputs": [
        {
          "internalType": "bytes32",
          "name": "blockHash",
          "type": "bytes32"
        },
        {
          "internalType": "bytes32",
          "name": "receiptsHash",
          "type": "bytes32"
        }
      ],
      "name": "VerifyReceiptsHash",
      "outputs": [
        {
          "internalType": "bool",
          "name": "",
          "type": "bool"
        }
      ],
      "stateMutability": "view",
      "type": "function"
    }
  ],
  "bytecode": "0x60806040523480156200001157600080fd5b506040516200305e3803806200305e833981016040819052620000349162000a2d565b600d60098190555060006200005482620000f760201b620006f61760201c565b9050620000606200092d565b62000076836200010460201b620007011760201c565b905062000082620009ac565b6040518061010001604052808360000151815260200183606001518152602001836080015181526020018360a00151815260200183610100015181526020018360e0015181526020018361016001518152602001848152509050620000ed816200048960201b60201c565b5050505062000aec565b805160208201205b919050565b6200010e6200092d565b62000118620009f1565b6200014362000132846200058060201b620009381760201c565b620005a760201b6200095d1760201c565b905060005b6200015e82620005fe60201b620009a71760201c565b156200048257806200019d576200019562000184836200062160201b620009c81760201c565b6200067660201b62000a161760201c565b835262000479565b8060011415620001cc57620001c162000184836200062160201b620009c81760201c565b602084015262000479565b8060021415620002155762000201620001f0836200062160201b620009c81760201c565b620006e160201b62000a761760201c565b6001600160a01b0316604084015262000479565b806003141562000244576200023962000184836200062160201b620009c81760201c565b606084015262000479565b806004141562000273576200026862000184836200062160201b620009c81760201c565b608084015262000479565b8060051415620002a2576200029762000184836200062160201b620009c81760201c565b60a084015262000479565b8060061415620002e257620002d7620002c6836200062160201b620009c81760201c565b6200070460201b62000a961760201c565b60c084015262000479565b806007141562000311576200030662000184836200062160201b620009c81760201c565b60e084015262000479565b806008141562000341576200033562000184836200062160201b620009c81760201c565b61010084015262000479565b806009141562000371576200036562000184836200062160201b620009c81760201c565b61012084015262000479565b80600a1415620003a1576200039562000184836200062160201b620009c81760201c565b61014084015262000479565b80600b1415620003d157620003c562000184836200062160201b620009c81760201c565b61016084015262000479565b80600c14156200040157620003f5620002c6836200062160201b620009c81760201c565b61018084015262000479565b80600d141562000431576200042562000184836200062160201b620009c81760201c565b6101a084015262000479565b80600e141562000461576200045562000184836200062160201b620009c81760201c565b6101c084015262000479565b62000477826200062160201b620009c81760201c565b505b60010162000148565b5050919050565b60e081018051600081815590815260016020818152604080842086518155828701518185015581870151600280830191909155606088015160038084019190915560808901805160048086019190915560a08b015160058087019190915560c0909b01516006808701919091558a5160079687018190558a52938752858920805460ff199081168a179091558a518a529287528589208054841689179055895189528652848820805483168817905580518852988552838720885181548089018355918952868920909101558851875290845282862080549091169094179093559451909155915180825260089092529190912055565b6200058a62000a13565b506040805180820190915281518152602082810190820152919050565b620005b1620009f1565b620005bc8262000793565b620005c657600080fd5b6000620005dd8360200151620007d160201b60201c565b60208085015160408051808201909152868152920190820152915050919050565b60006200060a62000a13565b505080518051602091820151919092015191011190565b6200062b62000a13565b6200063682620005fe565b6200064057600080fd5b6020820151600062000652826200083d565b80830160209586015260408051808201909152908152938401919091525090919050565b8051600090158015906200068c57508151602110155b6200069657600080fd5b6000620006ad8360200151620007d160201b60201c565b83516020808601518301805193945091849003929190831015620006d857826020036101000a820491505b50949350505050565b8051600090601514620006f357600080fd5b620006fe8262000676565b92915050565b80516060906200071357600080fd5b60006200072a8360200151620007d160201b60201c565b83519091508190036060816001600160401b03811180156200074b57600080fd5b506040519080825280601f01601f19166020018201604052801562000777576020820181803683370190505b50602086810151919250820190620006d89085018285620008de565b8051600090620007a657506000620000ff565b6020820151805160001a9060c0821015620007c757600092505050620000ff565b5060019392505050565b8051600090811a6080811015620007ed576000915050620000ff565b60b88110806200080a575060c081108015906200080a575060f881105b156200081b576001915050620000ff565b60c0811015620008315760b519019050620000ff565b60f519019050620000ff565b80516000908190811a60808110156200085a5760019150620008d7565b60b88110156200087157607e1981019150620008d7565b60c0811015620008a05760b78103600185019450806020036101000a85510460018201810193505050620008d7565b60f8811015620008b75760be1981019150620008d7565b60f78103600185019450806020036101000a855104600182018101935050505b5092915050565b80620008ea5762000928565b5b602081106200090c578251825260209283019290910190601f1901620008eb565b8251825160208390036101000a60001901801990921691161782525b505050565b604051806101e00160405280600081526020016000815260200160006001600160a01b031681526020016000815260200160008152602001600081526020016060815260200160008152602001600081526020016000815260200160008152602001600081526020016060815260200160008152602001600081525090565b60405180610100016040528060008152602001600081526020016000815260200160008152602001600081526020016000815260200160008152602001600081525090565b604051806040016040528062000a0662000a13565b8152602001600081525090565b604051806040016040528060008152602001600081525090565b6000602080838503121562000a40578182fd5b82516001600160401b038082111562000a57578384fd5b818501915085601f83011262000a6b578384fd5b81518181111562000a7857fe5b604051601f8201601f191681018501838111828210171562000a9657fe5b604052818152838201850188101562000aad578586fd5b8592505b8183101562000ad0578383018501518184018601529184019162000ab1565b8183111562000ae157858583830101525b979650505050505050565b6125628062000afc6000396000f3fe608060405234801561001057600080fd5b506004361061010b5760003560e01c8063a8b00a34116100a2578063c4dd6d0311610071578063c4dd6d0314610201578063d072e8d714610209578063d6bacb0e14610211578063dbad417c14610224578063f25b3f99146102375761010b565b8063a8b00a34146101b5578063ad562965146101c8578063b1d3e159146101db578063b9995536146101ee5761010b565b80633c6c6b73116100de5780633c6c6b731461016957806341e637491461017c578063486f164c1461018f57806392947cc0146101a25761010b565b80630c5a1d6014610110578063231b02681461012e57806329e141af146101365780632cb5837814610156575b600080fd5b61011861025e565b6040516101259190612200565b60405180910390f35b610118610264565b610149610144366004611fa1565b61026a565b60405161012591906121f5565b610118610164366004611f89565b610281565b610118610177366004612178565b61029a565b61014961018a366004611f89565b6102c8565b61014961019d3660046120c7565b6102dd565b6101186101b0366004611f89565b610594565b6101496101c3366004611f89565b6105a6565b6101186101d6366004611f89565b6105bb565b6101496101e9366004611f89565b6105d0565b6101496101fc366004611fc2565b6105e5565b610118610678565b61011861067e565b61011861021f366004611f89565b610684565b610149610232366004611f89565b610699565b61024a610245366004611f89565b6106ae565b604051610125989796959493929190612482565b60075490565b60005481565b600091825260016020526040909120600301541490565b600081815260016020819052604090912001545b919050565b600560205281600052604060002081815481106102b357fe5b90600052602060002001600091509150505481565b60026020526000908152604090205460ff1681565b6000806102e9856106f6565b60008181526002602052604090205490915060ff16156103245760405162461bcd60e51b815260040161031b90612282565b60405180910390fd5b61032c611cd5565b61033586610701565b805160009081526002602052604090205490915060ff166103685760405162461bcd60e51b815260040161031b90612432565b805160009081526001602081905260409091206004015461038891610b1a565b816101000151146103ab5760405162461bcd60e51b815260040161031b90612370565b8051600090815260016020526040902060060154610160820151116103e25760405162461bcd60e51b815260040161031b906123ed565b60e081015181516000908152600160205260409020600501546104059190610b46565b6104215760405162461bcd60e51b815260040161031b9061223c565b600061042c87610b63565b905060006104558260001b846101c001518561010001518a8a8860e00151896101a001516105e5565b9050806104745760405162461bcd60e51b815260040161031b906122cb565b61047c611d54565b506040805161010080820183528551825260608087015160208085019182526080808a015186880190815260a0808c0151958801958652958b01805192880192835260e0808d01519789019788526101608d015160c08a019081529089018e815260008f815260018088528c82208c51815598518982015594516002808a01919091559851600389015594516004880155975160058088019190915590516006808801919091559751600796870155958452888320805460ff1990811684179091558151845295845288832080548084018255908452848420018d9055805183529590925295909520805490921690941790559154915190911015610585576101008401516007555b50600198975050505050505050565b60086020526000908152604090205481565b60046020526000908152604090205460ff1681565b60009081526001602052604090206003015490565b60036020526000908152604090205460ff1681565b60006175306001600160401b03871604816105ff82610c17565b9050600061060c83610cad565b905060008061061f8d8d858d888e610d56565b915091506000886000198161063057fe5b04905088896000198161063f57fe5b066001018161064a57fe5b0401828814801561065b5750600189115b801561066657508181115b9e9d5050505050505050505050505050565b60095481565b60075481565b60009081526001602052604090206002015490565b60066020526000908152604090205460ff1681565b60016020528060005260406000206000915090508060000154908060010154908060020154908060030154908060040154908060050154908060060154908060070154905088565b805160209091012090565b610709611cd5565b610711611d99565b61072261071d84610938565b61095d565b905060005b610730826109a7565b1561093157806107525761074b610746836109c8565b610a16565b8352610929565b806001141561077157610767610746836109c8565b6020840152610929565b806002141561079e5761078b610786836109c8565b610a76565b6001600160a01b03166040840152610929565b80600314156107bd576107b3610746836109c8565b6060840152610929565b80600414156107dc576107d2610746836109c8565b6080840152610929565b80600514156107fb576107f1610746836109c8565b60a0840152610929565b806006141561081f57610815610810836109c8565b610a96565b60c0840152610929565b806007141561083e57610834610746836109c8565b60e0840152610929565b806008141561085e57610853610746836109c8565b610100840152610929565b806009141561087e57610873610746836109c8565b610120840152610929565b80600a141561089e57610893610746836109c8565b610140840152610929565b80600b14156108be576108b3610746836109c8565b610160840152610929565b80600c14156108de576108d3610810836109c8565b610180840152610929565b80600d14156108fe576108f3610746836109c8565b6101a0840152610929565b80600e141561091e57610913610746836109c8565b6101c0840152610929565b610927826109c8565b505b600101610727565b5050919050565b610940611db9565b506040805180820190915281518152602082810190820152919050565b610965611d99565b61096e8261136b565b61097757600080fd5b600061098683602001516113a5565b60208085015160408051808201909152868152920190820152915050919050565b60006109b1611db9565b505080518051602091820151919092015191011190565b6109d0611db9565b6109d9826109a7565b6109e257600080fd5b602082015160006109f282611408565b80830160209586015260408051808201909152908152938401919091525090919050565b805160009015801590610a2b57508151602110155b610a3457600080fd5b6000610a4383602001516113a5565b83516020808601518301805193945091849003929190831015610a6d57826020036101000a820491505b50949350505050565b8051600090601514610a8757600080fd5b610a9082610a16565b92915050565b8051606090610aa457600080fd5b6000610ab383602001516113a5565b83519091508190036060816001600160401b0381118015610ad357600080fd5b506040519080825280601f01601f191660200182016040528015610afe576020820181803683370190505b5090506000816020019050610a6d8487602001510182856114a1565b600082820183811015610b3f5760405162461bcd60e51b815260040161031b90612302565b9392505050565b6000610b598261271081046063026114ec565b9092101592915050565b60408051600d8082526101c0820190925260009160609190816020015b6060815260200190600190039081610b80579050509050610b9f611d99565b610bab61071d85610938565b905060005b610bb9826109a7565b8015610bc55750600d81105b15610bfa57610bdb610bd6836109c8565b611514565b838281518110610be757fe5b6020908102919091010152600101610bb0565b6060610c058461158b565b80516020909101209695505050505050565b6040805180820190915260208082527f58e6b093463d546aa98c4730e22904d16193f3dd9df36c468c27a58cb9b5a86e908201526000906101836001600160401b03841610801590610c7457506101836001600160401b03841611155b610c905760405162461bcd60e51b815260040161031b906123c0565b61018119929092016001600160401b031660200290910151919050565b6000633fffff80628000008302015b6040516319eef96560e21b815273__Prime_________________________________906367bbe59490610cf990608085049060029060040161218a565b60206040518083038186803b158015610d1157600080fd5b505af4158015610d25573d6000803e3d6000fd5b505050506040513d601f19601f82011682018060405250810190610d499190611f69565b610a905760ff1901610cbc565b6040805160288082526060828101909352600092839260806001600160401b038a160492602082018180368337019050509050610d958160008c6115ae565b610da18160208b6115b6565b6040516351cc9c2760e11b815273__Keccak512_____________________________9063a399384e90610dd8908490600401612209565b60006040518083038186803b158015610df057600080fd5b505af4158015610e04573d6000803e3d6000fd5b505050506040513d6000823e601f3d908101601f19168201604052610e2c9190810190612050565b90506000610e3a82826115dc565b6040805160208082526104208201909252919250606091908082016104008036833701905050905060005b81518163ffffffff161015610eb357610e8484600f83166004026115dc565b828263ffffffff1681518110610e9657fe5b63ffffffff90921660209283029190910190910152600101610e65565b50606081516001600160401b0381118015610ecd57600080fd5b50604051908082528060200260200182016040528015610ef7578160200160208202803683370190505b5090508860005b604063ffffffff821610156111f75760008763ffffffff16610f458784188788518663ffffffff1681610f2d57fe5b0681518110610f3857fe5b60200260200101516115f7565b63ffffffff1681610f5257fe5b069050610f5d611dd3565b8d8363ffffffff1660408110610f6f57fe5b6020020151905060008260020263ffffffff16905060608d8563ffffffff1660408110610f9857fe5b6020020151905060008284604051602001610fb49291906121ba565b604051602081830303815290604052805190602001209050610fd7828883611604565b5060005b60048163ffffffff1610156111db576008810260008663ffffffff84166004811061100257fe5b6020020151905061101660e082901c6116a1565b8b8363ffffffff168151811061102857fe5b602002602001019063ffffffff16908163ffffffff168152505061104f60c082901c6116a1565b8b8360010163ffffffff168151811061106457fe5b602002602001019063ffffffff16908163ffffffff168152505061108b60a082901c6116a1565b8b8360020163ffffffff16815181106110a057fe5b602002602001019063ffffffff16908163ffffffff16815250506110c7608082901c6116a1565b8b8360030163ffffffff16815181106110dc57fe5b602002602001019063ffffffff16908163ffffffff1681525050611103606082901c6116a1565b8b8360040163ffffffff168151811061111857fe5b602002602001019063ffffffff16908163ffffffff168152505061113f604082901c6116a1565b8b8360050163ffffffff168151811061115457fe5b63ffffffff9092166020928302919091018201526111749082901c6116a1565b8b8360060163ffffffff168151811061118957fe5b63ffffffff909216602092830291909101909101526111a7816116a1565b8b8360070163ffffffff16815181106111bc57fe5b63ffffffff909216602092830291909101909101525050600101610fdb565b506111e689896116e8565b505060019093019250610efe915050565b5060005b83518163ffffffff1610156112a45761126c611257611242868463ffffffff168151811061122557fe5b6020026020010151878560010163ffffffff1681518110610f3857fe5b868460020163ffffffff1681518110610f3857fe5b858360030163ffffffff1681518110610f3857fe5b84600463ffffffff84160463ffffffff168151811061128757fe5b63ffffffff909216602092830291909101909101526004016111fb565b506000805b60048551816112b457fe5b048163ffffffff16101561132957602082901b91506000858263ffffffff16815181106112dd57fe5b602090810291909101015163ffffffff601882811c60ff16600884811c61ff00169085901b62ff0000169490921b63ff00000016939093171791909117169290921791506001016112a9565b50604051819061133f9088908390602001612198565b604051602081830303815290604052805190602001209850985050505050505050965096945050505050565b805160009061137c57506000610295565b6020820151805160001a9060c082101561139b57600092505050610295565b5060019392505050565b8051600090811a60808110156113bf576000915050610295565b60b88110806113da575060c081108015906113da575060f881105b156113e9576001915050610295565b60c08110156113fd5760b519019050610295565b60f519019050610295565b80516000908190811a6080811015611423576001915061149a565b60b881101561143857607e198101915061149a565b60c08110156114655760b78103600185019450806020036101000a8551046001820181019350505061149a565b60f881101561147a5760be198101915061149a565b60f78103600185019450806020036101000a855104600182018101935050505b5092915050565b806114ab576114e7565b5b602081106114cb578251825260209283019290910190601f19016114ac565b8251825160208390036101000a60001901801990921691161782525b505050565b60008282111561150e5760405162461bcd60e51b815260040161031b90612339565b50900390565b60608082600001516001600160401b038111801561153157600080fd5b506040519080825280601f01601f19166020018201604052801561155c576020820181803683370190505b509050805160001415611570579050610295565b600081602001905061149a84602001518286600001516114a1565b60608061159783611991565b9050610b3f6115a8825160c0611a91565b82611bea565b910160200152565b6115c1838383611c67565b6114e7836004840163ffffffff602085901c811690611c6716565b818101600401516000906115ef816116a1565b949350505050565b6301000193919091021890565b600081815b855181101561169657600086828151811061162057fe5b6020026020010151905080831161166157828160405160200161164492919061218a565b60405160208183030381529060405280519060200120925061168d565b808360405160200161167492919061218a565b6040516020818303038152906040528051906020012092505b50600101611609565b509092149392505050565b600060188263ffffffff16901b63ff0000001660088363ffffffff16901b62ff00001660088463ffffffff16901c61ff001660188563ffffffff16901c1717179050919050565b602082810180519183015163010001939283021863ffffffff90811690915260408084015190850180518402909118821690526060808401519085018051840290911882169052608080840151908501805184029091188216905260a080840151908501805184029091188216905260c080840151908501805184029091188216905260e08084015190850180518402909118821690526101008084015190850180518402909118821690526101208084015190850180518402909118821690526101408084015190850180518402909118821690526101608084015190850180518402909118821690526101808084015190850180518402909118821690526101a08084015190850180518402909118821690526101c08084015190850180518402909118821690526101e08084015190850180518402909118821690526102008084015190850180518402909118821690526102208084015190850180518402909118821690526102408084015190850180518402909118821690526102608084015190850180518402909118821690526102808084015190850180518402909118821690526102a08084015190850180518402909118821690526102c08084015190850180518402909118821690526102e08084015190850180518402909118821690526103008084015190850180518402909118821690526103208084015190850180518402909118821690526103408084015190850180518402909118821690526103608084015190850180518402909118821690526103808084015190850180518402909118821690526103a08084015190850180518402909118821690526103c08084015190850180518402909118821690526103e0808401519085018051840290911882169052610400928301519290930180519091029091189091169052565b60608151600014156119b25750604080516000815260208101909152610295565b6000805b83518110156119e5578381815181106119cb57fe5b6020026020010151518201915080806001019150506119b6565b6060826001600160401b03811180156119fd57600080fd5b506040519080825280601f01601f191660200182016040528015611a28576020820181803683370190505b50600092509050602081015b8551831015610a6d576060868481518110611a4b57fe5b602002602001015190506000602082019050611a6983828451611c91565b878581518110611a7557fe5b6020026020010151518301925050508280600101935050611a34565b6060806038841015611aee5760408051600180825281830190925290602082018180368337019050509050838301601f1a60f81b81600081518110611ad257fe5b60200101906001600160f81b031916908160001a905350610b3f565b600060015b808681611afc57fe5b0415611b115760019091019061010002611af3565b816001016001600160401b0381118015611b2a57600080fd5b506040519080825280601f01601f191660200182016040528015611b55576020820181803683370190505b509250603782860101601f1a60f81b83600081518110611b7157fe5b60200101906001600160f81b031916908160001a905350600190505b818111611be0576101008183036101000a8781611ba657fe5b0481611bae57fe5b06601f1a60f81b838281518110611bc157fe5b60200101906001600160f81b031916908160001a905350600101611b8d565b5050905092915050565b6060806040519050835180825260208201818101602087015b81831015611c1b578051835260209283019201611c03565b50855184518101855292509050808201602086015b81831015611c48578051835260209283019201611c30565b508651929092011591909101601f01601f191660405250905092915050565b6020820183018181538160081c60018201538160101c60028201538160181c600382015350505050565b8282825b60208110611cb4578151835260209283019290910190601f1901611c95565b905182516020929092036101000a6000190180199091169116179052505050565b604051806101e00160405280600081526020016000815260200160006001600160a01b031681526020016000815260200160008152602001600081526020016060815260200160008152602001600081526020016000815260200160008152602001600081526020016060815260200160008152602001600081525090565b60405180610100016040528060008152602001600081526020016000815260200160008152602001600081526020016000815260200160008152602001600081525090565b6040518060400160405280611dac611db9565b8152602001600081525090565b604051806040016040528060008152602001600081525090565b60405180608001604052806004906020820280368337509192915050565b6000601f8381840112611e02578182fd5b611e0d6108006124b8565b915081838561200086011115611e2257600080fd5b60005b6040811015611e91578684830112611e3c57600080fd5b6080611e47816124b8565b9083019080848a841115611e5a57600080fd5b60005b6004811015611e7c578135845260209384019390910190600101611e5d565b50508552506020909301929150600101611e25565b5050505092915050565b6000601f8381840112611eac578182fd5b611eb76108006124b8565b9150818360005b6040811015611e9157813586018785820112611ed957600080fd5b80356001600160401b03811115611eec57fe5b6020808202611efc8282016124b8565b8381528281019085840183870185018e1015611f1757600080fd5b600096505b85871015611f3a578035835260019690960195918401918401611f1c565b50885250509485019493909301925050600101611ebe565b80356001600160401b038116811461029557600080fd5b600060208284031215611f7a578081fd5b81518015158114610b3f578182fd5b600060208284031215611f9a578081fd5b5035919050565b60008060408385031215611fb3578081fd5b50508035926020909101359150565b60008060008060008060006120c0888a031215611fdd578283fd5b87359650611fed60208901611f52565b9550611ffb60408901611f52565b945061200a8960608a01611df1565b93506120608801356001600160401b03811115612025578384fd5b6120318a828b01611e9b565b93505061208088013591506120a0880135905092959891949750929550565b600060208284031215612061578081fd5b81516001600160401b03811115612076578182fd5b8201601f81018413612086578182fd5b8051612099612094826124db565b6124b8565b8181528560208385010111156120ad578384fd5b6120be8260208301602086016124fc565b95945050505050565b600080600061204084860312156120dc578283fd5b83356001600160401b03808211156120f2578485fd5b818601915086601f830112612105578485fd5b8135612113612094826124db565b818152886020838601011115612127578687fd5b816020850160208301378660208383010152809650505061214b8760208801611df1565b9350612020860135915080821115612161578283fd5b5061216e86828701611e9b565b9150509250925092565b60008060408385031215611fb3578182fd5b918252602082015260400190565b600083516121aa8184602088016124fc565b9190910191825250602001919050565b6000838252602080830184835b60048110156121e4578151835291830191908301906001016121c7565b5050505060a0820190509392505050565b901515815260200190565b90815260200190565b60006020825282518060208401526122288160408501602087016124fc565b601f01601f19169190910160400192915050565b60208082526026908201527f52656c617920626c6f636b206661696c65643a20696e76616c696420646966666040820152656963756c747960d01b606082015260800190565b60208082526029908201527f52656c617920626c6f636b206661696c65643a20626c6f636b20616c726561646040820152681e481c995b185e595960ba1b606082015260800190565b6020808252601f908201527f52656c617920626c6f636b206661696c65643a20696e76616c696420506f5700604082015260600190565b6020808252601b908201527f536166654d6174683a206164646974696f6e206f766572666c6f770000000000604082015260600190565b6020808252601e908201527f536166654d6174683a207375627472616374696f6e206f766572666c6f770000604082015260600190565b60208082526030908201527f52656c617920626c6f636b206661696c65643a20696e76616c696420626c6f6360408201526f0d640c4d8dec6d690cad2ced0e89ac2f60831b606082015260800190565b60208082526013908201527265706f6368206f7574206f662072616e67652160681b604082015260600190565b60208082526025908201527f52656c617920626c6f636b206661696c65643a20696e76616c69642074696d6560408201526407374616d760dc1b606082015260800190565b60208082526030908201527f52656c617920626c6f636b206661696c65643a20706172656e7420626c6f636b60408201526f081b9bdd081c995b185e5959081e595d60821b606082015260800190565b978852602088019690965260408701949094526060860192909252608085015260a084015260c083015260e08201526101000190565b6040518181016001600160401b03811182821017156124d357fe5b604052919050565b60006001600160401b038211156124ee57fe5b50601f01601f191660200190565b60005b838110156125175781810151838201526020016124ff565b83811115612526576000848401525b5050505056fea2646970667358221220a4a8d05e13035a4f55a42f03c027a487cdc8ed47252a24f8a2735f4937117dfb64736f6c63430007030033",
  "immutableReferences": {},
  "source": "// SPDX-License-Identifier: UNLICENSED\npragma solidity ^0.7;\npragma experimental ABIEncoderV2;\n\nimport {SafeMath} from 'openzeppelin-solidity/contracts/math/SafeMath.sol';\n// import {BytesLib} from '@summa-tx/bitcoin-spv-sol/contracts/BytesLib.sol';\n// import {BTCUtils} from '@summa-tx/bitcoin-spv-sol/contracts/BTCUtils.sol';\n// import {ValidateSPV} from '@summa-tx/bitcoin-spv-sol/contracts/ValidateSPV.sol';\nimport './EthereumLightClientStorage.sol';\n\nimport \"./EthereumParser.sol\";\nimport \"./EthUtils.sol\";\nimport \"./ethash/ethash.sol\";\n\n/// @title Ethereum light client\ncontract EthereumLightClient is EthereumLightClientStorage, Ethash {\n    using SafeMath for uint256;\n    // using BytesLib for bytes;\n    // using BTCUtils for bytes;\n\n\n    struct HeaderInfo {\n       uint256 total_difficulty;\n       bytes32  parent_hash;\n       uint64  number;\n    }\n\n    // // NEAR rainbow\n    // /// Whether client validates the PoW when accepting the header. Should only be set to `false`\n    // /// for debugging, testing, diagnostic purposes when used with Ganache.\n    // bool validate_ethash;\n    // /// The epoch from which the DAG merkle roots start.\n    // uint64 dags_start_epoch;\n    // /// DAG merkle roots for the next several years.\n    // bytes32[] dags_merkle_roots;\n    // /// Hash of the header that has the highest cumulative difficulty. The current head of the\n    // /// canonical chain.\n    // bytes32 best_header_hash;\n    // /// We store the hashes of the blocks for the past `hashes_gc_threshold` headers.\n    // /// Events that happen past this threshold cannot be verified by the client.\n    // /// It is desirable that this number is larger than 7 days worth of headers, which is roughly\n    // /// 40k Ethereum blocks. So this number should be 40k in production.\n    // uint64 hashes_gc_threshold;\n    // /// We store full information about the headers for the past `finalized_gc_threshold` blocks.\n    // /// This is required to be able to adjust the canonical chain when the fork switch happens.\n    // /// The commonly used number is 500 blocks, so this number should be 500 in production.\n    // uint64 finalized_gc_threshold;\n    // /// Number of confirmations that applications can use to consider the transaction safe.\n    // /// For most use cases 25 should be enough, for super safe cases it should be 500.\n    // uint64 num_confirmations;\n    // /// Hashes of the canonical chain mapped to their numbers. Stores up to `hashes_gc_threshold`\n    // /// entries.\n    // /// header number -> header hash\n    // mapping(uint64 => bytes32) public canonical_header_hashes;\n    // /// All known header hashes. Stores up to `finalized_gc_threshold`.\n    // /// header number -> hashes of all headers with this number.\n    // mapping(uint64 => bytes32[]) public all_header_hashes;\n    // /// Known headers. Stores up to `finalized_gc_threshold`.\n    // mapping(uint => EthereumParser.BlockHeader) public headers;\n    // /// Minimal information about the headers, like cumulative difficulty. Stores up to\n    // /// `finalized_gc_threshold`.\n    // mapping(uint => HeaderInfo) public infos;\n\n\n    // constructor(\n    //     // bool _validate_ethash,\n    //     // uint64 _dags_start_epoch,\n    //     // bytes32[] memory _dags_merkle_roots,\n    //     // bytes32[] memory _first_header,\n    //     // uint64 _hashes_gc_threshold,\n    //     // uint64 _finalized_gc_threshold,\n    //     // uint64 _num_confirmations\n    // ) public {\n    //     // validate_ethash = _validate_ethash;\n    //     // dags_start_epoch = _dags_start_epoch;\n    //     // dags_merkle_roots = _dags_merkle_roots;\n    //     // first_header = _first_header;\n    //     // hashes_gc_threshold = _hashes_gc_threshold;\n    //     // finalized_gc_threshold = _finalized_gc_threshold;\n    //     // num_confirmations = _num_confirmations;\n    // }\n\n    uint constant private DEFAULT_FINALITY_CONFIRMS = 13;\n\n    uint public finalityConfirms;\n\n    constructor(bytes memory _rlpHeader) public {\n        finalityConfirms = DEFAULT_FINALITY_CONFIRMS;\n\n        uint blockHash = EthereumParser.calcBlockHeaderHash(_rlpHeader);\n        // Parse rlp-encoded block header into structure\n        EthereumParser.BlockHeader memory header = EthereumParser.parseBlockHeader(_rlpHeader);\n        // Save block header info\n        StoredBlockHeader memory storedBlock = StoredBlockHeader({\n            parentHash : header.parentHash,\n            stateRoot : header.stateRoot,\n            transactionsRoot : header.transactionsRoot,\n            receiptsRoot : header.receiptsRoot,\n            number : header.number,\n            difficulty : header.difficulty,\n            time : header.timestamp,\n            hash : blockHash\n            });\n        _setFirstBlock(storedBlock);\n    }\n\n\t//uint32 constant loopAccesses = 64;      // Number of accesses in hashimoto loop\n    function addBlockHeader(bytes memory _rlpHeader, bytes32[4][loopAccesses] memory cache, bytes32[][loopAccesses] memory proofs) public returns (bool) {\n        // Calculate block header hash\n        uint blockHash = EthereumParser.calcBlockHeaderHash(_rlpHeader);\n        // Check block existing\n        require(!blockExisting[blockHash], \"Relay block failed: block already relayed\");\n\n        // Parse rlp-encoded block header into structure\n        EthereumParser.BlockHeader memory header = EthereumParser.parseBlockHeader(_rlpHeader);\n\n        // Check the existence of parent block\n        require(blockExisting[header.parentHash], \"Relay block failed: parent block not relayed yet\");\n\n        // Check block height\n        require(header.number == blocks[header.parentHash].number.add(1), \"Relay block failed: invalid block blockHeightMax\");\n\n        // Check timestamp\n        require(header.timestamp > blocks[header.parentHash].time, \"Relay block failed: invalid timestamp\");\n\n        // Check difficulty\n        require(_checkDiffValidity(header.difficulty, blocks[header.parentHash].difficulty), \"Relay block failed: invalid difficulty\");\n\n        // Verify block PoW\n        uint sealHash = EthereumParser.calcBlockSealHash(_rlpHeader);\n        bool rVerified = verifyEthash(bytes32(sealHash), uint64(header.nonce), uint64(header.number), cache, proofs, header.difficulty, header.mixHash);\n        require(rVerified, \"Relay block failed: invalid PoW\");\n\n        // Save block header info\n        StoredBlockHeader memory storedBlock = StoredBlockHeader({\n            parentHash : header.parentHash,\n            stateRoot : header.stateRoot,\n            transactionsRoot : header.transactionsRoot,\n            receiptsRoot : header.receiptsRoot,\n            number : header.number,\n            difficulty : header.difficulty,\n            time : header.timestamp,\n            hash : blockHash\n            });\n\n        blocks[blockHash] = storedBlock;\n        blockExisting[blockHash] = true;\n        // verifiedBlocks[blockHash] = true;\n\n        blocksByHeight[header.number].push(blockHash);\n        blocksByHeightExisting[header.number] = true;\n\n        if (header.number > blockHeightMax) {\n            blockHeightMax = header.number;\n        }\n\n        return true;\n    }\n\n    function getBlockHeightMax() view public returns (uint256) {\n        return blockHeightMax;\n    }\n\n    function getStateRoot(bytes32 blockHash) view public returns (bytes32) {\n        return bytes32(blocks[uint(blockHash)].stateRoot);\n    }\n\n    function getTxRoot(bytes32 blockHash) view public returns (bytes32) {\n        return bytes32(blocks[uint(blockHash)].transactionsRoot);\n    }\n\n    function getReceiptRoot(bytes32 blockHash) view public returns (bytes32) {\n        return bytes32(blocks[uint(blockHash)].receiptsRoot);\n    }\n\n    function VerifyReceiptsHash(bytes32 blockHash, bytes32 receiptsHash) external view returns (bool) {\n        return bytes32(blocks[uint(blockHash)].receiptsRoot) == receiptsHash;\n    }\n\n    // Check the difficulty of block is valid or not\n    // (the block difficulty adjustment is described here: https://github.com/ethereum/EIPs/issues/100)\n    // Note that this is only 'minimal check' because we do not have 'block uncles' information to calculate exactly.\n    // 'Minimal check' is enough to prevent someone from spamming relaying blocks with quite small difficulties\n    function _checkDiffValidity(uint diff, uint parentDiff) private pure returns (bool){\n        return diff >= parentDiff.sub((parentDiff / 10000) * 99);\n    }\n\n    function _setFirstBlock(StoredBlockHeader memory toSetBlock) private {\n\n        firstBlock = toSetBlock.hash;\n\n        blocks[toSetBlock.hash] = toSetBlock;\n        blockExisting[toSetBlock.hash] = true;\n\n        verifiedBlocks[toSetBlock.hash] = true;\n        finalizedBlocks[toSetBlock.hash] = true;\n\n        blocksByHeight[toSetBlock.number].push(toSetBlock.hash);\n        blocksByHeightExisting[toSetBlock.number] = true;\n\n        blockHeightMax = toSetBlock.number;\n\n        longestBranchHead[toSetBlock.hash] = toSetBlock.hash;\n    }\n\n\n    // Set the first block\n    function _defineFirstBlock() internal pure returns (StoredBlockHeader memory)  {\n        // Hard code the first block is #6419330\n        StoredBlockHeader memory ret = StoredBlockHeader({\n            parentHash : 0x65d283e7a4ea14e86404c9ad855d59b4a49a9ae4602dd80857c130a8a57de12d,\n            stateRoot : 0x87c377f10bfda590c8e3bfa6a6cafeb9736a251439766196ac508cfcbc795a32,\n            transactionsRoot : 0xf4cdf600a8b159e94c49f974ea2da5f05516098fab03dd231469e63982a2ab6e,\n            receiptsRoot : 0xd8e77b10e522f5f2c1165c74baa0054fca5e90960cdf26b99892106f06f100f7,\n            number : 6419330,\n            difficulty : 2125760053,\n            time : 1568874993,\n            hash : 0xa73ab1a315660100b28ad2121ce7f9df8cd76d250048e5d0ff2f0f458573a1b8\n            });\n\n       return ret;\n    }\n\n}",
  "sourcePath": "/Users/gupadhyaya/go/src/github.com/harmony-one/horizon/contracts/EthereumLightClient.sol",
  "compiler": {
    "name": "solc",
    "version": "0.7.3+commit.9bfce1f6.Emscripten.clang"
  },
  "schemaVersion": "3.4.1",
  "updatedAt": "2021-07-21T20:39:02.125Z",
  "devdoc": {
    "kind": "dev",
    "methods": {},
    "title": "Ethereum light client",
    "version": 1
  },
  "userdoc": {
    "kind": "user",
    "methods": {},
    "version": 1
  }
}