{
  "contractName": "EthereumLightClientStorage",
  "abi": [
    {
      "inputs": [],
      "stateMutability": "nonpayable",
      "type": "constructor"
    },
    {
      "inputs": [
        {
          "internalType": "uint256",
          "name": "",
          "type": "uint256"
        }
      ],
      "name": "blockExisting",
      "outputs": [
        {
          "internalType": "bool",
          "name": "",
          "type": "bool"
        }
      ],
      "stateMutability": "view",
      "type": "function"
    },
    {
      "inputs": [],
      "name": "blockHeightMax",
      "outputs": [
        {
          "internalType": "uint256",
          "name": "",
          "type": "uint256"
        }
      ],
      "stateMutability": "view",
      "type": "function"
    },
    {
      "inputs": [
        {
          "internalType": "uint256",
          "name": "",
          "type": "uint256"
        }
      ],
      "name": "blocks",
      "outputs": [
        {
          "internalType": "uint256",
          "name": "parentHash",
          "type": "uint256"
        },
        {
          "internalType": "uint256",
          "name": "stateRoot",
          "type": "uint256"
        },
        {
          "internalType": "uint256",
          "name": "transactionsRoot",
          "type": "uint256"
        },
        {
          "internalType": "uint256",
          "name": "receiptsRoot",
          "type": "uint256"
        },
        {
          "internalType": "uint256",
          "name": "number",
          "type": "uint256"
        },
        {
          "internalType": "uint256",
          "name": "difficulty",
          "type": "uint256"
        },
        {
          "internalType": "uint256",
          "name": "time",
          "type": "uint256"
        },
        {
          "internalType": "uint256",
          "name": "hash",
          "type": "uint256"
        }
      ],
      "stateMutability": "view",
      "type": "function"
    },
    {
      "inputs": [
        {
          "internalType": "uint256",
          "name": "",
          "type": "uint256"
        },
        {
          "internalType": "uint256",
          "name": "",
          "type": "uint256"
        }
      ],
      "name": "blocksByHeight",
      "outputs": [
        {
          "internalType": "uint256",
          "name": "",
          "type": "uint256"
        }
      ],
      "stateMutability": "view",
      "type": "function"
    },
    {
      "inputs": [
        {
          "internalType": "uint256",
          "name": "",
          "type": "uint256"
        }
      ],
      "name": "blocksByHeightExisting",
      "outputs": [
        {
          "internalType": "bool",
          "name": "",
          "type": "bool"
        }
      ],
      "stateMutability": "view",
      "type": "function"
    },
    {
      "inputs": [
        {
          "internalType": "uint256",
          "name": "",
          "type": "uint256"
        }
      ],
      "name": "finalizedBlocks",
      "outputs": [
        {
          "internalType": "bool",
          "name": "",
          "type": "bool"
        }
      ],
      "stateMutability": "view",
      "type": "function"
    },
    {
      "inputs": [],
      "name": "firstBlock",
      "outputs": [
        {
          "internalType": "uint256",
          "name": "",
          "type": "uint256"
        }
      ],
      "stateMutability": "view",
      "type": "function"
    },
    {
      "inputs": [
        {
          "internalType": "uint256",
          "name": "",
          "type": "uint256"
        }
      ],
      "name": "longestBranchHead",
      "outputs": [
        {
          "internalType": "uint256",
          "name": "",
          "type": "uint256"
        }
      ],
      "stateMutability": "view",
      "type": "function"
    },
    {
      "inputs": [
        {
          "internalType": "uint256",
          "name": "",
          "type": "uint256"
        }
      ],
      "name": "verifiedBlocks",
      "outputs": [
        {
          "internalType": "bool",
          "name": "",
          "type": "bool"
        }
      ],
      "stateMutability": "view",
      "type": "function"
    }
  ],
  "bytecode": "0x608060405234801561001057600080fd5b506102fe806100206000396000f3fe608060405234801561001057600080fd5b50600436106100935760003560e01c8063a8b00a3411610066578063a8b00a3414610123578063b1d3e15914610140578063d072e8d71461015d578063dbad417c14610165578063f25b3f991461018257610093565b8063231b0268146100985780633c6c6b73146100b257806341e63749146100d557806392947cc014610106575b600080fd5b6100a06101e0565b60408051918252519081900360200190f35b6100a0600480360360408110156100c857600080fd5b50803590602001356101e6565b6100f2600480360360208110156100eb57600080fd5b5035610214565b604080519115158252519081900360200190f35b6100a06004803603602081101561011c57600080fd5b5035610229565b6100f26004803603602081101561013957600080fd5b503561023b565b6100f26004803603602081101561015657600080fd5b5035610250565b6100a0610265565b6100f26004803603602081101561017b57600080fd5b503561026b565b61019f6004803603602081101561019857600080fd5b5035610280565b604080519889526020890197909752878701959095526060870193909352608086019190915260a085015260c084015260e083015251908190036101000190f35b60005481565b600560205281600052604060002081815481106101ff57fe5b90600052602060002001600091509150505481565b60026020526000908152604090205460ff1681565b60086020526000908152604090205481565b60046020526000908152604090205460ff1681565b60036020526000908152604090205460ff1681565b60075481565b60066020526000908152604090205460ff1681565b6001602052806000526040600020600091509050806000015490806001015490806002015490806003015490806004015490806005015490806006015490806007015490508856fea26469706673582212206c86fa1f0cf2338e3528a47383beaee53f2c01da24f4221e65de0f6d4852167364736f6c63430007030033",
  "immutableReferences": {},
  "source": "// SPDX-License-Identifier: UNLICENSED\npragma solidity ^0.7;\n\n/**\n * The ClientStorage contract contains underlying data for EthNtyRelay contract\n */\n contract EthereumLightClientStorage {\n \tstruct StoredBlockHeader {\n \t\tuint parentHash;\n \t\tuint stateRoot;\n \t\tuint transactionsRoot;\n \t\tuint receiptsRoot;\n \t\tuint number;\n \t\tuint difficulty;\n \t\tuint time;\n \t\tuint hash;\n \t}\n\n \t// The first block header hash\n \tuint public firstBlock;\n\n    // Blocks data, in the form: blockHeaderHash => BlockHeader\n    mapping (uint => StoredBlockHeader) public blocks;\n    // Block existing map, in the form: blockHeaderHash => bool\n    mapping (uint => bool) public blockExisting;\n    // Blocks in 'Verified' state\n    mapping (uint => bool) public verifiedBlocks;\n    // Blocks in 'Finalized' state\n    mapping (uint => bool) public finalizedBlocks;\n\n    // Valid relayed blocks for a block height, in the form: blockNumber => blockHeaderHash[]\n    mapping (uint => uint[]) public blocksByHeight;\n    // Block height existing map, in the form: blockNumber => bool\n    mapping (uint => bool) public blocksByHeightExisting;\n\n    // Max block height stored\n    uint public blockHeightMax;\n\n \t// Block header hash that points to longest chain head\n \t// (please note that 'longest' chain is based on total difficulty)\n \t// uint public longestChainHead;\n\n\t // Longest branch head of each checkpoint, in the form: (checkpoint block hash) => (head block hash)\n\t // (note that 'longest branch' means the branch which has biggest cumulative difficulty from checkpoint)\n\t mapping(uint => uint) public longestBranchHead;\n\n \tconstructor() public {\n\n \t}\n }\n\n",
  "sourcePath": "/Users/gupadhyaya/go/src/github.com/harmony-one/horizon/contracts/EthereumLightClientStorage.sol",
  "compiler": {
    "name": "solc",
    "version": "0.7.3+commit.9bfce1f6.Emscripten.clang"
  },
  "schemaVersion": "3.4.1",
  "updatedAt": "2021-07-21T20:39:02.139Z",
  "devdoc": {
    "kind": "dev",
    "methods": {},
    "version": 1
  },
  "userdoc": {
    "kind": "user",
    "methods": {},
    "notice": "The ClientStorage contract contains underlying data for EthNtyRelay contract",
    "version": 1
  }
}