{
  "contractName": "HarmonyLightClient",
  "abi": [
    {
      "inputs": [
        {
          "internalType": "bytes",
          "name": "rlpHeader",
          "type": "bytes"
        }
      ],
      "stateMutability": "nonpayable",
      "type": "constructor"
    },
    {
      "inputs": [],
      "name": "blockHash",
      "outputs": [
        {
          "internalType": "uint256",
          "name": "",
          "type": "uint256"
        }
      ],
      "stateMutability": "view",
      "type": "function"
    },
    {
      "inputs": [],
      "name": "blockHash1",
      "outputs": [
        {
          "internalType": "bytes32",
          "name": "",
          "type": "bytes32"
        }
      ],
      "stateMutability": "view",
      "type": "function"
    },
    {
      "inputs": [
        {
          "internalType": "uint256",
          "name": "",
          "type": "uint256"
        }
      ],
      "name": "blocks",
      "outputs": [
        {
          "internalType": "uint256",
          "name": "parentHash",
          "type": "uint256"
        },
        {
          "internalType": "uint256",
          "name": "stateRoot",
          "type": "uint256"
        },
        {
          "internalType": "uint256",
          "name": "transactionsRoot",
          "type": "uint256"
        },
        {
          "internalType": "uint256",
          "name": "receiptsRoot",
          "type": "uint256"
        },
        {
          "internalType": "uint256",
          "name": "number",
          "type": "uint256"
        },
        {
          "internalType": "uint256",
          "name": "epoch",
          "type": "uint256"
        },
        {
          "internalType": "uint256",
          "name": "shard",
          "type": "uint256"
        },
        {
          "internalType": "uint256",
          "name": "time",
          "type": "uint256"
        },
        {
          "internalType": "uint256",
          "name": "hash",
          "type": "uint256"
        }
      ],
      "stateMutability": "view",
      "type": "function"
    },
    {
      "inputs": [],
      "name": "currentMMRTree",
      "outputs": [
        {
          "internalType": "contract MMRWrapper",
          "name": "",
          "type": "address"
        }
      ],
      "stateMutability": "view",
      "type": "function"
    },
    {
      "inputs": [
        {
          "internalType": "uint256",
          "name": "epoch",
          "type": "uint256"
        }
      ],
      "name": "finalizeEpoch",
      "outputs": [],
      "stateMutability": "nonpayable",
      "type": "function"
    },
    {
      "inputs": [],
      "name": "mmrRoot",
      "outputs": [
        {
          "internalType": "bytes",
          "name": "",
          "type": "bytes"
        }
      ],
      "stateMutability": "view",
      "type": "function"
    },
    {
      "inputs": [],
      "name": "sig",
      "outputs": [
        {
          "internalType": "bytes",
          "name": "",
          "type": "bytes"
        }
      ],
      "stateMutability": "view",
      "type": "function"
    },
    {
      "inputs": [],
      "name": "status",
      "outputs": [
        {
          "internalType": "bool",
          "name": "",
          "type": "bool"
        }
      ],
      "stateMutability": "view",
      "type": "function"
    },
    {
      "inputs": [
        {
          "internalType": "bytes",
          "name": "rlpHeader",
          "type": "bytes"
        },
        {
          "internalType": "bytes",
          "name": "commitSig",
          "type": "bytes"
        },
        {
          "internalType": "bytes",
          "name": "commitBitmap",
          "type": "bytes"
        },
        {
          "internalType": "bytes",
          "name": "blockHashes",
          "type": "bytes"
        }
      ],
      "name": "submitCheckpoint",
      "outputs": [
        {
          "internalType": "bool",
          "name": "status",
          "type": "bool"
        }
      ],
      "stateMutability": "nonpayable",
      "type": "function"
    },
    {
      "inputs": [
        {
          "internalType": "bytes",
          "name": "rlpHeader",
          "type": "bytes"
        },
        {
          "internalType": "bytes",
          "name": "keys",
          "type": "bytes"
        }
      ],
      "name": "addBlock",
      "outputs": [],
      "stateMutability": "nonpayable",
      "type": "function"
    },
    {
      "inputs": [
        {
          "internalType": "uint256",
          "name": "number",
          "type": "uint256"
        }
      ],
      "name": "getConfirmedBlockHash",
      "outputs": [
        {
          "internalType": "bytes32",
          "name": "hash",
          "type": "bytes32"
        }
      ],
      "stateMutability": "view",
      "type": "function"
    }
  ],
  "bytecode": "0x60806040523480156200001157600080fd5b50604051620035ee380380620035ee833981016040819052620000349162000b71565b604051620000429062000a43565b604051809103906000f0801580156200005f573d6000803e3d6000fd5b50600560006101000a8154816001600160a01b0302191690836001600160a01b0316021790555060006200009e82620000cb60201b620003d61760201c565b9050620000aa62000a51565b620000c083620000d860201b620003e11760201c565b905050505062000c30565b805160208201205b919050565b620000e262000a51565b620000ec62000b35565b6200011762000106846200069660201b620007891760201c565b620006bd60201b620007ae1760201c565b90506200012f816200071460201b620007f81760201c565b5062000146816200071460201b620007f81760201c565b506200016162000106826200071460201b620007f81760201c565b905060005b6200017c826200076960201b620008461760201c565b15620006845780620001be57620001b3620001a2836200071460201b620007f81760201c565b6200078c60201b620008671760201c565b60208401526200067b565b80600114156200020757620001f3620001e2836200071460201b620007f81760201c565b620007f760201b620008c71760201c565b6001600160a01b031660408401526200067b565b806002141562000236576200022b620001a2836200071460201b620007f81760201c565b60608401526200067b565b806003141562000265576200025a620001a2836200071460201b620007f81760201c565b60808401526200067b565b8060041415620002945762000289620001a2836200071460201b620007f81760201c565b60a08401526200067b565b8060051415620002c357620002b8620001a2836200071460201b620007f81760201c565b60c08401526200067b565b8060061415620002f257620002e7620001a2836200071460201b620007f81760201c565b60e08401526200067b565b806007141562000333576200032762000316836200071460201b620007f81760201c565b6200081a60201b620008e71760201c565b6101008401526200067b565b8060081415620003635762000357620001a2836200071460201b620007f81760201c565b6101208401526200067b565b8060091415620003935762000387620001a2836200071460201b620007f81760201c565b6101408401526200067b565b80600a1415620003c357620003b7620001a2836200071460201b620007f81760201c565b6101608401526200067b565b80600b1415620003f357620003e7620001a2836200071460201b620007f81760201c565b6101808401526200067b565b80600c141562000423576200041762000316836200071460201b620007f81760201c565b6101a08401526200067b565b80600d1415620004535762000447620001a2836200071460201b620007f81760201c565b6101c08401526200067b565b80600e1415620004835762000477620001a2836200071460201b620007f81760201c565b6101e08401526200067b565b80600f1415620004b357620004a7620001a2836200071460201b620007f81760201c565b6102008401526200067b565b8060101415620004e357620004d7620001a2836200071460201b620007f81760201c565b6102208401526200067b565b806011141562000513576200050762000316836200071460201b620007f81760201c565b6102408401526200067b565b806012141562000543576200053762000316836200071460201b620007f81760201c565b6102608401526200067b565b806013141562000573576200056762000316836200071460201b620007f81760201c565b6102808401526200067b565b8060141415620005a3576200059762000316836200071460201b620007f81760201c565b6102a08401526200067b565b8060151415620005d357620005c762000316836200071460201b620007f81760201c565b6102c08401526200067b565b80601614156200060357620005f762000316836200071460201b620007f81760201c565b6102e08401526200067b565b806017141562000633576200062762000316836200071460201b620007f81760201c565b6103008401526200067b565b806018141562000663576200065762000316836200071460201b620007f81760201c565b6103208401526200067b565b62000679826200071460201b620007f81760201c565b505b60010162000166565b50508151602090920191909120815290565b620006a062000b57565b506040805180820190915281518152602082810190820152919050565b620006c762000b35565b620006d282620008a9565b620006dc57600080fd5b6000620006f38360200151620008e760201b60201c565b60208085015160408051808201909152868152920190820152915050919050565b6200071e62000b57565b620007298262000769565b6200073357600080fd5b60208201516000620007458262000953565b80830160209586015260408051808201909152908152938401919091525090919050565b60006200077562000b57565b505080518051602091820151919092015191011190565b805160009015801590620007a257508151602110155b620007ac57600080fd5b6000620007c38360200151620008e760201b60201c565b83516020808601518301805193945091849003929190831015620007ee57826020036101000a820491505b50949350505050565b80516000906015146200080957600080fd5b62000814826200078c565b92915050565b80516060906200082957600080fd5b6000620008408360200151620008e760201b60201c565b83519091508190036060816001600160401b03811180156200086157600080fd5b506040519080825280601f01601f1916602001820160405280156200088d576020820181803683370190505b50602086810151919250820190620007ee9085018285620009f4565b8051600090620008bc57506000620000d3565b6020820151805160001a9060c0821015620008dd57600092505050620000d3565b5060019392505050565b8051600090811a608081101562000903576000915050620000d3565b60b881108062000920575060c0811080159062000920575060f881105b1562000931576001915050620000d3565b60c0811015620009475760b519019050620000d3565b60f519019050620000d3565b80516000908190811a6080811015620009705760019150620009ed565b60b88110156200098757607e1981019150620009ed565b60c0811015620009b65760b78103600185019450806020036101000a85510460018201810193505050620009ed565b60f8811015620009cd5760be1981019150620009ed565b60f78103600185019450806020036101000a855104600182018101935050505b5092915050565b8062000a005762000a3e565b5b6020811062000a22578251825260209283019290910190601f190162000a01565b8251825160208390036101000a60001901801990921691161782525b505050565b610d3c80620028b283390190565b604051806103400160405280600080191681526020016000801916815260200160006001600160a01b0316815260200160008019168152602001600080191681526020016000801916815260200160008019168152602001600080191681526020016060815260200160008152602001600081526020016000815260200160008152602001606081526020016000801916815260200160008152602001600081526020016000815260200160608152602001606081526020016060815260200160608152602001606081526020016060815260200160608152602001606081525090565b604051806040016040528062000b4a62000b57565b8152602001600081525090565b604051806040016040528060008152602001600081525090565b6000602080838503121562000b84578182fd5b82516001600160401b038082111562000b9b578384fd5b818501915085601f83011262000baf578384fd5b81518181111562000bbc57fe5b604051601f8201601f191681018501838111828210171562000bda57fe5b604052818152838201850188101562000bf1578586fd5b8592505b8183101562000c14578383018501518184018601529184019162000bf5565b8183111562000c2557858583830101525b979650505050505050565b611c728062000c406000396000f3fe608060405234801561001057600080fd5b50600436106100a85760003560e01c8063d21ddc6111610071578063d21ddc611461012a578063f22a195e14610132578063f25b3f991461013a578063f358de1214610162578063f975a83a14610175578063fc8119b81461017d576100a8565b8062a7029b146100ad578063200d2ed2146100cb57806321c2bc87146100e0578063986bce2c146100f5578063c6d90e2d1461010a575b600080fd5b6100b5610190565b6040516100c29190610e5a565b60405180910390f35b6100d361021e565b6040516100c29190610e46565b6100e8610227565b6040516100c29190610ead565b610108610103366004610e2e565b610236565b005b61011d610118366004610e2e565b6102b1565b6040516100c29190610e51565b6100b56102b9565b61011d610314565b61014d610148366004610e2e565b61031a565b6040516100c299989796959493929190610ec1565b610108610170366004610d25565b610368565b61011d6103c6565b6100d361018b366004610d86565b6103cc565b600a805460408051602060026001851615610100026000190190941693909304601f810184900484028201840190925281815292918301828280156102165780601f106101eb57610100808354040283529160200191610216565b820191906000526020600020905b8154815290600101906020018083116101f957829003601f168201915b505050505081565b60075460ff1681565b6005546001600160a01b031681565b6005546000828152600460205260409081902080546001600160a01b0319166001600160a01b03909316929092179091555161027190610aed565b604051809103906000f08015801561028d573d6000803e3d6000fd5b50600580546001600160a01b0319166001600160a01b039290921691909117905550565b60005b919050565b6006805460408051602060026001851615610100026000190190941693909304601f810184900484028201840190925281815292918301828280156102165780601f106101eb57610100808354040283529160200191610216565b60085481565b60016020528060005260406000206000915090508060000154908060010154908060020154908060030154908060040154908060050154908060060154908060070154908060080154905089565b610370610afa565b610379836103e1565b61032081015180519192506103949160069160200190610bde565b50825160208085018281206008559190912060095561024082015180516103bf92600a920190610bde565b505b505050565b60095481565b6000949350505050565b805160209091012090565b6103e9610afa565b6103f1610c5c565b6104026103fd84610789565b6107ae565b905061040d816107f8565b50610417816107f8565b506104246103fd826107f8565b905060005b61043282610846565b1561077757806104575761044d610448836107f8565b610867565b602084015261076f565b80600114156104845761047161046c836107f8565b6108c7565b6001600160a01b0316604084015261076f565b80600214156104a357610499610448836107f8565b606084015261076f565b80600314156104c2576104b8610448836107f8565b608084015261076f565b80600414156104e1576104d7610448836107f8565b60a084015261076f565b8060051415610500576104f6610448836107f8565b60c084015261076f565b806006141561051f57610515610448836107f8565b60e084015261076f565b806007141561054457610539610534836107f8565b6108e7565b61010084015261076f565b806008141561056457610559610448836107f8565b61012084015261076f565b806009141561058457610579610448836107f8565b61014084015261076f565b80600a14156105a457610599610448836107f8565b61016084015261076f565b80600b14156105c4576105b9610448836107f8565b61018084015261076f565b80600c14156105e4576105d9610534836107f8565b6101a084015261076f565b80600d1415610604576105f9610448836107f8565b6101c084015261076f565b80600e141561062457610619610448836107f8565b6101e084015261076f565b80600f141561064457610639610448836107f8565b61020084015261076f565b806010141561066457610659610448836107f8565b61022084015261076f565b806011141561068457610679610534836107f8565b61024084015261076f565b80601214156106a457610699610534836107f8565b61026084015261076f565b80601314156106c4576106b9610534836107f8565b61028084015261076f565b80601414156106e4576106d9610534836107f8565b6102a084015261076f565b8060151415610704576106f9610534836107f8565b6102c084015261076f565b806016141561072457610719610534836107f8565b6102e084015261076f565b806017141561074457610739610534836107f8565b61030084015261076f565b806018141561076457610759610534836107f8565b61032084015261076f565b61076d826107f8565b505b600101610429565b50508151602090920191909120815290565b610791610c7c565b506040805180820190915281518152602082810190820152919050565b6107b6610c5c565b6107bf8261096c565b6107c857600080fd5b60006107d783602001516109a6565b60208085015160408051808201909152868152920190820152915050919050565b610800610c7c565b61080982610846565b61081257600080fd5b6020820151600061082282610a09565b80830160209586015260408051808201909152908152938401919091525090919050565b6000610850610c7c565b505080518051602091820151919092015191011190565b80516000901580159061087c57508151602110155b61088557600080fd5b600061089483602001516109a6565b835160208086015183018051939450918490039291908310156108be57826020036101000a820491505b50949350505050565b80516000906015146108d857600080fd5b6108e182610867565b92915050565b80516060906108f557600080fd5b600061090483602001516109a6565b835190915081900360608167ffffffffffffffff8111801561092557600080fd5b506040519080825280601f01601f191660200182016040528015610950576020820181803683370190505b50905060008160200190506108be848760200151018285610aa2565b805160009061097d575060006102b4565b6020820151805160001a9060c082101561099c576000925050506102b4565b5060019392505050565b8051600090811a60808110156109c05760009150506102b4565b60b88110806109db575060c081108015906109db575060f881105b156109ea5760019150506102b4565b60c08110156109fe5760b5190190506102b4565b60f5190190506102b4565b80516000908190811a6080811015610a245760019150610a9b565b60b8811015610a3957607e1981019150610a9b565b60c0811015610a665760b78103600185019450806020036101000a85510460018201810193505050610a9b565b60f8811015610a7b5760be1981019150610a9b565b60f78103600185019450806020036101000a855104600182018101935050505b5092915050565b80610aac576103c1565b5b60208110610acc578251825260209283019290910190601f1901610aad565b915181516020939093036101000a6000190180199091169216919091179052565b610d3c80610f0183390190565b604051806103400160405280600080191681526020016000801916815260200160006001600160a01b0316815260200160008019168152602001600080191681526020016000801916815260200160008019168152602001600080191681526020016060815260200160008152602001600081526020016000815260200160008152602001606081526020016000801916815260200160008152602001600081526020016000815260200160608152602001606081526020016060815260200160608152602001606081526020016060815260200160608152602001606081525090565b828054600181600116156101000203166002900490600052602060002090601f016020900481019282601f10610c1f57805160ff1916838001178555610c4c565b82800160010185558215610c4c579182015b82811115610c4c578251825591602001919060010190610c31565b50610c58929150610c96565b5090565b6040518060400160405280610c6f610c7c565b8152602001600081525090565b604051806040016040528060008152602001600081525090565b5b80821115610c585760008155600101610c97565b600082601f830112610cbb578081fd5b813567ffffffffffffffff80821115610cd057fe5b604051601f8301601f191681016020018281118282101715610cee57fe5b604052828152925082848301602001861015610d0957600080fd5b8260208601602083013760006020848301015250505092915050565b60008060408385031215610d37578182fd5b823567ffffffffffffffff80821115610d4e578384fd5b610d5a86838701610cab565b93506020850135915080821115610d6f578283fd5b50610d7c85828601610cab565b9150509250929050565b60008060008060808587031215610d9b578182fd5b843567ffffffffffffffff80821115610db2578384fd5b610dbe88838901610cab565b95506020870135915080821115610dd3578384fd5b610ddf88838901610cab565b94506040870135915080821115610df4578384fd5b610e0088838901610cab565b93506060870135915080821115610e15578283fd5b50610e2287828801610cab565b91505092959194509250565b600060208284031215610e3f578081fd5b5035919050565b901515815260200190565b90815260200190565b6000602080835283518082850152825b81811015610e8657858101830151858201604001528201610e6a565b81811115610e975783604083870101525b50601f01601f1916929092016040019392505050565b6001600160a01b0391909116815260200190565b988952602089019790975260408801959095526060870193909352608086019190915260a085015260c084015260e0830152610100820152610120019056fe608060405234801561001057600080fd5b50610d1c806100206000396000f3fe608060405234801561001057600080fd5b50600436106100885760003560e01c8063c26fe0041161005b578063c26fe0041461020e578063c41dd397146102b1578063c5d9293114610375578063de8fa4311461039257610088565b80631963f2b31461008d5780632afcbdaa146101335780635ca1e165146101d75780636b2fafa9146101f1575b600080fd5b610131600480360360208110156100a357600080fd5b810190602081018135600160201b8111156100bd57600080fd5b8201836020820111156100cf57600080fd5b803590602001918460018302840111600160201b831117156100f057600080fd5b91908080601f01602080910402602001604051908101604052809392919081815260200183838082843760009201919091525092955061039a945050505050565b005b6101316004803603602081101561014957600080fd5b810190602081018135600160201b81111561016357600080fd5b82018360208201111561017557600080fd5b803590602001918460018302840111600160201b8311171561019657600080fd5b91908080601f01602080910402602001604051908101604052809392919081815260200183838082843760009201919091525092955061046e945050505050565b6101df61053c565b60408051918252519081900360200190f35b6101df6004803603602081101561020757600080fd5b50356105c0565b6101316004803603604081101561022457600080fd5b810190602081018135600160201b81111561023e57600080fd5b82018360208201111561025057600080fd5b803590602001918460208302840111600160201b8311171561027157600080fd5b919080806020026020016040519081016040528093929190818152602001838360200280828437600092019190915250929550509135925061064f915050565b6102ce600480360360208110156102c757600080fd5b5035610760565b604051808581526020018481526020018060200180602001838103835285818151815260200191508051906020019060200280838360005b8381101561031e578181015183820152602001610306565b50505050905001838103825284818151815260200191508051906020019060200280838360005b8381101561035d578181015183820152602001610345565b50505050905001965050505050505060405180910390f35b6101316004803603602081101561038b57600080fd5b5035610927565b6101df61097e565b60408051637319a76f60e11b81526000600482018181526024830193845284516044840152845173__MMR___________________________________9463e6334ede948793926064909101906020850190808383895b838110156104085781810151838201526020016103f0565b50505050905090810190601f1680156104355780820380516001836020036101000a031916815260200191505b50935050505060006040518083038186803b15801561045357600080fd5b505af4158015610467573d6000803e3d6000fd5b5050505050565b610476610ccc565b61047f826109d1565b9050606061048c826109f6565b905060005b815181101561053657600073__MMR___________________________________635970e6ac90916104d48585815181106104c757fe5b6020026020010151610ade565b60001b6040518363ffffffff1660e01b8152600401808381526020018281526020019250505060006040518083038186803b15801561051257600080fd5b505af4158015610526573d6000803e3d6000fd5b5050600190920191506104919050565b50505050565b60008073__MMR___________________________________63c522e7bc90916040518263ffffffff1660e01b81526004018082815260200191505060206040518083038186803b15801561058f57600080fd5b505af41580156105a3573d6000803e3d6000fd5b505050506040513d60208110156105b957600080fd5b5051905090565b60408051633170273160e01b815260006004820181905260248201849052915173__MMR___________________________________916331702731916044808301926020929190829003018186803b15801561061b57600080fd5b505af415801561062f573d6000803e3d6000fd5b505050506040513d602081101561064557600080fd5b505190505b919050565b60005b82518110156106ec57600073__MMR___________________________________635970e6ac909185848151811061068557fe5b60200260200101516040518363ffffffff1660e01b8152600401808381526020018281526020019250505060006040518083038186803b1580156106c857600080fd5b505af41580156106dc573d6000803e3d6000fd5b5050600190920191506106529050565b5060408051637a87c5bd60e01b815260006004820181905260248201849052915173__MMR___________________________________92637a87c5bd9260448082019391829003018186803b15801561074457600080fd5b505af4158015610758573d6000803e3d6000fd5b505050505050565b600080606080600073__MMR___________________________________63da556f929091876040518363ffffffff1660e01b8152600401808381526020018281526020019250505060006040518083038186803b1580156107c057600080fd5b505af41580156107d4573d6000803e3d6000fd5b505050506040513d6000823e601f3d908101601f1916820160405260808110156107fd57600080fd5b81516020830151604080850180519151939592948301929184600160201b82111561082757600080fd5b90830190602082018581111561083c57600080fd5b82518660208202830111600160201b8211171561085857600080fd5b82525081516020918201928201910280838360005b8381101561088557818101518382015260200161086d565b5050505090500160405260200180516040519392919084600160201b8211156108ad57600080fd5b9083019060208201858111156108c257600080fd5b82518660208202830111600160201b821117156108de57600080fd5b82525081516020918201928201910280838360005b8381101561090b5781810151838201526020016108f3565b5050505090500160405250505093509350935093509193509193565b6040805163858aaa6160e01b815260006004820181905260248201849052915173__MMR___________________________________9263858aaa619260448082019391829003018186803b15801561045357600080fd5b60008073__MMR___________________________________6324c1443990916040518263ffffffff1660e01b81526004018082815260200191505060206040518083038186803b15801561058f57600080fd5b6109d9610ccc565b506040805180820190915281518152602082810190820152919050565b6060610a0182610b3e565b610a0a57600080fd5b6000610a1583610b78565b905060608167ffffffffffffffff81118015610a3057600080fd5b50604051908082528060200260200182016040528015610a6a57816020015b610a57610ccc565b815260200190600190039081610a4f5790505b5090506000610a7c8560200151610bd0565b60208601510190506000805b84811015610ad357610a9983610c33565b9150604051806040016040528083815260200184815250848281518110610abc57fe5b602090810291909101015291810191600101610a88565b509195945050505050565b805160009015801590610af357508151602110155b610afc57600080fd5b6000610b0b8360200151610bd0565b83516020808601518301805193945091849003929190831015610b3557826020036101000a820491505b50949350505050565b8051600090610b4f5750600061064a565b6020820151805160001a9060c0821015610b6e5760009250505061064a565b5060019392505050565b8051600090610b895750600061064a565b600080610b998460200151610bd0565b602085015185519181019250015b80821015610bc757610bb882610c33565b60019093019290910190610ba7565b50909392505050565b8051600090811a6080811015610bea57600091505061064a565b60b8811080610c05575060c08110801590610c05575060f881105b15610c1457600191505061064a565b60c0811015610c285760b51901905061064a565b60f51901905061064a565b80516000908190811a6080811015610c4e5760019150610cc5565b60b8811015610c6357607e1981019150610cc5565b60c0811015610c905760b78103600185019450806020036101000a85510460018201810193505050610cc5565b60f8811015610ca55760be1981019150610cc5565b60f78103600185019450806020036101000a855104600182018101935050505b5092915050565b60405180604001604052806000815260200160008152509056fea26469706673582212207e9063dd12ebd2820d92b6030583f69ff3756280f70f8bce2382761724f03a0664736f6c63430007030033a26469706673582212204afe6e16b57518162a8a049e5f1d13f8b71f3b1224e635b6eacc7000da9214e364736f6c63430007030033608060405234801561001057600080fd5b50610d1c806100206000396000f3fe608060405234801561001057600080fd5b50600436106100885760003560e01c8063c26fe0041161005b578063c26fe0041461020e578063c41dd397146102b1578063c5d9293114610375578063de8fa4311461039257610088565b80631963f2b31461008d5780632afcbdaa146101335780635ca1e165146101d75780636b2fafa9146101f1575b600080fd5b610131600480360360208110156100a357600080fd5b810190602081018135600160201b8111156100bd57600080fd5b8201836020820111156100cf57600080fd5b803590602001918460018302840111600160201b831117156100f057600080fd5b91908080601f01602080910402602001604051908101604052809392919081815260200183838082843760009201919091525092955061039a945050505050565b005b6101316004803603602081101561014957600080fd5b810190602081018135600160201b81111561016357600080fd5b82018360208201111561017557600080fd5b803590602001918460018302840111600160201b8311171561019657600080fd5b91908080601f01602080910402602001604051908101604052809392919081815260200183838082843760009201919091525092955061046e945050505050565b6101df61053c565b60408051918252519081900360200190f35b6101df6004803603602081101561020757600080fd5b50356105c0565b6101316004803603604081101561022457600080fd5b810190602081018135600160201b81111561023e57600080fd5b82018360208201111561025057600080fd5b803590602001918460208302840111600160201b8311171561027157600080fd5b919080806020026020016040519081016040528093929190818152602001838360200280828437600092019190915250929550509135925061064f915050565b6102ce600480360360208110156102c757600080fd5b5035610760565b604051808581526020018481526020018060200180602001838103835285818151815260200191508051906020019060200280838360005b8381101561031e578181015183820152602001610306565b50505050905001838103825284818151815260200191508051906020019060200280838360005b8381101561035d578181015183820152602001610345565b50505050905001965050505050505060405180910390f35b6101316004803603602081101561038b57600080fd5b5035610927565b6101df61097e565b60408051637319a76f60e11b81526000600482018181526024830193845284516044840152845173__MMR___________________________________9463e6334ede948793926064909101906020850190808383895b838110156104085781810151838201526020016103f0565b50505050905090810190601f1680156104355780820380516001836020036101000a031916815260200191505b50935050505060006040518083038186803b15801561045357600080fd5b505af4158015610467573d6000803e3d6000fd5b5050505050565b610476610ccc565b61047f826109d1565b9050606061048c826109f6565b905060005b815181101561053657600073__MMR___________________________________635970e6ac90916104d48585815181106104c757fe5b6020026020010151610ade565b60001b6040518363ffffffff1660e01b8152600401808381526020018281526020019250505060006040518083038186803b15801561051257600080fd5b505af4158015610526573d6000803e3d6000fd5b5050600190920191506104919050565b50505050565b60008073__MMR___________________________________63c522e7bc90916040518263ffffffff1660e01b81526004018082815260200191505060206040518083038186803b15801561058f57600080fd5b505af41580156105a3573d6000803e3d6000fd5b505050506040513d60208110156105b957600080fd5b5051905090565b60408051633170273160e01b815260006004820181905260248201849052915173__MMR___________________________________916331702731916044808301926020929190829003018186803b15801561061b57600080fd5b505af415801561062f573d6000803e3d6000fd5b505050506040513d602081101561064557600080fd5b505190505b919050565b60005b82518110156106ec57600073__MMR___________________________________635970e6ac909185848151811061068557fe5b60200260200101516040518363ffffffff1660e01b8152600401808381526020018281526020019250505060006040518083038186803b1580156106c857600080fd5b505af41580156106dc573d6000803e3d6000fd5b5050600190920191506106529050565b5060408051637a87c5bd60e01b815260006004820181905260248201849052915173__MMR___________________________________92637a87c5bd9260448082019391829003018186803b15801561074457600080fd5b505af4158015610758573d6000803e3d6000fd5b505050505050565b600080606080600073__MMR___________________________________63da556f929091876040518363ffffffff1660e01b8152600401808381526020018281526020019250505060006040518083038186803b1580156107c057600080fd5b505af41580156107d4573d6000803e3d6000fd5b505050506040513d6000823e601f3d908101601f1916820160405260808110156107fd57600080fd5b81516020830151604080850180519151939592948301929184600160201b82111561082757600080fd5b90830190602082018581111561083c57600080fd5b82518660208202830111600160201b8211171561085857600080fd5b82525081516020918201928201910280838360005b8381101561088557818101518382015260200161086d565b5050505090500160405260200180516040519392919084600160201b8211156108ad57600080fd5b9083019060208201858111156108c257600080fd5b82518660208202830111600160201b821117156108de57600080fd5b82525081516020918201928201910280838360005b8381101561090b5781810151838201526020016108f3565b5050505090500160405250505093509350935093509193509193565b6040805163858aaa6160e01b815260006004820181905260248201849052915173__MMR___________________________________9263858aaa619260448082019391829003018186803b15801561045357600080fd5b60008073__MMR___________________________________6324c1443990916040518263ffffffff1660e01b81526004018082815260200191505060206040518083038186803b15801561058f57600080fd5b6109d9610ccc565b506040805180820190915281518152602082810190820152919050565b6060610a0182610b3e565b610a0a57600080fd5b6000610a1583610b78565b905060608167ffffffffffffffff81118015610a3057600080fd5b50604051908082528060200260200182016040528015610a6a57816020015b610a57610ccc565b815260200190600190039081610a4f5790505b5090506000610a7c8560200151610bd0565b60208601510190506000805b84811015610ad357610a9983610c33565b9150604051806040016040528083815260200184815250848281518110610abc57fe5b602090810291909101015291810191600101610a88565b509195945050505050565b805160009015801590610af357508151602110155b610afc57600080fd5b6000610b0b8360200151610bd0565b83516020808601518301805193945091849003929190831015610b3557826020036101000a820491505b50949350505050565b8051600090610b4f5750600061064a565b6020820151805160001a9060c0821015610b6e5760009250505061064a565b5060019392505050565b8051600090610b895750600061064a565b600080610b998460200151610bd0565b602085015185519181019250015b80821015610bc757610bb882610c33565b60019093019290910190610ba7565b50909392505050565b8051600090811a6080811015610bea57600091505061064a565b60b8811080610c05575060c08110801590610c05575060f881105b15610c1457600191505061064a565b60c0811015610c285760b51901905061064a565b60f51901905061064a565b80516000908190811a6080811015610c4e5760019150610cc5565b60b8811015610c6357607e1981019150610cc5565b60c0811015610c905760b78103600185019450806020036101000a85510460018201810193505050610cc5565b60f8811015610ca55760be1981019150610cc5565b60f78103600185019450806020036101000a855104600182018101935050505b5092915050565b60405180604001604052806000815260200160008152509056fea26469706673582212207e9063dd12ebd2820d92b6030583f69ff3756280f70f8bce2382761724f03a0664736f6c63430007030033",
  "immutableReferences": {},
  "source": "// SPDX-License-Identifier: UNLICENSED\npragma solidity ^0.7;\npragma experimental ABIEncoderV2;\n\nimport \"./HarmonyParser.sol\";\nimport \"./HarmonyLightClientStorage.sol\";\nimport {SafeMath} from \"openzeppelin-solidity/contracts/math/SafeMath.sol\";\n\ninterface IHarmonyLightClient {\n    // function blockHashes(uint64 blockNumber) external view returns (bytes32);\n    function getConfirmedBlockHash(uint256 number)\n        external\n        view\n        returns (bytes32 hash);\n}\n\ncontract HarmonyLightClient is HarmonyLightClientStorage, IHarmonyLightClient {\n    using SafeMath for uint256;\n\n    bytes public mmrRoot;\n    bool public status;\n    uint256 public blockHash;\n    bytes32 public blockHash1;\n    bytes public sig;\n\n    constructor(bytes memory rlpHeader) public {\n        uint256 blockHash = HarmonyParser.calcBlockHeaderHash(rlpHeader);\n        HarmonyParser.BlockHeader memory header = HarmonyParser.toBlockHeader(rlpHeader);\n    }\n\n\n    function submitCheckpoint(bytes memory rlpHeader, bytes memory commitSig, bytes memory commitBitmap, bytes memory blockHashes) public returns (bool status) {\n        // bls verify the block header for quorum & signatures\n\n        // epoch block\n        // if (header.shardState.length > 0) {\n        //     // store shard committees for the next epoch\n        // }\n\n        // append the blockHashes to MMR tree and check if the root matches the MMRRoot of the block header\n\n        // current blockHash becomes the first node of new epoch MMR tree\n    }\n\n    function addBlock(bytes memory rlpHeader, bytes memory keys) public {\n        HarmonyParser.BlockHeader memory header = HarmonyParser.toBlockHeader(\n            rlpHeader\n        );\n        mmrRoot = header.mmrRoot;\n        blockHash = uint256(keccak256(rlpHeader));\n        blockHash1 = keccak256(rlpHeader);\n        sig = header.lastCommitSignature;\n\n        // epoch block\n        if (header.shardState.length > 0) {}\n    }\n\n    function getConfirmedBlockHash(uint256 number)\n        public\n        view\n        override\n        returns (bytes32 hash)\n    {\n        // return number <= lastConfirmed ? blockHashes[number] : bytes32(0);\n        return bytes32(0);\n    }\n}\n",
  "sourcePath": "/Users/gupadhyaya/go/src/github.com/harmony-one/horizon/contracts/HarmonyLightClient.sol",
  "compiler": {
    "name": "solc",
    "version": "0.7.3+commit.9bfce1f6.Emscripten.clang"
  },
  "schemaVersion": "3.2.1",
  "updatedAt": "2021-09-01T20:06:41.319Z",
  "devdoc": {
    "kind": "dev",
    "methods": {},
    "version": 1
  },
  "userdoc": {
    "kind": "user",
    "methods": {},
    "version": 1
  }
}