{
  "contractName": "HarmonyBridge",
  "abi": [
    {
      "anonymous": false,
      "inputs": [
        {
          "indexed": true,
          "internalType": "address",
          "name": "token",
          "type": "address"
        },
        {
          "indexed": true,
          "internalType": "address",
          "name": "sender",
          "type": "address"
        },
        {
          "indexed": false,
          "internalType": "uint256",
          "name": "amount",
          "type": "uint256"
        },
        {
          "indexed": false,
          "internalType": "address",
          "name": "recipient",
          "type": "address"
        }
      ],
      "name": "Burn",
      "type": "event"
    },
    {
      "anonymous": false,
      "inputs": [
        {
          "indexed": true,
          "internalType": "address",
          "name": "token",
          "type": "address"
        },
        {
          "indexed": true,
          "internalType": "address",
          "name": "sender",
          "type": "address"
        },
        {
          "indexed": false,
          "internalType": "uint256",
          "name": "amount",
          "type": "uint256"
        },
        {
          "indexed": false,
          "internalType": "address",
          "name": "recipient",
          "type": "address"
        }
      ],
      "name": "Locked",
      "type": "event"
    },
    {
      "anonymous": false,
      "inputs": [
        {
          "indexed": true,
          "internalType": "address",
          "name": "previousOwner",
          "type": "address"
        },
        {
          "indexed": true,
          "internalType": "address",
          "name": "newOwner",
          "type": "address"
        }
      ],
      "name": "OwnershipTransferred",
      "type": "event"
    },
    {
      "anonymous": false,
      "inputs": [
        {
          "indexed": true,
          "internalType": "address",
          "name": "tokenReq",
          "type": "address"
        },
        {
          "indexed": true,
          "internalType": "address",
          "name": "tokenAck",
          "type": "address"
        }
      ],
      "name": "TokenMapAck",
      "type": "event"
    },
    {
      "anonymous": false,
      "inputs": [
        {
          "indexed": true,
          "internalType": "address",
          "name": "tokenReq",
          "type": "address"
        },
        {
          "indexed": true,
          "internalType": "uint8",
          "name": "decimals",
          "type": "uint8"
        },
        {
          "indexed": false,
          "internalType": "string",
          "name": "name",
          "type": "string"
        },
        {
          "indexed": false,
          "internalType": "string",
          "name": "symbol",
          "type": "string"
        }
      ],
      "name": "TokenMapReq",
      "type": "event"
    },
    {
      "inputs": [
        {
          "internalType": "address",
          "name": "",
          "type": "address"
        }
      ],
      "name": "RxMapped",
      "outputs": [
        {
          "internalType": "contract BridgedToken",
          "name": "",
          "type": "address"
        }
      ],
      "stateMutability": "view",
      "type": "function"
    },
    {
      "inputs": [
        {
          "internalType": "address",
          "name": "",
          "type": "address"
        }
      ],
      "name": "RxMappedInv",
      "outputs": [
        {
          "internalType": "address",
          "name": "",
          "type": "address"
        }
      ],
      "stateMutability": "view",
      "type": "function"
    },
    {
      "inputs": [
        {
          "internalType": "uint256",
          "name": "",
          "type": "uint256"
        }
      ],
      "name": "RxTokens",
      "outputs": [
        {
          "internalType": "contract BridgedToken",
          "name": "",
          "type": "address"
        }
      ],
      "stateMutability": "view",
      "type": "function"
    },
    {
      "inputs": [
        {
          "internalType": "address",
          "name": "",
          "type": "address"
        }
      ],
      "name": "TxMapped",
      "outputs": [
        {
          "internalType": "address",
          "name": "",
          "type": "address"
        }
      ],
      "stateMutability": "view",
      "type": "function"
    },
    {
      "inputs": [
        {
          "internalType": "address",
          "name": "",
          "type": "address"
        }
      ],
      "name": "TxMappedInv",
      "outputs": [
        {
          "internalType": "contract IERC20",
          "name": "",
          "type": "address"
        }
      ],
      "stateMutability": "view",
      "type": "function"
    },
    {
      "inputs": [
        {
          "internalType": "uint256",
          "name": "",
          "type": "uint256"
        }
      ],
      "name": "TxTokens",
      "outputs": [
        {
          "internalType": "contract IERC20",
          "name": "",
          "type": "address"
        }
      ],
      "stateMutability": "view",
      "type": "function"
    },
    {
      "inputs": [],
      "name": "lightclient",
      "outputs": [
        {
          "internalType": "contract EthereumLightClient",
          "name": "",
          "type": "address"
        }
      ],
      "stateMutability": "view",
      "type": "function"
    },
    {
      "inputs": [],
      "name": "otherSideBridge",
      "outputs": [
        {
          "internalType": "address",
          "name": "",
          "type": "address"
        }
      ],
      "stateMutability": "view",
      "type": "function"
    },
    {
      "inputs": [],
      "name": "owner",
      "outputs": [
        {
          "internalType": "address",
          "name": "",
          "type": "address"
        }
      ],
      "stateMutability": "view",
      "type": "function"
    },
    {
      "inputs": [],
      "name": "renounceOwnership",
      "outputs": [],
      "stateMutability": "nonpayable",
      "type": "function"
    },
    {
      "inputs": [
        {
          "internalType": "bytes32",
          "name": "",
          "type": "bytes32"
        }
      ],
      "name": "spentReceipt",
      "outputs": [
        {
          "internalType": "bool",
          "name": "",
          "type": "bool"
        }
      ],
      "stateMutability": "view",
      "type": "function"
    },
    {
      "inputs": [
        {
          "internalType": "address",
          "name": "newOwner",
          "type": "address"
        }
      ],
      "name": "transferOwnership",
      "outputs": [],
      "stateMutability": "nonpayable",
      "type": "function"
    },
    {
      "inputs": [],
      "name": "getRainbowSize",
      "outputs": [
        {
          "internalType": "uint256",
          "name": "",
          "type": "uint256"
        },
        {
          "internalType": "uint256",
          "name": "",
          "type": "uint256"
        }
      ],
      "stateMutability": "view",
      "type": "function"
    },
    {
      "inputs": [
        {
          "internalType": "contract EthereumLightClient",
          "name": "newClient",
          "type": "address"
        }
      ],
      "name": "changeLightClient",
      "outputs": [],
      "stateMutability": "nonpayable",
      "type": "function"
    },
    {
      "inputs": [
        {
          "internalType": "address",
          "name": "otherSide",
          "type": "address"
        }
      ],
      "name": "Bind",
      "outputs": [],
      "stateMutability": "nonpayable",
      "type": "function"
    },
    {
      "inputs": [
        {
          "internalType": "contract ERC20",
          "name": "thisSideToken",
          "type": "address"
        }
      ],
      "name": "RainbowMap",
      "outputs": [
        {
          "internalType": "address",
          "name": "",
          "type": "address"
        }
      ],
      "stateMutability": "nonpayable",
      "type": "function"
    },
    {
      "inputs": [
        {
          "internalType": "contract BridgedToken",
          "name": "token",
          "type": "address"
        },
        {
          "internalType": "address",
          "name": "recipient",
          "type": "address"
        },
        {
          "internalType": "uint256",
          "name": "amount",
          "type": "uint256"
        }
      ],
      "name": "RainbowBack",
      "outputs": [],
      "stateMutability": "nonpayable",
      "type": "function"
    },
    {
      "inputs": [
        {
          "internalType": "contract IERC20",
          "name": "token",
          "type": "address"
        },
        {
          "internalType": "address",
          "name": "recipient",
          "type": "address"
        },
        {
          "internalType": "uint256",
          "name": "amount",
          "type": "uint256"
        }
      ],
      "name": "RainbowTo",
      "outputs": [],
      "stateMutability": "nonpayable",
      "type": "function"
    },
    {
      "inputs": [
        {
          "internalType": "uint256",
          "name": "blockNo",
          "type": "uint256"
        },
        {
          "internalType": "bytes32",
          "name": "rootHash",
          "type": "bytes32"
        },
        {
          "internalType": "bytes",
          "name": "mptkey",
          "type": "bytes"
        },
        {
          "internalType": "bytes",
          "name": "proof",
          "type": "bytes"
        }
      ],
      "name": "ExecProof",
      "outputs": [],
      "stateMutability": "nonpayable",
      "type": "function"
    }
  ],
  "bytecode": "0x608060405234801561001057600080fd5b50600061001b61006a565b600080546001600160a01b0319166001600160a01b0383169081178255604051929350917f8be0079c531659141344cd1fd0a4f28419497f9722a3daafe3b4186f6b6457e0908290a35061006e565b3390565b613c14806200007e6000396000f3fe60806040523480156200001157600080fd5b50600436106200013c5760003560e01c80638da5cb5b11620000bd578063d6eb1e2a116200007b578063d6eb1e2a146200027b578063e05bdaf71462000292578063e71575e814620002a9578063f2fde38b14620002c0578063f32bceca14620002d7576200013c565b80638da5cb5b1462000215578063946c714e146200021f578063ae24fbb41462000236578063bf21980b146200024d578063d650d3f71462000264576200013c565b80634d2be8e5116200010b5780634d2be8e514620001ad5780635048726a14620001b7578063715018a614620001ce5780638487b9cf14620001d85780638ab3124a14620001ef576200013c565b80631b7f3e23146200014157806335c6814d1462000163578063435a5878146200017a578063481a02e31462000194575b600080fd5b6200014b620002ee565b6040516200015a919062002501565b60405180910390f35b6200014b6200017436600462002284565b620002fd565b6200018462000325565b6040516200015a9291906200255d565b620001ab620001a536600462002243565b6200032f565b005b6200014b620003a0565b620001ab620001c8366004620022e2565b620003af565b620001ab6200047d565b6200014b620001e936600462002243565b6200050d565b620002066200020036600462002284565b62000528565b6040516200015a919062002552565b6200014b6200053d565b620001ab62000230366004620023e1565b6200054c565b6200014b6200024736600462002284565b620007b3565b620001ab6200025e36600462002243565b620007c1565b6200014b6200027536600462002243565b62000829565b6200014b6200028c36600462002243565b62000844565b6200014b620002a336600462002243565b62000a39565b6200014b620002ba36600462002243565b62000a54565b620001ab620002d136600462002243565b62000a6f565b620001ab620002e83660046200229d565b62000b39565b6002546001600160a01b031681565b600481815481106200030b57fe5b6000918252602090912001546001600160a01b0316905081565b6003546004549091565b6200033962000c47565b6001600160a01b03166200034c6200053d565b6001600160a01b0316146200037e5760405162461bcd60e51b8152600401620003759062002757565b60405180910390fd5b600180546001600160a01b0319166001600160a01b0392909216919091179055565b6001546001600160a01b031681565b6001600160a01b038216620003d85760405162461bcd60e51b81526004016200037590620026a7565b6001600160a01b0383811660009081526005602052604090205416620004125760405162461bcd60e51b8152600401620003759062002654565b620004296001600160a01b03841633308462000c4b565b336001600160a01b0316836001600160a01b03167f4c6ab40ee4cfa212a441d32ee2897945b4a52461284f9369e23fdf8faa6cdd69838560405162000470929190620028ba565b60405180910390a3505050565b6200048762000c47565b6001600160a01b03166200049a6200053d565b6001600160a01b031614620004c35760405162461bcd60e51b8152600401620003759062002757565b600080546040516001600160a01b03909116907f8be0079c531659141344cd1fd0a4f28419497f9722a3daafe3b4186f6b6457e0908390a3600080546001600160a01b0319169055565b6008602052600090815260409020546001600160a01b031681565b60096020526000908152604090205460ff1681565b6000546001600160a01b031690565b600254604051633c6c6b7360e01b81526000916001600160a01b031690633c6c6b739062000581908a9085906004016200255d565b60206040518083038186803b1580156200059a57600080fd5b505afa158015620005af573d6000803e3d6000fd5b505050506040513d601f19601f82011682018060405250810190620005d5919062002396565b6002546040516329e141af60e01b81529192506001600160a01b0316906329e141af906200060a9084908a906004016200255d565b60206040518083038186803b1580156200062357600080fd5b505afa15801562000638573d6000803e3d6000fd5b505050506040513d601f19601f820116820180604052508101906200065e919062002262565b6200067d5760405162461bcd60e51b815260040162000375906200288e565b600081878787604051602001620006989493929190620024c2565b60408051601f1981840301815291815281516020928301206000818152600990935291205490915060ff1615620006e35760405162461bcd60e51b8152600401620003759062002680565b60606200075b8888888080601f01602080910402602001604051908101604052809392919081815260200183838082843760009201919091525050604080516020601f8c018190048102820181019092528a815292508a915089908190840183828082843760009201919091525062000cad92505050565b6000838152600960205260408120805460ff19166001179055909150620007828262000cdf565b905060008111620007a75760405162461bcd60e51b81526004016200037590620027b7565b50505050505050505050565b600381815481106200030b57fe5b620007cb62000c47565b6001600160a01b0316620007de6200053d565b6001600160a01b031614620008075760405162461bcd60e51b8152600401620003759062002757565b600280546001600160a01b0319166001600160a01b0392909216919091179055565b6006602052600090815260409020546001600160a01b031681565b6001600160a01b0381811660009081526005602052604081205490911615620008815760405162461bcd60e51b815260040162000375906200278c565b6000829050806001600160a01b031663313ce5676040518163ffffffff1660e01b815260040160206040518083038186803b158015620008c057600080fd5b505afa158015620008d5573d6000803e3d6000fd5b505050506040513d601f19601f82011682018060405250810190620008fb919062002468565b60ff16836001600160a01b03167fc13b93ab57586894396c38a46a06c88056fdbb23c7c595f8d08274f9a8593a42836001600160a01b03166306fdde036040518163ffffffff1660e01b815260040160006040518083038186803b1580156200096357600080fd5b505afa15801562000978573d6000803e3d6000fd5b505050506040513d6000823e601f3d908101601f19168201604052620009a29190810190620022f7565b846001600160a01b03166395d89b416040518163ffffffff1660e01b815260040160006040518083038186803b158015620009dc57600080fd5b505afa158015620009f1573d6000803e3d6000fd5b505050506040513d6000823e601f3d908101601f1916820160405262000a1b9190810190620022f7565b60405162000a2b92919062002580565b60405180910390a350919050565b6007602052600090815260409020546001600160a01b031681565b6005602052600090815260409020546001600160a01b031681565b62000a7962000c47565b6001600160a01b031662000a8c6200053d565b6001600160a01b03161462000ab55760405162461bcd60e51b8152600401620003759062002757565b6001600160a01b03811662000ade5760405162461bcd60e51b815260040162000375906200260e565b600080546040516001600160a01b03808516939216917f8be0079c531659141344cd1fd0a4f28419497f9722a3daafe3b4186f6b6457e091a3600080546001600160a01b0319166001600160a01b0392909216919091179055565b6001600160a01b03821662000b625760405162461bcd60e51b81526004016200037590620026a7565b6001600160a01b038381166000908152600860205260409020541662000b9c5760405162461bcd60e51b8152600401620003759062002654565b60405163079cc67960e41b81526001600160a01b038416906379cc67909062000bcc903390859060040162002515565b600060405180830381600087803b15801562000be757600080fd5b505af115801562000bfc573d6000803e3d6000fd5b50505050336001600160a01b0316836001600160a01b03167f3dd1df88dc92e2788892542d81f999d720a44b4c127065d45c128f4f59fdc373838560405162000470929190620028ba565b3390565b62000ca7846323b872dd60e01b85858560405160240162000c6f939291906200252e565b60408051601f198184030181529190526020810180516001600160e01b03166001600160e01b03199093169290921790915262000ff0565b50505050565b60608062000cc562000cbf846200108c565b620010b4565b905062000cd4858583620011ad565b9150505b9392505050565b600062000ceb62002153565b62000cf6836200108c565b9050606062000d0582620010b4565b9050600062000d298260008151811062000d1b57fe5b60200260200101516200156a565b90508060011462000d4e5760405162461bcd60e51b815260040162000375906200272f565b606062000d708360038151811062000d6257fe5b6020026020010151620010b4565b905060005b815181101562000fe657606062000d9283838151811062000d6257fe5b9050600062000db68260008151811062000da857fe5b6020026020010151620015cf565b6001549091506001600160a01b0380831691161462000dd757505062000fdd565b606062000deb8360018151811062000d6257fe5b90506060815167ffffffffffffffff8111801562000e0857600080fd5b5060405190808252806020026020018201604052801562000e33578160200160208202803683370190505b50905060005b825181101562000e785762000e5483828151811062000d1b57fe5b60001b82828151811062000e6457fe5b602090810291909101015260010162000e39565b50606062000e9b8560028151811062000e8d57fe5b6020026020010151620015f2565b90507f4c6ab40ee4cfa212a441d32ee2897945b4a52461284f9369e23fdf8faa6cdd698260008151811062000ecc57fe5b6020026020010151141562000ef95762000ee782826200167e565b50506001909801975062000fdd915050565b7f3dd1df88dc92e2788892542d81f999d720a44b4c127065d45c128f4f59fdc3738260008151811062000f2857fe5b6020026020010151141562000f435762000ee7828262001740565b7fc13b93ab57586894396c38a46a06c88056fdbb23c7c595f8d08274f9a8593a428260008151811062000f7257fe5b6020026020010151141562000f8d5762000ee78282620017ac565b7f78591f651c27eef63481b7fd779e44c2426cbe82c7050fe9bc90b6707efbc3d38260008151811062000fbc57fe5b6020026020010151141562000fd75762000ee7828262001949565b50505050505b60010162000d75565b5050505050919050565b606062001047826040518060400160405280602081526020017f5361666545524332303a206c6f772d6c6576656c2063616c6c206661696c6564815250856001600160a01b031662001a429092919063ffffffff16565b80519091501562001087578080602001905181019062001068919062002262565b620010875760405162461bcd60e51b8152600401620003759062002816565b505050565b6200109662002153565b5060408051808201909152815181526020828101908201525b919050565b6060620010c18262001a5b565b620010cb57600080fd5b6000620010d88362001a99565b905060608167ffffffffffffffff81118015620010f457600080fd5b506040519080825280602002602001820160405280156200113257816020015b6200111e62002153565b815260200190600190039081620011145790505b509050600062001146856020015162001af9565b60208601510190506000805b84811015620011a257620011668362001b65565b91506040518060400160405280838152602001848152508482815181106200118a57fe5b60209081029190910101529181019160010162001152565b509195945050505050565b6060620011be836000600162001c06565b9250600080606080620011d062002153565b865162001221577f56e81f171bcc55a6ff8345e692c0f86e5b48e01b996cadc001622fb5e363b42189146200120457600080fd5b5050604080516000815260208101909152935062000cd892505050565b60005b87518110156200155d576200124d8882815181106200123f57fe5b602002602001015162001d8f565b935080158015620012645750835160208501208a14155b156200126f57600080fd5b8015801590620012895750620012858462001e0d565b8514155b156200129457600080fd5b620012a588828151811062000d6257fe5b9250825160021415620014285760006060620012d2620012cc8660008151811062000e8d57fe5b62001e81565b90925090506000620012e6898d8462001f36565b9050808901985081518110156200134b5760018b51038410156200130957600080fd5b6000805b506040519080825280601f01601f19166020018201604052801562001339576020820181803683370190505b50995050505050505050505062000cd8565b8215620013ab5760018b51038410156200136457600080fd5b8b5189101562001377576000806200130d565b856001815181106200138557fe5b602002602001015194506200139a85620015f2565b995050505050505050505062000cd8565b60018b5103841415620013bd57600080fd5b620013dd86600181518110620013cf57fe5b602002602001015162001a5b565b6200140357620013f48660018151811062000e8d57fe5b8051906020012097506200141f565b62001415866001815181106200123f57fe5b8051906020012097505b50505062001554565b825160111415620015545788518614620015235760008987815181106200144b57fe5b01602001516001979097019660f81c9050601081106200146a57600080fd5b6200148c848260ff16815181106200147e57fe5b602002602001015162001faa565b15620014c25760018951038214620014a357600080fd5b5050604080516000815260208101909152955062000cd8945050505050565b620014d6848260ff1681518110620013cf57fe5b620014fe57620014ef848260ff168151811062000e8d57fe5b8051906020012095506200151c565b62001512848260ff16815181106200123f57fe5b8051906020012095505b5062001554565b600188510381146200153457600080fd5b620015468360108151811062000e8d57fe5b965050505050505062000cd8565b60010162001224565b5050505050509392505050565b8051600090158015906200158057508151602110155b6200158a57600080fd5b60006200159b836020015162001af9565b83516020808601518301805193945091849003929190831015620015c657826020036101000a820491505b50949350505050565b8051600090601514620015e157600080fd5b620015ec826200156a565b92915050565b80516060906200160157600080fd5b600062001612836020015162001af9565b835190915081900360608167ffffffffffffffff811180156200163457600080fd5b506040519080825280601f01601f19166020018201604052801562001660576020820181803683370190505b5090506000816020019050620015c684876020015101828562001fcf565b6000826001815181106200168e57fe5b602002602001015160001c905060008083806020019051810190620016b49190620023af565b6001600160a01b038086166000908152600760205260409020549294509092501680620016e057600080fd5b6040516340c10f1960e01b81526001600160a01b038216906340c10f199062001710908590879060040162002515565b600060405180830381600087803b1580156200172b57600080fd5b505af1158015620007a7573d6000803e3d6000fd5b6000826001815181106200175057fe5b602002602001015160001c905060008083806020019051810190620017769190620023af565b6001600160a01b0380861660009081526006602052604090205492945090925016620017a48183856200201e565b505050505050565b600082600181518110620017bc57fe5b6020908102919091018101516001600160a01b03808216600090815260079093526040909220549092501615620018075760405162461bcd60e51b8152600401620003759062002860565b6000836002815181106200181757fe5b602002602001015160001c9050606080848060200190518101906200183d91906200232e565b915091506000846001600160a01b031660001b905060008184848760405162001866906200216d565b6200187493929190620025a9565b8190604051809103906000f590508015801562001895573d6000803e3d6000fd5b506001600160a01b0380821660008181526008602090815260408083208054958d166001600160a01b0319968716811790915580845260079092528083208054861685179055600480546001810182559084527f8a35acfbc15ff81a39ae7d344fd709f28e8600b4aa8c65c6b64bfe7fe36bd19b0180549095168417909455925193945090927f78591f651c27eef63481b7fd779e44c2426cbe82c7050fe9bc90b6707efbc3d39190a35050505050505050565b6000826001815181106200195957fe5b602002602001015160001c90506000836002815181106200197657fe5b6020908102919091018101516001600160a01b03848116600090815260059093526040909220549092501615620019c15760405162461bcd60e51b81526004016200037590620025e6565b6001600160a01b0391821660008181526005602090815260408083208054969095166001600160a01b031996871681179095559382526006905291822080548416821790556003805460018101825592527fc2575a0e9e593c00f959f8c92f12db2869c3395a3b0502d05e2516446f71f85b90910180549092161790555050565b606062001a53848460008562002040565b949350505050565b805160009062001a6e57506000620010af565b6020820151805160001a9060c082101562001a8f57600092505050620010af565b5060019392505050565b805160009062001aac57506000620010af565b60008062001abe846020015162001af9565b602085015185519181019250015b8082101562001af05762001ae08262001b65565b6001909301929091019062001acc565b50909392505050565b8051600090811a608081101562001b15576000915050620010af565b60b881108062001b32575060c0811080159062001b32575060f881105b1562001b43576001915050620010af565b60c081101562001b595760b519019050620010af565b60f519019050620010af565b80516000908190811a608081101562001b82576001915062001bff565b60b881101562001b9957607e198101915062001bff565b60c081101562001bc85760b78103600185019450806020036101000a8551046001820181019350505062001bff565b60f881101562001bdf5760be198101915062001bff565b60f78103600185019450806020036101000a855104600182018101935050505b5092915050565b6060600084511162001c1757600080fd5b83516002028084111562001c2a57600080fd5b83900382810167ffffffffffffffff8111801562001c4757600080fd5b506040519080825280601f01601f19166020018201604052801562001c73576020820181803683370190505b509150826001141562001cae57601060f81b8260018451038151811062001c9657fe5b60200101906001600160f81b031916908160001a9053505b6000845b82860181101562001d78576002810662001d1b57600487600283048151811062001cd857fe5b602001015160f81c60f81b60f81c60ff16901c600f1660f81b84838151811062001cfe57fe5b60200101906001600160f81b031916908160001a90535062001d6b565b600087600283048151811062001d2d57fe5b602001015160f81c60f81b60f81c60ff16901c600f1660f81b84838151811062001d5357fe5b60200101906001600160f81b031916908160001a9053505b6001918201910162001cb2565b5082518482011462001d8657fe5b50509392505050565b606080826000015167ffffffffffffffff8111801562001dae57600080fd5b506040519080825280601f01601f19166020018201604052801562001dda576020820181803683370190505b50905080516000141562001df0579050620010af565b600081602001905062001bff846020015182866000015162001fcf565b600060208251101562001e28575080516020820120620010af565b8160405160200162001e3b9190620024e3565b6040516020818303038152906040528051906020012060405160200162001e639190620024b9565b604051602081830303815290604052805190602001209050620010af565b60006060600083511162001e9457600080fd5b600060048460008151811062001ea657fe5b60209101015160f81c901c600f16905060008162001ecb575060009250600262001f0a565b816001141562001ee2575060009250600162001f0a565b816002141562001ef9575060019250600262001f0a565b81600314156200013c575060019250825b8362001f2b86838762001f1f57600062001f22565b60015b60ff1662001c06565b935093505050915091565b6000805b835185820110801562001f4d5750825181105b1562001a535782818151811062001f6057fe5b602001015160f81c60f81b6001600160f81b031916848683018151811062001f8457fe5b01602001516001600160f81b0319161462001fa157905062000cd8565b60010162001f3a565b805160009060011462001fc057506000620010af565b50602001515160001a60801490565b8062001fdb5762001087565b5b6020811062001ffd578251825260209283019290910190601f190162001fdc565b915181516020939093036101000a6000190180199091169216919091179052565b620010878363a9059cbb60e01b848460405160240162000c6f92919062002515565b606082471015620020655760405162461bcd60e51b81526004016200037590620026e9565b62002070856200210f565b6200208f5760405162461bcd60e51b81526004016200037590620027df565b60006060866001600160a01b03168587604051620020ae9190620024e3565b60006040518083038185875af1925050503d8060008114620020ed576040519150601f19603f3d011682016040523d82523d6000602084013e620020f2565b606091505b50915091506200210482828662002115565b979650505050505050565b3b151590565b606083156200212657508162000cd8565b825115620021375782518084602001fd5b8160405162461bcd60e51b81526004016200037591906200256b565b604051806040016040528060008152602001600081525090565b6112c5806200291a83390190565b60008083601f8401126200218d578182fd5b50813567ffffffffffffffff811115620021a5578182fd5b602083019150836020828501011115620021be57600080fd5b9250929050565b600082601f830112620021d6578081fd5b815167ffffffffffffffff80821115620021ec57fe5b604051601f8301601f1916810160200182811182821017156200220b57fe5b6040528281529250828483016020018610156200222757600080fd5b6200223a836020830160208801620028d1565b50505092915050565b60006020828403121562002255578081fd5b813562000cd88162002900565b60006020828403121562002274578081fd5b8151801515811462000cd8578182fd5b60006020828403121562002296578081fd5b5035919050565b600080600060608486031215620022b2578182fd5b8335620022bf8162002900565b92506020840135620022d18162002900565b929592945050506040919091013590565b600080600060608486031215620022b2578283fd5b60006020828403121562002309578081fd5b815167ffffffffffffffff81111562002320578182fd5b62001a5384828501620021c5565b6000806040838503121562002341578182fd5b825167ffffffffffffffff8082111562002359578384fd5b6200236786838701620021c5565b935060208501519150808211156200237d578283fd5b506200238c85828601620021c5565b9150509250929050565b600060208284031215620023a8578081fd5b5051919050565b60008060408385031215620023c2578182fd5b825191506020830151620023d68162002900565b809150509250929050565b60008060008060008060808789031215620023fa578182fd5b8635955060208701359450604087013567ffffffffffffffff8082111562002420578384fd5b6200242e8a838b016200217b565b9096509450606089013591508082111562002447578384fd5b506200245689828a016200217b565b979a9699509497509295939492505050565b6000602082840312156200247a578081fd5b815160ff8116811462000cd8578182fd5b60008151808452620024a5816020860160208601620028d1565b601f01601f19169290920160200192915050565b90815260200190565b60008582528460208301528284604084013791016040019081529392505050565b60008251620024f7818460208701620028d1565b9190910192915050565b6001600160a01b0391909116815260200190565b6001600160a01b03929092168252602082015260400190565b6001600160a01b039384168152919092166020820152604081019190915260600190565b901515815260200190565b918252602082015260400190565b60006020825262000cd860208301846200248b565b6000604082526200259560408301856200248b565b828103602084015262000cd481856200248b565b600060608252620025be60608301866200248b565b8281036020840152620025d281866200248b565b91505060ff83166040830152949350505050565b6020808252600e908201526d696d706f737369626c652061636b60901b604082015260600190565b60208082526026908201527f4f776e61626c653a206e6577206f776e657220697320746865207a65726f206160408201526564647265737360d01b606082015260800190565b602080825260129082015271189c9a5919d9481a5cdb89dd08195e1a5cdd60721b604082015260600190565b6020808252600d908201526c646f75626c65207370656e742160981b604082015260600190565b60208082526022908201527f4c6f636b65722f726563697069656e742069732061207a65726f206164647265604082015261737360f01b606082015260800190565b60208082526026908201527f416464726573733a20696e73756666696369656e742062616c616e636520666f6040820152651c8818d85b1b60d21b606082015260800190565b6020808252600e908201526d1c995d995c9d081c9958d95a5c1d60921b604082015260600190565b6020808252818101527f4f776e61626c653a2063616c6c6572206973206e6f7420746865206f776e6572604082015260600190565b6020808252601190820152707261696e626f772069732065786973747360781b604082015260600190565b6020808252600e908201526d1b9bc81d985b1a5908195d995b9d60921b604082015260600190565b6020808252601d908201527f416464726573733a2063616c6c20746f206e6f6e2d636f6e7472616374000000604082015260600190565b6020808252602a908201527f5361666545524332303a204552433230206f7065726174696f6e20646964206e6040820152691bdd081cdd58d8d9595960b21b606082015260800190565b602080825260149082015273189c9a5919d948185b1c9958591e48195e1a5cdd60621b604082015260600190565b6020808252601290820152710eee4dedcce40e4cac6cad2e0e840d0c2e6d60731b604082015260600190565b9182526001600160a01b0316602082015260400190565b60005b83811015620028ee578181015183820152602001620028d4565b8381111562000ca75750506000910152565b6001600160a01b03811681146200291657600080fd5b5056fe60806040523480156200001157600080fd5b50604051620012c5380380620012c5833981016040819052620000349162000242565b8251839083906200004d90600390602085019062000103565b5080516200006390600490602084019062000103565b50506005805460ff191660121790555060006200007f620000e9565b60058054610100600160a81b0319166101006001600160a01b03841690810291909117909155604051919250906000907f8be0079c531659141344cd1fd0a4f28419497f9722a3daafe3b4186f6b6457e0908290a350620000e081620000ed565b505050620002c3565b3390565b6005805460ff191660ff92909216919091179055565b828054600181600116156101000203166002900490600052602060002090601f016020900481019282601f106200014657805160ff191683800117855562000176565b8280016001018555821562000176579182015b828111156200017657825182559160200191906001019062000159565b506200018492915062000188565b5090565b5b8082111562000184576000815560010162000189565b600082601f830112620001b0578081fd5b81516001600160401b0380821115620001c557fe5b6040516020601f8401601f1916820181018381118382101715620001e557fe5b806040525081945083825286818588010111156200020257600080fd5b600092505b8383101562000226578583018101518284018201529182019162000207565b83831115620002385760008185840101525b5050505092915050565b60008060006060848603121562000257578283fd5b83516001600160401b03808211156200026e578485fd5b6200027c878388016200019f565b9450602086015191508082111562000292578384fd5b50620002a1868287016200019f565b925050604084015160ff81168114620002b8578182fd5b809150509250925092565b610ff280620002d36000396000f3fe608060405234801561001057600080fd5b506004361061010b5760003560e01c806370a08231116100a257806395d89b411161007157806395d89b4114610209578063a457c2d714610211578063a9059cbb14610224578063dd62ed3e14610237578063f2fde38b1461024a5761010b565b806370a08231146101c6578063715018a6146101d957806379cc6790146101e15780638da5cb5b146101f45761010b565b8063313ce567116100de578063313ce56714610176578063395093511461018b57806340c10f191461019e57806342966c68146101b35761010b565b806306fdde0314610110578063095ea7b31461012e57806318160ddd1461014e57806323b872dd14610163575b600080fd5b61011861025d565b6040516101259190610c2a565b60405180910390f35b61014161013c366004610bca565b6102f3565b6040516101259190610c1f565b610156610310565b6040516101259190610eec565b610141610171366004610b8f565b610316565b61017e61039d565b6040516101259190610ef5565b610141610199366004610bca565b6103a6565b6101b16101ac366004610bca565b6103f4565b005b6101b16101c1366004610bf3565b61044a565b6101566101d4366004610b43565b61045e565b6101b161047d565b6101b16101ef366004610bca565b61050c565b6101fc610561565b6040516101259190610c0b565b610118610575565b61014161021f366004610bca565b6105d6565b610141610232366004610bca565b61063e565b610156610245366004610b5d565b610652565b6101b1610258366004610b43565b61067d565b60038054604080516020601f60026000196101006001881615020190951694909404938401819004810282018101909252828152606093909290918301828280156102e95780601f106102be576101008083540402835291602001916102e9565b820191906000526020600020905b8154815290600101906020018083116102cc57829003601f168201915b5050505050905090565b6000610307610300610749565b848461074d565b50600192915050565b60025490565b6000610323848484610801565b6103938461032f610749565b61038e85604051806060016040528060288152602001610f4c602891396001600160a01b038a1660009081526001602052604081209061036d610749565b6001600160a01b031681526020810191909152604001600020549190610916565b61074d565b5060019392505050565b60055460ff1690565b60006103076103b3610749565b8461038e85600160006103c4610749565b6001600160a01b03908116825260208083019390935260409182016000908120918c168152925290205490610942565b6103fc610749565b6001600160a01b031661040d610561565b6001600160a01b03161461043c5760405162461bcd60e51b815260040161043390610db6565b60405180910390fd5b610446828261096e565b5050565b61045b610455610749565b82610a2e565b50565b6001600160a01b0381166000908152602081905260409020545b919050565b610485610749565b6001600160a01b0316610496610561565b6001600160a01b0316146104bc5760405162461bcd60e51b815260040161043390610db6565b60055460405160009161010090046001600160a01b0316907f8be0079c531659141344cd1fd0a4f28419497f9722a3daafe3b4186f6b6457e0908390a360058054610100600160a81b0319169055565b600061053e82604051806060016040528060248152602001610f746024913961053786610245610749565b9190610916565b90506105528361054c610749565b8361074d565b61055c8383610a2e565b505050565b60055461010090046001600160a01b031690565b60048054604080516020601f60026000196101006001881615020190951694909404938401819004810282018101909252828152606093909290918301828280156102e95780601f106102be576101008083540402835291602001916102e9565b60006103076105e3610749565b8461038e85604051806060016040528060258152602001610f98602591396001600061060d610749565b6001600160a01b03908116825260208083019390935260409182016000908120918d16815292529020549190610916565b600061030761064b610749565b8484610801565b6001600160a01b03918216600090815260016020908152604080832093909416825291909152205490565b610685610749565b6001600160a01b0316610696610561565b6001600160a01b0316146106bc5760405162461bcd60e51b815260040161043390610db6565b6001600160a01b0381166106e25760405162461bcd60e51b815260040161043390610cc0565b6005546040516001600160a01b0380841692610100900416907f8be0079c531659141344cd1fd0a4f28419497f9722a3daafe3b4186f6b6457e090600090a3600580546001600160a01b0390921661010002610100600160a81b0319909216919091179055565b3390565b6001600160a01b0383166107735760405162461bcd60e51b815260040161043390610e71565b6001600160a01b0382166107995760405162461bcd60e51b815260040161043390610d06565b6001600160a01b0380841660008181526001602090815260408083209487168084529490915290819020849055517f8c5be1e5ebec7d5bd14f71427d1e84f3dd0314c0f7b2291e5b200ac8c7c3b925906107f4908590610eec565b60405180910390a3505050565b6001600160a01b0383166108275760405162461bcd60e51b815260040161043390610e2c565b6001600160a01b03821661084d5760405162461bcd60e51b815260040161043390610c7d565b61085883838361055c565b61089581604051806060016040528060268152602001610f26602691396001600160a01b0386166000908152602081905260409020549190610916565b6001600160a01b0380851660009081526020819052604080822093909355908416815220546108c49082610942565b6001600160a01b0380841660008181526020819052604090819020939093559151908516907fddf252ad1be2c89b69c2b068fc378daa952ba7f163c4a11628f55a4df523b3ef906107f4908590610eec565b6000818484111561093a5760405162461bcd60e51b81526004016104339190610c2a565b505050900390565b6000828201838110156109675760405162461bcd60e51b815260040161043390610d48565b9392505050565b6001600160a01b0382166109945760405162461bcd60e51b815260040161043390610eb5565b6109a06000838361055c565b6002546109ad9082610942565b6002556001600160a01b0382166000908152602081905260409020546109d39082610942565b6001600160a01b0383166000818152602081905260408082209390935591519091907fddf252ad1be2c89b69c2b068fc378daa952ba7f163c4a11628f55a4df523b3ef90610a22908590610eec565b60405180910390a35050565b6001600160a01b038216610a545760405162461bcd60e51b815260040161043390610deb565b610a608260008361055c565b610a9d81604051806060016040528060228152602001610f04602291396001600160a01b0385166000908152602081905260409020549190610916565b6001600160a01b038316600090815260208190526040902055600254610ac39082610b04565b6002556040516000906001600160a01b038416907fddf252ad1be2c89b69c2b068fc378daa952ba7f163c4a11628f55a4df523b3ef90610a22908590610eec565b600082821115610b265760405162461bcd60e51b815260040161043390610d7f565b50900390565b80356001600160a01b038116811461047857600080fd5b600060208284031215610b54578081fd5b61096782610b2c565b60008060408385031215610b6f578081fd5b610b7883610b2c565b9150610b8660208401610b2c565b90509250929050565b600080600060608486031215610ba3578081fd5b610bac84610b2c565b9250610bba60208501610b2c565b9150604084013590509250925092565b60008060408385031215610bdc578182fd5b610be583610b2c565b946020939093013593505050565b600060208284031215610c04578081fd5b5035919050565b6001600160a01b0391909116815260200190565b901515815260200190565b6000602080835283518082850152825b81811015610c5657858101830151858201604001528201610c3a565b81811115610c675783604083870101525b50601f01601f1916929092016040019392505050565b60208082526023908201527f45524332303a207472616e7366657220746f20746865207a65726f206164647260408201526265737360e81b606082015260800190565b60208082526026908201527f4f776e61626c653a206e6577206f776e657220697320746865207a65726f206160408201526564647265737360d01b606082015260800190565b60208082526022908201527f45524332303a20617070726f766520746f20746865207a65726f206164647265604082015261737360f01b606082015260800190565b6020808252601b908201527f536166654d6174683a206164646974696f6e206f766572666c6f770000000000604082015260600190565b6020808252601e908201527f536166654d6174683a207375627472616374696f6e206f766572666c6f770000604082015260600190565b6020808252818101527f4f776e61626c653a2063616c6c6572206973206e6f7420746865206f776e6572604082015260600190565b60208082526021908201527f45524332303a206275726e2066726f6d20746865207a65726f206164647265736040820152607360f81b606082015260800190565b60208082526025908201527f45524332303a207472616e736665722066726f6d20746865207a65726f206164604082015264647265737360d81b606082015260800190565b60208082526024908201527f45524332303a20617070726f76652066726f6d20746865207a65726f206164646040820152637265737360e01b606082015260800190565b6020808252601f908201527f45524332303a206d696e7420746f20746865207a65726f206164647265737300604082015260600190565b90815260200190565b60ff9190911681526020019056fe45524332303a206275726e20616d6f756e7420657863656564732062616c616e636545524332303a207472616e7366657220616d6f756e7420657863656564732062616c616e636545524332303a207472616e7366657220616d6f756e74206578636565647320616c6c6f77616e636545524332303a206275726e20616d6f756e74206578636565647320616c6c6f77616e636545524332303a2064656372656173656420616c6c6f77616e63652062656c6f77207a65726fa26469706673582212209f07520fd1b601aa02cd66606e23c8e79891a09c7ba91da7746ac9cd5e84f99b64736f6c63430007030033a264697066735822122016d6504aa5b13b1c1f1c5115a92af10ab150ab73e8334e400eb6648df4b5c14264736f6c63430007030033",
  "immutableReferences": {},
  "source": "// SPDX-License-Identifier: UNLICENSED\npragma solidity ^0.7;\npragma experimental ABIEncoderV2;\n\nimport \"./EthereumLightClient.sol\";\nimport \"./lib/RLPReader.sol\";\nimport {EthereumProver} from \"./EthereumProver.sol\";\nimport {IERC20} from \"openzeppelin-solidity/contracts/token/ERC20/IERC20.sol\";\nimport {ERC20} from \"openzeppelin-solidity/contracts/token/ERC20/ERC20.sol\";\nimport {SafeERC20} from \"openzeppelin-solidity/contracts/token/ERC20/SafeERC20.sol\";\nimport {Ownable} from \"openzeppelin-solidity/contracts/access/Ownable.sol\";\nimport {BridgedToken} from \"./BridgedToken.sol\";\n\ncontract HarmonyBridge is Ownable {\n    using RLPReader for RLPReader.RLPItem;\n    using RLPReader for bytes;\n    using SafeERC20 for IERC20;\n\n    event TokenMapReq(\n        address indexed tokenReq,\n        uint8 indexed decimals,\n        string name,\n        string symbol\n    );\n    bytes32 constant TokenMapReqEventSig =\n        keccak256(\"TokenMapReq(address,uint8,string,string)\");\n    event TokenMapAck(address indexed tokenReq, address indexed tokenAck);\n    bytes32 constant TokenMapAckEventSig =\n        keccak256(\"TokenMapAck(address,address)\");\n    event Locked(\n        address indexed token,\n        address indexed sender,\n        uint256 amount,\n        address recipient\n    );\n    bytes32 constant lockEventSig =\n        keccak256(\"Locked(address,address,uint256,address)\");\n    event Burn(\n        address indexed token,\n        address indexed sender,\n        uint256 amount,\n        address recipient\n    );\n    bytes32 constant burnEventSig =\n        keccak256(\"Burn(address,address,uint256,address)\");\n\n    address public otherSideBridge;\n    EthereumLightClient public lightclient;\n\n    IERC20[] public TxTokens; // thisSide locked ERC20 list\n    BridgedToken[] public RxTokens; // bridged token list, keys of\n\n    // TX means token issued in this chain, and cross to another chain\n    mapping(address => address) public TxMapped; // thisSide locked => otherSide mint\n    mapping(address => IERC20) public TxMappedInv; // inverse KV\n\n    // RX means token issued in another chain, and cross to this chain.\n    mapping(address => BridgedToken) public RxMapped; // otherSide locked => thisSide mint\n    mapping(address => address) public RxMappedInv; // inverse KV\n\n    mapping(bytes32 => bool) public spentReceipt;\n\n    function getRainbowSize() external view returns (uint256, uint256) {\n        return (TxTokens.length, RxTokens.length);\n    }\n\n    function changeLightClient(EthereumLightClient newClient)\n        external\n        onlyOwner\n    {\n        lightclient = newClient;\n    }\n\n    function Bind(address otherSide) external onlyOwner {\n        otherSideBridge = otherSide;\n    }\n\n    function RainbowMap(ERC20 thisSideToken) external returns (address) {\n        require(\n            TxMapped[address(thisSideToken)] == address(0),\n            \"rainbow is exists\"\n        );\n        ERC20 tokenDetail = thisSideToken;\n        emit TokenMapReq(\n            address(thisSideToken),\n            tokenDetail.decimals(),\n            tokenDetail.name(),\n            tokenDetail.symbol()\n        );\n    }\n\n    function RainbowBack(\n        BridgedToken token,\n        address recipient,\n        uint256 amount\n    ) external {\n        require(recipient != address(0), \"Locker/recipient is a zero address\");\n        require(\n            RxMappedInv[address(token)] != address(0),\n            \"bridge isn't exist\"\n        );\n        token.burnFrom(msg.sender, amount);\n        emit Burn(address(token), msg.sender, amount, recipient);\n    }\n\n    function RainbowTo(\n        IERC20 token,\n        address recipient,\n        uint256 amount\n    ) external {\n        require(recipient != address(0), \"Locker/recipient is a zero address\");\n        require(TxMapped[address(token)] != address(0), \"bridge isn't exist\");\n        token.safeTransferFrom(msg.sender, address(this), amount);\n        emit Locked(address(token), msg.sender, amount, recipient);\n    }\n\n    function ExecProof(\n        uint256 blockNo,\n        bytes32 rootHash,\n        bytes calldata mptkey,\n        bytes calldata proof\n    ) external {\n        bytes32 blockHash = bytes32(lightclient.blocksByHeight(blockNo, 0));\n        require(\n            lightclient.VerifyReceiptsHash(blockHash, rootHash),\n            \"wrong receipt hash\"\n        );\n        bytes32 receiptHash = keccak256(\n            abi.encodePacked(blockHash, rootHash, mptkey)\n        );\n        require(spentReceipt[receiptHash] == false, \"double spent!\");\n        bytes memory rlpdata = EthereumProver.MPTProof(rootHash, mptkey, proof); // double spending check\n        spentReceipt[receiptHash] = true;\n        uint256 events = receiptVerify(rlpdata);\n        require(events > 0, \"no valid event\");\n    }\n\n    function receiptVerify(bytes memory rlpdata)\n        private\n        returns (uint256 events)\n    {\n        RLPReader.RLPItem memory stacks = rlpdata.toRlpItem();\n        RLPReader.RLPItem[] memory receipt = stacks.toList();\n        // TODO: check txs is revert or not\n        uint256 PostStateOrStatus = receipt[0].toUint();\n        require(PostStateOrStatus == 1, \"revert receipt\");\n        //uint CumulativeGasUsed = receipt[1].toUint();\n        //bytes memory Bloom = receipt[2].toBytes();\n        RLPReader.RLPItem[] memory Logs = receipt[3].toList();\n        for (uint256 i = 0; i < Logs.length; i++) {\n            RLPReader.RLPItem[] memory rlpLog = Logs[i].toList();\n            address Address = rlpLog[0].toAddress();\n            if (Address != otherSideBridge) continue;\n            RLPReader.RLPItem[] memory Topics = rlpLog[1].toList(); // TODO: if is lock event\n            bytes32[] memory topics = new bytes32[](Topics.length);\n            for (uint256 j = 0; j < Topics.length; j++) {\n                topics[j] = bytes32(Topics[j].toUint());\n            }\n            bytes memory Data = rlpLog[2].toBytes();\n            if (topics[0] == lockEventSig) {\n                onLockEvent(topics, Data);\n                events++;\n                continue;\n            }\n            if (topics[0] == burnEventSig) {\n                onBurnEvent(topics, Data);\n                events++;\n                continue;\n            }\n            if (topics[0] == TokenMapReqEventSig) {\n                onTokenMapReqEvent(topics, Data);\n                events++;\n                continue;\n            }\n            if (topics[0] == TokenMapAckEventSig) {\n                onTokenMapAckEvent(topics, Data);\n                events++;\n                continue;\n            }\n        }\n    }\n\n    function onBurnEvent(bytes32[] memory topics, bytes memory Data) private {\n        address token = address(uint160(uint256(topics[1])));\n        //address sender = address(uint160(uint256(topics[2])));\n        (uint256 amount, address recipient) = abi.decode(\n            Data,\n            (uint256, address)\n        );\n        IERC20 lockedToken = TxMappedInv[token];\n        lockedToken.safeTransfer(recipient, amount);\n    }\n\n    function onLockEvent(bytes32[] memory topics, bytes memory Data) private {\n        address token = address(uint160(uint256(topics[1])));\n        //address sender = address(uint160(uint256(topics[2])));\n        (uint256 amount, address recipient) = abi.decode(\n            Data,\n            (uint256, address)\n        );\n        BridgedToken mintToken = RxMapped[token];\n        require(address(mintToken) != address(0));\n        mintToken.mint(recipient, amount);\n    }\n\n    function onTokenMapReqEvent(bytes32[] memory topics, bytes memory Data)\n        private\n    {\n        // event TokenMapReq(address indexed tokenReq, uint256 decimals, string name, string symbol);\n        address tokenReq = address(uint160(uint256(topics[1])));\n        require(\n            address(RxMapped[tokenReq]) == address(0),\n            \"bridge already exist\"\n        );\n        uint8 decimals = uint8(uint256(topics[2]));\n        (string memory name, string memory symbol) = abi.decode(\n            Data,\n            (string, string)\n        );\n        bytes32 salt = bytes32(uint256(uint160(tokenReq)));\n        BridgedToken mintAddress = new BridgedToken{salt: salt}(\n            name,\n            symbol,\n            decimals\n        );\n        RxMappedInv[address(mintAddress)] = tokenReq;\n        RxMapped[tokenReq] = mintAddress;\n        RxTokens.push(mintAddress);\n        emit TokenMapAck(tokenReq, address(mintAddress));\n    }\n\n    function onTokenMapAckEvent(bytes32[] memory topics, bytes memory Data)\n        private\n    {\n        // event TokenMapAck(address indexed tokenReq, address indexed tokenAck);\n        Data;\n        address tokenReq = address(uint160(uint256(topics[1])));\n        address tokenAck = address(uint160(uint256(topics[2])));\n        require(TxMapped[tokenReq] == address(0), \"impossible ack\"); // just check, shouldn't happen\n        TxMapped[tokenReq] = tokenAck;\n        TxMappedInv[tokenAck] = IERC20(tokenReq);\n        TxTokens.push(IERC20(tokenReq));\n    }\n}\n",
  "sourcePath": "/Users/gupadhyaya/go/src/github.com/harmony-one/horizon/contracts/HarmonyBridge.sol",
  "compiler": {
    "name": "solc",
    "version": "0.7.3+commit.9bfce1f6.Emscripten.clang"
  },
  "schemaVersion": "3.4.1",
  "updatedAt": "2021-08-18T20:46:44.662Z",
  "devdoc": {
    "kind": "dev",
    "methods": {
      "owner()": {
        "details": "Returns the address of the current owner."
      },
      "renounceOwnership()": {
        "details": "Leaves the contract without owner. It will not be possible to call `onlyOwner` functions anymore. Can only be called by the current owner. NOTE: Renouncing ownership will leave the contract without an owner, thereby removing any functionality that is only available to the owner."
      },
      "transferOwnership(address)": {
        "details": "Transfers ownership of the contract to a new account (`newOwner`). Can only be called by the current owner."
      }
    },
    "version": 1
  },
  "userdoc": {
    "kind": "user",
    "methods": {},
    "version": 1
  }
}