{
  "contractName": "HarmonyLightClient",
  "abi": [
    {
      "inputs": [],
      "name": "blockHash",
      "outputs": [
        {
          "internalType": "uint256",
          "name": "",
          "type": "uint256"
        }
      ],
      "stateMutability": "view",
      "type": "function"
    },
    {
      "inputs": [],
      "name": "blockHash1",
      "outputs": [
        {
          "internalType": "bytes32",
          "name": "",
          "type": "bytes32"
        }
      ],
      "stateMutability": "view",
      "type": "function"
    },
    {
      "inputs": [],
      "name": "mmrRoot",
      "outputs": [
        {
          "internalType": "bytes",
          "name": "",
          "type": "bytes"
        }
      ],
      "stateMutability": "view",
      "type": "function"
    },
    {
      "inputs": [],
      "name": "sig",
      "outputs": [
        {
          "internalType": "bytes",
          "name": "",
          "type": "bytes"
        }
      ],
      "stateMutability": "view",
      "type": "function"
    },
    {
      "inputs": [],
      "name": "status",
      "outputs": [
        {
          "internalType": "bool",
          "name": "",
          "type": "bool"
        }
      ],
      "stateMutability": "view",
      "type": "function"
    },
    {
      "inputs": [
        {
          "internalType": "bytes",
          "name": "rlpHeader",
          "type": "bytes"
        },
        {
          "internalType": "bytes",
          "name": "keys",
          "type": "bytes"
        }
      ],
      "name": "addBlock",
      "outputs": [],
      "stateMutability": "nonpayable",
      "type": "function"
    },
    {
      "inputs": [
        {
          "internalType": "uint256",
          "name": "number",
          "type": "uint256"
        }
      ],
      "name": "getConfirmedBlockHash",
      "outputs": [
        {
          "internalType": "bytes32",
          "name": "hash",
          "type": "bytes32"
        }
      ],
      "stateMutability": "view",
      "type": "function"
    }
  ],
  "bytecode": "0x608060405234801561001057600080fd5b50610c90806100206000396000f3fe608060405234801561001057600080fd5b506004361061007c5760003560e01c8063d21ddc611161005b578063d21ddc61146100d4578063f22a195e146100dc578063f358de12146100e4578063f975a83a146100f95761007c565b8062a7029b14610081578063200d2ed21461009f578063c6d90e2d146100b4575b600080fd5b610089610101565b6040516100969190610c07565b60405180910390f35b6100a761018f565b6040516100969190610bf3565b6100c76100c2366004610bdb565b610198565b6040516100969190610bfe565b6100896101a0565b6100c76101fb565b6100f76100f2366004610b7a565b610201565b005b6100c761025f565b6004805460408051602060026001851615610100026000190190941693909304601f810184900484028201840190925281815292918301828280156101875780601f1061015c57610100808354040283529160200191610187565b820191906000526020600020905b81548152906001019060200180831161016a57829003601f168201915b505050505081565b60015460ff1681565b60005b919050565b6000805460408051602060026001851615610100026000190190941693909304601f810184900484028201840190925281815292918301828280156101875780601f1061015c57610100808354040283529160200191610187565b60025481565b61020961094f565b61021283610265565b610320810151805191925061022d9160009160200190610a33565b5082516020808501828120600255919091206003556102408201518051610258926004920190610a33565b505b505050565b60035481565b61026d61094f565b610275610ab1565b610286610281846105eb565b610610565b905060005b6102948261065a565b156105d957806102b9576102af6102aa8361067b565b6106c9565b60208401526105d1565b80600114156102e6576102d36102ce8361067b565b610729565b6001600160a01b031660408401526105d1565b8060021415610305576102fb6102aa8361067b565b60608401526105d1565b80600314156103245761031a6102aa8361067b565b60808401526105d1565b8060041415610343576103396102aa8361067b565b60a08401526105d1565b8060051415610362576103586102aa8361067b565b60c08401526105d1565b8060061415610381576103776102aa8361067b565b60e08401526105d1565b80600714156103a65761039b6103968361067b565b610749565b6101008401526105d1565b80600814156103c6576103bb6102aa8361067b565b6101208401526105d1565b80600914156103e6576103db6102aa8361067b565b6101408401526105d1565b80600a1415610406576103fb6102aa8361067b565b6101608401526105d1565b80600b14156104265761041b6102aa8361067b565b6101808401526105d1565b80600c14156104465761043b6103968361067b565b6101a08401526105d1565b80600d14156104665761045b6102aa8361067b565b6101c08401526105d1565b80600e14156104865761047b6102aa8361067b565b6101e08401526105d1565b80600f14156104a65761049b6102aa8361067b565b6102008401526105d1565b80601014156104c6576104bb6102aa8361067b565b6102208401526105d1565b80601114156104e6576104db6103968361067b565b6102408401526105d1565b8060121415610506576104fb6103968361067b565b6102608401526105d1565b80601314156105265761051b6103968361067b565b6102808401526105d1565b80601414156105465761053b6103968361067b565b6102a08401526105d1565b80601514156105665761055b6103968361067b565b6102c08401526105d1565b80601614156105865761057b6103968361067b565b6102e08401526105d1565b80601714156105a65761059b6103968361067b565b6103008401526105d1565b80601814156105c6576105bb6103968361067b565b6103208401526105d1565b6105cf8261067b565b505b60010161028b565b50508151602090920191909120815290565b6105f3610ad1565b506040805180820190915281518152602082810190820152919050565b610618610ab1565b610621826107ce565b61062a57600080fd5b60006106398360200151610808565b60208085015160408051808201909152868152920190820152915050919050565b6000610664610ad1565b505080518051602091820151919092015191011190565b610683610ad1565b61068c8261065a565b61069557600080fd5b602082015160006106a58261086b565b80830160209586015260408051808201909152908152938401919091525090919050565b8051600090158015906106de57508151602110155b6106e757600080fd5b60006106f68360200151610808565b8351602080860151830180519394509184900392919083101561072057826020036101000a820491505b50949350505050565b805160009060151461073a57600080fd5b610743826106c9565b92915050565b805160609061075757600080fd5b60006107668360200151610808565b835190915081900360608167ffffffffffffffff8111801561078757600080fd5b506040519080825280601f01601f1916602001820160405280156107b2576020820181803683370190505b5090506000816020019050610720848760200151018285610904565b80516000906107df5750600061019b565b6020820151805160001a9060c08210156107fe5760009250505061019b565b5060019392505050565b8051600090811a608081101561082257600091505061019b565b60b881108061083d575060c0811080159061083d575060f881105b1561084c57600191505061019b565b60c08110156108605760b51901905061019b565b60f51901905061019b565b80516000908190811a608081101561088657600191506108fd565b60b881101561089b57607e19810191506108fd565b60c08110156108c85760b78103600185019450806020036101000a855104600182018101935050506108fd565b60f88110156108dd5760be19810191506108fd565b60f78103600185019450806020036101000a855104600182018101935050505b5092915050565b8061090e5761025a565b5b6020811061092e578251825260209283019290910190601f190161090f565b915181516020939093036101000a6000190180199091169216919091179052565b604051806103400160405280600080191681526020016000801916815260200160006001600160a01b0316815260200160008019168152602001600080191681526020016000801916815260200160008019168152602001600080191681526020016060815260200160008152602001600081526020016000815260200160008152602001606081526020016000801916815260200160008152602001600081526020016000815260200160608152602001606081526020016060815260200160608152602001606081526020016060815260200160608152602001606081525090565b828054600181600116156101000203166002900490600052602060002090601f016020900481019282601f10610a7457805160ff1916838001178555610aa1565b82800160010185558215610aa1579182015b82811115610aa1578251825591602001919060010190610a86565b50610aad929150610aeb565b5090565b6040518060400160405280610ac4610ad1565b8152602001600081525090565b604051806040016040528060008152602001600081525090565b5b80821115610aad5760008155600101610aec565b600082601f830112610b10578081fd5b813567ffffffffffffffff80821115610b2557fe5b604051601f8301601f191681016020018281118282101715610b4357fe5b604052828152925082848301602001861015610b5e57600080fd5b8260208601602083013760006020848301015250505092915050565b60008060408385031215610b8c578182fd5b823567ffffffffffffffff80821115610ba3578384fd5b610baf86838701610b00565b93506020850135915080821115610bc4578283fd5b50610bd185828601610b00565b9150509250929050565b600060208284031215610bec578081fd5b5035919050565b901515815260200190565b90815260200190565b6000602080835283518082850152825b81811015610c3357858101830151858201604001528201610c17565b81811115610c445783604083870101525b50601f01601f191692909201604001939250505056fea2646970667358221220ded34cd01c488c1f0d08519b0e32954ca07b9758ede771cc6581dd38234cd7d064736f6c63430007030033",
  "immutableReferences": {},
  "source": "// SPDX-License-Identifier: UNLICENSED\npragma solidity ^0.7;\npragma experimental ABIEncoderV2;\n\nimport \"./HarmonyParser.sol\";\n\ninterface IHarmonyLightClient {\n    // function blockHashes(uint64 blockNumber) external view returns (bytes32);\n    function getConfirmedBlockHash(uint256 number) view external returns (bytes32 hash);\n}\n\ncontract HarmonyLightClient is IHarmonyLightClient {\n    bytes public mmrRoot;\n    bool public status;\n    uint256 public blockHash;\n    bytes32 public blockHash1;\n    bytes public sig;\n\n    function addBlock(bytes memory rlpHeader, bytes memory keys) public {\n        HarmonyParser.BlockHeader memory header = HarmonyParser.toBlockHeader(rlpHeader);\n        mmrRoot = header.mmrRoot;\n        blockHash = uint256(keccak256(rlpHeader));\n        blockHash1 = keccak256(rlpHeader);\n        sig = header.lastCommitSignature;\n\n        // epoch block\n        if (header.shardState.length > 0) {}\n    }\n\n    function getConfirmedBlockHash(uint256 number)\n        public\n        view\n        override\n        returns (bytes32 hash)\n    {\n        // return number <= lastConfirmed ? blockHashes[number] : bytes32(0);\n        return bytes32(0);\n    }\n}\n",
  "sourcePath": "/Users/gupadhyaya/go/src/github.com/harmony-one/horizon/contracts/HarmonyLightClient.sol",
  "compiler": {
    "name": "solc",
    "version": "0.7.3+commit.9bfce1f6.Emscripten.clang"
  },
  "schemaVersion": "3.4.1",
  "updatedAt": "2021-07-21T20:39:02.172Z",
  "devdoc": {
    "kind": "dev",
    "methods": {},
    "version": 1
  },
  "userdoc": {
    "kind": "user",
    "methods": {},
    "version": 1
  }
}