{
  "contractName": "HarmonyProver",
  "abi": [
    {
      "inputs": [
        {
          "internalType": "address",
          "name": "lightClient",
          "type": "address"
        }
      ],
      "stateMutability": "nonpayable",
      "type": "constructor"
    },
    {
      "inputs": [],
      "name": "client",
      "outputs": [
        {
          "internalType": "contract HarmonyLightClient",
          "name": "",
          "type": "address"
        }
      ],
      "stateMutability": "view",
      "type": "function"
    },
    {
      "inputs": [],
      "name": "lightClient",
      "outputs": [
        {
          "internalType": "address",
          "name": "_lightClient",
          "type": "address"
        }
      ],
      "stateMutability": "view",
      "type": "function"
    },
    {
      "inputs": [
        {
          "components": [
            {
              "internalType": "bytes32",
              "name": "expectedRoot",
              "type": "bytes32"
            },
            {
              "internalType": "bytes",
              "name": "key",
              "type": "bytes"
            },
            {
              "internalType": "bytes[]",
              "name": "proof",
              "type": "bytes[]"
            },
            {
              "internalType": "uint256",
              "name": "keyIndex",
              "type": "uint256"
            },
            {
              "internalType": "uint256",
              "name": "proofIndex",
              "type": "uint256"
            },
            {
              "internalType": "bytes",
              "name": "expectedValue",
              "type": "bytes"
            }
          ],
          "internalType": "struct MPT.MerkleProof",
          "name": "data",
          "type": "tuple"
        }
      ],
      "name": "verifyTrieProof",
      "outputs": [
        {
          "internalType": "bool",
          "name": "",
          "type": "bool"
        }
      ],
      "stateMutability": "pure",
      "type": "function"
    },
    {
      "inputs": [
        {
          "components": [
            {
              "internalType": "bytes32",
              "name": "hash",
              "type": "bytes32"
            },
            {
              "internalType": "bytes32",
              "name": "parentHash",
              "type": "bytes32"
            },
            {
              "internalType": "address",
              "name": "miner",
              "type": "address"
            },
            {
              "internalType": "bytes32",
              "name": "stateRoot",
              "type": "bytes32"
            },
            {
              "internalType": "bytes32",
              "name": "transactionsRoot",
              "type": "bytes32"
            },
            {
              "internalType": "bytes32",
              "name": "receiptsRoot",
              "type": "bytes32"
            },
            {
              "internalType": "bytes32",
              "name": "outgoingReceiptsRoot",
              "type": "bytes32"
            },
            {
              "internalType": "bytes32",
              "name": "incomingReceiptsRoot",
              "type": "bytes32"
            },
            {
              "internalType": "bytes",
              "name": "logsBloom",
              "type": "bytes"
            },
            {
              "internalType": "uint256",
              "name": "number",
              "type": "uint256"
            },
            {
              "internalType": "uint256",
              "name": "gasLimit",
              "type": "uint256"
            },
            {
              "internalType": "uint256",
              "name": "gasUsed",
              "type": "uint256"
            },
            {
              "internalType": "uint256",
              "name": "timestamp",
              "type": "uint256"
            },
            {
              "internalType": "bytes",
              "name": "extraData",
              "type": "bytes"
            },
            {
              "internalType": "bytes32",
              "name": "mixHash",
              "type": "bytes32"
            },
            {
              "internalType": "uint256",
              "name": "viewID",
              "type": "uint256"
            },
            {
              "internalType": "uint256",
              "name": "epoch",
              "type": "uint256"
            },
            {
              "internalType": "uint256",
              "name": "shardID",
              "type": "uint256"
            },
            {
              "internalType": "bytes",
              "name": "lastCommitSignature",
              "type": "bytes"
            },
            {
              "internalType": "bytes",
              "name": "lastCommitBitmap",
              "type": "bytes"
            },
            {
              "internalType": "bytes",
              "name": "vrf",
              "type": "bytes"
            },
            {
              "internalType": "bytes",
              "name": "vdf",
              "type": "bytes"
            },
            {
              "internalType": "bytes",
              "name": "shardState",
              "type": "bytes"
            },
            {
              "internalType": "bytes",
              "name": "crossLink",
              "type": "bytes"
            },
            {
              "internalType": "bytes",
              "name": "slashes",
              "type": "bytes"
            },
            {
              "internalType": "bytes",
              "name": "mmrRoot",
              "type": "bytes"
            }
          ],
          "internalType": "struct HarmonyParser.BlockHeader",
          "name": "header",
          "type": "tuple"
        }
      ],
      "name": "verifyHeader",
      "outputs": [
        {
          "internalType": "bool",
          "name": "valid",
          "type": "bool"
        },
        {
          "internalType": "string",
          "name": "reason",
          "type": "string"
        }
      ],
      "stateMutability": "view",
      "type": "function"
    },
    {
      "inputs": [
        {
          "components": [
            {
              "internalType": "bytes32",
              "name": "hash",
              "type": "bytes32"
            },
            {
              "internalType": "bytes32",
              "name": "parentHash",
              "type": "bytes32"
            },
            {
              "internalType": "address",
              "name": "miner",
              "type": "address"
            },
            {
              "internalType": "bytes32",
              "name": "stateRoot",
              "type": "bytes32"
            },
            {
              "internalType": "bytes32",
              "name": "transactionsRoot",
              "type": "bytes32"
            },
            {
              "internalType": "bytes32",
              "name": "receiptsRoot",
              "type": "bytes32"
            },
            {
              "internalType": "bytes32",
              "name": "outgoingReceiptsRoot",
              "type": "bytes32"
            },
            {
              "internalType": "bytes32",
              "name": "incomingReceiptsRoot",
              "type": "bytes32"
            },
            {
              "internalType": "bytes",
              "name": "logsBloom",
              "type": "bytes"
            },
            {
              "internalType": "uint256",
              "name": "number",
              "type": "uint256"
            },
            {
              "internalType": "uint256",
              "name": "gasLimit",
              "type": "uint256"
            },
            {
              "internalType": "uint256",
              "name": "gasUsed",
              "type": "uint256"
            },
            {
              "internalType": "uint256",
              "name": "timestamp",
              "type": "uint256"
            },
            {
              "internalType": "bytes",
              "name": "extraData",
              "type": "bytes"
            },
            {
              "internalType": "bytes32",
              "name": "mixHash",
              "type": "bytes32"
            },
            {
              "internalType": "uint256",
              "name": "viewID",
              "type": "uint256"
            },
            {
              "internalType": "uint256",
              "name": "epoch",
              "type": "uint256"
            },
            {
              "internalType": "uint256",
              "name": "shardID",
              "type": "uint256"
            },
            {
              "internalType": "bytes",
              "name": "lastCommitSignature",
              "type": "bytes"
            },
            {
              "internalType": "bytes",
              "name": "lastCommitBitmap",
              "type": "bytes"
            },
            {
              "internalType": "bytes",
              "name": "vrf",
              "type": "bytes"
            },
            {
              "internalType": "bytes",
              "name": "vdf",
              "type": "bytes"
            },
            {
              "internalType": "bytes",
              "name": "shardState",
              "type": "bytes"
            },
            {
              "internalType": "bytes",
              "name": "crossLink",
              "type": "bytes"
            },
            {
              "internalType": "bytes",
              "name": "slashes",
              "type": "bytes"
            },
            {
              "internalType": "bytes",
              "name": "mmrRoot",
              "type": "bytes"
            }
          ],
          "internalType": "struct HarmonyParser.BlockHeader",
          "name": "header",
          "type": "tuple"
        },
        {
          "components": [
            {
              "internalType": "bytes32",
              "name": "expectedRoot",
              "type": "bytes32"
            },
            {
              "internalType": "bytes",
              "name": "key",
              "type": "bytes"
            },
            {
              "internalType": "bytes[]",
              "name": "proof",
              "type": "bytes[]"
            },
            {
              "internalType": "uint256",
              "name": "keyIndex",
              "type": "uint256"
            },
            {
              "internalType": "uint256",
              "name": "proofIndex",
              "type": "uint256"
            },
            {
              "internalType": "bytes",
              "name": "expectedValue",
              "type": "bytes"
            }
          ],
          "internalType": "struct MPT.MerkleProof",
          "name": "txdata",
          "type": "tuple"
        }
      ],
      "name": "verifyTransaction",
      "outputs": [
        {
          "internalType": "bool",
          "name": "valid",
          "type": "bool"
        },
        {
          "internalType": "string",
          "name": "reason",
          "type": "string"
        }
      ],
      "stateMutability": "pure",
      "type": "function"
    },
    {
      "inputs": [
        {
          "components": [
            {
              "internalType": "bytes32",
              "name": "hash",
              "type": "bytes32"
            },
            {
              "internalType": "bytes32",
              "name": "parentHash",
              "type": "bytes32"
            },
            {
              "internalType": "address",
              "name": "miner",
              "type": "address"
            },
            {
              "internalType": "bytes32",
              "name": "stateRoot",
              "type": "bytes32"
            },
            {
              "internalType": "bytes32",
              "name": "transactionsRoot",
              "type": "bytes32"
            },
            {
              "internalType": "bytes32",
              "name": "receiptsRoot",
              "type": "bytes32"
            },
            {
              "internalType": "bytes32",
              "name": "outgoingReceiptsRoot",
              "type": "bytes32"
            },
            {
              "internalType": "bytes32",
              "name": "incomingReceiptsRoot",
              "type": "bytes32"
            },
            {
              "internalType": "bytes",
              "name": "logsBloom",
              "type": "bytes"
            },
            {
              "internalType": "uint256",
              "name": "number",
              "type": "uint256"
            },
            {
              "internalType": "uint256",
              "name": "gasLimit",
              "type": "uint256"
            },
            {
              "internalType": "uint256",
              "name": "gasUsed",
              "type": "uint256"
            },
            {
              "internalType": "uint256",
              "name": "timestamp",
              "type": "uint256"
            },
            {
              "internalType": "bytes",
              "name": "extraData",
              "type": "bytes"
            },
            {
              "internalType": "bytes32",
              "name": "mixHash",
              "type": "bytes32"
            },
            {
              "internalType": "uint256",
              "name": "viewID",
              "type": "uint256"
            },
            {
              "internalType": "uint256",
              "name": "epoch",
              "type": "uint256"
            },
            {
              "internalType": "uint256",
              "name": "shardID",
              "type": "uint256"
            },
            {
              "internalType": "bytes",
              "name": "lastCommitSignature",
              "type": "bytes"
            },
            {
              "internalType": "bytes",
              "name": "lastCommitBitmap",
              "type": "bytes"
            },
            {
              "internalType": "bytes",
              "name": "vrf",
              "type": "bytes"
            },
            {
              "internalType": "bytes",
              "name": "vdf",
              "type": "bytes"
            },
            {
              "internalType": "bytes",
              "name": "shardState",
              "type": "bytes"
            },
            {
              "internalType": "bytes",
              "name": "crossLink",
              "type": "bytes"
            },
            {
              "internalType": "bytes",
              "name": "slashes",
              "type": "bytes"
            },
            {
              "internalType": "bytes",
              "name": "mmrRoot",
              "type": "bytes"
            }
          ],
          "internalType": "struct HarmonyParser.BlockHeader",
          "name": "header",
          "type": "tuple"
        },
        {
          "components": [
            {
              "internalType": "bytes32",
              "name": "expectedRoot",
              "type": "bytes32"
            },
            {
              "internalType": "bytes",
              "name": "key",
              "type": "bytes"
            },
            {
              "internalType": "bytes[]",
              "name": "proof",
              "type": "bytes[]"
            },
            {
              "internalType": "uint256",
              "name": "keyIndex",
              "type": "uint256"
            },
            {
              "internalType": "uint256",
              "name": "proofIndex",
              "type": "uint256"
            },
            {
              "internalType": "bytes",
              "name": "expectedValue",
              "type": "bytes"
            }
          ],
          "internalType": "struct MPT.MerkleProof",
          "name": "receiptdata",
          "type": "tuple"
        }
      ],
      "name": "verifyReceipt",
      "outputs": [
        {
          "internalType": "bool",
          "name": "valid",
          "type": "bool"
        },
        {
          "internalType": "string",
          "name": "reason",
          "type": "string"
        }
      ],
      "stateMutability": "pure",
      "type": "function"
    },
    {
      "inputs": [
        {
          "components": [
            {
              "internalType": "bytes32",
              "name": "hash",
              "type": "bytes32"
            },
            {
              "internalType": "bytes32",
              "name": "parentHash",
              "type": "bytes32"
            },
            {
              "internalType": "address",
              "name": "miner",
              "type": "address"
            },
            {
              "internalType": "bytes32",
              "name": "stateRoot",
              "type": "bytes32"
            },
            {
              "internalType": "bytes32",
              "name": "transactionsRoot",
              "type": "bytes32"
            },
            {
              "internalType": "bytes32",
              "name": "receiptsRoot",
              "type": "bytes32"
            },
            {
              "internalType": "bytes32",
              "name": "outgoingReceiptsRoot",
              "type": "bytes32"
            },
            {
              "internalType": "bytes32",
              "name": "incomingReceiptsRoot",
              "type": "bytes32"
            },
            {
              "internalType": "bytes",
              "name": "logsBloom",
              "type": "bytes"
            },
            {
              "internalType": "uint256",
              "name": "number",
              "type": "uint256"
            },
            {
              "internalType": "uint256",
              "name": "gasLimit",
              "type": "uint256"
            },
            {
              "internalType": "uint256",
              "name": "gasUsed",
              "type": "uint256"
            },
            {
              "internalType": "uint256",
              "name": "timestamp",
              "type": "uint256"
            },
            {
              "internalType": "bytes",
              "name": "extraData",
              "type": "bytes"
            },
            {
              "internalType": "bytes32",
              "name": "mixHash",
              "type": "bytes32"
            },
            {
              "internalType": "uint256",
              "name": "viewID",
              "type": "uint256"
            },
            {
              "internalType": "uint256",
              "name": "epoch",
              "type": "uint256"
            },
            {
              "internalType": "uint256",
              "name": "shardID",
              "type": "uint256"
            },
            {
              "internalType": "bytes",
              "name": "lastCommitSignature",
              "type": "bytes"
            },
            {
              "internalType": "bytes",
              "name": "lastCommitBitmap",
              "type": "bytes"
            },
            {
              "internalType": "bytes",
              "name": "vrf",
              "type": "bytes"
            },
            {
              "internalType": "bytes",
              "name": "vdf",
              "type": "bytes"
            },
            {
              "internalType": "bytes",
              "name": "shardState",
              "type": "bytes"
            },
            {
              "internalType": "bytes",
              "name": "crossLink",
              "type": "bytes"
            },
            {
              "internalType": "bytes",
              "name": "slashes",
              "type": "bytes"
            },
            {
              "internalType": "bytes",
              "name": "mmrRoot",
              "type": "bytes"
            }
          ],
          "internalType": "struct HarmonyParser.BlockHeader",
          "name": "header",
          "type": "tuple"
        },
        {
          "components": [
            {
              "internalType": "bytes32",
              "name": "expectedRoot",
              "type": "bytes32"
            },
            {
              "internalType": "bytes",
              "name": "key",
              "type": "bytes"
            },
            {
              "internalType": "bytes[]",
              "name": "proof",
              "type": "bytes[]"
            },
            {
              "internalType": "uint256",
              "name": "keyIndex",
              "type": "uint256"
            },
            {
              "internalType": "uint256",
              "name": "proofIndex",
              "type": "uint256"
            },
            {
              "internalType": "bytes",
              "name": "expectedValue",
              "type": "bytes"
            }
          ],
          "internalType": "struct MPT.MerkleProof",
          "name": "accountdata",
          "type": "tuple"
        }
      ],
      "name": "verifyAccount",
      "outputs": [
        {
          "internalType": "bool",
          "name": "valid",
          "type": "bool"
        },
        {
          "internalType": "string",
          "name": "reason",
          "type": "string"
        }
      ],
      "stateMutability": "pure",
      "type": "function"
    },
    {
      "inputs": [
        {
          "components": [
            {
              "internalType": "bytes32",
              "name": "expectedRoot",
              "type": "bytes32"
            },
            {
              "internalType": "bytes",
              "name": "key",
              "type": "bytes"
            },
            {
              "internalType": "bytes[]",
              "name": "proof",
              "type": "bytes[]"
            },
            {
              "internalType": "uint256",
              "name": "keyIndex",
              "type": "uint256"
            },
            {
              "internalType": "uint256",
              "name": "proofIndex",
              "type": "uint256"
            },
            {
              "internalType": "bytes",
              "name": "expectedValue",
              "type": "bytes"
            }
          ],
          "internalType": "struct MPT.MerkleProof",
          "name": "receiptdata",
          "type": "tuple"
        },
        {
          "internalType": "bytes",
          "name": "logdata",
          "type": "bytes"
        },
        {
          "internalType": "uint256",
          "name": "logIndex",
          "type": "uint256"
        }
      ],
      "name": "verifyLog",
      "outputs": [
        {
          "internalType": "bool",
          "name": "valid",
          "type": "bool"
        },
        {
          "internalType": "string",
          "name": "reason",
          "type": "string"
        }
      ],
      "stateMutability": "pure",
      "type": "function"
    },
    {
      "inputs": [
        {
          "components": [
            {
              "internalType": "bytes32",
              "name": "hash",
              "type": "bytes32"
            },
            {
              "internalType": "bytes32",
              "name": "parentHash",
              "type": "bytes32"
            },
            {
              "internalType": "address",
              "name": "miner",
              "type": "address"
            },
            {
              "internalType": "bytes32",
              "name": "stateRoot",
              "type": "bytes32"
            },
            {
              "internalType": "bytes32",
              "name": "transactionsRoot",
              "type": "bytes32"
            },
            {
              "internalType": "bytes32",
              "name": "receiptsRoot",
              "type": "bytes32"
            },
            {
              "internalType": "bytes32",
              "name": "outgoingReceiptsRoot",
              "type": "bytes32"
            },
            {
              "internalType": "bytes32",
              "name": "incomingReceiptsRoot",
              "type": "bytes32"
            },
            {
              "internalType": "bytes",
              "name": "logsBloom",
              "type": "bytes"
            },
            {
              "internalType": "uint256",
              "name": "number",
              "type": "uint256"
            },
            {
              "internalType": "uint256",
              "name": "gasLimit",
              "type": "uint256"
            },
            {
              "internalType": "uint256",
              "name": "gasUsed",
              "type": "uint256"
            },
            {
              "internalType": "uint256",
              "name": "timestamp",
              "type": "uint256"
            },
            {
              "internalType": "bytes",
              "name": "extraData",
              "type": "bytes"
            },
            {
              "internalType": "bytes32",
              "name": "mixHash",
              "type": "bytes32"
            },
            {
              "internalType": "uint256",
              "name": "viewID",
              "type": "uint256"
            },
            {
              "internalType": "uint256",
              "name": "epoch",
              "type": "uint256"
            },
            {
              "internalType": "uint256",
              "name": "shardID",
              "type": "uint256"
            },
            {
              "internalType": "bytes",
              "name": "lastCommitSignature",
              "type": "bytes"
            },
            {
              "internalType": "bytes",
              "name": "lastCommitBitmap",
              "type": "bytes"
            },
            {
              "internalType": "bytes",
              "name": "vrf",
              "type": "bytes"
            },
            {
              "internalType": "bytes",
              "name": "vdf",
              "type": "bytes"
            },
            {
              "internalType": "bytes",
              "name": "shardState",
              "type": "bytes"
            },
            {
              "internalType": "bytes",
              "name": "crossLink",
              "type": "bytes"
            },
            {
              "internalType": "bytes",
              "name": "slashes",
              "type": "bytes"
            },
            {
              "internalType": "bytes",
              "name": "mmrRoot",
              "type": "bytes"
            }
          ],
          "internalType": "struct HarmonyParser.BlockHeader",
          "name": "header",
          "type": "tuple"
        },
        {
          "components": [
            {
              "internalType": "bytes32",
              "name": "expectedRoot",
              "type": "bytes32"
            },
            {
              "internalType": "bytes",
              "name": "key",
              "type": "bytes"
            },
            {
              "internalType": "bytes[]",
              "name": "proof",
              "type": "bytes[]"
            },
            {
              "internalType": "uint256",
              "name": "keyIndex",
              "type": "uint256"
            },
            {
              "internalType": "uint256",
              "name": "proofIndex",
              "type": "uint256"
            },
            {
              "internalType": "bytes",
              "name": "expectedValue",
              "type": "bytes"
            }
          ],
          "internalType": "struct MPT.MerkleProof",
          "name": "receiptdata",
          "type": "tuple"
        }
      ],
      "name": "verifyTransactionAndStatus",
      "outputs": [
        {
          "internalType": "bool",
          "name": "valid",
          "type": "bool"
        },
        {
          "internalType": "string",
          "name": "reason",
          "type": "string"
        }
      ],
      "stateMutability": "pure",
      "type": "function"
    },
    {
      "inputs": [
        {
          "components": [
            {
              "internalType": "bytes32",
              "name": "hash",
              "type": "bytes32"
            },
            {
              "internalType": "bytes32",
              "name": "parentHash",
              "type": "bytes32"
            },
            {
              "internalType": "address",
              "name": "miner",
              "type": "address"
            },
            {
              "internalType": "bytes32",
              "name": "stateRoot",
              "type": "bytes32"
            },
            {
              "internalType": "bytes32",
              "name": "transactionsRoot",
              "type": "bytes32"
            },
            {
              "internalType": "bytes32",
              "name": "receiptsRoot",
              "type": "bytes32"
            },
            {
              "internalType": "bytes32",
              "name": "outgoingReceiptsRoot",
              "type": "bytes32"
            },
            {
              "internalType": "bytes32",
              "name": "incomingReceiptsRoot",
              "type": "bytes32"
            },
            {
              "internalType": "bytes",
              "name": "logsBloom",
              "type": "bytes"
            },
            {
              "internalType": "uint256",
              "name": "number",
              "type": "uint256"
            },
            {
              "internalType": "uint256",
              "name": "gasLimit",
              "type": "uint256"
            },
            {
              "internalType": "uint256",
              "name": "gasUsed",
              "type": "uint256"
            },
            {
              "internalType": "uint256",
              "name": "timestamp",
              "type": "uint256"
            },
            {
              "internalType": "bytes",
              "name": "extraData",
              "type": "bytes"
            },
            {
              "internalType": "bytes32",
              "name": "mixHash",
              "type": "bytes32"
            },
            {
              "internalType": "uint256",
              "name": "viewID",
              "type": "uint256"
            },
            {
              "internalType": "uint256",
              "name": "epoch",
              "type": "uint256"
            },
            {
              "internalType": "uint256",
              "name": "shardID",
              "type": "uint256"
            },
            {
              "internalType": "bytes",
              "name": "lastCommitSignature",
              "type": "bytes"
            },
            {
              "internalType": "bytes",
              "name": "lastCommitBitmap",
              "type": "bytes"
            },
            {
              "internalType": "bytes",
              "name": "vrf",
              "type": "bytes"
            },
            {
              "internalType": "bytes",
              "name": "vdf",
              "type": "bytes"
            },
            {
              "internalType": "bytes",
              "name": "shardState",
              "type": "bytes"
            },
            {
              "internalType": "bytes",
              "name": "crossLink",
              "type": "bytes"
            },
            {
              "internalType": "bytes",
              "name": "slashes",
              "type": "bytes"
            },
            {
              "internalType": "bytes",
              "name": "mmrRoot",
              "type": "bytes"
            }
          ],
          "internalType": "struct HarmonyParser.BlockHeader",
          "name": "header",
          "type": "tuple"
        },
        {
          "components": [
            {
              "internalType": "bytes32",
              "name": "expectedRoot",
              "type": "bytes32"
            },
            {
              "internalType": "bytes",
              "name": "key",
              "type": "bytes"
            },
            {
              "internalType": "bytes[]",
              "name": "proof",
              "type": "bytes[]"
            },
            {
              "internalType": "uint256",
              "name": "keyIndex",
              "type": "uint256"
            },
            {
              "internalType": "uint256",
              "name": "proofIndex",
              "type": "uint256"
            },
            {
              "internalType": "bytes",
              "name": "expectedValue",
              "type": "bytes"
            }
          ],
          "internalType": "struct MPT.MerkleProof",
          "name": "accountdata",
          "type": "tuple"
        }
      ],
      "name": "verifyCode",
      "outputs": [
        {
          "internalType": "bool",
          "name": "valid",
          "type": "bool"
        },
        {
          "internalType": "string",
          "name": "reason",
          "type": "string"
        }
      ],
      "stateMutability": "pure",
      "type": "function"
    },
    {
      "inputs": [
        {
          "components": [
            {
              "internalType": "bytes32",
              "name": "expectedRoot",
              "type": "bytes32"
            },
            {
              "internalType": "bytes",
              "name": "key",
              "type": "bytes"
            },
            {
              "internalType": "bytes[]",
              "name": "proof",
              "type": "bytes[]"
            },
            {
              "internalType": "uint256",
              "name": "keyIndex",
              "type": "uint256"
            },
            {
              "internalType": "uint256",
              "name": "proofIndex",
              "type": "uint256"
            },
            {
              "internalType": "bytes",
              "name": "expectedValue",
              "type": "bytes"
            }
          ],
          "internalType": "struct MPT.MerkleProof",
          "name": "accountProof",
          "type": "tuple"
        },
        {
          "components": [
            {
              "internalType": "bytes32",
              "name": "expectedRoot",
              "type": "bytes32"
            },
            {
              "internalType": "bytes",
              "name": "key",
              "type": "bytes"
            },
            {
              "internalType": "bytes[]",
              "name": "proof",
              "type": "bytes[]"
            },
            {
              "internalType": "uint256",
              "name": "keyIndex",
              "type": "uint256"
            },
            {
              "internalType": "uint256",
              "name": "proofIndex",
              "type": "uint256"
            },
            {
              "internalType": "bytes",
              "name": "expectedValue",
              "type": "bytes"
            }
          ],
          "internalType": "struct MPT.MerkleProof",
          "name": "storageProof",
          "type": "tuple"
        }
      ],
      "name": "verifyStorage",
      "outputs": [
        {
          "internalType": "bool",
          "name": "valid",
          "type": "bool"
        },
        {
          "internalType": "string",
          "name": "reason",
          "type": "string"
        }
      ],
      "stateMutability": "pure",
      "type": "function"
    },
    {
      "inputs": [
        {
          "components": [
            {
              "internalType": "bytes32",
              "name": "expectedRoot",
              "type": "bytes32"
            },
            {
              "internalType": "bytes",
              "name": "key",
              "type": "bytes"
            },
            {
              "internalType": "bytes[]",
              "name": "proof",
              "type": "bytes[]"
            },
            {
              "internalType": "uint256",
              "name": "keyIndex",
              "type": "uint256"
            },
            {
              "internalType": "uint256",
              "name": "proofIndex",
              "type": "uint256"
            },
            {
              "internalType": "bytes",
              "name": "expectedValue",
              "type": "bytes"
            }
          ],
          "internalType": "struct MPT.MerkleProof",
          "name": "txdata",
          "type": "tuple"
        },
        {
          "internalType": "uint256",
          "name": "chainId",
          "type": "uint256"
        }
      ],
      "name": "getTransactionSender",
      "outputs": [
        {
          "internalType": "address",
          "name": "sender",
          "type": "address"
        }
      ],
      "stateMutability": "pure",
      "type": "function"
    },
    {
      "inputs": [
        {
          "internalType": "bytes",
          "name": "signedTransaction",
          "type": "bytes"
        }
      ],
      "name": "getTransactionHash",
      "outputs": [
        {
          "internalType": "bytes32",
          "name": "hash",
          "type": "bytes32"
        }
      ],
      "stateMutability": "pure",
      "type": "function"
    },
    {
      "inputs": [
        {
          "components": [
            {
              "internalType": "bytes32",
              "name": "hash",
              "type": "bytes32"
            },
            {
              "internalType": "bytes32",
              "name": "parentHash",
              "type": "bytes32"
            },
            {
              "internalType": "address",
              "name": "miner",
              "type": "address"
            },
            {
              "internalType": "bytes32",
              "name": "stateRoot",
              "type": "bytes32"
            },
            {
              "internalType": "bytes32",
              "name": "transactionsRoot",
              "type": "bytes32"
            },
            {
              "internalType": "bytes32",
              "name": "receiptsRoot",
              "type": "bytes32"
            },
            {
              "internalType": "bytes32",
              "name": "outgoingReceiptsRoot",
              "type": "bytes32"
            },
            {
              "internalType": "bytes32",
              "name": "incomingReceiptsRoot",
              "type": "bytes32"
            },
            {
              "internalType": "bytes",
              "name": "logsBloom",
              "type": "bytes"
            },
            {
              "internalType": "uint256",
              "name": "number",
              "type": "uint256"
            },
            {
              "internalType": "uint256",
              "name": "gasLimit",
              "type": "uint256"
            },
            {
              "internalType": "uint256",
              "name": "gasUsed",
              "type": "uint256"
            },
            {
              "internalType": "uint256",
              "name": "timestamp",
              "type": "uint256"
            },
            {
              "internalType": "bytes",
              "name": "extraData",
              "type": "bytes"
            },
            {
              "internalType": "bytes32",
              "name": "mixHash",
              "type": "bytes32"
            },
            {
              "internalType": "uint256",
              "name": "viewID",
              "type": "uint256"
            },
            {
              "internalType": "uint256",
              "name": "epoch",
              "type": "uint256"
            },
            {
              "internalType": "uint256",
              "name": "shardID",
              "type": "uint256"
            },
            {
              "internalType": "bytes",
              "name": "lastCommitSignature",
              "type": "bytes"
            },
            {
              "internalType": "bytes",
              "name": "lastCommitBitmap",
              "type": "bytes"
            },
            {
              "internalType": "bytes",
              "name": "vrf",
              "type": "bytes"
            },
            {
              "internalType": "bytes",
              "name": "vdf",
              "type": "bytes"
            },
            {
              "internalType": "bytes",
              "name": "shardState",
              "type": "bytes"
            },
            {
              "internalType": "bytes",
              "name": "crossLink",
              "type": "bytes"
            },
            {
              "internalType": "bytes",
              "name": "slashes",
              "type": "bytes"
            },
            {
              "internalType": "bytes",
              "name": "mmrRoot",
              "type": "bytes"
            }
          ],
          "internalType": "struct HarmonyParser.BlockHeader",
          "name": "header",
          "type": "tuple"
        }
      ],
      "name": "getBlockHash",
      "outputs": [
        {
          "internalType": "bytes32",
          "name": "hash",
          "type": "bytes32"
        }
      ],
      "stateMutability": "pure",
      "type": "function"
    },
    {
      "inputs": [
        {
          "components": [
            {
              "internalType": "bytes32",
              "name": "hash",
              "type": "bytes32"
            },
            {
              "internalType": "bytes32",
              "name": "parentHash",
              "type": "bytes32"
            },
            {
              "internalType": "address",
              "name": "miner",
              "type": "address"
            },
            {
              "internalType": "bytes32",
              "name": "stateRoot",
              "type": "bytes32"
            },
            {
              "internalType": "bytes32",
              "name": "transactionsRoot",
              "type": "bytes32"
            },
            {
              "internalType": "bytes32",
              "name": "receiptsRoot",
              "type": "bytes32"
            },
            {
              "internalType": "bytes32",
              "name": "outgoingReceiptsRoot",
              "type": "bytes32"
            },
            {
              "internalType": "bytes32",
              "name": "incomingReceiptsRoot",
              "type": "bytes32"
            },
            {
              "internalType": "bytes",
              "name": "logsBloom",
              "type": "bytes"
            },
            {
              "internalType": "uint256",
              "name": "number",
              "type": "uint256"
            },
            {
              "internalType": "uint256",
              "name": "gasLimit",
              "type": "uint256"
            },
            {
              "internalType": "uint256",
              "name": "gasUsed",
              "type": "uint256"
            },
            {
              "internalType": "uint256",
              "name": "timestamp",
              "type": "uint256"
            },
            {
              "internalType": "bytes",
              "name": "extraData",
              "type": "bytes"
            },
            {
              "internalType": "bytes32",
              "name": "mixHash",
              "type": "bytes32"
            },
            {
              "internalType": "uint256",
              "name": "viewID",
              "type": "uint256"
            },
            {
              "internalType": "uint256",
              "name": "epoch",
              "type": "uint256"
            },
            {
              "internalType": "uint256",
              "name": "shardID",
              "type": "uint256"
            },
            {
              "internalType": "bytes",
              "name": "lastCommitSignature",
              "type": "bytes"
            },
            {
              "internalType": "bytes",
              "name": "lastCommitBitmap",
              "type": "bytes"
            },
            {
              "internalType": "bytes",
              "name": "vrf",
              "type": "bytes"
            },
            {
              "internalType": "bytes",
              "name": "vdf",
              "type": "bytes"
            },
            {
              "internalType": "bytes",
              "name": "shardState",
              "type": "bytes"
            },
            {
              "internalType": "bytes",
              "name": "crossLink",
              "type": "bytes"
            },
            {
              "internalType": "bytes",
              "name": "slashes",
              "type": "bytes"
            },
            {
              "internalType": "bytes",
              "name": "mmrRoot",
              "type": "bytes"
            }
          ],
          "internalType": "struct HarmonyParser.BlockHeader",
          "name": "header",
          "type": "tuple"
        }
      ],
      "name": "getBlockRlpData",
      "outputs": [
        {
          "internalType": "bytes",
          "name": "data",
          "type": "bytes"
        }
      ],
      "stateMutability": "pure",
      "type": "function"
    },
    {
      "inputs": [
        {
          "internalType": "bytes",
          "name": "data",
          "type": "bytes"
        }
      ],
      "name": "toBlockHeader",
      "outputs": [
        {
          "components": [
            {
              "internalType": "bytes32",
              "name": "hash",
              "type": "bytes32"
            },
            {
              "internalType": "bytes32",
              "name": "parentHash",
              "type": "bytes32"
            },
            {
              "internalType": "address",
              "name": "miner",
              "type": "address"
            },
            {
              "internalType": "bytes32",
              "name": "stateRoot",
              "type": "bytes32"
            },
            {
              "internalType": "bytes32",
              "name": "transactionsRoot",
              "type": "bytes32"
            },
            {
              "internalType": "bytes32",
              "name": "receiptsRoot",
              "type": "bytes32"
            },
            {
              "internalType": "bytes32",
              "name": "outgoingReceiptsRoot",
              "type": "bytes32"
            },
            {
              "internalType": "bytes32",
              "name": "incomingReceiptsRoot",
              "type": "bytes32"
            },
            {
              "internalType": "bytes",
              "name": "logsBloom",
              "type": "bytes"
            },
            {
              "internalType": "uint256",
              "name": "number",
              "type": "uint256"
            },
            {
              "internalType": "uint256",
              "name": "gasLimit",
              "type": "uint256"
            },
            {
              "internalType": "uint256",
              "name": "gasUsed",
              "type": "uint256"
            },
            {
              "internalType": "uint256",
              "name": "timestamp",
              "type": "uint256"
            },
            {
              "internalType": "bytes",
              "name": "extraData",
              "type": "bytes"
            },
            {
              "internalType": "bytes32",
              "name": "mixHash",
              "type": "bytes32"
            },
            {
              "internalType": "uint256",
              "name": "viewID",
              "type": "uint256"
            },
            {
              "internalType": "uint256",
              "name": "epoch",
              "type": "uint256"
            },
            {
              "internalType": "uint256",
              "name": "shardID",
              "type": "uint256"
            },
            {
              "internalType": "bytes",
              "name": "lastCommitSignature",
              "type": "bytes"
            },
            {
              "internalType": "bytes",
              "name": "lastCommitBitmap",
              "type": "bytes"
            },
            {
              "internalType": "bytes",
              "name": "vrf",
              "type": "bytes"
            },
            {
              "internalType": "bytes",
              "name": "vdf",
              "type": "bytes"
            },
            {
              "internalType": "bytes",
              "name": "shardState",
              "type": "bytes"
            },
            {
              "internalType": "bytes",
              "name": "crossLink",
              "type": "bytes"
            },
            {
              "internalType": "bytes",
              "name": "slashes",
              "type": "bytes"
            },
            {
              "internalType": "bytes",
              "name": "mmrRoot",
              "type": "bytes"
            }
          ],
          "internalType": "struct HarmonyParser.BlockHeader",
          "name": "header",
          "type": "tuple"
        }
      ],
      "stateMutability": "pure",
      "type": "function"
    },
    {
      "inputs": [
        {
          "components": [
            {
              "internalType": "address",
              "name": "contractAddress",
              "type": "address"
            },
            {
              "internalType": "bytes32[]",
              "name": "topics",
              "type": "bytes32[]"
            },
            {
              "internalType": "bytes",
              "name": "data",
              "type": "bytes"
            }
          ],
          "internalType": "struct HarmonyParser.Log",
          "name": "log",
          "type": "tuple"
        }
      ],
      "name": "getLog",
      "outputs": [
        {
          "internalType": "bytes",
          "name": "data",
          "type": "bytes"
        }
      ],
      "stateMutability": "pure",
      "type": "function"
    },
    {
      "inputs": [
        {
          "components": [
            {
              "internalType": "uint8",
              "name": "status",
              "type": "uint8"
            },
            {
              "internalType": "uint256",
              "name": "gasUsed",
              "type": "uint256"
            },
            {
              "internalType": "bytes",
              "name": "logsBloom",
              "type": "bytes"
            },
            {
              "components": [
                {
                  "internalType": "address",
                  "name": "contractAddress",
                  "type": "address"
                },
                {
                  "internalType": "bytes32[]",
                  "name": "topics",
                  "type": "bytes32[]"
                },
                {
                  "internalType": "bytes",
                  "name": "data",
                  "type": "bytes"
                }
              ],
              "internalType": "struct HarmonyParser.Log[]",
              "name": "logs",
              "type": "tuple[]"
            }
          ],
          "internalType": "struct HarmonyParser.TransactionReceiptTrie",
          "name": "receipt",
          "type": "tuple"
        }
      ],
      "name": "getReceiptRlpData",
      "outputs": [
        {
          "internalType": "bytes",
          "name": "data",
          "type": "bytes"
        }
      ],
      "stateMutability": "pure",
      "type": "function"
    },
    {
      "inputs": [
        {
          "internalType": "bytes",
          "name": "data",
          "type": "bytes"
        }
      ],
      "name": "toReceiptLog",
      "outputs": [
        {
          "components": [
            {
              "internalType": "address",
              "name": "contractAddress",
              "type": "address"
            },
            {
              "internalType": "bytes32[]",
              "name": "topics",
              "type": "bytes32[]"
            },
            {
              "internalType": "bytes",
              "name": "data",
              "type": "bytes"
            }
          ],
          "internalType": "struct HarmonyParser.Log",
          "name": "log",
          "type": "tuple"
        }
      ],
      "stateMutability": "pure",
      "type": "function"
    },
    {
      "inputs": [
        {
          "internalType": "bytes",
          "name": "data",
          "type": "bytes"
        }
      ],
      "name": "toReceipt",
      "outputs": [
        {
          "components": [
            {
              "internalType": "uint8",
              "name": "status",
              "type": "uint8"
            },
            {
              "internalType": "uint256",
              "name": "gasUsed",
              "type": "uint256"
            },
            {
              "internalType": "bytes",
              "name": "logsBloom",
              "type": "bytes"
            },
            {
              "components": [
                {
                  "internalType": "address",
                  "name": "contractAddress",
                  "type": "address"
                },
                {
                  "internalType": "bytes32[]",
                  "name": "topics",
                  "type": "bytes32[]"
                },
                {
                  "internalType": "bytes",
                  "name": "data",
                  "type": "bytes"
                }
              ],
              "internalType": "struct HarmonyParser.Log[]",
              "name": "logs",
              "type": "tuple[]"
            }
          ],
          "internalType": "struct HarmonyParser.TransactionReceiptTrie",
          "name": "receipt",
          "type": "tuple"
        }
      ],
      "stateMutability": "pure",
      "type": "function"
    },
    {
      "inputs": [
        {
          "internalType": "bytes",
          "name": "data",
          "type": "bytes"
        }
      ],
      "name": "toTransaction",
      "outputs": [
        {
          "components": [
            {
              "internalType": "uint256",
              "name": "nonce",
              "type": "uint256"
            },
            {
              "internalType": "uint256",
              "name": "gasPrice",
              "type": "uint256"
            },
            {
              "internalType": "uint256",
              "name": "gas",
              "type": "uint256"
            },
            {
              "internalType": "uint256",
              "name": "shardID",
              "type": "uint256"
            },
            {
              "internalType": "uint256",
              "name": "toShardID",
              "type": "uint256"
            },
            {
              "internalType": "address",
              "name": "to",
              "type": "address"
            },
            {
              "internalType": "uint256",
              "name": "value",
              "type": "uint256"
            },
            {
              "internalType": "bytes",
              "name": "input",
              "type": "bytes"
            },
            {
              "internalType": "uint8",
              "name": "v",
              "type": "uint8"
            },
            {
              "internalType": "bytes32",
              "name": "r",
              "type": "bytes32"
            },
            {
              "internalType": "bytes32",
              "name": "s",
              "type": "bytes32"
            }
          ],
          "internalType": "struct HarmonyParser.Transaction",
          "name": "transaction",
          "type": "tuple"
        }
      ],
      "stateMutability": "pure",
      "type": "function"
    },
    {
      "inputs": [
        {
          "internalType": "bytes",
          "name": "data",
          "type": "bytes"
        }
      ],
      "name": "toAccount",
      "outputs": [
        {
          "components": [
            {
              "internalType": "uint256",
              "name": "nonce",
              "type": "uint256"
            },
            {
              "internalType": "uint256",
              "name": "balance",
              "type": "uint256"
            },
            {
              "internalType": "bytes32",
              "name": "storageRoot",
              "type": "bytes32"
            },
            {
              "internalType": "bytes32",
              "name": "codeHash",
              "type": "bytes32"
            }
          ],
          "internalType": "struct HarmonyParser.Account",
          "name": "account",
          "type": "tuple"
        }
      ],
      "stateMutability": "pure",
      "type": "function"
    }
  ],
  "bytecode": "0x60806040523480156200001157600080fd5b5060405162003e5f38038062003e5f83398101604081905262000034916200005a565b600080546001600160a01b0319166001600160a01b03929092169190911790556200008a565b6000602082840312156200006c578081fd5b81516001600160a01b038116811462000083578182fd5b9392505050565b613dc5806200009a6000396000f3fe608060405234801561001057600080fd5b50600436106101425760003560e01c8063a26899e9116100b8578063b5700e681161007c578063b5700e68146102be578063cfa62eda146102c6578063ddaead26146102d9578063e3714d5f146102f9578063e7617bf814610319578063f8531da91461033957610142565b8063a26899e914610245578063a2deadbd14610265578063ad0fac8d14610278578063b09549e31461028b578063b3dd6a0a1461029e57610142565b806339d7ce7b1161010a57806339d7ce7b146101d9578063470cee3a146101ec57806355eff580146101ff57806371423b731461021f5780639720ae451461016557806399df62371461023257610142565b8063109e94cf1461014757806315af20ae146101655780631b34d464146101865780632d756916146101a6578063316cb085146101c6575b600080fd5b61014f61034c565b60405161015c91906137c0565b60405180910390f35b610178610173366004613487565b61035b565b60405161015c9291906137df565b6101996101943660046134e7565b610365565b60405161015c9190613818565b6101b96101b4366004613455565b610378565b60405161015c91906137b7565b6101786101d4366004613487565b610391565b6101786101e7366004613487565b610432565b6101786101fa366004613487565b6104b4565b61021261020d366004613519565b61051f565b60405161015c91906137d4565b61019961022d366004613455565b61052a565b6101786102403660046135b4565b610535565b610258610253366004613423565b6105ed565b60405161015c9190613b60565b6101b9610273366004613423565b6105fe565b61014f6102863660046135e8565b610609565b61019961029936600461362a565b610661565b6102b16102ac366004613423565b61066c565b60405161015c919061391d565b61014f61067d565b6101786102d4366004613455565b61068c565b6102ec6102e7366004613423565b6107df565b60405161015c9190613bf7565b61030c610307366004613423565b6107f0565b60405161015c9190613b4d565b61032c610327366004613423565b610801565b60405161015c9190613948565b61017861034736600461354b565b610812565b6000546001600160a01b031681565b5060009160609150565b6060610370826108af565b90505b919050565b60006103838261052a565b805190602001209050919050565b6000606082600001518460a00151146103c8576000604051806060016040528060248152602001613d03602491399150915061042b565b6103d183610a1e565b91508161041657505060408051808201909152601d81527f76657269667952656365697074202d20696e76616c69642070726f6f66000000602082015260009061042b565b50506040805160208101909152600081526001905b9250929050565b805160608381015160009214610466576000604051806060016040528060248152602001613d48602491399150915061042b565b61046f83610a1e565b91508161041657505060408051808201909152601d81527f7665726966794163636f756e74202d20696e76616c69642070726f6f66000000602082015260009061042b565b6000606082600001518460800151146104eb576000604051806060016040528060288152602001613cdb602891399150915061042b565b6104f483610a1e565b915081610416576000604051806060016040528060218152602001613d27602191399150915061042b565b600061037082610a1e565b606061037082610b6a565b60006060610541612cb0565b61054e8560a00151610fa9565b8451604082015191925014610582576000604051806060016040528060248152602001613d6c60249139925092505061042b565b61058b84610a1e565b9250826105d157505060408051808201909152601d81527f76657269667953746f72616765202d20696e76616c69642070726f6f6600000060208201526000915061042b565b5050604080516020810190915260008152600191509250929050565b6105f5612cd7565b61037082611077565b805160209091012090565b6000610613612d02565b6106208460a001516111e1565b9050606061062e828561138a565b905060008180519060200120905061065781846101000151856101200151866101400151611551565b9695505050505050565b60606103708261161f565b610674612cb0565b61037082610fa9565b6000546001600160a01b031690565b60006060600061069b8461052a565b805190602001209050836000015181146106ee57505060408051808201909152601b81527f4865616465722064617461206f72206861736820696e76616c696400000000006020820152600091506107da565b6000805461012086015160405163c6d90e2d60e01b81526001600160a01b039092169163c6d90e2d91610723916004016137b7565b60206040518083038186803b15801561073b57600080fd5b505afa15801561074f573d6000803e3d6000fd5b505050506040513d601f19601f82011682018060405250810190610773919061340b565b855190915081146107c15760006040518060400160405280601781526020017f556e7265676973746572656420626c6f636b20686173680000000000000000008152509350935050506107da565b6001604051806020016040528060008152509350935050505b915091565b6107e7612d02565b610370826111e1565b6107f8612d6e565b6103708261176e565b610809612d98565b610370826118ab565b6000606061081e612cd7565b61082b8660a00151611077565b905061084d8160600151858151811061084057fe5b60200260200101516108af565b805190602001208580519060200120141561087c575050604080516020810190915260008152600191506108a7565b505060408051808201909152600d81526c131bd9c81b9bdd08199bdd5b99609a1b6020820152600091505b935093915050565b60408051600380825260808201909252606091829190816020015b60608152602001906001900390816108ca57905050905060608360200151516001600160401b03811180156108fe57600080fd5b5060405190808252806020026020018201604052801561093257816020015b606081526020019060019003908161091d5790505b50905060005b8460200151518110156109a3576109848560200151828151811061095857fe5b602002602001015160405160200161097091906137b7565b604051602081830303815290604052611c1d565b82828151811061099057fe5b6020908102919091010152600101610938565b5083516109af90611c67565b826000815181106109bc57fe5b60200260200101819052506109d081611c8a565b826001815181106109dd57fe5b60200260200101819052506109f58460400151611c1d565b82600281518110610a0257fe5b6020026020010181905250610a1682611c8a565b949350505050565b600060608260400151836080015181518110610a3657fe5b60200260200101519050610a48612e7c565b610a59610a5483611cad565b611cd2565b9050836060015160001415610a9c5783518251602084012014610a975760405162461bcd60e51b8152600401610a8e9061382b565b60405180910390fd5b610b08565b602082511015610ae2576000610ab9610ab483611d1c565b611d6a565b85519091508114610adc5760405162461bcd60e51b8152600401610a8e906138ef565b50610b08565b83518251602084012014610b085760405162461bcd60e51b8152600401610a8e9061389a565b6000610b178260000151611dca565b90508060111415610b3557610b2b85611e22565b9350505050610373565b8060021415610b4857610b2b8286611f40565b60a085015151610b5e5760019350505050610373565b60009350505050610373565b60408051600f8082526102008201909252606091829190816020015b6060815260200190600190039081610b86579050509050610bb5836020015160405160200161097091906137b7565b81600081518110610bc257fe5b6020026020010181905250610bda8360400151611c67565b81600181518110610be757fe5b6020026020010181905250610c0a836060015160405160200161097091906137b7565b81600281518110610c1757fe5b6020026020010181905250610c3a836080015160405160200161097091906137b7565b81600381518110610c4757fe5b6020026020010181905250610c6a8360a0015160405160200161097091906137b7565b81600481518110610c7757fe5b6020026020010181905250610c9a8360c0015160405160200161097091906137b7565b81600581518110610ca757fe5b6020026020010181905250610cca8360e0015160405160200161097091906137b7565b81600681518110610cd757fe5b6020026020010181905250610cf0836101000151611c1d565b81600781518110610cfd57fe5b6020026020010181905250610d168361012001516121c9565b81600881518110610d2357fe5b6020026020010181905250610d3c8361014001516121c9565b81600981518110610d4957fe5b6020026020010181905250610d628361016001516121c9565b81600a81518110610d6f57fe5b6020026020010181905250610d888361018001516121c9565b81600b81518110610d9557fe5b6020026020010181905250610dae836101a00151611c1d565b81600c81518110610dbb57fe5b6020026020010181905250610ddf836101c0015160405160200161097091906137b7565b81600d81518110610dec57fe5b6020026020010181905250610e05836101e001516121c9565b81600e81518110610e1257fe5b6020026020010181905250610e2b8361020001516121c9565b81600f81518110610e3857fe5b6020026020010181905250610e518361022001516121c9565b81601081518110610e5e57fe5b6020026020010181905250610e77836102400151611c1d565b81601181518110610e8457fe5b6020026020010181905250610e9d836102600151611c1d565b81601281518110610eaa57fe5b6020026020010181905250610ec3836102800151611c1d565b81601381518110610ed057fe5b6020026020010181905250610ee9836102a00151611c1d565b81601481518110610ef657fe5b6020026020010181905250610f0f836102c00151611c1d565b81601581518110610f1c57fe5b6020026020010181905250610f35836102e00151611c1d565b81601681518110610f4257fe5b6020026020010181905250610f5b836103000151611c1d565b81601781518110610f6857fe5b6020026020010181905250610f81836103200151611c1d565b81601881518110610f8e57fe5b6020026020010181905250610fa281611c8a565b9392505050565b610fb1612cb0565b610fb9612e7c565b610fc5610a5484611cad565b905060005b610fd3826121dc565b156110705780610ff057610fe9610ab483611d1c565b8352611068565b806001141561100f57611005610ab483611d1c565b6020840152611068565b806002141561103b5761103161102c61102784611d1c565b6121fd565b612281565b6040840152611068565b806003141561105d5761105361102c61102784611d1c565b6060840152611068565b61106682611d1c565b505b600101610fca565b5050919050565b61107f612cd7565b611087612e7c565b611093610a5484611cad565b905060005b6110a1826121dc565b1561107057806110c1576110b7610ab483611d1c565b60ff1683526111d9565b80600114156110e0576110d6610ab483611d1c565b60208401526111d9565b80600214156110ff576110f561102783611d1c565b60408401526111d9565b80600314156111ce57606061111b61111684611d1c565b612288565b905080516001600160401b038111801561113457600080fd5b5060405190808252806020026020018201604052801561116e57816020015b61115b612d6e565b8152602001906001900390816111535790505b50606085015260005b81518110156111c7576111a461119f83838151811061119257fe5b602002602001015161236f565b61176e565b856060015182815181106111b457fe5b6020908102919091010152600101611177565b50506111d9565b6111d782611d1c565b505b600101611098565b6111e9612d02565b6111f1612e7c565b6111fd610a5484611cad565b905060005b61120b826121dc565b15611070578061122857611221610ab483611d1c565b8352611382565b80600114156112475761123d610ab483611d1c565b6020840152611382565b80600214156112665761125c610ab483611d1c565b6040840152611382565b80600314156112855761127b610ab483611d1c565b6060840152611382565b80600414156112a45761129a610ab483611d1c565b6080840152611382565b80600514156112d1576112be6112b983611d1c565b6123ed565b6001600160a01b031660a0840152611382565b80600614156112f0576112e6610ab483611d1c565b60c0840152611382565b806007141561130f5761130561102783611d1c565b60e0840152611382565b806008141561133257611324610ab483611d1c565b60ff16610100840152611382565b80600914156113575761134c61134783611d1c565b612407565b610120840152611382565b80600a14156113775761136c61134783611d1c565b610140840152611382565b61138082611d1c565b505b600101611202565b6040805160098082526101408201909252606091829190816020015b60608152602001906001900390816113a657505084519091506113c8906121c9565b816000815181106113d557fe5b60200260200101819052506113ed84602001516121c9565b816001815181106113fa57fe5b602002602001018190525061141284604001516121c9565b8160028151811061141f57fe5b602002602001018190525061143784606001516121c9565b8160038151811061144457fe5b602002602001018190525061145c84608001516121c9565b8160048151811061146957fe5b60200260200101819052506114818460a00151611c67565b8160058151811061148e57fe5b60200260200101819052506114a68460c001516121c9565b816006815181106114b357fe5b60200260200101819052506114cb8460e00151611c1d565b816007815181106114d857fe5b60200260200101819052506114ec836121c9565b816008815181106114f957fe5b602002602001018190525061150e60006121c9565b8160098151811061151b57fe5b602002602001018190525061153060006121c9565b81600a8151811061153d57fe5b6020026020010181905250610a1681611c8a565b6000601b8460ff16101561156657601b840193505b601c8460ff1611156115895760018085161461158357601c611586565b601b5b93505b8360ff16601b148061159e57508360ff16601c145b6115a757600080fd5b600185858585604051600081526020016040526040516115ca94939291906137fa565b6020604051602081039080840390855afa1580156115ec573d6000803e3d6000fd5b5050604051601f1901519150506001600160a01b038116610a165760405162461bcd60e51b8152600401610a8e90613871565b60408051600480825260a08201909252606091829190816020015b606081526020019060019003908161163a57905050905060608360600151516001600160401b038111801561166e57600080fd5b506040519080825280602002602001820160405280156116a257816020015b606081526020019060019003908161168d5790505b50905060005b8460600151518110156116e7576116c88560600151828151811061084057fe5b8282815181106116d457fe5b60209081029190910101526001016116a8565b5083516116f69060ff166121c9565b8260008151811061170357fe5b602002602001018190525061171b84602001516121c9565b8260018151811061172857fe5b60200260200101819052506117408460400151611c1d565b8260028151811061174d57fe5b602002602001018190525061176181611c8a565b82600381518110610a0257fe5b611776612d6e565b61177e612e7c565b61178a610a5484611cad565b905060005b611798826121dc565b1561107057806117be576117ae6112b983611d1c565b6001600160a01b031683526118a3565b80600114156118795760606117d561111684611d1c565b905080516001600160401b03811180156117ee57600080fd5b50604051908082528060200260200182016040528015611818578160200160208202803683370190505b50602085015260005b815181101561187257600061184883838151811061183b57fe5b6020026020010151611d6a565b60001b9050808660200151838151811061185e57fe5b602090810291909101015250600101611821565b50506118a3565b80600214156118985761188e61102783611d1c565b60408401526118a3565b6118a182611d1c565b505b60010161178f565b6118b3612d98565b6118bb612e7c565b6118c7610a5484611cad565b905060005b6118d5826121dc565b15611c0b57806118f5576118eb610ab483611d1c565b6020840152611c03565b806001141561191d5761190a6112b983611d1c565b6001600160a01b03166040840152611c03565b806002141561193c57611932610ab483611d1c565b6060840152611c03565b806003141561195b57611951610ab483611d1c565b6080840152611c03565b806004141561197a57611970610ab483611d1c565b60a0840152611c03565b80600514156119995761198f610ab483611d1c565b60c0840152611c03565b80600614156119b8576119ae610ab483611d1c565b60e0840152611c03565b80600714156119d8576119cd61102783611d1c565b610100840152611c03565b80600814156119f8576119ed610ab483611d1c565b610120840152611c03565b8060091415611a1857611a0d610ab483611d1c565b610140840152611c03565b80600a1415611a3857611a2d610ab483611d1c565b610160840152611c03565b80600b1415611a5857611a4d610ab483611d1c565b610180840152611c03565b80600c1415611a7857611a6d61102783611d1c565b6101a0840152611c03565b80600d1415611a9857611a8d610ab483611d1c565b6101c0840152611c03565b80600e1415611ab857611aad610ab483611d1c565b6101e0840152611c03565b80600f1415611ad857611acd610ab483611d1c565b610200840152611c03565b8060101415611af857611aed610ab483611d1c565b610220840152611c03565b8060111415611b1857611b0d61102783611d1c565b610240840152611c03565b8060121415611b3857611b2d61102783611d1c565b610260840152611c03565b8060131415611b5857611b4d61102783611d1c565b610280840152611c03565b8060141415611b7857611b6d61102783611d1c565b6102a0840152611c03565b8060151415611b9857611b8d61102783611d1c565b6102c0840152611c03565b8060161415611bb857611bad61102783611d1c565b6102e0840152611c03565b8060171415611bd857611bcd61102783611d1c565b610300840152611c03565b8060181415611bf857611bed61102783611d1c565b610320840152611c03565b611c0182611d1c565b505b6001016118cc565b50508151602090920191909120815290565b60608082516001148015611c465750608083600081518110611c3b57fe5b016020015160f81c11155b15611c52575081610370565b610fa2611c618451608061241c565b84612574565b60408051600560a21b8318601482015260348101909152606090610fa281611c1d565b606080611c96836125f1565b9050610fa2611ca7825160c061241c565b82612574565b611cb5612e9c565b506040805180820190915281518152602082810190820152919050565b611cda612e7c565b611ce3826126f1565b611cec57600080fd5b6000611cfb836020015161272b565b60208085015160408051808201909152868152920190820152915050919050565b611d24612e9c565b611d2d826121dc565b611d3657600080fd5b60208201516000611d468261278e565b80830160209586015260408051808201909152908152938401919091525090919050565b805160009015801590611d7f57508151602110155b611d8857600080fd5b6000611d97836020015161272b565b83516020808601518301805193945091849003929190831015611dc157826020036101000a820491505b50949350505050565b8051600090611ddb57506000610373565b600080611deb846020015161272b565b602085015185519181019250015b80821015611e1957611e0a8261278e565b60019093019290910190611df9565b50909392505050565b600060608260400151836080015181518110611e3a57fe5b60200260200101519050826020015151836060015110611eab576060611e7e611e6561111684611cad565b601081518110611e7157fe5b60200260200101516121fd565b90508360a001518051906020012081805190602001201415611ea557600192505050610373565b50611f22565b60008360200151846060015181518110611ec157fe5b016020015160f81c90506060611ee7611edc61111685611cad565b8381518110611e7157fe5b90508051600014611f1f57611efb81612281565b855260608501805160019081019091526080860180519091019052610b2b85610a1e565b50505b60a083015151611f36576001915050610373565b6000915050610373565b60006060611f5061102785611d1c565b90506060611f6061102786611d1c565b602083015190915060fc1c600281141561201b578251600019016060611f8a856021846000612822565b90506060611fa688602001518960600151602001856000612822565b905084805190602001208860a0015180519060200120141561201357808051906020012082805190602001201415611fe757600196505050505050506121c3565b80516020820120611ff7836128dc565b80519060200120141561201357600196505050505050506121c3565b5050506121a5565b80600314156120ce57606061203584602086516001612822565b9050606061205c8760200151886060015160200189606001518a6020015151036000612822565b905083805190602001208760a001518051906020012014156120c75780805190602001208280519060200120141561209c576001955050505050506121c3565b805160208201206120ac836129c2565b8051906020012014156120c7576001955050505050506121c3565b50506121a5565b806121725782516000190160606120e9856021846000612822565b9050606061210588602001518960600151602001856000612822565b905080805190602001208280519060200120148061213757508051602082012061212e836128dc565b80519060200120145b156120135761214585612281565b885260608801805184019052608088018051600101905261216588610a1e565b96505050505050506121c3565b806001141561218d57825160606120e9856020846001612822565b60405162461bcd60e51b8152600401610a8e906138c8565b60a0850151516121bb57600193505050506121c3565b600093505050505b92915050565b60606103706121d783612acf565b611c1d565b60006121e6612e9c565b505080518051602091820151919092015191011190565b805160609061220b57600080fd5b600061221a836020015161272b565b83519091508190036060816001600160401b038111801561223a57600080fd5b506040519080825280601f01601f191660200182016040528015612265576020820181803683370190505b5090506000816020019050611dc1848760200151018285612bce565b6020015190565b6060612293826126f1565b61229c57600080fd5b60006122a783611dca565b90506060816001600160401b03811180156122c157600080fd5b506040519080825280602002602001820160405280156122fb57816020015b6122e8612e9c565b8152602001906001900390816122e05790505b509050600061230d856020015161272b565b60208601510190506000805b848110156123645761232a8361278e565b915060405180604001604052808381526020018481525084828151811061234d57fe5b602090810291909101015291810191600101612319565b509195945050505050565b60608082600001516001600160401b038111801561238c57600080fd5b506040519080825280601f01601f1916602001820160405280156123b7576020820181803683370190505b5090508051600014156123cb579050610373565b60008160200190506123e68460200151828660000151612bce565b5092915050565b80516000906015146123fe57600080fd5b61037082611d6a565b6000610370612415836121fd565b6000612c19565b60608060388410156124795760408051600180825281830190925290602082018180368337019050509050838301601f1a60f81b8160008151811061245d57fe5b60200101906001600160f81b031916908160001a905350610fa2565b600060015b80868161248757fe5b041561249c576001909101906101000261247e565b816001016001600160401b03811180156124b557600080fd5b506040519080825280601f01601f1916602001820160405280156124e0576020820181803683370190505b509250603782860101601f1a60f81b836000815181106124fc57fe5b60200101906001600160f81b031916908160001a905350600190505b81811161256b576101008183036101000a878161253157fe5b048161253957fe5b06601f1a60f81b83828151811061254c57fe5b60200101906001600160f81b031916908160001a905350600101612518565b50509392505050565b6060806040519050835180825260208201818101602087015b818310156125a557805183526020928301920161258d565b50855184518101855292509050808201602086015b818310156125d25780518352602092830192016125ba565b508651929092011591909101601f01601f191660405250905092915050565b60608151600014156126125750604080516000815260208101909152610373565b6000805b83518110156126455783818151811061262b57fe5b602002602001015151820191508080600101915050612616565b6060826001600160401b038111801561265d57600080fd5b506040519080825280601f01601f191660200182016040528015612688576020820181803683370190505b50600092509050602081015b8551831015611dc15760608684815181106126ab57fe5b6020026020010151905060006020820190506126c983828451612c58565b8785815181106126d557fe5b6020026020010151518301925050508280600101935050612694565b805160009061270257506000610373565b6020820151805160001a9060c082101561272157600092505050610373565b5060019392505050565b8051600090811a6080811015612745576000915050610373565b60b8811080612760575060c08110801590612760575060f881105b1561276f576001915050610373565b60c08110156127835760b519019050610373565b60f519019050610373565b80516000908190811a60808110156127a957600191506123e6565b60b88110156127be57607e19810191506123e6565b60c08110156127eb5760b78103600185019450806020036101000a855104600182018101935050506123e6565b60f88110156128005760be19810191506123e6565b60019390930151602084900360f7016101000a900490920160f5190192915050565b60606020808404906008601f8616029060008085886001600160401b038111801561284c57600080fd5b506040519080825280601f01601f191660200182016040528015612877576020820181803683370190505b5090508a8a01915087156128a157818401516001600160fc1b031681850152602090930192600192505b825b868110156128c15782850151828601526020909401936001016128a3565b5083820151851c851b84820152505050505050949350505050565b805160609060020281816001600160401b03811180156128fb57600080fd5b506040519080825280601f01601f191660200182016040528015612926576020820181803683370190505b50905060005b84518110156129ba5760008061295b87848151811061294757fe5b01602001516001600160f81b031916612c9c565b915091508184846002028151811061296f57fe5b60200101906001600160f81b031916908160001a9053508084846002026001018151811061299957fe5b60200101906001600160f81b031916908160001a905350505060010161292c565b509392505050565b60606000600183516002020390506060816001600160401b03811180156129e857600080fd5b506040519080825280601f01601f191660200182016040528015612a13576020820181803683370190505b50905083600081518110612a2357fe5b602001015160f81c60f81b81600081518110612a3b57fe5b60200101906001600160f81b031916908160001a90535060015b84518110156129ba57600080612a7087848151811061294757fe5b9150915081846001856002020381518110612a8757fe5b60200101906001600160f81b031916908160001a90535080848460020281518110612aae57fe5b60200101906001600160f81b031916908160001a9053505050600101612a55565b60408051602080825281830190925260609182919060208201818036833701905050905082602082015260005b6020811015612b3257818181518110612b1157fe5b01602001516001600160f81b03191615612b2a57612b32565b600101612afc565b6060816020036001600160401b0381118015612b4d57600080fd5b506040519080825280601f01601f191660200182016040528015612b78576020820181803683370190505b50905060005b8151811015611dc1578351600184019385918110612b9857fe5b602001015160f81c60f81b828281518110612baf57fe5b60200101906001600160f81b031916908160001a905350600101612b7e565b80612bd857612c14565b5b60208110612bf8578251825260209283019290910190601f1901612bd9565b8251825160208390036101000a60001901801990921691161782525b505050565b60008060005b60208110156129ba57806008028582860181518110612c3a57fe5b01602001516001600160f81b031916901c9190911790600101612c1f565b8282825b60208110612c7b578151835260209283019290910190601f1901612c5c565b905182516020929092036101000a6000190180199091169116179052505050565b600481901c916001600160fc1b0390911690565b60408051608081018252600080825260208201819052918101829052606081019190915290565b6040518060800160405280600060ff1681526020016000815260200160608152602001606081525090565b604051806101600160405280600081526020016000815260200160008152602001600081526020016000815260200160006001600160a01b031681526020016000815260200160608152602001600060ff16815260200160008019168152602001600080191681525090565b604051806060016040528060006001600160a01b0316815260200160608152602001606081525090565b604051806103400160405280600080191681526020016000801916815260200160006001600160a01b0316815260200160008019168152602001600080191681526020016000801916815260200160008019168152602001600080191681526020016060815260200160008152602001600081526020016000815260200160008152602001606081526020016000801916815260200160008152602001600081526020016000815260200160608152602001606081526020016060815260200160608152602001606081526020016060815260200160608152602001606081525090565b6040518060400160405280612e8f612e9c565b8152602001600081525090565b604051806040016040528060008152602001600081525090565b80356001600160a01b038116811461037357600080fd5b600082601f830112612edd578081fd5b8135612ef0612eeb82613cbd565b613c9a565b818152915060208083019084810160005b84811015612f2a57612f18888484358a0101612f8d565b84529282019290820190600101612f01565b505050505092915050565b600082601f830112612f45578081fd5b8135612f53612eeb82613cbd565b818152915060208083019084810160005b84811015612f2a57612f7b888484358a010161325c565b84529282019290820190600101612f64565b600082601f830112612f9d578081fd5b81356001600160401b03811115612fb057fe5b612fc3601f8201601f1916602001613c9a565b9150808252836020828501011115612fda57600080fd5b8060208401602084013760009082016020015292915050565b6000610340808385031215613006578182fd5b61300f81613c9a565b915050813581526020820135602082015261302c60408301612eb6565b6040820152606082013560608201526080820135608082015260a082013560a082015260c082013560c082015260e082013560e0820152610100808301356001600160401b038082111561307f57600080fd5b61308b86838701612f8d565b928401929092525061012083810135908301526101408084013590830152610160808401359083015261018080840135908301526101a0908184013590808211156130d557600080fd5b6130e186838701612f8d565b92840192909252506101c083810135908301526101e08084013590830152610200808401359083015261022080840135908301526102409081840135908082111561312b57600080fd5b61313786838701612f8d565b8385015261026092508285013591508082111561315357600080fd5b61315f86838701612f8d565b8385015261028092508285013591508082111561317b57600080fd5b61318786838701612f8d565b838501526102a09250828501359150808211156131a357600080fd5b6131af86838701612f8d565b838501526102c09250828501359150808211156131cb57600080fd5b6131d786838701612f8d565b838501526102e09250828501359150808211156131f357600080fd5b6131ff86838701612f8d565b8385015261030092508285013591508082111561321b57600080fd5b61322786838701612f8d565b8385015261032092508285013591508082111561324357600080fd5b5061325085828601612f8d565b82840152505092915050565b60006060828403121561326d578081fd5b604051606081016001600160401b03828210818311171561328a57fe5b8160405282935061329a85612eb6565b83526020915081850135818111156132b157600080fd5b8501601f810187136132c257600080fd5b80356132d0612eeb82613cbd565b81815284810190838601868402850187018b10156132ed57600080fd5b600094505b838510156133105780358352600194909401939186019186016132f2565b50808688015250505050604085013591508082111561332e57600080fd5b5061333b85828601612f8d565b6040830152505092915050565b600060c08284031215613359578081fd5b61336360c0613c9a565b90508135815260208201356001600160401b038082111561338357600080fd5b61338f85838601612f8d565b602084015260408401359150808211156133a857600080fd5b6133b485838601612ecd565b6040840152606084013560608401526080840135608084015260a08401359150808211156133e157600080fd5b506133ee84828501612f8d565b60a08301525092915050565b803560ff8116811461037357600080fd5b60006020828403121561341c578081fd5b5051919050565b600060208284031215613434578081fd5b81356001600160401b03811115613449578182fd5b610a1684828501612f8d565b600060208284031215613466578081fd5b81356001600160401b0381111561347b578182fd5b610a1684828501612ff3565b60008060408385031215613499578081fd5b82356001600160401b03808211156134af578283fd5b6134bb86838701612ff3565b935060208501359150808211156134d0578283fd5b506134dd85828601613348565b9150509250929050565b6000602082840312156134f8578081fd5b81356001600160401b0381111561350d578182fd5b610a168482850161325c565b60006020828403121561352a578081fd5b81356001600160401b0381111561353f578182fd5b610a1684828501613348565b60008060006060848603121561355f578081fd5b83356001600160401b0380821115613575578283fd5b61358187838801613348565b94506020860135915080821115613596578283fd5b506135a386828701612f8d565b925050604084013590509250925092565b600080604083850312156135c6578182fd5b82356001600160401b03808211156135dc578384fd5b6134bb86838701613348565b600080604083850312156135fa578182fd5b82356001600160401b0381111561360f578283fd5b61361b85828601613348565b95602094909401359450505050565b60006020828403121561363b578081fd5b81356001600160401b0380821115613651578283fd5b9083019060808286031215613664578283fd5b60405160808101818110838211171561367957fe5b604052613685836133fa565b8152602083013560208201526040830135828111156136a2578485fd5b6136ae87828601612f8d565b6040830152506060830135828111156136c5578485fd5b6136d187828601612f35565b60608301525095945050505050565b6001600160a01b03169052565b60008151808452815b81811015613712576020818501810151868301820152016136f6565b818111156137235782602083870101525b50601f01601f19169290920160200192915050565b80516001600160a01b03168252602080820151606082850181905281519085018190526000929182019190839060808701905b8083101561378b578451825293830193600192909201919083019061376b565b506040860151935086810360408801526137a581856136ed565b979650505050505050565b60ff169052565b90815260200190565b6001600160a01b0391909116815260200190565b901515815260200190565b6000831515825260406020830152610a1660408301846136ed565b93845260ff9290921660208401526040830152606082015260800190565b600060208252610fa260208301846136ed565b60208082526026908201527f7665726966795472696550726f6f6620726f6f74206e6f6465206861736820696040820152651b9d985b1a5960d21b606082015260800190565b6020808252600f908201526e1150d5995c9a599e481c995d995c9d608a1b604082015260600190565b6020808252601490820152737665726966795472696550726f6f6620656c736560601b604082015260600190565b6020808252600d908201526c24b73b30b634b210383937b7b360991b604082015260600190565b6020808252601490820152733b32b934b33caa3934b2a83937b7b3101e10199960611b604082015260600190565b8151815260208083015190820152604080830151908201526060918201519181019190915260800190565b6000602082528251602083015260208301516040830152604083015161397160608401826136e0565b5060608301516080830152608083015160a083015260a083015160c083015260c083015160e083015260e083015161010081818501528085015191505061034061012081818601526139c76103608601846136ed565b908601516101408681019190915286015161016080870191909152860151610180808701919091528601516101a080870191909152860151858203601f199081016101c0808901919091529294509091613a2185846136ed565b908801516101e0888101919091528801516102008089019190915288015161022080890191909152880151610240808901919091528801518782038301610260808a01919091529195509250613a7785846136ed565b945080880151925050610280818786030181880152613a9685846136ed565b9450808801519250506102a0818786030181880152613ab585846136ed565b9450808801519250506102c0818786030181880152613ad485846136ed565b9450808801519250506102e0818786030181880152613af385846136ed565b945080880151925050610300818786030181880152613b1285846136ed565b945080880151925050610320818786030181880152613b3185846136ed565b90880151878203909201848801529350905061065783826136ed565b600060208252610fa26020830184613738565b6000602080835260ff84511681840152808401516040840152604084015160806060850152613b9260a08501826136ed565b6060860151601f19868303810160808801528151808452929350908401918484019085810285018601875b82811015613be95784878303018452613bd7828751613738565b95880195938801939150600101613bbd565b509998505050505050505050565b60006020825282516020830152602083015160408301526040830151606083015260608301516080830152608083015160a083015260a0830151613c3e60c08401826136e0565b5060c083015160e083015260e08301516101606101008181860152613c676101808601846136ed565b90860151909250610120613c7d868201836137b0565b860151610140868101919091529095015193019290925250919050565b6040518181016001600160401b0381118282101715613cb557fe5b604052919050565b60006001600160401b03821115613cd057fe5b506020908102019056fe7665726966795472616e73616374696f6e202d20646966666572656e74207472696520726f6f747376657269667952656365697074202d20646966666572656e74207472696520726f6f74737665726966795472616e73616374696f6e202d20696e76616c69642070726f6f667665726966794163636f756e74202d20646966666572656e74207472696520726f6f747376657269667953746f72616765202d20646966666572656e74207472696520726f6f7473a2646970667358221220749bb712cf653af56112c75ce4d28fd624ab2693f65a0fcce23bd0117d360d8664736f6c63430007030033",
  "immutableReferences": {},
  "source": "// SPDX-License-Identifier: UNLICENSED\npragma solidity ^0.7;\npragma experimental ABIEncoderV2;\n\n// largely based on\n// https://github.com/loredanacirstea/goldengate/blob/master/contracts/contracts/Prover.sol\n\nimport \"./HarmonyParser.sol\";\nimport \"./HarmonyLightClient.sol\";\nimport \"./lib/ECVerify.sol\";\nimport \"./lib/MPT.sol\";\n\ninterface IHarmonyProver {\n    function lightClient() external view returns (address _lightClient);\n\n    function verifyTrieProof(MPT.MerkleProof memory data)\n        external\n        pure\n        returns (bool);\n\n    function verifyHeader(HarmonyParser.BlockHeader memory header)\n        external\n        view\n        returns (bool valid, string memory reason);\n\n    function verifyTransaction(\n        HarmonyParser.BlockHeader memory header,\n        MPT.MerkleProof memory txdata\n    ) external view returns (bool valid, string memory reason);\n\n    function verifyReceipt(\n        HarmonyParser.BlockHeader memory header,\n        MPT.MerkleProof memory receiptdata\n    ) external view returns (bool valid, string memory reason);\n\n    function verifyAccount(\n        HarmonyParser.BlockHeader memory header,\n        MPT.MerkleProof memory accountdata\n    ) external view returns (bool valid, string memory reason);\n\n    function verifyLog(\n        MPT.MerkleProof memory receiptdata,\n        bytes memory logdata,\n        uint256 logIndex\n    ) external view returns (bool valid, string memory reason);\n\n    function verifyTransactionAndStatus(\n        HarmonyParser.BlockHeader memory header,\n        MPT.MerkleProof memory receiptdata\n    ) external view returns (bool valid, string memory reason);\n\n    function verifyCode(\n        HarmonyParser.BlockHeader memory header,\n        MPT.MerkleProof memory accountdata\n    ) external view returns (bool valid, string memory reason);\n\n    function verifyStorage(\n        MPT.MerkleProof memory accountProof,\n        MPT.MerkleProof memory storageProof\n    ) external view returns (bool valid, string memory reason);\n}\n\ncontract HarmonyProver is IHarmonyProver {\n    using MPT for MPT.MerkleProof;\n\n    HarmonyLightClient public client;\n\n    constructor(address lightClient) public {\n        client = HarmonyLightClient(lightClient);\n    }\n\n    function lightClient() public view override returns (address _lightClient) {\n        return address(client);\n    }\n\n    function verifyTrieProof(MPT.MerkleProof memory data)\n        public\n        pure\n        override\n        returns (bool)\n    {\n        return data.verifyTrieProof();\n    }\n\n    function verifyHeader(HarmonyParser.BlockHeader memory header)\n        public\n        view\n        override\n        returns (bool valid, string memory reason)\n    {\n        bytes32 blockHash = keccak256(getBlockRlpData(header));\n        if (blockHash != header.hash)\n            return (false, \"Header data or hash invalid\");\n\n        // Check block hash was registered in light client\n        bytes32 blockHashClient = client.getConfirmedBlockHash(header.number);\n        if (blockHashClient != header.hash)\n            return (false, \"Unregistered block hash\");\n\n        return (true, \"\");\n    }\n\n    function verifyTransaction(\n        HarmonyParser.BlockHeader memory header,\n        MPT.MerkleProof memory txdata\n    ) public pure override returns (bool valid, string memory reason) {\n        if (header.transactionsRoot != txdata.expectedRoot)\n            return (false, \"verifyTransaction - different trie roots\");\n\n        valid = txdata.verifyTrieProof();\n        if (!valid) return (false, \"verifyTransaction - invalid proof\");\n\n        return (true, \"\");\n    }\n\n    function verifyReceipt(\n        HarmonyParser.BlockHeader memory header,\n        MPT.MerkleProof memory receiptdata\n    ) public pure override returns (bool valid, string memory reason) {\n        if (header.receiptsRoot != receiptdata.expectedRoot)\n            return (false, \"verifyReceipt - different trie roots\");\n\n        valid = receiptdata.verifyTrieProof();\n        if (!valid) return (false, \"verifyReceipt - invalid proof\");\n\n        return (true, \"\");\n    }\n\n    function verifyAccount(\n        HarmonyParser.BlockHeader memory header,\n        MPT.MerkleProof memory accountdata\n    ) public pure override returns (bool valid, string memory reason) {\n        if (header.stateRoot != accountdata.expectedRoot)\n            return (false, \"verifyAccount - different trie roots\");\n\n        valid = accountdata.verifyTrieProof();\n        if (!valid) return (false, \"verifyAccount - invalid proof\");\n\n        return (true, \"\");\n    }\n\n    function verifyLog(\n        MPT.MerkleProof memory receiptdata,\n        bytes memory logdata,\n        uint256 logIndex\n    ) public pure override returns (bool valid, string memory reason) {\n        HarmonyParser.TransactionReceiptTrie memory receipt = HarmonyParser\n        .toReceipt(receiptdata.expectedValue);\n\n        if (\n            keccak256(logdata) ==\n            keccak256(HarmonyParser.getLog(receipt.logs[logIndex]))\n        ) {\n            return (true, \"\");\n        }\n        return (false, \"Log not found\");\n    }\n\n    function verifyTransactionAndStatus(\n        HarmonyParser.BlockHeader memory header,\n        MPT.MerkleProof memory receiptdata\n    ) external pure override returns (bool valid, string memory reason) {}\n\n    function verifyCode(\n        HarmonyParser.BlockHeader memory header,\n        MPT.MerkleProof memory accountdata\n    ) public pure override returns (bool valid, string memory reason) {}\n\n    function verifyStorage(\n        MPT.MerkleProof memory accountProof,\n        MPT.MerkleProof memory storageProof\n    ) public pure override returns (bool valid, string memory reason) {\n        HarmonyParser.Account memory account = HarmonyParser.toAccount(\n            accountProof.expectedValue\n        );\n\n        if (account.storageRoot != storageProof.expectedRoot)\n            return (false, \"verifyStorage - different trie roots\");\n\n        valid = storageProof.verifyTrieProof();\n        if (!valid) return (false, \"verifyStorage - invalid proof\");\n\n        return (true, \"\");\n    }\n\n    function getTransactionSender(\n        MPT.MerkleProof memory txdata,\n        uint256 chainId\n    ) public pure returns (address sender) {\n        HarmonyParser.Transaction memory transaction = HarmonyParser\n        .toTransaction(txdata.expectedValue);\n        bytes memory txraw = HarmonyParser.getTransactionRaw(\n            transaction,\n            chainId\n        );\n\n        bytes32 message_hash = keccak256(txraw);\n        sender = ECVerify.ecverify(\n            message_hash,\n            transaction.v,\n            transaction.r,\n            transaction.s\n        );\n    }\n\n    function getTransactionHash(bytes memory signedTransaction)\n        public\n        pure\n        returns (bytes32 hash)\n    {\n        hash = keccak256(signedTransaction);\n    }\n\n    function getBlockHash(HarmonyParser.BlockHeader memory header)\n        public\n        pure\n        returns (bytes32 hash)\n    {\n        return keccak256(getBlockRlpData(header));\n    }\n\n    function getBlockRlpData(HarmonyParser.BlockHeader memory header)\n        public\n        pure\n        returns (bytes memory data)\n    {\n        return HarmonyParser.getBlockRlpData(header);\n    }\n\n    function toBlockHeader(bytes memory data)\n        public\n        pure\n        returns (HarmonyParser.BlockHeader memory header)\n    {\n        return HarmonyParser.toBlockHeader(data);\n    }\n\n    function getLog(HarmonyParser.Log memory log)\n        public\n        pure\n        returns (bytes memory data)\n    {\n        return HarmonyParser.getLog(log);\n    }\n\n    function getReceiptRlpData(\n        HarmonyParser.TransactionReceiptTrie memory receipt\n    ) public pure returns (bytes memory data) {\n        return HarmonyParser.getReceiptRlpData(receipt);\n    }\n\n    function toReceiptLog(bytes memory data)\n        public\n        pure\n        returns (HarmonyParser.Log memory log)\n    {\n        return HarmonyParser.toReceiptLog(data);\n    }\n\n    function toReceipt(bytes memory data)\n        public\n        pure\n        returns (HarmonyParser.TransactionReceiptTrie memory receipt)\n    {\n        return HarmonyParser.toReceipt(data);\n    }\n\n    function toTransaction(bytes memory data)\n        public\n        pure\n        returns (HarmonyParser.Transaction memory transaction)\n    {\n        return HarmonyParser.toTransaction(data);\n    }\n\n    function toAccount(bytes memory data)\n        public\n        pure\n        returns (HarmonyParser.Account memory account)\n    {\n        return HarmonyParser.toAccount(data);\n    }\n}\n",
  "sourcePath": "/Users/gupadhyaya/go/src/github.com/harmony-one/horizon/contracts/HarmonyProver.sol",
  "compiler": {
    "name": "solc",
    "version": "0.7.3+commit.9bfce1f6.Emscripten.clang"
  },
  "schemaVersion": "3.4.1",
  "updatedAt": "2021-07-21T21:40:45.581Z",
  "devdoc": {
    "kind": "dev",
    "methods": {},
    "version": 1
  },
  "userdoc": {
    "kind": "user",
    "methods": {},
    "version": 1
  }
}