{
  "contractName": "HarmonyProver",
  "abi": [
    {
      "inputs": [
        {
          "internalType": "address",
          "name": "lightClient",
          "type": "address"
        }
      ],
      "stateMutability": "nonpayable",
      "type": "constructor"
    },
    {
      "inputs": [],
      "name": "client",
      "outputs": [
        {
          "internalType": "contract HarmonyLightClient",
          "name": "",
          "type": "address"
        }
      ],
      "stateMutability": "view",
      "type": "function"
    },
    {
      "inputs": [],
      "name": "lightClient",
      "outputs": [
        {
          "internalType": "address",
          "name": "_lightClient",
          "type": "address"
        }
      ],
      "stateMutability": "view",
      "type": "function"
    },
    {
      "inputs": [
        {
          "components": [
            {
              "internalType": "bytes32",
              "name": "expectedRoot",
              "type": "bytes32"
            },
            {
              "internalType": "bytes",
              "name": "key",
              "type": "bytes"
            },
            {
              "internalType": "bytes[]",
              "name": "proof",
              "type": "bytes[]"
            },
            {
              "internalType": "uint256",
              "name": "keyIndex",
              "type": "uint256"
            },
            {
              "internalType": "uint256",
              "name": "proofIndex",
              "type": "uint256"
            },
            {
              "internalType": "bytes",
              "name": "expectedValue",
              "type": "bytes"
            }
          ],
          "internalType": "struct MPT.MerkleProof",
          "name": "data",
          "type": "tuple"
        }
      ],
      "name": "verifyTrieProof",
      "outputs": [
        {
          "internalType": "bool",
          "name": "",
          "type": "bool"
        }
      ],
      "stateMutability": "pure",
      "type": "function"
    },
    {
      "inputs": [
        {
          "components": [
            {
              "internalType": "bytes32",
              "name": "hash",
              "type": "bytes32"
            },
            {
              "internalType": "bytes32",
              "name": "parentHash",
              "type": "bytes32"
            },
            {
              "internalType": "address",
              "name": "miner",
              "type": "address"
            },
            {
              "internalType": "bytes32",
              "name": "stateRoot",
              "type": "bytes32"
            },
            {
              "internalType": "bytes32",
              "name": "transactionsRoot",
              "type": "bytes32"
            },
            {
              "internalType": "bytes32",
              "name": "receiptsRoot",
              "type": "bytes32"
            },
            {
              "internalType": "bytes32",
              "name": "outgoingReceiptsRoot",
              "type": "bytes32"
            },
            {
              "internalType": "bytes32",
              "name": "incomingReceiptsRoot",
              "type": "bytes32"
            },
            {
              "internalType": "bytes",
              "name": "logsBloom",
              "type": "bytes"
            },
            {
              "internalType": "uint256",
              "name": "number",
              "type": "uint256"
            },
            {
              "internalType": "uint256",
              "name": "gasLimit",
              "type": "uint256"
            },
            {
              "internalType": "uint256",
              "name": "gasUsed",
              "type": "uint256"
            },
            {
              "internalType": "uint256",
              "name": "timestamp",
              "type": "uint256"
            },
            {
              "internalType": "bytes",
              "name": "extraData",
              "type": "bytes"
            },
            {
              "internalType": "bytes32",
              "name": "mixHash",
              "type": "bytes32"
            },
            {
              "internalType": "uint256",
              "name": "viewID",
              "type": "uint256"
            },
            {
              "internalType": "uint256",
              "name": "epoch",
              "type": "uint256"
            },
            {
              "internalType": "uint256",
              "name": "shardID",
              "type": "uint256"
            },
            {
              "internalType": "bytes",
              "name": "lastCommitSignature",
              "type": "bytes"
            },
            {
              "internalType": "bytes",
              "name": "lastCommitBitmap",
              "type": "bytes"
            },
            {
              "internalType": "bytes",
              "name": "vrf",
              "type": "bytes"
            },
            {
              "internalType": "bytes",
              "name": "vdf",
              "type": "bytes"
            },
            {
              "internalType": "bytes",
              "name": "shardState",
              "type": "bytes"
            },
            {
              "internalType": "bytes",
              "name": "crossLink",
              "type": "bytes"
            },
            {
              "internalType": "bytes",
              "name": "slashes",
              "type": "bytes"
            },
            {
              "internalType": "bytes",
              "name": "mmrRoot",
              "type": "bytes"
            }
          ],
          "internalType": "struct HarmonyParser.BlockHeader",
          "name": "header",
          "type": "tuple"
        }
      ],
      "name": "verifyHeader",
      "outputs": [
        {
          "internalType": "bool",
          "name": "valid",
          "type": "bool"
        },
        {
          "internalType": "string",
          "name": "reason",
          "type": "string"
        }
      ],
      "stateMutability": "view",
      "type": "function"
    },
    {
      "inputs": [
        {
          "components": [
            {
              "internalType": "bytes32",
              "name": "hash",
              "type": "bytes32"
            },
            {
              "internalType": "bytes32",
              "name": "parentHash",
              "type": "bytes32"
            },
            {
              "internalType": "address",
              "name": "miner",
              "type": "address"
            },
            {
              "internalType": "bytes32",
              "name": "stateRoot",
              "type": "bytes32"
            },
            {
              "internalType": "bytes32",
              "name": "transactionsRoot",
              "type": "bytes32"
            },
            {
              "internalType": "bytes32",
              "name": "receiptsRoot",
              "type": "bytes32"
            },
            {
              "internalType": "bytes32",
              "name": "outgoingReceiptsRoot",
              "type": "bytes32"
            },
            {
              "internalType": "bytes32",
              "name": "incomingReceiptsRoot",
              "type": "bytes32"
            },
            {
              "internalType": "bytes",
              "name": "logsBloom",
              "type": "bytes"
            },
            {
              "internalType": "uint256",
              "name": "number",
              "type": "uint256"
            },
            {
              "internalType": "uint256",
              "name": "gasLimit",
              "type": "uint256"
            },
            {
              "internalType": "uint256",
              "name": "gasUsed",
              "type": "uint256"
            },
            {
              "internalType": "uint256",
              "name": "timestamp",
              "type": "uint256"
            },
            {
              "internalType": "bytes",
              "name": "extraData",
              "type": "bytes"
            },
            {
              "internalType": "bytes32",
              "name": "mixHash",
              "type": "bytes32"
            },
            {
              "internalType": "uint256",
              "name": "viewID",
              "type": "uint256"
            },
            {
              "internalType": "uint256",
              "name": "epoch",
              "type": "uint256"
            },
            {
              "internalType": "uint256",
              "name": "shardID",
              "type": "uint256"
            },
            {
              "internalType": "bytes",
              "name": "lastCommitSignature",
              "type": "bytes"
            },
            {
              "internalType": "bytes",
              "name": "lastCommitBitmap",
              "type": "bytes"
            },
            {
              "internalType": "bytes",
              "name": "vrf",
              "type": "bytes"
            },
            {
              "internalType": "bytes",
              "name": "vdf",
              "type": "bytes"
            },
            {
              "internalType": "bytes",
              "name": "shardState",
              "type": "bytes"
            },
            {
              "internalType": "bytes",
              "name": "crossLink",
              "type": "bytes"
            },
            {
              "internalType": "bytes",
              "name": "slashes",
              "type": "bytes"
            },
            {
              "internalType": "bytes",
              "name": "mmrRoot",
              "type": "bytes"
            }
          ],
          "internalType": "struct HarmonyParser.BlockHeader",
          "name": "header",
          "type": "tuple"
        },
        {
          "components": [
            {
              "internalType": "bytes32",
              "name": "expectedRoot",
              "type": "bytes32"
            },
            {
              "internalType": "bytes",
              "name": "key",
              "type": "bytes"
            },
            {
              "internalType": "bytes[]",
              "name": "proof",
              "type": "bytes[]"
            },
            {
              "internalType": "uint256",
              "name": "keyIndex",
              "type": "uint256"
            },
            {
              "internalType": "uint256",
              "name": "proofIndex",
              "type": "uint256"
            },
            {
              "internalType": "bytes",
              "name": "expectedValue",
              "type": "bytes"
            }
          ],
          "internalType": "struct MPT.MerkleProof",
          "name": "txdata",
          "type": "tuple"
        }
      ],
      "name": "verifyTransaction",
      "outputs": [
        {
          "internalType": "bool",
          "name": "valid",
          "type": "bool"
        },
        {
          "internalType": "string",
          "name": "reason",
          "type": "string"
        }
      ],
      "stateMutability": "pure",
      "type": "function"
    },
    {
      "inputs": [
        {
          "components": [
            {
              "internalType": "bytes32",
              "name": "hash",
              "type": "bytes32"
            },
            {
              "internalType": "bytes32",
              "name": "parentHash",
              "type": "bytes32"
            },
            {
              "internalType": "address",
              "name": "miner",
              "type": "address"
            },
            {
              "internalType": "bytes32",
              "name": "stateRoot",
              "type": "bytes32"
            },
            {
              "internalType": "bytes32",
              "name": "transactionsRoot",
              "type": "bytes32"
            },
            {
              "internalType": "bytes32",
              "name": "receiptsRoot",
              "type": "bytes32"
            },
            {
              "internalType": "bytes32",
              "name": "outgoingReceiptsRoot",
              "type": "bytes32"
            },
            {
              "internalType": "bytes32",
              "name": "incomingReceiptsRoot",
              "type": "bytes32"
            },
            {
              "internalType": "bytes",
              "name": "logsBloom",
              "type": "bytes"
            },
            {
              "internalType": "uint256",
              "name": "number",
              "type": "uint256"
            },
            {
              "internalType": "uint256",
              "name": "gasLimit",
              "type": "uint256"
            },
            {
              "internalType": "uint256",
              "name": "gasUsed",
              "type": "uint256"
            },
            {
              "internalType": "uint256",
              "name": "timestamp",
              "type": "uint256"
            },
            {
              "internalType": "bytes",
              "name": "extraData",
              "type": "bytes"
            },
            {
              "internalType": "bytes32",
              "name": "mixHash",
              "type": "bytes32"
            },
            {
              "internalType": "uint256",
              "name": "viewID",
              "type": "uint256"
            },
            {
              "internalType": "uint256",
              "name": "epoch",
              "type": "uint256"
            },
            {
              "internalType": "uint256",
              "name": "shardID",
              "type": "uint256"
            },
            {
              "internalType": "bytes",
              "name": "lastCommitSignature",
              "type": "bytes"
            },
            {
              "internalType": "bytes",
              "name": "lastCommitBitmap",
              "type": "bytes"
            },
            {
              "internalType": "bytes",
              "name": "vrf",
              "type": "bytes"
            },
            {
              "internalType": "bytes",
              "name": "vdf",
              "type": "bytes"
            },
            {
              "internalType": "bytes",
              "name": "shardState",
              "type": "bytes"
            },
            {
              "internalType": "bytes",
              "name": "crossLink",
              "type": "bytes"
            },
            {
              "internalType": "bytes",
              "name": "slashes",
              "type": "bytes"
            },
            {
              "internalType": "bytes",
              "name": "mmrRoot",
              "type": "bytes"
            }
          ],
          "internalType": "struct HarmonyParser.BlockHeader",
          "name": "header",
          "type": "tuple"
        },
        {
          "components": [
            {
              "internalType": "bytes32",
              "name": "expectedRoot",
              "type": "bytes32"
            },
            {
              "internalType": "bytes",
              "name": "key",
              "type": "bytes"
            },
            {
              "internalType": "bytes[]",
              "name": "proof",
              "type": "bytes[]"
            },
            {
              "internalType": "uint256",
              "name": "keyIndex",
              "type": "uint256"
            },
            {
              "internalType": "uint256",
              "name": "proofIndex",
              "type": "uint256"
            },
            {
              "internalType": "bytes",
              "name": "expectedValue",
              "type": "bytes"
            }
          ],
          "internalType": "struct MPT.MerkleProof",
          "name": "receiptdata",
          "type": "tuple"
        }
      ],
      "name": "verifyReceipt",
      "outputs": [
        {
          "internalType": "bool",
          "name": "valid",
          "type": "bool"
        },
        {
          "internalType": "string",
          "name": "reason",
          "type": "string"
        }
      ],
      "stateMutability": "pure",
      "type": "function"
    },
    {
      "inputs": [
        {
          "components": [
            {
              "internalType": "bytes32",
              "name": "hash",
              "type": "bytes32"
            },
            {
              "internalType": "bytes32",
              "name": "parentHash",
              "type": "bytes32"
            },
            {
              "internalType": "address",
              "name": "miner",
              "type": "address"
            },
            {
              "internalType": "bytes32",
              "name": "stateRoot",
              "type": "bytes32"
            },
            {
              "internalType": "bytes32",
              "name": "transactionsRoot",
              "type": "bytes32"
            },
            {
              "internalType": "bytes32",
              "name": "receiptsRoot",
              "type": "bytes32"
            },
            {
              "internalType": "bytes32",
              "name": "outgoingReceiptsRoot",
              "type": "bytes32"
            },
            {
              "internalType": "bytes32",
              "name": "incomingReceiptsRoot",
              "type": "bytes32"
            },
            {
              "internalType": "bytes",
              "name": "logsBloom",
              "type": "bytes"
            },
            {
              "internalType": "uint256",
              "name": "number",
              "type": "uint256"
            },
            {
              "internalType": "uint256",
              "name": "gasLimit",
              "type": "uint256"
            },
            {
              "internalType": "uint256",
              "name": "gasUsed",
              "type": "uint256"
            },
            {
              "internalType": "uint256",
              "name": "timestamp",
              "type": "uint256"
            },
            {
              "internalType": "bytes",
              "name": "extraData",
              "type": "bytes"
            },
            {
              "internalType": "bytes32",
              "name": "mixHash",
              "type": "bytes32"
            },
            {
              "internalType": "uint256",
              "name": "viewID",
              "type": "uint256"
            },
            {
              "internalType": "uint256",
              "name": "epoch",
              "type": "uint256"
            },
            {
              "internalType": "uint256",
              "name": "shardID",
              "type": "uint256"
            },
            {
              "internalType": "bytes",
              "name": "lastCommitSignature",
              "type": "bytes"
            },
            {
              "internalType": "bytes",
              "name": "lastCommitBitmap",
              "type": "bytes"
            },
            {
              "internalType": "bytes",
              "name": "vrf",
              "type": "bytes"
            },
            {
              "internalType": "bytes",
              "name": "vdf",
              "type": "bytes"
            },
            {
              "internalType": "bytes",
              "name": "shardState",
              "type": "bytes"
            },
            {
              "internalType": "bytes",
              "name": "crossLink",
              "type": "bytes"
            },
            {
              "internalType": "bytes",
              "name": "slashes",
              "type": "bytes"
            },
            {
              "internalType": "bytes",
              "name": "mmrRoot",
              "type": "bytes"
            }
          ],
          "internalType": "struct HarmonyParser.BlockHeader",
          "name": "header",
          "type": "tuple"
        },
        {
          "components": [
            {
              "internalType": "bytes32",
              "name": "expectedRoot",
              "type": "bytes32"
            },
            {
              "internalType": "bytes",
              "name": "key",
              "type": "bytes"
            },
            {
              "internalType": "bytes[]",
              "name": "proof",
              "type": "bytes[]"
            },
            {
              "internalType": "uint256",
              "name": "keyIndex",
              "type": "uint256"
            },
            {
              "internalType": "uint256",
              "name": "proofIndex",
              "type": "uint256"
            },
            {
              "internalType": "bytes",
              "name": "expectedValue",
              "type": "bytes"
            }
          ],
          "internalType": "struct MPT.MerkleProof",
          "name": "accountdata",
          "type": "tuple"
        }
      ],
      "name": "verifyAccount",
      "outputs": [
        {
          "internalType": "bool",
          "name": "valid",
          "type": "bool"
        },
        {
          "internalType": "string",
          "name": "reason",
          "type": "string"
        }
      ],
      "stateMutability": "pure",
      "type": "function"
    },
    {
      "inputs": [
        {
          "components": [
            {
              "internalType": "bytes32",
              "name": "expectedRoot",
              "type": "bytes32"
            },
            {
              "internalType": "bytes",
              "name": "key",
              "type": "bytes"
            },
            {
              "internalType": "bytes[]",
              "name": "proof",
              "type": "bytes[]"
            },
            {
              "internalType": "uint256",
              "name": "keyIndex",
              "type": "uint256"
            },
            {
              "internalType": "uint256",
              "name": "proofIndex",
              "type": "uint256"
            },
            {
              "internalType": "bytes",
              "name": "expectedValue",
              "type": "bytes"
            }
          ],
          "internalType": "struct MPT.MerkleProof",
          "name": "receiptdata",
          "type": "tuple"
        },
        {
          "internalType": "bytes",
          "name": "logdata",
          "type": "bytes"
        },
        {
          "internalType": "uint256",
          "name": "logIndex",
          "type": "uint256"
        }
      ],
      "name": "verifyLog",
      "outputs": [
        {
          "internalType": "bool",
          "name": "valid",
          "type": "bool"
        },
        {
          "internalType": "string",
          "name": "reason",
          "type": "string"
        }
      ],
      "stateMutability": "pure",
      "type": "function"
    },
    {
      "inputs": [
        {
          "components": [
            {
              "internalType": "bytes32",
              "name": "hash",
              "type": "bytes32"
            },
            {
              "internalType": "bytes32",
              "name": "parentHash",
              "type": "bytes32"
            },
            {
              "internalType": "address",
              "name": "miner",
              "type": "address"
            },
            {
              "internalType": "bytes32",
              "name": "stateRoot",
              "type": "bytes32"
            },
            {
              "internalType": "bytes32",
              "name": "transactionsRoot",
              "type": "bytes32"
            },
            {
              "internalType": "bytes32",
              "name": "receiptsRoot",
              "type": "bytes32"
            },
            {
              "internalType": "bytes32",
              "name": "outgoingReceiptsRoot",
              "type": "bytes32"
            },
            {
              "internalType": "bytes32",
              "name": "incomingReceiptsRoot",
              "type": "bytes32"
            },
            {
              "internalType": "bytes",
              "name": "logsBloom",
              "type": "bytes"
            },
            {
              "internalType": "uint256",
              "name": "number",
              "type": "uint256"
            },
            {
              "internalType": "uint256",
              "name": "gasLimit",
              "type": "uint256"
            },
            {
              "internalType": "uint256",
              "name": "gasUsed",
              "type": "uint256"
            },
            {
              "internalType": "uint256",
              "name": "timestamp",
              "type": "uint256"
            },
            {
              "internalType": "bytes",
              "name": "extraData",
              "type": "bytes"
            },
            {
              "internalType": "bytes32",
              "name": "mixHash",
              "type": "bytes32"
            },
            {
              "internalType": "uint256",
              "name": "viewID",
              "type": "uint256"
            },
            {
              "internalType": "uint256",
              "name": "epoch",
              "type": "uint256"
            },
            {
              "internalType": "uint256",
              "name": "shardID",
              "type": "uint256"
            },
            {
              "internalType": "bytes",
              "name": "lastCommitSignature",
              "type": "bytes"
            },
            {
              "internalType": "bytes",
              "name": "lastCommitBitmap",
              "type": "bytes"
            },
            {
              "internalType": "bytes",
              "name": "vrf",
              "type": "bytes"
            },
            {
              "internalType": "bytes",
              "name": "vdf",
              "type": "bytes"
            },
            {
              "internalType": "bytes",
              "name": "shardState",
              "type": "bytes"
            },
            {
              "internalType": "bytes",
              "name": "crossLink",
              "type": "bytes"
            },
            {
              "internalType": "bytes",
              "name": "slashes",
              "type": "bytes"
            },
            {
              "internalType": "bytes",
              "name": "mmrRoot",
              "type": "bytes"
            }
          ],
          "internalType": "struct HarmonyParser.BlockHeader",
          "name": "header",
          "type": "tuple"
        },
        {
          "components": [
            {
              "internalType": "bytes32",
              "name": "expectedRoot",
              "type": "bytes32"
            },
            {
              "internalType": "bytes",
              "name": "key",
              "type": "bytes"
            },
            {
              "internalType": "bytes[]",
              "name": "proof",
              "type": "bytes[]"
            },
            {
              "internalType": "uint256",
              "name": "keyIndex",
              "type": "uint256"
            },
            {
              "internalType": "uint256",
              "name": "proofIndex",
              "type": "uint256"
            },
            {
              "internalType": "bytes",
              "name": "expectedValue",
              "type": "bytes"
            }
          ],
          "internalType": "struct MPT.MerkleProof",
          "name": "receiptdata",
          "type": "tuple"
        }
      ],
      "name": "verifyTransactionAndStatus",
      "outputs": [
        {
          "internalType": "bool",
          "name": "valid",
          "type": "bool"
        },
        {
          "internalType": "string",
          "name": "reason",
          "type": "string"
        }
      ],
      "stateMutability": "pure",
      "type": "function"
    },
    {
      "inputs": [
        {
          "components": [
            {
              "internalType": "bytes32",
              "name": "hash",
              "type": "bytes32"
            },
            {
              "internalType": "bytes32",
              "name": "parentHash",
              "type": "bytes32"
            },
            {
              "internalType": "address",
              "name": "miner",
              "type": "address"
            },
            {
              "internalType": "bytes32",
              "name": "stateRoot",
              "type": "bytes32"
            },
            {
              "internalType": "bytes32",
              "name": "transactionsRoot",
              "type": "bytes32"
            },
            {
              "internalType": "bytes32",
              "name": "receiptsRoot",
              "type": "bytes32"
            },
            {
              "internalType": "bytes32",
              "name": "outgoingReceiptsRoot",
              "type": "bytes32"
            },
            {
              "internalType": "bytes32",
              "name": "incomingReceiptsRoot",
              "type": "bytes32"
            },
            {
              "internalType": "bytes",
              "name": "logsBloom",
              "type": "bytes"
            },
            {
              "internalType": "uint256",
              "name": "number",
              "type": "uint256"
            },
            {
              "internalType": "uint256",
              "name": "gasLimit",
              "type": "uint256"
            },
            {
              "internalType": "uint256",
              "name": "gasUsed",
              "type": "uint256"
            },
            {
              "internalType": "uint256",
              "name": "timestamp",
              "type": "uint256"
            },
            {
              "internalType": "bytes",
              "name": "extraData",
              "type": "bytes"
            },
            {
              "internalType": "bytes32",
              "name": "mixHash",
              "type": "bytes32"
            },
            {
              "internalType": "uint256",
              "name": "viewID",
              "type": "uint256"
            },
            {
              "internalType": "uint256",
              "name": "epoch",
              "type": "uint256"
            },
            {
              "internalType": "uint256",
              "name": "shardID",
              "type": "uint256"
            },
            {
              "internalType": "bytes",
              "name": "lastCommitSignature",
              "type": "bytes"
            },
            {
              "internalType": "bytes",
              "name": "lastCommitBitmap",
              "type": "bytes"
            },
            {
              "internalType": "bytes",
              "name": "vrf",
              "type": "bytes"
            },
            {
              "internalType": "bytes",
              "name": "vdf",
              "type": "bytes"
            },
            {
              "internalType": "bytes",
              "name": "shardState",
              "type": "bytes"
            },
            {
              "internalType": "bytes",
              "name": "crossLink",
              "type": "bytes"
            },
            {
              "internalType": "bytes",
              "name": "slashes",
              "type": "bytes"
            },
            {
              "internalType": "bytes",
              "name": "mmrRoot",
              "type": "bytes"
            }
          ],
          "internalType": "struct HarmonyParser.BlockHeader",
          "name": "header",
          "type": "tuple"
        },
        {
          "components": [
            {
              "internalType": "bytes32",
              "name": "expectedRoot",
              "type": "bytes32"
            },
            {
              "internalType": "bytes",
              "name": "key",
              "type": "bytes"
            },
            {
              "internalType": "bytes[]",
              "name": "proof",
              "type": "bytes[]"
            },
            {
              "internalType": "uint256",
              "name": "keyIndex",
              "type": "uint256"
            },
            {
              "internalType": "uint256",
              "name": "proofIndex",
              "type": "uint256"
            },
            {
              "internalType": "bytes",
              "name": "expectedValue",
              "type": "bytes"
            }
          ],
          "internalType": "struct MPT.MerkleProof",
          "name": "accountdata",
          "type": "tuple"
        }
      ],
      "name": "verifyCode",
      "outputs": [
        {
          "internalType": "bool",
          "name": "valid",
          "type": "bool"
        },
        {
          "internalType": "string",
          "name": "reason",
          "type": "string"
        }
      ],
      "stateMutability": "pure",
      "type": "function"
    },
    {
      "inputs": [
        {
          "components": [
            {
              "internalType": "bytes32",
              "name": "expectedRoot",
              "type": "bytes32"
            },
            {
              "internalType": "bytes",
              "name": "key",
              "type": "bytes"
            },
            {
              "internalType": "bytes[]",
              "name": "proof",
              "type": "bytes[]"
            },
            {
              "internalType": "uint256",
              "name": "keyIndex",
              "type": "uint256"
            },
            {
              "internalType": "uint256",
              "name": "proofIndex",
              "type": "uint256"
            },
            {
              "internalType": "bytes",
              "name": "expectedValue",
              "type": "bytes"
            }
          ],
          "internalType": "struct MPT.MerkleProof",
          "name": "accountProof",
          "type": "tuple"
        },
        {
          "components": [
            {
              "internalType": "bytes32",
              "name": "expectedRoot",
              "type": "bytes32"
            },
            {
              "internalType": "bytes",
              "name": "key",
              "type": "bytes"
            },
            {
              "internalType": "bytes[]",
              "name": "proof",
              "type": "bytes[]"
            },
            {
              "internalType": "uint256",
              "name": "keyIndex",
              "type": "uint256"
            },
            {
              "internalType": "uint256",
              "name": "proofIndex",
              "type": "uint256"
            },
            {
              "internalType": "bytes",
              "name": "expectedValue",
              "type": "bytes"
            }
          ],
          "internalType": "struct MPT.MerkleProof",
          "name": "storageProof",
          "type": "tuple"
        }
      ],
      "name": "verifyStorage",
      "outputs": [
        {
          "internalType": "bool",
          "name": "valid",
          "type": "bool"
        },
        {
          "internalType": "string",
          "name": "reason",
          "type": "string"
        }
      ],
      "stateMutability": "pure",
      "type": "function"
    },
    {
      "inputs": [
        {
          "components": [
            {
              "internalType": "bytes32",
              "name": "expectedRoot",
              "type": "bytes32"
            },
            {
              "internalType": "bytes",
              "name": "key",
              "type": "bytes"
            },
            {
              "internalType": "bytes[]",
              "name": "proof",
              "type": "bytes[]"
            },
            {
              "internalType": "uint256",
              "name": "keyIndex",
              "type": "uint256"
            },
            {
              "internalType": "uint256",
              "name": "proofIndex",
              "type": "uint256"
            },
            {
              "internalType": "bytes",
              "name": "expectedValue",
              "type": "bytes"
            }
          ],
          "internalType": "struct MPT.MerkleProof",
          "name": "txdata",
          "type": "tuple"
        },
        {
          "internalType": "uint256",
          "name": "chainId",
          "type": "uint256"
        }
      ],
      "name": "getTransactionSender",
      "outputs": [
        {
          "internalType": "address",
          "name": "sender",
          "type": "address"
        }
      ],
      "stateMutability": "pure",
      "type": "function"
    },
    {
      "inputs": [
        {
          "internalType": "bytes",
          "name": "signedTransaction",
          "type": "bytes"
        }
      ],
      "name": "getTransactionHash",
      "outputs": [
        {
          "internalType": "bytes32",
          "name": "hash",
          "type": "bytes32"
        }
      ],
      "stateMutability": "pure",
      "type": "function"
    },
    {
      "inputs": [
        {
          "components": [
            {
              "internalType": "bytes32",
              "name": "hash",
              "type": "bytes32"
            },
            {
              "internalType": "bytes32",
              "name": "parentHash",
              "type": "bytes32"
            },
            {
              "internalType": "address",
              "name": "miner",
              "type": "address"
            },
            {
              "internalType": "bytes32",
              "name": "stateRoot",
              "type": "bytes32"
            },
            {
              "internalType": "bytes32",
              "name": "transactionsRoot",
              "type": "bytes32"
            },
            {
              "internalType": "bytes32",
              "name": "receiptsRoot",
              "type": "bytes32"
            },
            {
              "internalType": "bytes32",
              "name": "outgoingReceiptsRoot",
              "type": "bytes32"
            },
            {
              "internalType": "bytes32",
              "name": "incomingReceiptsRoot",
              "type": "bytes32"
            },
            {
              "internalType": "bytes",
              "name": "logsBloom",
              "type": "bytes"
            },
            {
              "internalType": "uint256",
              "name": "number",
              "type": "uint256"
            },
            {
              "internalType": "uint256",
              "name": "gasLimit",
              "type": "uint256"
            },
            {
              "internalType": "uint256",
              "name": "gasUsed",
              "type": "uint256"
            },
            {
              "internalType": "uint256",
              "name": "timestamp",
              "type": "uint256"
            },
            {
              "internalType": "bytes",
              "name": "extraData",
              "type": "bytes"
            },
            {
              "internalType": "bytes32",
              "name": "mixHash",
              "type": "bytes32"
            },
            {
              "internalType": "uint256",
              "name": "viewID",
              "type": "uint256"
            },
            {
              "internalType": "uint256",
              "name": "epoch",
              "type": "uint256"
            },
            {
              "internalType": "uint256",
              "name": "shardID",
              "type": "uint256"
            },
            {
              "internalType": "bytes",
              "name": "lastCommitSignature",
              "type": "bytes"
            },
            {
              "internalType": "bytes",
              "name": "lastCommitBitmap",
              "type": "bytes"
            },
            {
              "internalType": "bytes",
              "name": "vrf",
              "type": "bytes"
            },
            {
              "internalType": "bytes",
              "name": "vdf",
              "type": "bytes"
            },
            {
              "internalType": "bytes",
              "name": "shardState",
              "type": "bytes"
            },
            {
              "internalType": "bytes",
              "name": "crossLink",
              "type": "bytes"
            },
            {
              "internalType": "bytes",
              "name": "slashes",
              "type": "bytes"
            },
            {
              "internalType": "bytes",
              "name": "mmrRoot",
              "type": "bytes"
            }
          ],
          "internalType": "struct HarmonyParser.BlockHeader",
          "name": "header",
          "type": "tuple"
        }
      ],
      "name": "getBlockHash",
      "outputs": [
        {
          "internalType": "bytes32",
          "name": "hash",
          "type": "bytes32"
        }
      ],
      "stateMutability": "pure",
      "type": "function"
    },
    {
      "inputs": [
        {
          "components": [
            {
              "internalType": "bytes32",
              "name": "hash",
              "type": "bytes32"
            },
            {
              "internalType": "bytes32",
              "name": "parentHash",
              "type": "bytes32"
            },
            {
              "internalType": "address",
              "name": "miner",
              "type": "address"
            },
            {
              "internalType": "bytes32",
              "name": "stateRoot",
              "type": "bytes32"
            },
            {
              "internalType": "bytes32",
              "name": "transactionsRoot",
              "type": "bytes32"
            },
            {
              "internalType": "bytes32",
              "name": "receiptsRoot",
              "type": "bytes32"
            },
            {
              "internalType": "bytes32",
              "name": "outgoingReceiptsRoot",
              "type": "bytes32"
            },
            {
              "internalType": "bytes32",
              "name": "incomingReceiptsRoot",
              "type": "bytes32"
            },
            {
              "internalType": "bytes",
              "name": "logsBloom",
              "type": "bytes"
            },
            {
              "internalType": "uint256",
              "name": "number",
              "type": "uint256"
            },
            {
              "internalType": "uint256",
              "name": "gasLimit",
              "type": "uint256"
            },
            {
              "internalType": "uint256",
              "name": "gasUsed",
              "type": "uint256"
            },
            {
              "internalType": "uint256",
              "name": "timestamp",
              "type": "uint256"
            },
            {
              "internalType": "bytes",
              "name": "extraData",
              "type": "bytes"
            },
            {
              "internalType": "bytes32",
              "name": "mixHash",
              "type": "bytes32"
            },
            {
              "internalType": "uint256",
              "name": "viewID",
              "type": "uint256"
            },
            {
              "internalType": "uint256",
              "name": "epoch",
              "type": "uint256"
            },
            {
              "internalType": "uint256",
              "name": "shardID",
              "type": "uint256"
            },
            {
              "internalType": "bytes",
              "name": "lastCommitSignature",
              "type": "bytes"
            },
            {
              "internalType": "bytes",
              "name": "lastCommitBitmap",
              "type": "bytes"
            },
            {
              "internalType": "bytes",
              "name": "vrf",
              "type": "bytes"
            },
            {
              "internalType": "bytes",
              "name": "vdf",
              "type": "bytes"
            },
            {
              "internalType": "bytes",
              "name": "shardState",
              "type": "bytes"
            },
            {
              "internalType": "bytes",
              "name": "crossLink",
              "type": "bytes"
            },
            {
              "internalType": "bytes",
              "name": "slashes",
              "type": "bytes"
            },
            {
              "internalType": "bytes",
              "name": "mmrRoot",
              "type": "bytes"
            }
          ],
          "internalType": "struct HarmonyParser.BlockHeader",
          "name": "header",
          "type": "tuple"
        }
      ],
      "name": "getBlockRlpData",
      "outputs": [
        {
          "internalType": "bytes",
          "name": "data",
          "type": "bytes"
        }
      ],
      "stateMutability": "pure",
      "type": "function"
    },
    {
      "inputs": [
        {
          "internalType": "bytes",
          "name": "data",
          "type": "bytes"
        }
      ],
      "name": "toBlockHeader",
      "outputs": [
        {
          "components": [
            {
              "internalType": "bytes32",
              "name": "hash",
              "type": "bytes32"
            },
            {
              "internalType": "bytes32",
              "name": "parentHash",
              "type": "bytes32"
            },
            {
              "internalType": "address",
              "name": "miner",
              "type": "address"
            },
            {
              "internalType": "bytes32",
              "name": "stateRoot",
              "type": "bytes32"
            },
            {
              "internalType": "bytes32",
              "name": "transactionsRoot",
              "type": "bytes32"
            },
            {
              "internalType": "bytes32",
              "name": "receiptsRoot",
              "type": "bytes32"
            },
            {
              "internalType": "bytes32",
              "name": "outgoingReceiptsRoot",
              "type": "bytes32"
            },
            {
              "internalType": "bytes32",
              "name": "incomingReceiptsRoot",
              "type": "bytes32"
            },
            {
              "internalType": "bytes",
              "name": "logsBloom",
              "type": "bytes"
            },
            {
              "internalType": "uint256",
              "name": "number",
              "type": "uint256"
            },
            {
              "internalType": "uint256",
              "name": "gasLimit",
              "type": "uint256"
            },
            {
              "internalType": "uint256",
              "name": "gasUsed",
              "type": "uint256"
            },
            {
              "internalType": "uint256",
              "name": "timestamp",
              "type": "uint256"
            },
            {
              "internalType": "bytes",
              "name": "extraData",
              "type": "bytes"
            },
            {
              "internalType": "bytes32",
              "name": "mixHash",
              "type": "bytes32"
            },
            {
              "internalType": "uint256",
              "name": "viewID",
              "type": "uint256"
            },
            {
              "internalType": "uint256",
              "name": "epoch",
              "type": "uint256"
            },
            {
              "internalType": "uint256",
              "name": "shardID",
              "type": "uint256"
            },
            {
              "internalType": "bytes",
              "name": "lastCommitSignature",
              "type": "bytes"
            },
            {
              "internalType": "bytes",
              "name": "lastCommitBitmap",
              "type": "bytes"
            },
            {
              "internalType": "bytes",
              "name": "vrf",
              "type": "bytes"
            },
            {
              "internalType": "bytes",
              "name": "vdf",
              "type": "bytes"
            },
            {
              "internalType": "bytes",
              "name": "shardState",
              "type": "bytes"
            },
            {
              "internalType": "bytes",
              "name": "crossLink",
              "type": "bytes"
            },
            {
              "internalType": "bytes",
              "name": "slashes",
              "type": "bytes"
            },
            {
              "internalType": "bytes",
              "name": "mmrRoot",
              "type": "bytes"
            }
          ],
          "internalType": "struct HarmonyParser.BlockHeader",
          "name": "header",
          "type": "tuple"
        }
      ],
      "stateMutability": "pure",
      "type": "function"
    },
    {
      "inputs": [
        {
          "components": [
            {
              "internalType": "address",
              "name": "contractAddress",
              "type": "address"
            },
            {
              "internalType": "bytes32[]",
              "name": "topics",
              "type": "bytes32[]"
            },
            {
              "internalType": "bytes",
              "name": "data",
              "type": "bytes"
            }
          ],
          "internalType": "struct HarmonyParser.Log",
          "name": "log",
          "type": "tuple"
        }
      ],
      "name": "getLog",
      "outputs": [
        {
          "internalType": "bytes",
          "name": "data",
          "type": "bytes"
        }
      ],
      "stateMutability": "pure",
      "type": "function"
    },
    {
      "inputs": [
        {
          "components": [
            {
              "internalType": "uint8",
              "name": "status",
              "type": "uint8"
            },
            {
              "internalType": "uint256",
              "name": "gasUsed",
              "type": "uint256"
            },
            {
              "internalType": "bytes",
              "name": "logsBloom",
              "type": "bytes"
            },
            {
              "components": [
                {
                  "internalType": "address",
                  "name": "contractAddress",
                  "type": "address"
                },
                {
                  "internalType": "bytes32[]",
                  "name": "topics",
                  "type": "bytes32[]"
                },
                {
                  "internalType": "bytes",
                  "name": "data",
                  "type": "bytes"
                }
              ],
              "internalType": "struct HarmonyParser.Log[]",
              "name": "logs",
              "type": "tuple[]"
            }
          ],
          "internalType": "struct HarmonyParser.TransactionReceiptTrie",
          "name": "receipt",
          "type": "tuple"
        }
      ],
      "name": "getReceiptRlpData",
      "outputs": [
        {
          "internalType": "bytes",
          "name": "data",
          "type": "bytes"
        }
      ],
      "stateMutability": "pure",
      "type": "function"
    },
    {
      "inputs": [
        {
          "internalType": "bytes",
          "name": "data",
          "type": "bytes"
        }
      ],
      "name": "toReceiptLog",
      "outputs": [
        {
          "components": [
            {
              "internalType": "address",
              "name": "contractAddress",
              "type": "address"
            },
            {
              "internalType": "bytes32[]",
              "name": "topics",
              "type": "bytes32[]"
            },
            {
              "internalType": "bytes",
              "name": "data",
              "type": "bytes"
            }
          ],
          "internalType": "struct HarmonyParser.Log",
          "name": "log",
          "type": "tuple"
        }
      ],
      "stateMutability": "pure",
      "type": "function"
    },
    {
      "inputs": [
        {
          "internalType": "bytes",
          "name": "data",
          "type": "bytes"
        }
      ],
      "name": "toReceipt",
      "outputs": [
        {
          "components": [
            {
              "internalType": "uint8",
              "name": "status",
              "type": "uint8"
            },
            {
              "internalType": "uint256",
              "name": "gasUsed",
              "type": "uint256"
            },
            {
              "internalType": "bytes",
              "name": "logsBloom",
              "type": "bytes"
            },
            {
              "components": [
                {
                  "internalType": "address",
                  "name": "contractAddress",
                  "type": "address"
                },
                {
                  "internalType": "bytes32[]",
                  "name": "topics",
                  "type": "bytes32[]"
                },
                {
                  "internalType": "bytes",
                  "name": "data",
                  "type": "bytes"
                }
              ],
              "internalType": "struct HarmonyParser.Log[]",
              "name": "logs",
              "type": "tuple[]"
            }
          ],
          "internalType": "struct HarmonyParser.TransactionReceiptTrie",
          "name": "receipt",
          "type": "tuple"
        }
      ],
      "stateMutability": "pure",
      "type": "function"
    },
    {
      "inputs": [
        {
          "internalType": "bytes",
          "name": "data",
          "type": "bytes"
        }
      ],
      "name": "toTransaction",
      "outputs": [
        {
          "components": [
            {
              "internalType": "uint256",
              "name": "nonce",
              "type": "uint256"
            },
            {
              "internalType": "uint256",
              "name": "gasPrice",
              "type": "uint256"
            },
            {
              "internalType": "uint256",
              "name": "gas",
              "type": "uint256"
            },
            {
              "internalType": "uint256",
              "name": "shardID",
              "type": "uint256"
            },
            {
              "internalType": "uint256",
              "name": "toShardID",
              "type": "uint256"
            },
            {
              "internalType": "address",
              "name": "to",
              "type": "address"
            },
            {
              "internalType": "uint256",
              "name": "value",
              "type": "uint256"
            },
            {
              "internalType": "bytes",
              "name": "input",
              "type": "bytes"
            },
            {
              "internalType": "uint8",
              "name": "v",
              "type": "uint8"
            },
            {
              "internalType": "bytes32",
              "name": "r",
              "type": "bytes32"
            },
            {
              "internalType": "bytes32",
              "name": "s",
              "type": "bytes32"
            }
          ],
          "internalType": "struct HarmonyParser.Transaction",
          "name": "transaction",
          "type": "tuple"
        }
      ],
      "stateMutability": "pure",
      "type": "function"
    },
    {
      "inputs": [
        {
          "internalType": "bytes",
          "name": "data",
          "type": "bytes"
        }
      ],
      "name": "toAccount",
      "outputs": [
        {
          "components": [
            {
              "internalType": "uint256",
              "name": "nonce",
              "type": "uint256"
            },
            {
              "internalType": "uint256",
              "name": "balance",
              "type": "uint256"
            },
            {
              "internalType": "bytes32",
              "name": "storageRoot",
              "type": "bytes32"
            },
            {
              "internalType": "bytes32",
              "name": "codeHash",
              "type": "bytes32"
            }
          ],
          "internalType": "struct HarmonyParser.Account",
          "name": "account",
          "type": "tuple"
        }
      ],
      "stateMutability": "pure",
      "type": "function"
    }
  ],
  "bytecode": "0x60806040523480156200001157600080fd5b5060405162003e8138038062003e8183398101604081905262000034916200005a565b600080546001600160a01b0319166001600160a01b03929092169190911790556200008a565b6000602082840312156200006c578081fd5b81516001600160a01b038116811462000083578182fd5b9392505050565b613de7806200009a6000396000f3fe608060405234801561001057600080fd5b50600436106101425760003560e01c8063a26899e9116100b8578063b5700e681161007c578063b5700e68146102be578063cfa62eda146102c6578063ddaead26146102d9578063e3714d5f146102f9578063e7617bf814610319578063f8531da91461033957610142565b8063a26899e914610245578063a2deadbd14610265578063ad0fac8d14610278578063b09549e31461028b578063b3dd6a0a1461029e57610142565b806339d7ce7b1161010a57806339d7ce7b146101d9578063470cee3a146101ec57806355eff580146101ff57806371423b731461021f5780639720ae451461016557806399df62371461023257610142565b8063109e94cf1461014757806315af20ae146101655780631b34d464146101865780632d756916146101a6578063316cb085146101c6575b600080fd5b61014f61034c565b60405161015c91906137e2565b60405180910390f35b6101786101733660046134a9565b61035b565b60405161015c929190613801565b610199610194366004613509565b610365565b60405161015c919061383a565b6101b96101b4366004613477565b610378565b60405161015c91906137d9565b6101786101d43660046134a9565b610391565b6101786101e73660046134a9565b610432565b6101786101fa3660046134a9565b6104b4565b61021261020d36600461353b565b61051f565b60405161015c91906137f6565b61019961022d366004613477565b61052a565b6101786102403660046135d6565b610535565b610258610253366004613445565b6105ed565b60405161015c9190613b82565b6101b9610273366004613445565b6105fe565b61014f61028636600461360a565b610609565b61019961029936600461364c565b610661565b6102b16102ac366004613445565b61066c565b60405161015c919061393f565b61014f61067d565b6101786102d4366004613477565b61068c565b6102ec6102e7366004613445565b6107df565b60405161015c9190613c19565b61030c610307366004613445565b6107f0565b60405161015c9190613b6f565b61032c610327366004613445565b610801565b60405161015c919061396a565b61017861034736600461356d565b610812565b6000546001600160a01b031681565b5060009160609150565b6060610370826108af565b90505b919050565b60006103838261052a565b805190602001209050919050565b6000606082600001518460a00151146103c8576000604051806060016040528060248152602001613d25602491399150915061042b565b6103d183610a1e565b91508161041657505060408051808201909152601d81527f76657269667952656365697074202d20696e76616c69642070726f6f66000000602082015260009061042b565b50506040805160208101909152600081526001905b9250929050565b805160608381015160009214610466576000604051806060016040528060248152602001613d6a602491399150915061042b565b61046f83610a1e565b91508161041657505060408051808201909152601d81527f7665726966794163636f756e74202d20696e76616c69642070726f6f66000000602082015260009061042b565b6000606082600001518460800151146104eb576000604051806060016040528060288152602001613cfd602891399150915061042b565b6104f483610a1e565b915081610416576000604051806060016040528060218152602001613d49602191399150915061042b565b600061037082610a1e565b606061037082610b6a565b60006060610541612cd2565b61054e8560a00151610fa9565b8451604082015191925014610582576000604051806060016040528060248152602001613d8e60249139925092505061042b565b61058b84610a1e565b9250826105d157505060408051808201909152601d81527f76657269667953746f72616765202d20696e76616c69642070726f6f6600000060208201526000915061042b565b5050604080516020810190915260008152600191509250929050565b6105f5612cf9565b61037082611077565b805160209091012090565b6000610613612d24565b6106208460a001516111e1565b9050606061062e828561138a565b905060008180519060200120905061065781846101000151856101200151866101400151611551565b9695505050505050565b60606103708261161f565b610674612cd2565b61037082610fa9565b6000546001600160a01b031690565b60006060600061069b8461052a565b805190602001209050836000015181146106ee57505060408051808201909152601b81527f4865616465722064617461206f72206861736820696e76616c696400000000006020820152600091506107da565b6000805461012086015160405163c6d90e2d60e01b81526001600160a01b039092169163c6d90e2d91610723916004016137d9565b60206040518083038186803b15801561073b57600080fd5b505afa15801561074f573d6000803e3d6000fd5b505050506040513d601f19601f82011682018060405250810190610773919061342d565b855190915081146107c15760006040518060400160405280601781526020017f556e7265676973746572656420626c6f636b20686173680000000000000000008152509350935050506107da565b6001604051806020016040528060008152509350935050505b915091565b6107e7612d24565b610370826111e1565b6107f8612d90565b6103708261176e565b610809612dba565b610370826118ab565b6000606061081e612cf9565b61082b8660a00151611077565b905061084d8160600151858151811061084057fe5b60200260200101516108af565b805190602001208580519060200120141561087c575050604080516020810190915260008152600191506108a7565b505060408051808201909152600d81526c131bd9c81b9bdd08199bdd5b99609a1b6020820152600091505b935093915050565b60408051600380825260808201909252606091829190816020015b60608152602001906001900390816108ca57905050905060608360200151516001600160401b03811180156108fe57600080fd5b5060405190808252806020026020018201604052801561093257816020015b606081526020019060019003908161091d5790505b50905060005b8460200151518110156109a3576109848560200151828151811061095857fe5b602002602001015160405160200161097091906137d9565b604051602081830303815290604052611c3f565b82828151811061099057fe5b6020908102919091010152600101610938565b5083516109af90611c89565b826000815181106109bc57fe5b60200260200101819052506109d081611cac565b826001815181106109dd57fe5b60200260200101819052506109f58460400151611c3f565b82600281518110610a0257fe5b6020026020010181905250610a1682611cac565b949350505050565b600060608260400151836080015181518110610a3657fe5b60200260200101519050610a48612e9e565b610a59610a5483611ccf565b611cf4565b9050836060015160001415610a9c5783518251602084012014610a975760405162461bcd60e51b8152600401610a8e9061384d565b60405180910390fd5b610b08565b602082511015610ae2576000610ab9610ab483611d3e565b611d8c565b85519091508114610adc5760405162461bcd60e51b8152600401610a8e90613911565b50610b08565b83518251602084012014610b085760405162461bcd60e51b8152600401610a8e906138bc565b6000610b178260000151611dec565b90508060111415610b3557610b2b85611e44565b9350505050610373565b8060021415610b4857610b2b8286611f62565b60a085015151610b5e5760019350505050610373565b60009350505050610373565b60408051600f8082526102008201909252606091829190816020015b6060815260200190600190039081610b86579050509050610bb5836020015160405160200161097091906137d9565b81600081518110610bc257fe5b6020026020010181905250610bda8360400151611c89565b81600181518110610be757fe5b6020026020010181905250610c0a836060015160405160200161097091906137d9565b81600281518110610c1757fe5b6020026020010181905250610c3a836080015160405160200161097091906137d9565b81600381518110610c4757fe5b6020026020010181905250610c6a8360a0015160405160200161097091906137d9565b81600481518110610c7757fe5b6020026020010181905250610c9a8360c0015160405160200161097091906137d9565b81600581518110610ca757fe5b6020026020010181905250610cca8360e0015160405160200161097091906137d9565b81600681518110610cd757fe5b6020026020010181905250610cf0836101000151611c3f565b81600781518110610cfd57fe5b6020026020010181905250610d168361012001516121eb565b81600881518110610d2357fe5b6020026020010181905250610d3c8361014001516121eb565b81600981518110610d4957fe5b6020026020010181905250610d628361016001516121eb565b81600a81518110610d6f57fe5b6020026020010181905250610d888361018001516121eb565b81600b81518110610d9557fe5b6020026020010181905250610dae836101a00151611c3f565b81600c81518110610dbb57fe5b6020026020010181905250610ddf836101c0015160405160200161097091906137d9565b81600d81518110610dec57fe5b6020026020010181905250610e05836101e001516121eb565b81600e81518110610e1257fe5b6020026020010181905250610e2b8361020001516121eb565b81600f81518110610e3857fe5b6020026020010181905250610e518361022001516121eb565b81601081518110610e5e57fe5b6020026020010181905250610e77836102400151611c3f565b81601181518110610e8457fe5b6020026020010181905250610e9d836102600151611c3f565b81601281518110610eaa57fe5b6020026020010181905250610ec3836102800151611c3f565b81601381518110610ed057fe5b6020026020010181905250610ee9836102a00151611c3f565b81601481518110610ef657fe5b6020026020010181905250610f0f836102c00151611c3f565b81601581518110610f1c57fe5b6020026020010181905250610f35836102e00151611c3f565b81601681518110610f4257fe5b6020026020010181905250610f5b836103000151611c3f565b81601781518110610f6857fe5b6020026020010181905250610f81836103200151611c3f565b81601881518110610f8e57fe5b6020026020010181905250610fa281611cac565b9392505050565b610fb1612cd2565b610fb9612e9e565b610fc5610a5484611ccf565b905060005b610fd3826121fe565b156110705780610ff057610fe9610ab483611d3e565b8352611068565b806001141561100f57611005610ab483611d3e565b6020840152611068565b806002141561103b5761103161102c61102784611d3e565b61221f565b6122a3565b6040840152611068565b806003141561105d5761105361102c61102784611d3e565b6060840152611068565b61106682611d3e565b505b600101610fca565b5050919050565b61107f612cf9565b611087612e9e565b611093610a5484611ccf565b905060005b6110a1826121fe565b1561107057806110c1576110b7610ab483611d3e565b60ff1683526111d9565b80600114156110e0576110d6610ab483611d3e565b60208401526111d9565b80600214156110ff576110f561102783611d3e565b60408401526111d9565b80600314156111ce57606061111b61111684611d3e565b6122aa565b905080516001600160401b038111801561113457600080fd5b5060405190808252806020026020018201604052801561116e57816020015b61115b612d90565b8152602001906001900390816111535790505b50606085015260005b81518110156111c7576111a461119f83838151811061119257fe5b6020026020010151612391565b61176e565b856060015182815181106111b457fe5b6020908102919091010152600101611177565b50506111d9565b6111d782611d3e565b505b600101611098565b6111e9612d24565b6111f1612e9e565b6111fd610a5484611ccf565b905060005b61120b826121fe565b15611070578061122857611221610ab483611d3e565b8352611382565b80600114156112475761123d610ab483611d3e565b6020840152611382565b80600214156112665761125c610ab483611d3e565b6040840152611382565b80600314156112855761127b610ab483611d3e565b6060840152611382565b80600414156112a45761129a610ab483611d3e565b6080840152611382565b80600514156112d1576112be6112b983611d3e565b61240f565b6001600160a01b031660a0840152611382565b80600614156112f0576112e6610ab483611d3e565b60c0840152611382565b806007141561130f5761130561102783611d3e565b60e0840152611382565b806008141561133257611324610ab483611d3e565b60ff16610100840152611382565b80600914156113575761134c61134783611d3e565b612429565b610120840152611382565b80600a14156113775761136c61134783611d3e565b610140840152611382565b61138082611d3e565b505b600101611202565b6040805160098082526101408201909252606091829190816020015b60608152602001906001900390816113a657505084519091506113c8906121eb565b816000815181106113d557fe5b60200260200101819052506113ed84602001516121eb565b816001815181106113fa57fe5b602002602001018190525061141284604001516121eb565b8160028151811061141f57fe5b602002602001018190525061143784606001516121eb565b8160038151811061144457fe5b602002602001018190525061145c84608001516121eb565b8160048151811061146957fe5b60200260200101819052506114818460a00151611c89565b8160058151811061148e57fe5b60200260200101819052506114a68460c001516121eb565b816006815181106114b357fe5b60200260200101819052506114cb8460e00151611c3f565b816007815181106114d857fe5b60200260200101819052506114ec836121eb565b816008815181106114f957fe5b602002602001018190525061150e60006121eb565b8160098151811061151b57fe5b602002602001018190525061153060006121eb565b81600a8151811061153d57fe5b6020026020010181905250610a1681611cac565b6000601b8460ff16101561156657601b840193505b601c8460ff1611156115895760018085161461158357601c611586565b601b5b93505b8360ff16601b148061159e57508360ff16601c145b6115a757600080fd5b600185858585604051600081526020016040526040516115ca949392919061381c565b6020604051602081039080840390855afa1580156115ec573d6000803e3d6000fd5b5050604051601f1901519150506001600160a01b038116610a165760405162461bcd60e51b8152600401610a8e90613893565b60408051600480825260a08201909252606091829190816020015b606081526020019060019003908161163a57905050905060608360600151516001600160401b038111801561166e57600080fd5b506040519080825280602002602001820160405280156116a257816020015b606081526020019060019003908161168d5790505b50905060005b8460600151518110156116e7576116c88560600151828151811061084057fe5b8282815181106116d457fe5b60209081029190910101526001016116a8565b5083516116f69060ff166121eb565b8260008151811061170357fe5b602002602001018190525061171b84602001516121eb565b8260018151811061172857fe5b60200260200101819052506117408460400151611c3f565b8260028151811061174d57fe5b602002602001018190525061176181611cac565b82600381518110610a0257fe5b611776612d90565b61177e612e9e565b61178a610a5484611ccf565b905060005b611798826121fe565b1561107057806117be576117ae6112b983611d3e565b6001600160a01b031683526118a3565b80600114156118795760606117d561111684611d3e565b905080516001600160401b03811180156117ee57600080fd5b50604051908082528060200260200182016040528015611818578160200160208202803683370190505b50602085015260005b815181101561187257600061184883838151811061183b57fe5b6020026020010151611d8c565b60001b9050808660200151838151811061185e57fe5b602090810291909101015250600101611821565b50506118a3565b80600214156118985761188e61102783611d3e565b60408401526118a3565b6118a182611d3e565b505b60010161178f565b6118b3612dba565b6118bb612e9e565b6118c7610a5484611ccf565b90506118d281611d3e565b506118dc81611d3e565b506118e9610a5482611d3e565b905060005b6118f7826121fe565b15611c2d57806119175761190d610ab483611d3e565b6020840152611c25565b806001141561193f5761192c6112b983611d3e565b6001600160a01b03166040840152611c25565b806002141561195e57611954610ab483611d3e565b6060840152611c25565b806003141561197d57611973610ab483611d3e565b6080840152611c25565b806004141561199c57611992610ab483611d3e565b60a0840152611c25565b80600514156119bb576119b1610ab483611d3e565b60c0840152611c25565b80600614156119da576119d0610ab483611d3e565b60e0840152611c25565b80600714156119fa576119ef61102783611d3e565b610100840152611c25565b8060081415611a1a57611a0f610ab483611d3e565b610120840152611c25565b8060091415611a3a57611a2f610ab483611d3e565b610140840152611c25565b80600a1415611a5a57611a4f610ab483611d3e565b610160840152611c25565b80600b1415611a7a57611a6f610ab483611d3e565b610180840152611c25565b80600c1415611a9a57611a8f61102783611d3e565b6101a0840152611c25565b80600d1415611aba57611aaf610ab483611d3e565b6101c0840152611c25565b80600e1415611ada57611acf610ab483611d3e565b6101e0840152611c25565b80600f1415611afa57611aef610ab483611d3e565b610200840152611c25565b8060101415611b1a57611b0f610ab483611d3e565b610220840152611c25565b8060111415611b3a57611b2f61102783611d3e565b610240840152611c25565b8060121415611b5a57611b4f61102783611d3e565b610260840152611c25565b8060131415611b7a57611b6f61102783611d3e565b610280840152611c25565b8060141415611b9a57611b8f61102783611d3e565b6102a0840152611c25565b8060151415611bba57611baf61102783611d3e565b6102c0840152611c25565b8060161415611bda57611bcf61102783611d3e565b6102e0840152611c25565b8060171415611bfa57611bef61102783611d3e565b610300840152611c25565b8060181415611c1a57611c0f61102783611d3e565b610320840152611c25565b611c2382611d3e565b505b6001016118ee565b50508151602090920191909120815290565b60608082516001148015611c685750608083600081518110611c5d57fe5b016020015160f81c11155b15611c74575081610370565b610fa2611c838451608061243e565b84612596565b60408051600560a21b8318601482015260348101909152606090610fa281611c3f565b606080611cb883612613565b9050610fa2611cc9825160c061243e565b82612596565b611cd7612ebe565b506040805180820190915281518152602082810190820152919050565b611cfc612e9e565b611d0582612713565b611d0e57600080fd5b6000611d1d836020015161274d565b60208085015160408051808201909152868152920190820152915050919050565b611d46612ebe565b611d4f826121fe565b611d5857600080fd5b60208201516000611d68826127b0565b80830160209586015260408051808201909152908152938401919091525090919050565b805160009015801590611da157508151602110155b611daa57600080fd5b6000611db9836020015161274d565b83516020808601518301805193945091849003929190831015611de357826020036101000a820491505b50949350505050565b8051600090611dfd57506000610373565b600080611e0d846020015161274d565b602085015185519181019250015b80821015611e3b57611e2c826127b0565b60019093019290910190611e1b565b50909392505050565b600060608260400151836080015181518110611e5c57fe5b60200260200101519050826020015151836060015110611ecd576060611ea0611e8761111684611ccf565b601081518110611e9357fe5b602002602001015161221f565b90508360a001518051906020012081805190602001201415611ec757600192505050610373565b50611f44565b60008360200151846060015181518110611ee357fe5b016020015160f81c90506060611f09611efe61111685611ccf565b8381518110611e9357fe5b90508051600014611f4157611f1d816122a3565b855260608501805160019081019091526080860180519091019052610b2b85610a1e565b50505b60a083015151611f58576001915050610373565b6000915050610373565b60006060611f7261102785611d3e565b90506060611f8261102786611d3e565b602083015190915060fc1c600281141561203d578251600019016060611fac856021846000612844565b90506060611fc888602001518960600151602001856000612844565b905084805190602001208860a001518051906020012014156120355780805190602001208280519060200120141561200957600196505050505050506121e5565b80516020820120612019836128fe565b80519060200120141561203557600196505050505050506121e5565b5050506121c7565b80600314156120f057606061205784602086516001612844565b9050606061207e8760200151886060015160200189606001518a6020015151036000612844565b905083805190602001208760a001518051906020012014156120e9578080519060200120828051906020012014156120be576001955050505050506121e5565b805160208201206120ce836129e4565b8051906020012014156120e9576001955050505050506121e5565b50506121c7565b8061219457825160001901606061210b856021846000612844565b9050606061212788602001518960600151602001856000612844565b9050808051906020012082805190602001201480612159575080516020820120612150836128fe565b80519060200120145b1561203557612167856122a3565b885260608801805184019052608088018051600101905261218788610a1e565b96505050505050506121e5565b80600114156121af578251606061210b856020846001612844565b60405162461bcd60e51b8152600401610a8e906138ea565b60a0850151516121dd57600193505050506121e5565b600093505050505b92915050565b60606103706121f983612af1565b611c3f565b6000612208612ebe565b505080518051602091820151919092015191011190565b805160609061222d57600080fd5b600061223c836020015161274d565b83519091508190036060816001600160401b038111801561225c57600080fd5b506040519080825280601f01601f191660200182016040528015612287576020820181803683370190505b5090506000816020019050611de3848760200151018285612bf0565b6020015190565b60606122b582612713565b6122be57600080fd5b60006122c983611dec565b90506060816001600160401b03811180156122e357600080fd5b5060405190808252806020026020018201604052801561231d57816020015b61230a612ebe565b8152602001906001900390816123025790505b509050600061232f856020015161274d565b60208601510190506000805b848110156123865761234c836127b0565b915060405180604001604052808381526020018481525084828151811061236f57fe5b60209081029190910101529181019160010161233b565b509195945050505050565b60608082600001516001600160401b03811180156123ae57600080fd5b506040519080825280601f01601f1916602001820160405280156123d9576020820181803683370190505b5090508051600014156123ed579050610373565b60008160200190506124088460200151828660000151612bf0565b5092915050565b805160009060151461242057600080fd5b61037082611d8c565b60006103706124378361221f565b6000612c3b565b606080603884101561249b5760408051600180825281830190925290602082018180368337019050509050838301601f1a60f81b8160008151811061247f57fe5b60200101906001600160f81b031916908160001a905350610fa2565b600060015b8086816124a957fe5b04156124be57600190910190610100026124a0565b816001016001600160401b03811180156124d757600080fd5b506040519080825280601f01601f191660200182016040528015612502576020820181803683370190505b509250603782860101601f1a60f81b8360008151811061251e57fe5b60200101906001600160f81b031916908160001a905350600190505b81811161258d576101008183036101000a878161255357fe5b048161255b57fe5b06601f1a60f81b83828151811061256e57fe5b60200101906001600160f81b031916908160001a90535060010161253a565b50509392505050565b6060806040519050835180825260208201818101602087015b818310156125c75780518352602092830192016125af565b50855184518101855292509050808201602086015b818310156125f45780518352602092830192016125dc565b508651929092011591909101601f01601f191660405250905092915050565b60608151600014156126345750604080516000815260208101909152610373565b6000805b83518110156126675783818151811061264d57fe5b602002602001015151820191508080600101915050612638565b6060826001600160401b038111801561267f57600080fd5b506040519080825280601f01601f1916602001820160405280156126aa576020820181803683370190505b50600092509050602081015b8551831015611de35760608684815181106126cd57fe5b6020026020010151905060006020820190506126eb83828451612c7a565b8785815181106126f757fe5b60200260200101515183019250505082806001019350506126b6565b805160009061272457506000610373565b6020820151805160001a9060c082101561274357600092505050610373565b5060019392505050565b8051600090811a6080811015612767576000915050610373565b60b8811080612782575060c08110801590612782575060f881105b15612791576001915050610373565b60c08110156127a55760b519019050610373565b60f519019050610373565b80516000908190811a60808110156127cb5760019150612408565b60b88110156127e057607e1981019150612408565b60c081101561280d5760b78103600185019450806020036101000a85510460018201810193505050612408565b60f88110156128225760be1981019150612408565b60019390930151602084900360f7016101000a900490920160f5190192915050565b60606020808404906008601f8616029060008085886001600160401b038111801561286e57600080fd5b506040519080825280601f01601f191660200182016040528015612899576020820181803683370190505b5090508a8a01915087156128c357818401516001600160fc1b031681850152602090930192600192505b825b868110156128e35782850151828601526020909401936001016128c5565b5083820151851c851b84820152505050505050949350505050565b805160609060020281816001600160401b038111801561291d57600080fd5b506040519080825280601f01601f191660200182016040528015612948576020820181803683370190505b50905060005b84518110156129dc5760008061297d87848151811061296957fe5b01602001516001600160f81b031916612cbe565b915091508184846002028151811061299157fe5b60200101906001600160f81b031916908160001a905350808484600202600101815181106129bb57fe5b60200101906001600160f81b031916908160001a905350505060010161294e565b509392505050565b60606000600183516002020390506060816001600160401b0381118015612a0a57600080fd5b506040519080825280601f01601f191660200182016040528015612a35576020820181803683370190505b50905083600081518110612a4557fe5b602001015160f81c60f81b81600081518110612a5d57fe5b60200101906001600160f81b031916908160001a90535060015b84518110156129dc57600080612a9287848151811061296957fe5b9150915081846001856002020381518110612aa957fe5b60200101906001600160f81b031916908160001a90535080848460020281518110612ad057fe5b60200101906001600160f81b031916908160001a9053505050600101612a77565b60408051602080825281830190925260609182919060208201818036833701905050905082602082015260005b6020811015612b5457818181518110612b3357fe5b01602001516001600160f81b03191615612b4c57612b54565b600101612b1e565b6060816020036001600160401b0381118015612b6f57600080fd5b506040519080825280601f01601f191660200182016040528015612b9a576020820181803683370190505b50905060005b8151811015611de3578351600184019385918110612bba57fe5b602001015160f81c60f81b828281518110612bd157fe5b60200101906001600160f81b031916908160001a905350600101612ba0565b80612bfa57612c36565b5b60208110612c1a578251825260209283019290910190601f1901612bfb565b8251825160208390036101000a60001901801990921691161782525b505050565b60008060005b60208110156129dc57806008028582860181518110612c5c57fe5b01602001516001600160f81b031916901c9190911790600101612c41565b8282825b60208110612c9d578151835260209283019290910190601f1901612c7e565b905182516020929092036101000a6000190180199091169116179052505050565b600481901c916001600160fc1b0390911690565b60408051608081018252600080825260208201819052918101829052606081019190915290565b6040518060800160405280600060ff1681526020016000815260200160608152602001606081525090565b604051806101600160405280600081526020016000815260200160008152602001600081526020016000815260200160006001600160a01b031681526020016000815260200160608152602001600060ff16815260200160008019168152602001600080191681525090565b604051806060016040528060006001600160a01b0316815260200160608152602001606081525090565b604051806103400160405280600080191681526020016000801916815260200160006001600160a01b0316815260200160008019168152602001600080191681526020016000801916815260200160008019168152602001600080191681526020016060815260200160008152602001600081526020016000815260200160008152602001606081526020016000801916815260200160008152602001600081526020016000815260200160608152602001606081526020016060815260200160608152602001606081526020016060815260200160608152602001606081525090565b6040518060400160405280612eb1612ebe565b8152602001600081525090565b604051806040016040528060008152602001600081525090565b80356001600160a01b038116811461037357600080fd5b600082601f830112612eff578081fd5b8135612f12612f0d82613cdf565b613cbc565b818152915060208083019084810160005b84811015612f4c57612f3a888484358a0101612faf565b84529282019290820190600101612f23565b505050505092915050565b600082601f830112612f67578081fd5b8135612f75612f0d82613cdf565b818152915060208083019084810160005b84811015612f4c57612f9d888484358a010161327e565b84529282019290820190600101612f86565b600082601f830112612fbf578081fd5b81356001600160401b03811115612fd257fe5b612fe5601f8201601f1916602001613cbc565b9150808252836020828501011115612ffc57600080fd5b8060208401602084013760009082016020015292915050565b6000610340808385031215613028578182fd5b61303181613cbc565b915050813581526020820135602082015261304e60408301612ed8565b6040820152606082013560608201526080820135608082015260a082013560a082015260c082013560c082015260e082013560e0820152610100808301356001600160401b03808211156130a157600080fd5b6130ad86838701612faf565b928401929092525061012083810135908301526101408084013590830152610160808401359083015261018080840135908301526101a0908184013590808211156130f757600080fd5b61310386838701612faf565b92840192909252506101c083810135908301526101e08084013590830152610200808401359083015261022080840135908301526102409081840135908082111561314d57600080fd5b61315986838701612faf565b8385015261026092508285013591508082111561317557600080fd5b61318186838701612faf565b8385015261028092508285013591508082111561319d57600080fd5b6131a986838701612faf565b838501526102a09250828501359150808211156131c557600080fd5b6131d186838701612faf565b838501526102c09250828501359150808211156131ed57600080fd5b6131f986838701612faf565b838501526102e092508285013591508082111561321557600080fd5b61322186838701612faf565b8385015261030092508285013591508082111561323d57600080fd5b61324986838701612faf565b8385015261032092508285013591508082111561326557600080fd5b5061327285828601612faf565b82840152505092915050565b60006060828403121561328f578081fd5b604051606081016001600160401b0382821081831117156132ac57fe5b816040528293506132bc85612ed8565b83526020915081850135818111156132d357600080fd5b8501601f810187136132e457600080fd5b80356132f2612f0d82613cdf565b81815284810190838601868402850187018b101561330f57600080fd5b600094505b83851015613332578035835260019490940193918601918601613314565b50808688015250505050604085013591508082111561335057600080fd5b5061335d85828601612faf565b6040830152505092915050565b600060c0828403121561337b578081fd5b61338560c0613cbc565b90508135815260208201356001600160401b03808211156133a557600080fd5b6133b185838601612faf565b602084015260408401359150808211156133ca57600080fd5b6133d685838601612eef565b6040840152606084013560608401526080840135608084015260a084013591508082111561340357600080fd5b5061341084828501612faf565b60a08301525092915050565b803560ff8116811461037357600080fd5b60006020828403121561343e578081fd5b5051919050565b600060208284031215613456578081fd5b81356001600160401b0381111561346b578182fd5b610a1684828501612faf565b600060208284031215613488578081fd5b81356001600160401b0381111561349d578182fd5b610a1684828501613015565b600080604083850312156134bb578081fd5b82356001600160401b03808211156134d1578283fd5b6134dd86838701613015565b935060208501359150808211156134f2578283fd5b506134ff8582860161336a565b9150509250929050565b60006020828403121561351a578081fd5b81356001600160401b0381111561352f578182fd5b610a168482850161327e565b60006020828403121561354c578081fd5b81356001600160401b03811115613561578182fd5b610a168482850161336a565b600080600060608486031215613581578081fd5b83356001600160401b0380821115613597578283fd5b6135a38783880161336a565b945060208601359150808211156135b8578283fd5b506135c586828701612faf565b925050604084013590509250925092565b600080604083850312156135e8578182fd5b82356001600160401b03808211156135fe578384fd5b6134dd8683870161336a565b6000806040838503121561361c578182fd5b82356001600160401b03811115613631578283fd5b61363d8582860161336a565b95602094909401359450505050565b60006020828403121561365d578081fd5b81356001600160401b0380821115613673578283fd5b9083019060808286031215613686578283fd5b60405160808101818110838211171561369b57fe5b6040526136a78361341c565b8152602083013560208201526040830135828111156136c4578485fd5b6136d087828601612faf565b6040830152506060830135828111156136e7578485fd5b6136f387828601612f57565b60608301525095945050505050565b6001600160a01b03169052565b60008151808452815b8181101561373457602081850181015186830182015201613718565b818111156137455782602083870101525b50601f01601f19169290920160200192915050565b80516001600160a01b03168252602080820151606082850181905281519085018190526000929182019190839060808701905b808310156137ad578451825293830193600192909201919083019061378d565b506040860151935086810360408801526137c7818561370f565b979650505050505050565b60ff169052565b90815260200190565b6001600160a01b0391909116815260200190565b901515815260200190565b6000831515825260406020830152610a16604083018461370f565b93845260ff9290921660208401526040830152606082015260800190565b600060208252610fa2602083018461370f565b60208082526026908201527f7665726966795472696550726f6f6620726f6f74206e6f6465206861736820696040820152651b9d985b1a5960d21b606082015260800190565b6020808252600f908201526e1150d5995c9a599e481c995d995c9d608a1b604082015260600190565b6020808252601490820152737665726966795472696550726f6f6620656c736560601b604082015260600190565b6020808252600d908201526c24b73b30b634b210383937b7b360991b604082015260600190565b6020808252601490820152733b32b934b33caa3934b2a83937b7b3101e10199960611b604082015260600190565b8151815260208083015190820152604080830151908201526060918201519181019190915260800190565b600060208252825160208301526020830151604083015260408301516139936060840182613702565b5060608301516080830152608083015160a083015260a083015160c083015260c083015160e083015260e083015161010081818501528085015191505061034061012081818601526139e961036086018461370f565b908601516101408681019190915286015161016080870191909152860151610180808701919091528601516101a080870191909152860151858203601f199081016101c0808901919091529294509091613a43858461370f565b908801516101e0888101919091528801516102008089019190915288015161022080890191909152880151610240808901919091528801518782038301610260808a01919091529195509250613a99858461370f565b945080880151925050610280818786030181880152613ab8858461370f565b9450808801519250506102a0818786030181880152613ad7858461370f565b9450808801519250506102c0818786030181880152613af6858461370f565b9450808801519250506102e0818786030181880152613b15858461370f565b945080880151925050610300818786030181880152613b34858461370f565b945080880151925050610320818786030181880152613b53858461370f565b908801518782039092018488015293509050610657838261370f565b600060208252610fa2602083018461375a565b6000602080835260ff84511681840152808401516040840152604084015160806060850152613bb460a085018261370f565b6060860151601f19868303810160808801528151808452929350908401918484019085810285018601875b82811015613c0b5784878303018452613bf982875161375a565b95880195938801939150600101613bdf565b509998505050505050505050565b60006020825282516020830152602083015160408301526040830151606083015260608301516080830152608083015160a083015260a0830151613c6060c0840182613702565b5060c083015160e083015260e08301516101606101008181860152613c8961018086018461370f565b90860151909250610120613c9f868201836137d2565b860151610140868101919091529095015193019290925250919050565b6040518181016001600160401b0381118282101715613cd757fe5b604052919050565b60006001600160401b03821115613cf257fe5b506020908102019056fe7665726966795472616e73616374696f6e202d20646966666572656e74207472696520726f6f747376657269667952656365697074202d20646966666572656e74207472696520726f6f74737665726966795472616e73616374696f6e202d20696e76616c69642070726f6f667665726966794163636f756e74202d20646966666572656e74207472696520726f6f747376657269667953746f72616765202d20646966666572656e74207472696520726f6f7473a2646970667358221220d9d106decb6461658da1d1d44e842664f2752ddda26dce7e4998003c9765d11464736f6c63430007030033",
  "immutableReferences": {},
  "source": "// SPDX-License-Identifier: UNLICENSED\npragma solidity ^0.7;\npragma experimental ABIEncoderV2;\n\n// largely based on\n// https://github.com/loredanacirstea/goldengate/blob/master/contracts/contracts/Prover.sol\n\nimport \"./HarmonyParser.sol\";\nimport \"./HarmonyLightClient.sol\";\nimport \"./lib/ECVerify.sol\";\nimport \"./lib/MPT.sol\";\n\ninterface IHarmonyProver {\n    function lightClient() external view returns (address _lightClient);\n\n    function verifyTrieProof(MPT.MerkleProof memory data)\n        external\n        pure\n        returns (bool);\n\n    function verifyHeader(HarmonyParser.BlockHeader memory header)\n        external\n        view\n        returns (bool valid, string memory reason);\n\n    function verifyTransaction(\n        HarmonyParser.BlockHeader memory header,\n        MPT.MerkleProof memory txdata\n    ) external view returns (bool valid, string memory reason);\n\n    function verifyReceipt(\n        HarmonyParser.BlockHeader memory header,\n        MPT.MerkleProof memory receiptdata\n    ) external view returns (bool valid, string memory reason);\n\n    function verifyAccount(\n        HarmonyParser.BlockHeader memory header,\n        MPT.MerkleProof memory accountdata\n    ) external view returns (bool valid, string memory reason);\n\n    function verifyLog(\n        MPT.MerkleProof memory receiptdata,\n        bytes memory logdata,\n        uint256 logIndex\n    ) external view returns (bool valid, string memory reason);\n\n    function verifyTransactionAndStatus(\n        HarmonyParser.BlockHeader memory header,\n        MPT.MerkleProof memory receiptdata\n    ) external view returns (bool valid, string memory reason);\n\n    function verifyCode(\n        HarmonyParser.BlockHeader memory header,\n        MPT.MerkleProof memory accountdata\n    ) external view returns (bool valid, string memory reason);\n\n    function verifyStorage(\n        MPT.MerkleProof memory accountProof,\n        MPT.MerkleProof memory storageProof\n    ) external view returns (bool valid, string memory reason);\n}\n\ncontract HarmonyProver is IHarmonyProver {\n    using MPT for MPT.MerkleProof;\n\n    HarmonyLightClient public client;\n\n    constructor(address lightClient) public {\n        client = HarmonyLightClient(lightClient);\n    }\n\n    function lightClient() public view override returns (address _lightClient) {\n        return address(client);\n    }\n\n    function verifyTrieProof(MPT.MerkleProof memory data)\n        public\n        pure\n        override\n        returns (bool)\n    {\n        return data.verifyTrieProof();\n    }\n\n    function verifyHeader(HarmonyParser.BlockHeader memory header)\n        public\n        view\n        override\n        returns (bool valid, string memory reason)\n    {\n        bytes32 blockHash = keccak256(getBlockRlpData(header));\n        if (blockHash != header.hash)\n            return (false, \"Header data or hash invalid\");\n\n        // Check block hash was registered in light client\n        bytes32 blockHashClient = client.getConfirmedBlockHash(header.number);\n        if (blockHashClient != header.hash)\n            return (false, \"Unregistered block hash\");\n\n        return (true, \"\");\n    }\n\n    function verifyTransaction(\n        HarmonyParser.BlockHeader memory header,\n        MPT.MerkleProof memory txdata\n    ) public pure override returns (bool valid, string memory reason) {\n        if (header.transactionsRoot != txdata.expectedRoot)\n            return (false, \"verifyTransaction - different trie roots\");\n\n        valid = txdata.verifyTrieProof();\n        if (!valid) return (false, \"verifyTransaction - invalid proof\");\n\n        return (true, \"\");\n    }\n\n    function verifyReceipt(\n        HarmonyParser.BlockHeader memory header,\n        MPT.MerkleProof memory receiptdata\n    ) public pure override returns (bool valid, string memory reason) {\n        if (header.receiptsRoot != receiptdata.expectedRoot)\n            return (false, \"verifyReceipt - different trie roots\");\n\n        valid = receiptdata.verifyTrieProof();\n        if (!valid) return (false, \"verifyReceipt - invalid proof\");\n\n        return (true, \"\");\n    }\n\n    function verifyAccount(\n        HarmonyParser.BlockHeader memory header,\n        MPT.MerkleProof memory accountdata\n    ) public pure override returns (bool valid, string memory reason) {\n        if (header.stateRoot != accountdata.expectedRoot)\n            return (false, \"verifyAccount - different trie roots\");\n\n        valid = accountdata.verifyTrieProof();\n        if (!valid) return (false, \"verifyAccount - invalid proof\");\n\n        return (true, \"\");\n    }\n\n    function verifyLog(\n        MPT.MerkleProof memory receiptdata,\n        bytes memory logdata,\n        uint256 logIndex\n    ) public pure override returns (bool valid, string memory reason) {\n        HarmonyParser.TransactionReceiptTrie memory receipt = HarmonyParser\n        .toReceipt(receiptdata.expectedValue);\n\n        if (\n            keccak256(logdata) ==\n            keccak256(HarmonyParser.getLog(receipt.logs[logIndex]))\n        ) {\n            return (true, \"\");\n        }\n        return (false, \"Log not found\");\n    }\n\n    function verifyTransactionAndStatus(\n        HarmonyParser.BlockHeader memory header,\n        MPT.MerkleProof memory receiptdata\n    ) external pure override returns (bool valid, string memory reason) {}\n\n    function verifyCode(\n        HarmonyParser.BlockHeader memory header,\n        MPT.MerkleProof memory accountdata\n    ) public pure override returns (bool valid, string memory reason) {}\n\n    function verifyStorage(\n        MPT.MerkleProof memory accountProof,\n        MPT.MerkleProof memory storageProof\n    ) public pure override returns (bool valid, string memory reason) {\n        HarmonyParser.Account memory account = HarmonyParser.toAccount(\n            accountProof.expectedValue\n        );\n\n        if (account.storageRoot != storageProof.expectedRoot)\n            return (false, \"verifyStorage - different trie roots\");\n\n        valid = storageProof.verifyTrieProof();\n        if (!valid) return (false, \"verifyStorage - invalid proof\");\n\n        return (true, \"\");\n    }\n\n    function getTransactionSender(\n        MPT.MerkleProof memory txdata,\n        uint256 chainId\n    ) public pure returns (address sender) {\n        HarmonyParser.Transaction memory transaction = HarmonyParser\n        .toTransaction(txdata.expectedValue);\n        bytes memory txraw = HarmonyParser.getTransactionRaw(\n            transaction,\n            chainId\n        );\n\n        bytes32 message_hash = keccak256(txraw);\n        sender = ECVerify.ecverify(\n            message_hash,\n            transaction.v,\n            transaction.r,\n            transaction.s\n        );\n    }\n\n    function getTransactionHash(bytes memory signedTransaction)\n        public\n        pure\n        returns (bytes32 hash)\n    {\n        hash = keccak256(signedTransaction);\n    }\n\n    function getBlockHash(HarmonyParser.BlockHeader memory header)\n        public\n        pure\n        returns (bytes32 hash)\n    {\n        return keccak256(getBlockRlpData(header));\n    }\n\n    function getBlockRlpData(HarmonyParser.BlockHeader memory header)\n        public\n        pure\n        returns (bytes memory data)\n    {\n        return HarmonyParser.getBlockRlpData(header);\n    }\n\n    function toBlockHeader(bytes memory data)\n        public\n        pure\n        returns (HarmonyParser.BlockHeader memory header)\n    {\n        return HarmonyParser.toBlockHeader(data);\n    }\n\n    function getLog(HarmonyParser.Log memory log)\n        public\n        pure\n        returns (bytes memory data)\n    {\n        return HarmonyParser.getLog(log);\n    }\n\n    function getReceiptRlpData(\n        HarmonyParser.TransactionReceiptTrie memory receipt\n    ) public pure returns (bytes memory data) {\n        return HarmonyParser.getReceiptRlpData(receipt);\n    }\n\n    function toReceiptLog(bytes memory data)\n        public\n        pure\n        returns (HarmonyParser.Log memory log)\n    {\n        return HarmonyParser.toReceiptLog(data);\n    }\n\n    function toReceipt(bytes memory data)\n        public\n        pure\n        returns (HarmonyParser.TransactionReceiptTrie memory receipt)\n    {\n        return HarmonyParser.toReceipt(data);\n    }\n\n    function toTransaction(bytes memory data)\n        public\n        pure\n        returns (HarmonyParser.Transaction memory transaction)\n    {\n        return HarmonyParser.toTransaction(data);\n    }\n\n    function toAccount(bytes memory data)\n        public\n        pure\n        returns (HarmonyParser.Account memory account)\n    {\n        return HarmonyParser.toAccount(data);\n    }\n}\n",
  "sourcePath": "/Users/gupadhyaya/go/src/github.com/harmony-one/horizon/contracts/HarmonyProver.sol",
  "compiler": {
    "name": "solc",
    "version": "0.7.3+commit.9bfce1f6.Emscripten.clang"
  },
  "schemaVersion": "3.2.1",
  "updatedAt": "2021-09-01T20:06:41.334Z",
  "devdoc": {
    "kind": "dev",
    "methods": {},
    "version": 1
  },
  "userdoc": {
    "kind": "user",
    "methods": {},
    "version": 1
  }
}