{
  "contractName": "Keccak512",
  "abi": [
    {
      "inputs": [
        {
          "internalType": "bytes",
          "name": "data",
          "type": "bytes"
        }
      ],
      "name": "sha3_512",
      "outputs": [
        {
          "internalType": "bytes",
          "name": "",
          "type": "bytes"
        }
      ],
      "stateMutability": "pure",
      "type": "function"
    }
  ],
  "bytecode": "0x611259610026600b82828239805160001a60731461001957fe5b30600052607381538281f3fe73000000000000000000000000000000000000000030146080604052600436106100355760003560e01c8063a399384e1461003a575b600080fd5b61004d6100483660046110fa565b610063565b60405161005a919061118e565b60405180910390f35b6060815160281480610076575081516040145b61009b5760405162461bcd60e51b8152600401610092906111e1565b60405180910390fd5b600060088351816100a857fe5b0490506100b3611060565b60005b828110156101f757600081600802905060388682600701815181106100d757fe5b602001015160f81c60f81b60f81c60ff16901b60308783600601815181106100fb57fe5b602001015160f81c60f81b60f81c60ff16901b602888846005018151811061011f57fe5b602001015160f81c60f81b60f81c60ff16901b602089856004018151811061014357fe5b602001015160f81c60f81b60f81c60ff16901b60188a866003018151811061016757fe5b602001015160f81c60f81b60f81c60ff16901b60108b876002018151811061018b57fe5b602001015160f81c60f81b60f81c60ff16901b60088c88600101815181106101af57fe5b602001015160f81c60f81b60f81c60ff16901b8c88815181106101ce57fe5b016020015160f81c171717171717178383600981106101e957fe5b6020020152506001016100b6565b50600181836009811061020657fe5b6020020152610100810180516001603f1b17905261022261107f565b61022b82610296565b60408051818152606081810183529293509060208201818036833701905050905060005b60108163ffffffff16101561028c5761028481600402848363ffffffff166010811061027757fe5b6020020151849190610448565b60010161024f565b5095945050505050565b61029e61107f565b60486008816102ab61109e565b600080805b8685816102b957fe5b0483101561036457600091505b600582101561034e575060005b6005811015610343578587816102e557fe5b04826005028201101561033b578882600502828560090201016009811061030857fe5b6020020151848383600502016019811061031e57fe5b602002015118848383600502016019811061033557fe5b60200201525b6001016102d3565b6001909101906102c6565b61035784610472565b93506001909201916102b0565b61036c61107f565b60005b601081101561043a57600093505b600584101561043557600092505b600583101561042a5787898161039d57fe5b048460050284011080156103b15750601081105b1561041f5785848460050201601981106103c757fe5b602002015163ffffffff168282601081106103de57fe5b602002015264010000000086600585028601601981106103fa57fe5b60200201518161040657fe5b0482826001016010811061041657fe5b60200201526002015b60019092019161038b565b60019093019261037d565b61036f565b509998505050505050505050565b6020820183018181538160081c60018201538160101c60028201538160181c600382015350505050565b61047a61109e565b6104826110bd565b61048a6110bd565b61049261109e565b61049a6110db565b60405180610300016040528060018152602001618082815260200167800000000000808a8152602001678000000080008000815260200161808b81526020016380000001815260200167800000008000808181526020016780000000000080098152602001608a81526020016088815260200163800080098152602001638000000a8152602001638000808b815260200167800000000000008b8152602001678000000000008089815260200167800000000000800381526020016780000000000080028152602001678000000000000080815260200161800a815260200167800000008000000a81526020016780000000800080818152602001678000000000008080815260200163800000018152602001678000000080008008815250905060005b6018811015611055576080878101516060808a01516040808c01516020808e01518e511890911890921890931889526101208b01516101008c015160e08d015160c08e015160a08f0151181818189089018190526101c08b01516101a08c01516101808d01516101608e01516101408f0151181818189289019283526102608b01516102408c01516102208d01516102008e01516101e08f015118181818918901919091526103008a01516102e08b01516102c08c01516102a08d01516102808e0151181818189288018390526001600160401b0360028202166001603f1b91829004179092188652510485600260200201516002026001600160401b03161785600060200201511884600160200201526001603f1b8560036020020151816106e357fe5b0485600360200201516002026001600160401b03161785600160200201511884600260200201526001603f1b85600460200201518161071e57fe5b0485600460200201516002026001600160401b0316178560026005811061074157fe5b602002015118606085015284516001603f1b9086516060808901519390920460029091026001600160401b031617909118608086810191825286518a5118808b5287516020808d018051909218825289516040808f0180519092189091528a518e8801805190911890528a51948e0180519095189094528901805160a08e0180519091189052805160c08e0180519091189052805160e08e018051909118905280516101008e0180519091189052516101208d018051909118905291880180516101408d018051909118905280516101608d018051909118905280516101808d018051909118905280516101a08d0180519091189052516101c08c018051909118905292870180516101e08c018051909118905280516102008c018051909118905280516102208c018051909118905280516102408c0180519091189052516102608b018051909118905281516102808b018051909118905281516102a08b018051909118905281516102c08b018051909118905281516102e08b018051909118905290516103008a01805190911890529084525163100000009060208901516001600160401b03641000000000909102169190041761010084015260408701516001603d1b9060408901516001600160401b03600890910216919004176101608401526060870151628000009060608901516001600160401b036502000000000090910216919004176102608401526080870151654000000000009060808901516001600160401b036204000090910216919004176102c084015260a08701516001603f1b900487600560200201516002026001600160401b031617836002601981106109ab57fe5b602002015260c0870151621000008104651000000000009091026001600160401b039081169190911760a085015260e0880151664000000000000081046104009091028216176101a08501526101008801516208000081046520000000000090910282161761020085015261012088015160048082029092166001603e1b909104176103008501526101408801516101408901516001600160401b036001603e1b90910216919004176080840152610160870151670400000000000000906101608901516001600160401b036040909102169190041760e084015261018087015162200000906101808901516001600160401b036508000000000090910216919004176101408401526101a08701516602000000000000906101a08901516001600160401b0361800090910216919004176102408401526101c08701516008906101c08901516001600160401b036001603d1b90910216919004176102a08401526101e0870151641000000000906101e08901516001600160401b03631000000090910216919004176020840152610200808801516102008901516001600160401b0366800000000000009091021691900417610120840152610220870151648000000000906102208901516001600160401b036302000000909102169190041761018084015261024087015165080000000000906102408901516001600160401b036220000090910216919004176101e0840152610260870151610100906102608901516001600160401b03600160381b90910216919004176102e0840152610280870151642000000000906102808901516001600160401b036308000000909102169190041760608401526102a087015165100000000000906102a08901516001600160401b0362100000909102169190041760c08401526102c08701516302000000906102c08901516001600160401b0364800000000090910216919004176101c08401526102e0870151600160381b906102e08901516001600160401b036101009091021691900417610220840152610300870151660400000000000090048760186020020151614000026001600160401b031617836014602002015282600a602002015183600560200201511916836000602002015118876000602002015282600b602002015183600660200201511916836001602002015118876001602002015282600c602002015183600760200201511916836002602002015118876002602002015282600d602002015183600860200201511916836003602002015118876003602002015282600e602002015183600960200201511916836004602002015118876004602002015282600f602002015183600a602002015119168360056020020151188760056020020152826010602002015183600b602002015119168360066020020151188760066020020152826011602002015183600c602002015119168360076020020151188760076020020152826012602002015183600d602002015119168360086020020151188760086020020152826013602002015183600e602002015119168360096020020151188760096020020152826014602002015183600f6020020151191683600a60200201511887600a602002015282601560200201518360106020020151191683600b60200201511887600b602002015282601660200201518360116020020151191683600c60200201511887600c602002015282601760200201518360126020020151191683600d60200201511887600d602002015282601860200201518360136020020151191683600e60200201511887600e602002015282600060200201518360146020020151191683600f60200201511887600f602002015282600160200201518360156020020151191683601060200201511887601060200201528260026020020151836016602002015119168360116020020151188760116020020152826003602002015183601760200201511916836012602002015118876012602002015282600460200201518360186020020151191683601360200201511887601360200201528260056020020151836000602002015119168360146020020151188760146020020152826006602002015183600160200201511916836015602002015118876015602002015282600760200201518360026020020151191683601660200201511887601660200201528260086020020151836003602002015119168360176020020151188760176020020152826009602002015183600460200201511916836018602002015118876018602002015281816018811061104357fe5b602002015187511887526001016105be565b509495945050505050565b6040518061012001604052806009906020820280368337509192915050565b6040518061020001604052806010906020820280368337509192915050565b6040518061032001604052806019906020820280368337509192915050565b6040518060a001604052806005906020820280368337509192915050565b6040518061030001604052806018906020820280368337509192915050565b6000602080838503121561110c578182fd5b82356001600160401b0380821115611122578384fd5b818501915085601f830112611135578384fd5b81358181111561114157fe5b604051601f8201601f191681018501838111828210171561115e57fe5b6040528181528382018501881015611174578586fd5b818585018683013790810190930193909352509392505050565b6000602080835283518082850152825b818110156111ba5785810183015185820160400152820161119e565b818111156111cb5783604083870101525b50601f01601f1916929092016040019392505050565b60208082526022908201527f736861353132206f6e6c7920737570706f7274203634206f7220343020627974604082015261657360f01b60608201526080019056fea26469706673582212201d636e5569dd0a499e20660baba538e37c082b0672a5d8632d1cffcfca6cd0e664736f6c63430007030033",
  "immutableReferences": {},
  "source": "// SPDX-License-Identifier: UNLICENSED\npragma solidity ^0.7;\npragma experimental ABIEncoderV2;\n\nimport \"./binary.sol\";\n\nlibrary Keccak512 {\n    using LittleEndian for bytes;\n\n    function keccak_f(uint256[25] memory A)\n        private\n        pure\n        returns (uint256[25] memory)\n    {\n        uint256[5] memory C;\n        uint256[5] memory D;\n        //uint x;\n        //uint y;\n        //uint D_0; uint D_1; uint D_2; uint D_3; uint D_4;\n        uint256[25] memory B;\n\n        uint256[24] memory RC = [\n            uint256(0x0000000000000001),\n            0x0000000000008082,\n            0x800000000000808A,\n            0x8000000080008000,\n            0x000000000000808B,\n            0x0000000080000001,\n            0x8000000080008081,\n            0x8000000000008009,\n            0x000000000000008A,\n            0x0000000000000088,\n            0x0000000080008009,\n            0x000000008000000A,\n            0x000000008000808B,\n            0x800000000000008B,\n            0x8000000000008089,\n            0x8000000000008003,\n            0x8000000000008002,\n            0x8000000000000080,\n            0x000000000000800A,\n            0x800000008000000A,\n            0x8000000080008081,\n            0x8000000000008080,\n            0x0000000080000001,\n            0x8000000080008008\n        ];\n\n        for (uint256 i = 0; i < 24; i++) {\n            /*\n            for( x = 0 ; x < 5 ; x++ ) {\n                C[x] = A[5*x]^A[5*x+1]^A[5*x+2]^A[5*x+3]^A[5*x+4];\n            }*/\n\n            C[0] = A[0] ^ A[1] ^ A[2] ^ A[3] ^ A[4];\n            C[1] = A[5] ^ A[6] ^ A[7] ^ A[8] ^ A[9];\n            C[2] = A[10] ^ A[11] ^ A[12] ^ A[13] ^ A[14];\n            C[3] = A[15] ^ A[16] ^ A[17] ^ A[18] ^ A[19];\n            C[4] = A[20] ^ A[21] ^ A[22] ^ A[23] ^ A[24];\n\n            /*\n            for( x = 0 ; x < 5 ; x++ ) {\n                D[x] = C[(x+4)%5]^((C[(x+1)%5] * 2)&0xffffffffffffffff | (C[(x+1)%5]/(2**63)));\n            }*/\n\n            D[0] =\n                C[4] ^\n                (((C[1] * 2) & 0xffffffffffffffff) | (C[1] / (2**63)));\n            D[1] =\n                C[0] ^\n                (((C[2] * 2) & 0xffffffffffffffff) | (C[2] / (2**63)));\n            D[2] =\n                C[1] ^\n                (((C[3] * 2) & 0xffffffffffffffff) | (C[3] / (2**63)));\n            D[3] =\n                C[2] ^\n                (((C[4] * 2) & 0xffffffffffffffff) | (C[4] / (2**63)));\n            D[4] =\n                C[3] ^\n                (((C[0] * 2) & 0xffffffffffffffff) | (C[0] / (2**63)));\n\n            /*\n            for( x = 0 ; x < 5 ; x++ ) {\n                for( y = 0 ; y < 5 ; y++ ) {\n                    A[5*x+y] = A[5*x+y] ^ D[x];\n                }\n            }*/\n\n            A[0] = A[0] ^ D[0];\n            A[1] = A[1] ^ D[0];\n            A[2] = A[2] ^ D[0];\n            A[3] = A[3] ^ D[0];\n            A[4] = A[4] ^ D[0];\n            A[5] = A[5] ^ D[1];\n            A[6] = A[6] ^ D[1];\n            A[7] = A[7] ^ D[1];\n            A[8] = A[8] ^ D[1];\n            A[9] = A[9] ^ D[1];\n            A[10] = A[10] ^ D[2];\n            A[11] = A[11] ^ D[2];\n            A[12] = A[12] ^ D[2];\n            A[13] = A[13] ^ D[2];\n            A[14] = A[14] ^ D[2];\n            A[15] = A[15] ^ D[3];\n            A[16] = A[16] ^ D[3];\n            A[17] = A[17] ^ D[3];\n            A[18] = A[18] ^ D[3];\n            A[19] = A[19] ^ D[3];\n            A[20] = A[20] ^ D[4];\n            A[21] = A[21] ^ D[4];\n            A[22] = A[22] ^ D[4];\n            A[23] = A[23] ^ D[4];\n            A[24] = A[24] ^ D[4];\n\n            /*Rho and pi steps*/\n            B[0] = A[0];\n            B[8] = (((A[1] * (2**36)) & 0xffffffffffffffff) | (A[1] / (2**28)));\n            B[11] = (((A[2] * (2**3)) & 0xffffffffffffffff) | (A[2] / (2**61)));\n            B[19] = (((A[3] * (2**41)) & 0xffffffffffffffff) |\n                (A[3] / (2**23)));\n            B[22] = (((A[4] * (2**18)) & 0xffffffffffffffff) |\n                (A[4] / (2**46)));\n            B[2] = (((A[5] * (2**1)) & 0xffffffffffffffff) | (A[5] / (2**63)));\n            B[5] = (((A[6] * (2**44)) & 0xffffffffffffffff) | (A[6] / (2**20)));\n            B[13] = (((A[7] * (2**10)) & 0xffffffffffffffff) |\n                (A[7] / (2**54)));\n            B[16] = (((A[8] * (2**45)) & 0xffffffffffffffff) |\n                (A[8] / (2**19)));\n            B[24] = (((A[9] * (2**2)) & 0xffffffffffffffff) | (A[9] / (2**62)));\n            B[4] = (((A[10] * (2**62)) & 0xffffffffffffffff) |\n                (A[10] / (2**2)));\n            B[7] = (((A[11] * (2**6)) & 0xffffffffffffffff) |\n                (A[11] / (2**58)));\n            B[10] = (((A[12] * (2**43)) & 0xffffffffffffffff) |\n                (A[12] / (2**21)));\n            B[18] = (((A[13] * (2**15)) & 0xffffffffffffffff) |\n                (A[13] / (2**49)));\n            B[21] = (((A[14] * (2**61)) & 0xffffffffffffffff) |\n                (A[14] / (2**3)));\n            B[1] = (((A[15] * (2**28)) & 0xffffffffffffffff) |\n                (A[15] / (2**36)));\n            B[9] = (((A[16] * (2**55)) & 0xffffffffffffffff) |\n                (A[16] / (2**9)));\n            B[12] = (((A[17] * (2**25)) & 0xffffffffffffffff) |\n                (A[17] / (2**39)));\n            B[15] = (((A[18] * (2**21)) & 0xffffffffffffffff) |\n                (A[18] / (2**43)));\n            B[23] = (((A[19] * (2**56)) & 0xffffffffffffffff) |\n                (A[19] / (2**8)));\n            B[3] = (((A[20] * (2**27)) & 0xffffffffffffffff) |\n                (A[20] / (2**37)));\n            B[6] = (((A[21] * (2**20)) & 0xffffffffffffffff) |\n                (A[21] / (2**44)));\n            B[14] = (((A[22] * (2**39)) & 0xffffffffffffffff) |\n                (A[22] / (2**25)));\n            B[17] = (((A[23] * (2**8)) & 0xffffffffffffffff) |\n                (A[23] / (2**56)));\n            B[20] = (((A[24] * (2**14)) & 0xffffffffffffffff) |\n                (A[24] / (2**50)));\n\n            /*Xi state*/\n            /*\n            for( x = 0 ; x < 5 ; x++ ) {\n                for( y = 0 ; y < 5 ; y++ ) {\n                    A[5*x+y] = B[5*x+y]^((~B[5*((x+1)%5)+y]) & B[5*((x+2)%5)+y]);\n                }\n            }*/\n\n            A[0] = B[0] ^ ((~B[5]) & B[10]);\n            A[1] = B[1] ^ ((~B[6]) & B[11]);\n            A[2] = B[2] ^ ((~B[7]) & B[12]);\n            A[3] = B[3] ^ ((~B[8]) & B[13]);\n            A[4] = B[4] ^ ((~B[9]) & B[14]);\n            A[5] = B[5] ^ ((~B[10]) & B[15]);\n            A[6] = B[6] ^ ((~B[11]) & B[16]);\n            A[7] = B[7] ^ ((~B[12]) & B[17]);\n            A[8] = B[8] ^ ((~B[13]) & B[18]);\n            A[9] = B[9] ^ ((~B[14]) & B[19]);\n            A[10] = B[10] ^ ((~B[15]) & B[20]);\n            A[11] = B[11] ^ ((~B[16]) & B[21]);\n            A[12] = B[12] ^ ((~B[17]) & B[22]);\n            A[13] = B[13] ^ ((~B[18]) & B[23]);\n            A[14] = B[14] ^ ((~B[19]) & B[24]);\n            A[15] = B[15] ^ ((~B[20]) & B[0]);\n            A[16] = B[16] ^ ((~B[21]) & B[1]);\n            A[17] = B[17] ^ ((~B[22]) & B[2]);\n            A[18] = B[18] ^ ((~B[23]) & B[3]);\n            A[19] = B[19] ^ ((~B[24]) & B[4]);\n            A[20] = B[20] ^ ((~B[0]) & B[5]);\n            A[21] = B[21] ^ ((~B[1]) & B[6]);\n            A[22] = B[22] ^ ((~B[2]) & B[7]);\n            A[23] = B[23] ^ ((~B[3]) & B[8]);\n            A[24] = B[24] ^ ((~B[4]) & B[9]);\n\n            /*Last step*/\n            A[0] = A[0] ^ RC[i];\n        }\n\n        return A;\n    }\n\n    function sponge(uint256[9] memory M)\n        private\n        pure\n        returns (uint256[16] memory)\n    {\n        //require( (M.length * 8) == 72 );\n        //M[7] = 0x01;\n        //M[8] = 0x8000000000000001;\n\n        uint256 r = 72;\n        uint256 w = 8;\n        uint256 size = M.length * 8;\n\n        uint256[25] memory S;\n        uint256 i;\n        uint256 y;\n        uint256 x;\n        /*Absorbing Phase*/\n        for (i = 0; i < size / r; i++) {\n            for (y = 0; y < 5; y++) {\n                for (x = 0; x < 5; x++) {\n                    if ((x + 5 * y) < (r / w)) {\n                        S[5 * x + y] = S[5 * x + y] ^ M[i * 9 + x + 5 * y];\n                    }\n                }\n            }\n            S = keccak_f(S);\n        }\n\n        /*Squeezing phase*/\n        uint256[16] memory result;\n        uint256 b = 0;\n        while (b < 16) {\n            for (y = 0; y < 5; y++) {\n                for (x = 0; x < 5; x++) {\n                    if ((x + 5 * y) < (r / w) && (b < 16)) {\n                        result[b] = S[5 * x + y] & 0xFFFFFFFF;\n                        result[b + 1] = S[5 * x + y] / 0x100000000;\n                        b += 2;\n                    }\n                }\n            }\n        }\n\n        return result;\n    }\n\n    /*\n    address constant KECCAK512 = address(uint160(0x10001));\n    function keccak512(bytes memory data) view private returns(bytes memory) {\n        (bool success, bytes memory hash) = KECCAK512.staticcall(data);\n        require(success, string(hash));\n        return hash;\n    }\n\n   function sha3_512(bytes memory data) view public returns(bytes memory) {\n       return keccak512(data);\n   }\n*/\n    function sha3_512(bytes memory data) public pure returns (bytes memory) {\n        require(\n            data.length == 40 || data.length == 64,\n            \"sha512 only support 64 or 40 bytes\"\n        );\n        uint256 dataWords = data.length / 8;\n        uint256[9] memory M;\n        for (uint256 i = 0; i < dataWords; i++) {\n            uint256 dataOffset = i * 8;\n            M[i] =\n                uint256(uint8(data[dataOffset])) |\n                (uint256(uint8(data[dataOffset + 1])) << 8) |\n                (uint256(uint8(data[dataOffset + 2])) << 16) |\n                (uint256(uint8(data[dataOffset + 3])) << 24) |\n                (uint256(uint8(data[dataOffset + 4])) << 32) |\n                (uint256(uint8(data[dataOffset + 5])) << 40) |\n                (uint256(uint8(data[dataOffset + 6])) << 48) |\n                (uint256(uint8(data[dataOffset + 7])) << 56);\n        }\n        M[dataWords] = 1;\n        M[8] |= 0x8000000000000000;\n        uint256[16] memory result32 = sponge(M);\n        bytes memory resultBytes = new bytes(64);\n        for (uint32 i = 0; i < result32.length; i++) {\n            resultBytes.PutUint32(i * 4, uint32(result32[i]));\n        }\n        return resultBytes;\n    }\n}\n",
  "sourcePath": "/Users/gupadhyaya/go/src/github.com/harmony-one/horizon/contracts/ethash/keccak512.sol",
  "compiler": {
    "name": "solc",
    "version": "0.7.3+commit.9bfce1f6.Emscripten.clang"
  },
  "schemaVersion": "3.4.1",
  "updatedAt": "2021-07-21T21:40:45.659Z",
  "devdoc": {
    "kind": "dev",
    "methods": {},
    "version": 1
  },
  "userdoc": {
    "kind": "user",
    "methods": {},
    "version": 1
  }
}