{
  "contractName": "LightClientFake",
  "abi": [
    {
      "inputs": [
        {
          "internalType": "uint256",
          "name": "number",
          "type": "uint256"
        },
        {
          "internalType": "uint256",
          "name": "",
          "type": "uint256"
        }
      ],
      "name": "blocksByHeight",
      "outputs": [
        {
          "internalType": "uint256",
          "name": "",
          "type": "uint256"
        }
      ],
      "stateMutability": "nonpayable",
      "type": "function"
    },
    {
      "inputs": [
        {
          "internalType": "bytes32",
          "name": "blockHash",
          "type": "bytes32"
        },
        {
          "internalType": "bytes32",
          "name": "receiptsHash",
          "type": "bytes32"
        }
      ],
      "name": "VerifyReceiptsHash",
      "outputs": [
        {
          "internalType": "bool",
          "name": "",
          "type": "bool"
        }
      ],
      "stateMutability": "nonpayable",
      "type": "function"
    }
  ],
  "bytecode": "0x608060405234801561001057600080fd5b50610116806100206000396000f3fe6080604052348015600f57600080fd5b506004361060325760003560e01c806329e141af1460375780633c6c6b7314605a575b600080fd5b6046604236600460ac565b6074565b6040516051919060cc565b60405180910390f35b6069606536600460ac565b607c565b6040516051919060d7565b600192915050565b600082604051602001608d919060d7565b60408051601f1981840301815291905280516020909101209392505050565b6000806040838503121560bd578182fd5b50508035926020909101359150565b901515815260200190565b9081526020019056fea26469706673582212200979175b64a9dca3f499fb91b24b7c223b7cdc15a2bc77024a2d69ea21e55eb264736f6c63430007030033",
  "immutableReferences": {},
  "source": "// SPDX-License-Identifier: UNLICENSED\npragma solidity ^0.7;\npragma experimental ABIEncoderV2;\n\nimport \"openzeppelin-solidity/contracts/access/Ownable.sol\";\n\ninterface ILightClient {\n    function blocksByHeight(uint256, uint256) external returns (uint256); // block number => block hash[]\n\n    function VerifyReceiptsHash(bytes32 blockHash, bytes32 receiptsHash)\n        external\n        returns (bool);\n}\n\ncontract LightClientFake is ILightClient {\n    function blocksByHeight(uint256 number, uint256)\n        external\n        override\n        returns (uint256)\n    {\n        return uint256(keccak256(abi.encode(number)));\n    }\n\n    function VerifyReceiptsHash(bytes32 blockHash, bytes32 receiptsHash)\n        external\n        override\n        returns (bool)\n    {\n        blockHash;\n        receiptsHash;\n        return true;\n    }\n}\n",
  "sourcePath": "/Users/gupadhyaya/go/src/github.com/harmony-one/horizon/contracts/LightClient.sol",
  "compiler": {
    "name": "solc",
    "version": "0.7.3+commit.9bfce1f6.Emscripten.clang"
  },
  "schemaVersion": "3.4.1",
  "updatedAt": "2021-08-17T01:51:56.804Z",
  "devdoc": {
    "kind": "dev",
    "methods": {},
    "version": 1
  },
  "userdoc": {
    "kind": "user",
    "methods": {},
    "version": 1
  }
}