{
  "contractName": "MMR",
  "abi": [
    {
      "inputs": [
        {
          "internalType": "uint256",
          "name": "width",
          "type": "uint256"
        }
      ],
      "name": "getLeafIndex",
      "outputs": [
        {
          "internalType": "uint256",
          "name": "",
          "type": "uint256"
        }
      ],
      "stateMutability": "pure",
      "type": "function"
    },
    {
      "inputs": [
        {
          "internalType": "uint256",
          "name": "width",
          "type": "uint256"
        }
      ],
      "name": "getSize",
      "outputs": [
        {
          "internalType": "uint256",
          "name": "",
          "type": "uint256"
        }
      ],
      "stateMutability": "pure",
      "type": "function"
    },
    {
      "inputs": [
        {
          "internalType": "bytes32",
          "name": "root",
          "type": "bytes32"
        },
        {
          "internalType": "uint256",
          "name": "width",
          "type": "uint256"
        },
        {
          "internalType": "bytes32[]",
          "name": "peaks",
          "type": "bytes32[]"
        },
        {
          "internalType": "bytes32[]",
          "name": "itemHashes",
          "type": "bytes32[]"
        }
      ],
      "name": "rollUp",
      "outputs": [
        {
          "internalType": "bytes32",
          "name": "newRoot",
          "type": "bytes32"
        }
      ],
      "stateMutability": "pure",
      "type": "function"
    },
    {
      "inputs": [
        {
          "internalType": "uint256",
          "name": "width",
          "type": "uint256"
        },
        {
          "internalType": "bytes32[]",
          "name": "peaks",
          "type": "bytes32[]"
        }
      ],
      "name": "peakBagging",
      "outputs": [
        {
          "internalType": "bytes32",
          "name": "",
          "type": "bytes32"
        }
      ],
      "stateMutability": "pure",
      "type": "function"
    },
    {
      "inputs": [
        {
          "internalType": "uint256",
          "name": "width",
          "type": "uint256"
        },
        {
          "internalType": "bytes32[]",
          "name": "peaks",
          "type": "bytes32[]"
        }
      ],
      "name": "peaksToPeakMap",
      "outputs": [
        {
          "internalType": "bytes32[255]",
          "name": "peakMap",
          "type": "bytes32[255]"
        }
      ],
      "stateMutability": "pure",
      "type": "function"
    },
    {
      "inputs": [
        {
          "internalType": "uint256",
          "name": "width",
          "type": "uint256"
        },
        {
          "internalType": "bytes32[255]",
          "name": "peakMap",
          "type": "bytes32[255]"
        }
      ],
      "name": "peakMapToPeaks",
      "outputs": [
        {
          "internalType": "bytes32[]",
          "name": "peaks",
          "type": "bytes32[]"
        }
      ],
      "stateMutability": "pure",
      "type": "function"
    },
    {
      "inputs": [
        {
          "internalType": "uint256",
          "name": "width",
          "type": "uint256"
        },
        {
          "internalType": "bytes32[255]",
          "name": "prevPeakMap",
          "type": "bytes32[255]"
        },
        {
          "internalType": "bytes32",
          "name": "itemHash",
          "type": "bytes32"
        }
      ],
      "name": "peakUpdate",
      "outputs": [
        {
          "internalType": "bytes32[255]",
          "name": "nextPeakMap",
          "type": "bytes32[255]"
        }
      ],
      "stateMutability": "pure",
      "type": "function"
    },
    {
      "inputs": [
        {
          "internalType": "bytes32",
          "name": "root",
          "type": "bytes32"
        },
        {
          "internalType": "uint256",
          "name": "width",
          "type": "uint256"
        },
        {
          "internalType": "uint256",
          "name": "index",
          "type": "uint256"
        },
        {
          "internalType": "bytes",
          "name": "value",
          "type": "bytes"
        },
        {
          "internalType": "bytes32[]",
          "name": "peaks",
          "type": "bytes32[]"
        },
        {
          "internalType": "bytes32[]",
          "name": "siblings",
          "type": "bytes32[]"
        }
      ],
      "name": "inclusionProof",
      "outputs": [
        {
          "internalType": "bool",
          "name": "",
          "type": "bool"
        }
      ],
      "stateMutability": "pure",
      "type": "function"
    },
    {
      "inputs": [
        {
          "internalType": "bytes32",
          "name": "left",
          "type": "bytes32"
        },
        {
          "internalType": "bytes32",
          "name": "right",
          "type": "bytes32"
        }
      ],
      "name": "hashBranch",
      "outputs": [
        {
          "internalType": "bytes32",
          "name": "",
          "type": "bytes32"
        }
      ],
      "stateMutability": "pure",
      "type": "function"
    },
    {
      "inputs": [
        {
          "internalType": "uint256",
          "name": "index",
          "type": "uint256"
        },
        {
          "internalType": "bytes32",
          "name": "dataHash",
          "type": "bytes32"
        }
      ],
      "name": "hashLeaf",
      "outputs": [
        {
          "internalType": "bytes32",
          "name": "",
          "type": "bytes32"
        }
      ],
      "stateMutability": "pure",
      "type": "function"
    },
    {
      "inputs": [
        {
          "internalType": "uint256",
          "name": "size",
          "type": "uint256"
        }
      ],
      "name": "mountainHeight",
      "outputs": [
        {
          "internalType": "uint8",
          "name": "",
          "type": "uint8"
        }
      ],
      "stateMutability": "pure",
      "type": "function"
    },
    {
      "inputs": [
        {
          "internalType": "uint256",
          "name": "index",
          "type": "uint256"
        }
      ],
      "name": "heightAt",
      "outputs": [
        {
          "internalType": "uint8",
          "name": "height",
          "type": "uint8"
        }
      ],
      "stateMutability": "pure",
      "type": "function"
    },
    {
      "inputs": [
        {
          "internalType": "uint256",
          "name": "index",
          "type": "uint256"
        }
      ],
      "name": "isLeaf",
      "outputs": [
        {
          "internalType": "bool",
          "name": "",
          "type": "bool"
        }
      ],
      "stateMutability": "pure",
      "type": "function"
    },
    {
      "inputs": [
        {
          "internalType": "uint256",
          "name": "index",
          "type": "uint256"
        }
      ],
      "name": "getChildren",
      "outputs": [
        {
          "internalType": "uint256",
          "name": "left",
          "type": "uint256"
        },
        {
          "internalType": "uint256",
          "name": "right",
          "type": "uint256"
        }
      ],
      "stateMutability": "pure",
      "type": "function"
    },
    {
      "inputs": [
        {
          "internalType": "uint256",
          "name": "width",
          "type": "uint256"
        }
      ],
      "name": "getPeakIndexes",
      "outputs": [
        {
          "internalType": "uint256[]",
          "name": "peakIndexes",
          "type": "uint256[]"
        }
      ],
      "stateMutability": "pure",
      "type": "function"
    },
    {
      "inputs": [
        {
          "internalType": "uint256",
          "name": "width",
          "type": "uint256"
        }
      ],
      "name": "numOfPeaks",
      "outputs": [
        {
          "internalType": "uint256",
          "name": "num",
          "type": "uint256"
        }
      ],
      "stateMutability": "pure",
      "type": "function"
    }
  ],
  "bytecode": "0x611e4c610026600b82828239805160001a60731461001957fe5b30600052607381538281f3fe73000000000000000000000000000000000000000030146080604052600436106101985760003560e01c8063858aaa61116100e8578063cad4b817116100a1578063e6334ede1161007b578063e6334ede1461092c578063ed9f51b3146109e4578063f38b758214610a8c578063f6fd880014610aa957610198565b8063cad4b81714610340578063cce3c13b14610845578063da556f921461086257610198565b8063858aaa61146104dd57806391b419ac1461050d578063997db8041461052a578063a248cd4f146106f9578063c365c8dd1461031d578063c522e7bc1461082857610198565b8063452a3a0e1161015557806367e8f90c1161012f57806367e8f90c146103cb57806378317ef4146103e85780637a87c5bd1461049057806383e24c88146104c057610198565b8063452a3a0e1461034057806349ae8dc3146103635780635970e6ac1461039957610198565b8063023c23db1461019d57806324c14439146101cc57806326cf02ae146101e95780632d1294421461027d5780632f2e2ea7146102b0578063317027311461031d575b600080fd5b6101ba600480360360208110156101b357600080fd5b5035610b02565b60408051918252519081900360200190f35b6101ba600480360360208110156101e257600080fd5b5035610b1b565b610244600480360361202081101561020057600080fd5b60408051611fe0818101909252833593928301929161200083019190602084019060ff9083908390808284376000920191909152509194505090359150610b229050565b6040518082611fe080838360005b8381101561026a578181015183820152602001610252565b5050505090500191505060405180910390f35b61029a6004803603602081101561029357600080fd5b5035610c39565b6040805160ff9092168252519081900360200190f35b6102cd600480360360208110156102c657600080fd5b5035610c61565b60408051602080825283518183015283519192839290830191858101910280838360005b838110156103095781810151838201526020016102f1565b505050509050019250505060405180910390f35b6101ba6004803603604081101561033357600080fd5b5080359060200135610d5c565b6101ba6004803603604081101561035657600080fd5b5080359060200135610d72565b6103806004803603602081101561037957600080fd5b5035610d9e565b6040805192835260208301919091528051918290030190f35b8180156103a557600080fd5b506103c9600480360360408110156103bc57600080fd5b5080359060200135610e07565b005b61029a600480360360208110156103e157600080fd5b5035610e2a565b610244600480360360408110156103fe57600080fd5b81359190810190604081016020820135600160201b81111561041f57600080fd5b82018360208201111561043157600080fd5b803590602001918460208302840111600160201b8311171561045257600080fd5b919080806020026020016040519081016040528093929190818152602001838360200280828437600092019190915250929550610e6a945050505050565b81801561049c57600080fd5b506103c9600480360360408110156104b357600080fd5b5080359060200135610f41565b6101ba600480360360208110156104d657600080fd5b503561100e565b8180156104e957600080fd5b506103c96004803603604081101561050057600080fd5b5080359060200135611042565b6102cd6004803603602081101561052357600080fd5b503561110d565b6106e5600480360360c081101561054057600080fd5b81359160208101359160408201359190810190608081016060820135600160201b81111561056d57600080fd5b82018360208201111561057f57600080fd5b803590602001918460018302840111600160201b831117156105a057600080fd5b91908080601f0160208091040260200160405190810160405280939291908181526020018383808284376000920191909152509295949360208101935035915050600160201b8111156105f257600080fd5b82018360208201111561060457600080fd5b803590602001918460208302840111600160201b8311171561062557600080fd5b9190808060200260200160405190810160405280939291908181526020018383602002808284376000920191909152509295949360208101935035915050600160201b81111561067457600080fd5b82018360208201111561068657600080fd5b803590602001918460208302840111600160201b831117156106a757600080fd5b9190808060200260200160405190810160405280939291908181526020018383602002808284376000920191909152509295506111b8945050505050565b604080519115158252519081900360200190f35b6101ba6004803603608081101561070f57600080fd5b813591602081013591810190606081016040820135600160201b81111561073557600080fd5b82018360208201111561074757600080fd5b803590602001918460208302840111600160201b8311171561076857600080fd5b9190808060200260200160405190810160405280939291908181526020018383602002808284376000920191909152509295949360208101935035915050600160201b8111156107b757600080fd5b8201836020820111156107c957600080fd5b803590602001918460208302840111600160201b831117156107ea57600080fd5b919080806020026020016040519081016040528093929190818152602001838360200280828437600092019190915250929550611580945050505050565b6101ba6004803603602081101561083e57600080fd5b503561164c565b6106e56004803603602081101561085b57600080fd5b5035611650565b6108856004803603604081101561087857600080fd5b5080359060200135611668565b604051808581526020018481526020018060200180602001838103835285818151815260200191508051906020019060200280838360005b838110156108d55781810151838201526020016108bd565b50505050905001838103825284818151815260200191508051906020019060200280838360005b838110156109145781810151838201526020016108fc565b50505050905001965050505050505060405180910390f35b81801561093857600080fd5b506103c96004803603604081101561094f57600080fd5b81359190810190604081016020820135600160201b81111561097057600080fd5b82018360208201111561098257600080fd5b803590602001918460018302840111600160201b831117156109a357600080fd5b91908080601f0160208091040260200160405190810160405280939291908181526020018383808284376000920191909152509295506118ca945050505050565b6101ba600480360360408110156109fa57600080fd5b81359190810190604081016020820135600160201b811115610a1b57600080fd5b820183602082011115610a2d57600080fd5b803590602001918460208302840111600160201b83111715610a4e57600080fd5b919080806020026020016040519081016040528093929190818152602001838360200280828437600092019190915250929550611a76945050505050565b6101ba60048036036020811015610aa257600080fd5b5035611b71565b6102cd6004803603612000811015610ac057600080fd5b60408051611fe0818101909252833593928301929161200083019190602084019060ff908390839080828437600092019190915250919450611b9c9350505050565b6000610b0d82611b71565b600183901b0390505b919050565b6001015490565b610b2a611d64565b600184016000610b398261100e565b90508360008080808060015b60ff8111610c29578060ff0395508115610b80578b8660ff8110610b6557fe5b60200201518a8760ff8110610b7657fe5b6020020152610c21565b60019788019760001982011b94508c8516158015945089861615159350610bbe57610bbb8c8760ff8110610bb057fe5b602002015188610d72565b96505b8215610c0d578315610bf1578b8660ff8110610bd657fe5b60200201518a8760ff8110610be757fe5b6020020152610c04565b868a8760ff8110610bfe57fe5b60200201525b60019150610c21565b60008a8760ff8110610c1b57fe5b60200201525b600101610b45565b5050505050505050509392505050565b600060015b60ff8116838101600190911b11610c5757600101610c3e565b6000190192915050565b6060610c6c82611b71565b67ffffffffffffffff81118015610c8257600080fd5b50604051908082528060200260200182016040528015610cac578160200160208202803683370190505b50905060008060ff5b8015610cff57600160001982011b851615610cf6576001816001901b830103915081848480600101955081518110610ce957fe5b6020026020010181815250505b60001901610cb5565b5082518214610d55576040805162461bcd60e51b815260206004820152601760248201527f496e76616c6964206269742063616c63756c6174696f6e000000000000000000604482015290519081900360640190fd5b5050919050565b6000908152600391909101602052604090205490565b604080516020808201949094528082019290925280518083038201815260609092019052805191012090565b6000806001610dac84610e2a565b0360ff166001901b8303915060018303905080821415610e02576040805162461bcd60e51b815260206004820152600c60248201526b139bdd0818481c185c995b9d60a21b604482015290519081900360640190fd5b915091565b600180830180549091019081905560009081526003909201602052604090912055565b600081815b80821115610e625760018360ff166001901b0382039150610e4f82610c39565b925050600019600160ff84161b01610e2f565b039003919050565b610e72611d64565b8151600090819060015b60ff8111610eea5760ff8190039350600160001982011b925086831615610ece5785826001900392508281518110610eb057fe5b6020026020010151858560ff8110610ec457fe5b6020020152610ee2565b6000858560ff8110610edc57fe5b60200201525b600101610e7c565b508015610f38576040805162461bcd60e51b8152602060048201526017602482015276496e76616c6964206e756d626572206f66207065616b7360481b604482015290519081900360640190fd5b50505092915050565b600282018190556060610f5382610c61565b9050610f628360020154610b02565b6001840155805160609067ffffffffffffffff81118015610f8257600080fd5b50604051908082528060200260200182016040528015610fac578160200160208202803683370190505b50905060005b8251811015610ff757610fd885848381518110610fcb57fe5b6020026020010151611ca2565b828281518110610fe457fe5b6020908102919091010152600101610fb2565b50611006846002015482611a76565b909355505050565b6000600282066001141561102c5761102582610b02565b9050610b16565b61103860018303610b02565b6001019050610b16565b6001808301548101600090815260038401602052604090208290556002830180549091019081905560609061107690610c61565b90506110858360020154610b02565b6001840155805160609067ffffffffffffffff811180156110a557600080fd5b506040519080825280602002602001820160405280156110cf578160200160208202803683370190505b50905060005b8251811015610ff7576110ee85848381518110610fcb57fe5b8282815181106110fa57fe5b60209081029190910101526001016110d5565b60608061111d8360020154610c61565b9050805167ffffffffffffffff8111801561113757600080fd5b50604051908082528060200260200182016040528015611161578160200160208202803683370190505b50915060005b8151811015610d555783600301600083838151811061118257fe5b60200260200101518152602001908152602001600020548382815181106111a557fe5b6020908102919091010152600101611167565b6000806111c487610b02565b905085811015611213576040805162461bcd60e51b8152602060048201526015602482015274496e646578206973206f7574206f662072616e676560581b604482015290519081900360640190fd5b80818560405160200180838152602001828051906020019060200280838360005b8381101561124c578181015183820152602001611234565b50505050905001925050506040516020818303038152906040528051906020012060405160200180838152602001828152602001925050506040516020818303038152906040528051906020012088146112ed576040805162461bcd60e51b815260206004820181905260248201527f496e76616c696420726f6f7420686173682066726f6d20746865207065616b73604482015290519081900360640190fd5b60008060606112fb8a610c61565b905060005b815181101561135c578982828151811061131657fe5b6020026020010151106113545787818151811061132f57fe5b6020026020010151925081818151811061134557fe5b6020026020010151935061135c565b600101611300565b50816113a5576040805162461bcd60e51b815260206004820152601360248201527215185c99d95d081a5cc81b9bdd08199bdd5b99606a1b604482015290519081900360640190fd5b6060865160010167ffffffffffffffff811180156113c257600080fd5b506040519080825280602002602001820160405280156113ec578160200160208202803683370190505b5090506000806000895160010190505b60ff811615611459578684826001900392508260ff168151811061141c57fe5b6020026020010181815250508c87141561143557611459565b61143e87610d9e565b9093509150828d116114505782611452565b815b96506113fc565b60005b84518260ff16101561151d57848260ff168151811061147757fe5b602002602001015197508160ff16600014156114a55761149e888e80519060200120610d72565b9050611512565b846001830360ff16815181106114b757fe5b60200260200101516001890314156114ec5761149e8b6001840360ff16815181106114de57fe5b602002602001015182610d72565b61150f818c6001850360ff168151811061150257fe5b6020026020010151610d72565b90505b60019091019061145c565b86811461156a576040805162461bcd60e51b815260206004820152601660248201527512185cda1959081c19585ac81a5cc81a5b9d985b1a5960521b604482015290519081900360640190fd5b5060019f9e505050505050505050505050505050565b600061158c8484611a76565b85146115df576040805162461bcd60e51b815260206004820181905260248201527f496e76616c696420726f6f7420686173682066726f6d20746865207065616b73604482015290519081900360640190fd5b836115e8611d64565b6115f28686610e6a565b905060005b845181101561162d5761161e838387848151811061161157fe5b6020026020010151610b22565b600193840193909250016115f7565b506116418261163c8484611b9c565b611a76565b979650505050505050565b5490565b600061165b82610e2a565b60ff166001149050919050565b600080606080856001015485106116b5576040805162461bcd60e51b815260206004820152600c60248201526b4f7574206f662072616e676560a01b604482015290519081900360640190fd5b6116be85611650565b6116fc576040805162461bcd60e51b815260206004820152600a6024820152692737ba1030903632b0b360b11b604482015290519081900360640190fd5b855460028701549094509250606061171384610c61565b9050805167ffffffffffffffff8111801561172d57600080fd5b50604051908082528060200260200182016040528015611757578160200160208202803683370190505b5092506000805b82518110156117ed5788600301600084838151811061177957fe5b602002602001015181526020019081526020016000205485828151811061179c57fe5b602002602001018181525050878382815181106117b557fe5b6020026020010151101580156117c9575081155b156117e5578281815181106117da57fe5b602002602001015191505b60010161175e565b5060008060006117fc84610e2a565b90506001810360ff1667ffffffffffffffff8111801561181b57600080fd5b50604051908082528060200260200182016040528015611845578160200160208202803683370190505b5095505b8984146118bc576000190161185d84610d9e565b9093509150828a11156118705781611872565b825b93508a6003016000848c1115611888578461188a565b835b815260200190815260200160002054866001830360ff16815181106118ab57fe5b602002602001018181525050611849565b505050505092959194509250565b6000818051906020012090508083600401600083815260200190815260200160002060405180828054600181600116156101000203166002900480156119475780601f10611925576101008083540402835291820191611947565b820191906000526020600020905b815481529060010190602001808311611933575b505091505060405180910390201461197c5760008181526004840160209081526040909120835161197a92850190611d83565b505b600061198f846001015460010183610d72565b600180860154810160009081526003870160205260409020829055600286018054909101908190559091506060906119c690610c61565b90506119d58560020154610b02565b6001860155805160609067ffffffffffffffff811180156119f557600080fd5b50604051908082528060200260200182016040528015611a1f578160200160208202803683370190505b50905060005b8251811015611a5d57611a3e87848381518110610fcb57fe5b828281518110611a4a57fe5b6020908102919091010152600101611a25565b50611a6c866002015482611a76565b9095555050505050565b600080611a8284610b02565b90508251611a8f85611b71565b14611ae1576040805162461bcd60e51b815260206004820181905260248201527f526563656976656420696e76616c6964206e756d626572206f66207065616b73604482015290519081900360640190fd5b80818460405160200180838152602001828051906020019060200280838360005b83811015611b1a578181015183820152602001611b02565b50505050905001925050506040516020818303038152906040528051906020012060405160200180838152602001828152602001925050506040516020818303038152906040528051906020012091505092915050565b6000815b8015611b96576002810660011415611b8e576001909101905b60011c611b75565b50919050565b60606000611ba984611b71565b90508067ffffffffffffffff81118015611bc257600080fd5b50604051908082528060200260200182016040528015611bec578160200160208202803683370190505b5091506000805b60ff811015611c4b576000858260ff8110611c0a57fe5b602002015114611c4357848160ff8110611c2057fe5b60200201518451600184019386918110611c3657fe5b6020026020010181815250505b600101611bf3565b50818114611c9a576040805162461bcd60e51b8152602060048201526017602482015276496e76616c6964206e756d626572206f66207065616b7360481b604482015290519081900360640190fd5b505092915050565b60008260010154821115611cec576040805162461bcd60e51b815260206004820152600c60248201526b4f7574206f662072616e676560a01b604482015290519081900360640190fd5b6000828152600384016020526040902054611d4d57600080611d0d84610d9e565b915091506000611d1d8684611ca2565b90506000611d2b8784611ca2565b9050611d378282610d72565b6000878152600389016020526040902055505050505b506000908152600391909101602052604090205490565b60405180611fe0016040528060ff906020820280368337509192915050565b828054600181600116156101000203166002900490600052602060002090601f016020900481019282601f10611dc457805160ff1916838001178555611df1565b82800160010185558215611df1579182015b82811115611df1578251825591602001919060010190611dd6565b50611dfd929150611e01565b5090565b5b80821115611dfd5760008155600101611e0256fea26469706673582212207618a76dc755ba21cb3b5006731d4613d0434f5dff3542857241e510f799bc6664736f6c63430007030033",
  "immutableReferences": {},
  "source": "// SPDX-License-Identifier: UNLICENSED\npragma solidity ^0.7;\n\n/**\n * @author Wanseob Lim <email@wanseob.com>\n * @title Merkle Mountain Range solidity library\n *\n * @dev The index of this MMR implementation starts from 1 not 0.\n *      And it uses keccak256 for its hash function instead of blake2b\n */\nlibrary MMR {\n    struct Tree {\n        bytes32 root;\n        uint256 size;\n        uint256 width;\n        mapping(uint256 => bytes32) hashes;\n        mapping(bytes32 => bytes) data;\n    }\n\n    /**\n     * @dev This only stores the hashed value of the leaf.\n     *      If you need to retrieve the detail data later, use a map to store them.\n     */\n    function append(Tree storage tree, bytes memory data) public {\n        // Hash the leaf node first\n        bytes32 dataHash = keccak256(data);\n        if (keccak256(tree.data[dataHash]) != dataHash) {\n            tree.data[dataHash] = data;\n        }\n        bytes32 leaf = hashLeaf(tree.size + 1, dataHash);\n        // Put the hashed leaf to the map\n        tree.hashes[tree.size + 1] = leaf;\n        tree.width += 1;\n        // Find peaks for the enlarged tree\n        uint256[] memory peakIndexes = getPeakIndexes(tree.width);\n        // The right most peak's value is the new size of the updated tree\n        tree.size = getSize(tree.width);\n        // Starting from the left-most peak, get all peak hashes using _getOrCreateNode() function.\n        bytes32[] memory peaks = new bytes32[](peakIndexes.length);\n        for (uint256 i = 0; i < peakIndexes.length; i++) {\n            peaks[i] = _getOrCreateNode(tree, peakIndexes[i]);\n        }\n        // Create the root hash and update the tree\n        tree.root = peakBagging(tree.width, peaks);\n    }\n\n    function hashOf(Tree storage tree, uint256 index)\n        public\n        view\n        returns (bytes32)\n    {\n        return tree.hashes[index];\n    }\n\n    /**\n     * @dev This only stores the hashed value of the leaf.\n     *      If you need to retrieve the detail data later, use a map to store them.\n     */\n    function appendHash(Tree storage tree, bytes32 dataHash) public {\n        // Put the hashed leaf to the map\n        tree.hashes[tree.size + 1] = dataHash;\n        tree.width += 1;\n        // Find peaks for the enlarged tree\n        uint256[] memory peakIndexes = getPeakIndexes(tree.width);\n        // The right most peak's value is the new size of the updated tree\n        tree.size = getSize(tree.width);\n        // Starting from the left-most peak, get all peak hashes using _getOrCreateNode() function.\n        bytes32[] memory peaks = new bytes32[](peakIndexes.length);\n        for (uint256 i = 0; i < peakIndexes.length; i++) {\n            peaks[i] = _getOrCreateNode(tree, peakIndexes[i]);\n        }\n        // Create the root hash and update the tree\n        tree.root = peakBagging(tree.width, peaks);\n    }\n\n    /**\n     * @dev This only stores the hashed value of the leaf.\n     *      If you need to retrieve the detail data later, use a map to store them.\n     */\n    function updateTree(Tree storage tree, bytes32 dataHash) public {\n        tree.size = tree.size + 1;\n        tree.hashes[tree.size] = dataHash;\n    }\n\n    function updateRoot(Tree storage tree, uint256 width) public {\n        tree.width = width;\n        // Find peaks for the enlarged tree\n        uint256[] memory peakIndexes = getPeakIndexes(tree.width);\n        // The right most peak's value is the new size of the updated tree\n        tree.size = getSize(tree.width);\n        // Starting from the left-most peak, get all peak hashes using _getOrCreateNode() function.\n        bytes32[] memory peaks = new bytes32[](peakIndexes.length);\n        for (uint256 i = 0; i < peakIndexes.length; i++) {\n            peaks[i] = _getOrCreateNode(tree, peakIndexes[i]);\n        }\n        // Create the root hash and update the tree\n        tree.root = peakBagging(tree.width, peaks);\n    }\n\n    function getPeaks(Tree storage tree)\n        public\n        view\n        returns (bytes32[] memory peaks)\n    {\n        // Find peaks for the enlarged tree\n        uint256[] memory peakNodeIndexes = getPeakIndexes(tree.width);\n        // Starting from the left-most peak, get all peak hashes using _getOrCreateNode() function.\n        peaks = new bytes32[](peakNodeIndexes.length);\n        for (uint256 i = 0; i < peakNodeIndexes.length; i++) {\n            peaks[i] = tree.hashes[peakNodeIndexes[i]];\n        }\n        return peaks;\n    }\n\n    function getLeafIndex(uint256 width) public pure returns (uint256) {\n        if (width % 2 == 1) {\n            return getSize(width);\n        } else {\n            return getSize(width - 1) + 1;\n        }\n    }\n\n    function getSize(uint256 width) public pure returns (uint256) {\n        return (width << 1) - numOfPeaks(width);\n    }\n\n    /**\n     * @dev It returns the root value of the tree\n     */\n    function getRoot(Tree storage tree) public view returns (bytes32) {\n        return tree.root;\n    }\n\n    /**\n     * @dev It returns the size of the tree\n     */\n    function getSize(Tree storage tree) public view returns (uint256) {\n        return tree.size;\n    }\n\n    /**\n     * @dev It returns the hash value of a node for the given position. Note that the index starts from 1\n     */\n    function getNode(Tree storage tree, uint256 index)\n        public\n        view\n        returns (bytes32)\n    {\n        return tree.hashes[index];\n    }\n\n    /**\n     * @dev It returns a merkle proof for a leaf. Note that the index starts from 1\n     */\n    function getMerkleProof(Tree storage tree, uint256 index)\n        public\n        view\n        returns (\n            bytes32 root,\n            uint256 width,\n            bytes32[] memory peakBagging,\n            bytes32[] memory siblings\n        )\n    {\n        require(index < tree.size, \"Out of range\");\n        require(isLeaf(index), \"Not a leaf\");\n\n        root = tree.root;\n        width = tree.width;\n        // Find all peaks for bagging\n        uint256[] memory peaks = getPeakIndexes(tree.width);\n\n        peakBagging = new bytes32[](peaks.length);\n        uint256 cursor;\n        for (uint256 i = 0; i < peaks.length; i++) {\n            // Collect the hash of all peaks\n            peakBagging[i] = tree.hashes[peaks[i]];\n            // Find the peak which includes the target index\n            if (peaks[i] >= index && cursor == 0) {\n                cursor = peaks[i];\n            }\n        }\n        uint256 left;\n        uint256 right;\n\n        // Get hashes of the siblings in the mountain which the index belongs to.\n        // It moves the cursor from the summit of the mountain down to the target index\n        uint8 height = heightAt(cursor);\n        siblings = new bytes32[](height - 1);\n        while (cursor != index) {\n            height--;\n            (left, right) = getChildren(cursor);\n            // Move the cursor down to the left side or right side\n            cursor = index <= left ? left : right;\n            // Remaining node is the sibling\n            siblings[height - 1] = tree.hashes[index <= left ? right : left];\n        }\n    }\n\n    function rollUp(\n        bytes32 root,\n        uint256 width,\n        bytes32[] memory peaks,\n        bytes32[] memory itemHashes\n    ) public pure returns (bytes32 newRoot) {\n        // Check the root equals the peak bagging hash\n        require(\n            root == peakBagging(width, peaks),\n            \"Invalid root hash from the peaks\"\n        );\n        uint256 tmpWidth = width;\n        bytes32[255] memory tmpPeakMap = peaksToPeakMap(width, peaks);\n        for (uint256 i = 0; i < itemHashes.length; i++) {\n            tmpPeakMap = peakUpdate(tmpWidth, tmpPeakMap, itemHashes[i]);\n            tmpWidth++;\n        }\n        return peakBagging(tmpWidth, peakMapToPeaks(tmpWidth, tmpPeakMap));\n    }\n\n    function peakBagging(uint256 width, bytes32[] memory peaks)\n        public\n        pure\n        returns (bytes32)\n    {\n        uint256 size = getSize(width);\n        require(\n            numOfPeaks(width) == peaks.length,\n            \"Received invalid number of peaks\"\n        );\n        return\n            keccak256(\n                abi.encodePacked(size, keccak256(abi.encodePacked(size, peaks)))\n            );\n    }\n\n    function peaksToPeakMap(uint256 width, bytes32[] memory peaks)\n        public\n        pure\n        returns (bytes32[255] memory peakMap)\n    {\n        uint256 bitIndex;\n        uint256 peakRef;\n        uint256 count = peaks.length;\n        for (uint256 height = 1; height <= 255; height++) {\n            // Index starts from the right most bit\n            bitIndex = 255 - height;\n            peakRef = 1 << (height - 1);\n            if ((width & peakRef) != 0) {\n                peakMap[bitIndex] = peaks[--count];\n            } else {\n                peakMap[bitIndex] = bytes32(0);\n            }\n        }\n        require(count == 0, \"Invalid number of peaks\");\n    }\n\n    function peakMapToPeaks(uint256 width, bytes32[255] memory peakMap)\n        public\n        pure\n        returns (bytes32[] memory peaks)\n    {\n        uint256 arrLength = numOfPeaks(width);\n        peaks = new bytes32[](arrLength);\n        uint256 count = 0;\n        for (uint256 i = 0; i < 255; i++) {\n            if (peakMap[i] != bytes32(0)) {\n                peaks[count++] = peakMap[i];\n            }\n        }\n        require(count == arrLength, \"Invalid number of peaks\");\n    }\n\n    function peakUpdate(\n        uint256 width,\n        bytes32[255] memory prevPeakMap,\n        bytes32 itemHash\n    ) public pure returns (bytes32[255] memory nextPeakMap) {\n        uint256 newWidth = width + 1;\n        uint256 cursorIndex = getLeafIndex(newWidth);\n        bytes32 cursorNode = itemHash; //hashLeaf(cursorIndex, itemHash);\n        uint256 bitIndex;\n        uint256 peakRef;\n        bool prevPeakExist;\n        bool nextPeakExist;\n        bool obtained;\n\n        for (uint256 height = 1; height <= 255; height++) {\n            // Index starts from the right most bit\n            bitIndex = 255 - height;\n            if (obtained) {\n                nextPeakMap[bitIndex] = prevPeakMap[bitIndex];\n            } else {\n                peakRef = 1 << (height - 1);\n                prevPeakExist = (width & peakRef) != 0;\n                nextPeakExist = (newWidth & peakRef) != 0;\n\n                // Get new cursor node with hashing the peak and the current cursor\n                cursorIndex++;\n                if (prevPeakExist) {\n                    cursorNode = hashBranch(prevPeakMap[bitIndex], cursorNode);\n                }\n                // If new peak exists for the bit index\n                if (nextPeakExist) {\n                    // If prev peak exists for the bit index\n                    if (prevPeakExist) {\n                        nextPeakMap[bitIndex] = prevPeakMap[bitIndex];\n                    } else {\n                        nextPeakMap[bitIndex] = cursorNode;\n                    }\n                    obtained = true;\n                } else {\n                    nextPeakMap[bitIndex] = bytes32(0);\n                }\n            }\n        }\n    }\n\n    /** Pure functions */\n\n    /**\n     * @dev It returns true when the given params verifies that the given value exists in the tree or reverts the transaction.\n     */\n    function inclusionProof(\n        bytes32 root,\n        uint256 width,\n        uint256 index,\n        bytes memory value,\n        bytes32[] memory peaks,\n        bytes32[] memory siblings\n    ) public pure returns (bool) {\n        uint256 size = getSize(width);\n        require(size >= index, \"Index is out of range\");\n        // Check the root equals the peak bagging hash\n        require(\n            root ==\n                keccak256(\n                    abi.encodePacked(\n                        size,\n                        keccak256(abi.encodePacked(size, peaks))\n                    )\n                ),\n            \"Invalid root hash from the peaks\"\n        );\n\n        // Find the mountain where the target index belongs to\n        uint256 cursor;\n        bytes32 targetPeak;\n        uint256[] memory peakIndexes = getPeakIndexes(width);\n        for (uint256 i = 0; i < peakIndexes.length; i++) {\n            if (peakIndexes[i] >= index) {\n                targetPeak = peaks[i];\n                cursor = peakIndexes[i];\n                break;\n            }\n        }\n        require(targetPeak != bytes32(0), \"Target is not found\");\n\n        // Find the path climbing down\n        uint256[] memory path = new uint256[](siblings.length + 1);\n        uint256 left;\n        uint256 right;\n        uint8 height = uint8(siblings.length) + 1;\n        while (height > 0) {\n            // Record the current cursor and climb down\n            path[--height] = cursor;\n            if (cursor == index) {\n                // On the leaf node. Stop climbing down\n                break;\n            } else {\n                // On the parent node. Go left or right\n                (left, right) = getChildren(cursor);\n                cursor = index > left ? right : left;\n                continue;\n            }\n        }\n\n        // Calculate the summit hash climbing up again\n        bytes32 node;\n        while (height < path.length) {\n            // Move cursor\n            cursor = path[height];\n            if (height == 0) {\n                // cursor is on the leaf\n                node = hashLeaf(cursor, keccak256(value));\n            } else if (cursor - 1 == path[height - 1]) {\n                // cursor is on a parent and a sibling is on the left\n                node = hashBranch(siblings[height - 1], node);\n            } else {\n                // cursor is on a parent and a sibling is on the right\n                node = hashBranch(node, siblings[height - 1]);\n            }\n            // Climb up\n            height++;\n        }\n\n        // Computed hash value of the summit should equal to the target peak hash\n        require(node == targetPeak, \"Hashed peak is invalid\");\n        return true;\n    }\n\n    /**\n     * @dev It returns the hash a parent node with hash(M | Left child | Right child)\n     *      M is the index of the node\n     */\n    function hashBranch(bytes32 left, bytes32 right)\n        public\n        pure\n        returns (bytes32)\n    {\n        return keccak256(abi.encodePacked(left, right));\n    }\n\n    /**\n     * @dev it returns the hash of a leaf node with hash(M | DATA )\n     *      M is the index of the node\n     */\n    function hashLeaf(uint256 index, bytes32 dataHash)\n        public\n        pure\n        returns (bytes32)\n    {\n        return keccak256(abi.encodePacked(index, dataHash));\n    }\n\n    /**\n     * @dev It returns the height of the highest peak\n     */\n    function mountainHeight(uint256 size) public pure returns (uint8) {\n        uint8 height = 1;\n        while (uint256(1) << height <= size + height) {\n            height++;\n        }\n        return height - 1;\n    }\n\n    /**\n     * @dev It returns the height of the index\n     */\n    function heightAt(uint256 index) public pure returns (uint8 height) {\n        uint256 reducedIndex = index;\n        uint256 peakIndex;\n        // If an index has a left mountain subtract the mountain\n        while (reducedIndex > peakIndex) {\n            reducedIndex -= (uint256(1) << height) - 1;\n            height = mountainHeight(reducedIndex);\n            peakIndex = (uint256(1) << height) - 1;\n        }\n        // Index is on the right slope\n        height = height - uint8((peakIndex - reducedIndex));\n    }\n\n    /**\n     * @dev It returns whether the index is the leaf node or not\n     */\n    function isLeaf(uint256 index) public pure returns (bool) {\n        return heightAt(index) == 1;\n    }\n\n    /**\n     * @dev It returns the children when it is a parent node\n     */\n    function getChildren(uint256 index)\n        public\n        pure\n        returns (uint256 left, uint256 right)\n    {\n        left = index - (uint256(1) << (heightAt(index) - 1));\n        right = index - 1;\n        require(left != right, \"Not a parent\");\n    }\n\n    /**\n     * @dev It returns all peaks of the smallest merkle mountain range tree which includes\n     *      the given index(size)\n     */\n    function getPeakIndexes(uint256 width)\n        public\n        pure\n        returns (uint256[] memory peakIndexes)\n    {\n        peakIndexes = new uint256[](numOfPeaks(width));\n        uint256 count;\n        uint256 size;\n        for (uint256 i = 255; i > 0; i--) {\n            if (width & (1 << (i - 1)) != 0) {\n                // peak exists\n                size = size + (1 << i) - 1;\n                peakIndexes[count++] = size;\n            }\n        }\n        require(count == peakIndexes.length, \"Invalid bit calculation\");\n    }\n\n    function numOfPeaks(uint256 width) public pure returns (uint256 num) {\n        uint256 bits = width;\n        while (bits > 0) {\n            if (bits % 2 == 1) num++;\n            bits = bits >> 1;\n        }\n        return num;\n    }\n\n    /**\n     * @dev It returns the hash value of the node for the index.\n     *      If the hash already exists it simply returns the stored value. On the other hand,\n     *      it computes hashes recursively downward.\n     *      Only appending an item calls this function\n     */\n    function _getOrCreateNode(Tree storage tree, uint256 index)\n        private\n        returns (bytes32)\n    {\n        require(index <= tree.size, \"Out of range\");\n        if (tree.hashes[index] == bytes32(0)) {\n            (uint256 leftIndex, uint256 rightIndex) = getChildren(index);\n            bytes32 leftHash = _getOrCreateNode(tree, leftIndex);\n            bytes32 rightHash = _getOrCreateNode(tree, rightIndex);\n            tree.hashes[index] = hashBranch(leftHash, rightHash);\n        }\n        return tree.hashes[index];\n    }\n}\n",
  "sourcePath": "/Users/gupadhyaya/go/src/github.com/harmony-one/horizon/contracts/lib/MMR.sol",
  "compiler": {
    "name": "solc",
    "version": "0.7.3+commit.9bfce1f6.Emscripten.clang"
  },
  "schemaVersion": "3.4.1",
  "updatedAt": "2021-07-21T21:40:45.705Z",
  "devdoc": {
    "author": "Wanseob Lim <email@wanseob.com>",
    "details": "The index of this MMR implementation starts from 1 not 0.      And it uses keccak256 for its hash function instead of blake2b",
    "kind": "dev",
    "methods": {
      "append(MMR.Tree storage,bytes)": {
        "details": "This only stores the hashed value of the leaf.      If you need to retrieve the detail data later, use a map to store them."
      },
      "appendHash(MMR.Tree storage,bytes32)": {
        "details": "This only stores the hashed value of the leaf.      If you need to retrieve the detail data later, use a map to store them."
      },
      "getChildren(uint256)": {
        "details": "It returns the children when it is a parent node"
      },
      "getMerkleProof(MMR.Tree storage,uint256)": {
        "details": "It returns a merkle proof for a leaf. Note that the index starts from 1"
      },
      "getNode(MMR.Tree storage,uint256)": {
        "details": "It returns the hash value of a node for the given position. Note that the index starts from 1"
      },
      "getPeakIndexes(uint256)": {
        "details": "It returns all peaks of the smallest merkle mountain range tree which includes      the given index(size)"
      },
      "getRoot(MMR.Tree storage)": {
        "details": "It returns the root value of the tree"
      },
      "getSize(MMR.Tree storage)": {
        "details": "It returns the size of the tree"
      },
      "hashBranch(bytes32,bytes32)": {
        "details": "It returns the hash a parent node with hash(M | Left child | Right child)      M is the index of the node"
      },
      "hashLeaf(uint256,bytes32)": {
        "details": "it returns the hash of a leaf node with hash(M | DATA )      M is the index of the node"
      },
      "heightAt(uint256)": {
        "details": "It returns the height of the index"
      },
      "inclusionProof(bytes32,uint256,uint256,bytes,bytes32[],bytes32[])": {
        "details": "It returns true when the given params verifies that the given value exists in the tree or reverts the transaction."
      },
      "isLeaf(uint256)": {
        "details": "It returns whether the index is the leaf node or not"
      },
      "mountainHeight(uint256)": {
        "details": "It returns the height of the highest peak"
      },
      "updateTree(MMR.Tree storage,bytes32)": {
        "details": "This only stores the hashed value of the leaf.      If you need to retrieve the detail data later, use a map to store them."
      }
    },
    "title": "Merkle Mountain Range solidity library",
    "version": 1
  },
  "userdoc": {
    "kind": "user",
    "methods": {},
    "version": 1
  }
}