{
  "contractName": "MMRWrapper",
  "abi": [
    {
      "inputs": [
        {
          "internalType": "bytes",
          "name": "data",
          "type": "bytes"
        }
      ],
      "name": "append",
      "outputs": [],
      "stateMutability": "nonpayable",
      "type": "function"
    },
    {
      "inputs": [
        {
          "internalType": "bytes32",
          "name": "data",
          "type": "bytes32"
        }
      ],
      "name": "appendHash",
      "outputs": [],
      "stateMutability": "nonpayable",
      "type": "function"
    },
    {
      "inputs": [
        {
          "internalType": "uint256",
          "name": "index",
          "type": "uint256"
        }
      ],
      "name": "getHash",
      "outputs": [
        {
          "internalType": "bytes32",
          "name": "result",
          "type": "bytes32"
        }
      ],
      "stateMutability": "view",
      "type": "function"
    },
    {
      "inputs": [],
      "name": "getRoot",
      "outputs": [
        {
          "internalType": "bytes32",
          "name": "",
          "type": "bytes32"
        }
      ],
      "stateMutability": "view",
      "type": "function"
    },
    {
      "inputs": [],
      "name": "getSize",
      "outputs": [
        {
          "internalType": "uint256",
          "name": "",
          "type": "uint256"
        }
      ],
      "stateMutability": "view",
      "type": "function"
    },
    {
      "inputs": [
        {
          "internalType": "uint256",
          "name": "index",
          "type": "uint256"
        }
      ],
      "name": "getMerkleProof",
      "outputs": [
        {
          "internalType": "bytes32",
          "name": "root",
          "type": "bytes32"
        },
        {
          "internalType": "uint256",
          "name": "width",
          "type": "uint256"
        },
        {
          "internalType": "bytes32[]",
          "name": "peakBagging",
          "type": "bytes32[]"
        },
        {
          "internalType": "bytes32[]",
          "name": "siblings",
          "type": "bytes32[]"
        }
      ],
      "stateMutability": "view",
      "type": "function"
    },
    {
      "inputs": [
        {
          "internalType": "bytes",
          "name": "rlpdata",
          "type": "bytes"
        }
      ],
      "name": "deserialize",
      "outputs": [],
      "stateMutability": "nonpayable",
      "type": "function"
    },
    {
      "inputs": [
        {
          "internalType": "bytes32[]",
          "name": "itemHashes",
          "type": "bytes32[]"
        },
        {
          "internalType": "uint256",
          "name": "width",
          "type": "uint256"
        }
      ],
      "name": "addTree",
      "outputs": [],
      "stateMutability": "nonpayable",
      "type": "function"
    }
  ],
  "bytecode": "0x608060405234801561001057600080fd5b50610d1c806100206000396000f3fe608060405234801561001057600080fd5b50600436106100885760003560e01c8063c26fe0041161005b578063c26fe0041461020e578063c41dd397146102b1578063c5d9293114610375578063de8fa4311461039257610088565b80631963f2b31461008d5780632afcbdaa146101335780635ca1e165146101d75780636b2fafa9146101f1575b600080fd5b610131600480360360208110156100a357600080fd5b810190602081018135600160201b8111156100bd57600080fd5b8201836020820111156100cf57600080fd5b803590602001918460018302840111600160201b831117156100f057600080fd5b91908080601f01602080910402602001604051908101604052809392919081815260200183838082843760009201919091525092955061039a945050505050565b005b6101316004803603602081101561014957600080fd5b810190602081018135600160201b81111561016357600080fd5b82018360208201111561017557600080fd5b803590602001918460018302840111600160201b8311171561019657600080fd5b91908080601f01602080910402602001604051908101604052809392919081815260200183838082843760009201919091525092955061046e945050505050565b6101df61053c565b60408051918252519081900360200190f35b6101df6004803603602081101561020757600080fd5b50356105c0565b6101316004803603604081101561022457600080fd5b810190602081018135600160201b81111561023e57600080fd5b82018360208201111561025057600080fd5b803590602001918460208302840111600160201b8311171561027157600080fd5b919080806020026020016040519081016040528093929190818152602001838360200280828437600092019190915250929550509135925061064f915050565b6102ce600480360360208110156102c757600080fd5b5035610760565b604051808581526020018481526020018060200180602001838103835285818151815260200191508051906020019060200280838360005b8381101561031e578181015183820152602001610306565b50505050905001838103825284818151815260200191508051906020019060200280838360005b8381101561035d578181015183820152602001610345565b50505050905001965050505050505060405180910390f35b6101316004803603602081101561038b57600080fd5b5035610927565b6101df61097e565b60408051637319a76f60e11b81526000600482018181526024830193845284516044840152845173__MMR___________________________________9463e6334ede948793926064909101906020850190808383895b838110156104085781810151838201526020016103f0565b50505050905090810190601f1680156104355780820380516001836020036101000a031916815260200191505b50935050505060006040518083038186803b15801561045357600080fd5b505af4158015610467573d6000803e3d6000fd5b5050505050565b610476610ccc565b61047f826109d1565b9050606061048c826109f6565b905060005b815181101561053657600073__MMR___________________________________635970e6ac90916104d48585815181106104c757fe5b6020026020010151610ade565b60001b6040518363ffffffff1660e01b8152600401808381526020018281526020019250505060006040518083038186803b15801561051257600080fd5b505af4158015610526573d6000803e3d6000fd5b5050600190920191506104919050565b50505050565b60008073__MMR___________________________________63c522e7bc90916040518263ffffffff1660e01b81526004018082815260200191505060206040518083038186803b15801561058f57600080fd5b505af41580156105a3573d6000803e3d6000fd5b505050506040513d60208110156105b957600080fd5b5051905090565b60408051633170273160e01b815260006004820181905260248201849052915173__MMR___________________________________916331702731916044808301926020929190829003018186803b15801561061b57600080fd5b505af415801561062f573d6000803e3d6000fd5b505050506040513d602081101561064557600080fd5b505190505b919050565b60005b82518110156106ec57600073__MMR___________________________________635970e6ac909185848151811061068557fe5b60200260200101516040518363ffffffff1660e01b8152600401808381526020018281526020019250505060006040518083038186803b1580156106c857600080fd5b505af41580156106dc573d6000803e3d6000fd5b5050600190920191506106529050565b5060408051637a87c5bd60e01b815260006004820181905260248201849052915173__MMR___________________________________92637a87c5bd9260448082019391829003018186803b15801561074457600080fd5b505af4158015610758573d6000803e3d6000fd5b505050505050565b600080606080600073__MMR___________________________________63da556f929091876040518363ffffffff1660e01b8152600401808381526020018281526020019250505060006040518083038186803b1580156107c057600080fd5b505af41580156107d4573d6000803e3d6000fd5b505050506040513d6000823e601f3d908101601f1916820160405260808110156107fd57600080fd5b81516020830151604080850180519151939592948301929184600160201b82111561082757600080fd5b90830190602082018581111561083c57600080fd5b82518660208202830111600160201b8211171561085857600080fd5b82525081516020918201928201910280838360005b8381101561088557818101518382015260200161086d565b5050505090500160405260200180516040519392919084600160201b8211156108ad57600080fd5b9083019060208201858111156108c257600080fd5b82518660208202830111600160201b821117156108de57600080fd5b82525081516020918201928201910280838360005b8381101561090b5781810151838201526020016108f3565b5050505090500160405250505093509350935093509193509193565b6040805163858aaa6160e01b815260006004820181905260248201849052915173__MMR___________________________________9263858aaa619260448082019391829003018186803b15801561045357600080fd5b60008073__MMR___________________________________6324c1443990916040518263ffffffff1660e01b81526004018082815260200191505060206040518083038186803b15801561058f57600080fd5b6109d9610ccc565b506040805180820190915281518152602082810190820152919050565b6060610a0182610b3e565b610a0a57600080fd5b6000610a1583610b78565b905060608167ffffffffffffffff81118015610a3057600080fd5b50604051908082528060200260200182016040528015610a6a57816020015b610a57610ccc565b815260200190600190039081610a4f5790505b5090506000610a7c8560200151610bd0565b60208601510190506000805b84811015610ad357610a9983610c33565b9150604051806040016040528083815260200184815250848281518110610abc57fe5b602090810291909101015291810191600101610a88565b509195945050505050565b805160009015801590610af357508151602110155b610afc57600080fd5b6000610b0b8360200151610bd0565b83516020808601518301805193945091849003929190831015610b3557826020036101000a820491505b50949350505050565b8051600090610b4f5750600061064a565b6020820151805160001a9060c0821015610b6e5760009250505061064a565b5060019392505050565b8051600090610b895750600061064a565b600080610b998460200151610bd0565b602085015185519181019250015b80821015610bc757610bb882610c33565b60019093019290910190610ba7565b50909392505050565b8051600090811a6080811015610bea57600091505061064a565b60b8811080610c05575060c08110801590610c05575060f881105b15610c1457600191505061064a565b60c0811015610c285760b51901905061064a565b60f51901905061064a565b80516000908190811a6080811015610c4e5760019150610cc5565b60b8811015610c6357607e1981019150610cc5565b60c0811015610c905760b78103600185019450806020036101000a85510460018201810193505050610cc5565b60f8811015610ca55760be1981019150610cc5565b60f78103600185019450806020036101000a855104600182018101935050505b5092915050565b60405180604001604052806000815260200160008152509056fea26469706673582212207e9063dd12ebd2820d92b6030583f69ff3756280f70f8bce2382761724f03a0664736f6c63430007030033",
  "immutableReferences": {},
  "source": "// SPDX-License-Identifier: UNLICENSED\npragma solidity ^0.7;\n\nimport \"./MMR.sol\";\nimport \"./RLPReader.sol\";\n\ncontract MMRWrapper {\n    using RLPReader for RLPReader.RLPItem;\n    using RLPReader for bytes;\n    using MMR for MMR.Tree;\n\n    MMR.Tree mTree;\n\n    function append(bytes memory data) public {\n        mTree.append(data);\n    }\n\n    function appendHash(bytes32 data) public {\n        mTree.appendHash(data);\n    }\n\n    function getHash(uint256 index) public view returns (bytes32 result) {\n        return mTree.hashOf(index);\n    }\n\n    function getRoot() public view returns (bytes32) {\n        return mTree.getRoot();\n    }\n\n    function getSize() public view returns (uint256) {\n        return mTree.getSize();\n    }\n\n    function getMerkleProof(uint256 index)\n        public\n        view\n        returns (\n            bytes32 root,\n            uint256 width,\n            bytes32[] memory peakBagging,\n            bytes32[] memory siblings\n        )\n    {\n        return mTree.getMerkleProof(index);\n    }\n\n    function deserialize(bytes memory rlpdata) public {\n        RLPReader.RLPItem memory stacks = rlpdata.toRlpItem();\n        RLPReader.RLPItem[] memory mmrHashes = stacks.toList();\n        for (uint256 i = 0; i < mmrHashes.length; i++) {\n            mTree.updateTree(bytes32(mmrHashes[i].toUint()));\n        }\n    }\n\n    function addTree(bytes32[] memory itemHashes, uint256 width) public {\n        for (uint256 i = 0; i < itemHashes.length; i++) {\n            mTree.updateTree(itemHashes[i]);\n        }\n        mTree.updateRoot(width);\n    }\n}\n",
  "sourcePath": "/Users/gupadhyaya/go/src/github.com/harmony-one/horizon/contracts/lib/MMRWrapper.sol",
  "compiler": {
    "name": "solc",
    "version": "0.7.3+commit.9bfce1f6.Emscripten.clang"
  },
  "schemaVersion": "3.2.1",
  "updatedAt": "2021-09-01T20:06:41.387Z",
  "devdoc": {
    "kind": "dev",
    "methods": {},
    "version": 1
  },
  "userdoc": {
    "kind": "user",
    "methods": {},
    "version": 1
  }
}