{
  "contractName": "Prime",
  "abi": [
    {
      "inputs": [
        {
          "internalType": "uint256",
          "name": "n",
          "type": "uint256"
        },
        {
          "internalType": "uint256",
          "name": "prime",
          "type": "uint256"
        }
      ],
      "name": "probablyPrime",
      "outputs": [
        {
          "internalType": "bool",
          "name": "",
          "type": "bool"
        }
      ],
      "stateMutability": "pure",
      "type": "function"
    },
    {
      "inputs": [
        {
          "internalType": "uint256",
          "name": "a",
          "type": "uint256"
        },
        {
          "internalType": "uint256",
          "name": "b",
          "type": "uint256"
        },
        {
          "internalType": "uint256",
          "name": "n",
          "type": "uint256"
        }
      ],
      "name": "fastModularExponentiation",
      "outputs": [
        {
          "internalType": "uint256",
          "name": "",
          "type": "uint256"
        }
      ],
      "stateMutability": "pure",
      "type": "function"
    },
    {
      "inputs": [
        {
          "internalType": "uint256",
          "name": "n",
          "type": "uint256"
        }
      ],
      "name": "getValues",
      "outputs": [
        {
          "internalType": "uint256[2]",
          "name": "",
          "type": "uint256[2]"
        }
      ],
      "stateMutability": "pure",
      "type": "function"
    }
  ],
  "bytecode": "0x6103cd610026600b82828239805160001a60731461001957fe5b30600052607381538281f3fe730000000000000000000000000000000000000000301460806040526004361061004b5760003560e01c806367bbe59414610050578063b29e522c14610079578063f6558c7f14610099575b600080fd5b61006361005e3660046102c5565b6100b9565b6040516100709190610342565b60405180910390f35b61008c6100873660046102ad565b6101a5565b6040516100709190610311565b6100ac6100a73660046102e6565b6101e3565b604051610070919061038e565b600082600214806100ca5750826003145b156100d75750600161019f565b6002830615806100e75750600283105b156100f45750600061019f565b6100fc61028f565b610105846101a5565b8051602082015191925090600061011d8683896101e3565b9050806001148061013057506001870381145b1561014257600194505050505061019f565b60001983015b80156101955761015a8260028a6101e3565b915081600114156101735760009550505050505061019f565b6001880382141561018c5760019550505050505061019f565b60001901610148565b5060009450505050505b92915050565b6101ad61028f565b600060001983015b600281066101cd5760019190910190600290046101b5565b6101d561028f565b918252602082015292915050565b60008184816101ee57fe5b0693506001845b841561023c57600285049460019081169081141561021e579181029184838161021a57fe5b0692505b6102288283610245565b915084828161023357fe5b069150506101f5565b50949350505050565b6000826102545750600061019f565b8282028284828161026157fe5b04146102885760405162461bcd60e51b815260040161027f9061034d565b60405180910390fd5b9392505050565b60405180604001604052806002906020820280368337509192915050565b6000602082840312156102be578081fd5b5035919050565b600080604083850312156102d7578081fd5b50508035926020909101359150565b6000806000606084860312156102fa578081fd5b505081359360208301359350604090920135919050565b60408101818360005b600281101561033957815183526020928301929091019060010161031a565b50505092915050565b901515815260200190565b60208082526021908201527f536166654d6174683a206d756c7469706c69636174696f6e206f766572666c6f6040820152607760f81b606082015260800190565b9081526020019056fea26469706673582212200388733da7bd1f6cd90bd2aba122bcfe3be00e2a5598e874fdb36e2d7fe72d2d64736f6c63430007030033",
  "immutableReferences": {},
  "source": "// SPDX-License-Identifier: UNLICENSED\npragma solidity ^0.7;\npragma experimental ABIEncoderV2;\n\n// from https://gist.github.com/lhartikk/c7bbc120aa8e58a0e0e781edb9a90497\nlibrary Prime {\n    // miller rabin test\n    function probablyPrime(uint256 n, uint256 prime)\n        public\n        pure\n        returns (bool)\n    {\n        if (n == 2 || n == 3) {\n            return true;\n        }\n\n        if (n % 2 == 0 || n < 2) {\n            return false;\n        }\n\n        uint256[2] memory values = getValues(n);\n        uint256 s = values[0];\n        uint256 d = values[1];\n\n        uint256 x = fastModularExponentiation(prime, d, n);\n\n        if (x == 1 || x == n - 1) {\n            return true;\n        }\n\n        for (uint256 i = s - 1; i > 0; i--) {\n            x = fastModularExponentiation(x, 2, n);\n            if (x == 1) {\n                return false;\n            }\n            if (x == n - 1) {\n                return true;\n            }\n        }\n        return false;\n    }\n\n    function fastModularExponentiation(\n        uint256 a,\n        uint256 b,\n        uint256 n\n    ) public pure returns (uint256) {\n        a = a % n;\n        uint256 result = 1;\n        uint256 x = a;\n\n        while (b > 0) {\n            uint256 leastSignificantBit = b % 2;\n            b = b / 2;\n\n            if (leastSignificantBit == 1) {\n                result = result * x;\n                result = result % n;\n            }\n            x = mul(x, x);\n            x = x % n;\n        }\n        return result;\n    }\n\n    // Write (n - 1) as 2^s * d\n    function getValues(uint256 n) public pure returns (uint256[2] memory) {\n        uint256 s = 0;\n        uint256 d = n - 1;\n        while (d % 2 == 0) {\n            d = d / 2;\n            s++;\n        }\n        uint256[2] memory ret;\n        ret[0] = s;\n        ret[1] = d;\n        return ret;\n    }\n\n    // copied from openzeppelin\n    // https://github.com/OpenZeppelin/openzeppelin-solidity/blob/master/contracts/math/SafeMath.sol\n    function mul(uint256 a, uint256 b) internal pure returns (uint256) {\n        if (a == 0) {\n            return 0;\n        }\n\n        uint256 c = a * b;\n        require(c / a == b, \"SafeMath: multiplication overflow\");\n\n        return c;\n    }\n}\n",
  "sourcePath": "/Users/gupadhyaya/go/src/github.com/harmony-one/horizon/contracts/ethash/Prime.sol",
  "compiler": {
    "name": "solc",
    "version": "0.7.3+commit.9bfce1f6.Emscripten.clang"
  },
  "schemaVersion": "3.4.1",
  "updatedAt": "2021-07-21T20:39:02.239Z",
  "devdoc": {
    "kind": "dev",
    "methods": {},
    "version": 1
  },
  "userdoc": {
    "kind": "user",
    "methods": {},
    "version": 1
  }
}