{
  "contractName": "LightClientUnsafe",
  "abi": [
    {
      "constant": false,
      "inputs": [
        {
          "internalType": "bytes32",
          "name": "blockHash",
          "type": "bytes32"
        },
        {
          "internalType": "bytes32",
          "name": "receiptsHash",
          "type": "bytes32"
        }
      ],
      "name": "VerifyReceiptsHash",
      "outputs": [
        {
          "internalType": "bool",
          "name": "",
          "type": "bool"
        }
      ],
      "payable": false,
      "stateMutability": "nonpayable",
      "type": "function"
    }
  ],
  "bytecode": "0x6080604052348015600f57600080fd5b50609e8061001e6000396000f3fe6080604052348015600f57600080fd5b506004361060285760003560e01c806329e141af14602d575b600080fd5b604d60048036036040811015604157600080fd5b50803590602001356061565b604080519115158252519081900360200190f35b60019291505056fea265627a7a72315820c19ba4c09c326341737cf5a972073d08c894da108826e18337473217d37151f364736f6c63430005110032",
  "source": "pragma solidity ^0.5.0;\n\nimport \"@openzeppelin/contracts//ownership/Ownable.sol\";\n\ninterface ILightClient {\n    function VerifyReceiptsHash(bytes32 blockHash, bytes32 receiptsHash) external returns(bool);\n}\n\ncontract LightClientUnsafe is ILightClient {\n    function VerifyReceiptsHash(bytes32 blockHash, bytes32 receiptsHash) public returns(bool) {\n        blockHash;receiptsHash;\n        return true;\n    }\n}\n\ncontract LightClientTrust is ILightClient,Ownable {\n    constructor() Ownable() public {}\n    mapping(bytes32=>bytes32) public Receipts;\n    function VerifyReceiptsHash(bytes32 blockHash, bytes32 receiptsHash) public returns(bool) {\n        return Receipts[blockHash] == receiptsHash;\n    }\n\n    function FeedReeipts(bytes32 blockHash, bytes32 receiptsHash) public onlyOwner {\n        Receipts[blockHash] = receiptsHash;\n    }\n}",
  "sourcePath": "/media/harsha/home/workspace/horizon/everifier/contracts/LightClient.sol",
  "compiler": {
    "name": "solc",
    "version": "0.5.17+commit.d19bba13.Emscripten.clang"
  },
  "schemaVersion": "3.3.3",
  "updatedAt": "2021-01-02T20:12:10.957Z",
  "devdoc": {
    "methods": {}
  },
  "userdoc": {
    "methods": {}
  }
}